{
	"solidity-snippets/sigreplay.sol": {
		"MultiSigWallet": {
			"abi": [
				{
					"inputs": [
						{
							"internalType": "address[2]",
							"name": "_owners",
							"type": "address[2]"
						}
					],
					"stateMutability": "payable",
					"type": "constructor"
				},
				{
					"inputs": [],
					"name": "deposit",
					"outputs": [],
					"stateMutability": "payable",
					"type": "function"
				},
				{
					"inputs": [
						{
							"internalType": "address",
							"name": "_to",
							"type": "address"
						},
						{
							"internalType": "uint256",
							"name": "_amount",
							"type": "uint256"
						}
					],
					"name": "getTxHash",
					"outputs": [
						{
							"internalType": "bytes32",
							"name": "",
							"type": "bytes32"
						}
					],
					"stateMutability": "view",
					"type": "function"
				},
				{
					"inputs": [
						{
							"internalType": "uint256",
							"name": "",
							"type": "uint256"
						}
					],
					"name": "owners",
					"outputs": [
						{
							"internalType": "address",
							"name": "",
							"type": "address"
						}
					],
					"stateMutability": "view",
					"type": "function"
				},
				{
					"inputs": [
						{
							"internalType": "address",
							"name": "_to",
							"type": "address"
						},
						{
							"internalType": "uint256",
							"name": "_amount",
							"type": "uint256"
						},
						{
							"internalType": "bytes[2]",
							"name": "_sigs",
							"type": "bytes[2]"
						}
					],
					"name": "transfer",
					"outputs": [],
					"stateMutability": "nonpayable",
					"type": "function"
				}
			],
			"devdoc": {
				"kind": "dev",
				"methods": {},
				"version": 1
			},
			"evm": {
				"assembly": "    /* \"solidity-snippets/sigreplay.sol\":167:1319  contract MultiSigWallet {... */\n  mstore(0x40, 0x80)\n    /* \"solidity-snippets/sigreplay.sol\":258:338  constructor(address[2] memory _owners) payable {... */\n  mload(0x40)\n  sub(codesize, bytecodeSize)\n  dup1\n  bytecodeSize\n  dup4\n  codecopy\n  dup2\n  dup2\n  add\n  0x40\n  mstore\n  dup2\n  add\n  swap1\n  tag_1\n  swap2\n  swap1\n  tag_2\n  jump\t// in\ntag_1:\n    /* \"solidity-snippets/sigreplay.sol\":324:331  _owners */\n  dup1\n    /* \"solidity-snippets/sigreplay.sol\":315:321  owners */\n  0x00\n    /* \"solidity-snippets/sigreplay.sol\":315:331  owners = _owners */\n  swap1\n  0x02\n  tag_5\n  swap3\n  swap2\n  swap1\n  tag_6\n  jump\t// in\ntag_5:\n  pop\n    /* \"solidity-snippets/sigreplay.sol\":258:338  constructor(address[2] memory _owners) payable {... */\n  pop\n    /* \"solidity-snippets/sigreplay.sol\":167:1319  contract MultiSigWallet {... */\n  jump(tag_7)\ntag_6:\n  dup3\n  0x02\n  dup2\n  add\n  swap3\n  dup3\n  iszero\n  tag_8\n  jumpi\n  swap2\n  0x20\n  mul\n  dup3\n  add\ntag_9:\n  dup3\n  dup2\n  gt\n  iszero\n  tag_10\n  jumpi\n  dup3\n  mload\n  dup3\n  exp(0x0100, 0x00)\n  dup2\n  sload\n  dup2\n  0xffffffffffffffffffffffffffffffffffffffff\n  mul\n  not\n  and\n  swap1\n  dup4\n  0xffffffffffffffffffffffffffffffffffffffff\n  and\n  mul\n  or\n  swap1\n  sstore\n  pop\n  swap2\n  0x20\n  add\n  swap2\n  swap1\n  0x01\n  add\n  swap1\n  jump(tag_9)\ntag_10:\ntag_8:\n  pop\n  swap1\n  pop\n  tag_11\n  swap2\n  swap1\n  tag_12\n  jump\t// in\ntag_11:\n  pop\n  swap1\n  jump\t// out\ntag_12:\ntag_13:\n  dup1\n  dup3\n  gt\n  iszero\n  tag_14\n  jumpi\n  0x00\n  dup2\n  0x00\n  swap1\n  sstore\n  pop\n  0x01\n  add\n  jump(tag_13)\ntag_14:\n  pop\n  swap1\n  jump\t// out\n    /* \"#utility.yul\":7:82   */\ntag_15:\n    /* \"#utility.yul\":40:46   */\n  0x00\n    /* \"#utility.yul\":73:75   */\n  0x40\n    /* \"#utility.yul\":67:76   */\n  mload\n    /* \"#utility.yul\":57:76   */\n  swap1\n  pop\n    /* \"#utility.yul\":7:82   */\n  swap1\n  jump\t// out\n    /* \"#utility.yul\":88:205   */\ntag_16:\n    /* \"#utility.yul\":197:198   */\n  0x00\n    /* \"#utility.yul\":194:195   */\n  dup1\n    /* \"#utility.yul\":187:199   */\n  revert\n    /* \"#utility.yul\":334:451   */\ntag_18:\n    /* \"#utility.yul\":443:444   */\n  0x00\n    /* \"#utility.yul\":440:441   */\n  dup1\n    /* \"#utility.yul\":433:445   */\n  revert\n    /* \"#utility.yul\":457:559   */\ntag_19:\n    /* \"#utility.yul\":498:504   */\n  0x00\n    /* \"#utility.yul\":549:551   */\n  0x1f\n    /* \"#utility.yul\":545:552   */\n  not\n    /* \"#utility.yul\":540:542   */\n  0x1f\n    /* \"#utility.yul\":533:538   */\n  dup4\n    /* \"#utility.yul\":529:543   */\n  add\n    /* \"#utility.yul\":525:553   */\n  and\n    /* \"#utility.yul\":515:553   */\n  swap1\n  pop\n    /* \"#utility.yul\":457:559   */\n  swap2\n  swap1\n  pop\n  jump\t// out\n    /* \"#utility.yul\":565:745   */\ntag_20:\n    /* \"#utility.yul\":613:690   */\n  0x4e487b7100000000000000000000000000000000000000000000000000000000\n    /* \"#utility.yul\":610:611   */\n  0x00\n    /* \"#utility.yul\":603:691   */\n  mstore\n    /* \"#utility.yul\":710:714   */\n  0x41\n    /* \"#utility.yul\":707:708   */\n  0x04\n    /* \"#utility.yul\":700:715   */\n  mstore\n    /* \"#utility.yul\":734:738   */\n  0x24\n    /* \"#utility.yul\":731:732   */\n  0x00\n    /* \"#utility.yul\":724:739   */\n  revert\n    /* \"#utility.yul\":751:1032   */\ntag_21:\n    /* \"#utility.yul\":834:861   */\n  tag_39\n    /* \"#utility.yul\":856:860   */\n  dup3\n    /* \"#utility.yul\":834:861   */\n  tag_19\n  jump\t// in\ntag_39:\n    /* \"#utility.yul\":826:832   */\n  dup2\n    /* \"#utility.yul\":822:862   */\n  add\n    /* \"#utility.yul\":964:970   */\n  dup2\n    /* \"#utility.yul\":952:962   */\n  dup2\n    /* \"#utility.yul\":949:971   */\n  lt\n    /* \"#utility.yul\":928:946   */\n  0xffffffffffffffff\n    /* \"#utility.yul\":916:926   */\n  dup3\n    /* \"#utility.yul\":913:947   */\n  gt\n    /* \"#utility.yul\":910:972   */\n  or\n    /* \"#utility.yul\":907:995   */\n  iszero\n  tag_40\n  jumpi\n    /* \"#utility.yul\":975:993   */\n  tag_41\n  tag_20\n  jump\t// in\ntag_41:\n    /* \"#utility.yul\":907:995   */\ntag_40:\n    /* \"#utility.yul\":1015:1025   */\n  dup1\n    /* \"#utility.yul\":1011:1013   */\n  0x40\n    /* \"#utility.yul\":1004:1026   */\n  mstore\n    /* \"#utility.yul\":794:1032   */\n  pop\n    /* \"#utility.yul\":751:1032   */\n  pop\n  pop\n  jump\t// out\n    /* \"#utility.yul\":1038:1167   */\ntag_22:\n    /* \"#utility.yul\":1072:1078   */\n  0x00\n    /* \"#utility.yul\":1099:1119   */\n  tag_43\n  tag_15\n  jump\t// in\ntag_43:\n    /* \"#utility.yul\":1089:1119   */\n  swap1\n  pop\n    /* \"#utility.yul\":1128:1161   */\n  tag_44\n    /* \"#utility.yul\":1156:1160   */\n  dup3\n    /* \"#utility.yul\":1148:1154   */\n  dup3\n    /* \"#utility.yul\":1128:1161   */\n  tag_21\n  jump\t// in\ntag_44:\n    /* \"#utility.yul\":1038:1167   */\n  swap2\n  swap1\n  pop\n  jump\t// out\n    /* \"#utility.yul\":1173:1422   */\ntag_23:\n    /* \"#utility.yul\":1248:1252   */\n  0x00\n    /* \"#utility.yul\":1338:1356   */\n  0xffffffffffffffff\n    /* \"#utility.yul\":1330:1336   */\n  dup3\n    /* \"#utility.yul\":1327:1357   */\n  gt\n    /* \"#utility.yul\":1324:1380   */\n  iszero\n  tag_46\n  jumpi\n    /* \"#utility.yul\":1360:1378   */\n  tag_47\n  tag_20\n  jump\t// in\ntag_47:\n    /* \"#utility.yul\":1324:1380   */\ntag_46:\n    /* \"#utility.yul\":1410:1414   */\n  0x20\n    /* \"#utility.yul\":1402:1408   */\n  dup3\n    /* \"#utility.yul\":1398:1415   */\n  mul\n    /* \"#utility.yul\":1390:1415   */\n  swap1\n  pop\n    /* \"#utility.yul\":1173:1422   */\n  swap2\n  swap1\n  pop\n  jump\t// out\n    /* \"#utility.yul\":1428:1545   */\ntag_24:\n    /* \"#utility.yul\":1537:1538   */\n  0x00\n    /* \"#utility.yul\":1534:1535   */\n  dup1\n    /* \"#utility.yul\":1527:1539   */\n  revert\n    /* \"#utility.yul\":1551:1677   */\ntag_25:\n    /* \"#utility.yul\":1588:1595   */\n  0x00\n    /* \"#utility.yul\":1628:1670   */\n  0xffffffffffffffffffffffffffffffffffffffff\n    /* \"#utility.yul\":1621:1626   */\n  dup3\n    /* \"#utility.yul\":1617:1671   */\n  and\n    /* \"#utility.yul\":1606:1671   */\n  swap1\n  pop\n    /* \"#utility.yul\":1551:1677   */\n  swap2\n  swap1\n  pop\n  jump\t// out\n    /* \"#utility.yul\":1683:1779   */\ntag_26:\n    /* \"#utility.yul\":1720:1727   */\n  0x00\n    /* \"#utility.yul\":1749:1773   */\n  tag_51\n    /* \"#utility.yul\":1767:1772   */\n  dup3\n    /* \"#utility.yul\":1749:1773   */\n  tag_25\n  jump\t// in\ntag_51:\n    /* \"#utility.yul\":1738:1773   */\n  swap1\n  pop\n    /* \"#utility.yul\":1683:1779   */\n  swap2\n  swap1\n  pop\n  jump\t// out\n    /* \"#utility.yul\":1785:1907   */\ntag_27:\n    /* \"#utility.yul\":1858:1882   */\n  tag_53\n    /* \"#utility.yul\":1876:1881   */\n  dup2\n    /* \"#utility.yul\":1858:1882   */\n  tag_26\n  jump\t// in\ntag_53:\n    /* \"#utility.yul\":1851:1856   */\n  dup2\n    /* \"#utility.yul\":1848:1883   */\n  eq\n    /* \"#utility.yul\":1838:1901   */\n  tag_54\n  jumpi\n    /* \"#utility.yul\":1897:1898   */\n  0x00\n    /* \"#utility.yul\":1894:1895   */\n  dup1\n    /* \"#utility.yul\":1887:1899   */\n  revert\n    /* \"#utility.yul\":1838:1901   */\ntag_54:\n    /* \"#utility.yul\":1785:1907   */\n  pop\n  jump\t// out\n    /* \"#utility.yul\":1913:2056   */\ntag_28:\n    /* \"#utility.yul\":1970:1975   */\n  0x00\n    /* \"#utility.yul\":2001:2007   */\n  dup2\n    /* \"#utility.yul\":1995:2008   */\n  mload\n    /* \"#utility.yul\":1986:2008   */\n  swap1\n  pop\n    /* \"#utility.yul\":2017:2050   */\n  tag_56\n    /* \"#utility.yul\":2044:2049   */\n  dup2\n    /* \"#utility.yul\":2017:2050   */\n  tag_27\n  jump\t// in\ntag_56:\n    /* \"#utility.yul\":1913:2056   */\n  swap3\n  swap2\n  pop\n  pop\n  jump\t// out\n    /* \"#utility.yul\":2080:2745   */\ntag_29:\n    /* \"#utility.yul\":2185:2190   */\n  0x00\n    /* \"#utility.yul\":2210:2289   */\n  tag_58\n    /* \"#utility.yul\":2226:2288   */\n  tag_59\n    /* \"#utility.yul\":2281:2287   */\n  dup5\n    /* \"#utility.yul\":2226:2288   */\n  tag_23\n  jump\t// in\ntag_59:\n    /* \"#utility.yul\":2210:2289   */\n  tag_22\n  jump\t// in\ntag_58:\n    /* \"#utility.yul\":2201:2289   */\n  swap1\n  pop\n    /* \"#utility.yul\":2309:2314   */\n  dup1\n    /* \"#utility.yul\":2362:2366   */\n  0x20\n    /* \"#utility.yul\":2354:2360   */\n  dup5\n    /* \"#utility.yul\":2350:2367   */\n  mul\n    /* \"#utility.yul\":2342:2348   */\n  dup4\n    /* \"#utility.yul\":2338:2368   */\n  add\n    /* \"#utility.yul\":2391:2394   */\n  dup6\n    /* \"#utility.yul\":2383:2389   */\n  dup2\n    /* \"#utility.yul\":2380:2395   */\n  gt\n    /* \"#utility.yul\":2377:2499   */\n  iszero\n  tag_60\n  jumpi\n    /* \"#utility.yul\":2410:2489   */\n  tag_61\n  tag_24\n  jump\t// in\ntag_61:\n    /* \"#utility.yul\":2377:2499   */\ntag_60:\n    /* \"#utility.yul\":2525:2531   */\n  dup4\n    /* \"#utility.yul\":2508:2739   */\ntag_62:\n    /* \"#utility.yul\":2542:2548   */\n  dup2\n    /* \"#utility.yul\":2537:2540   */\n  dup2\n    /* \"#utility.yul\":2534:2549   */\n  lt\n    /* \"#utility.yul\":2508:2739   */\n  iszero\n  tag_64\n  jumpi\n    /* \"#utility.yul\":2617:2620   */\n  dup1\n    /* \"#utility.yul\":2646:2694   */\n  tag_65\n    /* \"#utility.yul\":2690:2693   */\n  dup9\n    /* \"#utility.yul\":2678:2688   */\n  dup3\n    /* \"#utility.yul\":2646:2694   */\n  tag_28\n  jump\t// in\ntag_65:\n    /* \"#utility.yul\":2641:2644   */\n  dup5\n    /* \"#utility.yul\":2634:2695   */\n  mstore\n    /* \"#utility.yul\":2724:2728   */\n  0x20\n    /* \"#utility.yul\":2719:2722   */\n  dup5\n    /* \"#utility.yul\":2715:2729   */\n  add\n    /* \"#utility.yul\":2708:2729   */\n  swap4\n  pop\n    /* \"#utility.yul\":2584:2739   */\n  pop\n    /* \"#utility.yul\":2568:2572   */\n  0x20\n    /* \"#utility.yul\":2563:2566   */\n  dup2\n    /* \"#utility.yul\":2559:2573   */\n  add\n    /* \"#utility.yul\":2552:2573   */\n  swap1\n  pop\n    /* \"#utility.yul\":2508:2739   */\n  jump(tag_62)\ntag_64:\n    /* \"#utility.yul\":2512:2533   */\n  pop\n    /* \"#utility.yul\":2191:2745   */\n  pop\n  pop\n    /* \"#utility.yul\":2080:2745   */\n  swap4\n  swap3\n  pop\n  pop\n  pop\n  jump\t// out\n    /* \"#utility.yul\":2769:3130   */\ntag_30:\n    /* \"#utility.yul\":2849:2854   */\n  0x00\n    /* \"#utility.yul\":2898:2901   */\n  dup3\n    /* \"#utility.yul\":2891:2895   */\n  0x1f\n    /* \"#utility.yul\":2883:2889   */\n  dup4\n    /* \"#utility.yul\":2879:2896   */\n  add\n    /* \"#utility.yul\":2875:2902   */\n  slt\n    /* \"#utility.yul\":2865:2987   */\n  tag_67\n  jumpi\n    /* \"#utility.yul\":2906:2985   */\n  tag_68\n  tag_18\n  jump\t// in\ntag_68:\n    /* \"#utility.yul\":2865:2987   */\ntag_67:\n    /* \"#utility.yul\":3010:3014   */\n  0x02\n    /* \"#utility.yul\":3032:3124   */\n  tag_69\n    /* \"#utility.yul\":3120:3123   */\n  dup5\n    /* \"#utility.yul\":3112:3118   */\n  dup3\n    /* \"#utility.yul\":3104:3110   */\n  dup6\n    /* \"#utility.yul\":3032:3124   */\n  tag_29\n  jump\t// in\ntag_69:\n    /* \"#utility.yul\":3023:3124   */\n  swap2\n  pop\n    /* \"#utility.yul\":2855:3130   */\n  pop\n    /* \"#utility.yul\":2769:3130   */\n  swap3\n  swap2\n  pop\n  pop\n  jump\t// out\n    /* \"#utility.yul\":3136:3533   */\ntag_2:\n    /* \"#utility.yul\":3229:3235   */\n  0x00\n    /* \"#utility.yul\":3278:3280   */\n  0x40\n    /* \"#utility.yul\":3266:3275   */\n  dup3\n    /* \"#utility.yul\":3257:3264   */\n  dup5\n    /* \"#utility.yul\":3253:3276   */\n  sub\n    /* \"#utility.yul\":3249:3281   */\n  slt\n    /* \"#utility.yul\":3246:3365   */\n  iszero\n  tag_71\n  jumpi\n    /* \"#utility.yul\":3284:3363   */\n  tag_72\n  tag_16\n  jump\t// in\ntag_72:\n    /* \"#utility.yul\":3246:3365   */\ntag_71:\n    /* \"#utility.yul\":3404:3405   */\n  0x00\n    /* \"#utility.yul\":3429:3516   */\n  tag_73\n    /* \"#utility.yul\":3508:3515   */\n  dup5\n    /* \"#utility.yul\":3499:3505   */\n  dup3\n    /* \"#utility.yul\":3488:3497   */\n  dup6\n    /* \"#utility.yul\":3484:3506   */\n  add\n    /* \"#utility.yul\":3429:3516   */\n  tag_30\n  jump\t// in\ntag_73:\n    /* \"#utility.yul\":3419:3516   */\n  swap2\n  pop\n    /* \"#utility.yul\":3375:3526   */\n  pop\n    /* \"#utility.yul\":3136:3533   */\n  swap3\n  swap2\n  pop\n  pop\n  jump\t// out\n    /* \"solidity-snippets/sigreplay.sol\":167:1319  contract MultiSigWallet {... */\ntag_7:\n  dataSize(sub_0)\n  dup1\n  dataOffset(sub_0)\n  0x00\n  codecopy\n  0x00\n  return\nstop\n\nsub_0: assembly {\n        /* \"solidity-snippets/sigreplay.sol\":167:1319  contract MultiSigWallet {... */\n      mstore(0x40, 0x80)\n      jumpi(tag_1, lt(calldatasize, 0x04))\n      shr(0xe0, calldataload(0x00))\n      dup1\n      0x025e7c27\n      eq\n      tag_2\n      jumpi\n      dup1\n      0x9a4b740b\n      eq\n      tag_3\n      jumpi\n      dup1\n      0xd0e30db0\n      eq\n      tag_4\n      jumpi\n      dup1\n      0xffb485b8\n      eq\n      tag_5\n      jumpi\n    tag_1:\n      0x00\n      dup1\n      revert\n        /* \"solidity-snippets/sigreplay.sol\":227:251  address[2] public owners */\n    tag_2:\n      callvalue\n      dup1\n      iszero\n      tag_6\n      jumpi\n      0x00\n      dup1\n      revert\n    tag_6:\n      pop\n      tag_7\n      0x04\n      dup1\n      calldatasize\n      sub\n      dup2\n      add\n      swap1\n      tag_8\n      swap2\n      swap1\n      tag_9\n      jump\t// in\n    tag_8:\n      tag_10\n      jump\t// in\n    tag_7:\n      mload(0x40)\n      tag_11\n      swap2\n      swap1\n      tag_12\n      jump\t// in\n    tag_11:\n      mload(0x40)\n      dup1\n      swap2\n      sub\n      swap1\n      return\n        /* \"solidity-snippets/sigreplay.sol\":719:860  function getTxHash(address _to, uint _amount) public view returns (bytes32) {... */\n    tag_3:\n      callvalue\n      dup1\n      iszero\n      tag_13\n      jumpi\n      0x00\n      dup1\n      revert\n    tag_13:\n      pop\n      tag_14\n      0x04\n      dup1\n      calldatasize\n      sub\n      dup2\n      add\n      swap1\n      tag_15\n      swap2\n      swap1\n      tag_16\n      jump\t// in\n    tag_15:\n      tag_17\n      jump\t// in\n    tag_14:\n      mload(0x40)\n      tag_18\n      swap2\n      swap1\n      tag_19\n      jump\t// in\n    tag_18:\n      mload(0x40)\n      dup1\n      swap2\n      sub\n      swap1\n      return\n        /* \"solidity-snippets/sigreplay.sol\":344:382  function deposit() external payable {} */\n    tag_4:\n      tag_20\n      tag_21\n      jump\t// in\n    tag_20:\n      stop\n        /* \"solidity-snippets/sigreplay.sol\":388:713  function transfer(... */\n    tag_5:\n      callvalue\n      dup1\n      iszero\n      tag_22\n      jumpi\n      0x00\n      dup1\n      revert\n    tag_22:\n      pop\n      tag_23\n      0x04\n      dup1\n      calldatasize\n      sub\n      dup2\n      add\n      swap1\n      tag_24\n      swap2\n      swap1\n      tag_25\n      jump\t// in\n    tag_24:\n      tag_26\n      jump\t// in\n    tag_23:\n      stop\n        /* \"solidity-snippets/sigreplay.sol\":227:251  address[2] public owners */\n    tag_10:\n      0x00\n      dup2\n      0x02\n      dup2\n      lt\n      tag_27\n      jumpi\n      0x00\n      dup1\n      revert\n    tag_27:\n      add\n      0x00\n      swap2\n      pop\n      sload\n      swap1\n      0x0100\n      exp\n      swap1\n      div\n      0xffffffffffffffffffffffffffffffffffffffff\n      and\n      dup2\n      jump\t// out\n        /* \"solidity-snippets/sigreplay.sol\":719:860  function getTxHash(address _to, uint _amount) public view returns (bytes32) {... */\n    tag_17:\n        /* \"solidity-snippets/sigreplay.sol\":786:793  bytes32 */\n      0x00\n        /* \"solidity-snippets/sigreplay.sol\":839:842  _to */\n      dup3\n        /* \"solidity-snippets/sigreplay.sol\":844:851  _amount */\n      dup3\n        /* \"solidity-snippets/sigreplay.sol\":822:852  abi.encodePacked(_to, _amount) */\n      add(0x20, mload(0x40))\n      tag_30\n      swap3\n      swap2\n      swap1\n      tag_31\n      jump\t// in\n    tag_30:\n      mload(0x40)\n      0x20\n      dup2\n      dup4\n      sub\n      sub\n      dup2\n      mstore\n      swap1\n      0x40\n      mstore\n        /* \"solidity-snippets/sigreplay.sol\":812:853  keccak256(abi.encodePacked(_to, _amount)) */\n      dup1\n      mload\n      swap1\n      0x20\n      add\n      keccak256\n        /* \"solidity-snippets/sigreplay.sol\":805:853  return keccak256(abi.encodePacked(_to, _amount)) */\n      swap1\n      pop\n        /* \"solidity-snippets/sigreplay.sol\":719:860  function getTxHash(address _to, uint _amount) public view returns (bytes32) {... */\n      swap3\n      swap2\n      pop\n      pop\n      jump\t// out\n        /* \"solidity-snippets/sigreplay.sol\":344:382  function deposit() external payable {} */\n    tag_21:\n      jump\t// out\n        /* \"solidity-snippets/sigreplay.sol\":388:713  function transfer(... */\n    tag_26:\n        /* \"solidity-snippets/sigreplay.sol\":505:519  bytes32 txHash */\n      0x00\n        /* \"solidity-snippets/sigreplay.sol\":522:545  getTxHash(_to, _amount) */\n      tag_34\n        /* \"solidity-snippets/sigreplay.sol\":532:535  _to */\n      dup5\n        /* \"solidity-snippets/sigreplay.sol\":537:544  _amount */\n      dup5\n        /* \"solidity-snippets/sigreplay.sol\":522:531  getTxHash */\n      tag_17\n        /* \"solidity-snippets/sigreplay.sol\":522:545  getTxHash(_to, _amount) */\n      jump\t// in\n    tag_34:\n        /* \"solidity-snippets/sigreplay.sol\":505:545  bytes32 txHash = getTxHash(_to, _amount) */\n      swap1\n      pop\n        /* \"solidity-snippets/sigreplay.sol\":563:588  _checkSigs(_sigs, txHash) */\n      tag_35\n        /* \"solidity-snippets/sigreplay.sol\":574:579  _sigs */\n      dup3\n        /* \"solidity-snippets/sigreplay.sol\":581:587  txHash */\n      dup3\n        /* \"solidity-snippets/sigreplay.sol\":563:573  _checkSigs */\n      tag_36\n        /* \"solidity-snippets/sigreplay.sol\":563:588  _checkSigs(_sigs, txHash) */\n      jump\t// in\n    tag_35:\n        /* \"solidity-snippets/sigreplay.sol\":555:604  require(_checkSigs(_sigs, txHash), \"invalid sig\") */\n      tag_37\n      jumpi\n      mload(0x40)\n      0x08c379a000000000000000000000000000000000000000000000000000000000\n      dup2\n      mstore\n      0x04\n      add\n      tag_38\n      swap1\n      tag_39\n      jump\t// in\n    tag_38:\n      mload(0x40)\n      dup1\n      swap2\n      sub\n      swap1\n      revert\n    tag_37:\n        /* \"solidity-snippets/sigreplay.sol\":616:625  bool sent */\n      0x00\n        /* \"solidity-snippets/sigreplay.sol\":631:634  _to */\n      dup5\n        /* \"solidity-snippets/sigreplay.sol\":631:639  _to.call */\n      0xffffffffffffffffffffffffffffffffffffffff\n      and\n        /* \"solidity-snippets/sigreplay.sol\":647:654  _amount */\n      dup5\n        /* \"solidity-snippets/sigreplay.sol\":631:659  _to.call{value: _amount}(\"\") */\n      mload(0x40)\n      tag_40\n      swap1\n      tag_41\n      jump\t// in\n    tag_40:\n      0x00\n      mload(0x40)\n      dup1\n      dup4\n      sub\n      dup2\n      dup6\n      dup8\n      gas\n      call\n      swap3\n      pop\n      pop\n      pop\n      returndatasize\n      dup1\n      0x00\n      dup2\n      eq\n      tag_44\n      jumpi\n      mload(0x40)\n      swap2\n      pop\n      and(add(returndatasize, 0x3f), not(0x1f))\n      dup3\n      add\n      0x40\n      mstore\n      returndatasize\n      dup3\n      mstore\n      returndatasize\n      0x00\n      0x20\n      dup5\n      add\n      returndatacopy\n      jump(tag_43)\n    tag_44:\n      0x60\n      swap2\n      pop\n    tag_43:\n      pop\n        /* \"solidity-snippets/sigreplay.sol\":615:659  (bool sent, ) = _to.call{value: _amount}(\"\") */\n      pop\n      swap1\n      pop\n        /* \"solidity-snippets/sigreplay.sol\":677:681  sent */\n      dup1\n        /* \"solidity-snippets/sigreplay.sol\":669:706  require(sent, \"Failed to send Ether\") */\n      tag_45\n      jumpi\n      mload(0x40)\n      0x08c379a000000000000000000000000000000000000000000000000000000000\n      dup2\n      mstore\n      0x04\n      add\n      tag_46\n      swap1\n      tag_47\n      jump\t// in\n    tag_46:\n      mload(0x40)\n      dup1\n      swap2\n      sub\n      swap1\n      revert\n    tag_45:\n        /* \"solidity-snippets/sigreplay.sol\":495:713  {... */\n      pop\n      pop\n        /* \"solidity-snippets/sigreplay.sol\":388:713  function transfer(... */\n      pop\n      pop\n      pop\n      jump\t// out\n        /* \"solidity-snippets/sigreplay.sol\":866:1317  function _checkSigs(bytes[2] memory _sigs, bytes32 _txHash)... */\n    tag_36:\n        /* \"solidity-snippets/sigreplay.sol\":972:976  bool */\n      0x00\n        /* \"solidity-snippets/sigreplay.sol\":992:1013  bytes32 ethSignedHash */\n      dup1\n        /* \"solidity-snippets/sigreplay.sol\":1016:1048  _txHash.toEthSignedMessageHash() */\n      tag_49\n        /* \"solidity-snippets/sigreplay.sol\":1016:1023  _txHash */\n      dup4\n        /* \"solidity-snippets/sigreplay.sol\":1016:1046  _txHash.toEthSignedMessageHash */\n      tag_50\n        /* \"solidity-snippets/sigreplay.sol\":1016:1048  _txHash.toEthSignedMessageHash() */\n      jump\t// in\n    tag_49:\n        /* \"solidity-snippets/sigreplay.sol\":992:1048  bytes32 ethSignedHash = _txHash.toEthSignedMessageHash() */\n      swap1\n      pop\n        /* \"solidity-snippets/sigreplay.sol\":1064:1070  uint i */\n      0x00\n        /* \"solidity-snippets/sigreplay.sol\":1059:1289  for (uint i = 0; i < _sigs.length; i++) {... */\n    tag_51:\n        /* \"solidity-snippets/sigreplay.sol\":1080:1092  _sigs.length */\n      0x02\n        /* \"solidity-snippets/sigreplay.sol\":1076:1077  i */\n      dup2\n        /* \"solidity-snippets/sigreplay.sol\":1076:1092  i < _sigs.length */\n      lt\n        /* \"solidity-snippets/sigreplay.sol\":1059:1289  for (uint i = 0; i < _sigs.length; i++) {... */\n      iszero\n      tag_52\n      jumpi\n        /* \"solidity-snippets/sigreplay.sol\":1113:1127  address signer */\n      0x00\n        /* \"solidity-snippets/sigreplay.sol\":1130:1161  ethSignedHash.recover(_sigs[i]) */\n      tag_54\n        /* \"solidity-snippets/sigreplay.sol\":1152:1157  _sigs */\n      dup7\n        /* \"solidity-snippets/sigreplay.sol\":1158:1159  i */\n      dup4\n        /* \"solidity-snippets/sigreplay.sol\":1152:1160  _sigs[i] */\n      0x02\n      dup2\n      lt\n      tag_55\n      jumpi\n      tag_56\n      tag_57\n      jump\t// in\n    tag_56:\n    tag_55:\n      0x20\n      mul\n      add\n      mload\n        /* \"solidity-snippets/sigreplay.sol\":1130:1143  ethSignedHash */\n      dup5\n        /* \"solidity-snippets/sigreplay.sol\":1130:1151  ethSignedHash.recover */\n      tag_58\n      swap1\n        /* \"solidity-snippets/sigreplay.sol\":1130:1161  ethSignedHash.recover(_sigs[i]) */\n      swap2\n      swap1\n      0xffffffff\n      and\n      jump\t// in\n    tag_54:\n        /* \"solidity-snippets/sigreplay.sol\":1113:1161  address signer = ethSignedHash.recover(_sigs[i]) */\n      swap1\n      pop\n        /* \"solidity-snippets/sigreplay.sol\":1175:1185  bool valid */\n      0x00\n        /* \"solidity-snippets/sigreplay.sol\":1198:1204  owners */\n      dup1\n        /* \"solidity-snippets/sigreplay.sol\":1205:1206  i */\n      dup4\n        /* \"solidity-snippets/sigreplay.sol\":1198:1207  owners[i] */\n      0x02\n      dup2\n      lt\n      tag_59\n      jumpi\n      tag_60\n      tag_57\n      jump\t// in\n    tag_60:\n    tag_59:\n      add\n      0x00\n      swap1\n      sload\n      swap1\n      0x0100\n      exp\n      swap1\n      div\n      0xffffffffffffffffffffffffffffffffffffffff\n      and\n        /* \"solidity-snippets/sigreplay.sol\":1188:1207  signer == owners[i] */\n      0xffffffffffffffffffffffffffffffffffffffff\n      and\n        /* \"solidity-snippets/sigreplay.sol\":1188:1194  signer */\n      dup3\n        /* \"solidity-snippets/sigreplay.sol\":1188:1207  signer == owners[i] */\n      0xffffffffffffffffffffffffffffffffffffffff\n      and\n      eq\n        /* \"solidity-snippets/sigreplay.sol\":1175:1207  bool valid = signer == owners[i] */\n      swap1\n      pop\n        /* \"solidity-snippets/sigreplay.sol\":1227:1232  valid */\n      dup1\n        /* \"solidity-snippets/sigreplay.sol\":1222:1279  if (!valid) {... */\n      tag_62\n      jumpi\n        /* \"solidity-snippets/sigreplay.sol\":1259:1264  false */\n      0x00\n        /* \"solidity-snippets/sigreplay.sol\":1252:1264  return false */\n      swap5\n      pop\n      pop\n      pop\n      pop\n      pop\n      jump(tag_48)\n        /* \"solidity-snippets/sigreplay.sol\":1222:1279  if (!valid) {... */\n    tag_62:\n        /* \"solidity-snippets/sigreplay.sol\":1099:1289  {... */\n      pop\n      pop\n        /* \"solidity-snippets/sigreplay.sol\":1094:1097  i++ */\n      dup1\n      dup1\n      tag_63\n      swap1\n      tag_64\n      jump\t// in\n    tag_63:\n      swap2\n      pop\n      pop\n        /* \"solidity-snippets/sigreplay.sol\":1059:1289  for (uint i = 0; i < _sigs.length; i++) {... */\n      jump(tag_51)\n    tag_52:\n      pop\n        /* \"solidity-snippets/sigreplay.sol\":1306:1310  true */\n      0x01\n        /* \"solidity-snippets/sigreplay.sol\":1299:1310  return true */\n      swap2\n      pop\n      pop\n        /* \"solidity-snippets/sigreplay.sol\":866:1317  function _checkSigs(bytes[2] memory _sigs, bytes32 _txHash)... */\n    tag_48:\n      swap3\n      swap2\n      pop\n      pop\n      jump\t// out\n        /* \"solidity-snippets/openzeppelin-contracts/contracts/utils/cryptography/ECDSA.sol\":7997:8262  function toEthSignedMessageHash(bytes32 hash) internal pure returns (bytes32) {... */\n    tag_50:\n        /* \"solidity-snippets/openzeppelin-contracts/contracts/utils/cryptography/ECDSA.sol\":8066:8073  bytes32 */\n      0x00\n        /* \"solidity-snippets/openzeppelin-contracts/contracts/utils/cryptography/ECDSA.sol\":8249:8253  hash */\n      dup2\n        /* \"solidity-snippets/openzeppelin-contracts/contracts/utils/cryptography/ECDSA.sol\":8196:8254  abi.encodePacked(\"\\x19Ethereum Signed Message:\\n32\", hash) */\n      add(0x20, mload(0x40))\n      tag_66\n      swap2\n      swap1\n      tag_67\n      jump\t// in\n    tag_66:\n      mload(0x40)\n      0x20\n      dup2\n      dup4\n      sub\n      sub\n      dup2\n      mstore\n      swap1\n      0x40\n      mstore\n        /* \"solidity-snippets/openzeppelin-contracts/contracts/utils/cryptography/ECDSA.sol\":8186:8255  keccak256(abi.encodePacked(\"\\x19Ethereum Signed Message:\\n32\", hash)) */\n      dup1\n      mload\n      swap1\n      0x20\n      add\n      keccak256\n        /* \"solidity-snippets/openzeppelin-contracts/contracts/utils/cryptography/ECDSA.sol\":8179:8255  return keccak256(abi.encodePacked(\"\\x19Ethereum Signed Message:\\n32\", hash)) */\n      swap1\n      pop\n        /* \"solidity-snippets/openzeppelin-contracts/contracts/utils/cryptography/ECDSA.sol\":7997:8262  function toEthSignedMessageHash(bytes32 hash) internal pure returns (bytes32) {... */\n      swap2\n      swap1\n      pop\n      jump\t// out\n        /* \"solidity-snippets/openzeppelin-contracts/contracts/utils/cryptography/ECDSA.sol\":4293:4520  function recover(bytes32 hash, bytes memory signature) internal pure returns (address) {... */\n    tag_58:\n        /* \"solidity-snippets/openzeppelin-contracts/contracts/utils/cryptography/ECDSA.sol\":4371:4378  address */\n      0x00\n        /* \"solidity-snippets/openzeppelin-contracts/contracts/utils/cryptography/ECDSA.sol\":4391:4408  address recovered */\n      dup1\n        /* \"solidity-snippets/openzeppelin-contracts/contracts/utils/cryptography/ECDSA.sol\":4410:4428  RecoverError error */\n      0x00\n        /* \"solidity-snippets/openzeppelin-contracts/contracts/utils/cryptography/ECDSA.sol\":4432:4459  tryRecover(hash, signature) */\n      tag_69\n        /* \"solidity-snippets/openzeppelin-contracts/contracts/utils/cryptography/ECDSA.sol\":4443:4447  hash */\n      dup6\n        /* \"solidity-snippets/openzeppelin-contracts/contracts/utils/cryptography/ECDSA.sol\":4449:4458  signature */\n      dup6\n        /* \"solidity-snippets/openzeppelin-contracts/contracts/utils/cryptography/ECDSA.sol\":4432:4442  tryRecover */\n      tag_70\n        /* \"solidity-snippets/openzeppelin-contracts/contracts/utils/cryptography/ECDSA.sol\":4432:4459  tryRecover(hash, signature) */\n      jump\t// in\n    tag_69:\n        /* \"solidity-snippets/openzeppelin-contracts/contracts/utils/cryptography/ECDSA.sol\":4390:4459  (address recovered, RecoverError error) = tryRecover(hash, signature) */\n      swap2\n      pop\n      swap2\n      pop\n        /* \"solidity-snippets/openzeppelin-contracts/contracts/utils/cryptography/ECDSA.sol\":4469:4487  _throwError(error) */\n      tag_71\n        /* \"solidity-snippets/openzeppelin-contracts/contracts/utils/cryptography/ECDSA.sol\":4481:4486  error */\n      dup2\n        /* \"solidity-snippets/openzeppelin-contracts/contracts/utils/cryptography/ECDSA.sol\":4469:4480  _throwError */\n      tag_72\n        /* \"solidity-snippets/openzeppelin-contracts/contracts/utils/cryptography/ECDSA.sol\":4469:4487  _throwError(error) */\n      jump\t// in\n    tag_71:\n        /* \"solidity-snippets/openzeppelin-contracts/contracts/utils/cryptography/ECDSA.sol\":4504:4513  recovered */\n      dup2\n        /* \"solidity-snippets/openzeppelin-contracts/contracts/utils/cryptography/ECDSA.sol\":4497:4513  return recovered */\n      swap3\n      pop\n      pop\n      pop\n        /* \"solidity-snippets/openzeppelin-contracts/contracts/utils/cryptography/ECDSA.sol\":4293:4520  function recover(bytes32 hash, bytes memory signature) internal pure returns (address) {... */\n      swap3\n      swap2\n      pop\n      pop\n      jump\t// out\n        /* \"solidity-snippets/openzeppelin-contracts/contracts/utils/cryptography/ECDSA.sol\":2228:3507  function tryRecover(bytes32 hash, bytes memory signature) internal pure returns (address, RecoverError) {... */\n    tag_70:\n        /* \"solidity-snippets/openzeppelin-contracts/contracts/utils/cryptography/ECDSA.sol\":2309:2316  address */\n      0x00\n        /* \"solidity-snippets/openzeppelin-contracts/contracts/utils/cryptography/ECDSA.sol\":2318:2330  RecoverError */\n      dup1\n        /* \"solidity-snippets/openzeppelin-contracts/contracts/utils/cryptography/ECDSA.sol\":2559:2561  65 */\n      0x41\n        /* \"solidity-snippets/openzeppelin-contracts/contracts/utils/cryptography/ECDSA.sol\":2539:2548  signature */\n      dup4\n        /* \"solidity-snippets/openzeppelin-contracts/contracts/utils/cryptography/ECDSA.sol\":2539:2555  signature.length */\n      mload\n        /* \"solidity-snippets/openzeppelin-contracts/contracts/utils/cryptography/ECDSA.sol\":2539:2561  signature.length == 65 */\n      eq\n        /* \"solidity-snippets/openzeppelin-contracts/contracts/utils/cryptography/ECDSA.sol\":2535:3501  if (signature.length == 65) {... */\n      iszero\n      tag_74\n      jumpi\n        /* \"solidity-snippets/openzeppelin-contracts/contracts/utils/cryptography/ECDSA.sol\":2577:2586  bytes32 r */\n      0x00\n        /* \"solidity-snippets/openzeppelin-contracts/contracts/utils/cryptography/ECDSA.sol\":2600:2609  bytes32 s */\n      dup1\n        /* \"solidity-snippets/openzeppelin-contracts/contracts/utils/cryptography/ECDSA.sol\":2623:2630  uint8 v */\n      0x00\n        /* \"solidity-snippets/openzeppelin-contracts/contracts/utils/cryptography/ECDSA.sol\":2828:2832  0x20 */\n      0x20\n        /* \"solidity-snippets/openzeppelin-contracts/contracts/utils/cryptography/ECDSA.sol\":2817:2826  signature */\n      dup7\n        /* \"solidity-snippets/openzeppelin-contracts/contracts/utils/cryptography/ECDSA.sol\":2813:2833  add(signature, 0x20) */\n      add\n        /* \"solidity-snippets/openzeppelin-contracts/contracts/utils/cryptography/ECDSA.sol\":2807:2834  mload(add(signature, 0x20)) */\n      mload\n        /* \"solidity-snippets/openzeppelin-contracts/contracts/utils/cryptography/ECDSA.sol\":2802:2834  r := mload(add(signature, 0x20)) */\n      swap3\n      pop\n        /* \"solidity-snippets/openzeppelin-contracts/contracts/utils/cryptography/ECDSA.sol\":2877:2881  0x40 */\n      0x40\n        /* \"solidity-snippets/openzeppelin-contracts/contracts/utils/cryptography/ECDSA.sol\":2866:2875  signature */\n      dup7\n        /* \"solidity-snippets/openzeppelin-contracts/contracts/utils/cryptography/ECDSA.sol\":2862:2882  add(signature, 0x40) */\n      add\n        /* \"solidity-snippets/openzeppelin-contracts/contracts/utils/cryptography/ECDSA.sol\":2856:2883  mload(add(signature, 0x40)) */\n      mload\n        /* \"solidity-snippets/openzeppelin-contracts/contracts/utils/cryptography/ECDSA.sol\":2851:2883  s := mload(add(signature, 0x40)) */\n      swap2\n      pop\n        /* \"solidity-snippets/openzeppelin-contracts/contracts/utils/cryptography/ECDSA.sol\":2934:2938  0x60 */\n      0x60\n        /* \"solidity-snippets/openzeppelin-contracts/contracts/utils/cryptography/ECDSA.sol\":2923:2932  signature */\n      dup7\n        /* \"solidity-snippets/openzeppelin-contracts/contracts/utils/cryptography/ECDSA.sol\":2919:2939  add(signature, 0x60) */\n      add\n        /* \"solidity-snippets/openzeppelin-contracts/contracts/utils/cryptography/ECDSA.sol\":2913:2940  mload(add(signature, 0x60)) */\n      mload\n        /* \"solidity-snippets/openzeppelin-contracts/contracts/utils/cryptography/ECDSA.sol\":2910:2911  0 */\n      0x00\n        /* \"solidity-snippets/openzeppelin-contracts/contracts/utils/cryptography/ECDSA.sol\":2905:2941  byte(0, mload(add(signature, 0x60))) */\n      byte\n        /* \"solidity-snippets/openzeppelin-contracts/contracts/utils/cryptography/ECDSA.sol\":2900:2941  v := byte(0, mload(add(signature, 0x60))) */\n      swap1\n      pop\n        /* \"solidity-snippets/openzeppelin-contracts/contracts/utils/cryptography/ECDSA.sol\":2975:3000  tryRecover(hash, v, r, s) */\n      tag_75\n        /* \"solidity-snippets/openzeppelin-contracts/contracts/utils/cryptography/ECDSA.sol\":2986:2990  hash */\n      dup8\n        /* \"solidity-snippets/openzeppelin-contracts/contracts/utils/cryptography/ECDSA.sol\":2992:2993  v */\n      dup3\n        /* \"solidity-snippets/openzeppelin-contracts/contracts/utils/cryptography/ECDSA.sol\":2995:2996  r */\n      dup6\n        /* \"solidity-snippets/openzeppelin-contracts/contracts/utils/cryptography/ECDSA.sol\":2998:2999  s */\n      dup6\n        /* \"solidity-snippets/openzeppelin-contracts/contracts/utils/cryptography/ECDSA.sol\":2975:2985  tryRecover */\n      tag_76\n        /* \"solidity-snippets/openzeppelin-contracts/contracts/utils/cryptography/ECDSA.sol\":2975:3000  tryRecover(hash, v, r, s) */\n      jump\t// in\n    tag_75:\n        /* \"solidity-snippets/openzeppelin-contracts/contracts/utils/cryptography/ECDSA.sol\":2968:3000  return tryRecover(hash, v, r, s) */\n      swap5\n      pop\n      swap5\n      pop\n      pop\n      pop\n      pop\n      jump(tag_73)\n        /* \"solidity-snippets/openzeppelin-contracts/contracts/utils/cryptography/ECDSA.sol\":2535:3501  if (signature.length == 65) {... */\n    tag_74:\n        /* \"solidity-snippets/openzeppelin-contracts/contracts/utils/cryptography/ECDSA.sol\":3041:3043  64 */\n      0x40\n        /* \"solidity-snippets/openzeppelin-contracts/contracts/utils/cryptography/ECDSA.sol\":3021:3030  signature */\n      dup4\n        /* \"solidity-snippets/openzeppelin-contracts/contracts/utils/cryptography/ECDSA.sol\":3021:3037  signature.length */\n      mload\n        /* \"solidity-snippets/openzeppelin-contracts/contracts/utils/cryptography/ECDSA.sol\":3021:3043  signature.length == 64 */\n      eq\n        /* \"solidity-snippets/openzeppelin-contracts/contracts/utils/cryptography/ECDSA.sol\":3017:3501  if (signature.length == 64) {... */\n      iszero\n      tag_78\n      jumpi\n        /* \"solidity-snippets/openzeppelin-contracts/contracts/utils/cryptography/ECDSA.sol\":3059:3068  bytes32 r */\n      0x00\n        /* \"solidity-snippets/openzeppelin-contracts/contracts/utils/cryptography/ECDSA.sol\":3082:3092  bytes32 vs */\n      dup1\n        /* \"solidity-snippets/openzeppelin-contracts/contracts/utils/cryptography/ECDSA.sol\":3290:3294  0x20 */\n      0x20\n        /* \"solidity-snippets/openzeppelin-contracts/contracts/utils/cryptography/ECDSA.sol\":3279:3288  signature */\n      dup6\n        /* \"solidity-snippets/openzeppelin-contracts/contracts/utils/cryptography/ECDSA.sol\":3275:3295  add(signature, 0x20) */\n      add\n        /* \"solidity-snippets/openzeppelin-contracts/contracts/utils/cryptography/ECDSA.sol\":3269:3296  mload(add(signature, 0x20)) */\n      mload\n        /* \"solidity-snippets/openzeppelin-contracts/contracts/utils/cryptography/ECDSA.sol\":3264:3296  r := mload(add(signature, 0x20)) */\n      swap2\n      pop\n        /* \"solidity-snippets/openzeppelin-contracts/contracts/utils/cryptography/ECDSA.sol\":3340:3344  0x40 */\n      0x40\n        /* \"solidity-snippets/openzeppelin-contracts/contracts/utils/cryptography/ECDSA.sol\":3329:3338  signature */\n      dup6\n        /* \"solidity-snippets/openzeppelin-contracts/contracts/utils/cryptography/ECDSA.sol\":3325:3345  add(signature, 0x40) */\n      add\n        /* \"solidity-snippets/openzeppelin-contracts/contracts/utils/cryptography/ECDSA.sol\":3319:3346  mload(add(signature, 0x40)) */\n      mload\n        /* \"solidity-snippets/openzeppelin-contracts/contracts/utils/cryptography/ECDSA.sol\":3313:3346  vs := mload(add(signature, 0x40)) */\n      swap1\n      pop\n        /* \"solidity-snippets/openzeppelin-contracts/contracts/utils/cryptography/ECDSA.sol\":3380:3403  tryRecover(hash, r, vs) */\n      tag_79\n        /* \"solidity-snippets/openzeppelin-contracts/contracts/utils/cryptography/ECDSA.sol\":3391:3395  hash */\n      dup7\n        /* \"solidity-snippets/openzeppelin-contracts/contracts/utils/cryptography/ECDSA.sol\":3397:3398  r */\n      dup4\n        /* \"solidity-snippets/openzeppelin-contracts/contracts/utils/cryptography/ECDSA.sol\":3400:3402  vs */\n      dup4\n        /* \"solidity-snippets/openzeppelin-contracts/contracts/utils/cryptography/ECDSA.sol\":3380:3390  tryRecover */\n      tag_80\n        /* \"solidity-snippets/openzeppelin-contracts/contracts/utils/cryptography/ECDSA.sol\":3380:3403  tryRecover(hash, r, vs) */\n      jump\t// in\n    tag_79:\n        /* \"solidity-snippets/openzeppelin-contracts/contracts/utils/cryptography/ECDSA.sol\":3373:3403  return tryRecover(hash, r, vs) */\n      swap4\n      pop\n      swap4\n      pop\n      pop\n      pop\n      jump(tag_73)\n        /* \"solidity-snippets/openzeppelin-contracts/contracts/utils/cryptography/ECDSA.sol\":3017:3501  if (signature.length == 64) {... */\n    tag_78:\n        /* \"solidity-snippets/openzeppelin-contracts/contracts/utils/cryptography/ECDSA.sol\":3450:3451  0 */\n      0x00\n        /* \"solidity-snippets/openzeppelin-contracts/contracts/utils/cryptography/ECDSA.sol\":3454:3489  RecoverError.InvalidSignatureLength */\n      0x02\n        /* \"solidity-snippets/openzeppelin-contracts/contracts/utils/cryptography/ECDSA.sol\":3434:3490  return (address(0), RecoverError.InvalidSignatureLength) */\n      swap2\n      pop\n      swap2\n      pop\n        /* \"solidity-snippets/openzeppelin-contracts/contracts/utils/cryptography/ECDSA.sol\":2228:3507  function tryRecover(bytes32 hash, bytes memory signature) internal pure returns (address, RecoverError) {... */\n    tag_73:\n      swap3\n      pop\n      swap3\n      swap1\n      pop\n      jump\t// out\n        /* \"solidity-snippets/openzeppelin-contracts/contracts/utils/cryptography/ECDSA.sol\":533:1164  function _throwError(RecoverError error) private pure {... */\n    tag_72:\n        /* \"solidity-snippets/openzeppelin-contracts/contracts/utils/cryptography/ECDSA.sol\":610:630  RecoverError.NoError */\n      0x00\n        /* \"solidity-snippets/openzeppelin-contracts/contracts/utils/cryptography/ECDSA.sol\":601:630  error == RecoverError.NoError */\n      0x04\n      dup2\n      gt\n      iszero\n      tag_83\n      jumpi\n      tag_84\n      tag_85\n      jump\t// in\n    tag_84:\n    tag_83:\n        /* \"solidity-snippets/openzeppelin-contracts/contracts/utils/cryptography/ECDSA.sol\":601:606  error */\n      dup2\n        /* \"solidity-snippets/openzeppelin-contracts/contracts/utils/cryptography/ECDSA.sol\":601:630  error == RecoverError.NoError */\n      0x04\n      dup2\n      gt\n      iszero\n      tag_86\n      jumpi\n      tag_87\n      tag_85\n      jump\t// in\n    tag_87:\n    tag_86:\n      eq\n        /* \"solidity-snippets/openzeppelin-contracts/contracts/utils/cryptography/ECDSA.sol\":597:1158  if (error == RecoverError.NoError) {... */\n      iszero\n      tag_88\n      jumpi\n        /* \"solidity-snippets/openzeppelin-contracts/contracts/utils/cryptography/ECDSA.sol\":646:653  return; */\n      jump(tag_82)\n        /* \"solidity-snippets/openzeppelin-contracts/contracts/utils/cryptography/ECDSA.sol\":597:1158  if (error == RecoverError.NoError) {... */\n    tag_88:\n        /* \"solidity-snippets/openzeppelin-contracts/contracts/utils/cryptography/ECDSA.sol\":706:735  RecoverError.InvalidSignature */\n      0x01\n        /* \"solidity-snippets/openzeppelin-contracts/contracts/utils/cryptography/ECDSA.sol\":697:735  error == RecoverError.InvalidSignature */\n      0x04\n      dup2\n      gt\n      iszero\n      tag_90\n      jumpi\n      tag_91\n      tag_85\n      jump\t// in\n    tag_91:\n    tag_90:\n        /* \"solidity-snippets/openzeppelin-contracts/contracts/utils/cryptography/ECDSA.sol\":697:702  error */\n      dup2\n        /* \"solidity-snippets/openzeppelin-contracts/contracts/utils/cryptography/ECDSA.sol\":697:735  error == RecoverError.InvalidSignature */\n      0x04\n      dup2\n      gt\n      iszero\n      tag_92\n      jumpi\n      tag_93\n      tag_85\n      jump\t// in\n    tag_93:\n    tag_92:\n      eq\n        /* \"solidity-snippets/openzeppelin-contracts/contracts/utils/cryptography/ECDSA.sol\":693:1158  if (error == RecoverError.InvalidSignature) {... */\n      iszero\n      tag_94\n      jumpi\n        /* \"solidity-snippets/openzeppelin-contracts/contracts/utils/cryptography/ECDSA.sol\":751:785  revert(\"ECDSA: invalid signature\") */\n      mload(0x40)\n      0x08c379a000000000000000000000000000000000000000000000000000000000\n      dup2\n      mstore\n      0x04\n      add\n      tag_95\n      swap1\n      tag_96\n      jump\t// in\n    tag_95:\n      mload(0x40)\n      dup1\n      swap2\n      sub\n      swap1\n      revert\n        /* \"solidity-snippets/openzeppelin-contracts/contracts/utils/cryptography/ECDSA.sol\":693:1158  if (error == RecoverError.InvalidSignature) {... */\n    tag_94:\n        /* \"solidity-snippets/openzeppelin-contracts/contracts/utils/cryptography/ECDSA.sol\":815:850  RecoverError.InvalidSignatureLength */\n      0x02\n        /* \"solidity-snippets/openzeppelin-contracts/contracts/utils/cryptography/ECDSA.sol\":806:850  error == RecoverError.InvalidSignatureLength */\n      0x04\n      dup2\n      gt\n      iszero\n      tag_98\n      jumpi\n      tag_99\n      tag_85\n      jump\t// in\n    tag_99:\n    tag_98:\n        /* \"solidity-snippets/openzeppelin-contracts/contracts/utils/cryptography/ECDSA.sol\":806:811  error */\n      dup2\n        /* \"solidity-snippets/openzeppelin-contracts/contracts/utils/cryptography/ECDSA.sol\":806:850  error == RecoverError.InvalidSignatureLength */\n      0x04\n      dup2\n      gt\n      iszero\n      tag_100\n      jumpi\n      tag_101\n      tag_85\n      jump\t// in\n    tag_101:\n    tag_100:\n      eq\n        /* \"solidity-snippets/openzeppelin-contracts/contracts/utils/cryptography/ECDSA.sol\":802:1158  if (error == RecoverError.InvalidSignatureLength) {... */\n      iszero\n      tag_102\n      jumpi\n        /* \"solidity-snippets/openzeppelin-contracts/contracts/utils/cryptography/ECDSA.sol\":866:907  revert(\"ECDSA: invalid signature length\") */\n      mload(0x40)\n      0x08c379a000000000000000000000000000000000000000000000000000000000\n      dup2\n      mstore\n      0x04\n      add\n      tag_103\n      swap1\n      tag_104\n      jump\t// in\n    tag_103:\n      mload(0x40)\n      dup1\n      swap2\n      sub\n      swap1\n      revert\n        /* \"solidity-snippets/openzeppelin-contracts/contracts/utils/cryptography/ECDSA.sol\":802:1158  if (error == RecoverError.InvalidSignatureLength) {... */\n    tag_102:\n        /* \"solidity-snippets/openzeppelin-contracts/contracts/utils/cryptography/ECDSA.sol\":937:967  RecoverError.InvalidSignatureS */\n      0x03\n        /* \"solidity-snippets/openzeppelin-contracts/contracts/utils/cryptography/ECDSA.sol\":928:967  error == RecoverError.InvalidSignatureS */\n      0x04\n      dup2\n      gt\n      iszero\n      tag_106\n      jumpi\n      tag_107\n      tag_85\n      jump\t// in\n    tag_107:\n    tag_106:\n        /* \"solidity-snippets/openzeppelin-contracts/contracts/utils/cryptography/ECDSA.sol\":928:933  error */\n      dup2\n        /* \"solidity-snippets/openzeppelin-contracts/contracts/utils/cryptography/ECDSA.sol\":928:967  error == RecoverError.InvalidSignatureS */\n      0x04\n      dup2\n      gt\n      iszero\n      tag_108\n      jumpi\n      tag_109\n      tag_85\n      jump\t// in\n    tag_109:\n    tag_108:\n      eq\n        /* \"solidity-snippets/openzeppelin-contracts/contracts/utils/cryptography/ECDSA.sol\":924:1158  if (error == RecoverError.InvalidSignatureS) {... */\n      iszero\n      tag_110\n      jumpi\n        /* \"solidity-snippets/openzeppelin-contracts/contracts/utils/cryptography/ECDSA.sol\":983:1027  revert(\"ECDSA: invalid signature 's' value\") */\n      mload(0x40)\n      0x08c379a000000000000000000000000000000000000000000000000000000000\n      dup2\n      mstore\n      0x04\n      add\n      tag_111\n      swap1\n      tag_112\n      jump\t// in\n    tag_111:\n      mload(0x40)\n      dup1\n      swap2\n      sub\n      swap1\n      revert\n        /* \"solidity-snippets/openzeppelin-contracts/contracts/utils/cryptography/ECDSA.sol\":924:1158  if (error == RecoverError.InvalidSignatureS) {... */\n    tag_110:\n        /* \"solidity-snippets/openzeppelin-contracts/contracts/utils/cryptography/ECDSA.sol\":1057:1087  RecoverError.InvalidSignatureV */\n      0x04\n        /* \"solidity-snippets/openzeppelin-contracts/contracts/utils/cryptography/ECDSA.sol\":1048:1087  error == RecoverError.InvalidSignatureV */\n      dup1\n      dup2\n      gt\n      iszero\n      tag_114\n      jumpi\n      tag_115\n      tag_85\n      jump\t// in\n    tag_115:\n    tag_114:\n        /* \"solidity-snippets/openzeppelin-contracts/contracts/utils/cryptography/ECDSA.sol\":1048:1053  error */\n      dup2\n        /* \"solidity-snippets/openzeppelin-contracts/contracts/utils/cryptography/ECDSA.sol\":1048:1087  error == RecoverError.InvalidSignatureV */\n      0x04\n      dup2\n      gt\n      iszero\n      tag_116\n      jumpi\n      tag_117\n      tag_85\n      jump\t// in\n    tag_117:\n    tag_116:\n      eq\n        /* \"solidity-snippets/openzeppelin-contracts/contracts/utils/cryptography/ECDSA.sol\":1044:1158  if (error == RecoverError.InvalidSignatureV) {... */\n      iszero\n      tag_118\n      jumpi\n        /* \"solidity-snippets/openzeppelin-contracts/contracts/utils/cryptography/ECDSA.sol\":1103:1147  revert(\"ECDSA: invalid signature 'v' value\") */\n      mload(0x40)\n      0x08c379a000000000000000000000000000000000000000000000000000000000\n      dup2\n      mstore\n      0x04\n      add\n      tag_119\n      swap1\n      tag_120\n      jump\t// in\n    tag_119:\n      mload(0x40)\n      dup1\n      swap2\n      sub\n      swap1\n      revert\n        /* \"solidity-snippets/openzeppelin-contracts/contracts/utils/cryptography/ECDSA.sol\":1044:1158  if (error == RecoverError.InvalidSignatureV) {... */\n    tag_118:\n        /* \"solidity-snippets/openzeppelin-contracts/contracts/utils/cryptography/ECDSA.sol\":533:1164  function _throwError(RecoverError error) private pure {... */\n    tag_82:\n      pop\n      jump\t// out\n        /* \"solidity-snippets/openzeppelin-contracts/contracts/utils/cryptography/ECDSA.sol\":5701:7304  function tryRecover(... */\n    tag_76:\n        /* \"solidity-snippets/openzeppelin-contracts/contracts/utils/cryptography/ECDSA.sol\":5827:5834  address */\n      0x00\n        /* \"solidity-snippets/openzeppelin-contracts/contracts/utils/cryptography/ECDSA.sol\":5836:5848  RecoverError */\n      dup1\n        /* \"solidity-snippets/openzeppelin-contracts/contracts/utils/cryptography/ECDSA.sol\":6751:6817  0x7FFFFFFFFFFFFFFFFFFFFFFFFFFFFFFF5D576E7357A4501DDFE92F46681B20A0 */\n      0x7fffffffffffffffffffffffffffffff5d576e7357a4501ddfe92f46681b20a0\n        /* \"solidity-snippets/openzeppelin-contracts/contracts/utils/cryptography/ECDSA.sol\":6746:6747  s */\n      dup4\n        /* \"solidity-snippets/openzeppelin-contracts/contracts/utils/cryptography/ECDSA.sol\":6738:6748  uint256(s) */\n      0x00\n      shr\n        /* \"solidity-snippets/openzeppelin-contracts/contracts/utils/cryptography/ECDSA.sol\":6738:6817  uint256(s) > 0x7FFFFFFFFFFFFFFFFFFFFFFFFFFFFFFF5D576E7357A4501DDFE92F46681B20A0 */\n      gt\n        /* \"solidity-snippets/openzeppelin-contracts/contracts/utils/cryptography/ECDSA.sol\":6734:6895  if (uint256(s) > 0x7FFFFFFFFFFFFFFFFFFFFFFFFFFFFFFF5D576E7357A4501DDFE92F46681B20A0) {... */\n      iszero\n      tag_122\n      jumpi\n        /* \"solidity-snippets/openzeppelin-contracts/contracts/utils/cryptography/ECDSA.sol\":6849:6850  0 */\n      0x00\n        /* \"solidity-snippets/openzeppelin-contracts/contracts/utils/cryptography/ECDSA.sol\":6853:6883  RecoverError.InvalidSignatureS */\n      0x03\n        /* \"solidity-snippets/openzeppelin-contracts/contracts/utils/cryptography/ECDSA.sol\":6833:6884  return (address(0), RecoverError.InvalidSignatureS) */\n      swap2\n      pop\n      swap2\n      pop\n      jump(tag_121)\n        /* \"solidity-snippets/openzeppelin-contracts/contracts/utils/cryptography/ECDSA.sol\":6734:6895  if (uint256(s) > 0x7FFFFFFFFFFFFFFFFFFFFFFFFFFFFFFF5D576E7357A4501DDFE92F46681B20A0) {... */\n    tag_122:\n        /* \"solidity-snippets/openzeppelin-contracts/contracts/utils/cryptography/ECDSA.sol\":6913:6915  27 */\n      0x1b\n        /* \"solidity-snippets/openzeppelin-contracts/contracts/utils/cryptography/ECDSA.sol\":6908:6909  v */\n      dup6\n        /* \"solidity-snippets/openzeppelin-contracts/contracts/utils/cryptography/ECDSA.sol\":6908:6915  v != 27 */\n      0xff\n      and\n      eq\n      iszero\n        /* \"solidity-snippets/openzeppelin-contracts/contracts/utils/cryptography/ECDSA.sol\":6908:6926  v != 27 && v != 28 */\n      dup1\n      iszero\n      tag_123\n      jumpi\n      pop\n        /* \"solidity-snippets/openzeppelin-contracts/contracts/utils/cryptography/ECDSA.sol\":6924:6926  28 */\n      0x1c\n        /* \"solidity-snippets/openzeppelin-contracts/contracts/utils/cryptography/ECDSA.sol\":6919:6920  v */\n      dup6\n        /* \"solidity-snippets/openzeppelin-contracts/contracts/utils/cryptography/ECDSA.sol\":6919:6926  v != 28 */\n      0xff\n      and\n      eq\n      iszero\n        /* \"solidity-snippets/openzeppelin-contracts/contracts/utils/cryptography/ECDSA.sol\":6908:6926  v != 27 && v != 28 */\n    tag_123:\n        /* \"solidity-snippets/openzeppelin-contracts/contracts/utils/cryptography/ECDSA.sol\":6904:7004  if (v != 27 && v != 28) {... */\n      iszero\n      tag_124\n      jumpi\n        /* \"solidity-snippets/openzeppelin-contracts/contracts/utils/cryptography/ECDSA.sol\":6958:6959  0 */\n      0x00\n        /* \"solidity-snippets/openzeppelin-contracts/contracts/utils/cryptography/ECDSA.sol\":6962:6992  RecoverError.InvalidSignatureV */\n      0x04\n        /* \"solidity-snippets/openzeppelin-contracts/contracts/utils/cryptography/ECDSA.sol\":6942:6993  return (address(0), RecoverError.InvalidSignatureV) */\n      swap2\n      pop\n      swap2\n      pop\n      jump(tag_121)\n        /* \"solidity-snippets/openzeppelin-contracts/contracts/utils/cryptography/ECDSA.sol\":6904:7004  if (v != 27 && v != 28) {... */\n    tag_124:\n        /* \"solidity-snippets/openzeppelin-contracts/contracts/utils/cryptography/ECDSA.sol\":7098:7112  address signer */\n      0x00\n        /* \"solidity-snippets/openzeppelin-contracts/contracts/utils/cryptography/ECDSA.sol\":7115:7139  ecrecover(hash, v, r, s) */\n      0x01\n        /* \"solidity-snippets/openzeppelin-contracts/contracts/utils/cryptography/ECDSA.sol\":7125:7129  hash */\n      dup8\n        /* \"solidity-snippets/openzeppelin-contracts/contracts/utils/cryptography/ECDSA.sol\":7131:7132  v */\n      dup8\n        /* \"solidity-snippets/openzeppelin-contracts/contracts/utils/cryptography/ECDSA.sol\":7134:7135  r */\n      dup8\n        /* \"solidity-snippets/openzeppelin-contracts/contracts/utils/cryptography/ECDSA.sol\":7137:7138  s */\n      dup8\n        /* \"solidity-snippets/openzeppelin-contracts/contracts/utils/cryptography/ECDSA.sol\":7115:7139  ecrecover(hash, v, r, s) */\n      mload(0x40)\n      0x00\n      dup2\n      mstore\n      0x20\n      add\n      0x40\n      mstore\n      mload(0x40)\n      tag_125\n      swap5\n      swap4\n      swap3\n      swap2\n      swap1\n      tag_126\n      jump\t// in\n    tag_125:\n      0x20\n      mload(0x40)\n      0x20\n      dup2\n      sub\n      swap1\n      dup1\n      dup5\n      sub\n      swap1\n      dup6\n      gas\n      staticcall\n      iszero\n      dup1\n      iszero\n      tag_128\n      jumpi\n      returndatasize\n      0x00\n      dup1\n      returndatacopy\n      revert(0x00, returndatasize)\n    tag_128:\n      pop\n      pop\n      pop\n      mload(sub(mload(0x40), 0x20))\n        /* \"solidity-snippets/openzeppelin-contracts/contracts/utils/cryptography/ECDSA.sol\":7098:7139  address signer = ecrecover(hash, v, r, s) */\n      swap1\n      pop\n        /* \"solidity-snippets/openzeppelin-contracts/contracts/utils/cryptography/ECDSA.sol\":7171:7172  0 */\n      0x00\n        /* \"solidity-snippets/openzeppelin-contracts/contracts/utils/cryptography/ECDSA.sol\":7153:7173  signer == address(0) */\n      0xffffffffffffffffffffffffffffffffffffffff\n      and\n        /* \"solidity-snippets/openzeppelin-contracts/contracts/utils/cryptography/ECDSA.sol\":7153:7159  signer */\n      dup2\n        /* \"solidity-snippets/openzeppelin-contracts/contracts/utils/cryptography/ECDSA.sol\":7153:7173  signer == address(0) */\n      0xffffffffffffffffffffffffffffffffffffffff\n      and\n      eq\n        /* \"solidity-snippets/openzeppelin-contracts/contracts/utils/cryptography/ECDSA.sol\":7149:7250  if (signer == address(0)) {... */\n      iszero\n      tag_129\n      jumpi\n        /* \"solidity-snippets/openzeppelin-contracts/contracts/utils/cryptography/ECDSA.sol\":7205:7206  0 */\n      0x00\n        /* \"solidity-snippets/openzeppelin-contracts/contracts/utils/cryptography/ECDSA.sol\":7209:7238  RecoverError.InvalidSignature */\n      0x01\n        /* \"solidity-snippets/openzeppelin-contracts/contracts/utils/cryptography/ECDSA.sol\":7189:7239  return (address(0), RecoverError.InvalidSignature) */\n      swap3\n      pop\n      swap3\n      pop\n      pop\n      jump(tag_121)\n        /* \"solidity-snippets/openzeppelin-contracts/contracts/utils/cryptography/ECDSA.sol\":7149:7250  if (signer == address(0)) {... */\n    tag_129:\n        /* \"solidity-snippets/openzeppelin-contracts/contracts/utils/cryptography/ECDSA.sol\":7268:7274  signer */\n      dup1\n        /* \"solidity-snippets/openzeppelin-contracts/contracts/utils/cryptography/ECDSA.sol\":7276:7296  RecoverError.NoError */\n      0x00\n        /* \"solidity-snippets/openzeppelin-contracts/contracts/utils/cryptography/ECDSA.sol\":7260:7297  return (signer, RecoverError.NoError) */\n      swap3\n      pop\n      swap3\n      pop\n      pop\n        /* \"solidity-snippets/openzeppelin-contracts/contracts/utils/cryptography/ECDSA.sol\":5701:7304  function tryRecover(... */\n    tag_121:\n      swap5\n      pop\n      swap5\n      swap3\n      pop\n      pop\n      pop\n      jump\t// out\n        /* \"solidity-snippets/openzeppelin-contracts/contracts/utils/cryptography/ECDSA.sol\":4774:5110  function tryRecover(... */\n    tag_80:\n        /* \"solidity-snippets/openzeppelin-contracts/contracts/utils/cryptography/ECDSA.sol\":4884:4891  address */\n      0x00\n        /* \"solidity-snippets/openzeppelin-contracts/contracts/utils/cryptography/ECDSA.sol\":4893:4905  RecoverError */\n      dup1\n        /* \"solidity-snippets/openzeppelin-contracts/contracts/utils/cryptography/ECDSA.sol\":4917:4926  bytes32 s */\n      0x00\n        /* \"solidity-snippets/openzeppelin-contracts/contracts/utils/cryptography/ECDSA.sol\":4942:5008  0x7fffffffffffffffffffffffffffffffffffffffffffffffffffffffffffffff */\n      0x7fffffffffffffffffffffffffffffffffffffffffffffffffffffffffffffff\n        /* \"solidity-snippets/openzeppelin-contracts/contracts/utils/cryptography/ECDSA.sol\":4934:5009  bytes32(0x7fffffffffffffffffffffffffffffffffffffffffffffffffffffffffffffff) */\n      0x00\n      shl\n        /* \"solidity-snippets/openzeppelin-contracts/contracts/utils/cryptography/ECDSA.sol\":4929:4931  vs */\n      dup5\n        /* \"solidity-snippets/openzeppelin-contracts/contracts/utils/cryptography/ECDSA.sol\":4929:5009  vs & bytes32(0x7fffffffffffffffffffffffffffffffffffffffffffffffffffffffffffffff) */\n      and\n        /* \"solidity-snippets/openzeppelin-contracts/contracts/utils/cryptography/ECDSA.sol\":4917:5009  bytes32 s = vs & bytes32(0x7fffffffffffffffffffffffffffffffffffffffffffffffffffffffffffffff) */\n      swap1\n      pop\n        /* \"solidity-snippets/openzeppelin-contracts/contracts/utils/cryptography/ECDSA.sol\":5019:5026  uint8 v */\n      0x00\n        /* \"solidity-snippets/openzeppelin-contracts/contracts/utils/cryptography/ECDSA.sol\":5058:5060  27 */\n      0x1b\n        /* \"solidity-snippets/openzeppelin-contracts/contracts/utils/cryptography/ECDSA.sol\":5051:5054  255 */\n      0xff\n        /* \"solidity-snippets/openzeppelin-contracts/contracts/utils/cryptography/ECDSA.sol\":5044:5046  vs */\n      dup7\n        /* \"solidity-snippets/openzeppelin-contracts/contracts/utils/cryptography/ECDSA.sol\":5036:5047  uint256(vs) */\n      0x00\n      shr\n        /* \"solidity-snippets/openzeppelin-contracts/contracts/utils/cryptography/ECDSA.sol\":5036:5054  uint256(vs) >> 255 */\n      swap1\n      shr\n        /* \"solidity-snippets/openzeppelin-contracts/contracts/utils/cryptography/ECDSA.sol\":5035:5060  (uint256(vs) >> 255) + 27 */\n      tag_131\n      swap2\n      swap1\n      tag_132\n      jump\t// in\n    tag_131:\n        /* \"solidity-snippets/openzeppelin-contracts/contracts/utils/cryptography/ECDSA.sol\":5019:5061  uint8 v = uint8((uint256(vs) >> 255) + 27) */\n      swap1\n      pop\n        /* \"solidity-snippets/openzeppelin-contracts/contracts/utils/cryptography/ECDSA.sol\":5078:5103  tryRecover(hash, v, r, s) */\n      tag_133\n        /* \"solidity-snippets/openzeppelin-contracts/contracts/utils/cryptography/ECDSA.sol\":5089:5093  hash */\n      dup8\n        /* \"solidity-snippets/openzeppelin-contracts/contracts/utils/cryptography/ECDSA.sol\":5095:5096  v */\n      dup3\n        /* \"solidity-snippets/openzeppelin-contracts/contracts/utils/cryptography/ECDSA.sol\":5098:5099  r */\n      dup9\n        /* \"solidity-snippets/openzeppelin-contracts/contracts/utils/cryptography/ECDSA.sol\":5101:5102  s */\n      dup6\n        /* \"solidity-snippets/openzeppelin-contracts/contracts/utils/cryptography/ECDSA.sol\":5078:5088  tryRecover */\n      tag_76\n        /* \"solidity-snippets/openzeppelin-contracts/contracts/utils/cryptography/ECDSA.sol\":5078:5103  tryRecover(hash, v, r, s) */\n      jump\t// in\n    tag_133:\n        /* \"solidity-snippets/openzeppelin-contracts/contracts/utils/cryptography/ECDSA.sol\":5071:5103  return tryRecover(hash, v, r, s) */\n      swap4\n      pop\n      swap4\n      pop\n      pop\n      pop\n        /* \"solidity-snippets/openzeppelin-contracts/contracts/utils/cryptography/ECDSA.sol\":4774:5110  function tryRecover(... */\n      swap4\n      pop\n      swap4\n      swap2\n      pop\n      pop\n      jump\t// out\n        /* \"#utility.yul\":7:82   */\n    tag_134:\n        /* \"#utility.yul\":40:46   */\n      0x00\n        /* \"#utility.yul\":73:75   */\n      0x40\n        /* \"#utility.yul\":67:76   */\n      mload\n        /* \"#utility.yul\":57:76   */\n      swap1\n      pop\n        /* \"#utility.yul\":7:82   */\n      swap1\n      jump\t// out\n        /* \"#utility.yul\":88:205   */\n    tag_135:\n        /* \"#utility.yul\":197:198   */\n      0x00\n        /* \"#utility.yul\":194:195   */\n      dup1\n        /* \"#utility.yul\":187:199   */\n      revert\n        /* \"#utility.yul\":211:328   */\n    tag_136:\n        /* \"#utility.yul\":320:321   */\n      0x00\n        /* \"#utility.yul\":317:318   */\n      dup1\n        /* \"#utility.yul\":310:322   */\n      revert\n        /* \"#utility.yul\":334:411   */\n    tag_137:\n        /* \"#utility.yul\":371:378   */\n      0x00\n        /* \"#utility.yul\":400:405   */\n      dup2\n        /* \"#utility.yul\":389:405   */\n      swap1\n      pop\n        /* \"#utility.yul\":334:411   */\n      swap2\n      swap1\n      pop\n      jump\t// out\n        /* \"#utility.yul\":417:539   */\n    tag_138:\n        /* \"#utility.yul\":490:514   */\n      tag_197\n        /* \"#utility.yul\":508:513   */\n      dup2\n        /* \"#utility.yul\":490:514   */\n      tag_137\n      jump\t// in\n    tag_197:\n        /* \"#utility.yul\":483:488   */\n      dup2\n        /* \"#utility.yul\":480:515   */\n      eq\n        /* \"#utility.yul\":470:533   */\n      tag_198\n      jumpi\n        /* \"#utility.yul\":529:530   */\n      0x00\n        /* \"#utility.yul\":526:527   */\n      dup1\n        /* \"#utility.yul\":519:531   */\n      revert\n        /* \"#utility.yul\":470:533   */\n    tag_198:\n        /* \"#utility.yul\":417:539   */\n      pop\n      jump\t// out\n        /* \"#utility.yul\":545:684   */\n    tag_139:\n        /* \"#utility.yul\":591:596   */\n      0x00\n        /* \"#utility.yul\":629:635   */\n      dup2\n        /* \"#utility.yul\":616:636   */\n      calldataload\n        /* \"#utility.yul\":607:636   */\n      swap1\n      pop\n        /* \"#utility.yul\":645:678   */\n      tag_200\n        /* \"#utility.yul\":672:677   */\n      dup2\n        /* \"#utility.yul\":645:678   */\n      tag_138\n      jump\t// in\n    tag_200:\n        /* \"#utility.yul\":545:684   */\n      swap3\n      swap2\n      pop\n      pop\n      jump\t// out\n        /* \"#utility.yul\":690:1019   */\n    tag_9:\n        /* \"#utility.yul\":749:755   */\n      0x00\n        /* \"#utility.yul\":798:800   */\n      0x20\n        /* \"#utility.yul\":786:795   */\n      dup3\n        /* \"#utility.yul\":777:784   */\n      dup5\n        /* \"#utility.yul\":773:796   */\n      sub\n        /* \"#utility.yul\":769:801   */\n      slt\n        /* \"#utility.yul\":766:885   */\n      iszero\n      tag_202\n      jumpi\n        /* \"#utility.yul\":804:883   */\n      tag_203\n      tag_135\n      jump\t// in\n    tag_203:\n        /* \"#utility.yul\":766:885   */\n    tag_202:\n        /* \"#utility.yul\":924:925   */\n      0x00\n        /* \"#utility.yul\":949:1002   */\n      tag_204\n        /* \"#utility.yul\":994:1001   */\n      dup5\n        /* \"#utility.yul\":985:991   */\n      dup3\n        /* \"#utility.yul\":974:983   */\n      dup6\n        /* \"#utility.yul\":970:992   */\n      add\n        /* \"#utility.yul\":949:1002   */\n      tag_139\n      jump\t// in\n    tag_204:\n        /* \"#utility.yul\":939:1002   */\n      swap2\n      pop\n        /* \"#utility.yul\":895:1012   */\n      pop\n        /* \"#utility.yul\":690:1019   */\n      swap3\n      swap2\n      pop\n      pop\n      jump\t// out\n        /* \"#utility.yul\":1025:1151   */\n    tag_140:\n        /* \"#utility.yul\":1062:1069   */\n      0x00\n        /* \"#utility.yul\":1102:1144   */\n      0xffffffffffffffffffffffffffffffffffffffff\n        /* \"#utility.yul\":1095:1100   */\n      dup3\n        /* \"#utility.yul\":1091:1145   */\n      and\n        /* \"#utility.yul\":1080:1145   */\n      swap1\n      pop\n        /* \"#utility.yul\":1025:1151   */\n      swap2\n      swap1\n      pop\n      jump\t// out\n        /* \"#utility.yul\":1157:1253   */\n    tag_141:\n        /* \"#utility.yul\":1194:1201   */\n      0x00\n        /* \"#utility.yul\":1223:1247   */\n      tag_207\n        /* \"#utility.yul\":1241:1246   */\n      dup3\n        /* \"#utility.yul\":1223:1247   */\n      tag_140\n      jump\t// in\n    tag_207:\n        /* \"#utility.yul\":1212:1247   */\n      swap1\n      pop\n        /* \"#utility.yul\":1157:1253   */\n      swap2\n      swap1\n      pop\n      jump\t// out\n        /* \"#utility.yul\":1259:1377   */\n    tag_142:\n        /* \"#utility.yul\":1346:1370   */\n      tag_209\n        /* \"#utility.yul\":1364:1369   */\n      dup2\n        /* \"#utility.yul\":1346:1370   */\n      tag_141\n      jump\t// in\n    tag_209:\n        /* \"#utility.yul\":1341:1344   */\n      dup3\n        /* \"#utility.yul\":1334:1371   */\n      mstore\n        /* \"#utility.yul\":1259:1377   */\n      pop\n      pop\n      jump\t// out\n        /* \"#utility.yul\":1383:1605   */\n    tag_12:\n        /* \"#utility.yul\":1476:1480   */\n      0x00\n        /* \"#utility.yul\":1514:1516   */\n      0x20\n        /* \"#utility.yul\":1503:1512   */\n      dup3\n        /* \"#utility.yul\":1499:1517   */\n      add\n        /* \"#utility.yul\":1491:1517   */\n      swap1\n      pop\n        /* \"#utility.yul\":1527:1598   */\n      tag_211\n        /* \"#utility.yul\":1595:1596   */\n      0x00\n        /* \"#utility.yul\":1584:1593   */\n      dup4\n        /* \"#utility.yul\":1580:1597   */\n      add\n        /* \"#utility.yul\":1571:1577   */\n      dup5\n        /* \"#utility.yul\":1527:1598   */\n      tag_142\n      jump\t// in\n    tag_211:\n        /* \"#utility.yul\":1383:1605   */\n      swap3\n      swap2\n      pop\n      pop\n      jump\t// out\n        /* \"#utility.yul\":1611:1733   */\n    tag_143:\n        /* \"#utility.yul\":1684:1708   */\n      tag_213\n        /* \"#utility.yul\":1702:1707   */\n      dup2\n        /* \"#utility.yul\":1684:1708   */\n      tag_141\n      jump\t// in\n    tag_213:\n        /* \"#utility.yul\":1677:1682   */\n      dup2\n        /* \"#utility.yul\":1674:1709   */\n      eq\n        /* \"#utility.yul\":1664:1727   */\n      tag_214\n      jumpi\n        /* \"#utility.yul\":1723:1724   */\n      0x00\n        /* \"#utility.yul\":1720:1721   */\n      dup1\n        /* \"#utility.yul\":1713:1725   */\n      revert\n        /* \"#utility.yul\":1664:1727   */\n    tag_214:\n        /* \"#utility.yul\":1611:1733   */\n      pop\n      jump\t// out\n        /* \"#utility.yul\":1739:1878   */\n    tag_144:\n        /* \"#utility.yul\":1785:1790   */\n      0x00\n        /* \"#utility.yul\":1823:1829   */\n      dup2\n        /* \"#utility.yul\":1810:1830   */\n      calldataload\n        /* \"#utility.yul\":1801:1830   */\n      swap1\n      pop\n        /* \"#utility.yul\":1839:1872   */\n      tag_216\n        /* \"#utility.yul\":1866:1871   */\n      dup2\n        /* \"#utility.yul\":1839:1872   */\n      tag_143\n      jump\t// in\n    tag_216:\n        /* \"#utility.yul\":1739:1878   */\n      swap3\n      swap2\n      pop\n      pop\n      jump\t// out\n        /* \"#utility.yul\":1884:2358   */\n    tag_16:\n        /* \"#utility.yul\":1952:1958   */\n      0x00\n        /* \"#utility.yul\":1960:1966   */\n      dup1\n        /* \"#utility.yul\":2009:2011   */\n      0x40\n        /* \"#utility.yul\":1997:2006   */\n      dup4\n        /* \"#utility.yul\":1988:1995   */\n      dup6\n        /* \"#utility.yul\":1984:2007   */\n      sub\n        /* \"#utility.yul\":1980:2012   */\n      slt\n        /* \"#utility.yul\":1977:2096   */\n      iszero\n      tag_218\n      jumpi\n        /* \"#utility.yul\":2015:2094   */\n      tag_219\n      tag_135\n      jump\t// in\n    tag_219:\n        /* \"#utility.yul\":1977:2096   */\n    tag_218:\n        /* \"#utility.yul\":2135:2136   */\n      0x00\n        /* \"#utility.yul\":2160:2213   */\n      tag_220\n        /* \"#utility.yul\":2205:2212   */\n      dup6\n        /* \"#utility.yul\":2196:2202   */\n      dup3\n        /* \"#utility.yul\":2185:2194   */\n      dup7\n        /* \"#utility.yul\":2181:2203   */\n      add\n        /* \"#utility.yul\":2160:2213   */\n      tag_144\n      jump\t// in\n    tag_220:\n        /* \"#utility.yul\":2150:2213   */\n      swap3\n      pop\n        /* \"#utility.yul\":2106:2223   */\n      pop\n        /* \"#utility.yul\":2262:2264   */\n      0x20\n        /* \"#utility.yul\":2288:2341   */\n      tag_221\n        /* \"#utility.yul\":2333:2340   */\n      dup6\n        /* \"#utility.yul\":2324:2330   */\n      dup3\n        /* \"#utility.yul\":2313:2322   */\n      dup7\n        /* \"#utility.yul\":2309:2331   */\n      add\n        /* \"#utility.yul\":2288:2341   */\n      tag_139\n      jump\t// in\n    tag_221:\n        /* \"#utility.yul\":2278:2341   */\n      swap2\n      pop\n        /* \"#utility.yul\":2233:2351   */\n      pop\n        /* \"#utility.yul\":1884:2358   */\n      swap3\n      pop\n      swap3\n      swap1\n      pop\n      jump\t// out\n        /* \"#utility.yul\":2364:2441   */\n    tag_145:\n        /* \"#utility.yul\":2401:2408   */\n      0x00\n        /* \"#utility.yul\":2430:2435   */\n      dup2\n        /* \"#utility.yul\":2419:2435   */\n      swap1\n      pop\n        /* \"#utility.yul\":2364:2441   */\n      swap2\n      swap1\n      pop\n      jump\t// out\n        /* \"#utility.yul\":2447:2565   */\n    tag_146:\n        /* \"#utility.yul\":2534:2558   */\n      tag_224\n        /* \"#utility.yul\":2552:2557   */\n      dup2\n        /* \"#utility.yul\":2534:2558   */\n      tag_145\n      jump\t// in\n    tag_224:\n        /* \"#utility.yul\":2529:2532   */\n      dup3\n        /* \"#utility.yul\":2522:2559   */\n      mstore\n        /* \"#utility.yul\":2447:2565   */\n      pop\n      pop\n      jump\t// out\n        /* \"#utility.yul\":2571:2793   */\n    tag_19:\n        /* \"#utility.yul\":2664:2668   */\n      0x00\n        /* \"#utility.yul\":2702:2704   */\n      0x20\n        /* \"#utility.yul\":2691:2700   */\n      dup3\n        /* \"#utility.yul\":2687:2705   */\n      add\n        /* \"#utility.yul\":2679:2705   */\n      swap1\n      pop\n        /* \"#utility.yul\":2715:2786   */\n      tag_226\n        /* \"#utility.yul\":2783:2784   */\n      0x00\n        /* \"#utility.yul\":2772:2781   */\n      dup4\n        /* \"#utility.yul\":2768:2785   */\n      add\n        /* \"#utility.yul\":2759:2765   */\n      dup5\n        /* \"#utility.yul\":2715:2786   */\n      tag_146\n      jump\t// in\n    tag_226:\n        /* \"#utility.yul\":2571:2793   */\n      swap3\n      swap2\n      pop\n      pop\n      jump\t// out\n        /* \"#utility.yul\":2799:2916   */\n    tag_147:\n        /* \"#utility.yul\":2908:2909   */\n      0x00\n        /* \"#utility.yul\":2905:2906   */\n      dup1\n        /* \"#utility.yul\":2898:2910   */\n      revert\n        /* \"#utility.yul\":2922:3024   */\n    tag_148:\n        /* \"#utility.yul\":2963:2969   */\n      0x00\n        /* \"#utility.yul\":3014:3016   */\n      0x1f\n        /* \"#utility.yul\":3010:3017   */\n      not\n        /* \"#utility.yul\":3005:3007   */\n      0x1f\n        /* \"#utility.yul\":2998:3003   */\n      dup4\n        /* \"#utility.yul\":2994:3008   */\n      add\n        /* \"#utility.yul\":2990:3018   */\n      and\n        /* \"#utility.yul\":2980:3018   */\n      swap1\n      pop\n        /* \"#utility.yul\":2922:3024   */\n      swap2\n      swap1\n      pop\n      jump\t// out\n        /* \"#utility.yul\":3030:3210   */\n    tag_149:\n        /* \"#utility.yul\":3078:3155   */\n      0x4e487b7100000000000000000000000000000000000000000000000000000000\n        /* \"#utility.yul\":3075:3076   */\n      0x00\n        /* \"#utility.yul\":3068:3156   */\n      mstore\n        /* \"#utility.yul\":3175:3179   */\n      0x41\n        /* \"#utility.yul\":3172:3173   */\n      0x04\n        /* \"#utility.yul\":3165:3180   */\n      mstore\n        /* \"#utility.yul\":3199:3203   */\n      0x24\n        /* \"#utility.yul\":3196:3197   */\n      0x00\n        /* \"#utility.yul\":3189:3204   */\n      revert\n        /* \"#utility.yul\":3216:3497   */\n    tag_150:\n        /* \"#utility.yul\":3299:3326   */\n      tag_231\n        /* \"#utility.yul\":3321:3325   */\n      dup3\n        /* \"#utility.yul\":3299:3326   */\n      tag_148\n      jump\t// in\n    tag_231:\n        /* \"#utility.yul\":3291:3297   */\n      dup2\n        /* \"#utility.yul\":3287:3327   */\n      add\n        /* \"#utility.yul\":3429:3435   */\n      dup2\n        /* \"#utility.yul\":3417:3427   */\n      dup2\n        /* \"#utility.yul\":3414:3436   */\n      lt\n        /* \"#utility.yul\":3393:3411   */\n      0xffffffffffffffff\n        /* \"#utility.yul\":3381:3391   */\n      dup3\n        /* \"#utility.yul\":3378:3412   */\n      gt\n        /* \"#utility.yul\":3375:3437   */\n      or\n        /* \"#utility.yul\":3372:3460   */\n      iszero\n      tag_232\n      jumpi\n        /* \"#utility.yul\":3440:3458   */\n      tag_233\n      tag_149\n      jump\t// in\n    tag_233:\n        /* \"#utility.yul\":3372:3460   */\n    tag_232:\n        /* \"#utility.yul\":3480:3490   */\n      dup1\n        /* \"#utility.yul\":3476:3478   */\n      0x40\n        /* \"#utility.yul\":3469:3491   */\n      mstore\n        /* \"#utility.yul\":3259:3497   */\n      pop\n        /* \"#utility.yul\":3216:3497   */\n      pop\n      pop\n      jump\t// out\n        /* \"#utility.yul\":3503:3632   */\n    tag_151:\n        /* \"#utility.yul\":3537:3543   */\n      0x00\n        /* \"#utility.yul\":3564:3584   */\n      tag_235\n      tag_134\n      jump\t// in\n    tag_235:\n        /* \"#utility.yul\":3554:3584   */\n      swap1\n      pop\n        /* \"#utility.yul\":3593:3626   */\n      tag_236\n        /* \"#utility.yul\":3621:3625   */\n      dup3\n        /* \"#utility.yul\":3613:3619   */\n      dup3\n        /* \"#utility.yul\":3593:3626   */\n      tag_150\n      jump\t// in\n    tag_236:\n        /* \"#utility.yul\":3503:3632   */\n      swap2\n      swap1\n      pop\n      jump\t// out\n        /* \"#utility.yul\":3638:3896   */\n    tag_152:\n        /* \"#utility.yul\":3722:3726   */\n      0x00\n        /* \"#utility.yul\":3812:3830   */\n      0xffffffffffffffff\n        /* \"#utility.yul\":3804:3810   */\n      dup3\n        /* \"#utility.yul\":3801:3831   */\n      gt\n        /* \"#utility.yul\":3798:3854   */\n      iszero\n      tag_238\n      jumpi\n        /* \"#utility.yul\":3834:3852   */\n      tag_239\n      tag_149\n      jump\t// in\n    tag_239:\n        /* \"#utility.yul\":3798:3854   */\n    tag_238:\n        /* \"#utility.yul\":3884:3888   */\n      0x20\n        /* \"#utility.yul\":3876:3882   */\n      dup3\n        /* \"#utility.yul\":3872:3889   */\n      mul\n        /* \"#utility.yul\":3864:3889   */\n      swap1\n      pop\n        /* \"#utility.yul\":3638:3896   */\n      swap2\n      swap1\n      pop\n      jump\t// out\n        /* \"#utility.yul\":3902:4019   */\n    tag_153:\n        /* \"#utility.yul\":4011:4012   */\n      0x00\n        /* \"#utility.yul\":4008:4009   */\n      dup1\n        /* \"#utility.yul\":4001:4013   */\n      revert\n        /* \"#utility.yul\":4025:4142   */\n    tag_154:\n        /* \"#utility.yul\":4134:4135   */\n      0x00\n        /* \"#utility.yul\":4131:4132   */\n      dup1\n        /* \"#utility.yul\":4124:4136   */\n      revert\n        /* \"#utility.yul\":4148:4455   */\n    tag_155:\n        /* \"#utility.yul\":4209:4213   */\n      0x00\n        /* \"#utility.yul\":4299:4317   */\n      0xffffffffffffffff\n        /* \"#utility.yul\":4291:4297   */\n      dup3\n        /* \"#utility.yul\":4288:4318   */\n      gt\n        /* \"#utility.yul\":4285:4341   */\n      iszero\n      tag_243\n      jumpi\n        /* \"#utility.yul\":4321:4339   */\n      tag_244\n      tag_149\n      jump\t// in\n    tag_244:\n        /* \"#utility.yul\":4285:4341   */\n    tag_243:\n        /* \"#utility.yul\":4359:4388   */\n      tag_245\n        /* \"#utility.yul\":4381:4387   */\n      dup3\n        /* \"#utility.yul\":4359:4388   */\n      tag_148\n      jump\t// in\n    tag_245:\n        /* \"#utility.yul\":4351:4388   */\n      swap1\n      pop\n        /* \"#utility.yul\":4443:4447   */\n      0x20\n        /* \"#utility.yul\":4437:4441   */\n      dup2\n        /* \"#utility.yul\":4433:4448   */\n      add\n        /* \"#utility.yul\":4425:4448   */\n      swap1\n      pop\n        /* \"#utility.yul\":4148:4455   */\n      swap2\n      swap1\n      pop\n      jump\t// out\n        /* \"#utility.yul\":4461:4615   */\n    tag_156:\n        /* \"#utility.yul\":4545:4551   */\n      dup3\n        /* \"#utility.yul\":4540:4543   */\n      dup2\n        /* \"#utility.yul\":4535:4538   */\n      dup4\n        /* \"#utility.yul\":4522:4552   */\n      calldatacopy\n        /* \"#utility.yul\":4607:4608   */\n      0x00\n        /* \"#utility.yul\":4598:4604   */\n      dup4\n        /* \"#utility.yul\":4593:4596   */\n      dup4\n        /* \"#utility.yul\":4589:4605   */\n      add\n        /* \"#utility.yul\":4582:4609   */\n      mstore\n        /* \"#utility.yul\":4461:4615   */\n      pop\n      pop\n      pop\n      jump\t// out\n        /* \"#utility.yul\":4621:5031   */\n    tag_157:\n        /* \"#utility.yul\":4698:4703   */\n      0x00\n        /* \"#utility.yul\":4723:4788   */\n      tag_248\n        /* \"#utility.yul\":4739:4787   */\n      tag_249\n        /* \"#utility.yul\":4780:4786   */\n      dup5\n        /* \"#utility.yul\":4739:4787   */\n      tag_155\n      jump\t// in\n    tag_249:\n        /* \"#utility.yul\":4723:4788   */\n      tag_151\n      jump\t// in\n    tag_248:\n        /* \"#utility.yul\":4714:4788   */\n      swap1\n      pop\n        /* \"#utility.yul\":4811:4817   */\n      dup3\n        /* \"#utility.yul\":4804:4809   */\n      dup2\n        /* \"#utility.yul\":4797:4818   */\n      mstore\n        /* \"#utility.yul\":4849:4853   */\n      0x20\n        /* \"#utility.yul\":4842:4847   */\n      dup2\n        /* \"#utility.yul\":4838:4854   */\n      add\n        /* \"#utility.yul\":4887:4890   */\n      dup5\n        /* \"#utility.yul\":4878:4884   */\n      dup5\n        /* \"#utility.yul\":4873:4876   */\n      dup5\n        /* \"#utility.yul\":4869:4885   */\n      add\n        /* \"#utility.yul\":4866:4891   */\n      gt\n        /* \"#utility.yul\":4863:4975   */\n      iszero\n      tag_250\n      jumpi\n        /* \"#utility.yul\":4894:4973   */\n      tag_251\n      tag_154\n      jump\t// in\n    tag_251:\n        /* \"#utility.yul\":4863:4975   */\n    tag_250:\n        /* \"#utility.yul\":4984:5025   */\n      tag_252\n        /* \"#utility.yul\":5018:5024   */\n      dup5\n        /* \"#utility.yul\":5013:5016   */\n      dup3\n        /* \"#utility.yul\":5008:5011   */\n      dup6\n        /* \"#utility.yul\":4984:5025   */\n      tag_156\n      jump\t// in\n    tag_252:\n        /* \"#utility.yul\":4704:5031   */\n      pop\n        /* \"#utility.yul\":4621:5031   */\n      swap4\n      swap3\n      pop\n      pop\n      pop\n      jump\t// out\n        /* \"#utility.yul\":5050:5388   */\n    tag_158:\n        /* \"#utility.yul\":5105:5110   */\n      0x00\n        /* \"#utility.yul\":5154:5157   */\n      dup3\n        /* \"#utility.yul\":5147:5151   */\n      0x1f\n        /* \"#utility.yul\":5139:5145   */\n      dup4\n        /* \"#utility.yul\":5135:5152   */\n      add\n        /* \"#utility.yul\":5131:5158   */\n      slt\n        /* \"#utility.yul\":5121:5243   */\n      tag_254\n      jumpi\n        /* \"#utility.yul\":5162:5241   */\n      tag_255\n      tag_147\n      jump\t// in\n    tag_255:\n        /* \"#utility.yul\":5121:5243   */\n    tag_254:\n        /* \"#utility.yul\":5279:5285   */\n      dup2\n        /* \"#utility.yul\":5266:5286   */\n      calldataload\n        /* \"#utility.yul\":5304:5382   */\n      tag_256\n        /* \"#utility.yul\":5378:5381   */\n      dup5\n        /* \"#utility.yul\":5370:5376   */\n      dup3\n        /* \"#utility.yul\":5363:5367   */\n      0x20\n        /* \"#utility.yul\":5355:5361   */\n      dup7\n        /* \"#utility.yul\":5351:5368   */\n      add\n        /* \"#utility.yul\":5304:5382   */\n      tag_157\n      jump\t// in\n    tag_256:\n        /* \"#utility.yul\":5295:5382   */\n      swap2\n      pop\n        /* \"#utility.yul\":5111:5388   */\n      pop\n        /* \"#utility.yul\":5050:5388   */\n      swap3\n      swap2\n      pop\n      pop\n      jump\t// out\n        /* \"#utility.yul\":5410:6285   */\n    tag_159:\n        /* \"#utility.yul\":5513:5518   */\n      0x00\n        /* \"#utility.yul\":5538:5626   */\n      tag_258\n        /* \"#utility.yul\":5554:5625   */\n      tag_259\n        /* \"#utility.yul\":5618:5624   */\n      dup5\n        /* \"#utility.yul\":5554:5625   */\n      tag_152\n      jump\t// in\n    tag_259:\n        /* \"#utility.yul\":5538:5626   */\n      tag_151\n      jump\t// in\n    tag_258:\n        /* \"#utility.yul\":5529:5626   */\n      swap1\n      pop\n        /* \"#utility.yul\":5646:5651   */\n      dup1\n        /* \"#utility.yul\":5699:5703   */\n      0x20\n        /* \"#utility.yul\":5691:5697   */\n      dup5\n        /* \"#utility.yul\":5687:5704   */\n      mul\n        /* \"#utility.yul\":5679:5685   */\n      dup4\n        /* \"#utility.yul\":5675:5705   */\n      add\n        /* \"#utility.yul\":5728:5731   */\n      dup6\n        /* \"#utility.yul\":5720:5726   */\n      dup2\n        /* \"#utility.yul\":5717:5732   */\n      gt\n        /* \"#utility.yul\":5714:5836   */\n      iszero\n      tag_260\n      jumpi\n        /* \"#utility.yul\":5747:5826   */\n      tag_261\n      tag_153\n      jump\t// in\n    tag_261:\n        /* \"#utility.yul\":5714:5836   */\n    tag_260:\n        /* \"#utility.yul\":5862:5868   */\n      dup4\n        /* \"#utility.yul\":5845:6279   */\n    tag_262:\n        /* \"#utility.yul\":5879:5885   */\n      dup2\n        /* \"#utility.yul\":5874:5877   */\n      dup2\n        /* \"#utility.yul\":5871:5886   */\n      lt\n        /* \"#utility.yul\":5845:6279   */\n      iszero\n      tag_264\n      jumpi\n        /* \"#utility.yul\":5968:5971   */\n      dup1\n        /* \"#utility.yul\":5955:5972   */\n      calldataload\n        /* \"#utility.yul\":6004:6022   */\n      0xffffffffffffffff\n        /* \"#utility.yul\":5991:6002   */\n      dup2\n        /* \"#utility.yul\":5988:6023   */\n      gt\n        /* \"#utility.yul\":5985:6107   */\n      iszero\n      tag_265\n      jumpi\n        /* \"#utility.yul\":6026:6105   */\n      tag_266\n      tag_147\n      jump\t// in\n    tag_266:\n        /* \"#utility.yul\":5985:6107   */\n    tag_265:\n        /* \"#utility.yul\":6150:6161   */\n      dup1\n        /* \"#utility.yul\":6142:6148   */\n      dup7\n        /* \"#utility.yul\":6138:6162   */\n      add\n        /* \"#utility.yul\":6188:6234   */\n      tag_267\n        /* \"#utility.yul\":6230:6233   */\n      dup10\n        /* \"#utility.yul\":6218:6228   */\n      dup3\n        /* \"#utility.yul\":6188:6234   */\n      tag_158\n      jump\t// in\n    tag_267:\n        /* \"#utility.yul\":6183:6186   */\n      dup6\n        /* \"#utility.yul\":6176:6235   */\n      mstore\n        /* \"#utility.yul\":6264:6268   */\n      0x20\n        /* \"#utility.yul\":6259:6262   */\n      dup6\n        /* \"#utility.yul\":6255:6269   */\n      add\n        /* \"#utility.yul\":6248:6269   */\n      swap5\n      pop\n        /* \"#utility.yul\":5921:6279   */\n      pop\n      pop\n        /* \"#utility.yul\":5905:5909   */\n      0x20\n        /* \"#utility.yul\":5900:5903   */\n      dup2\n        /* \"#utility.yul\":5896:5910   */\n      add\n        /* \"#utility.yul\":5889:5910   */\n      swap1\n      pop\n        /* \"#utility.yul\":5845:6279   */\n      jump(tag_262)\n    tag_264:\n        /* \"#utility.yul\":5849:5870   */\n      pop\n        /* \"#utility.yul\":5519:6285   */\n      pop\n      pop\n        /* \"#utility.yul\":5410:6285   */\n      swap4\n      swap3\n      pop\n      pop\n      pop\n      jump\t// out\n        /* \"#utility.yul\":6307:6664   */\n    tag_160:\n        /* \"#utility.yul\":6385:6390   */\n      0x00\n        /* \"#utility.yul\":6434:6437   */\n      dup3\n        /* \"#utility.yul\":6427:6431   */\n      0x1f\n        /* \"#utility.yul\":6419:6425   */\n      dup4\n        /* \"#utility.yul\":6415:6432   */\n      add\n        /* \"#utility.yul\":6411:6438   */\n      slt\n        /* \"#utility.yul\":6401:6523   */\n      tag_269\n      jumpi\n        /* \"#utility.yul\":6442:6521   */\n      tag_270\n      tag_147\n      jump\t// in\n    tag_270:\n        /* \"#utility.yul\":6401:6523   */\n    tag_269:\n        /* \"#utility.yul\":6546:6550   */\n      0x02\n        /* \"#utility.yul\":6568:6658   */\n      tag_271\n        /* \"#utility.yul\":6654:6657   */\n      dup5\n        /* \"#utility.yul\":6646:6652   */\n      dup3\n        /* \"#utility.yul\":6638:6644   */\n      dup6\n        /* \"#utility.yul\":6568:6658   */\n      tag_159\n      jump\t// in\n    tag_271:\n        /* \"#utility.yul\":6559:6658   */\n      swap2\n      pop\n        /* \"#utility.yul\":6391:6664   */\n      pop\n        /* \"#utility.yul\":6307:6664   */\n      swap3\n      swap2\n      pop\n      pop\n      jump\t// out\n        /* \"#utility.yul\":6670:7513   */\n    tag_25:\n        /* \"#utility.yul\":6779:6785   */\n      0x00\n        /* \"#utility.yul\":6787:6793   */\n      dup1\n        /* \"#utility.yul\":6795:6801   */\n      0x00\n        /* \"#utility.yul\":6844:6846   */\n      0x60\n        /* \"#utility.yul\":6832:6841   */\n      dup5\n        /* \"#utility.yul\":6823:6830   */\n      dup7\n        /* \"#utility.yul\":6819:6842   */\n      sub\n        /* \"#utility.yul\":6815:6847   */\n      slt\n        /* \"#utility.yul\":6812:6931   */\n      iszero\n      tag_273\n      jumpi\n        /* \"#utility.yul\":6850:6929   */\n      tag_274\n      tag_135\n      jump\t// in\n    tag_274:\n        /* \"#utility.yul\":6812:6931   */\n    tag_273:\n        /* \"#utility.yul\":6970:6971   */\n      0x00\n        /* \"#utility.yul\":6995:7048   */\n      tag_275\n        /* \"#utility.yul\":7040:7047   */\n      dup7\n        /* \"#utility.yul\":7031:7037   */\n      dup3\n        /* \"#utility.yul\":7020:7029   */\n      dup8\n        /* \"#utility.yul\":7016:7038   */\n      add\n        /* \"#utility.yul\":6995:7048   */\n      tag_144\n      jump\t// in\n    tag_275:\n        /* \"#utility.yul\":6985:7048   */\n      swap4\n      pop\n        /* \"#utility.yul\":6941:7058   */\n      pop\n        /* \"#utility.yul\":7097:7099   */\n      0x20\n        /* \"#utility.yul\":7123:7176   */\n      tag_276\n        /* \"#utility.yul\":7168:7175   */\n      dup7\n        /* \"#utility.yul\":7159:7165   */\n      dup3\n        /* \"#utility.yul\":7148:7157   */\n      dup8\n        /* \"#utility.yul\":7144:7166   */\n      add\n        /* \"#utility.yul\":7123:7176   */\n      tag_139\n      jump\t// in\n    tag_276:\n        /* \"#utility.yul\":7113:7176   */\n      swap3\n      pop\n        /* \"#utility.yul\":7068:7186   */\n      pop\n        /* \"#utility.yul\":7253:7255   */\n      0x40\n        /* \"#utility.yul\":7242:7251   */\n      dup5\n        /* \"#utility.yul\":7238:7256   */\n      add\n        /* \"#utility.yul\":7225:7257   */\n      calldataload\n        /* \"#utility.yul\":7284:7302   */\n      0xffffffffffffffff\n        /* \"#utility.yul\":7276:7282   */\n      dup2\n        /* \"#utility.yul\":7273:7303   */\n      gt\n        /* \"#utility.yul\":7270:7387   */\n      iszero\n      tag_277\n      jumpi\n        /* \"#utility.yul\":7306:7385   */\n      tag_278\n      tag_136\n      jump\t// in\n    tag_278:\n        /* \"#utility.yul\":7270:7387   */\n    tag_277:\n        /* \"#utility.yul\":7411:7496   */\n      tag_279\n        /* \"#utility.yul\":7488:7495   */\n      dup7\n        /* \"#utility.yul\":7479:7485   */\n      dup3\n        /* \"#utility.yul\":7468:7477   */\n      dup8\n        /* \"#utility.yul\":7464:7486   */\n      add\n        /* \"#utility.yul\":7411:7496   */\n      tag_160\n      jump\t// in\n    tag_279:\n        /* \"#utility.yul\":7401:7496   */\n      swap2\n      pop\n        /* \"#utility.yul\":7196:7506   */\n      pop\n        /* \"#utility.yul\":6670:7513   */\n      swap3\n      pop\n      swap3\n      pop\n      swap3\n      jump\t// out\n        /* \"#utility.yul\":7519:7613   */\n    tag_161:\n        /* \"#utility.yul\":7552:7560   */\n      0x00\n        /* \"#utility.yul\":7600:7605   */\n      dup2\n        /* \"#utility.yul\":7596:7598   */\n      0x60\n        /* \"#utility.yul\":7592:7606   */\n      shl\n        /* \"#utility.yul\":7571:7606   */\n      swap1\n      pop\n        /* \"#utility.yul\":7519:7613   */\n      swap2\n      swap1\n      pop\n      jump\t// out\n        /* \"#utility.yul\":7619:7713   */\n    tag_162:\n        /* \"#utility.yul\":7658:7665   */\n      0x00\n        /* \"#utility.yul\":7687:7707   */\n      tag_282\n        /* \"#utility.yul\":7701:7706   */\n      dup3\n        /* \"#utility.yul\":7687:7707   */\n      tag_161\n      jump\t// in\n    tag_282:\n        /* \"#utility.yul\":7676:7707   */\n      swap1\n      pop\n        /* \"#utility.yul\":7619:7713   */\n      swap2\n      swap1\n      pop\n      jump\t// out\n        /* \"#utility.yul\":7719:7819   */\n    tag_163:\n        /* \"#utility.yul\":7758:7765   */\n      0x00\n        /* \"#utility.yul\":7787:7813   */\n      tag_284\n        /* \"#utility.yul\":7807:7812   */\n      dup3\n        /* \"#utility.yul\":7787:7813   */\n      tag_162\n      jump\t// in\n    tag_284:\n        /* \"#utility.yul\":7776:7813   */\n      swap1\n      pop\n        /* \"#utility.yul\":7719:7819   */\n      swap2\n      swap1\n      pop\n      jump\t// out\n        /* \"#utility.yul\":7825:7982   */\n    tag_164:\n        /* \"#utility.yul\":7930:7975   */\n      tag_286\n        /* \"#utility.yul\":7950:7974   */\n      tag_287\n        /* \"#utility.yul\":7968:7973   */\n      dup3\n        /* \"#utility.yul\":7950:7974   */\n      tag_141\n      jump\t// in\n    tag_287:\n        /* \"#utility.yul\":7930:7975   */\n      tag_163\n      jump\t// in\n    tag_286:\n        /* \"#utility.yul\":7925:7928   */\n      dup3\n        /* \"#utility.yul\":7918:7976   */\n      mstore\n        /* \"#utility.yul\":7825:7982   */\n      pop\n      pop\n      jump\t// out\n        /* \"#utility.yul\":7988:8067   */\n    tag_165:\n        /* \"#utility.yul\":8027:8034   */\n      0x00\n        /* \"#utility.yul\":8056:8061   */\n      dup2\n        /* \"#utility.yul\":8045:8061   */\n      swap1\n      pop\n        /* \"#utility.yul\":7988:8067   */\n      swap2\n      swap1\n      pop\n      jump\t// out\n        /* \"#utility.yul\":8073:8230   */\n    tag_166:\n        /* \"#utility.yul\":8178:8223   */\n      tag_290\n        /* \"#utility.yul\":8198:8222   */\n      tag_291\n        /* \"#utility.yul\":8216:8221   */\n      dup3\n        /* \"#utility.yul\":8198:8222   */\n      tag_137\n      jump\t// in\n    tag_291:\n        /* \"#utility.yul\":8178:8223   */\n      tag_165\n      jump\t// in\n    tag_290:\n        /* \"#utility.yul\":8173:8176   */\n      dup3\n        /* \"#utility.yul\":8166:8224   */\n      mstore\n        /* \"#utility.yul\":8073:8230   */\n      pop\n      pop\n      jump\t// out\n        /* \"#utility.yul\":8236:8633   */\n    tag_31:\n        /* \"#utility.yul\":8376:8379   */\n      0x00\n        /* \"#utility.yul\":8391:8466   */\n      tag_293\n        /* \"#utility.yul\":8462:8465   */\n      dup3\n        /* \"#utility.yul\":8453:8459   */\n      dup6\n        /* \"#utility.yul\":8391:8466   */\n      tag_164\n      jump\t// in\n    tag_293:\n        /* \"#utility.yul\":8491:8493   */\n      0x14\n        /* \"#utility.yul\":8486:8489   */\n      dup3\n        /* \"#utility.yul\":8482:8494   */\n      add\n        /* \"#utility.yul\":8475:8494   */\n      swap2\n      pop\n        /* \"#utility.yul\":8504:8579   */\n      tag_294\n        /* \"#utility.yul\":8575:8578   */\n      dup3\n        /* \"#utility.yul\":8566:8572   */\n      dup5\n        /* \"#utility.yul\":8504:8579   */\n      tag_166\n      jump\t// in\n    tag_294:\n        /* \"#utility.yul\":8604:8606   */\n      0x20\n        /* \"#utility.yul\":8599:8602   */\n      dup3\n        /* \"#utility.yul\":8595:8607   */\n      add\n        /* \"#utility.yul\":8588:8607   */\n      swap2\n      pop\n        /* \"#utility.yul\":8624:8627   */\n      dup2\n        /* \"#utility.yul\":8617:8627   */\n      swap1\n      pop\n        /* \"#utility.yul\":8236:8633   */\n      swap4\n      swap3\n      pop\n      pop\n      pop\n      jump\t// out\n        /* \"#utility.yul\":8639:8808   */\n    tag_167:\n        /* \"#utility.yul\":8723:8734   */\n      0x00\n        /* \"#utility.yul\":8757:8763   */\n      dup3\n        /* \"#utility.yul\":8752:8755   */\n      dup3\n        /* \"#utility.yul\":8745:8764   */\n      mstore\n        /* \"#utility.yul\":8797:8801   */\n      0x20\n        /* \"#utility.yul\":8792:8795   */\n      dup3\n        /* \"#utility.yul\":8788:8802   */\n      add\n        /* \"#utility.yul\":8773:8802   */\n      swap1\n      pop\n        /* \"#utility.yul\":8639:8808   */\n      swap3\n      swap2\n      pop\n      pop\n      jump\t// out\n        /* \"#utility.yul\":8814:8975   */\n    tag_168:\n        /* \"#utility.yul\":8954:8967   */\n      0x696e76616c696420736967000000000000000000000000000000000000000000\n        /* \"#utility.yul\":8950:8951   */\n      0x00\n        /* \"#utility.yul\":8942:8948   */\n      dup3\n        /* \"#utility.yul\":8938:8952   */\n      add\n        /* \"#utility.yul\":8931:8968   */\n      mstore\n        /* \"#utility.yul\":8814:8975   */\n      pop\n      jump\t// out\n        /* \"#utility.yul\":8981:9347   */\n    tag_169:\n        /* \"#utility.yul\":9123:9126   */\n      0x00\n        /* \"#utility.yul\":9144:9211   */\n      tag_298\n        /* \"#utility.yul\":9208:9210   */\n      0x0b\n        /* \"#utility.yul\":9203:9206   */\n      dup4\n        /* \"#utility.yul\":9144:9211   */\n      tag_167\n      jump\t// in\n    tag_298:\n        /* \"#utility.yul\":9137:9211   */\n      swap2\n      pop\n        /* \"#utility.yul\":9220:9313   */\n      tag_299\n        /* \"#utility.yul\":9309:9312   */\n      dup3\n        /* \"#utility.yul\":9220:9313   */\n      tag_168\n      jump\t// in\n    tag_299:\n        /* \"#utility.yul\":9338:9340   */\n      0x20\n        /* \"#utility.yul\":9333:9336   */\n      dup3\n        /* \"#utility.yul\":9329:9341   */\n      add\n        /* \"#utility.yul\":9322:9341   */\n      swap1\n      pop\n        /* \"#utility.yul\":8981:9347   */\n      swap2\n      swap1\n      pop\n      jump\t// out\n        /* \"#utility.yul\":9353:9772   */\n    tag_39:\n        /* \"#utility.yul\":9519:9523   */\n      0x00\n        /* \"#utility.yul\":9557:9559   */\n      0x20\n        /* \"#utility.yul\":9546:9555   */\n      dup3\n        /* \"#utility.yul\":9542:9560   */\n      add\n        /* \"#utility.yul\":9534:9560   */\n      swap1\n      pop\n        /* \"#utility.yul\":9606:9615   */\n      dup2\n        /* \"#utility.yul\":9600:9604   */\n      dup2\n        /* \"#utility.yul\":9596:9616   */\n      sub\n        /* \"#utility.yul\":9592:9593   */\n      0x00\n        /* \"#utility.yul\":9581:9590   */\n      dup4\n        /* \"#utility.yul\":9577:9594   */\n      add\n        /* \"#utility.yul\":9570:9617   */\n      mstore\n        /* \"#utility.yul\":9634:9765   */\n      tag_301\n        /* \"#utility.yul\":9760:9764   */\n      dup2\n        /* \"#utility.yul\":9634:9765   */\n      tag_169\n      jump\t// in\n    tag_301:\n        /* \"#utility.yul\":9626:9765   */\n      swap1\n      pop\n        /* \"#utility.yul\":9353:9772   */\n      swap2\n      swap1\n      pop\n      jump\t// out\n        /* \"#utility.yul\":9778:9925   */\n    tag_170:\n        /* \"#utility.yul\":9879:9890   */\n      0x00\n        /* \"#utility.yul\":9916:9919   */\n      dup2\n        /* \"#utility.yul\":9901:9919   */\n      swap1\n      pop\n        /* \"#utility.yul\":9778:9925   */\n      swap3\n      swap2\n      pop\n      pop\n      jump\t// out\n        /* \"#utility.yul\":9931:10045   */\n    tag_171:\n      pop\n      jump\t// out\n        /* \"#utility.yul\":10051:10449   */\n    tag_172:\n        /* \"#utility.yul\":10210:10213   */\n      0x00\n        /* \"#utility.yul\":10231:10314   */\n      tag_305\n        /* \"#utility.yul\":10312:10313   */\n      0x00\n        /* \"#utility.yul\":10307:10310   */\n      dup4\n        /* \"#utility.yul\":10231:10314   */\n      tag_170\n      jump\t// in\n    tag_305:\n        /* \"#utility.yul\":10224:10314   */\n      swap2\n      pop\n        /* \"#utility.yul\":10323:10416   */\n      tag_306\n        /* \"#utility.yul\":10412:10415   */\n      dup3\n        /* \"#utility.yul\":10323:10416   */\n      tag_171\n      jump\t// in\n    tag_306:\n        /* \"#utility.yul\":10441:10442   */\n      0x00\n        /* \"#utility.yul\":10436:10439   */\n      dup3\n        /* \"#utility.yul\":10432:10443   */\n      add\n        /* \"#utility.yul\":10425:10443   */\n      swap1\n      pop\n        /* \"#utility.yul\":10051:10449   */\n      swap2\n      swap1\n      pop\n      jump\t// out\n        /* \"#utility.yul\":10455:10834   */\n    tag_41:\n        /* \"#utility.yul\":10639:10642   */\n      0x00\n        /* \"#utility.yul\":10661:10808   */\n      tag_308\n        /* \"#utility.yul\":10804:10807   */\n      dup3\n        /* \"#utility.yul\":10661:10808   */\n      tag_172\n      jump\t// in\n    tag_308:\n        /* \"#utility.yul\":10654:10808   */\n      swap2\n      pop\n        /* \"#utility.yul\":10825:10828   */\n      dup2\n        /* \"#utility.yul\":10818:10828   */\n      swap1\n      pop\n        /* \"#utility.yul\":10455:10834   */\n      swap2\n      swap1\n      pop\n      jump\t// out\n        /* \"#utility.yul\":10840:11010   */\n    tag_173:\n        /* \"#utility.yul\":10980:11002   */\n      0x4661696c656420746f2073656e64204574686572000000000000000000000000\n        /* \"#utility.yul\":10976:10977   */\n      0x00\n        /* \"#utility.yul\":10968:10974   */\n      dup3\n        /* \"#utility.yul\":10964:10978   */\n      add\n        /* \"#utility.yul\":10957:11003   */\n      mstore\n        /* \"#utility.yul\":10840:11010   */\n      pop\n      jump\t// out\n        /* \"#utility.yul\":11016:11382   */\n    tag_174:\n        /* \"#utility.yul\":11158:11161   */\n      0x00\n        /* \"#utility.yul\":11179:11246   */\n      tag_311\n        /* \"#utility.yul\":11243:11245   */\n      0x14\n        /* \"#utility.yul\":11238:11241   */\n      dup4\n        /* \"#utility.yul\":11179:11246   */\n      tag_167\n      jump\t// in\n    tag_311:\n        /* \"#utility.yul\":11172:11246   */\n      swap2\n      pop\n        /* \"#utility.yul\":11255:11348   */\n      tag_312\n        /* \"#utility.yul\":11344:11347   */\n      dup3\n        /* \"#utility.yul\":11255:11348   */\n      tag_173\n      jump\t// in\n    tag_312:\n        /* \"#utility.yul\":11373:11375   */\n      0x20\n        /* \"#utility.yul\":11368:11371   */\n      dup3\n        /* \"#utility.yul\":11364:11376   */\n      add\n        /* \"#utility.yul\":11357:11376   */\n      swap1\n      pop\n        /* \"#utility.yul\":11016:11382   */\n      swap2\n      swap1\n      pop\n      jump\t// out\n        /* \"#utility.yul\":11388:11807   */\n    tag_47:\n        /* \"#utility.yul\":11554:11558   */\n      0x00\n        /* \"#utility.yul\":11592:11594   */\n      0x20\n        /* \"#utility.yul\":11581:11590   */\n      dup3\n        /* \"#utility.yul\":11577:11595   */\n      add\n        /* \"#utility.yul\":11569:11595   */\n      swap1\n      pop\n        /* \"#utility.yul\":11641:11650   */\n      dup2\n        /* \"#utility.yul\":11635:11639   */\n      dup2\n        /* \"#utility.yul\":11631:11651   */\n      sub\n        /* \"#utility.yul\":11627:11628   */\n      0x00\n        /* \"#utility.yul\":11616:11625   */\n      dup4\n        /* \"#utility.yul\":11612:11629   */\n      add\n        /* \"#utility.yul\":11605:11652   */\n      mstore\n        /* \"#utility.yul\":11669:11800   */\n      tag_314\n        /* \"#utility.yul\":11795:11799   */\n      dup2\n        /* \"#utility.yul\":11669:11800   */\n      tag_174\n      jump\t// in\n    tag_314:\n        /* \"#utility.yul\":11661:11800   */\n      swap1\n      pop\n        /* \"#utility.yul\":11388:11807   */\n      swap2\n      swap1\n      pop\n      jump\t// out\n        /* \"#utility.yul\":11813:11993   */\n    tag_57:\n        /* \"#utility.yul\":11861:11938   */\n      0x4e487b7100000000000000000000000000000000000000000000000000000000\n        /* \"#utility.yul\":11858:11859   */\n      0x00\n        /* \"#utility.yul\":11851:11939   */\n      mstore\n        /* \"#utility.yul\":11958:11962   */\n      0x32\n        /* \"#utility.yul\":11955:11956   */\n      0x04\n        /* \"#utility.yul\":11948:11963   */\n      mstore\n        /* \"#utility.yul\":11982:11986   */\n      0x24\n        /* \"#utility.yul\":11979:11980   */\n      0x00\n        /* \"#utility.yul\":11972:11987   */\n      revert\n        /* \"#utility.yul\":11999:12179   */\n    tag_175:\n        /* \"#utility.yul\":12047:12124   */\n      0x4e487b7100000000000000000000000000000000000000000000000000000000\n        /* \"#utility.yul\":12044:12045   */\n      0x00\n        /* \"#utility.yul\":12037:12125   */\n      mstore\n        /* \"#utility.yul\":12144:12148   */\n      0x11\n        /* \"#utility.yul\":12141:12142   */\n      0x04\n        /* \"#utility.yul\":12134:12149   */\n      mstore\n        /* \"#utility.yul\":12168:12172   */\n      0x24\n        /* \"#utility.yul\":12165:12166   */\n      0x00\n        /* \"#utility.yul\":12158:12173   */\n      revert\n        /* \"#utility.yul\":12185:12418   */\n    tag_64:\n        /* \"#utility.yul\":12224:12227   */\n      0x00\n        /* \"#utility.yul\":12247:12271   */\n      tag_318\n        /* \"#utility.yul\":12265:12270   */\n      dup3\n        /* \"#utility.yul\":12247:12271   */\n      tag_137\n      jump\t// in\n    tag_318:\n        /* \"#utility.yul\":12238:12271   */\n      swap2\n      pop\n        /* \"#utility.yul\":12293:12359   */\n      0xffffffffffffffffffffffffffffffffffffffffffffffffffffffffffffffff\n        /* \"#utility.yul\":12286:12291   */\n      dup3\n        /* \"#utility.yul\":12283:12360   */\n      eq\n        /* \"#utility.yul\":12280:12383   */\n      iszero\n      tag_319\n      jumpi\n        /* \"#utility.yul\":12363:12381   */\n      tag_320\n      tag_175\n      jump\t// in\n    tag_320:\n        /* \"#utility.yul\":12280:12383   */\n    tag_319:\n        /* \"#utility.yul\":12410:12411   */\n      0x01\n        /* \"#utility.yul\":12403:12408   */\n      dup3\n        /* \"#utility.yul\":12399:12412   */\n      add\n        /* \"#utility.yul\":12392:12412   */\n      swap1\n      pop\n        /* \"#utility.yul\":12185:12418   */\n      swap2\n      swap1\n      pop\n      jump\t// out\n        /* \"#utility.yul\":12424:12572   */\n    tag_176:\n        /* \"#utility.yul\":12526:12537   */\n      0x00\n        /* \"#utility.yul\":12563:12566   */\n      dup2\n        /* \"#utility.yul\":12548:12566   */\n      swap1\n      pop\n        /* \"#utility.yul\":12424:12572   */\n      swap3\n      swap2\n      pop\n      pop\n      jump\t// out\n        /* \"#utility.yul\":12578:12792   */\n    tag_177:\n        /* \"#utility.yul\":12718:12784   */\n      0x19457468657265756d205369676e6564204d6573736167653a0a333200000000\n        /* \"#utility.yul\":12714:12715   */\n      0x00\n        /* \"#utility.yul\":12706:12712   */\n      dup3\n        /* \"#utility.yul\":12702:12716   */\n      add\n        /* \"#utility.yul\":12695:12785   */\n      mstore\n        /* \"#utility.yul\":12578:12792   */\n      pop\n      jump\t// out\n        /* \"#utility.yul\":12798:13200   */\n    tag_178:\n        /* \"#utility.yul\":12958:12961   */\n      0x00\n        /* \"#utility.yul\":12979:13064   */\n      tag_324\n        /* \"#utility.yul\":13061:13063   */\n      0x1c\n        /* \"#utility.yul\":13056:13059   */\n      dup4\n        /* \"#utility.yul\":12979:13064   */\n      tag_176\n      jump\t// in\n    tag_324:\n        /* \"#utility.yul\":12972:13064   */\n      swap2\n      pop\n        /* \"#utility.yul\":13073:13166   */\n      tag_325\n        /* \"#utility.yul\":13162:13165   */\n      dup3\n        /* \"#utility.yul\":13073:13166   */\n      tag_177\n      jump\t// in\n    tag_325:\n        /* \"#utility.yul\":13191:13193   */\n      0x1c\n        /* \"#utility.yul\":13186:13189   */\n      dup3\n        /* \"#utility.yul\":13182:13194   */\n      add\n        /* \"#utility.yul\":13175:13194   */\n      swap1\n      pop\n        /* \"#utility.yul\":12798:13200   */\n      swap2\n      swap1\n      pop\n      jump\t// out\n        /* \"#utility.yul\":13206:13285   */\n    tag_179:\n        /* \"#utility.yul\":13245:13252   */\n      0x00\n        /* \"#utility.yul\":13274:13279   */\n      dup2\n        /* \"#utility.yul\":13263:13279   */\n      swap1\n      pop\n        /* \"#utility.yul\":13206:13285   */\n      swap2\n      swap1\n      pop\n      jump\t// out\n        /* \"#utility.yul\":13291:13448   */\n    tag_180:\n        /* \"#utility.yul\":13396:13441   */\n      tag_328\n        /* \"#utility.yul\":13416:13440   */\n      tag_329\n        /* \"#utility.yul\":13434:13439   */\n      dup3\n        /* \"#utility.yul\":13416:13440   */\n      tag_145\n      jump\t// in\n    tag_329:\n        /* \"#utility.yul\":13396:13441   */\n      tag_179\n      jump\t// in\n    tag_328:\n        /* \"#utility.yul\":13391:13394   */\n      dup3\n        /* \"#utility.yul\":13384:13442   */\n      mstore\n        /* \"#utility.yul\":13291:13448   */\n      pop\n      pop\n      jump\t// out\n        /* \"#utility.yul\":13454:13976   */\n    tag_67:\n        /* \"#utility.yul\":13667:13670   */\n      0x00\n        /* \"#utility.yul\":13689:13837   */\n      tag_331\n        /* \"#utility.yul\":13833:13836   */\n      dup3\n        /* \"#utility.yul\":13689:13837   */\n      tag_178\n      jump\t// in\n    tag_331:\n        /* \"#utility.yul\":13682:13837   */\n      swap2\n      pop\n        /* \"#utility.yul\":13847:13922   */\n      tag_332\n        /* \"#utility.yul\":13918:13921   */\n      dup3\n        /* \"#utility.yul\":13909:13915   */\n      dup5\n        /* \"#utility.yul\":13847:13922   */\n      tag_180\n      jump\t// in\n    tag_332:\n        /* \"#utility.yul\":13947:13949   */\n      0x20\n        /* \"#utility.yul\":13942:13945   */\n      dup3\n        /* \"#utility.yul\":13938:13950   */\n      add\n        /* \"#utility.yul\":13931:13950   */\n      swap2\n      pop\n        /* \"#utility.yul\":13967:13970   */\n      dup2\n        /* \"#utility.yul\":13960:13970   */\n      swap1\n      pop\n        /* \"#utility.yul\":13454:13976   */\n      swap3\n      swap2\n      pop\n      pop\n      jump\t// out\n        /* \"#utility.yul\":13982:14162   */\n    tag_85:\n        /* \"#utility.yul\":14030:14107   */\n      0x4e487b7100000000000000000000000000000000000000000000000000000000\n        /* \"#utility.yul\":14027:14028   */\n      0x00\n        /* \"#utility.yul\":14020:14108   */\n      mstore\n        /* \"#utility.yul\":14127:14131   */\n      0x21\n        /* \"#utility.yul\":14124:14125   */\n      0x04\n        /* \"#utility.yul\":14117:14132   */\n      mstore\n        /* \"#utility.yul\":14151:14155   */\n      0x24\n        /* \"#utility.yul\":14148:14149   */\n      0x00\n        /* \"#utility.yul\":14141:14156   */\n      revert\n        /* \"#utility.yul\":14168:14342   */\n    tag_181:\n        /* \"#utility.yul\":14308:14334   */\n      0x45434453413a20696e76616c6964207369676e61747572650000000000000000\n        /* \"#utility.yul\":14304:14305   */\n      0x00\n        /* \"#utility.yul\":14296:14302   */\n      dup3\n        /* \"#utility.yul\":14292:14306   */\n      add\n        /* \"#utility.yul\":14285:14335   */\n      mstore\n        /* \"#utility.yul\":14168:14342   */\n      pop\n      jump\t// out\n        /* \"#utility.yul\":14348:14714   */\n    tag_182:\n        /* \"#utility.yul\":14490:14493   */\n      0x00\n        /* \"#utility.yul\":14511:14578   */\n      tag_336\n        /* \"#utility.yul\":14575:14577   */\n      0x18\n        /* \"#utility.yul\":14570:14573   */\n      dup4\n        /* \"#utility.yul\":14511:14578   */\n      tag_167\n      jump\t// in\n    tag_336:\n        /* \"#utility.yul\":14504:14578   */\n      swap2\n      pop\n        /* \"#utility.yul\":14587:14680   */\n      tag_337\n        /* \"#utility.yul\":14676:14679   */\n      dup3\n        /* \"#utility.yul\":14587:14680   */\n      tag_181\n      jump\t// in\n    tag_337:\n        /* \"#utility.yul\":14705:14707   */\n      0x20\n        /* \"#utility.yul\":14700:14703   */\n      dup3\n        /* \"#utility.yul\":14696:14708   */\n      add\n        /* \"#utility.yul\":14689:14708   */\n      swap1\n      pop\n        /* \"#utility.yul\":14348:14714   */\n      swap2\n      swap1\n      pop\n      jump\t// out\n        /* \"#utility.yul\":14720:15139   */\n    tag_96:\n        /* \"#utility.yul\":14886:14890   */\n      0x00\n        /* \"#utility.yul\":14924:14926   */\n      0x20\n        /* \"#utility.yul\":14913:14922   */\n      dup3\n        /* \"#utility.yul\":14909:14927   */\n      add\n        /* \"#utility.yul\":14901:14927   */\n      swap1\n      pop\n        /* \"#utility.yul\":14973:14982   */\n      dup2\n        /* \"#utility.yul\":14967:14971   */\n      dup2\n        /* \"#utility.yul\":14963:14983   */\n      sub\n        /* \"#utility.yul\":14959:14960   */\n      0x00\n        /* \"#utility.yul\":14948:14957   */\n      dup4\n        /* \"#utility.yul\":14944:14961   */\n      add\n        /* \"#utility.yul\":14937:14984   */\n      mstore\n        /* \"#utility.yul\":15001:15132   */\n      tag_339\n        /* \"#utility.yul\":15127:15131   */\n      dup2\n        /* \"#utility.yul\":15001:15132   */\n      tag_182\n      jump\t// in\n    tag_339:\n        /* \"#utility.yul\":14993:15132   */\n      swap1\n      pop\n        /* \"#utility.yul\":14720:15139   */\n      swap2\n      swap1\n      pop\n      jump\t// out\n        /* \"#utility.yul\":15145:15326   */\n    tag_183:\n        /* \"#utility.yul\":15285:15318   */\n      0x45434453413a20696e76616c6964207369676e6174757265206c656e67746800\n        /* \"#utility.yul\":15281:15282   */\n      0x00\n        /* \"#utility.yul\":15273:15279   */\n      dup3\n        /* \"#utility.yul\":15269:15283   */\n      add\n        /* \"#utility.yul\":15262:15319   */\n      mstore\n        /* \"#utility.yul\":15145:15326   */\n      pop\n      jump\t// out\n        /* \"#utility.yul\":15332:15698   */\n    tag_184:\n        /* \"#utility.yul\":15474:15477   */\n      0x00\n        /* \"#utility.yul\":15495:15562   */\n      tag_342\n        /* \"#utility.yul\":15559:15561   */\n      0x1f\n        /* \"#utility.yul\":15554:15557   */\n      dup4\n        /* \"#utility.yul\":15495:15562   */\n      tag_167\n      jump\t// in\n    tag_342:\n        /* \"#utility.yul\":15488:15562   */\n      swap2\n      pop\n        /* \"#utility.yul\":15571:15664   */\n      tag_343\n        /* \"#utility.yul\":15660:15663   */\n      dup3\n        /* \"#utility.yul\":15571:15664   */\n      tag_183\n      jump\t// in\n    tag_343:\n        /* \"#utility.yul\":15689:15691   */\n      0x20\n        /* \"#utility.yul\":15684:15687   */\n      dup3\n        /* \"#utility.yul\":15680:15692   */\n      add\n        /* \"#utility.yul\":15673:15692   */\n      swap1\n      pop\n        /* \"#utility.yul\":15332:15698   */\n      swap2\n      swap1\n      pop\n      jump\t// out\n        /* \"#utility.yul\":15704:16123   */\n    tag_104:\n        /* \"#utility.yul\":15870:15874   */\n      0x00\n        /* \"#utility.yul\":15908:15910   */\n      0x20\n        /* \"#utility.yul\":15897:15906   */\n      dup3\n        /* \"#utility.yul\":15893:15911   */\n      add\n        /* \"#utility.yul\":15885:15911   */\n      swap1\n      pop\n        /* \"#utility.yul\":15957:15966   */\n      dup2\n        /* \"#utility.yul\":15951:15955   */\n      dup2\n        /* \"#utility.yul\":15947:15967   */\n      sub\n        /* \"#utility.yul\":15943:15944   */\n      0x00\n        /* \"#utility.yul\":15932:15941   */\n      dup4\n        /* \"#utility.yul\":15928:15945   */\n      add\n        /* \"#utility.yul\":15921:15968   */\n      mstore\n        /* \"#utility.yul\":15985:16116   */\n      tag_345\n        /* \"#utility.yul\":16111:16115   */\n      dup2\n        /* \"#utility.yul\":15985:16116   */\n      tag_184\n      jump\t// in\n    tag_345:\n        /* \"#utility.yul\":15977:16116   */\n      swap1\n      pop\n        /* \"#utility.yul\":15704:16123   */\n      swap2\n      swap1\n      pop\n      jump\t// out\n        /* \"#utility.yul\":16129:16350   */\n    tag_185:\n        /* \"#utility.yul\":16269:16303   */\n      0x45434453413a20696e76616c6964207369676e6174757265202773272076616c\n        /* \"#utility.yul\":16265:16266   */\n      0x00\n        /* \"#utility.yul\":16257:16263   */\n      dup3\n        /* \"#utility.yul\":16253:16267   */\n      add\n        /* \"#utility.yul\":16246:16304   */\n      mstore\n        /* \"#utility.yul\":16338:16342   */\n      0x7565000000000000000000000000000000000000000000000000000000000000\n        /* \"#utility.yul\":16333:16335   */\n      0x20\n        /* \"#utility.yul\":16325:16331   */\n      dup3\n        /* \"#utility.yul\":16321:16336   */\n      add\n        /* \"#utility.yul\":16314:16343   */\n      mstore\n        /* \"#utility.yul\":16129:16350   */\n      pop\n      jump\t// out\n        /* \"#utility.yul\":16356:16722   */\n    tag_186:\n        /* \"#utility.yul\":16498:16501   */\n      0x00\n        /* \"#utility.yul\":16519:16586   */\n      tag_348\n        /* \"#utility.yul\":16583:16585   */\n      0x22\n        /* \"#utility.yul\":16578:16581   */\n      dup4\n        /* \"#utility.yul\":16519:16586   */\n      tag_167\n      jump\t// in\n    tag_348:\n        /* \"#utility.yul\":16512:16586   */\n      swap2\n      pop\n        /* \"#utility.yul\":16595:16688   */\n      tag_349\n        /* \"#utility.yul\":16684:16687   */\n      dup3\n        /* \"#utility.yul\":16595:16688   */\n      tag_185\n      jump\t// in\n    tag_349:\n        /* \"#utility.yul\":16713:16715   */\n      0x40\n        /* \"#utility.yul\":16708:16711   */\n      dup3\n        /* \"#utility.yul\":16704:16716   */\n      add\n        /* \"#utility.yul\":16697:16716   */\n      swap1\n      pop\n        /* \"#utility.yul\":16356:16722   */\n      swap2\n      swap1\n      pop\n      jump\t// out\n        /* \"#utility.yul\":16728:17147   */\n    tag_112:\n        /* \"#utility.yul\":16894:16898   */\n      0x00\n        /* \"#utility.yul\":16932:16934   */\n      0x20\n        /* \"#utility.yul\":16921:16930   */\n      dup3\n        /* \"#utility.yul\":16917:16935   */\n      add\n        /* \"#utility.yul\":16909:16935   */\n      swap1\n      pop\n        /* \"#utility.yul\":16981:16990   */\n      dup2\n        /* \"#utility.yul\":16975:16979   */\n      dup2\n        /* \"#utility.yul\":16971:16991   */\n      sub\n        /* \"#utility.yul\":16967:16968   */\n      0x00\n        /* \"#utility.yul\":16956:16965   */\n      dup4\n        /* \"#utility.yul\":16952:16969   */\n      add\n        /* \"#utility.yul\":16945:16992   */\n      mstore\n        /* \"#utility.yul\":17009:17140   */\n      tag_351\n        /* \"#utility.yul\":17135:17139   */\n      dup2\n        /* \"#utility.yul\":17009:17140   */\n      tag_186\n      jump\t// in\n    tag_351:\n        /* \"#utility.yul\":17001:17140   */\n      swap1\n      pop\n        /* \"#utility.yul\":16728:17147   */\n      swap2\n      swap1\n      pop\n      jump\t// out\n        /* \"#utility.yul\":17153:17374   */\n    tag_187:\n        /* \"#utility.yul\":17293:17327   */\n      0x45434453413a20696e76616c6964207369676e6174757265202776272076616c\n        /* \"#utility.yul\":17289:17290   */\n      0x00\n        /* \"#utility.yul\":17281:17287   */\n      dup3\n        /* \"#utility.yul\":17277:17291   */\n      add\n        /* \"#utility.yul\":17270:17328   */\n      mstore\n        /* \"#utility.yul\":17362:17366   */\n      0x7565000000000000000000000000000000000000000000000000000000000000\n        /* \"#utility.yul\":17357:17359   */\n      0x20\n        /* \"#utility.yul\":17349:17355   */\n      dup3\n        /* \"#utility.yul\":17345:17360   */\n      add\n        /* \"#utility.yul\":17338:17367   */\n      mstore\n        /* \"#utility.yul\":17153:17374   */\n      pop\n      jump\t// out\n        /* \"#utility.yul\":17380:17746   */\n    tag_188:\n        /* \"#utility.yul\":17522:17525   */\n      0x00\n        /* \"#utility.yul\":17543:17610   */\n      tag_354\n        /* \"#utility.yul\":17607:17609   */\n      0x22\n        /* \"#utility.yul\":17602:17605   */\n      dup4\n        /* \"#utility.yul\":17543:17610   */\n      tag_167\n      jump\t// in\n    tag_354:\n        /* \"#utility.yul\":17536:17610   */\n      swap2\n      pop\n        /* \"#utility.yul\":17619:17712   */\n      tag_355\n        /* \"#utility.yul\":17708:17711   */\n      dup3\n        /* \"#utility.yul\":17619:17712   */\n      tag_187\n      jump\t// in\n    tag_355:\n        /* \"#utility.yul\":17737:17739   */\n      0x40\n        /* \"#utility.yul\":17732:17735   */\n      dup3\n        /* \"#utility.yul\":17728:17740   */\n      add\n        /* \"#utility.yul\":17721:17740   */\n      swap1\n      pop\n        /* \"#utility.yul\":17380:17746   */\n      swap2\n      swap1\n      pop\n      jump\t// out\n        /* \"#utility.yul\":17752:18171   */\n    tag_120:\n        /* \"#utility.yul\":17918:17922   */\n      0x00\n        /* \"#utility.yul\":17956:17958   */\n      0x20\n        /* \"#utility.yul\":17945:17954   */\n      dup3\n        /* \"#utility.yul\":17941:17959   */\n      add\n        /* \"#utility.yul\":17933:17959   */\n      swap1\n      pop\n        /* \"#utility.yul\":18005:18014   */\n      dup2\n        /* \"#utility.yul\":17999:18003   */\n      dup2\n        /* \"#utility.yul\":17995:18015   */\n      sub\n        /* \"#utility.yul\":17991:17992   */\n      0x00\n        /* \"#utility.yul\":17980:17989   */\n      dup4\n        /* \"#utility.yul\":17976:17993   */\n      add\n        /* \"#utility.yul\":17969:18016   */\n      mstore\n        /* \"#utility.yul\":18033:18164   */\n      tag_357\n        /* \"#utility.yul\":18159:18163   */\n      dup2\n        /* \"#utility.yul\":18033:18164   */\n      tag_188\n      jump\t// in\n    tag_357:\n        /* \"#utility.yul\":18025:18164   */\n      swap1\n      pop\n        /* \"#utility.yul\":17752:18171   */\n      swap2\n      swap1\n      pop\n      jump\t// out\n        /* \"#utility.yul\":18177:18263   */\n    tag_189:\n        /* \"#utility.yul\":18212:18219   */\n      0x00\n        /* \"#utility.yul\":18252:18256   */\n      0xff\n        /* \"#utility.yul\":18245:18250   */\n      dup3\n        /* \"#utility.yul\":18241:18257   */\n      and\n        /* \"#utility.yul\":18230:18257   */\n      swap1\n      pop\n        /* \"#utility.yul\":18177:18263   */\n      swap2\n      swap1\n      pop\n      jump\t// out\n        /* \"#utility.yul\":18269:18381   */\n    tag_190:\n        /* \"#utility.yul\":18352:18374   */\n      tag_360\n        /* \"#utility.yul\":18368:18373   */\n      dup2\n        /* \"#utility.yul\":18352:18374   */\n      tag_189\n      jump\t// in\n    tag_360:\n        /* \"#utility.yul\":18347:18350   */\n      dup3\n        /* \"#utility.yul\":18340:18375   */\n      mstore\n        /* \"#utility.yul\":18269:18381   */\n      pop\n      pop\n      jump\t// out\n        /* \"#utility.yul\":18387:18932   */\n    tag_126:\n        /* \"#utility.yul\":18560:18564   */\n      0x00\n        /* \"#utility.yul\":18598:18601   */\n      0x80\n        /* \"#utility.yul\":18587:18596   */\n      dup3\n        /* \"#utility.yul\":18583:18602   */\n      add\n        /* \"#utility.yul\":18575:18602   */\n      swap1\n      pop\n        /* \"#utility.yul\":18612:18683   */\n      tag_362\n        /* \"#utility.yul\":18680:18681   */\n      0x00\n        /* \"#utility.yul\":18669:18678   */\n      dup4\n        /* \"#utility.yul\":18665:18682   */\n      add\n        /* \"#utility.yul\":18656:18662   */\n      dup8\n        /* \"#utility.yul\":18612:18683   */\n      tag_146\n      jump\t// in\n    tag_362:\n        /* \"#utility.yul\":18693:18761   */\n      tag_363\n        /* \"#utility.yul\":18757:18759   */\n      0x20\n        /* \"#utility.yul\":18746:18755   */\n      dup4\n        /* \"#utility.yul\":18742:18760   */\n      add\n        /* \"#utility.yul\":18733:18739   */\n      dup7\n        /* \"#utility.yul\":18693:18761   */\n      tag_190\n      jump\t// in\n    tag_363:\n        /* \"#utility.yul\":18771:18843   */\n      tag_364\n        /* \"#utility.yul\":18839:18841   */\n      0x40\n        /* \"#utility.yul\":18828:18837   */\n      dup4\n        /* \"#utility.yul\":18824:18842   */\n      add\n        /* \"#utility.yul\":18815:18821   */\n      dup6\n        /* \"#utility.yul\":18771:18843   */\n      tag_146\n      jump\t// in\n    tag_364:\n        /* \"#utility.yul\":18853:18925   */\n      tag_365\n        /* \"#utility.yul\":18921:18923   */\n      0x60\n        /* \"#utility.yul\":18910:18919   */\n      dup4\n        /* \"#utility.yul\":18906:18924   */\n      add\n        /* \"#utility.yul\":18897:18903   */\n      dup5\n        /* \"#utility.yul\":18853:18925   */\n      tag_146\n      jump\t// in\n    tag_365:\n        /* \"#utility.yul\":18387:18932   */\n      swap6\n      swap5\n      pop\n      pop\n      pop\n      pop\n      pop\n      jump\t// out\n        /* \"#utility.yul\":18938:19243   */\n    tag_132:\n        /* \"#utility.yul\":18978:18981   */\n      0x00\n        /* \"#utility.yul\":18997:19017   */\n      tag_367\n        /* \"#utility.yul\":19015:19016   */\n      dup3\n        /* \"#utility.yul\":18997:19017   */\n      tag_137\n      jump\t// in\n    tag_367:\n        /* \"#utility.yul\":18992:19017   */\n      swap2\n      pop\n        /* \"#utility.yul\":19031:19051   */\n      tag_368\n        /* \"#utility.yul\":19049:19050   */\n      dup4\n        /* \"#utility.yul\":19031:19051   */\n      tag_137\n      jump\t// in\n    tag_368:\n        /* \"#utility.yul\":19026:19051   */\n      swap3\n      pop\n        /* \"#utility.yul\":19185:19186   */\n      dup3\n        /* \"#utility.yul\":19117:19183   */\n      0xffffffffffffffffffffffffffffffffffffffffffffffffffffffffffffffff\n        /* \"#utility.yul\":19113:19187   */\n      sub\n        /* \"#utility.yul\":19110:19111   */\n      dup3\n        /* \"#utility.yul\":19107:19188   */\n      gt\n        /* \"#utility.yul\":19104:19211   */\n      iszero\n      tag_369\n      jumpi\n        /* \"#utility.yul\":19191:19209   */\n      tag_370\n      tag_175\n      jump\t// in\n    tag_370:\n        /* \"#utility.yul\":19104:19211   */\n    tag_369:\n        /* \"#utility.yul\":19235:19236   */\n      dup3\n        /* \"#utility.yul\":19232:19233   */\n      dup3\n        /* \"#utility.yul\":19228:19237   */\n      add\n        /* \"#utility.yul\":19221:19237   */\n      swap1\n      pop\n        /* \"#utility.yul\":18938:19243   */\n      swap3\n      swap2\n      pop\n      pop\n      jump\t// out\n\n    auxdata: 0xa2646970667358221220478c78ae2b280e2dd96667ea8b7df687d0ff36f275502c021529d14b8866a94a64736f6c634300080a0033\n}\n",
				"bytecode": {
					"linkReferences": {},
					"object": "60806040526040516200147f3803806200147f8339818101604052810190620000299190620002bc565b8060009060026200003c92919062000044565b5050620002ee565b8260028101928215620000b3579160200282015b82811115620000b25782518260006101000a81548173ffffffffffffffffffffffffffffffffffffffff021916908373ffffffffffffffffffffffffffffffffffffffff1602179055509160200191906001019062000058565b5b509050620000c29190620000c6565b5090565b5b80821115620000e1576000816000905550600101620000c7565b5090565b6000604051905090565b600080fd5b600080fd5b6000601f19601f8301169050919050565b7f4e487b7100000000000000000000000000000000000000000000000000000000600052604160045260246000fd5b6200014482620000f9565b810181811067ffffffffffffffff821117156200016657620001656200010a565b5b80604052505050565b60006200017b620000e5565b905062000189828262000139565b919050565b600067ffffffffffffffff821115620001ac57620001ab6200010a565b5b602082029050919050565b600080fd5b600073ffffffffffffffffffffffffffffffffffffffff82169050919050565b6000620001e982620001bc565b9050919050565b620001fb81620001dc565b81146200020757600080fd5b50565b6000815190506200021b81620001f0565b92915050565b60006200023862000232846200018e565b6200016f565b90508060208402830185811115620002555762000254620001b7565b5b835b818110156200028257806200026d88826200020a565b84526020840193505060208101905062000257565b5050509392505050565b600082601f830112620002a457620002a3620000f4565b5b6002620002b384828562000221565b91505092915050565b600060408284031215620002d557620002d4620000ef565b5b6000620002e5848285016200028c565b91505092915050565b61118180620002fe6000396000f3fe60806040526004361061003f5760003560e01c8063025e7c27146100445780639a4b740b14610081578063d0e30db0146100be578063ffb485b8146100c8575b600080fd5b34801561005057600080fd5b5061006b600480360381019061006691906107ae565b6100f1565b604051610078919061081c565b60405180910390f35b34801561008d57600080fd5b506100a860048036038101906100a39190610863565b610127565b6040516100b591906108bc565b60405180910390f35b6100c661015a565b005b3480156100d457600080fd5b506100ef60048036038101906100ea9190610af1565b61015c565b005b6000816002811061010157600080fd5b016000915054906101000a900473ffffffffffffffffffffffffffffffffffffffff1681565b6000828260405160200161013c929190610bc9565b60405160208183030381529060405280519060200120905092915050565b565b60006101688484610127565b90506101748282610266565b6101b3576040517f08c379a00000000000000000000000000000000000000000000000000000000081526004016101aa90610c52565b60405180910390fd5b60008473ffffffffffffffffffffffffffffffffffffffff16846040516101d990610ca3565b60006040518083038185875af1925050503d8060008114610216576040519150601f19603f3d011682016040523d82523d6000602084013e61021b565b606091505b505090508061025f576040517f08c379a000000000000000000000000000000000000000000000000000000000815260040161025690610d04565b60405180910390fd5b5050505050565b60008061027283610349565b905060005b600281101561033c5760006102ac86836002811061029857610297610d24565b5b60200201518461037990919063ffffffff16565b905060008083600281106102c3576102c2610d24565b5b0160009054906101000a900473ffffffffffffffffffffffffffffffffffffffff1673ffffffffffffffffffffffffffffffffffffffff168273ffffffffffffffffffffffffffffffffffffffff1614905080610327576000945050505050610343565b5050808061033490610d82565b915050610277565b5060019150505b92915050565b60008160405160200161035c9190610e43565b604051602081830303815290604052805190602001209050919050565b600080600061038885856103a0565b9150915061039581610423565b819250505092915050565b6000806041835114156103e25760008060006020860151925060408601519150606086015160001a90506103d6878285856105f8565b9450945050505061041c565b604083511415610413576000806020850151915060408501519050610408868383610705565b93509350505061041c565b60006002915091505b9250929050565b6000600481111561043757610436610e69565b5b81600481111561044a57610449610e69565b5b1415610455576105f5565b6001600481111561046957610468610e69565b5b81600481111561047c5761047b610e69565b5b14156104bd576040517f08c379a00000000000000000000000000000000000000000000000000000000081526004016104b490610ee4565b60405180910390fd5b600260048111156104d1576104d0610e69565b5b8160048111156104e4576104e3610e69565b5b1415610525576040517f08c379a000000000000000000000000000000000000000000000000000000000815260040161051c90610f50565b60405180910390fd5b6003600481111561053957610538610e69565b5b81600481111561054c5761054b610e69565b5b141561058d576040517f08c379a000000000000000000000000000000000000000000000000000000000815260040161058490610fe2565b60405180910390fd5b6004808111156105a05761059f610e69565b5b8160048111156105b3576105b2610e69565b5b14156105f4576040517f08c379a00000000000000000000000000000000000000000000000000000000081526004016105eb90611074565b60405180910390fd5b5b50565b6000807f7fffffffffffffffffffffffffffffff5d576e7357a4501ddfe92f46681b20a08360001c11156106335760006003915091506106fc565b601b8560ff161415801561064b5750601c8560ff1614155b1561065d5760006004915091506106fc565b60006001878787876040516000815260200160405260405161068294939291906110b0565b6020604051602081039080840390855afa1580156106a4573d6000803e3d6000fd5b505050602060405103519050600073ffffffffffffffffffffffffffffffffffffffff168173ffffffffffffffffffffffffffffffffffffffff1614156106f3576000600192509250506106fc565b80600092509250505b94509492505050565b60008060007f7fffffffffffffffffffffffffffffffffffffffffffffffffffffffffffffff60001b841690506000601b60ff8660001c901c61074891906110f5565b9050610756878288856105f8565b935093505050935093915050565b6000604051905090565b600080fd5b600080fd5b6000819050919050565b61078b81610778565b811461079657600080fd5b50565b6000813590506107a881610782565b92915050565b6000602082840312156107c4576107c361076e565b5b60006107d284828501610799565b91505092915050565b600073ffffffffffffffffffffffffffffffffffffffff82169050919050565b6000610806826107db565b9050919050565b610816816107fb565b82525050565b6000602082019050610831600083018461080d565b92915050565b610840816107fb565b811461084b57600080fd5b50565b60008135905061085d81610837565b92915050565b6000806040838503121561087a5761087961076e565b5b60006108888582860161084e565b925050602061089985828601610799565b9150509250929050565b6000819050919050565b6108b6816108a3565b82525050565b60006020820190506108d160008301846108ad565b92915050565b600080fd5b6000601f19601f8301169050919050565b7f4e487b7100000000000000000000000000000000000000000000000000000000600052604160045260246000fd5b610925826108dc565b810181811067ffffffffffffffff82111715610944576109436108ed565b5b80604052505050565b6000610957610764565b9050610963828261091c565b919050565b600067ffffffffffffffff821115610983576109826108ed565b5b602082029050919050565b600080fd5b600080fd5b600067ffffffffffffffff8211156109b3576109b26108ed565b5b6109bc826108dc565b9050602081019050919050565b82818337600083830152505050565b60006109eb6109e684610998565b61094d565b905082815260208101848484011115610a0757610a06610993565b5b610a128482856109c9565b509392505050565b600082601f830112610a2f57610a2e6108d7565b5b8135610a3f8482602086016109d8565b91505092915050565b6000610a5b610a5684610968565b61094d565b90508060208402830185811115610a7557610a7461098e565b5b835b81811015610abc57803567ffffffffffffffff811115610a9a57610a996108d7565b5b808601610aa78982610a1a565b85526020850194505050602081019050610a77565b5050509392505050565b600082601f830112610adb57610ada6108d7565b5b6002610ae8848285610a48565b91505092915050565b600080600060608486031215610b0a57610b0961076e565b5b6000610b188682870161084e565b9350506020610b2986828701610799565b925050604084013567ffffffffffffffff811115610b4a57610b49610773565b5b610b5686828701610ac6565b9150509250925092565b60008160601b9050919050565b6000610b7882610b60565b9050919050565b6000610b8a82610b6d565b9050919050565b610ba2610b9d826107fb565b610b7f565b82525050565b6000819050919050565b610bc3610bbe82610778565b610ba8565b82525050565b6000610bd58285610b91565b601482019150610be58284610bb2565b6020820191508190509392505050565b600082825260208201905092915050565b7f696e76616c696420736967000000000000000000000000000000000000000000600082015250565b6000610c3c600b83610bf5565b9150610c4782610c06565b602082019050919050565b60006020820190508181036000830152610c6b81610c2f565b9050919050565b600081905092915050565b50565b6000610c8d600083610c72565b9150610c9882610c7d565b600082019050919050565b6000610cae82610c80565b9150819050919050565b7f4661696c656420746f2073656e64204574686572000000000000000000000000600082015250565b6000610cee601483610bf5565b9150610cf982610cb8565b602082019050919050565b60006020820190508181036000830152610d1d81610ce1565b9050919050565b7f4e487b7100000000000000000000000000000000000000000000000000000000600052603260045260246000fd5b7f4e487b7100000000000000000000000000000000000000000000000000000000600052601160045260246000fd5b6000610d8d82610778565b91507fffffffffffffffffffffffffffffffffffffffffffffffffffffffffffffffff821415610dc057610dbf610d53565b5b600182019050919050565b600081905092915050565b7f19457468657265756d205369676e6564204d6573736167653a0a333200000000600082015250565b6000610e0c601c83610dcb565b9150610e1782610dd6565b601c82019050919050565b6000819050919050565b610e3d610e38826108a3565b610e22565b82525050565b6000610e4e82610dff565b9150610e5a8284610e2c565b60208201915081905092915050565b7f4e487b7100000000000000000000000000000000000000000000000000000000600052602160045260246000fd5b7f45434453413a20696e76616c6964207369676e61747572650000000000000000600082015250565b6000610ece601883610bf5565b9150610ed982610e98565b602082019050919050565b60006020820190508181036000830152610efd81610ec1565b9050919050565b7f45434453413a20696e76616c6964207369676e6174757265206c656e67746800600082015250565b6000610f3a601f83610bf5565b9150610f4582610f04565b602082019050919050565b60006020820190508181036000830152610f6981610f2d565b9050919050565b7f45434453413a20696e76616c6964207369676e6174757265202773272076616c60008201527f7565000000000000000000000000000000000000000000000000000000000000602082015250565b6000610fcc602283610bf5565b9150610fd782610f70565b604082019050919050565b60006020820190508181036000830152610ffb81610fbf565b9050919050565b7f45434453413a20696e76616c6964207369676e6174757265202776272076616c60008201527f7565000000000000000000000000000000000000000000000000000000000000602082015250565b600061105e602283610bf5565b915061106982611002565b604082019050919050565b6000602082019050818103600083015261108d81611051565b9050919050565b600060ff82169050919050565b6110aa81611094565b82525050565b60006080820190506110c560008301876108ad565b6110d260208301866110a1565b6110df60408301856108ad565b6110ec60608301846108ad565b95945050505050565b600061110082610778565b915061110b83610778565b9250827fffffffffffffffffffffffffffffffffffffffffffffffffffffffffffffffff038211156111405761113f610d53565b5b82820190509291505056fea2646970667358221220478c78ae2b280e2dd96667ea8b7df687d0ff36f275502c021529d14b8866a94a64736f6c634300080a0033",
					"opcodes": "PUSH1 0x80 PUSH1 0x40 MSTORE PUSH1 0x40 MLOAD PUSH3 0x147F CODESIZE SUB DUP1 PUSH3 0x147F DUP4 CODECOPY DUP2 DUP2 ADD PUSH1 0x40 MSTORE DUP2 ADD SWAP1 PUSH3 0x29 SWAP2 SWAP1 PUSH3 0x2BC JUMP JUMPDEST DUP1 PUSH1 0x0 SWAP1 PUSH1 0x2 PUSH3 0x3C SWAP3 SWAP2 SWAP1 PUSH3 0x44 JUMP JUMPDEST POP POP PUSH3 0x2EE JUMP JUMPDEST DUP3 PUSH1 0x2 DUP2 ADD SWAP3 DUP3 ISZERO PUSH3 0xB3 JUMPI SWAP2 PUSH1 0x20 MUL DUP3 ADD JUMPDEST DUP3 DUP2 GT ISZERO PUSH3 0xB2 JUMPI DUP3 MLOAD DUP3 PUSH1 0x0 PUSH2 0x100 EXP DUP2 SLOAD DUP2 PUSH20 0xFFFFFFFFFFFFFFFFFFFFFFFFFFFFFFFFFFFFFFFF MUL NOT AND SWAP1 DUP4 PUSH20 0xFFFFFFFFFFFFFFFFFFFFFFFFFFFFFFFFFFFFFFFF AND MUL OR SWAP1 SSTORE POP SWAP2 PUSH1 0x20 ADD SWAP2 SWAP1 PUSH1 0x1 ADD SWAP1 PUSH3 0x58 JUMP JUMPDEST JUMPDEST POP SWAP1 POP PUSH3 0xC2 SWAP2 SWAP1 PUSH3 0xC6 JUMP JUMPDEST POP SWAP1 JUMP JUMPDEST JUMPDEST DUP1 DUP3 GT ISZERO PUSH3 0xE1 JUMPI PUSH1 0x0 DUP2 PUSH1 0x0 SWAP1 SSTORE POP PUSH1 0x1 ADD PUSH3 0xC7 JUMP JUMPDEST POP SWAP1 JUMP JUMPDEST PUSH1 0x0 PUSH1 0x40 MLOAD SWAP1 POP SWAP1 JUMP JUMPDEST PUSH1 0x0 DUP1 REVERT JUMPDEST PUSH1 0x0 DUP1 REVERT JUMPDEST PUSH1 0x0 PUSH1 0x1F NOT PUSH1 0x1F DUP4 ADD AND SWAP1 POP SWAP2 SWAP1 POP JUMP JUMPDEST PUSH32 0x4E487B7100000000000000000000000000000000000000000000000000000000 PUSH1 0x0 MSTORE PUSH1 0x41 PUSH1 0x4 MSTORE PUSH1 0x24 PUSH1 0x0 REVERT JUMPDEST PUSH3 0x144 DUP3 PUSH3 0xF9 JUMP JUMPDEST DUP2 ADD DUP2 DUP2 LT PUSH8 0xFFFFFFFFFFFFFFFF DUP3 GT OR ISZERO PUSH3 0x166 JUMPI PUSH3 0x165 PUSH3 0x10A JUMP JUMPDEST JUMPDEST DUP1 PUSH1 0x40 MSTORE POP POP POP JUMP JUMPDEST PUSH1 0x0 PUSH3 0x17B PUSH3 0xE5 JUMP JUMPDEST SWAP1 POP PUSH3 0x189 DUP3 DUP3 PUSH3 0x139 JUMP JUMPDEST SWAP2 SWAP1 POP JUMP JUMPDEST PUSH1 0x0 PUSH8 0xFFFFFFFFFFFFFFFF DUP3 GT ISZERO PUSH3 0x1AC JUMPI PUSH3 0x1AB PUSH3 0x10A JUMP JUMPDEST JUMPDEST PUSH1 0x20 DUP3 MUL SWAP1 POP SWAP2 SWAP1 POP JUMP JUMPDEST PUSH1 0x0 DUP1 REVERT JUMPDEST PUSH1 0x0 PUSH20 0xFFFFFFFFFFFFFFFFFFFFFFFFFFFFFFFFFFFFFFFF DUP3 AND SWAP1 POP SWAP2 SWAP1 POP JUMP JUMPDEST PUSH1 0x0 PUSH3 0x1E9 DUP3 PUSH3 0x1BC JUMP JUMPDEST SWAP1 POP SWAP2 SWAP1 POP JUMP JUMPDEST PUSH3 0x1FB DUP2 PUSH3 0x1DC JUMP JUMPDEST DUP2 EQ PUSH3 0x207 JUMPI PUSH1 0x0 DUP1 REVERT JUMPDEST POP JUMP JUMPDEST PUSH1 0x0 DUP2 MLOAD SWAP1 POP PUSH3 0x21B DUP2 PUSH3 0x1F0 JUMP JUMPDEST SWAP3 SWAP2 POP POP JUMP JUMPDEST PUSH1 0x0 PUSH3 0x238 PUSH3 0x232 DUP5 PUSH3 0x18E JUMP JUMPDEST PUSH3 0x16F JUMP JUMPDEST SWAP1 POP DUP1 PUSH1 0x20 DUP5 MUL DUP4 ADD DUP6 DUP2 GT ISZERO PUSH3 0x255 JUMPI PUSH3 0x254 PUSH3 0x1B7 JUMP JUMPDEST JUMPDEST DUP4 JUMPDEST DUP2 DUP2 LT ISZERO PUSH3 0x282 JUMPI DUP1 PUSH3 0x26D DUP9 DUP3 PUSH3 0x20A JUMP JUMPDEST DUP5 MSTORE PUSH1 0x20 DUP5 ADD SWAP4 POP POP PUSH1 0x20 DUP2 ADD SWAP1 POP PUSH3 0x257 JUMP JUMPDEST POP POP POP SWAP4 SWAP3 POP POP POP JUMP JUMPDEST PUSH1 0x0 DUP3 PUSH1 0x1F DUP4 ADD SLT PUSH3 0x2A4 JUMPI PUSH3 0x2A3 PUSH3 0xF4 JUMP JUMPDEST JUMPDEST PUSH1 0x2 PUSH3 0x2B3 DUP5 DUP3 DUP6 PUSH3 0x221 JUMP JUMPDEST SWAP2 POP POP SWAP3 SWAP2 POP POP JUMP JUMPDEST PUSH1 0x0 PUSH1 0x40 DUP3 DUP5 SUB SLT ISZERO PUSH3 0x2D5 JUMPI PUSH3 0x2D4 PUSH3 0xEF JUMP JUMPDEST JUMPDEST PUSH1 0x0 PUSH3 0x2E5 DUP5 DUP3 DUP6 ADD PUSH3 0x28C JUMP JUMPDEST SWAP2 POP POP SWAP3 SWAP2 POP POP JUMP JUMPDEST PUSH2 0x1181 DUP1 PUSH3 0x2FE PUSH1 0x0 CODECOPY PUSH1 0x0 RETURN INVALID PUSH1 0x80 PUSH1 0x40 MSTORE PUSH1 0x4 CALLDATASIZE LT PUSH2 0x3F JUMPI PUSH1 0x0 CALLDATALOAD PUSH1 0xE0 SHR DUP1 PUSH4 0x25E7C27 EQ PUSH2 0x44 JUMPI DUP1 PUSH4 0x9A4B740B EQ PUSH2 0x81 JUMPI DUP1 PUSH4 0xD0E30DB0 EQ PUSH2 0xBE JUMPI DUP1 PUSH4 0xFFB485B8 EQ PUSH2 0xC8 JUMPI JUMPDEST PUSH1 0x0 DUP1 REVERT JUMPDEST CALLVALUE DUP1 ISZERO PUSH2 0x50 JUMPI PUSH1 0x0 DUP1 REVERT JUMPDEST POP PUSH2 0x6B PUSH1 0x4 DUP1 CALLDATASIZE SUB DUP2 ADD SWAP1 PUSH2 0x66 SWAP2 SWAP1 PUSH2 0x7AE JUMP JUMPDEST PUSH2 0xF1 JUMP JUMPDEST PUSH1 0x40 MLOAD PUSH2 0x78 SWAP2 SWAP1 PUSH2 0x81C JUMP JUMPDEST PUSH1 0x40 MLOAD DUP1 SWAP2 SUB SWAP1 RETURN JUMPDEST CALLVALUE DUP1 ISZERO PUSH2 0x8D JUMPI PUSH1 0x0 DUP1 REVERT JUMPDEST POP PUSH2 0xA8 PUSH1 0x4 DUP1 CALLDATASIZE SUB DUP2 ADD SWAP1 PUSH2 0xA3 SWAP2 SWAP1 PUSH2 0x863 JUMP JUMPDEST PUSH2 0x127 JUMP JUMPDEST PUSH1 0x40 MLOAD PUSH2 0xB5 SWAP2 SWAP1 PUSH2 0x8BC JUMP JUMPDEST PUSH1 0x40 MLOAD DUP1 SWAP2 SUB SWAP1 RETURN JUMPDEST PUSH2 0xC6 PUSH2 0x15A JUMP JUMPDEST STOP JUMPDEST CALLVALUE DUP1 ISZERO PUSH2 0xD4 JUMPI PUSH1 0x0 DUP1 REVERT JUMPDEST POP PUSH2 0xEF PUSH1 0x4 DUP1 CALLDATASIZE SUB DUP2 ADD SWAP1 PUSH2 0xEA SWAP2 SWAP1 PUSH2 0xAF1 JUMP JUMPDEST PUSH2 0x15C JUMP JUMPDEST STOP JUMPDEST PUSH1 0x0 DUP2 PUSH1 0x2 DUP2 LT PUSH2 0x101 JUMPI PUSH1 0x0 DUP1 REVERT JUMPDEST ADD PUSH1 0x0 SWAP2 POP SLOAD SWAP1 PUSH2 0x100 EXP SWAP1 DIV PUSH20 0xFFFFFFFFFFFFFFFFFFFFFFFFFFFFFFFFFFFFFFFF AND DUP2 JUMP JUMPDEST PUSH1 0x0 DUP3 DUP3 PUSH1 0x40 MLOAD PUSH1 0x20 ADD PUSH2 0x13C SWAP3 SWAP2 SWAP1 PUSH2 0xBC9 JUMP JUMPDEST PUSH1 0x40 MLOAD PUSH1 0x20 DUP2 DUP4 SUB SUB DUP2 MSTORE SWAP1 PUSH1 0x40 MSTORE DUP1 MLOAD SWAP1 PUSH1 0x20 ADD KECCAK256 SWAP1 POP SWAP3 SWAP2 POP POP JUMP JUMPDEST JUMP JUMPDEST PUSH1 0x0 PUSH2 0x168 DUP5 DUP5 PUSH2 0x127 JUMP JUMPDEST SWAP1 POP PUSH2 0x174 DUP3 DUP3 PUSH2 0x266 JUMP JUMPDEST PUSH2 0x1B3 JUMPI PUSH1 0x40 MLOAD PUSH32 0x8C379A000000000000000000000000000000000000000000000000000000000 DUP2 MSTORE PUSH1 0x4 ADD PUSH2 0x1AA SWAP1 PUSH2 0xC52 JUMP JUMPDEST PUSH1 0x40 MLOAD DUP1 SWAP2 SUB SWAP1 REVERT JUMPDEST PUSH1 0x0 DUP5 PUSH20 0xFFFFFFFFFFFFFFFFFFFFFFFFFFFFFFFFFFFFFFFF AND DUP5 PUSH1 0x40 MLOAD PUSH2 0x1D9 SWAP1 PUSH2 0xCA3 JUMP JUMPDEST PUSH1 0x0 PUSH1 0x40 MLOAD DUP1 DUP4 SUB DUP2 DUP6 DUP8 GAS CALL SWAP3 POP POP POP RETURNDATASIZE DUP1 PUSH1 0x0 DUP2 EQ PUSH2 0x216 JUMPI PUSH1 0x40 MLOAD SWAP2 POP PUSH1 0x1F NOT PUSH1 0x3F RETURNDATASIZE ADD AND DUP3 ADD PUSH1 0x40 MSTORE RETURNDATASIZE DUP3 MSTORE RETURNDATASIZE PUSH1 0x0 PUSH1 0x20 DUP5 ADD RETURNDATACOPY PUSH2 0x21B JUMP JUMPDEST PUSH1 0x60 SWAP2 POP JUMPDEST POP POP SWAP1 POP DUP1 PUSH2 0x25F JUMPI PUSH1 0x40 MLOAD PUSH32 0x8C379A000000000000000000000000000000000000000000000000000000000 DUP2 MSTORE PUSH1 0x4 ADD PUSH2 0x256 SWAP1 PUSH2 0xD04 JUMP JUMPDEST PUSH1 0x40 MLOAD DUP1 SWAP2 SUB SWAP1 REVERT JUMPDEST POP POP POP POP POP JUMP JUMPDEST PUSH1 0x0 DUP1 PUSH2 0x272 DUP4 PUSH2 0x349 JUMP JUMPDEST SWAP1 POP PUSH1 0x0 JUMPDEST PUSH1 0x2 DUP2 LT ISZERO PUSH2 0x33C JUMPI PUSH1 0x0 PUSH2 0x2AC DUP7 DUP4 PUSH1 0x2 DUP2 LT PUSH2 0x298 JUMPI PUSH2 0x297 PUSH2 0xD24 JUMP JUMPDEST JUMPDEST PUSH1 0x20 MUL ADD MLOAD DUP5 PUSH2 0x379 SWAP1 SWAP2 SWAP1 PUSH4 0xFFFFFFFF AND JUMP JUMPDEST SWAP1 POP PUSH1 0x0 DUP1 DUP4 PUSH1 0x2 DUP2 LT PUSH2 0x2C3 JUMPI PUSH2 0x2C2 PUSH2 0xD24 JUMP JUMPDEST JUMPDEST ADD PUSH1 0x0 SWAP1 SLOAD SWAP1 PUSH2 0x100 EXP SWAP1 DIV PUSH20 0xFFFFFFFFFFFFFFFFFFFFFFFFFFFFFFFFFFFFFFFF AND PUSH20 0xFFFFFFFFFFFFFFFFFFFFFFFFFFFFFFFFFFFFFFFF AND DUP3 PUSH20 0xFFFFFFFFFFFFFFFFFFFFFFFFFFFFFFFFFFFFFFFF AND EQ SWAP1 POP DUP1 PUSH2 0x327 JUMPI PUSH1 0x0 SWAP5 POP POP POP POP POP PUSH2 0x343 JUMP JUMPDEST POP POP DUP1 DUP1 PUSH2 0x334 SWAP1 PUSH2 0xD82 JUMP JUMPDEST SWAP2 POP POP PUSH2 0x277 JUMP JUMPDEST POP PUSH1 0x1 SWAP2 POP POP JUMPDEST SWAP3 SWAP2 POP POP JUMP JUMPDEST PUSH1 0x0 DUP2 PUSH1 0x40 MLOAD PUSH1 0x20 ADD PUSH2 0x35C SWAP2 SWAP1 PUSH2 0xE43 JUMP JUMPDEST PUSH1 0x40 MLOAD PUSH1 0x20 DUP2 DUP4 SUB SUB DUP2 MSTORE SWAP1 PUSH1 0x40 MSTORE DUP1 MLOAD SWAP1 PUSH1 0x20 ADD KECCAK256 SWAP1 POP SWAP2 SWAP1 POP JUMP JUMPDEST PUSH1 0x0 DUP1 PUSH1 0x0 PUSH2 0x388 DUP6 DUP6 PUSH2 0x3A0 JUMP JUMPDEST SWAP2 POP SWAP2 POP PUSH2 0x395 DUP2 PUSH2 0x423 JUMP JUMPDEST DUP2 SWAP3 POP POP POP SWAP3 SWAP2 POP POP JUMP JUMPDEST PUSH1 0x0 DUP1 PUSH1 0x41 DUP4 MLOAD EQ ISZERO PUSH2 0x3E2 JUMPI PUSH1 0x0 DUP1 PUSH1 0x0 PUSH1 0x20 DUP7 ADD MLOAD SWAP3 POP PUSH1 0x40 DUP7 ADD MLOAD SWAP2 POP PUSH1 0x60 DUP7 ADD MLOAD PUSH1 0x0 BYTE SWAP1 POP PUSH2 0x3D6 DUP8 DUP3 DUP6 DUP6 PUSH2 0x5F8 JUMP JUMPDEST SWAP5 POP SWAP5 POP POP POP POP PUSH2 0x41C JUMP JUMPDEST PUSH1 0x40 DUP4 MLOAD EQ ISZERO PUSH2 0x413 JUMPI PUSH1 0x0 DUP1 PUSH1 0x20 DUP6 ADD MLOAD SWAP2 POP PUSH1 0x40 DUP6 ADD MLOAD SWAP1 POP PUSH2 0x408 DUP7 DUP4 DUP4 PUSH2 0x705 JUMP JUMPDEST SWAP4 POP SWAP4 POP POP POP PUSH2 0x41C JUMP JUMPDEST PUSH1 0x0 PUSH1 0x2 SWAP2 POP SWAP2 POP JUMPDEST SWAP3 POP SWAP3 SWAP1 POP JUMP JUMPDEST PUSH1 0x0 PUSH1 0x4 DUP2 GT ISZERO PUSH2 0x437 JUMPI PUSH2 0x436 PUSH2 0xE69 JUMP JUMPDEST JUMPDEST DUP2 PUSH1 0x4 DUP2 GT ISZERO PUSH2 0x44A JUMPI PUSH2 0x449 PUSH2 0xE69 JUMP JUMPDEST JUMPDEST EQ ISZERO PUSH2 0x455 JUMPI PUSH2 0x5F5 JUMP JUMPDEST PUSH1 0x1 PUSH1 0x4 DUP2 GT ISZERO PUSH2 0x469 JUMPI PUSH2 0x468 PUSH2 0xE69 JUMP JUMPDEST JUMPDEST DUP2 PUSH1 0x4 DUP2 GT ISZERO PUSH2 0x47C JUMPI PUSH2 0x47B PUSH2 0xE69 JUMP JUMPDEST JUMPDEST EQ ISZERO PUSH2 0x4BD JUMPI PUSH1 0x40 MLOAD PUSH32 0x8C379A000000000000000000000000000000000000000000000000000000000 DUP2 MSTORE PUSH1 0x4 ADD PUSH2 0x4B4 SWAP1 PUSH2 0xEE4 JUMP JUMPDEST PUSH1 0x40 MLOAD DUP1 SWAP2 SUB SWAP1 REVERT JUMPDEST PUSH1 0x2 PUSH1 0x4 DUP2 GT ISZERO PUSH2 0x4D1 JUMPI PUSH2 0x4D0 PUSH2 0xE69 JUMP JUMPDEST JUMPDEST DUP2 PUSH1 0x4 DUP2 GT ISZERO PUSH2 0x4E4 JUMPI PUSH2 0x4E3 PUSH2 0xE69 JUMP JUMPDEST JUMPDEST EQ ISZERO PUSH2 0x525 JUMPI PUSH1 0x40 MLOAD PUSH32 0x8C379A000000000000000000000000000000000000000000000000000000000 DUP2 MSTORE PUSH1 0x4 ADD PUSH2 0x51C SWAP1 PUSH2 0xF50 JUMP JUMPDEST PUSH1 0x40 MLOAD DUP1 SWAP2 SUB SWAP1 REVERT JUMPDEST PUSH1 0x3 PUSH1 0x4 DUP2 GT ISZERO PUSH2 0x539 JUMPI PUSH2 0x538 PUSH2 0xE69 JUMP JUMPDEST JUMPDEST DUP2 PUSH1 0x4 DUP2 GT ISZERO PUSH2 0x54C JUMPI PUSH2 0x54B PUSH2 0xE69 JUMP JUMPDEST JUMPDEST EQ ISZERO PUSH2 0x58D JUMPI PUSH1 0x40 MLOAD PUSH32 0x8C379A000000000000000000000000000000000000000000000000000000000 DUP2 MSTORE PUSH1 0x4 ADD PUSH2 0x584 SWAP1 PUSH2 0xFE2 JUMP JUMPDEST PUSH1 0x40 MLOAD DUP1 SWAP2 SUB SWAP1 REVERT JUMPDEST PUSH1 0x4 DUP1 DUP2 GT ISZERO PUSH2 0x5A0 JUMPI PUSH2 0x59F PUSH2 0xE69 JUMP JUMPDEST JUMPDEST DUP2 PUSH1 0x4 DUP2 GT ISZERO PUSH2 0x5B3 JUMPI PUSH2 0x5B2 PUSH2 0xE69 JUMP JUMPDEST JUMPDEST EQ ISZERO PUSH2 0x5F4 JUMPI PUSH1 0x40 MLOAD PUSH32 0x8C379A000000000000000000000000000000000000000000000000000000000 DUP2 MSTORE PUSH1 0x4 ADD PUSH2 0x5EB SWAP1 PUSH2 0x1074 JUMP JUMPDEST PUSH1 0x40 MLOAD DUP1 SWAP2 SUB SWAP1 REVERT JUMPDEST JUMPDEST POP JUMP JUMPDEST PUSH1 0x0 DUP1 PUSH32 0x7FFFFFFFFFFFFFFFFFFFFFFFFFFFFFFF5D576E7357A4501DDFE92F46681B20A0 DUP4 PUSH1 0x0 SHR GT ISZERO PUSH2 0x633 JUMPI PUSH1 0x0 PUSH1 0x3 SWAP2 POP SWAP2 POP PUSH2 0x6FC JUMP JUMPDEST PUSH1 0x1B DUP6 PUSH1 0xFF AND EQ ISZERO DUP1 ISZERO PUSH2 0x64B JUMPI POP PUSH1 0x1C DUP6 PUSH1 0xFF AND EQ ISZERO JUMPDEST ISZERO PUSH2 0x65D JUMPI PUSH1 0x0 PUSH1 0x4 SWAP2 POP SWAP2 POP PUSH2 0x6FC JUMP JUMPDEST PUSH1 0x0 PUSH1 0x1 DUP8 DUP8 DUP8 DUP8 PUSH1 0x40 MLOAD PUSH1 0x0 DUP2 MSTORE PUSH1 0x20 ADD PUSH1 0x40 MSTORE PUSH1 0x40 MLOAD PUSH2 0x682 SWAP5 SWAP4 SWAP3 SWAP2 SWAP1 PUSH2 0x10B0 JUMP JUMPDEST PUSH1 0x20 PUSH1 0x40 MLOAD PUSH1 0x20 DUP2 SUB SWAP1 DUP1 DUP5 SUB SWAP1 DUP6 GAS STATICCALL ISZERO DUP1 ISZERO PUSH2 0x6A4 JUMPI RETURNDATASIZE PUSH1 0x0 DUP1 RETURNDATACOPY RETURNDATASIZE PUSH1 0x0 REVERT JUMPDEST POP POP POP PUSH1 0x20 PUSH1 0x40 MLOAD SUB MLOAD SWAP1 POP PUSH1 0x0 PUSH20 0xFFFFFFFFFFFFFFFFFFFFFFFFFFFFFFFFFFFFFFFF AND DUP2 PUSH20 0xFFFFFFFFFFFFFFFFFFFFFFFFFFFFFFFFFFFFFFFF AND EQ ISZERO PUSH2 0x6F3 JUMPI PUSH1 0x0 PUSH1 0x1 SWAP3 POP SWAP3 POP POP PUSH2 0x6FC JUMP JUMPDEST DUP1 PUSH1 0x0 SWAP3 POP SWAP3 POP POP JUMPDEST SWAP5 POP SWAP5 SWAP3 POP POP POP JUMP JUMPDEST PUSH1 0x0 DUP1 PUSH1 0x0 PUSH32 0x7FFFFFFFFFFFFFFFFFFFFFFFFFFFFFFFFFFFFFFFFFFFFFFFFFFFFFFFFFFFFFFF PUSH1 0x0 SHL DUP5 AND SWAP1 POP PUSH1 0x0 PUSH1 0x1B PUSH1 0xFF DUP7 PUSH1 0x0 SHR SWAP1 SHR PUSH2 0x748 SWAP2 SWAP1 PUSH2 0x10F5 JUMP JUMPDEST SWAP1 POP PUSH2 0x756 DUP8 DUP3 DUP9 DUP6 PUSH2 0x5F8 JUMP JUMPDEST SWAP4 POP SWAP4 POP POP POP SWAP4 POP SWAP4 SWAP2 POP POP JUMP JUMPDEST PUSH1 0x0 PUSH1 0x40 MLOAD SWAP1 POP SWAP1 JUMP JUMPDEST PUSH1 0x0 DUP1 REVERT JUMPDEST PUSH1 0x0 DUP1 REVERT JUMPDEST PUSH1 0x0 DUP2 SWAP1 POP SWAP2 SWAP1 POP JUMP JUMPDEST PUSH2 0x78B DUP2 PUSH2 0x778 JUMP JUMPDEST DUP2 EQ PUSH2 0x796 JUMPI PUSH1 0x0 DUP1 REVERT JUMPDEST POP JUMP JUMPDEST PUSH1 0x0 DUP2 CALLDATALOAD SWAP1 POP PUSH2 0x7A8 DUP2 PUSH2 0x782 JUMP JUMPDEST SWAP3 SWAP2 POP POP JUMP JUMPDEST PUSH1 0x0 PUSH1 0x20 DUP3 DUP5 SUB SLT ISZERO PUSH2 0x7C4 JUMPI PUSH2 0x7C3 PUSH2 0x76E JUMP JUMPDEST JUMPDEST PUSH1 0x0 PUSH2 0x7D2 DUP5 DUP3 DUP6 ADD PUSH2 0x799 JUMP JUMPDEST SWAP2 POP POP SWAP3 SWAP2 POP POP JUMP JUMPDEST PUSH1 0x0 PUSH20 0xFFFFFFFFFFFFFFFFFFFFFFFFFFFFFFFFFFFFFFFF DUP3 AND SWAP1 POP SWAP2 SWAP1 POP JUMP JUMPDEST PUSH1 0x0 PUSH2 0x806 DUP3 PUSH2 0x7DB JUMP JUMPDEST SWAP1 POP SWAP2 SWAP1 POP JUMP JUMPDEST PUSH2 0x816 DUP2 PUSH2 0x7FB JUMP JUMPDEST DUP3 MSTORE POP POP JUMP JUMPDEST PUSH1 0x0 PUSH1 0x20 DUP3 ADD SWAP1 POP PUSH2 0x831 PUSH1 0x0 DUP4 ADD DUP5 PUSH2 0x80D JUMP JUMPDEST SWAP3 SWAP2 POP POP JUMP JUMPDEST PUSH2 0x840 DUP2 PUSH2 0x7FB JUMP JUMPDEST DUP2 EQ PUSH2 0x84B JUMPI PUSH1 0x0 DUP1 REVERT JUMPDEST POP JUMP JUMPDEST PUSH1 0x0 DUP2 CALLDATALOAD SWAP1 POP PUSH2 0x85D DUP2 PUSH2 0x837 JUMP JUMPDEST SWAP3 SWAP2 POP POP JUMP JUMPDEST PUSH1 0x0 DUP1 PUSH1 0x40 DUP4 DUP6 SUB SLT ISZERO PUSH2 0x87A JUMPI PUSH2 0x879 PUSH2 0x76E JUMP JUMPDEST JUMPDEST PUSH1 0x0 PUSH2 0x888 DUP6 DUP3 DUP7 ADD PUSH2 0x84E JUMP JUMPDEST SWAP3 POP POP PUSH1 0x20 PUSH2 0x899 DUP6 DUP3 DUP7 ADD PUSH2 0x799 JUMP JUMPDEST SWAP2 POP POP SWAP3 POP SWAP3 SWAP1 POP JUMP JUMPDEST PUSH1 0x0 DUP2 SWAP1 POP SWAP2 SWAP1 POP JUMP JUMPDEST PUSH2 0x8B6 DUP2 PUSH2 0x8A3 JUMP JUMPDEST DUP3 MSTORE POP POP JUMP JUMPDEST PUSH1 0x0 PUSH1 0x20 DUP3 ADD SWAP1 POP PUSH2 0x8D1 PUSH1 0x0 DUP4 ADD DUP5 PUSH2 0x8AD JUMP JUMPDEST SWAP3 SWAP2 POP POP JUMP JUMPDEST PUSH1 0x0 DUP1 REVERT JUMPDEST PUSH1 0x0 PUSH1 0x1F NOT PUSH1 0x1F DUP4 ADD AND SWAP1 POP SWAP2 SWAP1 POP JUMP JUMPDEST PUSH32 0x4E487B7100000000000000000000000000000000000000000000000000000000 PUSH1 0x0 MSTORE PUSH1 0x41 PUSH1 0x4 MSTORE PUSH1 0x24 PUSH1 0x0 REVERT JUMPDEST PUSH2 0x925 DUP3 PUSH2 0x8DC JUMP JUMPDEST DUP2 ADD DUP2 DUP2 LT PUSH8 0xFFFFFFFFFFFFFFFF DUP3 GT OR ISZERO PUSH2 0x944 JUMPI PUSH2 0x943 PUSH2 0x8ED JUMP JUMPDEST JUMPDEST DUP1 PUSH1 0x40 MSTORE POP POP POP JUMP JUMPDEST PUSH1 0x0 PUSH2 0x957 PUSH2 0x764 JUMP JUMPDEST SWAP1 POP PUSH2 0x963 DUP3 DUP3 PUSH2 0x91C JUMP JUMPDEST SWAP2 SWAP1 POP JUMP JUMPDEST PUSH1 0x0 PUSH8 0xFFFFFFFFFFFFFFFF DUP3 GT ISZERO PUSH2 0x983 JUMPI PUSH2 0x982 PUSH2 0x8ED JUMP JUMPDEST JUMPDEST PUSH1 0x20 DUP3 MUL SWAP1 POP SWAP2 SWAP1 POP JUMP JUMPDEST PUSH1 0x0 DUP1 REVERT JUMPDEST PUSH1 0x0 DUP1 REVERT JUMPDEST PUSH1 0x0 PUSH8 0xFFFFFFFFFFFFFFFF DUP3 GT ISZERO PUSH2 0x9B3 JUMPI PUSH2 0x9B2 PUSH2 0x8ED JUMP JUMPDEST JUMPDEST PUSH2 0x9BC DUP3 PUSH2 0x8DC JUMP JUMPDEST SWAP1 POP PUSH1 0x20 DUP2 ADD SWAP1 POP SWAP2 SWAP1 POP JUMP JUMPDEST DUP3 DUP2 DUP4 CALLDATACOPY PUSH1 0x0 DUP4 DUP4 ADD MSTORE POP POP POP JUMP JUMPDEST PUSH1 0x0 PUSH2 0x9EB PUSH2 0x9E6 DUP5 PUSH2 0x998 JUMP JUMPDEST PUSH2 0x94D JUMP JUMPDEST SWAP1 POP DUP3 DUP2 MSTORE PUSH1 0x20 DUP2 ADD DUP5 DUP5 DUP5 ADD GT ISZERO PUSH2 0xA07 JUMPI PUSH2 0xA06 PUSH2 0x993 JUMP JUMPDEST JUMPDEST PUSH2 0xA12 DUP5 DUP3 DUP6 PUSH2 0x9C9 JUMP JUMPDEST POP SWAP4 SWAP3 POP POP POP JUMP JUMPDEST PUSH1 0x0 DUP3 PUSH1 0x1F DUP4 ADD SLT PUSH2 0xA2F JUMPI PUSH2 0xA2E PUSH2 0x8D7 JUMP JUMPDEST JUMPDEST DUP2 CALLDATALOAD PUSH2 0xA3F DUP5 DUP3 PUSH1 0x20 DUP7 ADD PUSH2 0x9D8 JUMP JUMPDEST SWAP2 POP POP SWAP3 SWAP2 POP POP JUMP JUMPDEST PUSH1 0x0 PUSH2 0xA5B PUSH2 0xA56 DUP5 PUSH2 0x968 JUMP JUMPDEST PUSH2 0x94D JUMP JUMPDEST SWAP1 POP DUP1 PUSH1 0x20 DUP5 MUL DUP4 ADD DUP6 DUP2 GT ISZERO PUSH2 0xA75 JUMPI PUSH2 0xA74 PUSH2 0x98E JUMP JUMPDEST JUMPDEST DUP4 JUMPDEST DUP2 DUP2 LT ISZERO PUSH2 0xABC JUMPI DUP1 CALLDATALOAD PUSH8 0xFFFFFFFFFFFFFFFF DUP2 GT ISZERO PUSH2 0xA9A JUMPI PUSH2 0xA99 PUSH2 0x8D7 JUMP JUMPDEST JUMPDEST DUP1 DUP7 ADD PUSH2 0xAA7 DUP10 DUP3 PUSH2 0xA1A JUMP JUMPDEST DUP6 MSTORE PUSH1 0x20 DUP6 ADD SWAP5 POP POP POP PUSH1 0x20 DUP2 ADD SWAP1 POP PUSH2 0xA77 JUMP JUMPDEST POP POP POP SWAP4 SWAP3 POP POP POP JUMP JUMPDEST PUSH1 0x0 DUP3 PUSH1 0x1F DUP4 ADD SLT PUSH2 0xADB JUMPI PUSH2 0xADA PUSH2 0x8D7 JUMP JUMPDEST JUMPDEST PUSH1 0x2 PUSH2 0xAE8 DUP5 DUP3 DUP6 PUSH2 0xA48 JUMP JUMPDEST SWAP2 POP POP SWAP3 SWAP2 POP POP JUMP JUMPDEST PUSH1 0x0 DUP1 PUSH1 0x0 PUSH1 0x60 DUP5 DUP7 SUB SLT ISZERO PUSH2 0xB0A JUMPI PUSH2 0xB09 PUSH2 0x76E JUMP JUMPDEST JUMPDEST PUSH1 0x0 PUSH2 0xB18 DUP7 DUP3 DUP8 ADD PUSH2 0x84E JUMP JUMPDEST SWAP4 POP POP PUSH1 0x20 PUSH2 0xB29 DUP7 DUP3 DUP8 ADD PUSH2 0x799 JUMP JUMPDEST SWAP3 POP POP PUSH1 0x40 DUP5 ADD CALLDATALOAD PUSH8 0xFFFFFFFFFFFFFFFF DUP2 GT ISZERO PUSH2 0xB4A JUMPI PUSH2 0xB49 PUSH2 0x773 JUMP JUMPDEST JUMPDEST PUSH2 0xB56 DUP7 DUP3 DUP8 ADD PUSH2 0xAC6 JUMP JUMPDEST SWAP2 POP POP SWAP3 POP SWAP3 POP SWAP3 JUMP JUMPDEST PUSH1 0x0 DUP2 PUSH1 0x60 SHL SWAP1 POP SWAP2 SWAP1 POP JUMP JUMPDEST PUSH1 0x0 PUSH2 0xB78 DUP3 PUSH2 0xB60 JUMP JUMPDEST SWAP1 POP SWAP2 SWAP1 POP JUMP JUMPDEST PUSH1 0x0 PUSH2 0xB8A DUP3 PUSH2 0xB6D JUMP JUMPDEST SWAP1 POP SWAP2 SWAP1 POP JUMP JUMPDEST PUSH2 0xBA2 PUSH2 0xB9D DUP3 PUSH2 0x7FB JUMP JUMPDEST PUSH2 0xB7F JUMP JUMPDEST DUP3 MSTORE POP POP JUMP JUMPDEST PUSH1 0x0 DUP2 SWAP1 POP SWAP2 SWAP1 POP JUMP JUMPDEST PUSH2 0xBC3 PUSH2 0xBBE DUP3 PUSH2 0x778 JUMP JUMPDEST PUSH2 0xBA8 JUMP JUMPDEST DUP3 MSTORE POP POP JUMP JUMPDEST PUSH1 0x0 PUSH2 0xBD5 DUP3 DUP6 PUSH2 0xB91 JUMP JUMPDEST PUSH1 0x14 DUP3 ADD SWAP2 POP PUSH2 0xBE5 DUP3 DUP5 PUSH2 0xBB2 JUMP JUMPDEST PUSH1 0x20 DUP3 ADD SWAP2 POP DUP2 SWAP1 POP SWAP4 SWAP3 POP POP POP JUMP JUMPDEST PUSH1 0x0 DUP3 DUP3 MSTORE PUSH1 0x20 DUP3 ADD SWAP1 POP SWAP3 SWAP2 POP POP JUMP JUMPDEST PUSH32 0x696E76616C696420736967000000000000000000000000000000000000000000 PUSH1 0x0 DUP3 ADD MSTORE POP JUMP JUMPDEST PUSH1 0x0 PUSH2 0xC3C PUSH1 0xB DUP4 PUSH2 0xBF5 JUMP JUMPDEST SWAP2 POP PUSH2 0xC47 DUP3 PUSH2 0xC06 JUMP JUMPDEST PUSH1 0x20 DUP3 ADD SWAP1 POP SWAP2 SWAP1 POP JUMP JUMPDEST PUSH1 0x0 PUSH1 0x20 DUP3 ADD SWAP1 POP DUP2 DUP2 SUB PUSH1 0x0 DUP4 ADD MSTORE PUSH2 0xC6B DUP2 PUSH2 0xC2F JUMP JUMPDEST SWAP1 POP SWAP2 SWAP1 POP JUMP JUMPDEST PUSH1 0x0 DUP2 SWAP1 POP SWAP3 SWAP2 POP POP JUMP JUMPDEST POP JUMP JUMPDEST PUSH1 0x0 PUSH2 0xC8D PUSH1 0x0 DUP4 PUSH2 0xC72 JUMP JUMPDEST SWAP2 POP PUSH2 0xC98 DUP3 PUSH2 0xC7D JUMP JUMPDEST PUSH1 0x0 DUP3 ADD SWAP1 POP SWAP2 SWAP1 POP JUMP JUMPDEST PUSH1 0x0 PUSH2 0xCAE DUP3 PUSH2 0xC80 JUMP JUMPDEST SWAP2 POP DUP2 SWAP1 POP SWAP2 SWAP1 POP JUMP JUMPDEST PUSH32 0x4661696C656420746F2073656E64204574686572000000000000000000000000 PUSH1 0x0 DUP3 ADD MSTORE POP JUMP JUMPDEST PUSH1 0x0 PUSH2 0xCEE PUSH1 0x14 DUP4 PUSH2 0xBF5 JUMP JUMPDEST SWAP2 POP PUSH2 0xCF9 DUP3 PUSH2 0xCB8 JUMP JUMPDEST PUSH1 0x20 DUP3 ADD SWAP1 POP SWAP2 SWAP1 POP JUMP JUMPDEST PUSH1 0x0 PUSH1 0x20 DUP3 ADD SWAP1 POP DUP2 DUP2 SUB PUSH1 0x0 DUP4 ADD MSTORE PUSH2 0xD1D DUP2 PUSH2 0xCE1 JUMP JUMPDEST SWAP1 POP SWAP2 SWAP1 POP JUMP JUMPDEST PUSH32 0x4E487B7100000000000000000000000000000000000000000000000000000000 PUSH1 0x0 MSTORE PUSH1 0x32 PUSH1 0x4 MSTORE PUSH1 0x24 PUSH1 0x0 REVERT JUMPDEST PUSH32 0x4E487B7100000000000000000000000000000000000000000000000000000000 PUSH1 0x0 MSTORE PUSH1 0x11 PUSH1 0x4 MSTORE PUSH1 0x24 PUSH1 0x0 REVERT JUMPDEST PUSH1 0x0 PUSH2 0xD8D DUP3 PUSH2 0x778 JUMP JUMPDEST SWAP2 POP PUSH32 0xFFFFFFFFFFFFFFFFFFFFFFFFFFFFFFFFFFFFFFFFFFFFFFFFFFFFFFFFFFFFFFFF DUP3 EQ ISZERO PUSH2 0xDC0 JUMPI PUSH2 0xDBF PUSH2 0xD53 JUMP JUMPDEST JUMPDEST PUSH1 0x1 DUP3 ADD SWAP1 POP SWAP2 SWAP1 POP JUMP JUMPDEST PUSH1 0x0 DUP2 SWAP1 POP SWAP3 SWAP2 POP POP JUMP JUMPDEST PUSH32 0x19457468657265756D205369676E6564204D6573736167653A0A333200000000 PUSH1 0x0 DUP3 ADD MSTORE POP JUMP JUMPDEST PUSH1 0x0 PUSH2 0xE0C PUSH1 0x1C DUP4 PUSH2 0xDCB JUMP JUMPDEST SWAP2 POP PUSH2 0xE17 DUP3 PUSH2 0xDD6 JUMP JUMPDEST PUSH1 0x1C DUP3 ADD SWAP1 POP SWAP2 SWAP1 POP JUMP JUMPDEST PUSH1 0x0 DUP2 SWAP1 POP SWAP2 SWAP1 POP JUMP JUMPDEST PUSH2 0xE3D PUSH2 0xE38 DUP3 PUSH2 0x8A3 JUMP JUMPDEST PUSH2 0xE22 JUMP JUMPDEST DUP3 MSTORE POP POP JUMP JUMPDEST PUSH1 0x0 PUSH2 0xE4E DUP3 PUSH2 0xDFF JUMP JUMPDEST SWAP2 POP PUSH2 0xE5A DUP3 DUP5 PUSH2 0xE2C JUMP JUMPDEST PUSH1 0x20 DUP3 ADD SWAP2 POP DUP2 SWAP1 POP SWAP3 SWAP2 POP POP JUMP JUMPDEST PUSH32 0x4E487B7100000000000000000000000000000000000000000000000000000000 PUSH1 0x0 MSTORE PUSH1 0x21 PUSH1 0x4 MSTORE PUSH1 0x24 PUSH1 0x0 REVERT JUMPDEST PUSH32 0x45434453413A20696E76616C6964207369676E61747572650000000000000000 PUSH1 0x0 DUP3 ADD MSTORE POP JUMP JUMPDEST PUSH1 0x0 PUSH2 0xECE PUSH1 0x18 DUP4 PUSH2 0xBF5 JUMP JUMPDEST SWAP2 POP PUSH2 0xED9 DUP3 PUSH2 0xE98 JUMP JUMPDEST PUSH1 0x20 DUP3 ADD SWAP1 POP SWAP2 SWAP1 POP JUMP JUMPDEST PUSH1 0x0 PUSH1 0x20 DUP3 ADD SWAP1 POP DUP2 DUP2 SUB PUSH1 0x0 DUP4 ADD MSTORE PUSH2 0xEFD DUP2 PUSH2 0xEC1 JUMP JUMPDEST SWAP1 POP SWAP2 SWAP1 POP JUMP JUMPDEST PUSH32 0x45434453413A20696E76616C6964207369676E6174757265206C656E67746800 PUSH1 0x0 DUP3 ADD MSTORE POP JUMP JUMPDEST PUSH1 0x0 PUSH2 0xF3A PUSH1 0x1F DUP4 PUSH2 0xBF5 JUMP JUMPDEST SWAP2 POP PUSH2 0xF45 DUP3 PUSH2 0xF04 JUMP JUMPDEST PUSH1 0x20 DUP3 ADD SWAP1 POP SWAP2 SWAP1 POP JUMP JUMPDEST PUSH1 0x0 PUSH1 0x20 DUP3 ADD SWAP1 POP DUP2 DUP2 SUB PUSH1 0x0 DUP4 ADD MSTORE PUSH2 0xF69 DUP2 PUSH2 0xF2D JUMP JUMPDEST SWAP1 POP SWAP2 SWAP1 POP JUMP JUMPDEST PUSH32 0x45434453413A20696E76616C6964207369676E6174757265202773272076616C PUSH1 0x0 DUP3 ADD MSTORE PUSH32 0x7565000000000000000000000000000000000000000000000000000000000000 PUSH1 0x20 DUP3 ADD MSTORE POP JUMP JUMPDEST PUSH1 0x0 PUSH2 0xFCC PUSH1 0x22 DUP4 PUSH2 0xBF5 JUMP JUMPDEST SWAP2 POP PUSH2 0xFD7 DUP3 PUSH2 0xF70 JUMP JUMPDEST PUSH1 0x40 DUP3 ADD SWAP1 POP SWAP2 SWAP1 POP JUMP JUMPDEST PUSH1 0x0 PUSH1 0x20 DUP3 ADD SWAP1 POP DUP2 DUP2 SUB PUSH1 0x0 DUP4 ADD MSTORE PUSH2 0xFFB DUP2 PUSH2 0xFBF JUMP JUMPDEST SWAP1 POP SWAP2 SWAP1 POP JUMP JUMPDEST PUSH32 0x45434453413A20696E76616C6964207369676E6174757265202776272076616C PUSH1 0x0 DUP3 ADD MSTORE PUSH32 0x7565000000000000000000000000000000000000000000000000000000000000 PUSH1 0x20 DUP3 ADD MSTORE POP JUMP JUMPDEST PUSH1 0x0 PUSH2 0x105E PUSH1 0x22 DUP4 PUSH2 0xBF5 JUMP JUMPDEST SWAP2 POP PUSH2 0x1069 DUP3 PUSH2 0x1002 JUMP JUMPDEST PUSH1 0x40 DUP3 ADD SWAP1 POP SWAP2 SWAP1 POP JUMP JUMPDEST PUSH1 0x0 PUSH1 0x20 DUP3 ADD SWAP1 POP DUP2 DUP2 SUB PUSH1 0x0 DUP4 ADD MSTORE PUSH2 0x108D DUP2 PUSH2 0x1051 JUMP JUMPDEST SWAP1 POP SWAP2 SWAP1 POP JUMP JUMPDEST PUSH1 0x0 PUSH1 0xFF DUP3 AND SWAP1 POP SWAP2 SWAP1 POP JUMP JUMPDEST PUSH2 0x10AA DUP2 PUSH2 0x1094 JUMP JUMPDEST DUP3 MSTORE POP POP JUMP JUMPDEST PUSH1 0x0 PUSH1 0x80 DUP3 ADD SWAP1 POP PUSH2 0x10C5 PUSH1 0x0 DUP4 ADD DUP8 PUSH2 0x8AD JUMP JUMPDEST PUSH2 0x10D2 PUSH1 0x20 DUP4 ADD DUP7 PUSH2 0x10A1 JUMP JUMPDEST PUSH2 0x10DF PUSH1 0x40 DUP4 ADD DUP6 PUSH2 0x8AD JUMP JUMPDEST PUSH2 0x10EC PUSH1 0x60 DUP4 ADD DUP5 PUSH2 0x8AD JUMP JUMPDEST SWAP6 SWAP5 POP POP POP POP POP JUMP JUMPDEST PUSH1 0x0 PUSH2 0x1100 DUP3 PUSH2 0x778 JUMP JUMPDEST SWAP2 POP PUSH2 0x110B DUP4 PUSH2 0x778 JUMP JUMPDEST SWAP3 POP DUP3 PUSH32 0xFFFFFFFFFFFFFFFFFFFFFFFFFFFFFFFFFFFFFFFFFFFFFFFFFFFFFFFFFFFFFFFF SUB DUP3 GT ISZERO PUSH2 0x1140 JUMPI PUSH2 0x113F PUSH2 0xD53 JUMP JUMPDEST JUMPDEST DUP3 DUP3 ADD SWAP1 POP SWAP3 SWAP2 POP POP JUMP INVALID LOG2 PUSH5 0x6970667358 0x22 SLT KECCAK256 SELFBALANCE DUP13 PUSH25 0xAE2B280E2DD96667EA8B7DF687D0FF36F275502C021529D14B DUP9 PUSH7 0xA94A64736F6C63 NUMBER STOP ADDMOD EXP STOP CALLER "
				},
				"gasEstimates": {
					"creation": {
						"codeDepositCost": "896200",
						"executionCost": "infinite",
						"totalCost": "infinite"
					},
					"external": {
						"deposit()": "142",
						"getTxHash(address,uint256)": "infinite",
						"owners(uint256)": "2783",
						"transfer(address,uint256,bytes[2])": "infinite"
					},
					"internal": {
						"_checkSigs(bytes memory[2] memory,bytes32)": "infinite"
					}
				},
				"methodIdentifiers": {
					"deposit()": "d0e30db0",
					"getTxHash(address,uint256)": "9a4b740b",
					"owners(uint256)": "025e7c27",
					"transfer(address,uint256,bytes[2])": "ffb485b8"
				}
			},
			"userdoc": {
				"kind": "user",
				"methods": {},
				"version": 1
			}
		}
	}
}