{
	"CONTRACTS/VerifySignature.sol": {
		"VerifySignature": {
			"abi": [
				{
					"inputs": [
						{
							"internalType": "address",
							"name": "_owner",
							"type": "address"
						},
						{
							"internalType": "address",
							"name": "_spender",
							"type": "address"
						},
						{
							"internalType": "uint256",
							"name": "_value",
							"type": "uint256"
						},
						{
							"internalType": "uint256",
							"name": "_deadline",
							"type": "uint256"
						}
					],
					"name": "getPermitMessageHash",
					"outputs": [
						{
							"internalType": "bytes32",
							"name": "",
							"type": "bytes32"
						}
					],
					"stateMutability": "pure",
					"type": "function"
				},
				{
					"inputs": [
						{
							"internalType": "bytes",
							"name": "signature",
							"type": "bytes"
						}
					],
					"name": "splitSignature",
					"outputs": [
						{
							"internalType": "bytes32",
							"name": "r",
							"type": "bytes32"
						},
						{
							"internalType": "bytes32",
							"name": "s",
							"type": "bytes32"
						},
						{
							"internalType": "uint8",
							"name": "v",
							"type": "uint8"
						}
					],
					"stateMutability": "pure",
					"type": "function"
				}
			],
			"devdoc": {
				"kind": "dev",
				"methods": {},
				"version": 1
			},
			"evm": {
				"assembly": "    /* \"CONTRACTS/VerifySignature.sol\":55:893  contract VerifySignature {... */\n  mstore(0x40, 0x80)\n  callvalue\n  dup1\n  iszero\n  tag_1\n  jumpi\n  0x00\n  dup1\n  revert\ntag_1:\n  pop\n  dataSize(sub_0)\n  dup1\n  dataOffset(sub_0)\n  0x00\n  codecopy\n  0x00\n  return\nstop\n\nsub_0: assembly {\n        /* \"CONTRACTS/VerifySignature.sol\":55:893  contract VerifySignature {... */\n      mstore(0x40, 0x80)\n      callvalue\n      dup1\n      iszero\n      tag_1\n      jumpi\n      0x00\n      dup1\n      revert\n    tag_1:\n      pop\n      jumpi(tag_2, lt(calldatasize, 0x04))\n      shr(0xe0, calldataload(0x00))\n      dup1\n      0x49195b31\n      eq\n      tag_3\n      jumpi\n      dup1\n      0xa7bb5803\n      eq\n      tag_4\n      jumpi\n    tag_2:\n      0x00\n      dup1\n      revert\n        /* \"CONTRACTS/VerifySignature.sol\":153:416  function getPermitMessageHash(... */\n    tag_3:\n      tag_5\n      0x04\n      dup1\n      calldatasize\n      sub\n      dup2\n      add\n      swap1\n      tag_6\n      swap2\n      swap1\n      tag_7\n      jump\t// in\n    tag_6:\n      tag_8\n      jump\t// in\n    tag_5:\n      mload(0x40)\n      tag_9\n      swap2\n      swap1\n      tag_10\n      jump\t// in\n    tag_9:\n      mload(0x40)\n      dup1\n      swap2\n      sub\n      swap1\n      return\n        /* \"CONTRACTS/VerifySignature.sol\":470:887  function splitSignature(bytes memory signature)... */\n    tag_4:\n      tag_11\n      0x04\n      dup1\n      calldatasize\n      sub\n      dup2\n      add\n      swap1\n      tag_12\n      swap2\n      swap1\n      tag_13\n      jump\t// in\n    tag_12:\n      tag_14\n      jump\t// in\n    tag_11:\n      mload(0x40)\n      tag_15\n      swap4\n      swap3\n      swap2\n      swap1\n      tag_16\n      jump\t// in\n    tag_15:\n      mload(0x40)\n      dup1\n      swap2\n      sub\n      swap1\n      return\n        /* \"CONTRACTS/VerifySignature.sol\":153:416  function getPermitMessageHash(... */\n    tag_8:\n        /* \"CONTRACTS/VerifySignature.sol\":319:326  bytes32 */\n      0x00\n        /* \"CONTRACTS/VerifySignature.sol\":372:378  _owner */\n      dup5\n        /* \"CONTRACTS/VerifySignature.sol\":380:388  _spender */\n      dup5\n        /* \"CONTRACTS/VerifySignature.sol\":390:396  _value */\n      dup5\n        /* \"CONTRACTS/VerifySignature.sol\":398:407  _deadline */\n      dup5\n        /* \"CONTRACTS/VerifySignature.sol\":355:408  abi.encodePacked(_owner, _spender, _value, _deadline) */\n      add(0x20, mload(0x40))\n      tag_18\n      swap5\n      swap4\n      swap3\n      swap2\n      swap1\n      tag_19\n      jump\t// in\n    tag_18:\n      mload(0x40)\n      0x20\n      dup2\n      dup4\n      sub\n      sub\n      dup2\n      mstore\n      swap1\n      0x40\n      mstore\n        /* \"CONTRACTS/VerifySignature.sol\":345:409  keccak256(abi.encodePacked(_owner, _spender, _value, _deadline)) */\n      dup1\n      mload\n      swap1\n      0x20\n      add\n      keccak256\n        /* \"CONTRACTS/VerifySignature.sol\":338:409  return keccak256(abi.encodePacked(_owner, _spender, _value, _deadline)) */\n      swap1\n      pop\n        /* \"CONTRACTS/VerifySignature.sol\":153:416  function getPermitMessageHash(... */\n      swap5\n      swap4\n      pop\n      pop\n      pop\n      pop\n      jump\t// out\n        /* \"CONTRACTS/VerifySignature.sol\":470:887  function splitSignature(bytes memory signature)... */\n    tag_14:\n        /* \"CONTRACTS/VerifySignature.sol\":576:585  bytes32 r */\n      0x00\n        /* \"CONTRACTS/VerifySignature.sol\":599:608  bytes32 s */\n      dup1\n        /* \"CONTRACTS/VerifySignature.sol\":622:629  uint8 v */\n      0x00\n        /* \"CONTRACTS/VerifySignature.sol\":681:683  65 */\n      0x41\n        /* \"CONTRACTS/VerifySignature.sol\":661:670  signature */\n      dup5\n        /* \"CONTRACTS/VerifySignature.sol\":661:677  signature.length */\n      mload\n        /* \"CONTRACTS/VerifySignature.sol\":661:683  signature.length == 65 */\n      eq\n        /* \"CONTRACTS/VerifySignature.sol\":653:712  require(signature.length == 65, \"invalid signature length\") */\n      tag_21\n      jumpi\n      mload(0x40)\n      0x08c379a000000000000000000000000000000000000000000000000000000000\n      dup2\n      mstore\n      0x04\n      add\n      tag_22\n      swap1\n      tag_23\n      jump\t// in\n    tag_22:\n      mload(0x40)\n      dup1\n      swap2\n      sub\n      swap1\n      revert\n    tag_21:\n        /* \"CONTRACTS/VerifySignature.sol\":772:774  32 */\n      0x20\n        /* \"CONTRACTS/VerifySignature.sol\":761:770  signature */\n      dup5\n        /* \"CONTRACTS/VerifySignature.sol\":757:775  add(signature, 32) */\n      add\n        /* \"CONTRACTS/VerifySignature.sol\":751:776  mload(add(signature, 32)) */\n      mload\n        /* \"CONTRACTS/VerifySignature.sol\":746:776  r := mload(add(signature, 32)) */\n      swap3\n      pop\n        /* \"CONTRACTS/VerifySignature.sol\":815:817  64 */\n      0x40\n        /* \"CONTRACTS/VerifySignature.sol\":804:813  signature */\n      dup5\n        /* \"CONTRACTS/VerifySignature.sol\":800:818  add(signature, 64) */\n      add\n        /* \"CONTRACTS/VerifySignature.sol\":794:819  mload(add(signature, 64)) */\n      mload\n        /* \"CONTRACTS/VerifySignature.sol\":789:819  s := mload(add(signature, 64)) */\n      swap2\n      pop\n        /* \"CONTRACTS/VerifySignature.sol\":866:868  96 */\n      0x60\n        /* \"CONTRACTS/VerifySignature.sol\":855:864  signature */\n      dup5\n        /* \"CONTRACTS/VerifySignature.sol\":851:869  add(signature, 96) */\n      add\n        /* \"CONTRACTS/VerifySignature.sol\":845:870  mload(add(signature, 96)) */\n      mload\n        /* \"CONTRACTS/VerifySignature.sol\":842:843  0 */\n      0x00\n        /* \"CONTRACTS/VerifySignature.sol\":837:871  byte(0, mload(add(signature, 96))) */\n      byte\n        /* \"CONTRACTS/VerifySignature.sol\":832:871  v := byte(0, mload(add(signature, 96))) */\n      swap1\n      pop\n        /* \"CONTRACTS/VerifySignature.sol\":470:887  function splitSignature(bytes memory signature)... */\n      swap2\n      swap4\n      swap1\n      swap3\n      pop\n      jump\t// out\n        /* \"#utility.yul\":7:82   */\n    tag_24:\n        /* \"#utility.yul\":40:46   */\n      0x00\n        /* \"#utility.yul\":73:75   */\n      0x40\n        /* \"#utility.yul\":67:76   */\n      mload\n        /* \"#utility.yul\":57:76   */\n      swap1\n      pop\n        /* \"#utility.yul\":7:82   */\n      swap1\n      jump\t// out\n        /* \"#utility.yul\":88:205   */\n    tag_25:\n        /* \"#utility.yul\":197:198   */\n      0x00\n        /* \"#utility.yul\":194:195   */\n      dup1\n        /* \"#utility.yul\":187:199   */\n      revert\n        /* \"#utility.yul\":211:328   */\n    tag_26:\n        /* \"#utility.yul\":320:321   */\n      0x00\n        /* \"#utility.yul\":317:318   */\n      dup1\n        /* \"#utility.yul\":310:322   */\n      revert\n        /* \"#utility.yul\":334:460   */\n    tag_27:\n        /* \"#utility.yul\":371:378   */\n      0x00\n        /* \"#utility.yul\":411:453   */\n      0xffffffffffffffffffffffffffffffffffffffff\n        /* \"#utility.yul\":404:409   */\n      dup3\n        /* \"#utility.yul\":400:454   */\n      and\n        /* \"#utility.yul\":389:454   */\n      swap1\n      pop\n        /* \"#utility.yul\":334:460   */\n      swap2\n      swap1\n      pop\n      jump\t// out\n        /* \"#utility.yul\":466:562   */\n    tag_28:\n        /* \"#utility.yul\":503:510   */\n      0x00\n        /* \"#utility.yul\":532:556   */\n      tag_63\n        /* \"#utility.yul\":550:555   */\n      dup3\n        /* \"#utility.yul\":532:556   */\n      tag_27\n      jump\t// in\n    tag_63:\n        /* \"#utility.yul\":521:556   */\n      swap1\n      pop\n        /* \"#utility.yul\":466:562   */\n      swap2\n      swap1\n      pop\n      jump\t// out\n        /* \"#utility.yul\":568:690   */\n    tag_29:\n        /* \"#utility.yul\":641:665   */\n      tag_65\n        /* \"#utility.yul\":659:664   */\n      dup2\n        /* \"#utility.yul\":641:665   */\n      tag_28\n      jump\t// in\n    tag_65:\n        /* \"#utility.yul\":634:639   */\n      dup2\n        /* \"#utility.yul\":631:666   */\n      eq\n        /* \"#utility.yul\":621:684   */\n      tag_66\n      jumpi\n        /* \"#utility.yul\":680:681   */\n      0x00\n        /* \"#utility.yul\":677:678   */\n      dup1\n        /* \"#utility.yul\":670:682   */\n      revert\n        /* \"#utility.yul\":621:684   */\n    tag_66:\n        /* \"#utility.yul\":568:690   */\n      pop\n      jump\t// out\n        /* \"#utility.yul\":696:835   */\n    tag_30:\n        /* \"#utility.yul\":742:747   */\n      0x00\n        /* \"#utility.yul\":780:786   */\n      dup2\n        /* \"#utility.yul\":767:787   */\n      calldataload\n        /* \"#utility.yul\":758:787   */\n      swap1\n      pop\n        /* \"#utility.yul\":796:829   */\n      tag_68\n        /* \"#utility.yul\":823:828   */\n      dup2\n        /* \"#utility.yul\":796:829   */\n      tag_29\n      jump\t// in\n    tag_68:\n        /* \"#utility.yul\":696:835   */\n      swap3\n      swap2\n      pop\n      pop\n      jump\t// out\n        /* \"#utility.yul\":841:918   */\n    tag_31:\n        /* \"#utility.yul\":878:885   */\n      0x00\n        /* \"#utility.yul\":907:912   */\n      dup2\n        /* \"#utility.yul\":896:912   */\n      swap1\n      pop\n        /* \"#utility.yul\":841:918   */\n      swap2\n      swap1\n      pop\n      jump\t// out\n        /* \"#utility.yul\":924:1046   */\n    tag_32:\n        /* \"#utility.yul\":997:1021   */\n      tag_71\n        /* \"#utility.yul\":1015:1020   */\n      dup2\n        /* \"#utility.yul\":997:1021   */\n      tag_31\n      jump\t// in\n    tag_71:\n        /* \"#utility.yul\":990:995   */\n      dup2\n        /* \"#utility.yul\":987:1022   */\n      eq\n        /* \"#utility.yul\":977:1040   */\n      tag_72\n      jumpi\n        /* \"#utility.yul\":1036:1037   */\n      0x00\n        /* \"#utility.yul\":1033:1034   */\n      dup1\n        /* \"#utility.yul\":1026:1038   */\n      revert\n        /* \"#utility.yul\":977:1040   */\n    tag_72:\n        /* \"#utility.yul\":924:1046   */\n      pop\n      jump\t// out\n        /* \"#utility.yul\":1052:1191   */\n    tag_33:\n        /* \"#utility.yul\":1098:1103   */\n      0x00\n        /* \"#utility.yul\":1136:1142   */\n      dup2\n        /* \"#utility.yul\":1123:1143   */\n      calldataload\n        /* \"#utility.yul\":1114:1143   */\n      swap1\n      pop\n        /* \"#utility.yul\":1152:1185   */\n      tag_74\n        /* \"#utility.yul\":1179:1184   */\n      dup2\n        /* \"#utility.yul\":1152:1185   */\n      tag_32\n      jump\t// in\n    tag_74:\n        /* \"#utility.yul\":1052:1191   */\n      swap3\n      swap2\n      pop\n      pop\n      jump\t// out\n        /* \"#utility.yul\":1197:1962   */\n    tag_7:\n        /* \"#utility.yul\":1283:1289   */\n      0x00\n        /* \"#utility.yul\":1291:1297   */\n      dup1\n        /* \"#utility.yul\":1299:1305   */\n      0x00\n        /* \"#utility.yul\":1307:1313   */\n      dup1\n        /* \"#utility.yul\":1356:1359   */\n      0x80\n        /* \"#utility.yul\":1344:1353   */\n      dup6\n        /* \"#utility.yul\":1335:1342   */\n      dup8\n        /* \"#utility.yul\":1331:1354   */\n      sub\n        /* \"#utility.yul\":1327:1360   */\n      slt\n        /* \"#utility.yul\":1324:1444   */\n      iszero\n      tag_76\n      jumpi\n        /* \"#utility.yul\":1363:1442   */\n      tag_77\n      tag_25\n      jump\t// in\n    tag_77:\n        /* \"#utility.yul\":1324:1444   */\n    tag_76:\n        /* \"#utility.yul\":1483:1484   */\n      0x00\n        /* \"#utility.yul\":1508:1561   */\n      tag_78\n        /* \"#utility.yul\":1553:1560   */\n      dup8\n        /* \"#utility.yul\":1544:1550   */\n      dup3\n        /* \"#utility.yul\":1533:1542   */\n      dup9\n        /* \"#utility.yul\":1529:1551   */\n      add\n        /* \"#utility.yul\":1508:1561   */\n      tag_30\n      jump\t// in\n    tag_78:\n        /* \"#utility.yul\":1498:1561   */\n      swap5\n      pop\n        /* \"#utility.yul\":1454:1571   */\n      pop\n        /* \"#utility.yul\":1610:1612   */\n      0x20\n        /* \"#utility.yul\":1636:1689   */\n      tag_79\n        /* \"#utility.yul\":1681:1688   */\n      dup8\n        /* \"#utility.yul\":1672:1678   */\n      dup3\n        /* \"#utility.yul\":1661:1670   */\n      dup9\n        /* \"#utility.yul\":1657:1679   */\n      add\n        /* \"#utility.yul\":1636:1689   */\n      tag_30\n      jump\t// in\n    tag_79:\n        /* \"#utility.yul\":1626:1689   */\n      swap4\n      pop\n        /* \"#utility.yul\":1581:1699   */\n      pop\n        /* \"#utility.yul\":1738:1740   */\n      0x40\n        /* \"#utility.yul\":1764:1817   */\n      tag_80\n        /* \"#utility.yul\":1809:1816   */\n      dup8\n        /* \"#utility.yul\":1800:1806   */\n      dup3\n        /* \"#utility.yul\":1789:1798   */\n      dup9\n        /* \"#utility.yul\":1785:1807   */\n      add\n        /* \"#utility.yul\":1764:1817   */\n      tag_33\n      jump\t// in\n    tag_80:\n        /* \"#utility.yul\":1754:1817   */\n      swap3\n      pop\n        /* \"#utility.yul\":1709:1827   */\n      pop\n        /* \"#utility.yul\":1866:1868   */\n      0x60\n        /* \"#utility.yul\":1892:1945   */\n      tag_81\n        /* \"#utility.yul\":1937:1944   */\n      dup8\n        /* \"#utility.yul\":1928:1934   */\n      dup3\n        /* \"#utility.yul\":1917:1926   */\n      dup9\n        /* \"#utility.yul\":1913:1935   */\n      add\n        /* \"#utility.yul\":1892:1945   */\n      tag_33\n      jump\t// in\n    tag_81:\n        /* \"#utility.yul\":1882:1945   */\n      swap2\n      pop\n        /* \"#utility.yul\":1837:1955   */\n      pop\n        /* \"#utility.yul\":1197:1962   */\n      swap3\n      swap6\n      swap2\n      swap5\n      pop\n      swap3\n      pop\n      jump\t// out\n        /* \"#utility.yul\":1968:2045   */\n    tag_34:\n        /* \"#utility.yul\":2005:2012   */\n      0x00\n        /* \"#utility.yul\":2034:2039   */\n      dup2\n        /* \"#utility.yul\":2023:2039   */\n      swap1\n      pop\n        /* \"#utility.yul\":1968:2045   */\n      swap2\n      swap1\n      pop\n      jump\t// out\n        /* \"#utility.yul\":2051:2169   */\n    tag_35:\n        /* \"#utility.yul\":2138:2162   */\n      tag_84\n        /* \"#utility.yul\":2156:2161   */\n      dup2\n        /* \"#utility.yul\":2138:2162   */\n      tag_34\n      jump\t// in\n    tag_84:\n        /* \"#utility.yul\":2133:2136   */\n      dup3\n        /* \"#utility.yul\":2126:2163   */\n      mstore\n        /* \"#utility.yul\":2051:2169   */\n      pop\n      pop\n      jump\t// out\n        /* \"#utility.yul\":2175:2397   */\n    tag_10:\n        /* \"#utility.yul\":2268:2272   */\n      0x00\n        /* \"#utility.yul\":2306:2308   */\n      0x20\n        /* \"#utility.yul\":2295:2304   */\n      dup3\n        /* \"#utility.yul\":2291:2309   */\n      add\n        /* \"#utility.yul\":2283:2309   */\n      swap1\n      pop\n        /* \"#utility.yul\":2319:2390   */\n      tag_86\n        /* \"#utility.yul\":2387:2388   */\n      0x00\n        /* \"#utility.yul\":2376:2385   */\n      dup4\n        /* \"#utility.yul\":2372:2389   */\n      add\n        /* \"#utility.yul\":2363:2369   */\n      dup5\n        /* \"#utility.yul\":2319:2390   */\n      tag_35\n      jump\t// in\n    tag_86:\n        /* \"#utility.yul\":2175:2397   */\n      swap3\n      swap2\n      pop\n      pop\n      jump\t// out\n        /* \"#utility.yul\":2403:2520   */\n    tag_36:\n        /* \"#utility.yul\":2512:2513   */\n      0x00\n        /* \"#utility.yul\":2509:2510   */\n      dup1\n        /* \"#utility.yul\":2502:2514   */\n      revert\n        /* \"#utility.yul\":2526:2643   */\n    tag_37:\n        /* \"#utility.yul\":2635:2636   */\n      0x00\n        /* \"#utility.yul\":2632:2633   */\n      dup1\n        /* \"#utility.yul\":2625:2637   */\n      revert\n        /* \"#utility.yul\":2649:2751   */\n    tag_38:\n        /* \"#utility.yul\":2690:2696   */\n      0x00\n        /* \"#utility.yul\":2741:2743   */\n      0x1f\n        /* \"#utility.yul\":2737:2744   */\n      not\n        /* \"#utility.yul\":2732:2734   */\n      0x1f\n        /* \"#utility.yul\":2725:2730   */\n      dup4\n        /* \"#utility.yul\":2721:2735   */\n      add\n        /* \"#utility.yul\":2717:2745   */\n      and\n        /* \"#utility.yul\":2707:2745   */\n      swap1\n      pop\n        /* \"#utility.yul\":2649:2751   */\n      swap2\n      swap1\n      pop\n      jump\t// out\n        /* \"#utility.yul\":2757:2937   */\n    tag_39:\n        /* \"#utility.yul\":2805:2882   */\n      0x4e487b7100000000000000000000000000000000000000000000000000000000\n        /* \"#utility.yul\":2802:2803   */\n      0x00\n        /* \"#utility.yul\":2795:2883   */\n      mstore\n        /* \"#utility.yul\":2902:2906   */\n      0x41\n        /* \"#utility.yul\":2899:2900   */\n      0x04\n        /* \"#utility.yul\":2892:2907   */\n      mstore\n        /* \"#utility.yul\":2926:2930   */\n      0x24\n        /* \"#utility.yul\":2923:2924   */\n      0x00\n        /* \"#utility.yul\":2916:2931   */\n      revert\n        /* \"#utility.yul\":2943:3224   */\n    tag_40:\n        /* \"#utility.yul\":3026:3053   */\n      tag_92\n        /* \"#utility.yul\":3048:3052   */\n      dup3\n        /* \"#utility.yul\":3026:3053   */\n      tag_38\n      jump\t// in\n    tag_92:\n        /* \"#utility.yul\":3018:3024   */\n      dup2\n        /* \"#utility.yul\":3014:3054   */\n      add\n        /* \"#utility.yul\":3156:3162   */\n      dup2\n        /* \"#utility.yul\":3144:3154   */\n      dup2\n        /* \"#utility.yul\":3141:3163   */\n      lt\n        /* \"#utility.yul\":3120:3138   */\n      0xffffffffffffffff\n        /* \"#utility.yul\":3108:3118   */\n      dup3\n        /* \"#utility.yul\":3105:3139   */\n      gt\n        /* \"#utility.yul\":3102:3164   */\n      or\n        /* \"#utility.yul\":3099:3187   */\n      iszero\n      tag_93\n      jumpi\n        /* \"#utility.yul\":3167:3185   */\n      tag_94\n      tag_39\n      jump\t// in\n    tag_94:\n        /* \"#utility.yul\":3099:3187   */\n    tag_93:\n        /* \"#utility.yul\":3207:3217   */\n      dup1\n        /* \"#utility.yul\":3203:3205   */\n      0x40\n        /* \"#utility.yul\":3196:3218   */\n      mstore\n        /* \"#utility.yul\":2986:3224   */\n      pop\n        /* \"#utility.yul\":2943:3224   */\n      pop\n      pop\n      jump\t// out\n        /* \"#utility.yul\":3230:3359   */\n    tag_41:\n        /* \"#utility.yul\":3264:3270   */\n      0x00\n        /* \"#utility.yul\":3291:3311   */\n      tag_96\n      tag_24\n      jump\t// in\n    tag_96:\n        /* \"#utility.yul\":3281:3311   */\n      swap1\n      pop\n        /* \"#utility.yul\":3320:3353   */\n      tag_97\n        /* \"#utility.yul\":3348:3352   */\n      dup3\n        /* \"#utility.yul\":3340:3346   */\n      dup3\n        /* \"#utility.yul\":3320:3353   */\n      tag_40\n      jump\t// in\n    tag_97:\n        /* \"#utility.yul\":3230:3359   */\n      swap2\n      swap1\n      pop\n      jump\t// out\n        /* \"#utility.yul\":3365:3672   */\n    tag_42:\n        /* \"#utility.yul\":3426:3430   */\n      0x00\n        /* \"#utility.yul\":3516:3534   */\n      0xffffffffffffffff\n        /* \"#utility.yul\":3508:3514   */\n      dup3\n        /* \"#utility.yul\":3505:3535   */\n      gt\n        /* \"#utility.yul\":3502:3558   */\n      iszero\n      tag_99\n      jumpi\n        /* \"#utility.yul\":3538:3556   */\n      tag_100\n      tag_39\n      jump\t// in\n    tag_100:\n        /* \"#utility.yul\":3502:3558   */\n    tag_99:\n        /* \"#utility.yul\":3576:3605   */\n      tag_101\n        /* \"#utility.yul\":3598:3604   */\n      dup3\n        /* \"#utility.yul\":3576:3605   */\n      tag_38\n      jump\t// in\n    tag_101:\n        /* \"#utility.yul\":3568:3605   */\n      swap1\n      pop\n        /* \"#utility.yul\":3660:3664   */\n      0x20\n        /* \"#utility.yul\":3654:3658   */\n      dup2\n        /* \"#utility.yul\":3650:3665   */\n      add\n        /* \"#utility.yul\":3642:3665   */\n      swap1\n      pop\n        /* \"#utility.yul\":3365:3672   */\n      swap2\n      swap1\n      pop\n      jump\t// out\n        /* \"#utility.yul\":3678:3824   */\n    tag_43:\n        /* \"#utility.yul\":3775:3781   */\n      dup3\n        /* \"#utility.yul\":3770:3773   */\n      dup2\n        /* \"#utility.yul\":3765:3768   */\n      dup4\n        /* \"#utility.yul\":3752:3782   */\n      calldatacopy\n        /* \"#utility.yul\":3816:3817   */\n      0x00\n        /* \"#utility.yul\":3807:3813   */\n      dup4\n        /* \"#utility.yul\":3802:3805   */\n      dup4\n        /* \"#utility.yul\":3798:3814   */\n      add\n        /* \"#utility.yul\":3791:3818   */\n      mstore\n        /* \"#utility.yul\":3678:3824   */\n      pop\n      pop\n      pop\n      jump\t// out\n        /* \"#utility.yul\":3830:4253   */\n    tag_44:\n        /* \"#utility.yul\":3907:3912   */\n      0x00\n        /* \"#utility.yul\":3932:3997   */\n      tag_104\n        /* \"#utility.yul\":3948:3996   */\n      tag_105\n        /* \"#utility.yul\":3989:3995   */\n      dup5\n        /* \"#utility.yul\":3948:3996   */\n      tag_42\n      jump\t// in\n    tag_105:\n        /* \"#utility.yul\":3932:3997   */\n      tag_41\n      jump\t// in\n    tag_104:\n        /* \"#utility.yul\":3923:3997   */\n      swap1\n      pop\n        /* \"#utility.yul\":4020:4026   */\n      dup3\n        /* \"#utility.yul\":4013:4018   */\n      dup2\n        /* \"#utility.yul\":4006:4027   */\n      mstore\n        /* \"#utility.yul\":4058:4062   */\n      0x20\n        /* \"#utility.yul\":4051:4056   */\n      dup2\n        /* \"#utility.yul\":4047:4063   */\n      add\n        /* \"#utility.yul\":4096:4099   */\n      dup5\n        /* \"#utility.yul\":4087:4093   */\n      dup5\n        /* \"#utility.yul\":4082:4085   */\n      dup5\n        /* \"#utility.yul\":4078:4094   */\n      add\n        /* \"#utility.yul\":4075:4100   */\n      gt\n        /* \"#utility.yul\":4072:4184   */\n      iszero\n      tag_106\n      jumpi\n        /* \"#utility.yul\":4103:4182   */\n      tag_107\n      tag_37\n      jump\t// in\n    tag_107:\n        /* \"#utility.yul\":4072:4184   */\n    tag_106:\n        /* \"#utility.yul\":4193:4247   */\n      tag_108\n        /* \"#utility.yul\":4240:4246   */\n      dup5\n        /* \"#utility.yul\":4235:4238   */\n      dup3\n        /* \"#utility.yul\":4230:4233   */\n      dup6\n        /* \"#utility.yul\":4193:4247   */\n      tag_43\n      jump\t// in\n    tag_108:\n        /* \"#utility.yul\":3913:4253   */\n      pop\n        /* \"#utility.yul\":3830:4253   */\n      swap4\n      swap3\n      pop\n      pop\n      pop\n      jump\t// out\n        /* \"#utility.yul\":4272:4610   */\n    tag_45:\n        /* \"#utility.yul\":4327:4332   */\n      0x00\n        /* \"#utility.yul\":4376:4379   */\n      dup3\n        /* \"#utility.yul\":4369:4373   */\n      0x1f\n        /* \"#utility.yul\":4361:4367   */\n      dup4\n        /* \"#utility.yul\":4357:4374   */\n      add\n        /* \"#utility.yul\":4353:4380   */\n      slt\n        /* \"#utility.yul\":4343:4465   */\n      tag_110\n      jumpi\n        /* \"#utility.yul\":4384:4463   */\n      tag_111\n      tag_36\n      jump\t// in\n    tag_111:\n        /* \"#utility.yul\":4343:4465   */\n    tag_110:\n        /* \"#utility.yul\":4501:4507   */\n      dup2\n        /* \"#utility.yul\":4488:4508   */\n      calldataload\n        /* \"#utility.yul\":4526:4604   */\n      tag_112\n        /* \"#utility.yul\":4600:4603   */\n      dup5\n        /* \"#utility.yul\":4592:4598   */\n      dup3\n        /* \"#utility.yul\":4585:4589   */\n      0x20\n        /* \"#utility.yul\":4577:4583   */\n      dup7\n        /* \"#utility.yul\":4573:4590   */\n      add\n        /* \"#utility.yul\":4526:4604   */\n      tag_44\n      jump\t// in\n    tag_112:\n        /* \"#utility.yul\":4517:4604   */\n      swap2\n      pop\n        /* \"#utility.yul\":4333:4610   */\n      pop\n        /* \"#utility.yul\":4272:4610   */\n      swap3\n      swap2\n      pop\n      pop\n      jump\t// out\n        /* \"#utility.yul\":4616:5123   */\n    tag_13:\n        /* \"#utility.yul\":4684:4690   */\n      0x00\n        /* \"#utility.yul\":4733:4735   */\n      0x20\n        /* \"#utility.yul\":4721:4730   */\n      dup3\n        /* \"#utility.yul\":4712:4719   */\n      dup5\n        /* \"#utility.yul\":4708:4731   */\n      sub\n        /* \"#utility.yul\":4704:4736   */\n      slt\n        /* \"#utility.yul\":4701:4820   */\n      iszero\n      tag_114\n      jumpi\n        /* \"#utility.yul\":4739:4818   */\n      tag_115\n      tag_25\n      jump\t// in\n    tag_115:\n        /* \"#utility.yul\":4701:4820   */\n    tag_114:\n        /* \"#utility.yul\":4887:4888   */\n      0x00\n        /* \"#utility.yul\":4876:4885   */\n      dup3\n        /* \"#utility.yul\":4872:4889   */\n      add\n        /* \"#utility.yul\":4859:4890   */\n      calldataload\n        /* \"#utility.yul\":4917:4935   */\n      0xffffffffffffffff\n        /* \"#utility.yul\":4909:4915   */\n      dup2\n        /* \"#utility.yul\":4906:4936   */\n      gt\n        /* \"#utility.yul\":4903:5020   */\n      iszero\n      tag_116\n      jumpi\n        /* \"#utility.yul\":4939:5018   */\n      tag_117\n      tag_26\n      jump\t// in\n    tag_117:\n        /* \"#utility.yul\":4903:5020   */\n    tag_116:\n        /* \"#utility.yul\":5044:5106   */\n      tag_118\n        /* \"#utility.yul\":5098:5105   */\n      dup5\n        /* \"#utility.yul\":5089:5095   */\n      dup3\n        /* \"#utility.yul\":5078:5087   */\n      dup6\n        /* \"#utility.yul\":5074:5096   */\n      add\n        /* \"#utility.yul\":5044:5106   */\n      tag_45\n      jump\t// in\n    tag_118:\n        /* \"#utility.yul\":5034:5106   */\n      swap2\n      pop\n        /* \"#utility.yul\":4830:5116   */\n      pop\n        /* \"#utility.yul\":4616:5123   */\n      swap3\n      swap2\n      pop\n      pop\n      jump\t// out\n        /* \"#utility.yul\":5129:5215   */\n    tag_46:\n        /* \"#utility.yul\":5164:5171   */\n      0x00\n        /* \"#utility.yul\":5204:5208   */\n      0xff\n        /* \"#utility.yul\":5197:5202   */\n      dup3\n        /* \"#utility.yul\":5193:5209   */\n      and\n        /* \"#utility.yul\":5182:5209   */\n      swap1\n      pop\n        /* \"#utility.yul\":5129:5215   */\n      swap2\n      swap1\n      pop\n      jump\t// out\n        /* \"#utility.yul\":5221:5333   */\n    tag_47:\n        /* \"#utility.yul\":5304:5326   */\n      tag_121\n        /* \"#utility.yul\":5320:5325   */\n      dup2\n        /* \"#utility.yul\":5304:5326   */\n      tag_46\n      jump\t// in\n    tag_121:\n        /* \"#utility.yul\":5299:5302   */\n      dup3\n        /* \"#utility.yul\":5292:5327   */\n      mstore\n        /* \"#utility.yul\":5221:5333   */\n      pop\n      pop\n      jump\t// out\n        /* \"#utility.yul\":5339:5773   */\n    tag_16:\n        /* \"#utility.yul\":5484:5488   */\n      0x00\n        /* \"#utility.yul\":5522:5524   */\n      0x60\n        /* \"#utility.yul\":5511:5520   */\n      dup3\n        /* \"#utility.yul\":5507:5525   */\n      add\n        /* \"#utility.yul\":5499:5525   */\n      swap1\n      pop\n        /* \"#utility.yul\":5535:5606   */\n      tag_123\n        /* \"#utility.yul\":5603:5604   */\n      0x00\n        /* \"#utility.yul\":5592:5601   */\n      dup4\n        /* \"#utility.yul\":5588:5605   */\n      add\n        /* \"#utility.yul\":5579:5585   */\n      dup7\n        /* \"#utility.yul\":5535:5606   */\n      tag_35\n      jump\t// in\n    tag_123:\n        /* \"#utility.yul\":5616:5688   */\n      tag_124\n        /* \"#utility.yul\":5684:5686   */\n      0x20\n        /* \"#utility.yul\":5673:5682   */\n      dup4\n        /* \"#utility.yul\":5669:5687   */\n      add\n        /* \"#utility.yul\":5660:5666   */\n      dup6\n        /* \"#utility.yul\":5616:5688   */\n      tag_35\n      jump\t// in\n    tag_124:\n        /* \"#utility.yul\":5698:5766   */\n      tag_125\n        /* \"#utility.yul\":5762:5764   */\n      0x40\n        /* \"#utility.yul\":5751:5760   */\n      dup4\n        /* \"#utility.yul\":5747:5765   */\n      add\n        /* \"#utility.yul\":5738:5744   */\n      dup5\n        /* \"#utility.yul\":5698:5766   */\n      tag_47\n      jump\t// in\n    tag_125:\n        /* \"#utility.yul\":5339:5773   */\n      swap5\n      swap4\n      pop\n      pop\n      pop\n      pop\n      jump\t// out\n        /* \"#utility.yul\":5779:5873   */\n    tag_48:\n        /* \"#utility.yul\":5812:5820   */\n      0x00\n        /* \"#utility.yul\":5860:5865   */\n      dup2\n        /* \"#utility.yul\":5856:5858   */\n      0x60\n        /* \"#utility.yul\":5852:5866   */\n      shl\n        /* \"#utility.yul\":5831:5866   */\n      swap1\n      pop\n        /* \"#utility.yul\":5779:5873   */\n      swap2\n      swap1\n      pop\n      jump\t// out\n        /* \"#utility.yul\":5879:5973   */\n    tag_49:\n        /* \"#utility.yul\":5918:5925   */\n      0x00\n        /* \"#utility.yul\":5947:5967   */\n      tag_128\n        /* \"#utility.yul\":5961:5966   */\n      dup3\n        /* \"#utility.yul\":5947:5967   */\n      tag_48\n      jump\t// in\n    tag_128:\n        /* \"#utility.yul\":5936:5967   */\n      swap1\n      pop\n        /* \"#utility.yul\":5879:5973   */\n      swap2\n      swap1\n      pop\n      jump\t// out\n        /* \"#utility.yul\":5979:6079   */\n    tag_50:\n        /* \"#utility.yul\":6018:6025   */\n      0x00\n        /* \"#utility.yul\":6047:6073   */\n      tag_130\n        /* \"#utility.yul\":6067:6072   */\n      dup3\n        /* \"#utility.yul\":6047:6073   */\n      tag_49\n      jump\t// in\n    tag_130:\n        /* \"#utility.yul\":6036:6073   */\n      swap1\n      pop\n        /* \"#utility.yul\":5979:6079   */\n      swap2\n      swap1\n      pop\n      jump\t// out\n        /* \"#utility.yul\":6085:6242   */\n    tag_51:\n        /* \"#utility.yul\":6190:6235   */\n      tag_132\n        /* \"#utility.yul\":6210:6234   */\n      tag_133\n        /* \"#utility.yul\":6228:6233   */\n      dup3\n        /* \"#utility.yul\":6210:6234   */\n      tag_28\n      jump\t// in\n    tag_133:\n        /* \"#utility.yul\":6190:6235   */\n      tag_50\n      jump\t// in\n    tag_132:\n        /* \"#utility.yul\":6185:6188   */\n      dup3\n        /* \"#utility.yul\":6178:6236   */\n      mstore\n        /* \"#utility.yul\":6085:6242   */\n      pop\n      pop\n      jump\t// out\n        /* \"#utility.yul\":6248:6327   */\n    tag_52:\n        /* \"#utility.yul\":6287:6294   */\n      0x00\n        /* \"#utility.yul\":6316:6321   */\n      dup2\n        /* \"#utility.yul\":6305:6321   */\n      swap1\n      pop\n        /* \"#utility.yul\":6248:6327   */\n      swap2\n      swap1\n      pop\n      jump\t// out\n        /* \"#utility.yul\":6333:6490   */\n    tag_53:\n        /* \"#utility.yul\":6438:6483   */\n      tag_136\n        /* \"#utility.yul\":6458:6482   */\n      tag_137\n        /* \"#utility.yul\":6476:6481   */\n      dup3\n        /* \"#utility.yul\":6458:6482   */\n      tag_31\n      jump\t// in\n    tag_137:\n        /* \"#utility.yul\":6438:6483   */\n      tag_52\n      jump\t// in\n    tag_136:\n        /* \"#utility.yul\":6433:6436   */\n      dup3\n        /* \"#utility.yul\":6426:6484   */\n      mstore\n        /* \"#utility.yul\":6333:6490   */\n      pop\n      pop\n      jump\t// out\n        /* \"#utility.yul\":6496:7175   */\n    tag_19:\n        /* \"#utility.yul\":6692:6695   */\n      0x00\n        /* \"#utility.yul\":6707:6782   */\n      tag_139\n        /* \"#utility.yul\":6778:6781   */\n      dup3\n        /* \"#utility.yul\":6769:6775   */\n      dup8\n        /* \"#utility.yul\":6707:6782   */\n      tag_51\n      jump\t// in\n    tag_139:\n        /* \"#utility.yul\":6807:6809   */\n      0x14\n        /* \"#utility.yul\":6802:6805   */\n      dup3\n        /* \"#utility.yul\":6798:6810   */\n      add\n        /* \"#utility.yul\":6791:6810   */\n      swap2\n      pop\n        /* \"#utility.yul\":6820:6895   */\n      tag_140\n        /* \"#utility.yul\":6891:6894   */\n      dup3\n        /* \"#utility.yul\":6882:6888   */\n      dup7\n        /* \"#utility.yul\":6820:6895   */\n      tag_51\n      jump\t// in\n    tag_140:\n        /* \"#utility.yul\":6920:6922   */\n      0x14\n        /* \"#utility.yul\":6915:6918   */\n      dup3\n        /* \"#utility.yul\":6911:6923   */\n      add\n        /* \"#utility.yul\":6904:6923   */\n      swap2\n      pop\n        /* \"#utility.yul\":6933:7008   */\n      tag_141\n        /* \"#utility.yul\":7004:7007   */\n      dup3\n        /* \"#utility.yul\":6995:7001   */\n      dup6\n        /* \"#utility.yul\":6933:7008   */\n      tag_53\n      jump\t// in\n    tag_141:\n        /* \"#utility.yul\":7033:7035   */\n      0x20\n        /* \"#utility.yul\":7028:7031   */\n      dup3\n        /* \"#utility.yul\":7024:7036   */\n      add\n        /* \"#utility.yul\":7017:7036   */\n      swap2\n      pop\n        /* \"#utility.yul\":7046:7121   */\n      tag_142\n        /* \"#utility.yul\":7117:7120   */\n      dup3\n        /* \"#utility.yul\":7108:7114   */\n      dup5\n        /* \"#utility.yul\":7046:7121   */\n      tag_53\n      jump\t// in\n    tag_142:\n        /* \"#utility.yul\":7146:7148   */\n      0x20\n        /* \"#utility.yul\":7141:7144   */\n      dup3\n        /* \"#utility.yul\":7137:7149   */\n      add\n        /* \"#utility.yul\":7130:7149   */\n      swap2\n      pop\n        /* \"#utility.yul\":7166:7169   */\n      dup2\n        /* \"#utility.yul\":7159:7169   */\n      swap1\n      pop\n        /* \"#utility.yul\":6496:7175   */\n      swap6\n      swap5\n      pop\n      pop\n      pop\n      pop\n      pop\n      jump\t// out\n        /* \"#utility.yul\":7181:7350   */\n    tag_54:\n        /* \"#utility.yul\":7265:7276   */\n      0x00\n        /* \"#utility.yul\":7299:7305   */\n      dup3\n        /* \"#utility.yul\":7294:7297   */\n      dup3\n        /* \"#utility.yul\":7287:7306   */\n      mstore\n        /* \"#utility.yul\":7339:7343   */\n      0x20\n        /* \"#utility.yul\":7334:7337   */\n      dup3\n        /* \"#utility.yul\":7330:7344   */\n      add\n        /* \"#utility.yul\":7315:7344   */\n      swap1\n      pop\n        /* \"#utility.yul\":7181:7350   */\n      swap3\n      swap2\n      pop\n      pop\n      jump\t// out\n        /* \"#utility.yul\":7356:7530   */\n    tag_55:\n        /* \"#utility.yul\":7496:7522   */\n      0x696e76616c6964207369676e6174757265206c656e6774680000000000000000\n        /* \"#utility.yul\":7492:7493   */\n      0x00\n        /* \"#utility.yul\":7484:7490   */\n      dup3\n        /* \"#utility.yul\":7480:7494   */\n      add\n        /* \"#utility.yul\":7473:7523   */\n      mstore\n        /* \"#utility.yul\":7356:7530   */\n      pop\n      jump\t// out\n        /* \"#utility.yul\":7536:7902   */\n    tag_56:\n        /* \"#utility.yul\":7678:7681   */\n      0x00\n        /* \"#utility.yul\":7699:7766   */\n      tag_146\n        /* \"#utility.yul\":7763:7765   */\n      0x18\n        /* \"#utility.yul\":7758:7761   */\n      dup4\n        /* \"#utility.yul\":7699:7766   */\n      tag_54\n      jump\t// in\n    tag_146:\n        /* \"#utility.yul\":7692:7766   */\n      swap2\n      pop\n        /* \"#utility.yul\":7775:7868   */\n      tag_147\n        /* \"#utility.yul\":7864:7867   */\n      dup3\n        /* \"#utility.yul\":7775:7868   */\n      tag_55\n      jump\t// in\n    tag_147:\n        /* \"#utility.yul\":7893:7895   */\n      0x20\n        /* \"#utility.yul\":7888:7891   */\n      dup3\n        /* \"#utility.yul\":7884:7896   */\n      add\n        /* \"#utility.yul\":7877:7896   */\n      swap1\n      pop\n        /* \"#utility.yul\":7536:7902   */\n      swap2\n      swap1\n      pop\n      jump\t// out\n        /* \"#utility.yul\":7908:8327   */\n    tag_23:\n        /* \"#utility.yul\":8074:8078   */\n      0x00\n        /* \"#utility.yul\":8112:8114   */\n      0x20\n        /* \"#utility.yul\":8101:8110   */\n      dup3\n        /* \"#utility.yul\":8097:8115   */\n      add\n        /* \"#utility.yul\":8089:8115   */\n      swap1\n      pop\n        /* \"#utility.yul\":8161:8170   */\n      dup2\n        /* \"#utility.yul\":8155:8159   */\n      dup2\n        /* \"#utility.yul\":8151:8171   */\n      sub\n        /* \"#utility.yul\":8147:8148   */\n      0x00\n        /* \"#utility.yul\":8136:8145   */\n      dup4\n        /* \"#utility.yul\":8132:8149   */\n      add\n        /* \"#utility.yul\":8125:8172   */\n      mstore\n        /* \"#utility.yul\":8189:8320   */\n      tag_149\n        /* \"#utility.yul\":8315:8319   */\n      dup2\n        /* \"#utility.yul\":8189:8320   */\n      tag_56\n      jump\t// in\n    tag_149:\n        /* \"#utility.yul\":8181:8320   */\n      swap1\n      pop\n        /* \"#utility.yul\":7908:8327   */\n      swap2\n      swap1\n      pop\n      jump\t// out\n\n    auxdata: 0xa2646970667358221220f782bea07f5ebe57818fa4103084018279c1b49fb3e8a4d4c2c76f2812ebb65464736f6c63430008110033\n}\n",
				"bytecode": {
					"linkReferences": {},
					"object": "608060405234801561001057600080fd5b506105cd806100206000396000f3fe608060405234801561001057600080fd5b50600436106100365760003560e01c806349195b311461003b578063a7bb58031461006b575b600080fd5b610055600480360381019061005091906101e6565b61009d565b6040516100629190610266565b60405180910390f35b610085600480360381019061008091906103c7565b6100d6565b6040516100949392919061042c565b60405180910390f35b6000848484846040516020016100b694939291906104cc565b604051602081830303815290604052805190602001209050949350505050565b6000806000604184511461011f576040517f08c379a000000000000000000000000000000000000000000000000000000000815260040161011690610577565b60405180910390fd5b6020840151925060408401519150606084015160001a90509193909250565b6000604051905090565b600080fd5b600080fd5b600073ffffffffffffffffffffffffffffffffffffffff82169050919050565b600061017d82610152565b9050919050565b61018d81610172565b811461019857600080fd5b50565b6000813590506101aa81610184565b92915050565b6000819050919050565b6101c3816101b0565b81146101ce57600080fd5b50565b6000813590506101e0816101ba565b92915050565b60008060008060808587031215610200576101ff610148565b5b600061020e8782880161019b565b945050602061021f8782880161019b565b9350506040610230878288016101d1565b9250506060610241878288016101d1565b91505092959194509250565b6000819050919050565b6102608161024d565b82525050565b600060208201905061027b6000830184610257565b92915050565b600080fd5b600080fd5b6000601f19601f8301169050919050565b7f4e487b7100000000000000000000000000000000000000000000000000000000600052604160045260246000fd5b6102d48261028b565b810181811067ffffffffffffffff821117156102f3576102f261029c565b5b80604052505050565b600061030661013e565b905061031282826102cb565b919050565b600067ffffffffffffffff8211156103325761033161029c565b5b61033b8261028b565b9050602081019050919050565b82818337600083830152505050565b600061036a61036584610317565b6102fc565b90508281526020810184848401111561038657610385610286565b5b610391848285610348565b509392505050565b600082601f8301126103ae576103ad610281565b5b81356103be848260208601610357565b91505092915050565b6000602082840312156103dd576103dc610148565b5b600082013567ffffffffffffffff8111156103fb576103fa61014d565b5b61040784828501610399565b91505092915050565b600060ff82169050919050565b61042681610410565b82525050565b60006060820190506104416000830186610257565b61044e6020830185610257565b61045b604083018461041d565b949350505050565b60008160601b9050919050565b600061047b82610463565b9050919050565b600061048d82610470565b9050919050565b6104a56104a082610172565b610482565b82525050565b6000819050919050565b6104c66104c1826101b0565b6104ab565b82525050565b60006104d88287610494565b6014820191506104e88286610494565b6014820191506104f882856104b5565b60208201915061050882846104b5565b60208201915081905095945050505050565b600082825260208201905092915050565b7f696e76616c6964207369676e6174757265206c656e6774680000000000000000600082015250565b600061056160188361051a565b915061056c8261052b565b602082019050919050565b6000602082019050818103600083015261059081610554565b905091905056fea2646970667358221220f782bea07f5ebe57818fa4103084018279c1b49fb3e8a4d4c2c76f2812ebb65464736f6c63430008110033",
					"opcodes": "PUSH1 0x80 PUSH1 0x40 MSTORE CALLVALUE DUP1 ISZERO PUSH2 0x10 JUMPI PUSH1 0x0 DUP1 REVERT JUMPDEST POP PUSH2 0x5CD DUP1 PUSH2 0x20 PUSH1 0x0 CODECOPY PUSH1 0x0 RETURN INVALID PUSH1 0x80 PUSH1 0x40 MSTORE CALLVALUE DUP1 ISZERO PUSH2 0x10 JUMPI PUSH1 0x0 DUP1 REVERT JUMPDEST POP PUSH1 0x4 CALLDATASIZE LT PUSH2 0x36 JUMPI PUSH1 0x0 CALLDATALOAD PUSH1 0xE0 SHR DUP1 PUSH4 0x49195B31 EQ PUSH2 0x3B JUMPI DUP1 PUSH4 0xA7BB5803 EQ PUSH2 0x6B JUMPI JUMPDEST PUSH1 0x0 DUP1 REVERT JUMPDEST PUSH2 0x55 PUSH1 0x4 DUP1 CALLDATASIZE SUB DUP2 ADD SWAP1 PUSH2 0x50 SWAP2 SWAP1 PUSH2 0x1E6 JUMP JUMPDEST PUSH2 0x9D JUMP JUMPDEST PUSH1 0x40 MLOAD PUSH2 0x62 SWAP2 SWAP1 PUSH2 0x266 JUMP JUMPDEST PUSH1 0x40 MLOAD DUP1 SWAP2 SUB SWAP1 RETURN JUMPDEST PUSH2 0x85 PUSH1 0x4 DUP1 CALLDATASIZE SUB DUP2 ADD SWAP1 PUSH2 0x80 SWAP2 SWAP1 PUSH2 0x3C7 JUMP JUMPDEST PUSH2 0xD6 JUMP JUMPDEST PUSH1 0x40 MLOAD PUSH2 0x94 SWAP4 SWAP3 SWAP2 SWAP1 PUSH2 0x42C JUMP JUMPDEST PUSH1 0x40 MLOAD DUP1 SWAP2 SUB SWAP1 RETURN JUMPDEST PUSH1 0x0 DUP5 DUP5 DUP5 DUP5 PUSH1 0x40 MLOAD PUSH1 0x20 ADD PUSH2 0xB6 SWAP5 SWAP4 SWAP3 SWAP2 SWAP1 PUSH2 0x4CC JUMP JUMPDEST PUSH1 0x40 MLOAD PUSH1 0x20 DUP2 DUP4 SUB SUB DUP2 MSTORE SWAP1 PUSH1 0x40 MSTORE DUP1 MLOAD SWAP1 PUSH1 0x20 ADD KECCAK256 SWAP1 POP SWAP5 SWAP4 POP POP POP POP JUMP JUMPDEST PUSH1 0x0 DUP1 PUSH1 0x0 PUSH1 0x41 DUP5 MLOAD EQ PUSH2 0x11F JUMPI PUSH1 0x40 MLOAD PUSH32 0x8C379A000000000000000000000000000000000000000000000000000000000 DUP2 MSTORE PUSH1 0x4 ADD PUSH2 0x116 SWAP1 PUSH2 0x577 JUMP JUMPDEST PUSH1 0x40 MLOAD DUP1 SWAP2 SUB SWAP1 REVERT JUMPDEST PUSH1 0x20 DUP5 ADD MLOAD SWAP3 POP PUSH1 0x40 DUP5 ADD MLOAD SWAP2 POP PUSH1 0x60 DUP5 ADD MLOAD PUSH1 0x0 BYTE SWAP1 POP SWAP2 SWAP4 SWAP1 SWAP3 POP JUMP JUMPDEST PUSH1 0x0 PUSH1 0x40 MLOAD SWAP1 POP SWAP1 JUMP JUMPDEST PUSH1 0x0 DUP1 REVERT JUMPDEST PUSH1 0x0 DUP1 REVERT JUMPDEST PUSH1 0x0 PUSH20 0xFFFFFFFFFFFFFFFFFFFFFFFFFFFFFFFFFFFFFFFF DUP3 AND SWAP1 POP SWAP2 SWAP1 POP JUMP JUMPDEST PUSH1 0x0 PUSH2 0x17D DUP3 PUSH2 0x152 JUMP JUMPDEST SWAP1 POP SWAP2 SWAP1 POP JUMP JUMPDEST PUSH2 0x18D DUP2 PUSH2 0x172 JUMP JUMPDEST DUP2 EQ PUSH2 0x198 JUMPI PUSH1 0x0 DUP1 REVERT JUMPDEST POP JUMP JUMPDEST PUSH1 0x0 DUP2 CALLDATALOAD SWAP1 POP PUSH2 0x1AA DUP2 PUSH2 0x184 JUMP JUMPDEST SWAP3 SWAP2 POP POP JUMP JUMPDEST PUSH1 0x0 DUP2 SWAP1 POP SWAP2 SWAP1 POP JUMP JUMPDEST PUSH2 0x1C3 DUP2 PUSH2 0x1B0 JUMP JUMPDEST DUP2 EQ PUSH2 0x1CE JUMPI PUSH1 0x0 DUP1 REVERT JUMPDEST POP JUMP JUMPDEST PUSH1 0x0 DUP2 CALLDATALOAD SWAP1 POP PUSH2 0x1E0 DUP2 PUSH2 0x1BA JUMP JUMPDEST SWAP3 SWAP2 POP POP JUMP JUMPDEST PUSH1 0x0 DUP1 PUSH1 0x0 DUP1 PUSH1 0x80 DUP6 DUP8 SUB SLT ISZERO PUSH2 0x200 JUMPI PUSH2 0x1FF PUSH2 0x148 JUMP JUMPDEST JUMPDEST PUSH1 0x0 PUSH2 0x20E DUP8 DUP3 DUP9 ADD PUSH2 0x19B JUMP JUMPDEST SWAP5 POP POP PUSH1 0x20 PUSH2 0x21F DUP8 DUP3 DUP9 ADD PUSH2 0x19B JUMP JUMPDEST SWAP4 POP POP PUSH1 0x40 PUSH2 0x230 DUP8 DUP3 DUP9 ADD PUSH2 0x1D1 JUMP JUMPDEST SWAP3 POP POP PUSH1 0x60 PUSH2 0x241 DUP8 DUP3 DUP9 ADD PUSH2 0x1D1 JUMP JUMPDEST SWAP2 POP POP SWAP3 SWAP6 SWAP2 SWAP5 POP SWAP3 POP JUMP JUMPDEST PUSH1 0x0 DUP2 SWAP1 POP SWAP2 SWAP1 POP JUMP JUMPDEST PUSH2 0x260 DUP2 PUSH2 0x24D JUMP JUMPDEST DUP3 MSTORE POP POP JUMP JUMPDEST PUSH1 0x0 PUSH1 0x20 DUP3 ADD SWAP1 POP PUSH2 0x27B PUSH1 0x0 DUP4 ADD DUP5 PUSH2 0x257 JUMP JUMPDEST SWAP3 SWAP2 POP POP JUMP JUMPDEST PUSH1 0x0 DUP1 REVERT JUMPDEST PUSH1 0x0 DUP1 REVERT JUMPDEST PUSH1 0x0 PUSH1 0x1F NOT PUSH1 0x1F DUP4 ADD AND SWAP1 POP SWAP2 SWAP1 POP JUMP JUMPDEST PUSH32 0x4E487B7100000000000000000000000000000000000000000000000000000000 PUSH1 0x0 MSTORE PUSH1 0x41 PUSH1 0x4 MSTORE PUSH1 0x24 PUSH1 0x0 REVERT JUMPDEST PUSH2 0x2D4 DUP3 PUSH2 0x28B JUMP JUMPDEST DUP2 ADD DUP2 DUP2 LT PUSH8 0xFFFFFFFFFFFFFFFF DUP3 GT OR ISZERO PUSH2 0x2F3 JUMPI PUSH2 0x2F2 PUSH2 0x29C JUMP JUMPDEST JUMPDEST DUP1 PUSH1 0x40 MSTORE POP POP POP JUMP JUMPDEST PUSH1 0x0 PUSH2 0x306 PUSH2 0x13E JUMP JUMPDEST SWAP1 POP PUSH2 0x312 DUP3 DUP3 PUSH2 0x2CB JUMP JUMPDEST SWAP2 SWAP1 POP JUMP JUMPDEST PUSH1 0x0 PUSH8 0xFFFFFFFFFFFFFFFF DUP3 GT ISZERO PUSH2 0x332 JUMPI PUSH2 0x331 PUSH2 0x29C JUMP JUMPDEST JUMPDEST PUSH2 0x33B DUP3 PUSH2 0x28B JUMP JUMPDEST SWAP1 POP PUSH1 0x20 DUP2 ADD SWAP1 POP SWAP2 SWAP1 POP JUMP JUMPDEST DUP3 DUP2 DUP4 CALLDATACOPY PUSH1 0x0 DUP4 DUP4 ADD MSTORE POP POP POP JUMP JUMPDEST PUSH1 0x0 PUSH2 0x36A PUSH2 0x365 DUP5 PUSH2 0x317 JUMP JUMPDEST PUSH2 0x2FC JUMP JUMPDEST SWAP1 POP DUP3 DUP2 MSTORE PUSH1 0x20 DUP2 ADD DUP5 DUP5 DUP5 ADD GT ISZERO PUSH2 0x386 JUMPI PUSH2 0x385 PUSH2 0x286 JUMP JUMPDEST JUMPDEST PUSH2 0x391 DUP5 DUP3 DUP6 PUSH2 0x348 JUMP JUMPDEST POP SWAP4 SWAP3 POP POP POP JUMP JUMPDEST PUSH1 0x0 DUP3 PUSH1 0x1F DUP4 ADD SLT PUSH2 0x3AE JUMPI PUSH2 0x3AD PUSH2 0x281 JUMP JUMPDEST JUMPDEST DUP2 CALLDATALOAD PUSH2 0x3BE DUP5 DUP3 PUSH1 0x20 DUP7 ADD PUSH2 0x357 JUMP JUMPDEST SWAP2 POP POP SWAP3 SWAP2 POP POP JUMP JUMPDEST PUSH1 0x0 PUSH1 0x20 DUP3 DUP5 SUB SLT ISZERO PUSH2 0x3DD JUMPI PUSH2 0x3DC PUSH2 0x148 JUMP JUMPDEST JUMPDEST PUSH1 0x0 DUP3 ADD CALLDATALOAD PUSH8 0xFFFFFFFFFFFFFFFF DUP2 GT ISZERO PUSH2 0x3FB JUMPI PUSH2 0x3FA PUSH2 0x14D JUMP JUMPDEST JUMPDEST PUSH2 0x407 DUP5 DUP3 DUP6 ADD PUSH2 0x399 JUMP JUMPDEST SWAP2 POP POP SWAP3 SWAP2 POP POP JUMP JUMPDEST PUSH1 0x0 PUSH1 0xFF DUP3 AND SWAP1 POP SWAP2 SWAP1 POP JUMP JUMPDEST PUSH2 0x426 DUP2 PUSH2 0x410 JUMP JUMPDEST DUP3 MSTORE POP POP JUMP JUMPDEST PUSH1 0x0 PUSH1 0x60 DUP3 ADD SWAP1 POP PUSH2 0x441 PUSH1 0x0 DUP4 ADD DUP7 PUSH2 0x257 JUMP JUMPDEST PUSH2 0x44E PUSH1 0x20 DUP4 ADD DUP6 PUSH2 0x257 JUMP JUMPDEST PUSH2 0x45B PUSH1 0x40 DUP4 ADD DUP5 PUSH2 0x41D JUMP JUMPDEST SWAP5 SWAP4 POP POP POP POP JUMP JUMPDEST PUSH1 0x0 DUP2 PUSH1 0x60 SHL SWAP1 POP SWAP2 SWAP1 POP JUMP JUMPDEST PUSH1 0x0 PUSH2 0x47B DUP3 PUSH2 0x463 JUMP JUMPDEST SWAP1 POP SWAP2 SWAP1 POP JUMP JUMPDEST PUSH1 0x0 PUSH2 0x48D DUP3 PUSH2 0x470 JUMP JUMPDEST SWAP1 POP SWAP2 SWAP1 POP JUMP JUMPDEST PUSH2 0x4A5 PUSH2 0x4A0 DUP3 PUSH2 0x172 JUMP JUMPDEST PUSH2 0x482 JUMP JUMPDEST DUP3 MSTORE POP POP JUMP JUMPDEST PUSH1 0x0 DUP2 SWAP1 POP SWAP2 SWAP1 POP JUMP JUMPDEST PUSH2 0x4C6 PUSH2 0x4C1 DUP3 PUSH2 0x1B0 JUMP JUMPDEST PUSH2 0x4AB JUMP JUMPDEST DUP3 MSTORE POP POP JUMP JUMPDEST PUSH1 0x0 PUSH2 0x4D8 DUP3 DUP8 PUSH2 0x494 JUMP JUMPDEST PUSH1 0x14 DUP3 ADD SWAP2 POP PUSH2 0x4E8 DUP3 DUP7 PUSH2 0x494 JUMP JUMPDEST PUSH1 0x14 DUP3 ADD SWAP2 POP PUSH2 0x4F8 DUP3 DUP6 PUSH2 0x4B5 JUMP JUMPDEST PUSH1 0x20 DUP3 ADD SWAP2 POP PUSH2 0x508 DUP3 DUP5 PUSH2 0x4B5 JUMP JUMPDEST PUSH1 0x20 DUP3 ADD SWAP2 POP DUP2 SWAP1 POP SWAP6 SWAP5 POP POP POP POP POP JUMP JUMPDEST PUSH1 0x0 DUP3 DUP3 MSTORE PUSH1 0x20 DUP3 ADD SWAP1 POP SWAP3 SWAP2 POP POP JUMP JUMPDEST PUSH32 0x696E76616C6964207369676E6174757265206C656E6774680000000000000000 PUSH1 0x0 DUP3 ADD MSTORE POP JUMP JUMPDEST PUSH1 0x0 PUSH2 0x561 PUSH1 0x18 DUP4 PUSH2 0x51A JUMP JUMPDEST SWAP2 POP PUSH2 0x56C DUP3 PUSH2 0x52B JUMP JUMPDEST PUSH1 0x20 DUP3 ADD SWAP1 POP SWAP2 SWAP1 POP JUMP JUMPDEST PUSH1 0x0 PUSH1 0x20 DUP3 ADD SWAP1 POP DUP2 DUP2 SUB PUSH1 0x0 DUP4 ADD MSTORE PUSH2 0x590 DUP2 PUSH2 0x554 JUMP JUMPDEST SWAP1 POP SWAP2 SWAP1 POP JUMP INVALID LOG2 PUSH5 0x6970667358 0x22 SLT KECCAK256 0xF7 DUP3 0xBE LOG0 PUSH32 0x5EBE57818FA4103084018279C1B49FB3E8A4D4C2C76F2812EBB65464736F6C63 NUMBER STOP ADDMOD GT STOP CALLER "
				},
				"gasEstimates": {
					"creation": {
						"codeDepositCost": "297000",
						"executionCost": "337",
						"totalCost": "297337"
					},
					"external": {
						"getPermitMessageHash(address,address,uint256,uint256)": "infinite",
						"splitSignature(bytes)": "infinite"
					}
				},
				"methodIdentifiers": {
					"getPermitMessageHash(address,address,uint256,uint256)": "49195b31",
					"splitSignature(bytes)": "a7bb5803"
				}
			},
			"storageLayout": {
				"storage": [],
				"types": null
			},
			"userdoc": {
				"kind": "user",
				"methods": {},
				"version": 1
			}
		}
	}
}