{
	"CONTRACTS/VerifySignature.sol": {
		"VerifySignature": {
			"abi": [
				{
					"inputs": [
						{
							"internalType": "address",
							"name": "_owner",
							"type": "address"
						},
						{
							"internalType": "address",
							"name": "_spender",
							"type": "address"
						},
						{
							"internalType": "uint256",
							"name": "_value",
							"type": "uint256"
						},
						{
							"internalType": "uint256",
							"name": "_deadline",
							"type": "uint256"
						}
					],
					"name": "getMessageHash",
					"outputs": [
						{
							"internalType": "bytes32",
							"name": "",
							"type": "bytes32"
						}
					],
					"stateMutability": "pure",
					"type": "function"
				},
				{
					"inputs": [
						{
							"internalType": "bytes",
							"name": "signature",
							"type": "bytes"
						}
					],
					"name": "splitSignature",
					"outputs": [
						{
							"internalType": "bytes32",
							"name": "r",
							"type": "bytes32"
						},
						{
							"internalType": "bytes32",
							"name": "s",
							"type": "bytes32"
						},
						{
							"internalType": "uint8",
							"name": "v",
							"type": "uint8"
						}
					],
					"stateMutability": "pure",
					"type": "function"
				}
			],
			"devdoc": {
				"kind": "dev",
				"methods": {},
				"version": 1
			},
			"evm": {
				"assembly": "    /* \"CONTRACTS/VerifySignature.sol\":55:870  contract VerifySignature {... */\n  mstore(0x40, 0x80)\n  callvalue\n  dup1\n  iszero\n  tag_1\n  jumpi\n  0x00\n  dup1\n  revert\ntag_1:\n  pop\n  dataSize(sub_0)\n  dup1\n  dataOffset(sub_0)\n  0x00\n  codecopy\n  0x00\n  return\nstop\n\nsub_0: assembly {\n        /* \"CONTRACTS/VerifySignature.sol\":55:870  contract VerifySignature {... */\n      mstore(0x40, 0x80)\n      callvalue\n      dup1\n      iszero\n      tag_1\n      jumpi\n      0x00\n      dup1\n      revert\n    tag_1:\n      pop\n      jumpi(tag_2, lt(calldatasize, 0x04))\n      shr(0xe0, calldataload(0x00))\n      dup1\n      0x0b71a0b7\n      eq\n      tag_3\n      jumpi\n      dup1\n      0xa7bb5803\n      eq\n      tag_4\n      jumpi\n    tag_2:\n      0x00\n      dup1\n      revert\n        /* \"CONTRACTS/VerifySignature.sol\":136:393  function getMessageHash(... */\n    tag_3:\n      tag_5\n      0x04\n      dup1\n      calldatasize\n      sub\n      dup2\n      add\n      swap1\n      tag_6\n      swap2\n      swap1\n      tag_7\n      jump\t// in\n    tag_6:\n      tag_8\n      jump\t// in\n    tag_5:\n      mload(0x40)\n      tag_9\n      swap2\n      swap1\n      tag_10\n      jump\t// in\n    tag_9:\n      mload(0x40)\n      dup1\n      swap2\n      sub\n      swap1\n      return\n        /* \"CONTRACTS/VerifySignature.sol\":447:864  function splitSignature(bytes memory signature)... */\n    tag_4:\n      tag_11\n      0x04\n      dup1\n      calldatasize\n      sub\n      dup2\n      add\n      swap1\n      tag_12\n      swap2\n      swap1\n      tag_13\n      jump\t// in\n    tag_12:\n      tag_14\n      jump\t// in\n    tag_11:\n      mload(0x40)\n      tag_15\n      swap4\n      swap3\n      swap2\n      swap1\n      tag_16\n      jump\t// in\n    tag_15:\n      mload(0x40)\n      dup1\n      swap2\n      sub\n      swap1\n      return\n        /* \"CONTRACTS/VerifySignature.sol\":136:393  function getMessageHash(... */\n    tag_8:\n        /* \"CONTRACTS/VerifySignature.sol\":296:303  bytes32 */\n      0x00\n        /* \"CONTRACTS/VerifySignature.sol\":349:355  _owner */\n      dup5\n        /* \"CONTRACTS/VerifySignature.sol\":357:365  _spender */\n      dup5\n        /* \"CONTRACTS/VerifySignature.sol\":367:373  _value */\n      dup5\n        /* \"CONTRACTS/VerifySignature.sol\":375:384  _deadline */\n      dup5\n        /* \"CONTRACTS/VerifySignature.sol\":332:385  abi.encodePacked(_owner, _spender, _value, _deadline) */\n      add(0x20, mload(0x40))\n      tag_18\n      swap5\n      swap4\n      swap3\n      swap2\n      swap1\n      tag_19\n      jump\t// in\n    tag_18:\n      mload(0x40)\n      0x20\n      dup2\n      dup4\n      sub\n      sub\n      dup2\n      mstore\n      swap1\n      0x40\n      mstore\n        /* \"CONTRACTS/VerifySignature.sol\":322:386  keccak256(abi.encodePacked(_owner, _spender, _value, _deadline)) */\n      dup1\n      mload\n      swap1\n      0x20\n      add\n      keccak256\n        /* \"CONTRACTS/VerifySignature.sol\":315:386  return keccak256(abi.encodePacked(_owner, _spender, _value, _deadline)) */\n      swap1\n      pop\n        /* \"CONTRACTS/VerifySignature.sol\":136:393  function getMessageHash(... */\n      swap5\n      swap4\n      pop\n      pop\n      pop\n      pop\n      jump\t// out\n        /* \"CONTRACTS/VerifySignature.sol\":447:864  function splitSignature(bytes memory signature)... */\n    tag_14:\n        /* \"CONTRACTS/VerifySignature.sol\":553:562  bytes32 r */\n      0x00\n        /* \"CONTRACTS/VerifySignature.sol\":576:585  bytes32 s */\n      dup1\n        /* \"CONTRACTS/VerifySignature.sol\":599:606  uint8 v */\n      0x00\n        /* \"CONTRACTS/VerifySignature.sol\":658:660  65 */\n      0x41\n        /* \"CONTRACTS/VerifySignature.sol\":638:647  signature */\n      dup5\n        /* \"CONTRACTS/VerifySignature.sol\":638:654  signature.length */\n      mload\n        /* \"CONTRACTS/VerifySignature.sol\":638:660  signature.length == 65 */\n      eq\n        /* \"CONTRACTS/VerifySignature.sol\":630:689  require(signature.length == 65, \"invalid signature length\") */\n      tag_21\n      jumpi\n      mload(0x40)\n      0x08c379a000000000000000000000000000000000000000000000000000000000\n      dup2\n      mstore\n      0x04\n      add\n      tag_22\n      swap1\n      tag_23\n      jump\t// in\n    tag_22:\n      mload(0x40)\n      dup1\n      swap2\n      sub\n      swap1\n      revert\n    tag_21:\n        /* \"CONTRACTS/VerifySignature.sol\":749:751  32 */\n      0x20\n        /* \"CONTRACTS/VerifySignature.sol\":738:747  signature */\n      dup5\n        /* \"CONTRACTS/VerifySignature.sol\":734:752  add(signature, 32) */\n      add\n        /* \"CONTRACTS/VerifySignature.sol\":728:753  mload(add(signature, 32)) */\n      mload\n        /* \"CONTRACTS/VerifySignature.sol\":723:753  r := mload(add(signature, 32)) */\n      swap3\n      pop\n        /* \"CONTRACTS/VerifySignature.sol\":792:794  64 */\n      0x40\n        /* \"CONTRACTS/VerifySignature.sol\":781:790  signature */\n      dup5\n        /* \"CONTRACTS/VerifySignature.sol\":777:795  add(signature, 64) */\n      add\n        /* \"CONTRACTS/VerifySignature.sol\":771:796  mload(add(signature, 64)) */\n      mload\n        /* \"CONTRACTS/VerifySignature.sol\":766:796  s := mload(add(signature, 64)) */\n      swap2\n      pop\n        /* \"CONTRACTS/VerifySignature.sol\":843:845  96 */\n      0x60\n        /* \"CONTRACTS/VerifySignature.sol\":832:841  signature */\n      dup5\n        /* \"CONTRACTS/VerifySignature.sol\":828:846  add(signature, 96) */\n      add\n        /* \"CONTRACTS/VerifySignature.sol\":822:847  mload(add(signature, 96)) */\n      mload\n        /* \"CONTRACTS/VerifySignature.sol\":819:820  0 */\n      0x00\n        /* \"CONTRACTS/VerifySignature.sol\":814:848  byte(0, mload(add(signature, 96))) */\n      byte\n        /* \"CONTRACTS/VerifySignature.sol\":809:848  v := byte(0, mload(add(signature, 96))) */\n      swap1\n      pop\n        /* \"CONTRACTS/VerifySignature.sol\":447:864  function splitSignature(bytes memory signature)... */\n      swap2\n      swap4\n      swap1\n      swap3\n      pop\n      jump\t// out\n        /* \"#utility.yul\":7:417   */\n    tag_25:\n        /* \"#utility.yul\":84:89   */\n      0x00\n        /* \"#utility.yul\":109:174   */\n      tag_27\n        /* \"#utility.yul\":125:173   */\n      tag_28\n        /* \"#utility.yul\":166:172   */\n      dup5\n        /* \"#utility.yul\":125:173   */\n      tag_29\n      jump\t// in\n    tag_28:\n        /* \"#utility.yul\":109:174   */\n      tag_30\n      jump\t// in\n    tag_27:\n        /* \"#utility.yul\":100:174   */\n      swap1\n      pop\n        /* \"#utility.yul\":197:203   */\n      dup3\n        /* \"#utility.yul\":190:195   */\n      dup2\n        /* \"#utility.yul\":183:204   */\n      mstore\n        /* \"#utility.yul\":235:239   */\n      0x20\n        /* \"#utility.yul\":228:233   */\n      dup2\n        /* \"#utility.yul\":224:240   */\n      add\n        /* \"#utility.yul\":273:276   */\n      dup5\n        /* \"#utility.yul\":264:270   */\n      dup5\n        /* \"#utility.yul\":259:262   */\n      dup5\n        /* \"#utility.yul\":255:271   */\n      add\n        /* \"#utility.yul\":252:277   */\n      gt\n        /* \"#utility.yul\":249:361   */\n      iszero\n      tag_31\n      jumpi\n        /* \"#utility.yul\":280:359   */\n      tag_32\n      tag_33\n      jump\t// in\n    tag_32:\n        /* \"#utility.yul\":249:361   */\n    tag_31:\n        /* \"#utility.yul\":370:411   */\n      tag_34\n        /* \"#utility.yul\":404:410   */\n      dup5\n        /* \"#utility.yul\":399:402   */\n      dup3\n        /* \"#utility.yul\":394:397   */\n      dup6\n        /* \"#utility.yul\":370:411   */\n      tag_35\n      jump\t// in\n    tag_34:\n        /* \"#utility.yul\":90:417   */\n      pop\n        /* \"#utility.yul\":7:417   */\n      swap4\n      swap3\n      pop\n      pop\n      pop\n      jump\t// out\n        /* \"#utility.yul\":423:562   */\n    tag_36:\n        /* \"#utility.yul\":469:474   */\n      0x00\n        /* \"#utility.yul\":507:513   */\n      dup2\n        /* \"#utility.yul\":494:514   */\n      calldataload\n        /* \"#utility.yul\":485:514   */\n      swap1\n      pop\n        /* \"#utility.yul\":523:556   */\n      tag_38\n        /* \"#utility.yul\":550:555   */\n      dup2\n        /* \"#utility.yul\":523:556   */\n      tag_39\n      jump\t// in\n    tag_38:\n        /* \"#utility.yul\":423:562   */\n      swap3\n      swap2\n      pop\n      pop\n      jump\t// out\n        /* \"#utility.yul\":581:919   */\n    tag_40:\n        /* \"#utility.yul\":636:641   */\n      0x00\n        /* \"#utility.yul\":685:688   */\n      dup3\n        /* \"#utility.yul\":678:682   */\n      0x1f\n        /* \"#utility.yul\":670:676   */\n      dup4\n        /* \"#utility.yul\":666:683   */\n      add\n        /* \"#utility.yul\":662:689   */\n      slt\n        /* \"#utility.yul\":652:774   */\n      tag_42\n      jumpi\n        /* \"#utility.yul\":693:772   */\n      tag_43\n      tag_44\n      jump\t// in\n    tag_43:\n        /* \"#utility.yul\":652:774   */\n    tag_42:\n        /* \"#utility.yul\":810:816   */\n      dup2\n        /* \"#utility.yul\":797:817   */\n      calldataload\n        /* \"#utility.yul\":835:913   */\n      tag_45\n        /* \"#utility.yul\":909:912   */\n      dup5\n        /* \"#utility.yul\":901:907   */\n      dup3\n        /* \"#utility.yul\":894:898   */\n      0x20\n        /* \"#utility.yul\":886:892   */\n      dup7\n        /* \"#utility.yul\":882:899   */\n      add\n        /* \"#utility.yul\":835:913   */\n      tag_25\n      jump\t// in\n    tag_45:\n        /* \"#utility.yul\":826:913   */\n      swap2\n      pop\n        /* \"#utility.yul\":642:919   */\n      pop\n        /* \"#utility.yul\":581:919   */\n      swap3\n      swap2\n      pop\n      pop\n      jump\t// out\n        /* \"#utility.yul\":925:1064   */\n    tag_46:\n        /* \"#utility.yul\":971:976   */\n      0x00\n        /* \"#utility.yul\":1009:1015   */\n      dup2\n        /* \"#utility.yul\":996:1016   */\n      calldataload\n        /* \"#utility.yul\":987:1016   */\n      swap1\n      pop\n        /* \"#utility.yul\":1025:1058   */\n      tag_48\n        /* \"#utility.yul\":1052:1057   */\n      dup2\n        /* \"#utility.yul\":1025:1058   */\n      tag_49\n      jump\t// in\n    tag_48:\n        /* \"#utility.yul\":925:1064   */\n      swap3\n      swap2\n      pop\n      pop\n      jump\t// out\n        /* \"#utility.yul\":1070:1835   */\n    tag_7:\n        /* \"#utility.yul\":1156:1162   */\n      0x00\n        /* \"#utility.yul\":1164:1170   */\n      dup1\n        /* \"#utility.yul\":1172:1178   */\n      0x00\n        /* \"#utility.yul\":1180:1186   */\n      dup1\n        /* \"#utility.yul\":1229:1232   */\n      0x80\n        /* \"#utility.yul\":1217:1226   */\n      dup6\n        /* \"#utility.yul\":1208:1215   */\n      dup8\n        /* \"#utility.yul\":1204:1227   */\n      sub\n        /* \"#utility.yul\":1200:1233   */\n      slt\n        /* \"#utility.yul\":1197:1317   */\n      iszero\n      tag_51\n      jumpi\n        /* \"#utility.yul\":1236:1315   */\n      tag_52\n      tag_53\n      jump\t// in\n    tag_52:\n        /* \"#utility.yul\":1197:1317   */\n    tag_51:\n        /* \"#utility.yul\":1356:1357   */\n      0x00\n        /* \"#utility.yul\":1381:1434   */\n      tag_54\n        /* \"#utility.yul\":1426:1433   */\n      dup8\n        /* \"#utility.yul\":1417:1423   */\n      dup3\n        /* \"#utility.yul\":1406:1415   */\n      dup9\n        /* \"#utility.yul\":1402:1424   */\n      add\n        /* \"#utility.yul\":1381:1434   */\n      tag_36\n      jump\t// in\n    tag_54:\n        /* \"#utility.yul\":1371:1434   */\n      swap5\n      pop\n        /* \"#utility.yul\":1327:1444   */\n      pop\n        /* \"#utility.yul\":1483:1485   */\n      0x20\n        /* \"#utility.yul\":1509:1562   */\n      tag_55\n        /* \"#utility.yul\":1554:1561   */\n      dup8\n        /* \"#utility.yul\":1545:1551   */\n      dup3\n        /* \"#utility.yul\":1534:1543   */\n      dup9\n        /* \"#utility.yul\":1530:1552   */\n      add\n        /* \"#utility.yul\":1509:1562   */\n      tag_36\n      jump\t// in\n    tag_55:\n        /* \"#utility.yul\":1499:1562   */\n      swap4\n      pop\n        /* \"#utility.yul\":1454:1572   */\n      pop\n        /* \"#utility.yul\":1611:1613   */\n      0x40\n        /* \"#utility.yul\":1637:1690   */\n      tag_56\n        /* \"#utility.yul\":1682:1689   */\n      dup8\n        /* \"#utility.yul\":1673:1679   */\n      dup3\n        /* \"#utility.yul\":1662:1671   */\n      dup9\n        /* \"#utility.yul\":1658:1680   */\n      add\n        /* \"#utility.yul\":1637:1690   */\n      tag_46\n      jump\t// in\n    tag_56:\n        /* \"#utility.yul\":1627:1690   */\n      swap3\n      pop\n        /* \"#utility.yul\":1582:1700   */\n      pop\n        /* \"#utility.yul\":1739:1741   */\n      0x60\n        /* \"#utility.yul\":1765:1818   */\n      tag_57\n        /* \"#utility.yul\":1810:1817   */\n      dup8\n        /* \"#utility.yul\":1801:1807   */\n      dup3\n        /* \"#utility.yul\":1790:1799   */\n      dup9\n        /* \"#utility.yul\":1786:1808   */\n      add\n        /* \"#utility.yul\":1765:1818   */\n      tag_46\n      jump\t// in\n    tag_57:\n        /* \"#utility.yul\":1755:1818   */\n      swap2\n      pop\n        /* \"#utility.yul\":1710:1828   */\n      pop\n        /* \"#utility.yul\":1070:1835   */\n      swap3\n      swap6\n      swap2\n      swap5\n      pop\n      swap3\n      pop\n      jump\t// out\n        /* \"#utility.yul\":1841:2348   */\n    tag_13:\n        /* \"#utility.yul\":1909:1915   */\n      0x00\n        /* \"#utility.yul\":1958:1960   */\n      0x20\n        /* \"#utility.yul\":1946:1955   */\n      dup3\n        /* \"#utility.yul\":1937:1944   */\n      dup5\n        /* \"#utility.yul\":1933:1956   */\n      sub\n        /* \"#utility.yul\":1929:1961   */\n      slt\n        /* \"#utility.yul\":1926:2045   */\n      iszero\n      tag_59\n      jumpi\n        /* \"#utility.yul\":1964:2043   */\n      tag_60\n      tag_53\n      jump\t// in\n    tag_60:\n        /* \"#utility.yul\":1926:2045   */\n    tag_59:\n        /* \"#utility.yul\":2112:2113   */\n      0x00\n        /* \"#utility.yul\":2101:2110   */\n      dup3\n        /* \"#utility.yul\":2097:2114   */\n      add\n        /* \"#utility.yul\":2084:2115   */\n      calldataload\n        /* \"#utility.yul\":2142:2160   */\n      0xffffffffffffffff\n        /* \"#utility.yul\":2134:2140   */\n      dup2\n        /* \"#utility.yul\":2131:2161   */\n      gt\n        /* \"#utility.yul\":2128:2245   */\n      iszero\n      tag_61\n      jumpi\n        /* \"#utility.yul\":2164:2243   */\n      tag_62\n      tag_63\n      jump\t// in\n    tag_62:\n        /* \"#utility.yul\":2128:2245   */\n    tag_61:\n        /* \"#utility.yul\":2269:2331   */\n      tag_64\n        /* \"#utility.yul\":2323:2330   */\n      dup5\n        /* \"#utility.yul\":2314:2320   */\n      dup3\n        /* \"#utility.yul\":2303:2312   */\n      dup6\n        /* \"#utility.yul\":2299:2321   */\n      add\n        /* \"#utility.yul\":2269:2331   */\n      tag_40\n      jump\t// in\n    tag_64:\n        /* \"#utility.yul\":2259:2331   */\n      swap2\n      pop\n        /* \"#utility.yul\":2055:2341   */\n      pop\n        /* \"#utility.yul\":1841:2348   */\n      swap3\n      swap2\n      pop\n      pop\n      jump\t// out\n        /* \"#utility.yul\":2354:2511   */\n    tag_65:\n        /* \"#utility.yul\":2459:2504   */\n      tag_67\n        /* \"#utility.yul\":2479:2503   */\n      tag_68\n        /* \"#utility.yul\":2497:2502   */\n      dup3\n        /* \"#utility.yul\":2479:2503   */\n      tag_69\n      jump\t// in\n    tag_68:\n        /* \"#utility.yul\":2459:2504   */\n      tag_70\n      jump\t// in\n    tag_67:\n        /* \"#utility.yul\":2454:2457   */\n      dup3\n        /* \"#utility.yul\":2447:2505   */\n      mstore\n        /* \"#utility.yul\":2354:2511   */\n      pop\n      pop\n      jump\t// out\n        /* \"#utility.yul\":2517:2635   */\n    tag_71:\n        /* \"#utility.yul\":2604:2628   */\n      tag_73\n        /* \"#utility.yul\":2622:2627   */\n      dup2\n        /* \"#utility.yul\":2604:2628   */\n      tag_74\n      jump\t// in\n    tag_73:\n        /* \"#utility.yul\":2599:2602   */\n      dup3\n        /* \"#utility.yul\":2592:2629   */\n      mstore\n        /* \"#utility.yul\":2517:2635   */\n      pop\n      pop\n      jump\t// out\n        /* \"#utility.yul\":2641:3007   */\n    tag_75:\n        /* \"#utility.yul\":2783:2786   */\n      0x00\n        /* \"#utility.yul\":2804:2871   */\n      tag_77\n        /* \"#utility.yul\":2868:2870   */\n      0x18\n        /* \"#utility.yul\":2863:2866   */\n      dup4\n        /* \"#utility.yul\":2804:2871   */\n      tag_78\n      jump\t// in\n    tag_77:\n        /* \"#utility.yul\":2797:2871   */\n      swap2\n      pop\n        /* \"#utility.yul\":2880:2973   */\n      tag_79\n        /* \"#utility.yul\":2969:2972   */\n      dup3\n        /* \"#utility.yul\":2880:2973   */\n      tag_80\n      jump\t// in\n    tag_79:\n        /* \"#utility.yul\":2998:3000   */\n      0x20\n        /* \"#utility.yul\":2993:2996   */\n      dup3\n        /* \"#utility.yul\":2989:3001   */\n      add\n        /* \"#utility.yul\":2982:3001   */\n      swap1\n      pop\n        /* \"#utility.yul\":2641:3007   */\n      swap2\n      swap1\n      pop\n      jump\t// out\n        /* \"#utility.yul\":3013:3170   */\n    tag_81:\n        /* \"#utility.yul\":3118:3163   */\n      tag_83\n        /* \"#utility.yul\":3138:3162   */\n      tag_84\n        /* \"#utility.yul\":3156:3161   */\n      dup3\n        /* \"#utility.yul\":3138:3162   */\n      tag_85\n      jump\t// in\n    tag_84:\n        /* \"#utility.yul\":3118:3163   */\n      tag_86\n      jump\t// in\n    tag_83:\n        /* \"#utility.yul\":3113:3116   */\n      dup3\n        /* \"#utility.yul\":3106:3164   */\n      mstore\n        /* \"#utility.yul\":3013:3170   */\n      pop\n      pop\n      jump\t// out\n        /* \"#utility.yul\":3176:3288   */\n    tag_87:\n        /* \"#utility.yul\":3259:3281   */\n      tag_89\n        /* \"#utility.yul\":3275:3280   */\n      dup2\n        /* \"#utility.yul\":3259:3281   */\n      tag_90\n      jump\t// in\n    tag_89:\n        /* \"#utility.yul\":3254:3257   */\n      dup3\n        /* \"#utility.yul\":3247:3282   */\n      mstore\n        /* \"#utility.yul\":3176:3288   */\n      pop\n      pop\n      jump\t// out\n        /* \"#utility.yul\":3294:3973   */\n    tag_19:\n        /* \"#utility.yul\":3490:3493   */\n      0x00\n        /* \"#utility.yul\":3505:3580   */\n      tag_92\n        /* \"#utility.yul\":3576:3579   */\n      dup3\n        /* \"#utility.yul\":3567:3573   */\n      dup8\n        /* \"#utility.yul\":3505:3580   */\n      tag_65\n      jump\t// in\n    tag_92:\n        /* \"#utility.yul\":3605:3607   */\n      0x14\n        /* \"#utility.yul\":3600:3603   */\n      dup3\n        /* \"#utility.yul\":3596:3608   */\n      add\n        /* \"#utility.yul\":3589:3608   */\n      swap2\n      pop\n        /* \"#utility.yul\":3618:3693   */\n      tag_93\n        /* \"#utility.yul\":3689:3692   */\n      dup3\n        /* \"#utility.yul\":3680:3686   */\n      dup7\n        /* \"#utility.yul\":3618:3693   */\n      tag_65\n      jump\t// in\n    tag_93:\n        /* \"#utility.yul\":3718:3720   */\n      0x14\n        /* \"#utility.yul\":3713:3716   */\n      dup3\n        /* \"#utility.yul\":3709:3721   */\n      add\n        /* \"#utility.yul\":3702:3721   */\n      swap2\n      pop\n        /* \"#utility.yul\":3731:3806   */\n      tag_94\n        /* \"#utility.yul\":3802:3805   */\n      dup3\n        /* \"#utility.yul\":3793:3799   */\n      dup6\n        /* \"#utility.yul\":3731:3806   */\n      tag_81\n      jump\t// in\n    tag_94:\n        /* \"#utility.yul\":3831:3833   */\n      0x20\n        /* \"#utility.yul\":3826:3829   */\n      dup3\n        /* \"#utility.yul\":3822:3834   */\n      add\n        /* \"#utility.yul\":3815:3834   */\n      swap2\n      pop\n        /* \"#utility.yul\":3844:3919   */\n      tag_95\n        /* \"#utility.yul\":3915:3918   */\n      dup3\n        /* \"#utility.yul\":3906:3912   */\n      dup5\n        /* \"#utility.yul\":3844:3919   */\n      tag_81\n      jump\t// in\n    tag_95:\n        /* \"#utility.yul\":3944:3946   */\n      0x20\n        /* \"#utility.yul\":3939:3942   */\n      dup3\n        /* \"#utility.yul\":3935:3947   */\n      add\n        /* \"#utility.yul\":3928:3947   */\n      swap2\n      pop\n        /* \"#utility.yul\":3964:3967   */\n      dup2\n        /* \"#utility.yul\":3957:3967   */\n      swap1\n      pop\n        /* \"#utility.yul\":3294:3973   */\n      swap6\n      swap5\n      pop\n      pop\n      pop\n      pop\n      pop\n      jump\t// out\n        /* \"#utility.yul\":3979:4201   */\n    tag_10:\n        /* \"#utility.yul\":4072:4076   */\n      0x00\n        /* \"#utility.yul\":4110:4112   */\n      0x20\n        /* \"#utility.yul\":4099:4108   */\n      dup3\n        /* \"#utility.yul\":4095:4113   */\n      add\n        /* \"#utility.yul\":4087:4113   */\n      swap1\n      pop\n        /* \"#utility.yul\":4123:4194   */\n      tag_97\n        /* \"#utility.yul\":4191:4192   */\n      0x00\n        /* \"#utility.yul\":4180:4189   */\n      dup4\n        /* \"#utility.yul\":4176:4193   */\n      add\n        /* \"#utility.yul\":4167:4173   */\n      dup5\n        /* \"#utility.yul\":4123:4194   */\n      tag_71\n      jump\t// in\n    tag_97:\n        /* \"#utility.yul\":3979:4201   */\n      swap3\n      swap2\n      pop\n      pop\n      jump\t// out\n        /* \"#utility.yul\":4207:4641   */\n    tag_16:\n        /* \"#utility.yul\":4352:4356   */\n      0x00\n        /* \"#utility.yul\":4390:4392   */\n      0x60\n        /* \"#utility.yul\":4379:4388   */\n      dup3\n        /* \"#utility.yul\":4375:4393   */\n      add\n        /* \"#utility.yul\":4367:4393   */\n      swap1\n      pop\n        /* \"#utility.yul\":4403:4474   */\n      tag_99\n        /* \"#utility.yul\":4471:4472   */\n      0x00\n        /* \"#utility.yul\":4460:4469   */\n      dup4\n        /* \"#utility.yul\":4456:4473   */\n      add\n        /* \"#utility.yul\":4447:4453   */\n      dup7\n        /* \"#utility.yul\":4403:4474   */\n      tag_71\n      jump\t// in\n    tag_99:\n        /* \"#utility.yul\":4484:4556   */\n      tag_100\n        /* \"#utility.yul\":4552:4554   */\n      0x20\n        /* \"#utility.yul\":4541:4550   */\n      dup4\n        /* \"#utility.yul\":4537:4555   */\n      add\n        /* \"#utility.yul\":4528:4534   */\n      dup6\n        /* \"#utility.yul\":4484:4556   */\n      tag_71\n      jump\t// in\n    tag_100:\n        /* \"#utility.yul\":4566:4634   */\n      tag_101\n        /* \"#utility.yul\":4630:4632   */\n      0x40\n        /* \"#utility.yul\":4619:4628   */\n      dup4\n        /* \"#utility.yul\":4615:4633   */\n      add\n        /* \"#utility.yul\":4606:4612   */\n      dup5\n        /* \"#utility.yul\":4566:4634   */\n      tag_87\n      jump\t// in\n    tag_101:\n        /* \"#utility.yul\":4207:4641   */\n      swap5\n      swap4\n      pop\n      pop\n      pop\n      pop\n      jump\t// out\n        /* \"#utility.yul\":4647:5066   */\n    tag_23:\n        /* \"#utility.yul\":4813:4817   */\n      0x00\n        /* \"#utility.yul\":4851:4853   */\n      0x20\n        /* \"#utility.yul\":4840:4849   */\n      dup3\n        /* \"#utility.yul\":4836:4854   */\n      add\n        /* \"#utility.yul\":4828:4854   */\n      swap1\n      pop\n        /* \"#utility.yul\":4900:4909   */\n      dup2\n        /* \"#utility.yul\":4894:4898   */\n      dup2\n        /* \"#utility.yul\":4890:4910   */\n      sub\n        /* \"#utility.yul\":4886:4887   */\n      0x00\n        /* \"#utility.yul\":4875:4884   */\n      dup4\n        /* \"#utility.yul\":4871:4888   */\n      add\n        /* \"#utility.yul\":4864:4911   */\n      mstore\n        /* \"#utility.yul\":4928:5059   */\n      tag_103\n        /* \"#utility.yul\":5054:5058   */\n      dup2\n        /* \"#utility.yul\":4928:5059   */\n      tag_75\n      jump\t// in\n    tag_103:\n        /* \"#utility.yul\":4920:5059   */\n      swap1\n      pop\n        /* \"#utility.yul\":4647:5066   */\n      swap2\n      swap1\n      pop\n      jump\t// out\n        /* \"#utility.yul\":5072:5201   */\n    tag_30:\n        /* \"#utility.yul\":5106:5112   */\n      0x00\n        /* \"#utility.yul\":5133:5153   */\n      tag_105\n      tag_106\n      jump\t// in\n    tag_105:\n        /* \"#utility.yul\":5123:5153   */\n      swap1\n      pop\n        /* \"#utility.yul\":5162:5195   */\n      tag_107\n        /* \"#utility.yul\":5190:5194   */\n      dup3\n        /* \"#utility.yul\":5182:5188   */\n      dup3\n        /* \"#utility.yul\":5162:5195   */\n      tag_108\n      jump\t// in\n    tag_107:\n        /* \"#utility.yul\":5072:5201   */\n      swap2\n      swap1\n      pop\n      jump\t// out\n        /* \"#utility.yul\":5207:5282   */\n    tag_106:\n        /* \"#utility.yul\":5240:5246   */\n      0x00\n        /* \"#utility.yul\":5273:5275   */\n      0x40\n        /* \"#utility.yul\":5267:5276   */\n      mload\n        /* \"#utility.yul\":5257:5276   */\n      swap1\n      pop\n        /* \"#utility.yul\":5207:5282   */\n      swap1\n      jump\t// out\n        /* \"#utility.yul\":5288:5595   */\n    tag_29:\n        /* \"#utility.yul\":5349:5353   */\n      0x00\n        /* \"#utility.yul\":5439:5457   */\n      0xffffffffffffffff\n        /* \"#utility.yul\":5431:5437   */\n      dup3\n        /* \"#utility.yul\":5428:5458   */\n      gt\n        /* \"#utility.yul\":5425:5481   */\n      iszero\n      tag_111\n      jumpi\n        /* \"#utility.yul\":5461:5479   */\n      tag_112\n      tag_113\n      jump\t// in\n    tag_112:\n        /* \"#utility.yul\":5425:5481   */\n    tag_111:\n        /* \"#utility.yul\":5499:5528   */\n      tag_114\n        /* \"#utility.yul\":5521:5527   */\n      dup3\n        /* \"#utility.yul\":5499:5528   */\n      tag_115\n      jump\t// in\n    tag_114:\n        /* \"#utility.yul\":5491:5528   */\n      swap1\n      pop\n        /* \"#utility.yul\":5583:5587   */\n      0x20\n        /* \"#utility.yul\":5577:5581   */\n      dup2\n        /* \"#utility.yul\":5573:5588   */\n      add\n        /* \"#utility.yul\":5565:5588   */\n      swap1\n      pop\n        /* \"#utility.yul\":5288:5595   */\n      swap2\n      swap1\n      pop\n      jump\t// out\n        /* \"#utility.yul\":5601:5770   */\n    tag_78:\n        /* \"#utility.yul\":5685:5696   */\n      0x00\n        /* \"#utility.yul\":5719:5725   */\n      dup3\n        /* \"#utility.yul\":5714:5717   */\n      dup3\n        /* \"#utility.yul\":5707:5726   */\n      mstore\n        /* \"#utility.yul\":5759:5763   */\n      0x20\n        /* \"#utility.yul\":5754:5757   */\n      dup3\n        /* \"#utility.yul\":5750:5764   */\n      add\n        /* \"#utility.yul\":5735:5764   */\n      swap1\n      pop\n        /* \"#utility.yul\":5601:5770   */\n      swap3\n      swap2\n      pop\n      pop\n      jump\t// out\n        /* \"#utility.yul\":5776:5872   */\n    tag_69:\n        /* \"#utility.yul\":5813:5820   */\n      0x00\n        /* \"#utility.yul\":5842:5866   */\n      tag_118\n        /* \"#utility.yul\":5860:5865   */\n      dup3\n        /* \"#utility.yul\":5842:5866   */\n      tag_119\n      jump\t// in\n    tag_118:\n        /* \"#utility.yul\":5831:5866   */\n      swap1\n      pop\n        /* \"#utility.yul\":5776:5872   */\n      swap2\n      swap1\n      pop\n      jump\t// out\n        /* \"#utility.yul\":5878:5955   */\n    tag_74:\n        /* \"#utility.yul\":5915:5922   */\n      0x00\n        /* \"#utility.yul\":5944:5949   */\n      dup2\n        /* \"#utility.yul\":5933:5949   */\n      swap1\n      pop\n        /* \"#utility.yul\":5878:5955   */\n      swap2\n      swap1\n      pop\n      jump\t// out\n        /* \"#utility.yul\":5961:6087   */\n    tag_119:\n        /* \"#utility.yul\":5998:6005   */\n      0x00\n        /* \"#utility.yul\":6038:6080   */\n      0xffffffffffffffffffffffffffffffffffffffff\n        /* \"#utility.yul\":6031:6036   */\n      dup3\n        /* \"#utility.yul\":6027:6081   */\n      and\n        /* \"#utility.yul\":6016:6081   */\n      swap1\n      pop\n        /* \"#utility.yul\":5961:6087   */\n      swap2\n      swap1\n      pop\n      jump\t// out\n        /* \"#utility.yul\":6093:6170   */\n    tag_85:\n        /* \"#utility.yul\":6130:6137   */\n      0x00\n        /* \"#utility.yul\":6159:6164   */\n      dup2\n        /* \"#utility.yul\":6148:6164   */\n      swap1\n      pop\n        /* \"#utility.yul\":6093:6170   */\n      swap2\n      swap1\n      pop\n      jump\t// out\n        /* \"#utility.yul\":6176:6262   */\n    tag_90:\n        /* \"#utility.yul\":6211:6218   */\n      0x00\n        /* \"#utility.yul\":6251:6255   */\n      0xff\n        /* \"#utility.yul\":6244:6249   */\n      dup3\n        /* \"#utility.yul\":6240:6256   */\n      and\n        /* \"#utility.yul\":6229:6256   */\n      swap1\n      pop\n        /* \"#utility.yul\":6176:6262   */\n      swap2\n      swap1\n      pop\n      jump\t// out\n        /* \"#utility.yul\":6268:6422   */\n    tag_35:\n        /* \"#utility.yul\":6352:6358   */\n      dup3\n        /* \"#utility.yul\":6347:6350   */\n      dup2\n        /* \"#utility.yul\":6342:6345   */\n      dup4\n        /* \"#utility.yul\":6329:6359   */\n      calldatacopy\n        /* \"#utility.yul\":6414:6415   */\n      0x00\n        /* \"#utility.yul\":6405:6411   */\n      dup4\n        /* \"#utility.yul\":6400:6403   */\n      dup4\n        /* \"#utility.yul\":6396:6412   */\n      add\n        /* \"#utility.yul\":6389:6416   */\n      mstore\n        /* \"#utility.yul\":6268:6422   */\n      pop\n      pop\n      pop\n      jump\t// out\n        /* \"#utility.yul\":6428:6709   */\n    tag_108:\n        /* \"#utility.yul\":6511:6538   */\n      tag_126\n        /* \"#utility.yul\":6533:6537   */\n      dup3\n        /* \"#utility.yul\":6511:6538   */\n      tag_115\n      jump\t// in\n    tag_126:\n        /* \"#utility.yul\":6503:6509   */\n      dup2\n        /* \"#utility.yul\":6499:6539   */\n      add\n        /* \"#utility.yul\":6641:6647   */\n      dup2\n        /* \"#utility.yul\":6629:6639   */\n      dup2\n        /* \"#utility.yul\":6626:6648   */\n      lt\n        /* \"#utility.yul\":6605:6623   */\n      0xffffffffffffffff\n        /* \"#utility.yul\":6593:6603   */\n      dup3\n        /* \"#utility.yul\":6590:6624   */\n      gt\n        /* \"#utility.yul\":6587:6649   */\n      or\n        /* \"#utility.yul\":6584:6672   */\n      iszero\n      tag_127\n      jumpi\n        /* \"#utility.yul\":6652:6670   */\n      tag_128\n      tag_113\n      jump\t// in\n    tag_128:\n        /* \"#utility.yul\":6584:6672   */\n    tag_127:\n        /* \"#utility.yul\":6692:6702   */\n      dup1\n        /* \"#utility.yul\":6688:6690   */\n      0x40\n        /* \"#utility.yul\":6681:6703   */\n      mstore\n        /* \"#utility.yul\":6471:6709   */\n      pop\n        /* \"#utility.yul\":6428:6709   */\n      pop\n      pop\n      jump\t// out\n        /* \"#utility.yul\":6715:6815   */\n    tag_70:\n        /* \"#utility.yul\":6754:6761   */\n      0x00\n        /* \"#utility.yul\":6783:6809   */\n      tag_130\n        /* \"#utility.yul\":6803:6808   */\n      dup3\n        /* \"#utility.yul\":6783:6809   */\n      tag_131\n      jump\t// in\n    tag_130:\n        /* \"#utility.yul\":6772:6809   */\n      swap1\n      pop\n        /* \"#utility.yul\":6715:6815   */\n      swap2\n      swap1\n      pop\n      jump\t// out\n        /* \"#utility.yul\":6821:6915   */\n    tag_131:\n        /* \"#utility.yul\":6860:6867   */\n      0x00\n        /* \"#utility.yul\":6889:6909   */\n      tag_133\n        /* \"#utility.yul\":6903:6908   */\n      dup3\n        /* \"#utility.yul\":6889:6909   */\n      tag_134\n      jump\t// in\n    tag_133:\n        /* \"#utility.yul\":6878:6909   */\n      swap1\n      pop\n        /* \"#utility.yul\":6821:6915   */\n      swap2\n      swap1\n      pop\n      jump\t// out\n        /* \"#utility.yul\":6921:7000   */\n    tag_86:\n        /* \"#utility.yul\":6960:6967   */\n      0x00\n        /* \"#utility.yul\":6989:6994   */\n      dup2\n        /* \"#utility.yul\":6978:6994   */\n      swap1\n      pop\n        /* \"#utility.yul\":6921:7000   */\n      swap2\n      swap1\n      pop\n      jump\t// out\n        /* \"#utility.yul\":7006:7186   */\n    tag_113:\n        /* \"#utility.yul\":7054:7131   */\n      0x4e487b7100000000000000000000000000000000000000000000000000000000\n        /* \"#utility.yul\":7051:7052   */\n      0x00\n        /* \"#utility.yul\":7044:7132   */\n      mstore\n        /* \"#utility.yul\":7151:7155   */\n      0x41\n        /* \"#utility.yul\":7148:7149   */\n      0x04\n        /* \"#utility.yul\":7141:7156   */\n      mstore\n        /* \"#utility.yul\":7175:7179   */\n      0x24\n        /* \"#utility.yul\":7172:7173   */\n      0x00\n        /* \"#utility.yul\":7165:7180   */\n      revert\n        /* \"#utility.yul\":7192:7309   */\n    tag_44:\n        /* \"#utility.yul\":7301:7302   */\n      0x00\n        /* \"#utility.yul\":7298:7299   */\n      dup1\n        /* \"#utility.yul\":7291:7303   */\n      revert\n        /* \"#utility.yul\":7315:7432   */\n    tag_33:\n        /* \"#utility.yul\":7424:7425   */\n      0x00\n        /* \"#utility.yul\":7421:7422   */\n      dup1\n        /* \"#utility.yul\":7414:7426   */\n      revert\n        /* \"#utility.yul\":7438:7555   */\n    tag_63:\n        /* \"#utility.yul\":7547:7548   */\n      0x00\n        /* \"#utility.yul\":7544:7545   */\n      dup1\n        /* \"#utility.yul\":7537:7549   */\n      revert\n        /* \"#utility.yul\":7561:7678   */\n    tag_53:\n        /* \"#utility.yul\":7670:7671   */\n      0x00\n        /* \"#utility.yul\":7667:7668   */\n      dup1\n        /* \"#utility.yul\":7660:7672   */\n      revert\n        /* \"#utility.yul\":7684:7786   */\n    tag_115:\n        /* \"#utility.yul\":7725:7731   */\n      0x00\n        /* \"#utility.yul\":7776:7778   */\n      0x1f\n        /* \"#utility.yul\":7772:7779   */\n      not\n        /* \"#utility.yul\":7767:7769   */\n      0x1f\n        /* \"#utility.yul\":7760:7765   */\n      dup4\n        /* \"#utility.yul\":7756:7770   */\n      add\n        /* \"#utility.yul\":7752:7780   */\n      and\n        /* \"#utility.yul\":7742:7780   */\n      swap1\n      pop\n        /* \"#utility.yul\":7684:7786   */\n      swap2\n      swap1\n      pop\n      jump\t// out\n        /* \"#utility.yul\":7792:7886   */\n    tag_134:\n        /* \"#utility.yul\":7825:7833   */\n      0x00\n        /* \"#utility.yul\":7873:7878   */\n      dup2\n        /* \"#utility.yul\":7869:7871   */\n      0x60\n        /* \"#utility.yul\":7865:7879   */\n      shl\n        /* \"#utility.yul\":7844:7879   */\n      swap1\n      pop\n        /* \"#utility.yul\":7792:7886   */\n      swap2\n      swap1\n      pop\n      jump\t// out\n        /* \"#utility.yul\":7892:8066   */\n    tag_80:\n        /* \"#utility.yul\":8032:8058   */\n      0x696e76616c6964207369676e6174757265206c656e6774680000000000000000\n        /* \"#utility.yul\":8028:8029   */\n      0x00\n        /* \"#utility.yul\":8020:8026   */\n      dup3\n        /* \"#utility.yul\":8016:8030   */\n      add\n        /* \"#utility.yul\":8009:8059   */\n      mstore\n        /* \"#utility.yul\":7892:8066   */\n      pop\n      jump\t// out\n        /* \"#utility.yul\":8072:8194   */\n    tag_39:\n        /* \"#utility.yul\":8145:8169   */\n      tag_145\n        /* \"#utility.yul\":8163:8168   */\n      dup2\n        /* \"#utility.yul\":8145:8169   */\n      tag_69\n      jump\t// in\n    tag_145:\n        /* \"#utility.yul\":8138:8143   */\n      dup2\n        /* \"#utility.yul\":8135:8170   */\n      eq\n        /* \"#utility.yul\":8125:8188   */\n      tag_146\n      jumpi\n        /* \"#utility.yul\":8184:8185   */\n      0x00\n        /* \"#utility.yul\":8181:8182   */\n      dup1\n        /* \"#utility.yul\":8174:8186   */\n      revert\n        /* \"#utility.yul\":8125:8188   */\n    tag_146:\n        /* \"#utility.yul\":8072:8194   */\n      pop\n      jump\t// out\n        /* \"#utility.yul\":8200:8322   */\n    tag_49:\n        /* \"#utility.yul\":8273:8297   */\n      tag_148\n        /* \"#utility.yul\":8291:8296   */\n      dup2\n        /* \"#utility.yul\":8273:8297   */\n      tag_85\n      jump\t// in\n    tag_148:\n        /* \"#utility.yul\":8266:8271   */\n      dup2\n        /* \"#utility.yul\":8263:8298   */\n      eq\n        /* \"#utility.yul\":8253:8316   */\n      tag_149\n      jumpi\n        /* \"#utility.yul\":8312:8313   */\n      0x00\n        /* \"#utility.yul\":8309:8310   */\n      dup1\n        /* \"#utility.yul\":8302:8314   */\n      revert\n        /* \"#utility.yul\":8253:8316   */\n    tag_149:\n        /* \"#utility.yul\":8200:8322   */\n      pop\n      jump\t// out\n\n    auxdata: 0xa26469706673582212205ef4f1742b3613bfa88a41699074da5ee7c418c5c98f503864cfa41729034a7764736f6c63430008070033\n}\n",
				"bytecode": {
					"linkReferences": {},
					"object": "608060405234801561001057600080fd5b506105cd806100206000396000f3fe608060405234801561001057600080fd5b50600436106100365760003560e01c80630b71a0b71461003b578063a7bb58031461006b575b600080fd5b610055600480360381019061005091906101d8565b61009d565b6040516100629190610345565b60405180910390f35b6100856004803603810190610080919061023f565b6100d6565b60405161009493929190610360565b60405180910390f35b6000848484846040516020016100b694939291906102f7565b604051602081830303815290604052805190602001209050949350505050565b6000806000604184511461011f576040517f08c379a000000000000000000000000000000000000000000000000000000000815260040161011690610397565b60405180910390fd5b6020840151925060408401519150606084015160001a90509193909250565b600061015161014c846103dc565b6103b7565b90508281526020810184848401111561016d5761016c610513565b5b610178848285610471565b509392505050565b60008135905061018f81610569565b92915050565b600082601f8301126101aa576101a961050e565b5b81356101ba84826020860161013e565b91505092915050565b6000813590506101d281610580565b92915050565b600080600080608085870312156101f2576101f161051d565b5b600061020087828801610180565b945050602061021187828801610180565b9350506040610222878288016101c3565b9250506060610233878288016101c3565b91505092959194509250565b6000602082840312156102555761025461051d565b5b600082013567ffffffffffffffff81111561027357610272610518565b5b61027f84828501610195565b91505092915050565b6102996102948261041e565b6104b1565b82525050565b6102a881610430565b82525050565b60006102bb60188361040d565b91506102c682610540565b602082019050919050565b6102e26102dd8261045a565b6104d5565b82525050565b6102f181610464565b82525050565b60006103038287610288565b6014820191506103138286610288565b60148201915061032382856102d1565b60208201915061033382846102d1565b60208201915081905095945050505050565b600060208201905061035a600083018461029f565b92915050565b6000606082019050610375600083018661029f565b610382602083018561029f565b61038f60408301846102e8565b949350505050565b600060208201905081810360008301526103b0816102ae565b9050919050565b60006103c16103d2565b90506103cd8282610480565b919050565b6000604051905090565b600067ffffffffffffffff8211156103f7576103f66104df565b5b61040082610522565b9050602081019050919050565b600082825260208201905092915050565b60006104298261043a565b9050919050565b6000819050919050565b600073ffffffffffffffffffffffffffffffffffffffff82169050919050565b6000819050919050565b600060ff82169050919050565b82818337600083830152505050565b61048982610522565b810181811067ffffffffffffffff821117156104a8576104a76104df565b5b80604052505050565b60006104bc826104c3565b9050919050565b60006104ce82610533565b9050919050565b6000819050919050565b7f4e487b7100000000000000000000000000000000000000000000000000000000600052604160045260246000fd5b600080fd5b600080fd5b600080fd5b600080fd5b6000601f19601f8301169050919050565b60008160601b9050919050565b7f696e76616c6964207369676e6174757265206c656e6774680000000000000000600082015250565b6105728161041e565b811461057d57600080fd5b50565b6105898161045a565b811461059457600080fd5b5056fea26469706673582212205ef4f1742b3613bfa88a41699074da5ee7c418c5c98f503864cfa41729034a7764736f6c63430008070033",
					"opcodes": "PUSH1 0x80 PUSH1 0x40 MSTORE CALLVALUE DUP1 ISZERO PUSH2 0x10 JUMPI PUSH1 0x0 DUP1 REVERT JUMPDEST POP PUSH2 0x5CD DUP1 PUSH2 0x20 PUSH1 0x0 CODECOPY PUSH1 0x0 RETURN INVALID PUSH1 0x80 PUSH1 0x40 MSTORE CALLVALUE DUP1 ISZERO PUSH2 0x10 JUMPI PUSH1 0x0 DUP1 REVERT JUMPDEST POP PUSH1 0x4 CALLDATASIZE LT PUSH2 0x36 JUMPI PUSH1 0x0 CALLDATALOAD PUSH1 0xE0 SHR DUP1 PUSH4 0xB71A0B7 EQ PUSH2 0x3B JUMPI DUP1 PUSH4 0xA7BB5803 EQ PUSH2 0x6B JUMPI JUMPDEST PUSH1 0x0 DUP1 REVERT JUMPDEST PUSH2 0x55 PUSH1 0x4 DUP1 CALLDATASIZE SUB DUP2 ADD SWAP1 PUSH2 0x50 SWAP2 SWAP1 PUSH2 0x1D8 JUMP JUMPDEST PUSH2 0x9D JUMP JUMPDEST PUSH1 0x40 MLOAD PUSH2 0x62 SWAP2 SWAP1 PUSH2 0x345 JUMP JUMPDEST PUSH1 0x40 MLOAD DUP1 SWAP2 SUB SWAP1 RETURN JUMPDEST PUSH2 0x85 PUSH1 0x4 DUP1 CALLDATASIZE SUB DUP2 ADD SWAP1 PUSH2 0x80 SWAP2 SWAP1 PUSH2 0x23F JUMP JUMPDEST PUSH2 0xD6 JUMP JUMPDEST PUSH1 0x40 MLOAD PUSH2 0x94 SWAP4 SWAP3 SWAP2 SWAP1 PUSH2 0x360 JUMP JUMPDEST PUSH1 0x40 MLOAD DUP1 SWAP2 SUB SWAP1 RETURN JUMPDEST PUSH1 0x0 DUP5 DUP5 DUP5 DUP5 PUSH1 0x40 MLOAD PUSH1 0x20 ADD PUSH2 0xB6 SWAP5 SWAP4 SWAP3 SWAP2 SWAP1 PUSH2 0x2F7 JUMP JUMPDEST PUSH1 0x40 MLOAD PUSH1 0x20 DUP2 DUP4 SUB SUB DUP2 MSTORE SWAP1 PUSH1 0x40 MSTORE DUP1 MLOAD SWAP1 PUSH1 0x20 ADD KECCAK256 SWAP1 POP SWAP5 SWAP4 POP POP POP POP JUMP JUMPDEST PUSH1 0x0 DUP1 PUSH1 0x0 PUSH1 0x41 DUP5 MLOAD EQ PUSH2 0x11F JUMPI PUSH1 0x40 MLOAD PUSH32 0x8C379A000000000000000000000000000000000000000000000000000000000 DUP2 MSTORE PUSH1 0x4 ADD PUSH2 0x116 SWAP1 PUSH2 0x397 JUMP JUMPDEST PUSH1 0x40 MLOAD DUP1 SWAP2 SUB SWAP1 REVERT JUMPDEST PUSH1 0x20 DUP5 ADD MLOAD SWAP3 POP PUSH1 0x40 DUP5 ADD MLOAD SWAP2 POP PUSH1 0x60 DUP5 ADD MLOAD PUSH1 0x0 BYTE SWAP1 POP SWAP2 SWAP4 SWAP1 SWAP3 POP JUMP JUMPDEST PUSH1 0x0 PUSH2 0x151 PUSH2 0x14C DUP5 PUSH2 0x3DC JUMP JUMPDEST PUSH2 0x3B7 JUMP JUMPDEST SWAP1 POP DUP3 DUP2 MSTORE PUSH1 0x20 DUP2 ADD DUP5 DUP5 DUP5 ADD GT ISZERO PUSH2 0x16D JUMPI PUSH2 0x16C PUSH2 0x513 JUMP JUMPDEST JUMPDEST PUSH2 0x178 DUP5 DUP3 DUP6 PUSH2 0x471 JUMP JUMPDEST POP SWAP4 SWAP3 POP POP POP JUMP JUMPDEST PUSH1 0x0 DUP2 CALLDATALOAD SWAP1 POP PUSH2 0x18F DUP2 PUSH2 0x569 JUMP JUMPDEST SWAP3 SWAP2 POP POP JUMP JUMPDEST PUSH1 0x0 DUP3 PUSH1 0x1F DUP4 ADD SLT PUSH2 0x1AA JUMPI PUSH2 0x1A9 PUSH2 0x50E JUMP JUMPDEST JUMPDEST DUP2 CALLDATALOAD PUSH2 0x1BA DUP5 DUP3 PUSH1 0x20 DUP7 ADD PUSH2 0x13E JUMP JUMPDEST SWAP2 POP POP SWAP3 SWAP2 POP POP JUMP JUMPDEST PUSH1 0x0 DUP2 CALLDATALOAD SWAP1 POP PUSH2 0x1D2 DUP2 PUSH2 0x580 JUMP JUMPDEST SWAP3 SWAP2 POP POP JUMP JUMPDEST PUSH1 0x0 DUP1 PUSH1 0x0 DUP1 PUSH1 0x80 DUP6 DUP8 SUB SLT ISZERO PUSH2 0x1F2 JUMPI PUSH2 0x1F1 PUSH2 0x51D JUMP JUMPDEST JUMPDEST PUSH1 0x0 PUSH2 0x200 DUP8 DUP3 DUP9 ADD PUSH2 0x180 JUMP JUMPDEST SWAP5 POP POP PUSH1 0x20 PUSH2 0x211 DUP8 DUP3 DUP9 ADD PUSH2 0x180 JUMP JUMPDEST SWAP4 POP POP PUSH1 0x40 PUSH2 0x222 DUP8 DUP3 DUP9 ADD PUSH2 0x1C3 JUMP JUMPDEST SWAP3 POP POP PUSH1 0x60 PUSH2 0x233 DUP8 DUP3 DUP9 ADD PUSH2 0x1C3 JUMP JUMPDEST SWAP2 POP POP SWAP3 SWAP6 SWAP2 SWAP5 POP SWAP3 POP JUMP JUMPDEST PUSH1 0x0 PUSH1 0x20 DUP3 DUP5 SUB SLT ISZERO PUSH2 0x255 JUMPI PUSH2 0x254 PUSH2 0x51D JUMP JUMPDEST JUMPDEST PUSH1 0x0 DUP3 ADD CALLDATALOAD PUSH8 0xFFFFFFFFFFFFFFFF DUP2 GT ISZERO PUSH2 0x273 JUMPI PUSH2 0x272 PUSH2 0x518 JUMP JUMPDEST JUMPDEST PUSH2 0x27F DUP5 DUP3 DUP6 ADD PUSH2 0x195 JUMP JUMPDEST SWAP2 POP POP SWAP3 SWAP2 POP POP JUMP JUMPDEST PUSH2 0x299 PUSH2 0x294 DUP3 PUSH2 0x41E JUMP JUMPDEST PUSH2 0x4B1 JUMP JUMPDEST DUP3 MSTORE POP POP JUMP JUMPDEST PUSH2 0x2A8 DUP2 PUSH2 0x430 JUMP JUMPDEST DUP3 MSTORE POP POP JUMP JUMPDEST PUSH1 0x0 PUSH2 0x2BB PUSH1 0x18 DUP4 PUSH2 0x40D JUMP JUMPDEST SWAP2 POP PUSH2 0x2C6 DUP3 PUSH2 0x540 JUMP JUMPDEST PUSH1 0x20 DUP3 ADD SWAP1 POP SWAP2 SWAP1 POP JUMP JUMPDEST PUSH2 0x2E2 PUSH2 0x2DD DUP3 PUSH2 0x45A JUMP JUMPDEST PUSH2 0x4D5 JUMP JUMPDEST DUP3 MSTORE POP POP JUMP JUMPDEST PUSH2 0x2F1 DUP2 PUSH2 0x464 JUMP JUMPDEST DUP3 MSTORE POP POP JUMP JUMPDEST PUSH1 0x0 PUSH2 0x303 DUP3 DUP8 PUSH2 0x288 JUMP JUMPDEST PUSH1 0x14 DUP3 ADD SWAP2 POP PUSH2 0x313 DUP3 DUP7 PUSH2 0x288 JUMP JUMPDEST PUSH1 0x14 DUP3 ADD SWAP2 POP PUSH2 0x323 DUP3 DUP6 PUSH2 0x2D1 JUMP JUMPDEST PUSH1 0x20 DUP3 ADD SWAP2 POP PUSH2 0x333 DUP3 DUP5 PUSH2 0x2D1 JUMP JUMPDEST PUSH1 0x20 DUP3 ADD SWAP2 POP DUP2 SWAP1 POP SWAP6 SWAP5 POP POP POP POP POP JUMP JUMPDEST PUSH1 0x0 PUSH1 0x20 DUP3 ADD SWAP1 POP PUSH2 0x35A PUSH1 0x0 DUP4 ADD DUP5 PUSH2 0x29F JUMP JUMPDEST SWAP3 SWAP2 POP POP JUMP JUMPDEST PUSH1 0x0 PUSH1 0x60 DUP3 ADD SWAP1 POP PUSH2 0x375 PUSH1 0x0 DUP4 ADD DUP7 PUSH2 0x29F JUMP JUMPDEST PUSH2 0x382 PUSH1 0x20 DUP4 ADD DUP6 PUSH2 0x29F JUMP JUMPDEST PUSH2 0x38F PUSH1 0x40 DUP4 ADD DUP5 PUSH2 0x2E8 JUMP JUMPDEST SWAP5 SWAP4 POP POP POP POP JUMP JUMPDEST PUSH1 0x0 PUSH1 0x20 DUP3 ADD SWAP1 POP DUP2 DUP2 SUB PUSH1 0x0 DUP4 ADD MSTORE PUSH2 0x3B0 DUP2 PUSH2 0x2AE JUMP JUMPDEST SWAP1 POP SWAP2 SWAP1 POP JUMP JUMPDEST PUSH1 0x0 PUSH2 0x3C1 PUSH2 0x3D2 JUMP JUMPDEST SWAP1 POP PUSH2 0x3CD DUP3 DUP3 PUSH2 0x480 JUMP JUMPDEST SWAP2 SWAP1 POP JUMP JUMPDEST PUSH1 0x0 PUSH1 0x40 MLOAD SWAP1 POP SWAP1 JUMP JUMPDEST PUSH1 0x0 PUSH8 0xFFFFFFFFFFFFFFFF DUP3 GT ISZERO PUSH2 0x3F7 JUMPI PUSH2 0x3F6 PUSH2 0x4DF JUMP JUMPDEST JUMPDEST PUSH2 0x400 DUP3 PUSH2 0x522 JUMP JUMPDEST SWAP1 POP PUSH1 0x20 DUP2 ADD SWAP1 POP SWAP2 SWAP1 POP JUMP JUMPDEST PUSH1 0x0 DUP3 DUP3 MSTORE PUSH1 0x20 DUP3 ADD SWAP1 POP SWAP3 SWAP2 POP POP JUMP JUMPDEST PUSH1 0x0 PUSH2 0x429 DUP3 PUSH2 0x43A JUMP JUMPDEST SWAP1 POP SWAP2 SWAP1 POP JUMP JUMPDEST PUSH1 0x0 DUP2 SWAP1 POP SWAP2 SWAP1 POP JUMP JUMPDEST PUSH1 0x0 PUSH20 0xFFFFFFFFFFFFFFFFFFFFFFFFFFFFFFFFFFFFFFFF DUP3 AND SWAP1 POP SWAP2 SWAP1 POP JUMP JUMPDEST PUSH1 0x0 DUP2 SWAP1 POP SWAP2 SWAP1 POP JUMP JUMPDEST PUSH1 0x0 PUSH1 0xFF DUP3 AND SWAP1 POP SWAP2 SWAP1 POP JUMP JUMPDEST DUP3 DUP2 DUP4 CALLDATACOPY PUSH1 0x0 DUP4 DUP4 ADD MSTORE POP POP POP JUMP JUMPDEST PUSH2 0x489 DUP3 PUSH2 0x522 JUMP JUMPDEST DUP2 ADD DUP2 DUP2 LT PUSH8 0xFFFFFFFFFFFFFFFF DUP3 GT OR ISZERO PUSH2 0x4A8 JUMPI PUSH2 0x4A7 PUSH2 0x4DF JUMP JUMPDEST JUMPDEST DUP1 PUSH1 0x40 MSTORE POP POP POP JUMP JUMPDEST PUSH1 0x0 PUSH2 0x4BC DUP3 PUSH2 0x4C3 JUMP JUMPDEST SWAP1 POP SWAP2 SWAP1 POP JUMP JUMPDEST PUSH1 0x0 PUSH2 0x4CE DUP3 PUSH2 0x533 JUMP JUMPDEST SWAP1 POP SWAP2 SWAP1 POP JUMP JUMPDEST PUSH1 0x0 DUP2 SWAP1 POP SWAP2 SWAP1 POP JUMP JUMPDEST PUSH32 0x4E487B7100000000000000000000000000000000000000000000000000000000 PUSH1 0x0 MSTORE PUSH1 0x41 PUSH1 0x4 MSTORE PUSH1 0x24 PUSH1 0x0 REVERT JUMPDEST PUSH1 0x0 DUP1 REVERT JUMPDEST PUSH1 0x0 DUP1 REVERT JUMPDEST PUSH1 0x0 DUP1 REVERT JUMPDEST PUSH1 0x0 DUP1 REVERT JUMPDEST PUSH1 0x0 PUSH1 0x1F NOT PUSH1 0x1F DUP4 ADD AND SWAP1 POP SWAP2 SWAP1 POP JUMP JUMPDEST PUSH1 0x0 DUP2 PUSH1 0x60 SHL SWAP1 POP SWAP2 SWAP1 POP JUMP JUMPDEST PUSH32 0x696E76616C6964207369676E6174757265206C656E6774680000000000000000 PUSH1 0x0 DUP3 ADD MSTORE POP JUMP JUMPDEST PUSH2 0x572 DUP2 PUSH2 0x41E JUMP JUMPDEST DUP2 EQ PUSH2 0x57D JUMPI PUSH1 0x0 DUP1 REVERT JUMPDEST POP JUMP JUMPDEST PUSH2 0x589 DUP2 PUSH2 0x45A JUMP JUMPDEST DUP2 EQ PUSH2 0x594 JUMPI PUSH1 0x0 DUP1 REVERT JUMPDEST POP JUMP INVALID LOG2 PUSH5 0x6970667358 0x22 SLT KECCAK256 0x5E DELEGATECALL CALL PUSH21 0x2B3613BFA88A41699074DA5EE7C418C5C98F503864 0xCF LOG4 OR 0x29 SUB 0x4A PUSH24 0x64736F6C6343000807003300000000000000000000000000 "
				},
				"gasEstimates": {
					"creation": {
						"codeDepositCost": "297000",
						"executionCost": "337",
						"totalCost": "297337"
					},
					"external": {
						"getMessageHash(address,address,uint256,uint256)": "infinite",
						"splitSignature(bytes)": "infinite"
					}
				},
				"methodIdentifiers": {
					"getMessageHash(address,address,uint256,uint256)": "0b71a0b7",
					"splitSignature(bytes)": "a7bb5803"
				}
			},
			"storageLayout": {
				"storage": [],
				"types": null
			},
			"userdoc": {
				"kind": "user",
				"methods": {},
				"version": 1
			}
		}
	}
}