{
	"CONTRACTS/MaxInt.sol": {
		"Max": {
			"abi": [
				{
					"inputs": [],
					"name": "MAX_INT_CAST",
					"outputs": [
						{
							"internalType": "uint256",
							"name": "",
							"type": "uint256"
						}
					],
					"stateMutability": "view",
					"type": "function"
				},
				{
					"inputs": [],
					"name": "MAX_INT_EXPONENTIATION",
					"outputs": [
						{
							"internalType": "uint256",
							"name": "",
							"type": "uint256"
						}
					],
					"stateMutability": "view",
					"type": "function"
				},
				{
					"inputs": [],
					"name": "MAX_INT_HEX",
					"outputs": [
						{
							"internalType": "uint256",
							"name": "",
							"type": "uint256"
						}
					],
					"stateMutability": "view",
					"type": "function"
				},
				{
					"inputs": [],
					"name": "MAX_INT_NUMBER",
					"outputs": [
						{
							"internalType": "uint256",
							"name": "",
							"type": "uint256"
						}
					],
					"stateMutability": "view",
					"type": "function"
				},
				{
					"inputs": [],
					"name": "MAX_INT_TYPE",
					"outputs": [
						{
							"internalType": "uint256",
							"name": "",
							"type": "uint256"
						}
					],
					"stateMutability": "view",
					"type": "function"
				}
			],
			"devdoc": {
				"kind": "dev",
				"methods": {},
				"version": 1
			},
			"evm": {
				"assembly": "    /* \"CONTRACTS/MaxInt.sol\":57:675  contract Max {... */\n  mstore(0x40, 0x80)\n  callvalue\n  dup1\n  iszero\n  tag_1\n  jumpi\n  0x00\n  dup1\n  revert\ntag_1:\n  pop\n  dataSize(sub_0)\n  dup1\n  dataOffset(sub_0)\n  0x00\n  codecopy\n  0x00\n  return\nstop\n\nsub_0: assembly {\n        /* \"CONTRACTS/MaxInt.sol\":57:675  contract Max {... */\n      mstore(0x40, 0x80)\n      callvalue\n      dup1\n      iszero\n      tag_1\n      jumpi\n      0x00\n      dup1\n      revert\n    tag_1:\n      pop\n      jumpi(tag_2, lt(calldatasize, 0x04))\n      shr(0xe0, calldataload(0x00))\n      dup1\n      0x0f032cbe\n      eq\n      tag_3\n      jumpi\n      dup1\n      0x1ac3d581\n      eq\n      tag_4\n      jumpi\n      dup1\n      0x29ad9402\n      eq\n      tag_5\n      jumpi\n      dup1\n      0x4c37bb3c\n      eq\n      tag_6\n      jumpi\n      dup1\n      0x59883d79\n      eq\n      tag_7\n      jumpi\n    tag_2:\n      0x00\n      dup1\n      revert\n        /* \"CONTRACTS/MaxInt.sol\":285:389  uint256 constant public MAX_INT_HEX = 0xffffffffffffffffffffffffffffffffffffffffffffffffffffffffffffffff */\n    tag_3:\n      tag_8\n      tag_9\n      jump\t// in\n    tag_8:\n      mload(0x40)\n      dup1\n      dup3\n      dup2\n      mstore\n      0x20\n      add\n      swap2\n      pop\n      pop\n      mload(0x40)\n      dup1\n      swap2\n      sub\n      swap1\n      return\n        /* \"CONTRACTS/MaxInt.sol\":513:572  uint256 constant public MAX_INT_EXPONENTIATION = 2**256 - 1 */\n    tag_4:\n      tag_10\n      tag_11\n      jump\t// in\n    tag_10:\n      mload(0x40)\n      dup1\n      dup3\n      dup2\n      mstore\n      0x20\n      add\n      swap2\n      pop\n      pop\n      mload(0x40)\n      dup1\n      swap2\n      sub\n      swap1\n      return\n        /* \"CONTRACTS/MaxInt.sol\":615:671  uint256 constant public MAX_INT_TYPE = type(uint256).max */\n    tag_5:\n      tag_12\n      tag_13\n      jump\t// in\n    tag_12:\n      mload(0x40)\n      dup1\n      dup3\n      dup2\n      mstore\n      0x20\n      add\n      swap2\n      pop\n      pop\n      mload(0x40)\n      dup1\n      swap2\n      sub\n      swap1\n      return\n        /* \"CONTRACTS/MaxInt.sol\":421:471  uint256 constant public MAX_INT_CAST = uint256(-1) */\n    tag_6:\n      tag_14\n      tag_15\n      jump\t// in\n    tag_14:\n      mload(0x40)\n      dup1\n      dup3\n      dup2\n      mstore\n      0x20\n      add\n      swap2\n      pop\n      pop\n      mload(0x40)\n      dup1\n      swap2\n      sub\n      swap1\n      return\n        /* \"CONTRACTS/MaxInt.sol\":111:230  uint256 constant public MAX_INT_NUMBER = 115792089237316195423570985008687907853269984665640564039457584007913129639935 */\n    tag_7:\n      tag_16\n      tag_17\n      jump\t// in\n    tag_16:\n      mload(0x40)\n      dup1\n      dup3\n      dup2\n      mstore\n      0x20\n      add\n      swap2\n      pop\n      pop\n      mload(0x40)\n      dup1\n      swap2\n      sub\n      swap1\n      return\n        /* \"CONTRACTS/MaxInt.sol\":285:389  uint256 constant public MAX_INT_HEX = 0xffffffffffffffffffffffffffffffffffffffffffffffffffffffffffffffff */\n    tag_9:\n        /* \"CONTRACTS/MaxInt.sol\":323:389  0xffffffffffffffffffffffffffffffffffffffffffffffffffffffffffffffff */\n      0xffffffffffffffffffffffffffffffffffffffffffffffffffffffffffffffff\n        /* \"CONTRACTS/MaxInt.sol\":285:389  uint256 constant public MAX_INT_HEX = 0xffffffffffffffffffffffffffffffffffffffffffffffffffffffffffffffff */\n      dup2\n      jump\t// out\n        /* \"CONTRACTS/MaxInt.sol\":513:572  uint256 constant public MAX_INT_EXPONENTIATION = 2**256 - 1 */\n    tag_11:\n        /* \"CONTRACTS/MaxInt.sol\":562:572  2**256 - 1 */\n      0xffffffffffffffffffffffffffffffffffffffffffffffffffffffffffffffff\n        /* \"CONTRACTS/MaxInt.sol\":513:572  uint256 constant public MAX_INT_EXPONENTIATION = 2**256 - 1 */\n      dup2\n      jump\t// out\n        /* \"CONTRACTS/MaxInt.sol\":615:671  uint256 constant public MAX_INT_TYPE = type(uint256).max */\n    tag_13:\n        /* \"CONTRACTS/MaxInt.sol\":654:671  type(uint256).max */\n      0xffffffffffffffffffffffffffffffffffffffffffffffffffffffffffffffff\n        /* \"CONTRACTS/MaxInt.sol\":615:671  uint256 constant public MAX_INT_TYPE = type(uint256).max */\n      dup2\n      jump\t// out\n        /* \"CONTRACTS/MaxInt.sol\":421:471  uint256 constant public MAX_INT_CAST = uint256(-1) */\n    tag_15:\n        /* \"CONTRACTS/MaxInt.sol\":468:470  -1 */\n      0xffffffffffffffffffffffffffffffffffffffffffffffffffffffffffffffff\n        /* \"CONTRACTS/MaxInt.sol\":421:471  uint256 constant public MAX_INT_CAST = uint256(-1) */\n      dup2\n      jump\t// out\n        /* \"CONTRACTS/MaxInt.sol\":111:230  uint256 constant public MAX_INT_NUMBER = 115792089237316195423570985008687907853269984665640564039457584007913129639935 */\n    tag_17:\n        /* \"CONTRACTS/MaxInt.sol\":152:230  115792089237316195423570985008687907853269984665640564039457584007913129639935 */\n      0xffffffffffffffffffffffffffffffffffffffffffffffffffffffffffffffff\n        /* \"CONTRACTS/MaxInt.sol\":111:230  uint256 constant public MAX_INT_NUMBER = 115792089237316195423570985008687907853269984665640564039457584007913129639935 */\n      dup2\n      jump\t// out\n\n    auxdata: 0xa26469706673582212203fca36ec4c2e363a6eca0cb3edc62ddaa496089aeb2ca8957d611ae2cb43054e64736f6c634300060c0033\n}\n",
				"bytecode": {
					"linkReferences": {},
					"object": "608060405234801561001057600080fd5b506101dc806100206000396000f3fe608060405234801561001057600080fd5b50600436106100575760003560e01c80630f032cbe1461005c5780631ac3d5811461007a57806329ad9402146100985780634c37bb3c146100b657806359883d79146100d4575b600080fd5b6100646100f2565b6040518082815260200191505060405180910390f35b610082610116565b6040518082815260200191505060405180910390f35b6100a061013a565b6040518082815260200191505060405180910390f35b6100be61015e565b6040518082815260200191505060405180910390f35b6100dc610182565b6040518082815260200191505060405180910390f35b7fffffffffffffffffffffffffffffffffffffffffffffffffffffffffffffffff81565b7fffffffffffffffffffffffffffffffffffffffffffffffffffffffffffffffff81565b7fffffffffffffffffffffffffffffffffffffffffffffffffffffffffffffffff81565b7fffffffffffffffffffffffffffffffffffffffffffffffffffffffffffffffff81565b7fffffffffffffffffffffffffffffffffffffffffffffffffffffffffffffffff8156fea26469706673582212203fca36ec4c2e363a6eca0cb3edc62ddaa496089aeb2ca8957d611ae2cb43054e64736f6c634300060c0033",
					"opcodes": "PUSH1 0x80 PUSH1 0x40 MSTORE CALLVALUE DUP1 ISZERO PUSH2 0x10 JUMPI PUSH1 0x0 DUP1 REVERT JUMPDEST POP PUSH2 0x1DC DUP1 PUSH2 0x20 PUSH1 0x0 CODECOPY PUSH1 0x0 RETURN INVALID PUSH1 0x80 PUSH1 0x40 MSTORE CALLVALUE DUP1 ISZERO PUSH2 0x10 JUMPI PUSH1 0x0 DUP1 REVERT JUMPDEST POP PUSH1 0x4 CALLDATASIZE LT PUSH2 0x57 JUMPI PUSH1 0x0 CALLDATALOAD PUSH1 0xE0 SHR DUP1 PUSH4 0xF032CBE EQ PUSH2 0x5C JUMPI DUP1 PUSH4 0x1AC3D581 EQ PUSH2 0x7A JUMPI DUP1 PUSH4 0x29AD9402 EQ PUSH2 0x98 JUMPI DUP1 PUSH4 0x4C37BB3C EQ PUSH2 0xB6 JUMPI DUP1 PUSH4 0x59883D79 EQ PUSH2 0xD4 JUMPI JUMPDEST PUSH1 0x0 DUP1 REVERT JUMPDEST PUSH2 0x64 PUSH2 0xF2 JUMP JUMPDEST PUSH1 0x40 MLOAD DUP1 DUP3 DUP2 MSTORE PUSH1 0x20 ADD SWAP2 POP POP PUSH1 0x40 MLOAD DUP1 SWAP2 SUB SWAP1 RETURN JUMPDEST PUSH2 0x82 PUSH2 0x116 JUMP JUMPDEST PUSH1 0x40 MLOAD DUP1 DUP3 DUP2 MSTORE PUSH1 0x20 ADD SWAP2 POP POP PUSH1 0x40 MLOAD DUP1 SWAP2 SUB SWAP1 RETURN JUMPDEST PUSH2 0xA0 PUSH2 0x13A JUMP JUMPDEST PUSH1 0x40 MLOAD DUP1 DUP3 DUP2 MSTORE PUSH1 0x20 ADD SWAP2 POP POP PUSH1 0x40 MLOAD DUP1 SWAP2 SUB SWAP1 RETURN JUMPDEST PUSH2 0xBE PUSH2 0x15E JUMP JUMPDEST PUSH1 0x40 MLOAD DUP1 DUP3 DUP2 MSTORE PUSH1 0x20 ADD SWAP2 POP POP PUSH1 0x40 MLOAD DUP1 SWAP2 SUB SWAP1 RETURN JUMPDEST PUSH2 0xDC PUSH2 0x182 JUMP JUMPDEST PUSH1 0x40 MLOAD DUP1 DUP3 DUP2 MSTORE PUSH1 0x20 ADD SWAP2 POP POP PUSH1 0x40 MLOAD DUP1 SWAP2 SUB SWAP1 RETURN JUMPDEST PUSH32 0xFFFFFFFFFFFFFFFFFFFFFFFFFFFFFFFFFFFFFFFFFFFFFFFFFFFFFFFFFFFFFFFF DUP2 JUMP JUMPDEST PUSH32 0xFFFFFFFFFFFFFFFFFFFFFFFFFFFFFFFFFFFFFFFFFFFFFFFFFFFFFFFFFFFFFFFF DUP2 JUMP JUMPDEST PUSH32 0xFFFFFFFFFFFFFFFFFFFFFFFFFFFFFFFFFFFFFFFFFFFFFFFFFFFFFFFFFFFFFFFF DUP2 JUMP JUMPDEST PUSH32 0xFFFFFFFFFFFFFFFFFFFFFFFFFFFFFFFFFFFFFFFFFFFFFFFFFFFFFFFFFFFFFFFF DUP2 JUMP JUMPDEST PUSH32 0xFFFFFFFFFFFFFFFFFFFFFFFFFFFFFFFFFFFFFFFFFFFFFFFFFFFFFFFFFFFFFFFF DUP2 JUMP INVALID LOG2 PUSH5 0x6970667358 0x22 SLT KECCAK256 EXTCODEHASH 0xCA CALLDATASIZE 0xEC 0x4C 0x2E CALLDATASIZE GASPRICE PUSH15 0xCA0CB3EDC62DDAA496089AEB2CA895 PUSH30 0x611AE2CB43054E64736F6C634300060C0033000000000000000000000000 "
				},
				"gasEstimates": {
					"creation": {
						"codeDepositCost": "95200",
						"executionCost": "141",
						"totalCost": "95341"
					},
					"external": {
						"MAX_INT_CAST()": "249",
						"MAX_INT_EXPONENTIATION()": "205",
						"MAX_INT_HEX()": "183",
						"MAX_INT_NUMBER()": "271",
						"MAX_INT_TYPE()": "227"
					}
				},
				"methodIdentifiers": {
					"MAX_INT_CAST()": "4c37bb3c",
					"MAX_INT_EXPONENTIATION()": "1ac3d581",
					"MAX_INT_HEX()": "0f032cbe",
					"MAX_INT_NUMBER()": "59883d79",
					"MAX_INT_TYPE()": "29ad9402"
				}
			},
			"storageLayout": {
				"storage": [],
				"types": null
			},
			"userdoc": {
				"kind": "user",
				"methods": {},
				"version": 1
			}
		}
	}
}