{
	"CONTRACTS/VerifySignature.sol": {
		"VerifySignature": {
			"abi": [
				{
					"inputs": [],
					"name": "PERMIT_TYPEHASH",
					"outputs": [
						{
							"internalType": "bytes32",
							"name": "",
							"type": "bytes32"
						}
					],
					"stateMutability": "view",
					"type": "function"
				},
				{
					"inputs": [
						{
							"internalType": "bytes32",
							"name": "_PERMIT_TYPEHASH",
							"type": "bytes32"
						},
						{
							"internalType": "address",
							"name": "_owner",
							"type": "address"
						},
						{
							"internalType": "address",
							"name": "_spender",
							"type": "address"
						},
						{
							"internalType": "uint256",
							"name": "_value",
							"type": "uint256"
						},
						{
							"internalType": "uint256",
							"name": "_deadline",
							"type": "uint256"
						}
					],
					"name": "getPermitMessageHash",
					"outputs": [
						{
							"internalType": "bytes32",
							"name": "",
							"type": "bytes32"
						}
					],
					"stateMutability": "pure",
					"type": "function"
				},
				{
					"inputs": [
						{
							"internalType": "bytes",
							"name": "signature",
							"type": "bytes"
						}
					],
					"name": "splitSignature",
					"outputs": [
						{
							"internalType": "bytes32",
							"name": "r",
							"type": "bytes32"
						},
						{
							"internalType": "bytes32",
							"name": "s",
							"type": "bytes32"
						},
						{
							"internalType": "uint8",
							"name": "v",
							"type": "uint8"
						}
					],
					"stateMutability": "pure",
					"type": "function"
				}
			],
			"devdoc": {
				"kind": "dev",
				"methods": {},
				"version": 1
			},
			"evm": {
				"assembly": "    /* \"CONTRACTS/VerifySignature.sol\":55:1261  contract VerifySignature {... */\n  mstore(0x40, 0x80)\n  callvalue\n  dup1\n  iszero\n  tag_1\n  jumpi\n  0x00\n  dup1\n  revert\ntag_1:\n  pop\n  dataSize(sub_0)\n  dup1\n  dataOffset(sub_0)\n  0x00\n  codecopy\n  0x00\n  return\nstop\n\nsub_0: assembly {\n        /* \"CONTRACTS/VerifySignature.sol\":55:1261  contract VerifySignature {... */\n      mstore(0x40, 0x80)\n      callvalue\n      dup1\n      iszero\n      tag_1\n      jumpi\n      0x00\n      dup1\n      revert\n    tag_1:\n      pop\n      jumpi(tag_2, lt(calldatasize, 0x04))\n      shr(0xe0, calldataload(0x00))\n      dup1\n      0x30adf81f\n      eq\n      tag_3\n      jumpi\n      dup1\n      0xa29ff68e\n      eq\n      tag_4\n      jumpi\n      dup1\n      0xa7bb5803\n      eq\n      tag_5\n      jumpi\n    tag_2:\n      0x00\n      dup1\n      revert\n        /* \"CONTRACTS/VerifySignature.sol\":87:210  bytes32 public constant PERMIT_TYPEHASH = keccak256(\"Permit(address owner,address spender,uint256 value,uint256 deadline)\") */\n    tag_3:\n      tag_6\n      tag_7\n      jump\t// in\n    tag_6:\n      mload(0x40)\n      tag_8\n      swap2\n      swap1\n      tag_9\n      jump\t// in\n    tag_8:\n      mload(0x40)\n      dup1\n      swap2\n      sub\n      swap1\n      return\n        /* \"CONTRACTS/VerifySignature.sol\":469:784  function getPermitMessageHash(... */\n    tag_4:\n      tag_10\n      0x04\n      dup1\n      calldatasize\n      sub\n      dup2\n      add\n      swap1\n      tag_11\n      swap2\n      swap1\n      tag_12\n      jump\t// in\n    tag_11:\n      tag_13\n      jump\t// in\n    tag_10:\n      mload(0x40)\n      tag_14\n      swap2\n      swap1\n      tag_9\n      jump\t// in\n    tag_14:\n      mload(0x40)\n      dup1\n      swap2\n      sub\n      swap1\n      return\n        /* \"CONTRACTS/VerifySignature.sol\":838:1255  function splitSignature(bytes memory signature)... */\n    tag_5:\n      tag_15\n      0x04\n      dup1\n      calldatasize\n      sub\n      dup2\n      add\n      swap1\n      tag_16\n      swap2\n      swap1\n      tag_17\n      jump\t// in\n    tag_16:\n      tag_18\n      jump\t// in\n    tag_15:\n      mload(0x40)\n      tag_19\n      swap4\n      swap3\n      swap2\n      swap1\n      tag_20\n      jump\t// in\n    tag_19:\n      mload(0x40)\n      dup1\n      swap2\n      sub\n      swap1\n      return\n        /* \"CONTRACTS/VerifySignature.sol\":87:210  bytes32 public constant PERMIT_TYPEHASH = keccak256(\"Permit(address owner,address spender,uint256 value,uint256 deadline)\") */\n    tag_7:\n        /* \"CONTRACTS/VerifySignature.sol\":129:210  keccak256(\"Permit(address owner,address spender,uint256 value,uint256 deadline)\") */\n      0x05619a74ecd0240afc3bfb1df2bd1319401220fb577809c3a09bf0ab809ac861\n        /* \"CONTRACTS/VerifySignature.sol\":87:210  bytes32 public constant PERMIT_TYPEHASH = keccak256(\"Permit(address owner,address spender,uint256 value,uint256 deadline)\") */\n      dup2\n      jump\t// out\n        /* \"CONTRACTS/VerifySignature.sol\":469:784  function getPermitMessageHash(... */\n    tag_13:\n        /* \"CONTRACTS/VerifySignature.sol\":669:676  bytes32 */\n      0x00\n        /* \"CONTRACTS/VerifySignature.sol\":722:738  _PERMIT_TYPEHASH */\n      dup6\n        /* \"CONTRACTS/VerifySignature.sol\":740:746  _owner */\n      dup6\n        /* \"CONTRACTS/VerifySignature.sol\":748:756  _spender */\n      dup6\n        /* \"CONTRACTS/VerifySignature.sol\":758:764  _value */\n      dup6\n        /* \"CONTRACTS/VerifySignature.sol\":766:775  _deadline */\n      dup6\n        /* \"CONTRACTS/VerifySignature.sol\":705:776  abi.encodePacked(_PERMIT_TYPEHASH, _owner, _spender, _value, _deadline) */\n      add(0x20, mload(0x40))\n      tag_22\n      swap6\n      swap5\n      swap4\n      swap3\n      swap2\n      swap1\n      tag_23\n      jump\t// in\n    tag_22:\n      mload(0x40)\n      0x20\n      dup2\n      dup4\n      sub\n      sub\n      dup2\n      mstore\n      swap1\n      0x40\n      mstore\n        /* \"CONTRACTS/VerifySignature.sol\":695:777  keccak256(abi.encodePacked(_PERMIT_TYPEHASH, _owner, _spender, _value, _deadline)) */\n      dup1\n      mload\n      swap1\n      0x20\n      add\n      keccak256\n        /* \"CONTRACTS/VerifySignature.sol\":688:777  return keccak256(abi.encodePacked(_PERMIT_TYPEHASH, _owner, _spender, _value, _deadline)) */\n      swap1\n      pop\n        /* \"CONTRACTS/VerifySignature.sol\":469:784  function getPermitMessageHash(... */\n      swap6\n      swap5\n      pop\n      pop\n      pop\n      pop\n      pop\n      jump\t// out\n        /* \"CONTRACTS/VerifySignature.sol\":838:1255  function splitSignature(bytes memory signature)... */\n    tag_18:\n        /* \"CONTRACTS/VerifySignature.sol\":944:953  bytes32 r */\n      0x00\n        /* \"CONTRACTS/VerifySignature.sol\":967:976  bytes32 s */\n      dup1\n        /* \"CONTRACTS/VerifySignature.sol\":990:997  uint8 v */\n      0x00\n        /* \"CONTRACTS/VerifySignature.sol\":1049:1051  65 */\n      0x41\n        /* \"CONTRACTS/VerifySignature.sol\":1029:1038  signature */\n      dup5\n        /* \"CONTRACTS/VerifySignature.sol\":1029:1045  signature.length */\n      mload\n        /* \"CONTRACTS/VerifySignature.sol\":1029:1051  signature.length == 65 */\n      eq\n        /* \"CONTRACTS/VerifySignature.sol\":1021:1080  require(signature.length == 65, \"invalid signature length\") */\n      tag_25\n      jumpi\n      mload(0x40)\n      0x08c379a000000000000000000000000000000000000000000000000000000000\n      dup2\n      mstore\n      0x04\n      add\n      tag_26\n      swap1\n      tag_27\n      jump\t// in\n    tag_26:\n      mload(0x40)\n      dup1\n      swap2\n      sub\n      swap1\n      revert\n    tag_25:\n        /* \"CONTRACTS/VerifySignature.sol\":1140:1142  32 */\n      0x20\n        /* \"CONTRACTS/VerifySignature.sol\":1129:1138  signature */\n      dup5\n        /* \"CONTRACTS/VerifySignature.sol\":1125:1143  add(signature, 32) */\n      add\n        /* \"CONTRACTS/VerifySignature.sol\":1119:1144  mload(add(signature, 32)) */\n      mload\n        /* \"CONTRACTS/VerifySignature.sol\":1114:1144  r := mload(add(signature, 32)) */\n      swap3\n      pop\n        /* \"CONTRACTS/VerifySignature.sol\":1183:1185  64 */\n      0x40\n        /* \"CONTRACTS/VerifySignature.sol\":1172:1181  signature */\n      dup5\n        /* \"CONTRACTS/VerifySignature.sol\":1168:1186  add(signature, 64) */\n      add\n        /* \"CONTRACTS/VerifySignature.sol\":1162:1187  mload(add(signature, 64)) */\n      mload\n        /* \"CONTRACTS/VerifySignature.sol\":1157:1187  s := mload(add(signature, 64)) */\n      swap2\n      pop\n        /* \"CONTRACTS/VerifySignature.sol\":1234:1236  96 */\n      0x60\n        /* \"CONTRACTS/VerifySignature.sol\":1223:1232  signature */\n      dup5\n        /* \"CONTRACTS/VerifySignature.sol\":1219:1237  add(signature, 96) */\n      add\n        /* \"CONTRACTS/VerifySignature.sol\":1213:1238  mload(add(signature, 96)) */\n      mload\n        /* \"CONTRACTS/VerifySignature.sol\":1210:1211  0 */\n      0x00\n        /* \"CONTRACTS/VerifySignature.sol\":1205:1239  byte(0, mload(add(signature, 96))) */\n      byte\n        /* \"CONTRACTS/VerifySignature.sol\":1200:1239  v := byte(0, mload(add(signature, 96))) */\n      swap1\n      pop\n        /* \"CONTRACTS/VerifySignature.sol\":838:1255  function splitSignature(bytes memory signature)... */\n      swap2\n      swap4\n      swap1\n      swap3\n      pop\n      jump\t// out\n        /* \"#utility.yul\":7:84   */\n    tag_28:\n        /* \"#utility.yul\":44:51   */\n      0x00\n        /* \"#utility.yul\":73:78   */\n      dup2\n        /* \"#utility.yul\":62:78   */\n      swap1\n      pop\n        /* \"#utility.yul\":7:84   */\n      swap2\n      swap1\n      pop\n      jump\t// out\n        /* \"#utility.yul\":90:208   */\n    tag_29:\n        /* \"#utility.yul\":177:201   */\n      tag_68\n        /* \"#utility.yul\":195:200   */\n      dup2\n        /* \"#utility.yul\":177:201   */\n      tag_28\n      jump\t// in\n    tag_68:\n        /* \"#utility.yul\":172:175   */\n      dup3\n        /* \"#utility.yul\":165:202   */\n      mstore\n        /* \"#utility.yul\":90:208   */\n      pop\n      pop\n      jump\t// out\n        /* \"#utility.yul\":214:436   */\n    tag_9:\n        /* \"#utility.yul\":307:311   */\n      0x00\n        /* \"#utility.yul\":345:347   */\n      0x20\n        /* \"#utility.yul\":334:343   */\n      dup3\n        /* \"#utility.yul\":330:348   */\n      add\n        /* \"#utility.yul\":322:348   */\n      swap1\n      pop\n        /* \"#utility.yul\":358:429   */\n      tag_70\n        /* \"#utility.yul\":426:427   */\n      0x00\n        /* \"#utility.yul\":415:424   */\n      dup4\n        /* \"#utility.yul\":411:428   */\n      add\n        /* \"#utility.yul\":402:408   */\n      dup5\n        /* \"#utility.yul\":358:429   */\n      tag_29\n      jump\t// in\n    tag_70:\n        /* \"#utility.yul\":214:436   */\n      swap3\n      swap2\n      pop\n      pop\n      jump\t// out\n        /* \"#utility.yul\":442:517   */\n    tag_30:\n        /* \"#utility.yul\":475:481   */\n      0x00\n        /* \"#utility.yul\":508:510   */\n      0x40\n        /* \"#utility.yul\":502:511   */\n      mload\n        /* \"#utility.yul\":492:511   */\n      swap1\n      pop\n        /* \"#utility.yul\":442:517   */\n      swap1\n      jump\t// out\n        /* \"#utility.yul\":523:640   */\n    tag_31:\n        /* \"#utility.yul\":632:633   */\n      0x00\n        /* \"#utility.yul\":629:630   */\n      dup1\n        /* \"#utility.yul\":622:634   */\n      revert\n        /* \"#utility.yul\":646:763   */\n    tag_32:\n        /* \"#utility.yul\":755:756   */\n      0x00\n        /* \"#utility.yul\":752:753   */\n      dup1\n        /* \"#utility.yul\":745:757   */\n      revert\n        /* \"#utility.yul\":769:891   */\n    tag_33:\n        /* \"#utility.yul\":842:866   */\n      tag_75\n        /* \"#utility.yul\":860:865   */\n      dup2\n        /* \"#utility.yul\":842:866   */\n      tag_28\n      jump\t// in\n    tag_75:\n        /* \"#utility.yul\":835:840   */\n      dup2\n        /* \"#utility.yul\":832:867   */\n      eq\n        /* \"#utility.yul\":822:885   */\n      tag_76\n      jumpi\n        /* \"#utility.yul\":881:882   */\n      0x00\n        /* \"#utility.yul\":878:879   */\n      dup1\n        /* \"#utility.yul\":871:883   */\n      revert\n        /* \"#utility.yul\":822:885   */\n    tag_76:\n        /* \"#utility.yul\":769:891   */\n      pop\n      jump\t// out\n        /* \"#utility.yul\":897:1036   */\n    tag_34:\n        /* \"#utility.yul\":943:948   */\n      0x00\n        /* \"#utility.yul\":981:987   */\n      dup2\n        /* \"#utility.yul\":968:988   */\n      calldataload\n        /* \"#utility.yul\":959:988   */\n      swap1\n      pop\n        /* \"#utility.yul\":997:1030   */\n      tag_78\n        /* \"#utility.yul\":1024:1029   */\n      dup2\n        /* \"#utility.yul\":997:1030   */\n      tag_33\n      jump\t// in\n    tag_78:\n        /* \"#utility.yul\":897:1036   */\n      swap3\n      swap2\n      pop\n      pop\n      jump\t// out\n        /* \"#utility.yul\":1042:1168   */\n    tag_35:\n        /* \"#utility.yul\":1079:1086   */\n      0x00\n        /* \"#utility.yul\":1119:1161   */\n      0xffffffffffffffffffffffffffffffffffffffff\n        /* \"#utility.yul\":1112:1117   */\n      dup3\n        /* \"#utility.yul\":1108:1162   */\n      and\n        /* \"#utility.yul\":1097:1162   */\n      swap1\n      pop\n        /* \"#utility.yul\":1042:1168   */\n      swap2\n      swap1\n      pop\n      jump\t// out\n        /* \"#utility.yul\":1174:1270   */\n    tag_36:\n        /* \"#utility.yul\":1211:1218   */\n      0x00\n        /* \"#utility.yul\":1240:1264   */\n      tag_81\n        /* \"#utility.yul\":1258:1263   */\n      dup3\n        /* \"#utility.yul\":1240:1264   */\n      tag_35\n      jump\t// in\n    tag_81:\n        /* \"#utility.yul\":1229:1264   */\n      swap1\n      pop\n        /* \"#utility.yul\":1174:1270   */\n      swap2\n      swap1\n      pop\n      jump\t// out\n        /* \"#utility.yul\":1276:1398   */\n    tag_37:\n        /* \"#utility.yul\":1349:1373   */\n      tag_83\n        /* \"#utility.yul\":1367:1372   */\n      dup2\n        /* \"#utility.yul\":1349:1373   */\n      tag_36\n      jump\t// in\n    tag_83:\n        /* \"#utility.yul\":1342:1347   */\n      dup2\n        /* \"#utility.yul\":1339:1374   */\n      eq\n        /* \"#utility.yul\":1329:1392   */\n      tag_84\n      jumpi\n        /* \"#utility.yul\":1388:1389   */\n      0x00\n        /* \"#utility.yul\":1385:1386   */\n      dup1\n        /* \"#utility.yul\":1378:1390   */\n      revert\n        /* \"#utility.yul\":1329:1392   */\n    tag_84:\n        /* \"#utility.yul\":1276:1398   */\n      pop\n      jump\t// out\n        /* \"#utility.yul\":1404:1543   */\n    tag_38:\n        /* \"#utility.yul\":1450:1455   */\n      0x00\n        /* \"#utility.yul\":1488:1494   */\n      dup2\n        /* \"#utility.yul\":1475:1495   */\n      calldataload\n        /* \"#utility.yul\":1466:1495   */\n      swap1\n      pop\n        /* \"#utility.yul\":1504:1537   */\n      tag_86\n        /* \"#utility.yul\":1531:1536   */\n      dup2\n        /* \"#utility.yul\":1504:1537   */\n      tag_37\n      jump\t// in\n    tag_86:\n        /* \"#utility.yul\":1404:1543   */\n      swap3\n      swap2\n      pop\n      pop\n      jump\t// out\n        /* \"#utility.yul\":1549:1626   */\n    tag_39:\n        /* \"#utility.yul\":1586:1593   */\n      0x00\n        /* \"#utility.yul\":1615:1620   */\n      dup2\n        /* \"#utility.yul\":1604:1620   */\n      swap1\n      pop\n        /* \"#utility.yul\":1549:1626   */\n      swap2\n      swap1\n      pop\n      jump\t// out\n        /* \"#utility.yul\":1632:1754   */\n    tag_40:\n        /* \"#utility.yul\":1705:1729   */\n      tag_89\n        /* \"#utility.yul\":1723:1728   */\n      dup2\n        /* \"#utility.yul\":1705:1729   */\n      tag_39\n      jump\t// in\n    tag_89:\n        /* \"#utility.yul\":1698:1703   */\n      dup2\n        /* \"#utility.yul\":1695:1730   */\n      eq\n        /* \"#utility.yul\":1685:1748   */\n      tag_90\n      jumpi\n        /* \"#utility.yul\":1744:1745   */\n      0x00\n        /* \"#utility.yul\":1741:1742   */\n      dup1\n        /* \"#utility.yul\":1734:1746   */\n      revert\n        /* \"#utility.yul\":1685:1748   */\n    tag_90:\n        /* \"#utility.yul\":1632:1754   */\n      pop\n      jump\t// out\n        /* \"#utility.yul\":1760:1899   */\n    tag_41:\n        /* \"#utility.yul\":1806:1811   */\n      0x00\n        /* \"#utility.yul\":1844:1850   */\n      dup2\n        /* \"#utility.yul\":1831:1851   */\n      calldataload\n        /* \"#utility.yul\":1822:1851   */\n      swap1\n      pop\n        /* \"#utility.yul\":1860:1893   */\n      tag_92\n        /* \"#utility.yul\":1887:1892   */\n      dup2\n        /* \"#utility.yul\":1860:1893   */\n      tag_40\n      jump\t// in\n    tag_92:\n        /* \"#utility.yul\":1760:1899   */\n      swap3\n      swap2\n      pop\n      pop\n      jump\t// out\n        /* \"#utility.yul\":1905:2816   */\n    tag_12:\n        /* \"#utility.yul\":2000:2006   */\n      0x00\n        /* \"#utility.yul\":2008:2014   */\n      dup1\n        /* \"#utility.yul\":2016:2022   */\n      0x00\n        /* \"#utility.yul\":2024:2030   */\n      dup1\n        /* \"#utility.yul\":2032:2038   */\n      0x00\n        /* \"#utility.yul\":2081:2084   */\n      0xa0\n        /* \"#utility.yul\":2069:2078   */\n      dup7\n        /* \"#utility.yul\":2060:2067   */\n      dup9\n        /* \"#utility.yul\":2056:2079   */\n      sub\n        /* \"#utility.yul\":2052:2085   */\n      slt\n        /* \"#utility.yul\":2049:2169   */\n      iszero\n      tag_94\n      jumpi\n        /* \"#utility.yul\":2088:2167   */\n      tag_95\n      tag_31\n      jump\t// in\n    tag_95:\n        /* \"#utility.yul\":2049:2169   */\n    tag_94:\n        /* \"#utility.yul\":2208:2209   */\n      0x00\n        /* \"#utility.yul\":2233:2286   */\n      tag_96\n        /* \"#utility.yul\":2278:2285   */\n      dup9\n        /* \"#utility.yul\":2269:2275   */\n      dup3\n        /* \"#utility.yul\":2258:2267   */\n      dup10\n        /* \"#utility.yul\":2254:2276   */\n      add\n        /* \"#utility.yul\":2233:2286   */\n      tag_34\n      jump\t// in\n    tag_96:\n        /* \"#utility.yul\":2223:2286   */\n      swap6\n      pop\n        /* \"#utility.yul\":2179:2296   */\n      pop\n        /* \"#utility.yul\":2335:2337   */\n      0x20\n        /* \"#utility.yul\":2361:2414   */\n      tag_97\n        /* \"#utility.yul\":2406:2413   */\n      dup9\n        /* \"#utility.yul\":2397:2403   */\n      dup3\n        /* \"#utility.yul\":2386:2395   */\n      dup10\n        /* \"#utility.yul\":2382:2404   */\n      add\n        /* \"#utility.yul\":2361:2414   */\n      tag_38\n      jump\t// in\n    tag_97:\n        /* \"#utility.yul\":2351:2414   */\n      swap5\n      pop\n        /* \"#utility.yul\":2306:2424   */\n      pop\n        /* \"#utility.yul\":2463:2465   */\n      0x40\n        /* \"#utility.yul\":2489:2542   */\n      tag_98\n        /* \"#utility.yul\":2534:2541   */\n      dup9\n        /* \"#utility.yul\":2525:2531   */\n      dup3\n        /* \"#utility.yul\":2514:2523   */\n      dup10\n        /* \"#utility.yul\":2510:2532   */\n      add\n        /* \"#utility.yul\":2489:2542   */\n      tag_38\n      jump\t// in\n    tag_98:\n        /* \"#utility.yul\":2479:2542   */\n      swap4\n      pop\n        /* \"#utility.yul\":2434:2552   */\n      pop\n        /* \"#utility.yul\":2591:2593   */\n      0x60\n        /* \"#utility.yul\":2617:2670   */\n      tag_99\n        /* \"#utility.yul\":2662:2669   */\n      dup9\n        /* \"#utility.yul\":2653:2659   */\n      dup3\n        /* \"#utility.yul\":2642:2651   */\n      dup10\n        /* \"#utility.yul\":2638:2660   */\n      add\n        /* \"#utility.yul\":2617:2670   */\n      tag_41\n      jump\t// in\n    tag_99:\n        /* \"#utility.yul\":2607:2670   */\n      swap3\n      pop\n        /* \"#utility.yul\":2562:2680   */\n      pop\n        /* \"#utility.yul\":2719:2722   */\n      0x80\n        /* \"#utility.yul\":2746:2799   */\n      tag_100\n        /* \"#utility.yul\":2791:2798   */\n      dup9\n        /* \"#utility.yul\":2782:2788   */\n      dup3\n        /* \"#utility.yul\":2771:2780   */\n      dup10\n        /* \"#utility.yul\":2767:2789   */\n      add\n        /* \"#utility.yul\":2746:2799   */\n      tag_41\n      jump\t// in\n    tag_100:\n        /* \"#utility.yul\":2736:2799   */\n      swap2\n      pop\n        /* \"#utility.yul\":2690:2809   */\n      pop\n        /* \"#utility.yul\":1905:2816   */\n      swap3\n      swap6\n      pop\n      swap3\n      swap6\n      swap1\n      swap4\n      pop\n      jump\t// out\n        /* \"#utility.yul\":2822:2939   */\n    tag_42:\n        /* \"#utility.yul\":2931:2932   */\n      0x00\n        /* \"#utility.yul\":2928:2929   */\n      dup1\n        /* \"#utility.yul\":2921:2933   */\n      revert\n        /* \"#utility.yul\":2945:3062   */\n    tag_43:\n        /* \"#utility.yul\":3054:3055   */\n      0x00\n        /* \"#utility.yul\":3051:3052   */\n      dup1\n        /* \"#utility.yul\":3044:3056   */\n      revert\n        /* \"#utility.yul\":3068:3170   */\n    tag_44:\n        /* \"#utility.yul\":3109:3115   */\n      0x00\n        /* \"#utility.yul\":3160:3162   */\n      0x1f\n        /* \"#utility.yul\":3156:3163   */\n      not\n        /* \"#utility.yul\":3151:3153   */\n      0x1f\n        /* \"#utility.yul\":3144:3149   */\n      dup4\n        /* \"#utility.yul\":3140:3154   */\n      add\n        /* \"#utility.yul\":3136:3164   */\n      and\n        /* \"#utility.yul\":3126:3164   */\n      swap1\n      pop\n        /* \"#utility.yul\":3068:3170   */\n      swap2\n      swap1\n      pop\n      jump\t// out\n        /* \"#utility.yul\":3176:3356   */\n    tag_45:\n        /* \"#utility.yul\":3224:3301   */\n      0x4e487b7100000000000000000000000000000000000000000000000000000000\n        /* \"#utility.yul\":3221:3222   */\n      0x00\n        /* \"#utility.yul\":3214:3302   */\n      mstore\n        /* \"#utility.yul\":3321:3325   */\n      0x41\n        /* \"#utility.yul\":3318:3319   */\n      0x04\n        /* \"#utility.yul\":3311:3326   */\n      mstore\n        /* \"#utility.yul\":3345:3349   */\n      0x24\n        /* \"#utility.yul\":3342:3343   */\n      0x00\n        /* \"#utility.yul\":3335:3350   */\n      revert\n        /* \"#utility.yul\":3362:3643   */\n    tag_46:\n        /* \"#utility.yul\":3445:3472   */\n      tag_106\n        /* \"#utility.yul\":3467:3471   */\n      dup3\n        /* \"#utility.yul\":3445:3472   */\n      tag_44\n      jump\t// in\n    tag_106:\n        /* \"#utility.yul\":3437:3443   */\n      dup2\n        /* \"#utility.yul\":3433:3473   */\n      add\n        /* \"#utility.yul\":3575:3581   */\n      dup2\n        /* \"#utility.yul\":3563:3573   */\n      dup2\n        /* \"#utility.yul\":3560:3582   */\n      lt\n        /* \"#utility.yul\":3539:3557   */\n      0xffffffffffffffff\n        /* \"#utility.yul\":3527:3537   */\n      dup3\n        /* \"#utility.yul\":3524:3558   */\n      gt\n        /* \"#utility.yul\":3521:3583   */\n      or\n        /* \"#utility.yul\":3518:3606   */\n      iszero\n      tag_107\n      jumpi\n        /* \"#utility.yul\":3586:3604   */\n      tag_108\n      tag_45\n      jump\t// in\n    tag_108:\n        /* \"#utility.yul\":3518:3606   */\n    tag_107:\n        /* \"#utility.yul\":3626:3636   */\n      dup1\n        /* \"#utility.yul\":3622:3624   */\n      0x40\n        /* \"#utility.yul\":3615:3637   */\n      mstore\n        /* \"#utility.yul\":3405:3643   */\n      pop\n        /* \"#utility.yul\":3362:3643   */\n      pop\n      pop\n      jump\t// out\n        /* \"#utility.yul\":3649:3778   */\n    tag_47:\n        /* \"#utility.yul\":3683:3689   */\n      0x00\n        /* \"#utility.yul\":3710:3730   */\n      tag_110\n      tag_30\n      jump\t// in\n    tag_110:\n        /* \"#utility.yul\":3700:3730   */\n      swap1\n      pop\n        /* \"#utility.yul\":3739:3772   */\n      tag_111\n        /* \"#utility.yul\":3767:3771   */\n      dup3\n        /* \"#utility.yul\":3759:3765   */\n      dup3\n        /* \"#utility.yul\":3739:3772   */\n      tag_46\n      jump\t// in\n    tag_111:\n        /* \"#utility.yul\":3649:3778   */\n      swap2\n      swap1\n      pop\n      jump\t// out\n        /* \"#utility.yul\":3784:4091   */\n    tag_48:\n        /* \"#utility.yul\":3845:3849   */\n      0x00\n        /* \"#utility.yul\":3935:3953   */\n      0xffffffffffffffff\n        /* \"#utility.yul\":3927:3933   */\n      dup3\n        /* \"#utility.yul\":3924:3954   */\n      gt\n        /* \"#utility.yul\":3921:3977   */\n      iszero\n      tag_113\n      jumpi\n        /* \"#utility.yul\":3957:3975   */\n      tag_114\n      tag_45\n      jump\t// in\n    tag_114:\n        /* \"#utility.yul\":3921:3977   */\n    tag_113:\n        /* \"#utility.yul\":3995:4024   */\n      tag_115\n        /* \"#utility.yul\":4017:4023   */\n      dup3\n        /* \"#utility.yul\":3995:4024   */\n      tag_44\n      jump\t// in\n    tag_115:\n        /* \"#utility.yul\":3987:4024   */\n      swap1\n      pop\n        /* \"#utility.yul\":4079:4083   */\n      0x20\n        /* \"#utility.yul\":4073:4077   */\n      dup2\n        /* \"#utility.yul\":4069:4084   */\n      add\n        /* \"#utility.yul\":4061:4084   */\n      swap1\n      pop\n        /* \"#utility.yul\":3784:4091   */\n      swap2\n      swap1\n      pop\n      jump\t// out\n        /* \"#utility.yul\":4097:4243   */\n    tag_49:\n        /* \"#utility.yul\":4194:4200   */\n      dup3\n        /* \"#utility.yul\":4189:4192   */\n      dup2\n        /* \"#utility.yul\":4184:4187   */\n      dup4\n        /* \"#utility.yul\":4171:4201   */\n      calldatacopy\n        /* \"#utility.yul\":4235:4236   */\n      0x00\n        /* \"#utility.yul\":4226:4232   */\n      dup4\n        /* \"#utility.yul\":4221:4224   */\n      dup4\n        /* \"#utility.yul\":4217:4233   */\n      add\n        /* \"#utility.yul\":4210:4237   */\n      mstore\n        /* \"#utility.yul\":4097:4243   */\n      pop\n      pop\n      pop\n      jump\t// out\n        /* \"#utility.yul\":4249:4672   */\n    tag_50:\n        /* \"#utility.yul\":4326:4331   */\n      0x00\n        /* \"#utility.yul\":4351:4416   */\n      tag_118\n        /* \"#utility.yul\":4367:4415   */\n      tag_119\n        /* \"#utility.yul\":4408:4414   */\n      dup5\n        /* \"#utility.yul\":4367:4415   */\n      tag_48\n      jump\t// in\n    tag_119:\n        /* \"#utility.yul\":4351:4416   */\n      tag_47\n      jump\t// in\n    tag_118:\n        /* \"#utility.yul\":4342:4416   */\n      swap1\n      pop\n        /* \"#utility.yul\":4439:4445   */\n      dup3\n        /* \"#utility.yul\":4432:4437   */\n      dup2\n        /* \"#utility.yul\":4425:4446   */\n      mstore\n        /* \"#utility.yul\":4477:4481   */\n      0x20\n        /* \"#utility.yul\":4470:4475   */\n      dup2\n        /* \"#utility.yul\":4466:4482   */\n      add\n        /* \"#utility.yul\":4515:4518   */\n      dup5\n        /* \"#utility.yul\":4506:4512   */\n      dup5\n        /* \"#utility.yul\":4501:4504   */\n      dup5\n        /* \"#utility.yul\":4497:4513   */\n      add\n        /* \"#utility.yul\":4494:4519   */\n      gt\n        /* \"#utility.yul\":4491:4603   */\n      iszero\n      tag_120\n      jumpi\n        /* \"#utility.yul\":4522:4601   */\n      tag_121\n      tag_43\n      jump\t// in\n    tag_121:\n        /* \"#utility.yul\":4491:4603   */\n    tag_120:\n        /* \"#utility.yul\":4612:4666   */\n      tag_122\n        /* \"#utility.yul\":4659:4665   */\n      dup5\n        /* \"#utility.yul\":4654:4657   */\n      dup3\n        /* \"#utility.yul\":4649:4652   */\n      dup6\n        /* \"#utility.yul\":4612:4666   */\n      tag_49\n      jump\t// in\n    tag_122:\n        /* \"#utility.yul\":4332:4672   */\n      pop\n        /* \"#utility.yul\":4249:4672   */\n      swap4\n      swap3\n      pop\n      pop\n      pop\n      jump\t// out\n        /* \"#utility.yul\":4691:5029   */\n    tag_51:\n        /* \"#utility.yul\":4746:4751   */\n      0x00\n        /* \"#utility.yul\":4795:4798   */\n      dup3\n        /* \"#utility.yul\":4788:4792   */\n      0x1f\n        /* \"#utility.yul\":4780:4786   */\n      dup4\n        /* \"#utility.yul\":4776:4793   */\n      add\n        /* \"#utility.yul\":4772:4799   */\n      slt\n        /* \"#utility.yul\":4762:4884   */\n      tag_124\n      jumpi\n        /* \"#utility.yul\":4803:4882   */\n      tag_125\n      tag_42\n      jump\t// in\n    tag_125:\n        /* \"#utility.yul\":4762:4884   */\n    tag_124:\n        /* \"#utility.yul\":4920:4926   */\n      dup2\n        /* \"#utility.yul\":4907:4927   */\n      calldataload\n        /* \"#utility.yul\":4945:5023   */\n      tag_126\n        /* \"#utility.yul\":5019:5022   */\n      dup5\n        /* \"#utility.yul\":5011:5017   */\n      dup3\n        /* \"#utility.yul\":5004:5008   */\n      0x20\n        /* \"#utility.yul\":4996:5002   */\n      dup7\n        /* \"#utility.yul\":4992:5009   */\n      add\n        /* \"#utility.yul\":4945:5023   */\n      tag_50\n      jump\t// in\n    tag_126:\n        /* \"#utility.yul\":4936:5023   */\n      swap2\n      pop\n        /* \"#utility.yul\":4752:5029   */\n      pop\n        /* \"#utility.yul\":4691:5029   */\n      swap3\n      swap2\n      pop\n      pop\n      jump\t// out\n        /* \"#utility.yul\":5035:5542   */\n    tag_17:\n        /* \"#utility.yul\":5103:5109   */\n      0x00\n        /* \"#utility.yul\":5152:5154   */\n      0x20\n        /* \"#utility.yul\":5140:5149   */\n      dup3\n        /* \"#utility.yul\":5131:5138   */\n      dup5\n        /* \"#utility.yul\":5127:5150   */\n      sub\n        /* \"#utility.yul\":5123:5155   */\n      slt\n        /* \"#utility.yul\":5120:5239   */\n      iszero\n      tag_128\n      jumpi\n        /* \"#utility.yul\":5158:5237   */\n      tag_129\n      tag_31\n      jump\t// in\n    tag_129:\n        /* \"#utility.yul\":5120:5239   */\n    tag_128:\n        /* \"#utility.yul\":5306:5307   */\n      0x00\n        /* \"#utility.yul\":5295:5304   */\n      dup3\n        /* \"#utility.yul\":5291:5308   */\n      add\n        /* \"#utility.yul\":5278:5309   */\n      calldataload\n        /* \"#utility.yul\":5336:5354   */\n      0xffffffffffffffff\n        /* \"#utility.yul\":5328:5334   */\n      dup2\n        /* \"#utility.yul\":5325:5355   */\n      gt\n        /* \"#utility.yul\":5322:5439   */\n      iszero\n      tag_130\n      jumpi\n        /* \"#utility.yul\":5358:5437   */\n      tag_131\n      tag_32\n      jump\t// in\n    tag_131:\n        /* \"#utility.yul\":5322:5439   */\n    tag_130:\n        /* \"#utility.yul\":5463:5525   */\n      tag_132\n        /* \"#utility.yul\":5517:5524   */\n      dup5\n        /* \"#utility.yul\":5508:5514   */\n      dup3\n        /* \"#utility.yul\":5497:5506   */\n      dup6\n        /* \"#utility.yul\":5493:5515   */\n      add\n        /* \"#utility.yul\":5463:5525   */\n      tag_51\n      jump\t// in\n    tag_132:\n        /* \"#utility.yul\":5453:5525   */\n      swap2\n      pop\n        /* \"#utility.yul\":5249:5535   */\n      pop\n        /* \"#utility.yul\":5035:5542   */\n      swap3\n      swap2\n      pop\n      pop\n      jump\t// out\n        /* \"#utility.yul\":5548:5634   */\n    tag_52:\n        /* \"#utility.yul\":5583:5590   */\n      0x00\n        /* \"#utility.yul\":5623:5627   */\n      0xff\n        /* \"#utility.yul\":5616:5621   */\n      dup3\n        /* \"#utility.yul\":5612:5628   */\n      and\n        /* \"#utility.yul\":5601:5628   */\n      swap1\n      pop\n        /* \"#utility.yul\":5548:5634   */\n      swap2\n      swap1\n      pop\n      jump\t// out\n        /* \"#utility.yul\":5640:5752   */\n    tag_53:\n        /* \"#utility.yul\":5723:5745   */\n      tag_135\n        /* \"#utility.yul\":5739:5744   */\n      dup2\n        /* \"#utility.yul\":5723:5745   */\n      tag_52\n      jump\t// in\n    tag_135:\n        /* \"#utility.yul\":5718:5721   */\n      dup3\n        /* \"#utility.yul\":5711:5746   */\n      mstore\n        /* \"#utility.yul\":5640:5752   */\n      pop\n      pop\n      jump\t// out\n        /* \"#utility.yul\":5758:6192   */\n    tag_20:\n        /* \"#utility.yul\":5903:5907   */\n      0x00\n        /* \"#utility.yul\":5941:5943   */\n      0x60\n        /* \"#utility.yul\":5930:5939   */\n      dup3\n        /* \"#utility.yul\":5926:5944   */\n      add\n        /* \"#utility.yul\":5918:5944   */\n      swap1\n      pop\n        /* \"#utility.yul\":5954:6025   */\n      tag_137\n        /* \"#utility.yul\":6022:6023   */\n      0x00\n        /* \"#utility.yul\":6011:6020   */\n      dup4\n        /* \"#utility.yul\":6007:6024   */\n      add\n        /* \"#utility.yul\":5998:6004   */\n      dup7\n        /* \"#utility.yul\":5954:6025   */\n      tag_29\n      jump\t// in\n    tag_137:\n        /* \"#utility.yul\":6035:6107   */\n      tag_138\n        /* \"#utility.yul\":6103:6105   */\n      0x20\n        /* \"#utility.yul\":6092:6101   */\n      dup4\n        /* \"#utility.yul\":6088:6106   */\n      add\n        /* \"#utility.yul\":6079:6085   */\n      dup6\n        /* \"#utility.yul\":6035:6107   */\n      tag_29\n      jump\t// in\n    tag_138:\n        /* \"#utility.yul\":6117:6185   */\n      tag_139\n        /* \"#utility.yul\":6181:6183   */\n      0x40\n        /* \"#utility.yul\":6170:6179   */\n      dup4\n        /* \"#utility.yul\":6166:6184   */\n      add\n        /* \"#utility.yul\":6157:6163   */\n      dup5\n        /* \"#utility.yul\":6117:6185   */\n      tag_53\n      jump\t// in\n    tag_139:\n        /* \"#utility.yul\":5758:6192   */\n      swap5\n      swap4\n      pop\n      pop\n      pop\n      pop\n      jump\t// out\n        /* \"#utility.yul\":6198:6277   */\n    tag_54:\n        /* \"#utility.yul\":6237:6244   */\n      0x00\n        /* \"#utility.yul\":6266:6271   */\n      dup2\n        /* \"#utility.yul\":6255:6271   */\n      swap1\n      pop\n        /* \"#utility.yul\":6198:6277   */\n      swap2\n      swap1\n      pop\n      jump\t// out\n        /* \"#utility.yul\":6283:6440   */\n    tag_55:\n        /* \"#utility.yul\":6388:6433   */\n      tag_142\n        /* \"#utility.yul\":6408:6432   */\n      tag_143\n        /* \"#utility.yul\":6426:6431   */\n      dup3\n        /* \"#utility.yul\":6408:6432   */\n      tag_28\n      jump\t// in\n    tag_143:\n        /* \"#utility.yul\":6388:6433   */\n      tag_54\n      jump\t// in\n    tag_142:\n        /* \"#utility.yul\":6383:6386   */\n      dup3\n        /* \"#utility.yul\":6376:6434   */\n      mstore\n        /* \"#utility.yul\":6283:6440   */\n      pop\n      pop\n      jump\t// out\n        /* \"#utility.yul\":6446:6540   */\n    tag_56:\n        /* \"#utility.yul\":6479:6487   */\n      0x00\n        /* \"#utility.yul\":6527:6532   */\n      dup2\n        /* \"#utility.yul\":6523:6525   */\n      0x60\n        /* \"#utility.yul\":6519:6533   */\n      shl\n        /* \"#utility.yul\":6498:6533   */\n      swap1\n      pop\n        /* \"#utility.yul\":6446:6540   */\n      swap2\n      swap1\n      pop\n      jump\t// out\n        /* \"#utility.yul\":6546:6640   */\n    tag_57:\n        /* \"#utility.yul\":6585:6592   */\n      0x00\n        /* \"#utility.yul\":6614:6634   */\n      tag_146\n        /* \"#utility.yul\":6628:6633   */\n      dup3\n        /* \"#utility.yul\":6614:6634   */\n      tag_56\n      jump\t// in\n    tag_146:\n        /* \"#utility.yul\":6603:6634   */\n      swap1\n      pop\n        /* \"#utility.yul\":6546:6640   */\n      swap2\n      swap1\n      pop\n      jump\t// out\n        /* \"#utility.yul\":6646:6746   */\n    tag_58:\n        /* \"#utility.yul\":6685:6692   */\n      0x00\n        /* \"#utility.yul\":6714:6740   */\n      tag_148\n        /* \"#utility.yul\":6734:6739   */\n      dup3\n        /* \"#utility.yul\":6714:6740   */\n      tag_57\n      jump\t// in\n    tag_148:\n        /* \"#utility.yul\":6703:6740   */\n      swap1\n      pop\n        /* \"#utility.yul\":6646:6746   */\n      swap2\n      swap1\n      pop\n      jump\t// out\n        /* \"#utility.yul\":6752:6909   */\n    tag_59:\n        /* \"#utility.yul\":6857:6902   */\n      tag_150\n        /* \"#utility.yul\":6877:6901   */\n      tag_151\n        /* \"#utility.yul\":6895:6900   */\n      dup3\n        /* \"#utility.yul\":6877:6901   */\n      tag_36\n      jump\t// in\n    tag_151:\n        /* \"#utility.yul\":6857:6902   */\n      tag_58\n      jump\t// in\n    tag_150:\n        /* \"#utility.yul\":6852:6855   */\n      dup3\n        /* \"#utility.yul\":6845:6903   */\n      mstore\n        /* \"#utility.yul\":6752:6909   */\n      pop\n      pop\n      jump\t// out\n        /* \"#utility.yul\":6915:6994   */\n    tag_60:\n        /* \"#utility.yul\":6954:6961   */\n      0x00\n        /* \"#utility.yul\":6983:6988   */\n      dup2\n        /* \"#utility.yul\":6972:6988   */\n      swap1\n      pop\n        /* \"#utility.yul\":6915:6994   */\n      swap2\n      swap1\n      pop\n      jump\t// out\n        /* \"#utility.yul\":7000:7157   */\n    tag_61:\n        /* \"#utility.yul\":7105:7150   */\n      tag_154\n        /* \"#utility.yul\":7125:7149   */\n      tag_155\n        /* \"#utility.yul\":7143:7148   */\n      dup3\n        /* \"#utility.yul\":7125:7149   */\n      tag_39\n      jump\t// in\n    tag_155:\n        /* \"#utility.yul\":7105:7150   */\n      tag_60\n      jump\t// in\n    tag_154:\n        /* \"#utility.yul\":7100:7103   */\n      dup3\n        /* \"#utility.yul\":7093:7151   */\n      mstore\n        /* \"#utility.yul\":7000:7157   */\n      pop\n      pop\n      jump\t// out\n        /* \"#utility.yul\":7163:7983   */\n    tag_23:\n        /* \"#utility.yul\":7387:7390   */\n      0x00\n        /* \"#utility.yul\":7402:7477   */\n      tag_157\n        /* \"#utility.yul\":7473:7476   */\n      dup3\n        /* \"#utility.yul\":7464:7470   */\n      dup9\n        /* \"#utility.yul\":7402:7477   */\n      tag_55\n      jump\t// in\n    tag_157:\n        /* \"#utility.yul\":7502:7504   */\n      0x20\n        /* \"#utility.yul\":7497:7500   */\n      dup3\n        /* \"#utility.yul\":7493:7505   */\n      add\n        /* \"#utility.yul\":7486:7505   */\n      swap2\n      pop\n        /* \"#utility.yul\":7515:7590   */\n      tag_158\n        /* \"#utility.yul\":7586:7589   */\n      dup3\n        /* \"#utility.yul\":7577:7583   */\n      dup8\n        /* \"#utility.yul\":7515:7590   */\n      tag_59\n      jump\t// in\n    tag_158:\n        /* \"#utility.yul\":7615:7617   */\n      0x14\n        /* \"#utility.yul\":7610:7613   */\n      dup3\n        /* \"#utility.yul\":7606:7618   */\n      add\n        /* \"#utility.yul\":7599:7618   */\n      swap2\n      pop\n        /* \"#utility.yul\":7628:7703   */\n      tag_159\n        /* \"#utility.yul\":7699:7702   */\n      dup3\n        /* \"#utility.yul\":7690:7696   */\n      dup7\n        /* \"#utility.yul\":7628:7703   */\n      tag_59\n      jump\t// in\n    tag_159:\n        /* \"#utility.yul\":7728:7730   */\n      0x14\n        /* \"#utility.yul\":7723:7726   */\n      dup3\n        /* \"#utility.yul\":7719:7731   */\n      add\n        /* \"#utility.yul\":7712:7731   */\n      swap2\n      pop\n        /* \"#utility.yul\":7741:7816   */\n      tag_160\n        /* \"#utility.yul\":7812:7815   */\n      dup3\n        /* \"#utility.yul\":7803:7809   */\n      dup6\n        /* \"#utility.yul\":7741:7816   */\n      tag_61\n      jump\t// in\n    tag_160:\n        /* \"#utility.yul\":7841:7843   */\n      0x20\n        /* \"#utility.yul\":7836:7839   */\n      dup3\n        /* \"#utility.yul\":7832:7844   */\n      add\n        /* \"#utility.yul\":7825:7844   */\n      swap2\n      pop\n        /* \"#utility.yul\":7854:7929   */\n      tag_161\n        /* \"#utility.yul\":7925:7928   */\n      dup3\n        /* \"#utility.yul\":7916:7922   */\n      dup5\n        /* \"#utility.yul\":7854:7929   */\n      tag_61\n      jump\t// in\n    tag_161:\n        /* \"#utility.yul\":7954:7956   */\n      0x20\n        /* \"#utility.yul\":7949:7952   */\n      dup3\n        /* \"#utility.yul\":7945:7957   */\n      add\n        /* \"#utility.yul\":7938:7957   */\n      swap2\n      pop\n        /* \"#utility.yul\":7974:7977   */\n      dup2\n        /* \"#utility.yul\":7967:7977   */\n      swap1\n      pop\n        /* \"#utility.yul\":7163:7983   */\n      swap7\n      swap6\n      pop\n      pop\n      pop\n      pop\n      pop\n      pop\n      jump\t// out\n        /* \"#utility.yul\":7989:8158   */\n    tag_62:\n        /* \"#utility.yul\":8073:8084   */\n      0x00\n        /* \"#utility.yul\":8107:8113   */\n      dup3\n        /* \"#utility.yul\":8102:8105   */\n      dup3\n        /* \"#utility.yul\":8095:8114   */\n      mstore\n        /* \"#utility.yul\":8147:8151   */\n      0x20\n        /* \"#utility.yul\":8142:8145   */\n      dup3\n        /* \"#utility.yul\":8138:8152   */\n      add\n        /* \"#utility.yul\":8123:8152   */\n      swap1\n      pop\n        /* \"#utility.yul\":7989:8158   */\n      swap3\n      swap2\n      pop\n      pop\n      jump\t// out\n        /* \"#utility.yul\":8164:8338   */\n    tag_63:\n        /* \"#utility.yul\":8304:8330   */\n      0x696e76616c6964207369676e6174757265206c656e6774680000000000000000\n        /* \"#utility.yul\":8300:8301   */\n      0x00\n        /* \"#utility.yul\":8292:8298   */\n      dup3\n        /* \"#utility.yul\":8288:8302   */\n      add\n        /* \"#utility.yul\":8281:8331   */\n      mstore\n        /* \"#utility.yul\":8164:8338   */\n      pop\n      jump\t// out\n        /* \"#utility.yul\":8344:8710   */\n    tag_64:\n        /* \"#utility.yul\":8486:8489   */\n      0x00\n        /* \"#utility.yul\":8507:8574   */\n      tag_165\n        /* \"#utility.yul\":8571:8573   */\n      0x18\n        /* \"#utility.yul\":8566:8569   */\n      dup4\n        /* \"#utility.yul\":8507:8574   */\n      tag_62\n      jump\t// in\n    tag_165:\n        /* \"#utility.yul\":8500:8574   */\n      swap2\n      pop\n        /* \"#utility.yul\":8583:8676   */\n      tag_166\n        /* \"#utility.yul\":8672:8675   */\n      dup3\n        /* \"#utility.yul\":8583:8676   */\n      tag_63\n      jump\t// in\n    tag_166:\n        /* \"#utility.yul\":8701:8703   */\n      0x20\n        /* \"#utility.yul\":8696:8699   */\n      dup3\n        /* \"#utility.yul\":8692:8704   */\n      add\n        /* \"#utility.yul\":8685:8704   */\n      swap1\n      pop\n        /* \"#utility.yul\":8344:8710   */\n      swap2\n      swap1\n      pop\n      jump\t// out\n        /* \"#utility.yul\":8716:9135   */\n    tag_27:\n        /* \"#utility.yul\":8882:8886   */\n      0x00\n        /* \"#utility.yul\":8920:8922   */\n      0x20\n        /* \"#utility.yul\":8909:8918   */\n      dup3\n        /* \"#utility.yul\":8905:8923   */\n      add\n        /* \"#utility.yul\":8897:8923   */\n      swap1\n      pop\n        /* \"#utility.yul\":8969:8978   */\n      dup2\n        /* \"#utility.yul\":8963:8967   */\n      dup2\n        /* \"#utility.yul\":8959:8979   */\n      sub\n        /* \"#utility.yul\":8955:8956   */\n      0x00\n        /* \"#utility.yul\":8944:8953   */\n      dup4\n        /* \"#utility.yul\":8940:8957   */\n      add\n        /* \"#utility.yul\":8933:8980   */\n      mstore\n        /* \"#utility.yul\":8997:9128   */\n      tag_168\n        /* \"#utility.yul\":9123:9127   */\n      dup2\n        /* \"#utility.yul\":8997:9128   */\n      tag_64\n      jump\t// in\n    tag_168:\n        /* \"#utility.yul\":8989:9128   */\n      swap1\n      pop\n        /* \"#utility.yul\":8716:9135   */\n      swap2\n      swap1\n      pop\n      jump\t// out\n\n    auxdata: 0xa2646970667358221220243a78ec8e7d28078602fd6ce28c4c9bc9f2a30d889758f3151b19494509b4ad64736f6c63430008110033\n}\n",
				"bytecode": {
					"linkReferences": {},
					"object": "608060405234801561001057600080fd5b5061068f806100206000396000f3fe608060405234801561001057600080fd5b50600436106100415760003560e01c806330adf81f14610046578063a29ff68e14610064578063a7bb580314610094575b600080fd5b61004e6100c6565b60405161005b91906101a7565b60405180910390f35b61007e60048036038101906100799190610296565b6100ea565b60405161008b91906101a7565b60405180910390f35b6100ae60048036038101906100a99190610457565b610126565b6040516100bd939291906104bc565b60405180910390f35b7f05619a74ecd0240afc3bfb1df2bd1319401220fb577809c3a09bf0ab809ac86181565b6000858585858560405160200161010595949392919061057d565b60405160208183030381529060405280519060200120905095945050505050565b6000806000604184511461016f576040517f08c379a000000000000000000000000000000000000000000000000000000000815260040161016690610639565b60405180910390fd5b6020840151925060408401519150606084015160001a90509193909250565b6000819050919050565b6101a18161018e565b82525050565b60006020820190506101bc6000830184610198565b92915050565b6000604051905090565b600080fd5b600080fd5b6101df8161018e565b81146101ea57600080fd5b50565b6000813590506101fc816101d6565b92915050565b600073ffffffffffffffffffffffffffffffffffffffff82169050919050565b600061022d82610202565b9050919050565b61023d81610222565b811461024857600080fd5b50565b60008135905061025a81610234565b92915050565b6000819050919050565b61027381610260565b811461027e57600080fd5b50565b6000813590506102908161026a565b92915050565b600080600080600060a086880312156102b2576102b16101cc565b5b60006102c0888289016101ed565b95505060206102d18882890161024b565b94505060406102e28882890161024b565b93505060606102f388828901610281565b925050608061030488828901610281565b9150509295509295909350565b600080fd5b600080fd5b6000601f19601f8301169050919050565b7f4e487b7100000000000000000000000000000000000000000000000000000000600052604160045260246000fd5b6103648261031b565b810181811067ffffffffffffffff821117156103835761038261032c565b5b80604052505050565b60006103966101c2565b90506103a2828261035b565b919050565b600067ffffffffffffffff8211156103c2576103c161032c565b5b6103cb8261031b565b9050602081019050919050565b82818337600083830152505050565b60006103fa6103f5846103a7565b61038c565b90508281526020810184848401111561041657610415610316565b5b6104218482856103d8565b509392505050565b600082601f83011261043e5761043d610311565b5b813561044e8482602086016103e7565b91505092915050565b60006020828403121561046d5761046c6101cc565b5b600082013567ffffffffffffffff81111561048b5761048a6101d1565b5b61049784828501610429565b91505092915050565b600060ff82169050919050565b6104b6816104a0565b82525050565b60006060820190506104d16000830186610198565b6104de6020830185610198565b6104eb60408301846104ad565b949350505050565b6000819050919050565b61050e6105098261018e565b6104f3565b82525050565b60008160601b9050919050565b600061052c82610514565b9050919050565b600061053e82610521565b9050919050565b61055661055182610222565b610533565b82525050565b6000819050919050565b61057761057282610260565b61055c565b82525050565b600061058982886104fd565b6020820191506105998287610545565b6014820191506105a98286610545565b6014820191506105b98285610566565b6020820191506105c98284610566565b6020820191508190509695505050505050565b600082825260208201905092915050565b7f696e76616c6964207369676e6174757265206c656e6774680000000000000000600082015250565b60006106236018836105dc565b915061062e826105ed565b602082019050919050565b6000602082019050818103600083015261065281610616565b905091905056fea2646970667358221220243a78ec8e7d28078602fd6ce28c4c9bc9f2a30d889758f3151b19494509b4ad64736f6c63430008110033",
					"opcodes": "PUSH1 0x80 PUSH1 0x40 MSTORE CALLVALUE DUP1 ISZERO PUSH2 0x10 JUMPI PUSH1 0x0 DUP1 REVERT JUMPDEST POP PUSH2 0x68F DUP1 PUSH2 0x20 PUSH1 0x0 CODECOPY PUSH1 0x0 RETURN INVALID PUSH1 0x80 PUSH1 0x40 MSTORE CALLVALUE DUP1 ISZERO PUSH2 0x10 JUMPI PUSH1 0x0 DUP1 REVERT JUMPDEST POP PUSH1 0x4 CALLDATASIZE LT PUSH2 0x41 JUMPI PUSH1 0x0 CALLDATALOAD PUSH1 0xE0 SHR DUP1 PUSH4 0x30ADF81F EQ PUSH2 0x46 JUMPI DUP1 PUSH4 0xA29FF68E EQ PUSH2 0x64 JUMPI DUP1 PUSH4 0xA7BB5803 EQ PUSH2 0x94 JUMPI JUMPDEST PUSH1 0x0 DUP1 REVERT JUMPDEST PUSH2 0x4E PUSH2 0xC6 JUMP JUMPDEST PUSH1 0x40 MLOAD PUSH2 0x5B SWAP2 SWAP1 PUSH2 0x1A7 JUMP JUMPDEST PUSH1 0x40 MLOAD DUP1 SWAP2 SUB SWAP1 RETURN JUMPDEST PUSH2 0x7E PUSH1 0x4 DUP1 CALLDATASIZE SUB DUP2 ADD SWAP1 PUSH2 0x79 SWAP2 SWAP1 PUSH2 0x296 JUMP JUMPDEST PUSH2 0xEA JUMP JUMPDEST PUSH1 0x40 MLOAD PUSH2 0x8B SWAP2 SWAP1 PUSH2 0x1A7 JUMP JUMPDEST PUSH1 0x40 MLOAD DUP1 SWAP2 SUB SWAP1 RETURN JUMPDEST PUSH2 0xAE PUSH1 0x4 DUP1 CALLDATASIZE SUB DUP2 ADD SWAP1 PUSH2 0xA9 SWAP2 SWAP1 PUSH2 0x457 JUMP JUMPDEST PUSH2 0x126 JUMP JUMPDEST PUSH1 0x40 MLOAD PUSH2 0xBD SWAP4 SWAP3 SWAP2 SWAP1 PUSH2 0x4BC JUMP JUMPDEST PUSH1 0x40 MLOAD DUP1 SWAP2 SUB SWAP1 RETURN JUMPDEST PUSH32 0x5619A74ECD0240AFC3BFB1DF2BD1319401220FB577809C3A09BF0AB809AC861 DUP2 JUMP JUMPDEST PUSH1 0x0 DUP6 DUP6 DUP6 DUP6 DUP6 PUSH1 0x40 MLOAD PUSH1 0x20 ADD PUSH2 0x105 SWAP6 SWAP5 SWAP4 SWAP3 SWAP2 SWAP1 PUSH2 0x57D JUMP JUMPDEST PUSH1 0x40 MLOAD PUSH1 0x20 DUP2 DUP4 SUB SUB DUP2 MSTORE SWAP1 PUSH1 0x40 MSTORE DUP1 MLOAD SWAP1 PUSH1 0x20 ADD KECCAK256 SWAP1 POP SWAP6 SWAP5 POP POP POP POP POP JUMP JUMPDEST PUSH1 0x0 DUP1 PUSH1 0x0 PUSH1 0x41 DUP5 MLOAD EQ PUSH2 0x16F JUMPI PUSH1 0x40 MLOAD PUSH32 0x8C379A000000000000000000000000000000000000000000000000000000000 DUP2 MSTORE PUSH1 0x4 ADD PUSH2 0x166 SWAP1 PUSH2 0x639 JUMP JUMPDEST PUSH1 0x40 MLOAD DUP1 SWAP2 SUB SWAP1 REVERT JUMPDEST PUSH1 0x20 DUP5 ADD MLOAD SWAP3 POP PUSH1 0x40 DUP5 ADD MLOAD SWAP2 POP PUSH1 0x60 DUP5 ADD MLOAD PUSH1 0x0 BYTE SWAP1 POP SWAP2 SWAP4 SWAP1 SWAP3 POP JUMP JUMPDEST PUSH1 0x0 DUP2 SWAP1 POP SWAP2 SWAP1 POP JUMP JUMPDEST PUSH2 0x1A1 DUP2 PUSH2 0x18E JUMP JUMPDEST DUP3 MSTORE POP POP JUMP JUMPDEST PUSH1 0x0 PUSH1 0x20 DUP3 ADD SWAP1 POP PUSH2 0x1BC PUSH1 0x0 DUP4 ADD DUP5 PUSH2 0x198 JUMP JUMPDEST SWAP3 SWAP2 POP POP JUMP JUMPDEST PUSH1 0x0 PUSH1 0x40 MLOAD SWAP1 POP SWAP1 JUMP JUMPDEST PUSH1 0x0 DUP1 REVERT JUMPDEST PUSH1 0x0 DUP1 REVERT JUMPDEST PUSH2 0x1DF DUP2 PUSH2 0x18E JUMP JUMPDEST DUP2 EQ PUSH2 0x1EA JUMPI PUSH1 0x0 DUP1 REVERT JUMPDEST POP JUMP JUMPDEST PUSH1 0x0 DUP2 CALLDATALOAD SWAP1 POP PUSH2 0x1FC DUP2 PUSH2 0x1D6 JUMP JUMPDEST SWAP3 SWAP2 POP POP JUMP JUMPDEST PUSH1 0x0 PUSH20 0xFFFFFFFFFFFFFFFFFFFFFFFFFFFFFFFFFFFFFFFF DUP3 AND SWAP1 POP SWAP2 SWAP1 POP JUMP JUMPDEST PUSH1 0x0 PUSH2 0x22D DUP3 PUSH2 0x202 JUMP JUMPDEST SWAP1 POP SWAP2 SWAP1 POP JUMP JUMPDEST PUSH2 0x23D DUP2 PUSH2 0x222 JUMP JUMPDEST DUP2 EQ PUSH2 0x248 JUMPI PUSH1 0x0 DUP1 REVERT JUMPDEST POP JUMP JUMPDEST PUSH1 0x0 DUP2 CALLDATALOAD SWAP1 POP PUSH2 0x25A DUP2 PUSH2 0x234 JUMP JUMPDEST SWAP3 SWAP2 POP POP JUMP JUMPDEST PUSH1 0x0 DUP2 SWAP1 POP SWAP2 SWAP1 POP JUMP JUMPDEST PUSH2 0x273 DUP2 PUSH2 0x260 JUMP JUMPDEST DUP2 EQ PUSH2 0x27E JUMPI PUSH1 0x0 DUP1 REVERT JUMPDEST POP JUMP JUMPDEST PUSH1 0x0 DUP2 CALLDATALOAD SWAP1 POP PUSH2 0x290 DUP2 PUSH2 0x26A JUMP JUMPDEST SWAP3 SWAP2 POP POP JUMP JUMPDEST PUSH1 0x0 DUP1 PUSH1 0x0 DUP1 PUSH1 0x0 PUSH1 0xA0 DUP7 DUP9 SUB SLT ISZERO PUSH2 0x2B2 JUMPI PUSH2 0x2B1 PUSH2 0x1CC JUMP JUMPDEST JUMPDEST PUSH1 0x0 PUSH2 0x2C0 DUP9 DUP3 DUP10 ADD PUSH2 0x1ED JUMP JUMPDEST SWAP6 POP POP PUSH1 0x20 PUSH2 0x2D1 DUP9 DUP3 DUP10 ADD PUSH2 0x24B JUMP JUMPDEST SWAP5 POP POP PUSH1 0x40 PUSH2 0x2E2 DUP9 DUP3 DUP10 ADD PUSH2 0x24B JUMP JUMPDEST SWAP4 POP POP PUSH1 0x60 PUSH2 0x2F3 DUP9 DUP3 DUP10 ADD PUSH2 0x281 JUMP JUMPDEST SWAP3 POP POP PUSH1 0x80 PUSH2 0x304 DUP9 DUP3 DUP10 ADD PUSH2 0x281 JUMP JUMPDEST SWAP2 POP POP SWAP3 SWAP6 POP SWAP3 SWAP6 SWAP1 SWAP4 POP JUMP JUMPDEST PUSH1 0x0 DUP1 REVERT JUMPDEST PUSH1 0x0 DUP1 REVERT JUMPDEST PUSH1 0x0 PUSH1 0x1F NOT PUSH1 0x1F DUP4 ADD AND SWAP1 POP SWAP2 SWAP1 POP JUMP JUMPDEST PUSH32 0x4E487B7100000000000000000000000000000000000000000000000000000000 PUSH1 0x0 MSTORE PUSH1 0x41 PUSH1 0x4 MSTORE PUSH1 0x24 PUSH1 0x0 REVERT JUMPDEST PUSH2 0x364 DUP3 PUSH2 0x31B JUMP JUMPDEST DUP2 ADD DUP2 DUP2 LT PUSH8 0xFFFFFFFFFFFFFFFF DUP3 GT OR ISZERO PUSH2 0x383 JUMPI PUSH2 0x382 PUSH2 0x32C JUMP JUMPDEST JUMPDEST DUP1 PUSH1 0x40 MSTORE POP POP POP JUMP JUMPDEST PUSH1 0x0 PUSH2 0x396 PUSH2 0x1C2 JUMP JUMPDEST SWAP1 POP PUSH2 0x3A2 DUP3 DUP3 PUSH2 0x35B JUMP JUMPDEST SWAP2 SWAP1 POP JUMP JUMPDEST PUSH1 0x0 PUSH8 0xFFFFFFFFFFFFFFFF DUP3 GT ISZERO PUSH2 0x3C2 JUMPI PUSH2 0x3C1 PUSH2 0x32C JUMP JUMPDEST JUMPDEST PUSH2 0x3CB DUP3 PUSH2 0x31B JUMP JUMPDEST SWAP1 POP PUSH1 0x20 DUP2 ADD SWAP1 POP SWAP2 SWAP1 POP JUMP JUMPDEST DUP3 DUP2 DUP4 CALLDATACOPY PUSH1 0x0 DUP4 DUP4 ADD MSTORE POP POP POP JUMP JUMPDEST PUSH1 0x0 PUSH2 0x3FA PUSH2 0x3F5 DUP5 PUSH2 0x3A7 JUMP JUMPDEST PUSH2 0x38C JUMP JUMPDEST SWAP1 POP DUP3 DUP2 MSTORE PUSH1 0x20 DUP2 ADD DUP5 DUP5 DUP5 ADD GT ISZERO PUSH2 0x416 JUMPI PUSH2 0x415 PUSH2 0x316 JUMP JUMPDEST JUMPDEST PUSH2 0x421 DUP5 DUP3 DUP6 PUSH2 0x3D8 JUMP JUMPDEST POP SWAP4 SWAP3 POP POP POP JUMP JUMPDEST PUSH1 0x0 DUP3 PUSH1 0x1F DUP4 ADD SLT PUSH2 0x43E JUMPI PUSH2 0x43D PUSH2 0x311 JUMP JUMPDEST JUMPDEST DUP2 CALLDATALOAD PUSH2 0x44E DUP5 DUP3 PUSH1 0x20 DUP7 ADD PUSH2 0x3E7 JUMP JUMPDEST SWAP2 POP POP SWAP3 SWAP2 POP POP JUMP JUMPDEST PUSH1 0x0 PUSH1 0x20 DUP3 DUP5 SUB SLT ISZERO PUSH2 0x46D JUMPI PUSH2 0x46C PUSH2 0x1CC JUMP JUMPDEST JUMPDEST PUSH1 0x0 DUP3 ADD CALLDATALOAD PUSH8 0xFFFFFFFFFFFFFFFF DUP2 GT ISZERO PUSH2 0x48B JUMPI PUSH2 0x48A PUSH2 0x1D1 JUMP JUMPDEST JUMPDEST PUSH2 0x497 DUP5 DUP3 DUP6 ADD PUSH2 0x429 JUMP JUMPDEST SWAP2 POP POP SWAP3 SWAP2 POP POP JUMP JUMPDEST PUSH1 0x0 PUSH1 0xFF DUP3 AND SWAP1 POP SWAP2 SWAP1 POP JUMP JUMPDEST PUSH2 0x4B6 DUP2 PUSH2 0x4A0 JUMP JUMPDEST DUP3 MSTORE POP POP JUMP JUMPDEST PUSH1 0x0 PUSH1 0x60 DUP3 ADD SWAP1 POP PUSH2 0x4D1 PUSH1 0x0 DUP4 ADD DUP7 PUSH2 0x198 JUMP JUMPDEST PUSH2 0x4DE PUSH1 0x20 DUP4 ADD DUP6 PUSH2 0x198 JUMP JUMPDEST PUSH2 0x4EB PUSH1 0x40 DUP4 ADD DUP5 PUSH2 0x4AD JUMP JUMPDEST SWAP5 SWAP4 POP POP POP POP JUMP JUMPDEST PUSH1 0x0 DUP2 SWAP1 POP SWAP2 SWAP1 POP JUMP JUMPDEST PUSH2 0x50E PUSH2 0x509 DUP3 PUSH2 0x18E JUMP JUMPDEST PUSH2 0x4F3 JUMP JUMPDEST DUP3 MSTORE POP POP JUMP JUMPDEST PUSH1 0x0 DUP2 PUSH1 0x60 SHL SWAP1 POP SWAP2 SWAP1 POP JUMP JUMPDEST PUSH1 0x0 PUSH2 0x52C DUP3 PUSH2 0x514 JUMP JUMPDEST SWAP1 POP SWAP2 SWAP1 POP JUMP JUMPDEST PUSH1 0x0 PUSH2 0x53E DUP3 PUSH2 0x521 JUMP JUMPDEST SWAP1 POP SWAP2 SWAP1 POP JUMP JUMPDEST PUSH2 0x556 PUSH2 0x551 DUP3 PUSH2 0x222 JUMP JUMPDEST PUSH2 0x533 JUMP JUMPDEST DUP3 MSTORE POP POP JUMP JUMPDEST PUSH1 0x0 DUP2 SWAP1 POP SWAP2 SWAP1 POP JUMP JUMPDEST PUSH2 0x577 PUSH2 0x572 DUP3 PUSH2 0x260 JUMP JUMPDEST PUSH2 0x55C JUMP JUMPDEST DUP3 MSTORE POP POP JUMP JUMPDEST PUSH1 0x0 PUSH2 0x589 DUP3 DUP9 PUSH2 0x4FD JUMP JUMPDEST PUSH1 0x20 DUP3 ADD SWAP2 POP PUSH2 0x599 DUP3 DUP8 PUSH2 0x545 JUMP JUMPDEST PUSH1 0x14 DUP3 ADD SWAP2 POP PUSH2 0x5A9 DUP3 DUP7 PUSH2 0x545 JUMP JUMPDEST PUSH1 0x14 DUP3 ADD SWAP2 POP PUSH2 0x5B9 DUP3 DUP6 PUSH2 0x566 JUMP JUMPDEST PUSH1 0x20 DUP3 ADD SWAP2 POP PUSH2 0x5C9 DUP3 DUP5 PUSH2 0x566 JUMP JUMPDEST PUSH1 0x20 DUP3 ADD SWAP2 POP DUP2 SWAP1 POP SWAP7 SWAP6 POP POP POP POP POP POP JUMP JUMPDEST PUSH1 0x0 DUP3 DUP3 MSTORE PUSH1 0x20 DUP3 ADD SWAP1 POP SWAP3 SWAP2 POP POP JUMP JUMPDEST PUSH32 0x696E76616C6964207369676E6174757265206C656E6774680000000000000000 PUSH1 0x0 DUP3 ADD MSTORE POP JUMP JUMPDEST PUSH1 0x0 PUSH2 0x623 PUSH1 0x18 DUP4 PUSH2 0x5DC JUMP JUMPDEST SWAP2 POP PUSH2 0x62E DUP3 PUSH2 0x5ED JUMP JUMPDEST PUSH1 0x20 DUP3 ADD SWAP1 POP SWAP2 SWAP1 POP JUMP JUMPDEST PUSH1 0x0 PUSH1 0x20 DUP3 ADD SWAP1 POP DUP2 DUP2 SUB PUSH1 0x0 DUP4 ADD MSTORE PUSH2 0x652 DUP2 PUSH2 0x616 JUMP JUMPDEST SWAP1 POP SWAP2 SWAP1 POP JUMP INVALID LOG2 PUSH5 0x6970667358 0x22 SLT KECCAK256 0x24 GASPRICE PUSH25 0xEC8E7D28078602FD6CE28C4C9BC9F2A30D889758F3151B1949 GASLIMIT MULMOD 0xB4 0xAD PUSH5 0x736F6C6343 STOP ADDMOD GT STOP CALLER "
				},
				"gasEstimates": {
					"creation": {
						"codeDepositCost": "335800",
						"executionCost": "374",
						"totalCost": "336174"
					},
					"external": {
						"PERMIT_TYPEHASH()": "307",
						"getPermitMessageHash(bytes32,address,address,uint256,uint256)": "infinite",
						"splitSignature(bytes)": "infinite"
					}
				},
				"methodIdentifiers": {
					"PERMIT_TYPEHASH()": "30adf81f",
					"getPermitMessageHash(bytes32,address,address,uint256,uint256)": "a29ff68e",
					"splitSignature(bytes)": "a7bb5803"
				}
			},
			"storageLayout": {
				"storage": [],
				"types": null
			},
			"userdoc": {
				"kind": "user",
				"methods": {},
				"version": 1
			}
		}
	}
}