{
	"CONTRACTS/VerifySignature.sol": {
		"VerifySignature": {
			"abi": [
				{
					"inputs": [],
					"name": "MAX_INT_EXPONENTIATION",
					"outputs": [
						{
							"internalType": "uint256",
							"name": "",
							"type": "uint256"
						}
					],
					"stateMutability": "view",
					"type": "function"
				},
				{
					"inputs": [],
					"name": "PERMIT_TYPEHASH",
					"outputs": [
						{
							"internalType": "bytes32",
							"name": "",
							"type": "bytes32"
						}
					],
					"stateMutability": "view",
					"type": "function"
				},
				{
					"inputs": [
						{
							"internalType": "bytes32",
							"name": "_PERMIT_TYPEHASH",
							"type": "bytes32"
						},
						{
							"internalType": "address",
							"name": "_owner",
							"type": "address"
						},
						{
							"internalType": "address",
							"name": "_spender",
							"type": "address"
						},
						{
							"internalType": "uint256",
							"name": "_value",
							"type": "uint256"
						},
						{
							"internalType": "uint256",
							"name": "_deadline",
							"type": "uint256"
						}
					],
					"name": "getPermitMessageHash",
					"outputs": [
						{
							"internalType": "bytes32",
							"name": "",
							"type": "bytes32"
						}
					],
					"stateMutability": "view",
					"type": "function"
				},
				{
					"inputs": [
						{
							"internalType": "bytes",
							"name": "signature",
							"type": "bytes"
						}
					],
					"name": "splitSignature",
					"outputs": [
						{
							"internalType": "bytes32",
							"name": "r",
							"type": "bytes32"
						},
						{
							"internalType": "bytes32",
							"name": "s",
							"type": "bytes32"
						},
						{
							"internalType": "uint8",
							"name": "v",
							"type": "uint8"
						}
					],
					"stateMutability": "pure",
					"type": "function"
				}
			],
			"devdoc": {
				"kind": "dev",
				"methods": {},
				"version": 1
			},
			"evm": {
				"assembly": "    /* \"CONTRACTS/VerifySignature.sol\":55:1671  contract VerifySignature {... */\n  mstore(0x40, 0x80)\n  callvalue\n  dup1\n  iszero\n  tag_1\n  jumpi\n  0x00\n  dup1\n  revert\ntag_1:\n  pop\n  dataSize(sub_0)\n  dup1\n  dataOffset(sub_0)\n  0x00\n  codecopy\n  0x00\n  return\nstop\n\nsub_0: assembly {\n        /* \"CONTRACTS/VerifySignature.sol\":55:1671  contract VerifySignature {... */\n      mstore(0x40, 0x80)\n      callvalue\n      dup1\n      iszero\n      tag_1\n      jumpi\n      0x00\n      dup1\n      revert\n    tag_1:\n      pop\n      jumpi(tag_2, lt(calldatasize, 0x04))\n      shr(0xe0, calldataload(0x00))\n      dup1\n      0x1ac3d581\n      eq\n      tag_3\n      jumpi\n      dup1\n      0x30adf81f\n      eq\n      tag_4\n      jumpi\n      dup1\n      0xa29ff68e\n      eq\n      tag_5\n      jumpi\n      dup1\n      0xa7bb5803\n      eq\n      tag_6\n      jumpi\n    tag_2:\n      0x00\n      dup1\n      revert\n        /* \"CONTRACTS/VerifySignature.sol\":469:528  uint256 constant public MAX_INT_EXPONENTIATION = 2**256 - 1 */\n    tag_3:\n      tag_7\n      tag_8\n      jump\t// in\n    tag_7:\n      mload(0x40)\n      tag_9\n      swap2\n      swap1\n      tag_10\n      jump\t// in\n    tag_9:\n      mload(0x40)\n      dup1\n      swap2\n      sub\n      swap1\n      return\n        /* \"CONTRACTS/VerifySignature.sol\":114:237  bytes32 public constant PERMIT_TYPEHASH = keccak256(\"Permit(address owner,address spender,uint256 value,uint256 deadline)\") */\n    tag_4:\n      tag_11\n      tag_12\n      jump\t// in\n    tag_11:\n      mload(0x40)\n      tag_13\n      swap2\n      swap1\n      tag_14\n      jump\t// in\n    tag_13:\n      mload(0x40)\n      dup1\n      swap2\n      sub\n      swap1\n      return\n        /* \"CONTRACTS/VerifySignature.sol\":670:1194  function getPermitMessageHash(... */\n    tag_5:\n      tag_15\n      0x04\n      dup1\n      calldatasize\n      sub\n      dup2\n      add\n      swap1\n      tag_16\n      swap2\n      swap1\n      tag_17\n      jump\t// in\n    tag_16:\n      tag_18\n      jump\t// in\n    tag_15:\n      mload(0x40)\n      tag_19\n      swap2\n      swap1\n      tag_14\n      jump\t// in\n    tag_19:\n      mload(0x40)\n      dup1\n      swap2\n      sub\n      swap1\n      return\n        /* \"CONTRACTS/VerifySignature.sol\":1248:1665  function splitSignature(bytes memory signature)... */\n    tag_6:\n      tag_20\n      0x04\n      dup1\n      calldatasize\n      sub\n      dup2\n      add\n      swap1\n      tag_21\n      swap2\n      swap1\n      tag_22\n      jump\t// in\n    tag_21:\n      tag_23\n      jump\t// in\n    tag_20:\n      mload(0x40)\n      tag_24\n      swap4\n      swap3\n      swap2\n      swap1\n      tag_25\n      jump\t// in\n    tag_24:\n      mload(0x40)\n      dup1\n      swap2\n      sub\n      swap1\n      return\n        /* \"CONTRACTS/VerifySignature.sol\":469:528  uint256 constant public MAX_INT_EXPONENTIATION = 2**256 - 1 */\n    tag_8:\n        /* \"CONTRACTS/VerifySignature.sol\":518:528  2**256 - 1 */\n      0xffffffffffffffffffffffffffffffffffffffffffffffffffffffffffffffff\n        /* \"CONTRACTS/VerifySignature.sol\":469:528  uint256 constant public MAX_INT_EXPONENTIATION = 2**256 - 1 */\n      dup2\n      jump\t// out\n        /* \"CONTRACTS/VerifySignature.sol\":114:237  bytes32 public constant PERMIT_TYPEHASH = keccak256(\"Permit(address owner,address spender,uint256 value,uint256 deadline)\") */\n    tag_12:\n        /* \"CONTRACTS/VerifySignature.sol\":156:237  keccak256(\"Permit(address owner,address spender,uint256 value,uint256 deadline)\") */\n      0x05619a74ecd0240afc3bfb1df2bd1319401220fb577809c3a09bf0ab809ac861\n        /* \"CONTRACTS/VerifySignature.sol\":114:237  bytes32 public constant PERMIT_TYPEHASH = keccak256(\"Permit(address owner,address spender,uint256 value,uint256 deadline)\") */\n      dup2\n      jump\t// out\n        /* \"CONTRACTS/VerifySignature.sol\":670:1194  function getPermitMessageHash(... */\n    tag_18:\n        /* \"CONTRACTS/VerifySignature.sol\":870:877  bytes32 */\n      0x00\n        /* \"CONTRACTS/VerifySignature.sol\":915:916  0 */\n      dup1\n        /* \"CONTRACTS/VerifySignature.sol\":897:917  _owner != address(0) */\n      0xffffffffffffffffffffffffffffffffffffffff\n      and\n        /* \"CONTRACTS/VerifySignature.sol\":897:903  _owner */\n      dup6\n        /* \"CONTRACTS/VerifySignature.sol\":897:917  _owner != address(0) */\n      0xffffffffffffffffffffffffffffffffffffffff\n      and\n      sub\n        /* \"CONTRACTS/VerifySignature.sol\":889:939  require(_owner != address(0), \"invalid-address-0\") */\n      tag_27\n      jumpi\n      mload(0x40)\n      0x08c379a000000000000000000000000000000000000000000000000000000000\n      dup2\n      mstore\n      0x04\n      add\n      tag_28\n      swap1\n      tag_29\n      jump\t// in\n    tag_28:\n      mload(0x40)\n      dup1\n      swap2\n      sub\n      swap1\n      revert\n    tag_27:\n        /* \"CONTRACTS/VerifySignature.sol\":518:528  2**256 - 1 */\n      0xffffffffffffffffffffffffffffffffffffffffffffffffffffffffffffffff\n        /* \"CONTRACTS/VerifySignature.sol\":957:963  _value */\n      dup4\n        /* \"CONTRACTS/VerifySignature.sol\":957:989  _value <= MAX_INT_EXPONENTIATION */\n      gt\n      iszero\n        /* \"CONTRACTS/VerifySignature.sol\":949:1014  require(_value <= MAX_INT_EXPONENTIATION, \"'Permit range failed\") */\n      tag_30\n      jumpi\n      mload(0x40)\n      0x08c379a000000000000000000000000000000000000000000000000000000000\n      dup2\n      mstore\n      0x04\n      add\n      tag_31\n      swap1\n      tag_32\n      jump\t// in\n    tag_31:\n      mload(0x40)\n      dup1\n      swap2\n      sub\n      swap1\n      revert\n    tag_30:\n        /* \"CONTRACTS/VerifySignature.sol\":1045:1060  block.timestamp */\n      timestamp\n        /* \"CONTRACTS/VerifySignature.sol\":1032:1041  _deadline */\n      dup3\n        /* \"CONTRACTS/VerifySignature.sol\":1032:1060  _deadline >= block.timestamp */\n      lt\n      iszero\n        /* \"CONTRACTS/VerifySignature.sol\":1024:1088  require(_deadline >= block.timestamp, \"PERMIT_DEADLINE_EXPIRED\") */\n      tag_33\n      jumpi\n      mload(0x40)\n      0x08c379a000000000000000000000000000000000000000000000000000000000\n      dup2\n      mstore\n      0x04\n      add\n      tag_34\n      swap1\n      tag_35\n      jump\t// in\n    tag_34:\n      mload(0x40)\n      dup1\n      swap2\n      sub\n      swap1\n      revert\n    tag_33:\n        /* \"CONTRACTS/VerifySignature.sol\":1132:1148  _PERMIT_TYPEHASH */\n      dup6\n        /* \"CONTRACTS/VerifySignature.sol\":1150:1156  _owner */\n      dup6\n        /* \"CONTRACTS/VerifySignature.sol\":1158:1166  _spender */\n      dup6\n        /* \"CONTRACTS/VerifySignature.sol\":1168:1174  _value */\n      dup6\n        /* \"CONTRACTS/VerifySignature.sol\":1176:1185  _deadline */\n      dup6\n        /* \"CONTRACTS/VerifySignature.sol\":1115:1186  abi.encodePacked(_PERMIT_TYPEHASH, _owner, _spender, _value, _deadline) */\n      add(0x20, mload(0x40))\n      tag_36\n      swap6\n      swap5\n      swap4\n      swap3\n      swap2\n      swap1\n      tag_37\n      jump\t// in\n    tag_36:\n      mload(0x40)\n      0x20\n      dup2\n      dup4\n      sub\n      sub\n      dup2\n      mstore\n      swap1\n      0x40\n      mstore\n        /* \"CONTRACTS/VerifySignature.sol\":1105:1187  keccak256(abi.encodePacked(_PERMIT_TYPEHASH, _owner, _spender, _value, _deadline)) */\n      dup1\n      mload\n      swap1\n      0x20\n      add\n      keccak256\n        /* \"CONTRACTS/VerifySignature.sol\":1098:1187  return keccak256(abi.encodePacked(_PERMIT_TYPEHASH, _owner, _spender, _value, _deadline)) */\n      swap1\n      pop\n        /* \"CONTRACTS/VerifySignature.sol\":670:1194  function getPermitMessageHash(... */\n      swap6\n      swap5\n      pop\n      pop\n      pop\n      pop\n      pop\n      jump\t// out\n        /* \"CONTRACTS/VerifySignature.sol\":1248:1665  function splitSignature(bytes memory signature)... */\n    tag_23:\n        /* \"CONTRACTS/VerifySignature.sol\":1354:1363  bytes32 r */\n      0x00\n        /* \"CONTRACTS/VerifySignature.sol\":1377:1386  bytes32 s */\n      dup1\n        /* \"CONTRACTS/VerifySignature.sol\":1400:1407  uint8 v */\n      0x00\n        /* \"CONTRACTS/VerifySignature.sol\":1459:1461  65 */\n      0x41\n        /* \"CONTRACTS/VerifySignature.sol\":1439:1448  signature */\n      dup5\n        /* \"CONTRACTS/VerifySignature.sol\":1439:1455  signature.length */\n      mload\n        /* \"CONTRACTS/VerifySignature.sol\":1439:1461  signature.length == 65 */\n      eq\n        /* \"CONTRACTS/VerifySignature.sol\":1431:1490  require(signature.length == 65, \"invalid signature length\") */\n      tag_39\n      jumpi\n      mload(0x40)\n      0x08c379a000000000000000000000000000000000000000000000000000000000\n      dup2\n      mstore\n      0x04\n      add\n      tag_40\n      swap1\n      tag_41\n      jump\t// in\n    tag_40:\n      mload(0x40)\n      dup1\n      swap2\n      sub\n      swap1\n      revert\n    tag_39:\n        /* \"CONTRACTS/VerifySignature.sol\":1550:1552  32 */\n      0x20\n        /* \"CONTRACTS/VerifySignature.sol\":1539:1548  signature */\n      dup5\n        /* \"CONTRACTS/VerifySignature.sol\":1535:1553  add(signature, 32) */\n      add\n        /* \"CONTRACTS/VerifySignature.sol\":1529:1554  mload(add(signature, 32)) */\n      mload\n        /* \"CONTRACTS/VerifySignature.sol\":1524:1554  r := mload(add(signature, 32)) */\n      swap3\n      pop\n        /* \"CONTRACTS/VerifySignature.sol\":1593:1595  64 */\n      0x40\n        /* \"CONTRACTS/VerifySignature.sol\":1582:1591  signature */\n      dup5\n        /* \"CONTRACTS/VerifySignature.sol\":1578:1596  add(signature, 64) */\n      add\n        /* \"CONTRACTS/VerifySignature.sol\":1572:1597  mload(add(signature, 64)) */\n      mload\n        /* \"CONTRACTS/VerifySignature.sol\":1567:1597  s := mload(add(signature, 64)) */\n      swap2\n      pop\n        /* \"CONTRACTS/VerifySignature.sol\":1644:1646  96 */\n      0x60\n        /* \"CONTRACTS/VerifySignature.sol\":1633:1642  signature */\n      dup5\n        /* \"CONTRACTS/VerifySignature.sol\":1629:1647  add(signature, 96) */\n      add\n        /* \"CONTRACTS/VerifySignature.sol\":1623:1648  mload(add(signature, 96)) */\n      mload\n        /* \"CONTRACTS/VerifySignature.sol\":1620:1621  0 */\n      0x00\n        /* \"CONTRACTS/VerifySignature.sol\":1615:1649  byte(0, mload(add(signature, 96))) */\n      byte\n        /* \"CONTRACTS/VerifySignature.sol\":1610:1649  v := byte(0, mload(add(signature, 96))) */\n      swap1\n      pop\n        /* \"CONTRACTS/VerifySignature.sol\":1248:1665  function splitSignature(bytes memory signature)... */\n      swap2\n      swap4\n      swap1\n      swap3\n      pop\n      jump\t// out\n        /* \"#utility.yul\":7:84   */\n    tag_42:\n        /* \"#utility.yul\":44:51   */\n      0x00\n        /* \"#utility.yul\":73:78   */\n      dup2\n        /* \"#utility.yul\":62:78   */\n      swap1\n      pop\n        /* \"#utility.yul\":7:84   */\n      swap2\n      swap1\n      pop\n      jump\t// out\n        /* \"#utility.yul\":90:208   */\n    tag_43:\n        /* \"#utility.yul\":177:201   */\n      tag_89\n        /* \"#utility.yul\":195:200   */\n      dup2\n        /* \"#utility.yul\":177:201   */\n      tag_42\n      jump\t// in\n    tag_89:\n        /* \"#utility.yul\":172:175   */\n      dup3\n        /* \"#utility.yul\":165:202   */\n      mstore\n        /* \"#utility.yul\":90:208   */\n      pop\n      pop\n      jump\t// out\n        /* \"#utility.yul\":214:436   */\n    tag_10:\n        /* \"#utility.yul\":307:311   */\n      0x00\n        /* \"#utility.yul\":345:347   */\n      0x20\n        /* \"#utility.yul\":334:343   */\n      dup3\n        /* \"#utility.yul\":330:348   */\n      add\n        /* \"#utility.yul\":322:348   */\n      swap1\n      pop\n        /* \"#utility.yul\":358:429   */\n      tag_91\n        /* \"#utility.yul\":426:427   */\n      0x00\n        /* \"#utility.yul\":415:424   */\n      dup4\n        /* \"#utility.yul\":411:428   */\n      add\n        /* \"#utility.yul\":402:408   */\n      dup5\n        /* \"#utility.yul\":358:429   */\n      tag_43\n      jump\t// in\n    tag_91:\n        /* \"#utility.yul\":214:436   */\n      swap3\n      swap2\n      pop\n      pop\n      jump\t// out\n        /* \"#utility.yul\":442:519   */\n    tag_44:\n        /* \"#utility.yul\":479:486   */\n      0x00\n        /* \"#utility.yul\":508:513   */\n      dup2\n        /* \"#utility.yul\":497:513   */\n      swap1\n      pop\n        /* \"#utility.yul\":442:519   */\n      swap2\n      swap1\n      pop\n      jump\t// out\n        /* \"#utility.yul\":525:643   */\n    tag_45:\n        /* \"#utility.yul\":612:636   */\n      tag_94\n        /* \"#utility.yul\":630:635   */\n      dup2\n        /* \"#utility.yul\":612:636   */\n      tag_44\n      jump\t// in\n    tag_94:\n        /* \"#utility.yul\":607:610   */\n      dup3\n        /* \"#utility.yul\":600:637   */\n      mstore\n        /* \"#utility.yul\":525:643   */\n      pop\n      pop\n      jump\t// out\n        /* \"#utility.yul\":649:871   */\n    tag_14:\n        /* \"#utility.yul\":742:746   */\n      0x00\n        /* \"#utility.yul\":780:782   */\n      0x20\n        /* \"#utility.yul\":769:778   */\n      dup3\n        /* \"#utility.yul\":765:783   */\n      add\n        /* \"#utility.yul\":757:783   */\n      swap1\n      pop\n        /* \"#utility.yul\":793:864   */\n      tag_96\n        /* \"#utility.yul\":861:862   */\n      0x00\n        /* \"#utility.yul\":850:859   */\n      dup4\n        /* \"#utility.yul\":846:863   */\n      add\n        /* \"#utility.yul\":837:843   */\n      dup5\n        /* \"#utility.yul\":793:864   */\n      tag_45\n      jump\t// in\n    tag_96:\n        /* \"#utility.yul\":649:871   */\n      swap3\n      swap2\n      pop\n      pop\n      jump\t// out\n        /* \"#utility.yul\":877:952   */\n    tag_46:\n        /* \"#utility.yul\":910:916   */\n      0x00\n        /* \"#utility.yul\":943:945   */\n      0x40\n        /* \"#utility.yul\":937:946   */\n      mload\n        /* \"#utility.yul\":927:946   */\n      swap1\n      pop\n        /* \"#utility.yul\":877:952   */\n      swap1\n      jump\t// out\n        /* \"#utility.yul\":958:1075   */\n    tag_47:\n        /* \"#utility.yul\":1067:1068   */\n      0x00\n        /* \"#utility.yul\":1064:1065   */\n      dup1\n        /* \"#utility.yul\":1057:1069   */\n      revert\n        /* \"#utility.yul\":1081:1198   */\n    tag_48:\n        /* \"#utility.yul\":1190:1191   */\n      0x00\n        /* \"#utility.yul\":1187:1188   */\n      dup1\n        /* \"#utility.yul\":1180:1192   */\n      revert\n        /* \"#utility.yul\":1204:1326   */\n    tag_49:\n        /* \"#utility.yul\":1277:1301   */\n      tag_101\n        /* \"#utility.yul\":1295:1300   */\n      dup2\n        /* \"#utility.yul\":1277:1301   */\n      tag_44\n      jump\t// in\n    tag_101:\n        /* \"#utility.yul\":1270:1275   */\n      dup2\n        /* \"#utility.yul\":1267:1302   */\n      eq\n        /* \"#utility.yul\":1257:1320   */\n      tag_102\n      jumpi\n        /* \"#utility.yul\":1316:1317   */\n      0x00\n        /* \"#utility.yul\":1313:1314   */\n      dup1\n        /* \"#utility.yul\":1306:1318   */\n      revert\n        /* \"#utility.yul\":1257:1320   */\n    tag_102:\n        /* \"#utility.yul\":1204:1326   */\n      pop\n      jump\t// out\n        /* \"#utility.yul\":1332:1471   */\n    tag_50:\n        /* \"#utility.yul\":1378:1383   */\n      0x00\n        /* \"#utility.yul\":1416:1422   */\n      dup2\n        /* \"#utility.yul\":1403:1423   */\n      calldataload\n        /* \"#utility.yul\":1394:1423   */\n      swap1\n      pop\n        /* \"#utility.yul\":1432:1465   */\n      tag_104\n        /* \"#utility.yul\":1459:1464   */\n      dup2\n        /* \"#utility.yul\":1432:1465   */\n      tag_49\n      jump\t// in\n    tag_104:\n        /* \"#utility.yul\":1332:1471   */\n      swap3\n      swap2\n      pop\n      pop\n      jump\t// out\n        /* \"#utility.yul\":1477:1603   */\n    tag_51:\n        /* \"#utility.yul\":1514:1521   */\n      0x00\n        /* \"#utility.yul\":1554:1596   */\n      0xffffffffffffffffffffffffffffffffffffffff\n        /* \"#utility.yul\":1547:1552   */\n      dup3\n        /* \"#utility.yul\":1543:1597   */\n      and\n        /* \"#utility.yul\":1532:1597   */\n      swap1\n      pop\n        /* \"#utility.yul\":1477:1603   */\n      swap2\n      swap1\n      pop\n      jump\t// out\n        /* \"#utility.yul\":1609:1705   */\n    tag_52:\n        /* \"#utility.yul\":1646:1653   */\n      0x00\n        /* \"#utility.yul\":1675:1699   */\n      tag_107\n        /* \"#utility.yul\":1693:1698   */\n      dup3\n        /* \"#utility.yul\":1675:1699   */\n      tag_51\n      jump\t// in\n    tag_107:\n        /* \"#utility.yul\":1664:1699   */\n      swap1\n      pop\n        /* \"#utility.yul\":1609:1705   */\n      swap2\n      swap1\n      pop\n      jump\t// out\n        /* \"#utility.yul\":1711:1833   */\n    tag_53:\n        /* \"#utility.yul\":1784:1808   */\n      tag_109\n        /* \"#utility.yul\":1802:1807   */\n      dup2\n        /* \"#utility.yul\":1784:1808   */\n      tag_52\n      jump\t// in\n    tag_109:\n        /* \"#utility.yul\":1777:1782   */\n      dup2\n        /* \"#utility.yul\":1774:1809   */\n      eq\n        /* \"#utility.yul\":1764:1827   */\n      tag_110\n      jumpi\n        /* \"#utility.yul\":1823:1824   */\n      0x00\n        /* \"#utility.yul\":1820:1821   */\n      dup1\n        /* \"#utility.yul\":1813:1825   */\n      revert\n        /* \"#utility.yul\":1764:1827   */\n    tag_110:\n        /* \"#utility.yul\":1711:1833   */\n      pop\n      jump\t// out\n        /* \"#utility.yul\":1839:1978   */\n    tag_54:\n        /* \"#utility.yul\":1885:1890   */\n      0x00\n        /* \"#utility.yul\":1923:1929   */\n      dup2\n        /* \"#utility.yul\":1910:1930   */\n      calldataload\n        /* \"#utility.yul\":1901:1930   */\n      swap1\n      pop\n        /* \"#utility.yul\":1939:1972   */\n      tag_112\n        /* \"#utility.yul\":1966:1971   */\n      dup2\n        /* \"#utility.yul\":1939:1972   */\n      tag_53\n      jump\t// in\n    tag_112:\n        /* \"#utility.yul\":1839:1978   */\n      swap3\n      swap2\n      pop\n      pop\n      jump\t// out\n        /* \"#utility.yul\":1984:2106   */\n    tag_55:\n        /* \"#utility.yul\":2057:2081   */\n      tag_114\n        /* \"#utility.yul\":2075:2080   */\n      dup2\n        /* \"#utility.yul\":2057:2081   */\n      tag_42\n      jump\t// in\n    tag_114:\n        /* \"#utility.yul\":2050:2055   */\n      dup2\n        /* \"#utility.yul\":2047:2082   */\n      eq\n        /* \"#utility.yul\":2037:2100   */\n      tag_115\n      jumpi\n        /* \"#utility.yul\":2096:2097   */\n      0x00\n        /* \"#utility.yul\":2093:2094   */\n      dup1\n        /* \"#utility.yul\":2086:2098   */\n      revert\n        /* \"#utility.yul\":2037:2100   */\n    tag_115:\n        /* \"#utility.yul\":1984:2106   */\n      pop\n      jump\t// out\n        /* \"#utility.yul\":2112:2251   */\n    tag_56:\n        /* \"#utility.yul\":2158:2163   */\n      0x00\n        /* \"#utility.yul\":2196:2202   */\n      dup2\n        /* \"#utility.yul\":2183:2203   */\n      calldataload\n        /* \"#utility.yul\":2174:2203   */\n      swap1\n      pop\n        /* \"#utility.yul\":2212:2245   */\n      tag_117\n        /* \"#utility.yul\":2239:2244   */\n      dup2\n        /* \"#utility.yul\":2212:2245   */\n      tag_55\n      jump\t// in\n    tag_117:\n        /* \"#utility.yul\":2112:2251   */\n      swap3\n      swap2\n      pop\n      pop\n      jump\t// out\n        /* \"#utility.yul\":2257:3168   */\n    tag_17:\n        /* \"#utility.yul\":2352:2358   */\n      0x00\n        /* \"#utility.yul\":2360:2366   */\n      dup1\n        /* \"#utility.yul\":2368:2374   */\n      0x00\n        /* \"#utility.yul\":2376:2382   */\n      dup1\n        /* \"#utility.yul\":2384:2390   */\n      0x00\n        /* \"#utility.yul\":2433:2436   */\n      0xa0\n        /* \"#utility.yul\":2421:2430   */\n      dup7\n        /* \"#utility.yul\":2412:2419   */\n      dup9\n        /* \"#utility.yul\":2408:2431   */\n      sub\n        /* \"#utility.yul\":2404:2437   */\n      slt\n        /* \"#utility.yul\":2401:2521   */\n      iszero\n      tag_119\n      jumpi\n        /* \"#utility.yul\":2440:2519   */\n      tag_120\n      tag_47\n      jump\t// in\n    tag_120:\n        /* \"#utility.yul\":2401:2521   */\n    tag_119:\n        /* \"#utility.yul\":2560:2561   */\n      0x00\n        /* \"#utility.yul\":2585:2638   */\n      tag_121\n        /* \"#utility.yul\":2630:2637   */\n      dup9\n        /* \"#utility.yul\":2621:2627   */\n      dup3\n        /* \"#utility.yul\":2610:2619   */\n      dup10\n        /* \"#utility.yul\":2606:2628   */\n      add\n        /* \"#utility.yul\":2585:2638   */\n      tag_50\n      jump\t// in\n    tag_121:\n        /* \"#utility.yul\":2575:2638   */\n      swap6\n      pop\n        /* \"#utility.yul\":2531:2648   */\n      pop\n        /* \"#utility.yul\":2687:2689   */\n      0x20\n        /* \"#utility.yul\":2713:2766   */\n      tag_122\n        /* \"#utility.yul\":2758:2765   */\n      dup9\n        /* \"#utility.yul\":2749:2755   */\n      dup3\n        /* \"#utility.yul\":2738:2747   */\n      dup10\n        /* \"#utility.yul\":2734:2756   */\n      add\n        /* \"#utility.yul\":2713:2766   */\n      tag_54\n      jump\t// in\n    tag_122:\n        /* \"#utility.yul\":2703:2766   */\n      swap5\n      pop\n        /* \"#utility.yul\":2658:2776   */\n      pop\n        /* \"#utility.yul\":2815:2817   */\n      0x40\n        /* \"#utility.yul\":2841:2894   */\n      tag_123\n        /* \"#utility.yul\":2886:2893   */\n      dup9\n        /* \"#utility.yul\":2877:2883   */\n      dup3\n        /* \"#utility.yul\":2866:2875   */\n      dup10\n        /* \"#utility.yul\":2862:2884   */\n      add\n        /* \"#utility.yul\":2841:2894   */\n      tag_54\n      jump\t// in\n    tag_123:\n        /* \"#utility.yul\":2831:2894   */\n      swap4\n      pop\n        /* \"#utility.yul\":2786:2904   */\n      pop\n        /* \"#utility.yul\":2943:2945   */\n      0x60\n        /* \"#utility.yul\":2969:3022   */\n      tag_124\n        /* \"#utility.yul\":3014:3021   */\n      dup9\n        /* \"#utility.yul\":3005:3011   */\n      dup3\n        /* \"#utility.yul\":2994:3003   */\n      dup10\n        /* \"#utility.yul\":2990:3012   */\n      add\n        /* \"#utility.yul\":2969:3022   */\n      tag_56\n      jump\t// in\n    tag_124:\n        /* \"#utility.yul\":2959:3022   */\n      swap3\n      pop\n        /* \"#utility.yul\":2914:3032   */\n      pop\n        /* \"#utility.yul\":3071:3074   */\n      0x80\n        /* \"#utility.yul\":3098:3151   */\n      tag_125\n        /* \"#utility.yul\":3143:3150   */\n      dup9\n        /* \"#utility.yul\":3134:3140   */\n      dup3\n        /* \"#utility.yul\":3123:3132   */\n      dup10\n        /* \"#utility.yul\":3119:3141   */\n      add\n        /* \"#utility.yul\":3098:3151   */\n      tag_56\n      jump\t// in\n    tag_125:\n        /* \"#utility.yul\":3088:3151   */\n      swap2\n      pop\n        /* \"#utility.yul\":3042:3161   */\n      pop\n        /* \"#utility.yul\":2257:3168   */\n      swap3\n      swap6\n      pop\n      swap3\n      swap6\n      swap1\n      swap4\n      pop\n      jump\t// out\n        /* \"#utility.yul\":3174:3291   */\n    tag_57:\n        /* \"#utility.yul\":3283:3284   */\n      0x00\n        /* \"#utility.yul\":3280:3281   */\n      dup1\n        /* \"#utility.yul\":3273:3285   */\n      revert\n        /* \"#utility.yul\":3297:3414   */\n    tag_58:\n        /* \"#utility.yul\":3406:3407   */\n      0x00\n        /* \"#utility.yul\":3403:3404   */\n      dup1\n        /* \"#utility.yul\":3396:3408   */\n      revert\n        /* \"#utility.yul\":3420:3522   */\n    tag_59:\n        /* \"#utility.yul\":3461:3467   */\n      0x00\n        /* \"#utility.yul\":3512:3514   */\n      0x1f\n        /* \"#utility.yul\":3508:3515   */\n      not\n        /* \"#utility.yul\":3503:3505   */\n      0x1f\n        /* \"#utility.yul\":3496:3501   */\n      dup4\n        /* \"#utility.yul\":3492:3506   */\n      add\n        /* \"#utility.yul\":3488:3516   */\n      and\n        /* \"#utility.yul\":3478:3516   */\n      swap1\n      pop\n        /* \"#utility.yul\":3420:3522   */\n      swap2\n      swap1\n      pop\n      jump\t// out\n        /* \"#utility.yul\":3528:3708   */\n    tag_60:\n        /* \"#utility.yul\":3576:3653   */\n      0x4e487b7100000000000000000000000000000000000000000000000000000000\n        /* \"#utility.yul\":3573:3574   */\n      0x00\n        /* \"#utility.yul\":3566:3654   */\n      mstore\n        /* \"#utility.yul\":3673:3677   */\n      0x41\n        /* \"#utility.yul\":3670:3671   */\n      0x04\n        /* \"#utility.yul\":3663:3678   */\n      mstore\n        /* \"#utility.yul\":3697:3701   */\n      0x24\n        /* \"#utility.yul\":3694:3695   */\n      0x00\n        /* \"#utility.yul\":3687:3702   */\n      revert\n        /* \"#utility.yul\":3714:3995   */\n    tag_61:\n        /* \"#utility.yul\":3797:3824   */\n      tag_131\n        /* \"#utility.yul\":3819:3823   */\n      dup3\n        /* \"#utility.yul\":3797:3824   */\n      tag_59\n      jump\t// in\n    tag_131:\n        /* \"#utility.yul\":3789:3795   */\n      dup2\n        /* \"#utility.yul\":3785:3825   */\n      add\n        /* \"#utility.yul\":3927:3933   */\n      dup2\n        /* \"#utility.yul\":3915:3925   */\n      dup2\n        /* \"#utility.yul\":3912:3934   */\n      lt\n        /* \"#utility.yul\":3891:3909   */\n      0xffffffffffffffff\n        /* \"#utility.yul\":3879:3889   */\n      dup3\n        /* \"#utility.yul\":3876:3910   */\n      gt\n        /* \"#utility.yul\":3873:3935   */\n      or\n        /* \"#utility.yul\":3870:3958   */\n      iszero\n      tag_132\n      jumpi\n        /* \"#utility.yul\":3938:3956   */\n      tag_133\n      tag_60\n      jump\t// in\n    tag_133:\n        /* \"#utility.yul\":3870:3958   */\n    tag_132:\n        /* \"#utility.yul\":3978:3988   */\n      dup1\n        /* \"#utility.yul\":3974:3976   */\n      0x40\n        /* \"#utility.yul\":3967:3989   */\n      mstore\n        /* \"#utility.yul\":3757:3995   */\n      pop\n        /* \"#utility.yul\":3714:3995   */\n      pop\n      pop\n      jump\t// out\n        /* \"#utility.yul\":4001:4130   */\n    tag_62:\n        /* \"#utility.yul\":4035:4041   */\n      0x00\n        /* \"#utility.yul\":4062:4082   */\n      tag_135\n      tag_46\n      jump\t// in\n    tag_135:\n        /* \"#utility.yul\":4052:4082   */\n      swap1\n      pop\n        /* \"#utility.yul\":4091:4124   */\n      tag_136\n        /* \"#utility.yul\":4119:4123   */\n      dup3\n        /* \"#utility.yul\":4111:4117   */\n      dup3\n        /* \"#utility.yul\":4091:4124   */\n      tag_61\n      jump\t// in\n    tag_136:\n        /* \"#utility.yul\":4001:4130   */\n      swap2\n      swap1\n      pop\n      jump\t// out\n        /* \"#utility.yul\":4136:4443   */\n    tag_63:\n        /* \"#utility.yul\":4197:4201   */\n      0x00\n        /* \"#utility.yul\":4287:4305   */\n      0xffffffffffffffff\n        /* \"#utility.yul\":4279:4285   */\n      dup3\n        /* \"#utility.yul\":4276:4306   */\n      gt\n        /* \"#utility.yul\":4273:4329   */\n      iszero\n      tag_138\n      jumpi\n        /* \"#utility.yul\":4309:4327   */\n      tag_139\n      tag_60\n      jump\t// in\n    tag_139:\n        /* \"#utility.yul\":4273:4329   */\n    tag_138:\n        /* \"#utility.yul\":4347:4376   */\n      tag_140\n        /* \"#utility.yul\":4369:4375   */\n      dup3\n        /* \"#utility.yul\":4347:4376   */\n      tag_59\n      jump\t// in\n    tag_140:\n        /* \"#utility.yul\":4339:4376   */\n      swap1\n      pop\n        /* \"#utility.yul\":4431:4435   */\n      0x20\n        /* \"#utility.yul\":4425:4429   */\n      dup2\n        /* \"#utility.yul\":4421:4436   */\n      add\n        /* \"#utility.yul\":4413:4436   */\n      swap1\n      pop\n        /* \"#utility.yul\":4136:4443   */\n      swap2\n      swap1\n      pop\n      jump\t// out\n        /* \"#utility.yul\":4449:4595   */\n    tag_64:\n        /* \"#utility.yul\":4546:4552   */\n      dup3\n        /* \"#utility.yul\":4541:4544   */\n      dup2\n        /* \"#utility.yul\":4536:4539   */\n      dup4\n        /* \"#utility.yul\":4523:4553   */\n      calldatacopy\n        /* \"#utility.yul\":4587:4588   */\n      0x00\n        /* \"#utility.yul\":4578:4584   */\n      dup4\n        /* \"#utility.yul\":4573:4576   */\n      dup4\n        /* \"#utility.yul\":4569:4585   */\n      add\n        /* \"#utility.yul\":4562:4589   */\n      mstore\n        /* \"#utility.yul\":4449:4595   */\n      pop\n      pop\n      pop\n      jump\t// out\n        /* \"#utility.yul\":4601:5024   */\n    tag_65:\n        /* \"#utility.yul\":4678:4683   */\n      0x00\n        /* \"#utility.yul\":4703:4768   */\n      tag_143\n        /* \"#utility.yul\":4719:4767   */\n      tag_144\n        /* \"#utility.yul\":4760:4766   */\n      dup5\n        /* \"#utility.yul\":4719:4767   */\n      tag_63\n      jump\t// in\n    tag_144:\n        /* \"#utility.yul\":4703:4768   */\n      tag_62\n      jump\t// in\n    tag_143:\n        /* \"#utility.yul\":4694:4768   */\n      swap1\n      pop\n        /* \"#utility.yul\":4791:4797   */\n      dup3\n        /* \"#utility.yul\":4784:4789   */\n      dup2\n        /* \"#utility.yul\":4777:4798   */\n      mstore\n        /* \"#utility.yul\":4829:4833   */\n      0x20\n        /* \"#utility.yul\":4822:4827   */\n      dup2\n        /* \"#utility.yul\":4818:4834   */\n      add\n        /* \"#utility.yul\":4867:4870   */\n      dup5\n        /* \"#utility.yul\":4858:4864   */\n      dup5\n        /* \"#utility.yul\":4853:4856   */\n      dup5\n        /* \"#utility.yul\":4849:4865   */\n      add\n        /* \"#utility.yul\":4846:4871   */\n      gt\n        /* \"#utility.yul\":4843:4955   */\n      iszero\n      tag_145\n      jumpi\n        /* \"#utility.yul\":4874:4953   */\n      tag_146\n      tag_58\n      jump\t// in\n    tag_146:\n        /* \"#utility.yul\":4843:4955   */\n    tag_145:\n        /* \"#utility.yul\":4964:5018   */\n      tag_147\n        /* \"#utility.yul\":5011:5017   */\n      dup5\n        /* \"#utility.yul\":5006:5009   */\n      dup3\n        /* \"#utility.yul\":5001:5004   */\n      dup6\n        /* \"#utility.yul\":4964:5018   */\n      tag_64\n      jump\t// in\n    tag_147:\n        /* \"#utility.yul\":4684:5024   */\n      pop\n        /* \"#utility.yul\":4601:5024   */\n      swap4\n      swap3\n      pop\n      pop\n      pop\n      jump\t// out\n        /* \"#utility.yul\":5043:5381   */\n    tag_66:\n        /* \"#utility.yul\":5098:5103   */\n      0x00\n        /* \"#utility.yul\":5147:5150   */\n      dup3\n        /* \"#utility.yul\":5140:5144   */\n      0x1f\n        /* \"#utility.yul\":5132:5138   */\n      dup4\n        /* \"#utility.yul\":5128:5145   */\n      add\n        /* \"#utility.yul\":5124:5151   */\n      slt\n        /* \"#utility.yul\":5114:5236   */\n      tag_149\n      jumpi\n        /* \"#utility.yul\":5155:5234   */\n      tag_150\n      tag_57\n      jump\t// in\n    tag_150:\n        /* \"#utility.yul\":5114:5236   */\n    tag_149:\n        /* \"#utility.yul\":5272:5278   */\n      dup2\n        /* \"#utility.yul\":5259:5279   */\n      calldataload\n        /* \"#utility.yul\":5297:5375   */\n      tag_151\n        /* \"#utility.yul\":5371:5374   */\n      dup5\n        /* \"#utility.yul\":5363:5369   */\n      dup3\n        /* \"#utility.yul\":5356:5360   */\n      0x20\n        /* \"#utility.yul\":5348:5354   */\n      dup7\n        /* \"#utility.yul\":5344:5361   */\n      add\n        /* \"#utility.yul\":5297:5375   */\n      tag_65\n      jump\t// in\n    tag_151:\n        /* \"#utility.yul\":5288:5375   */\n      swap2\n      pop\n        /* \"#utility.yul\":5104:5381   */\n      pop\n        /* \"#utility.yul\":5043:5381   */\n      swap3\n      swap2\n      pop\n      pop\n      jump\t// out\n        /* \"#utility.yul\":5387:5894   */\n    tag_22:\n        /* \"#utility.yul\":5455:5461   */\n      0x00\n        /* \"#utility.yul\":5504:5506   */\n      0x20\n        /* \"#utility.yul\":5492:5501   */\n      dup3\n        /* \"#utility.yul\":5483:5490   */\n      dup5\n        /* \"#utility.yul\":5479:5502   */\n      sub\n        /* \"#utility.yul\":5475:5507   */\n      slt\n        /* \"#utility.yul\":5472:5591   */\n      iszero\n      tag_153\n      jumpi\n        /* \"#utility.yul\":5510:5589   */\n      tag_154\n      tag_47\n      jump\t// in\n    tag_154:\n        /* \"#utility.yul\":5472:5591   */\n    tag_153:\n        /* \"#utility.yul\":5658:5659   */\n      0x00\n        /* \"#utility.yul\":5647:5656   */\n      dup3\n        /* \"#utility.yul\":5643:5660   */\n      add\n        /* \"#utility.yul\":5630:5661   */\n      calldataload\n        /* \"#utility.yul\":5688:5706   */\n      0xffffffffffffffff\n        /* \"#utility.yul\":5680:5686   */\n      dup2\n        /* \"#utility.yul\":5677:5707   */\n      gt\n        /* \"#utility.yul\":5674:5791   */\n      iszero\n      tag_155\n      jumpi\n        /* \"#utility.yul\":5710:5789   */\n      tag_156\n      tag_48\n      jump\t// in\n    tag_156:\n        /* \"#utility.yul\":5674:5791   */\n    tag_155:\n        /* \"#utility.yul\":5815:5877   */\n      tag_157\n        /* \"#utility.yul\":5869:5876   */\n      dup5\n        /* \"#utility.yul\":5860:5866   */\n      dup3\n        /* \"#utility.yul\":5849:5858   */\n      dup6\n        /* \"#utility.yul\":5845:5867   */\n      add\n        /* \"#utility.yul\":5815:5877   */\n      tag_66\n      jump\t// in\n    tag_157:\n        /* \"#utility.yul\":5805:5877   */\n      swap2\n      pop\n        /* \"#utility.yul\":5601:5887   */\n      pop\n        /* \"#utility.yul\":5387:5894   */\n      swap3\n      swap2\n      pop\n      pop\n      jump\t// out\n        /* \"#utility.yul\":5900:5986   */\n    tag_67:\n        /* \"#utility.yul\":5935:5942   */\n      0x00\n        /* \"#utility.yul\":5975:5979   */\n      0xff\n        /* \"#utility.yul\":5968:5973   */\n      dup3\n        /* \"#utility.yul\":5964:5980   */\n      and\n        /* \"#utility.yul\":5953:5980   */\n      swap1\n      pop\n        /* \"#utility.yul\":5900:5986   */\n      swap2\n      swap1\n      pop\n      jump\t// out\n        /* \"#utility.yul\":5992:6104   */\n    tag_68:\n        /* \"#utility.yul\":6075:6097   */\n      tag_160\n        /* \"#utility.yul\":6091:6096   */\n      dup2\n        /* \"#utility.yul\":6075:6097   */\n      tag_67\n      jump\t// in\n    tag_160:\n        /* \"#utility.yul\":6070:6073   */\n      dup3\n        /* \"#utility.yul\":6063:6098   */\n      mstore\n        /* \"#utility.yul\":5992:6104   */\n      pop\n      pop\n      jump\t// out\n        /* \"#utility.yul\":6110:6544   */\n    tag_25:\n        /* \"#utility.yul\":6255:6259   */\n      0x00\n        /* \"#utility.yul\":6293:6295   */\n      0x60\n        /* \"#utility.yul\":6282:6291   */\n      dup3\n        /* \"#utility.yul\":6278:6296   */\n      add\n        /* \"#utility.yul\":6270:6296   */\n      swap1\n      pop\n        /* \"#utility.yul\":6306:6377   */\n      tag_162\n        /* \"#utility.yul\":6374:6375   */\n      0x00\n        /* \"#utility.yul\":6363:6372   */\n      dup4\n        /* \"#utility.yul\":6359:6376   */\n      add\n        /* \"#utility.yul\":6350:6356   */\n      dup7\n        /* \"#utility.yul\":6306:6377   */\n      tag_45\n      jump\t// in\n    tag_162:\n        /* \"#utility.yul\":6387:6459   */\n      tag_163\n        /* \"#utility.yul\":6455:6457   */\n      0x20\n        /* \"#utility.yul\":6444:6453   */\n      dup4\n        /* \"#utility.yul\":6440:6458   */\n      add\n        /* \"#utility.yul\":6431:6437   */\n      dup6\n        /* \"#utility.yul\":6387:6459   */\n      tag_45\n      jump\t// in\n    tag_163:\n        /* \"#utility.yul\":6469:6537   */\n      tag_164\n        /* \"#utility.yul\":6533:6535   */\n      0x40\n        /* \"#utility.yul\":6522:6531   */\n      dup4\n        /* \"#utility.yul\":6518:6536   */\n      add\n        /* \"#utility.yul\":6509:6515   */\n      dup5\n        /* \"#utility.yul\":6469:6537   */\n      tag_68\n      jump\t// in\n    tag_164:\n        /* \"#utility.yul\":6110:6544   */\n      swap5\n      swap4\n      pop\n      pop\n      pop\n      pop\n      jump\t// out\n        /* \"#utility.yul\":6550:6719   */\n    tag_69:\n        /* \"#utility.yul\":6634:6645   */\n      0x00\n        /* \"#utility.yul\":6668:6674   */\n      dup3\n        /* \"#utility.yul\":6663:6666   */\n      dup3\n        /* \"#utility.yul\":6656:6675   */\n      mstore\n        /* \"#utility.yul\":6708:6712   */\n      0x20\n        /* \"#utility.yul\":6703:6706   */\n      dup3\n        /* \"#utility.yul\":6699:6713   */\n      add\n        /* \"#utility.yul\":6684:6713   */\n      swap1\n      pop\n        /* \"#utility.yul\":6550:6719   */\n      swap3\n      swap2\n      pop\n      pop\n      jump\t// out\n        /* \"#utility.yul\":6725:6892   */\n    tag_70:\n        /* \"#utility.yul\":6865:6884   */\n      0x696e76616c69642d616464726573732d30000000000000000000000000000000\n        /* \"#utility.yul\":6861:6862   */\n      0x00\n        /* \"#utility.yul\":6853:6859   */\n      dup3\n        /* \"#utility.yul\":6849:6863   */\n      add\n        /* \"#utility.yul\":6842:6885   */\n      mstore\n        /* \"#utility.yul\":6725:6892   */\n      pop\n      jump\t// out\n        /* \"#utility.yul\":6898:7264   */\n    tag_71:\n        /* \"#utility.yul\":7040:7043   */\n      0x00\n        /* \"#utility.yul\":7061:7128   */\n      tag_168\n        /* \"#utility.yul\":7125:7127   */\n      0x11\n        /* \"#utility.yul\":7120:7123   */\n      dup4\n        /* \"#utility.yul\":7061:7128   */\n      tag_69\n      jump\t// in\n    tag_168:\n        /* \"#utility.yul\":7054:7128   */\n      swap2\n      pop\n        /* \"#utility.yul\":7137:7230   */\n      tag_169\n        /* \"#utility.yul\":7226:7229   */\n      dup3\n        /* \"#utility.yul\":7137:7230   */\n      tag_70\n      jump\t// in\n    tag_169:\n        /* \"#utility.yul\":7255:7257   */\n      0x20\n        /* \"#utility.yul\":7250:7253   */\n      dup3\n        /* \"#utility.yul\":7246:7258   */\n      add\n        /* \"#utility.yul\":7239:7258   */\n      swap1\n      pop\n        /* \"#utility.yul\":6898:7264   */\n      swap2\n      swap1\n      pop\n      jump\t// out\n        /* \"#utility.yul\":7270:7689   */\n    tag_29:\n        /* \"#utility.yul\":7436:7440   */\n      0x00\n        /* \"#utility.yul\":7474:7476   */\n      0x20\n        /* \"#utility.yul\":7463:7472   */\n      dup3\n        /* \"#utility.yul\":7459:7477   */\n      add\n        /* \"#utility.yul\":7451:7477   */\n      swap1\n      pop\n        /* \"#utility.yul\":7523:7532   */\n      dup2\n        /* \"#utility.yul\":7517:7521   */\n      dup2\n        /* \"#utility.yul\":7513:7533   */\n      sub\n        /* \"#utility.yul\":7509:7510   */\n      0x00\n        /* \"#utility.yul\":7498:7507   */\n      dup4\n        /* \"#utility.yul\":7494:7511   */\n      add\n        /* \"#utility.yul\":7487:7534   */\n      mstore\n        /* \"#utility.yul\":7551:7682   */\n      tag_171\n        /* \"#utility.yul\":7677:7681   */\n      dup2\n        /* \"#utility.yul\":7551:7682   */\n      tag_71\n      jump\t// in\n    tag_171:\n        /* \"#utility.yul\":7543:7682   */\n      swap1\n      pop\n        /* \"#utility.yul\":7270:7689   */\n      swap2\n      swap1\n      pop\n      jump\t// out\n        /* \"#utility.yul\":7695:7865   */\n    tag_72:\n        /* \"#utility.yul\":7835:7857   */\n      0x275065726d69742072616e6765206661696c6564000000000000000000000000\n        /* \"#utility.yul\":7831:7832   */\n      0x00\n        /* \"#utility.yul\":7823:7829   */\n      dup3\n        /* \"#utility.yul\":7819:7833   */\n      add\n        /* \"#utility.yul\":7812:7858   */\n      mstore\n        /* \"#utility.yul\":7695:7865   */\n      pop\n      jump\t// out\n        /* \"#utility.yul\":7871:8237   */\n    tag_73:\n        /* \"#utility.yul\":8013:8016   */\n      0x00\n        /* \"#utility.yul\":8034:8101   */\n      tag_174\n        /* \"#utility.yul\":8098:8100   */\n      0x14\n        /* \"#utility.yul\":8093:8096   */\n      dup4\n        /* \"#utility.yul\":8034:8101   */\n      tag_69\n      jump\t// in\n    tag_174:\n        /* \"#utility.yul\":8027:8101   */\n      swap2\n      pop\n        /* \"#utility.yul\":8110:8203   */\n      tag_175\n        /* \"#utility.yul\":8199:8202   */\n      dup3\n        /* \"#utility.yul\":8110:8203   */\n      tag_72\n      jump\t// in\n    tag_175:\n        /* \"#utility.yul\":8228:8230   */\n      0x20\n        /* \"#utility.yul\":8223:8226   */\n      dup3\n        /* \"#utility.yul\":8219:8231   */\n      add\n        /* \"#utility.yul\":8212:8231   */\n      swap1\n      pop\n        /* \"#utility.yul\":7871:8237   */\n      swap2\n      swap1\n      pop\n      jump\t// out\n        /* \"#utility.yul\":8243:8662   */\n    tag_32:\n        /* \"#utility.yul\":8409:8413   */\n      0x00\n        /* \"#utility.yul\":8447:8449   */\n      0x20\n        /* \"#utility.yul\":8436:8445   */\n      dup3\n        /* \"#utility.yul\":8432:8450   */\n      add\n        /* \"#utility.yul\":8424:8450   */\n      swap1\n      pop\n        /* \"#utility.yul\":8496:8505   */\n      dup2\n        /* \"#utility.yul\":8490:8494   */\n      dup2\n        /* \"#utility.yul\":8486:8506   */\n      sub\n        /* \"#utility.yul\":8482:8483   */\n      0x00\n        /* \"#utility.yul\":8471:8480   */\n      dup4\n        /* \"#utility.yul\":8467:8484   */\n      add\n        /* \"#utility.yul\":8460:8507   */\n      mstore\n        /* \"#utility.yul\":8524:8655   */\n      tag_177\n        /* \"#utility.yul\":8650:8654   */\n      dup2\n        /* \"#utility.yul\":8524:8655   */\n      tag_73\n      jump\t// in\n    tag_177:\n        /* \"#utility.yul\":8516:8655   */\n      swap1\n      pop\n        /* \"#utility.yul\":8243:8662   */\n      swap2\n      swap1\n      pop\n      jump\t// out\n        /* \"#utility.yul\":8668:8841   */\n    tag_74:\n        /* \"#utility.yul\":8808:8833   */\n      0x5045524d49545f444541444c494e455f45585049524544000000000000000000\n        /* \"#utility.yul\":8804:8805   */\n      0x00\n        /* \"#utility.yul\":8796:8802   */\n      dup3\n        /* \"#utility.yul\":8792:8806   */\n      add\n        /* \"#utility.yul\":8785:8834   */\n      mstore\n        /* \"#utility.yul\":8668:8841   */\n      pop\n      jump\t// out\n        /* \"#utility.yul\":8847:9213   */\n    tag_75:\n        /* \"#utility.yul\":8989:8992   */\n      0x00\n        /* \"#utility.yul\":9010:9077   */\n      tag_180\n        /* \"#utility.yul\":9074:9076   */\n      0x17\n        /* \"#utility.yul\":9069:9072   */\n      dup4\n        /* \"#utility.yul\":9010:9077   */\n      tag_69\n      jump\t// in\n    tag_180:\n        /* \"#utility.yul\":9003:9077   */\n      swap2\n      pop\n        /* \"#utility.yul\":9086:9179   */\n      tag_181\n        /* \"#utility.yul\":9175:9178   */\n      dup3\n        /* \"#utility.yul\":9086:9179   */\n      tag_74\n      jump\t// in\n    tag_181:\n        /* \"#utility.yul\":9204:9206   */\n      0x20\n        /* \"#utility.yul\":9199:9202   */\n      dup3\n        /* \"#utility.yul\":9195:9207   */\n      add\n        /* \"#utility.yul\":9188:9207   */\n      swap1\n      pop\n        /* \"#utility.yul\":8847:9213   */\n      swap2\n      swap1\n      pop\n      jump\t// out\n        /* \"#utility.yul\":9219:9638   */\n    tag_35:\n        /* \"#utility.yul\":9385:9389   */\n      0x00\n        /* \"#utility.yul\":9423:9425   */\n      0x20\n        /* \"#utility.yul\":9412:9421   */\n      dup3\n        /* \"#utility.yul\":9408:9426   */\n      add\n        /* \"#utility.yul\":9400:9426   */\n      swap1\n      pop\n        /* \"#utility.yul\":9472:9481   */\n      dup2\n        /* \"#utility.yul\":9466:9470   */\n      dup2\n        /* \"#utility.yul\":9462:9482   */\n      sub\n        /* \"#utility.yul\":9458:9459   */\n      0x00\n        /* \"#utility.yul\":9447:9456   */\n      dup4\n        /* \"#utility.yul\":9443:9460   */\n      add\n        /* \"#utility.yul\":9436:9483   */\n      mstore\n        /* \"#utility.yul\":9500:9631   */\n      tag_183\n        /* \"#utility.yul\":9626:9630   */\n      dup2\n        /* \"#utility.yul\":9500:9631   */\n      tag_75\n      jump\t// in\n    tag_183:\n        /* \"#utility.yul\":9492:9631   */\n      swap1\n      pop\n        /* \"#utility.yul\":9219:9638   */\n      swap2\n      swap1\n      pop\n      jump\t// out\n        /* \"#utility.yul\":9644:9723   */\n    tag_76:\n        /* \"#utility.yul\":9683:9690   */\n      0x00\n        /* \"#utility.yul\":9712:9717   */\n      dup2\n        /* \"#utility.yul\":9701:9717   */\n      swap1\n      pop\n        /* \"#utility.yul\":9644:9723   */\n      swap2\n      swap1\n      pop\n      jump\t// out\n        /* \"#utility.yul\":9729:9886   */\n    tag_77:\n        /* \"#utility.yul\":9834:9879   */\n      tag_186\n        /* \"#utility.yul\":9854:9878   */\n      tag_187\n        /* \"#utility.yul\":9872:9877   */\n      dup3\n        /* \"#utility.yul\":9854:9878   */\n      tag_44\n      jump\t// in\n    tag_187:\n        /* \"#utility.yul\":9834:9879   */\n      tag_76\n      jump\t// in\n    tag_186:\n        /* \"#utility.yul\":9829:9832   */\n      dup3\n        /* \"#utility.yul\":9822:9880   */\n      mstore\n        /* \"#utility.yul\":9729:9886   */\n      pop\n      pop\n      jump\t// out\n        /* \"#utility.yul\":9892:9986   */\n    tag_78:\n        /* \"#utility.yul\":9925:9933   */\n      0x00\n        /* \"#utility.yul\":9973:9978   */\n      dup2\n        /* \"#utility.yul\":9969:9971   */\n      0x60\n        /* \"#utility.yul\":9965:9979   */\n      shl\n        /* \"#utility.yul\":9944:9979   */\n      swap1\n      pop\n        /* \"#utility.yul\":9892:9986   */\n      swap2\n      swap1\n      pop\n      jump\t// out\n        /* \"#utility.yul\":9992:10086   */\n    tag_79:\n        /* \"#utility.yul\":10031:10038   */\n      0x00\n        /* \"#utility.yul\":10060:10080   */\n      tag_190\n        /* \"#utility.yul\":10074:10079   */\n      dup3\n        /* \"#utility.yul\":10060:10080   */\n      tag_78\n      jump\t// in\n    tag_190:\n        /* \"#utility.yul\":10049:10080   */\n      swap1\n      pop\n        /* \"#utility.yul\":9992:10086   */\n      swap2\n      swap1\n      pop\n      jump\t// out\n        /* \"#utility.yul\":10092:10192   */\n    tag_80:\n        /* \"#utility.yul\":10131:10138   */\n      0x00\n        /* \"#utility.yul\":10160:10186   */\n      tag_192\n        /* \"#utility.yul\":10180:10185   */\n      dup3\n        /* \"#utility.yul\":10160:10186   */\n      tag_79\n      jump\t// in\n    tag_192:\n        /* \"#utility.yul\":10149:10186   */\n      swap1\n      pop\n        /* \"#utility.yul\":10092:10192   */\n      swap2\n      swap1\n      pop\n      jump\t// out\n        /* \"#utility.yul\":10198:10355   */\n    tag_81:\n        /* \"#utility.yul\":10303:10348   */\n      tag_194\n        /* \"#utility.yul\":10323:10347   */\n      tag_195\n        /* \"#utility.yul\":10341:10346   */\n      dup3\n        /* \"#utility.yul\":10323:10347   */\n      tag_52\n      jump\t// in\n    tag_195:\n        /* \"#utility.yul\":10303:10348   */\n      tag_80\n      jump\t// in\n    tag_194:\n        /* \"#utility.yul\":10298:10301   */\n      dup3\n        /* \"#utility.yul\":10291:10349   */\n      mstore\n        /* \"#utility.yul\":10198:10355   */\n      pop\n      pop\n      jump\t// out\n        /* \"#utility.yul\":10361:10440   */\n    tag_82:\n        /* \"#utility.yul\":10400:10407   */\n      0x00\n        /* \"#utility.yul\":10429:10434   */\n      dup2\n        /* \"#utility.yul\":10418:10434   */\n      swap1\n      pop\n        /* \"#utility.yul\":10361:10440   */\n      swap2\n      swap1\n      pop\n      jump\t// out\n        /* \"#utility.yul\":10446:10603   */\n    tag_83:\n        /* \"#utility.yul\":10551:10596   */\n      tag_198\n        /* \"#utility.yul\":10571:10595   */\n      tag_199\n        /* \"#utility.yul\":10589:10594   */\n      dup3\n        /* \"#utility.yul\":10571:10595   */\n      tag_42\n      jump\t// in\n    tag_199:\n        /* \"#utility.yul\":10551:10596   */\n      tag_82\n      jump\t// in\n    tag_198:\n        /* \"#utility.yul\":10546:10549   */\n      dup3\n        /* \"#utility.yul\":10539:10597   */\n      mstore\n        /* \"#utility.yul\":10446:10603   */\n      pop\n      pop\n      jump\t// out\n        /* \"#utility.yul\":10609:11429   */\n    tag_37:\n        /* \"#utility.yul\":10833:10836   */\n      0x00\n        /* \"#utility.yul\":10848:10923   */\n      tag_201\n        /* \"#utility.yul\":10919:10922   */\n      dup3\n        /* \"#utility.yul\":10910:10916   */\n      dup9\n        /* \"#utility.yul\":10848:10923   */\n      tag_77\n      jump\t// in\n    tag_201:\n        /* \"#utility.yul\":10948:10950   */\n      0x20\n        /* \"#utility.yul\":10943:10946   */\n      dup3\n        /* \"#utility.yul\":10939:10951   */\n      add\n        /* \"#utility.yul\":10932:10951   */\n      swap2\n      pop\n        /* \"#utility.yul\":10961:11036   */\n      tag_202\n        /* \"#utility.yul\":11032:11035   */\n      dup3\n        /* \"#utility.yul\":11023:11029   */\n      dup8\n        /* \"#utility.yul\":10961:11036   */\n      tag_81\n      jump\t// in\n    tag_202:\n        /* \"#utility.yul\":11061:11063   */\n      0x14\n        /* \"#utility.yul\":11056:11059   */\n      dup3\n        /* \"#utility.yul\":11052:11064   */\n      add\n        /* \"#utility.yul\":11045:11064   */\n      swap2\n      pop\n        /* \"#utility.yul\":11074:11149   */\n      tag_203\n        /* \"#utility.yul\":11145:11148   */\n      dup3\n        /* \"#utility.yul\":11136:11142   */\n      dup7\n        /* \"#utility.yul\":11074:11149   */\n      tag_81\n      jump\t// in\n    tag_203:\n        /* \"#utility.yul\":11174:11176   */\n      0x14\n        /* \"#utility.yul\":11169:11172   */\n      dup3\n        /* \"#utility.yul\":11165:11177   */\n      add\n        /* \"#utility.yul\":11158:11177   */\n      swap2\n      pop\n        /* \"#utility.yul\":11187:11262   */\n      tag_204\n        /* \"#utility.yul\":11258:11261   */\n      dup3\n        /* \"#utility.yul\":11249:11255   */\n      dup6\n        /* \"#utility.yul\":11187:11262   */\n      tag_83\n      jump\t// in\n    tag_204:\n        /* \"#utility.yul\":11287:11289   */\n      0x20\n        /* \"#utility.yul\":11282:11285   */\n      dup3\n        /* \"#utility.yul\":11278:11290   */\n      add\n        /* \"#utility.yul\":11271:11290   */\n      swap2\n      pop\n        /* \"#utility.yul\":11300:11375   */\n      tag_205\n        /* \"#utility.yul\":11371:11374   */\n      dup3\n        /* \"#utility.yul\":11362:11368   */\n      dup5\n        /* \"#utility.yul\":11300:11375   */\n      tag_83\n      jump\t// in\n    tag_205:\n        /* \"#utility.yul\":11400:11402   */\n      0x20\n        /* \"#utility.yul\":11395:11398   */\n      dup3\n        /* \"#utility.yul\":11391:11403   */\n      add\n        /* \"#utility.yul\":11384:11403   */\n      swap2\n      pop\n        /* \"#utility.yul\":11420:11423   */\n      dup2\n        /* \"#utility.yul\":11413:11423   */\n      swap1\n      pop\n        /* \"#utility.yul\":10609:11429   */\n      swap7\n      swap6\n      pop\n      pop\n      pop\n      pop\n      pop\n      pop\n      jump\t// out\n        /* \"#utility.yul\":11435:11609   */\n    tag_84:\n        /* \"#utility.yul\":11575:11601   */\n      0x696e76616c6964207369676e6174757265206c656e6774680000000000000000\n        /* \"#utility.yul\":11571:11572   */\n      0x00\n        /* \"#utility.yul\":11563:11569   */\n      dup3\n        /* \"#utility.yul\":11559:11573   */\n      add\n        /* \"#utility.yul\":11552:11602   */\n      mstore\n        /* \"#utility.yul\":11435:11609   */\n      pop\n      jump\t// out\n        /* \"#utility.yul\":11615:11981   */\n    tag_85:\n        /* \"#utility.yul\":11757:11760   */\n      0x00\n        /* \"#utility.yul\":11778:11845   */\n      tag_208\n        /* \"#utility.yul\":11842:11844   */\n      0x18\n        /* \"#utility.yul\":11837:11840   */\n      dup4\n        /* \"#utility.yul\":11778:11845   */\n      tag_69\n      jump\t// in\n    tag_208:\n        /* \"#utility.yul\":11771:11845   */\n      swap2\n      pop\n        /* \"#utility.yul\":11854:11947   */\n      tag_209\n        /* \"#utility.yul\":11943:11946   */\n      dup3\n        /* \"#utility.yul\":11854:11947   */\n      tag_84\n      jump\t// in\n    tag_209:\n        /* \"#utility.yul\":11972:11974   */\n      0x20\n        /* \"#utility.yul\":11967:11970   */\n      dup3\n        /* \"#utility.yul\":11963:11975   */\n      add\n        /* \"#utility.yul\":11956:11975   */\n      swap1\n      pop\n        /* \"#utility.yul\":11615:11981   */\n      swap2\n      swap1\n      pop\n      jump\t// out\n        /* \"#utility.yul\":11987:12406   */\n    tag_41:\n        /* \"#utility.yul\":12153:12157   */\n      0x00\n        /* \"#utility.yul\":12191:12193   */\n      0x20\n        /* \"#utility.yul\":12180:12189   */\n      dup3\n        /* \"#utility.yul\":12176:12194   */\n      add\n        /* \"#utility.yul\":12168:12194   */\n      swap1\n      pop\n        /* \"#utility.yul\":12240:12249   */\n      dup2\n        /* \"#utility.yul\":12234:12238   */\n      dup2\n        /* \"#utility.yul\":12230:12250   */\n      sub\n        /* \"#utility.yul\":12226:12227   */\n      0x00\n        /* \"#utility.yul\":12215:12224   */\n      dup4\n        /* \"#utility.yul\":12211:12228   */\n      add\n        /* \"#utility.yul\":12204:12251   */\n      mstore\n        /* \"#utility.yul\":12268:12399   */\n      tag_211\n        /* \"#utility.yul\":12394:12398   */\n      dup2\n        /* \"#utility.yul\":12268:12399   */\n      tag_85\n      jump\t// in\n    tag_211:\n        /* \"#utility.yul\":12260:12399   */\n      swap1\n      pop\n        /* \"#utility.yul\":11987:12406   */\n      swap2\n      swap1\n      pop\n      jump\t// out\n\n    auxdata: 0xa2646970667358221220df1d92472a3a6736d827d4f434c0f25818482900ca21773732fdffebc246152764736f6c63430008110033\n}\n",
				"bytecode": {
					"linkReferences": {},
					"object": "608060405234801561001057600080fd5b5061095e806100206000396000f3fe608060405234801561001057600080fd5b506004361061004c5760003560e01c80631ac3d5811461005157806330adf81f1461006f578063a29ff68e1461008d578063a7bb5803146100bd575b600080fd5b6100596100ef565b6040516100669190610308565b60405180910390f35b610077610113565b604051610084919061033c565b60405180910390f35b6100a760048036038101906100a29190610421565b610137565b6040516100b4919061033c565b60405180910390f35b6100d760048036038101906100d291906105e2565b610287565b6040516100e693929190610647565b60405180910390f35b7fffffffffffffffffffffffffffffffffffffffffffffffffffffffffffffffff81565b7f05619a74ecd0240afc3bfb1df2bd1319401220fb577809c3a09bf0ab809ac86181565b60008073ffffffffffffffffffffffffffffffffffffffff168573ffffffffffffffffffffffffffffffffffffffff16036101a7576040517f08c379a000000000000000000000000000000000000000000000000000000000815260040161019e906106db565b60405180910390fd5b7fffffffffffffffffffffffffffffffffffffffffffffffffffffffffffffffff83111561020a576040517f08c379a000000000000000000000000000000000000000000000000000000000815260040161020190610747565b60405180910390fd5b4282101561024d576040517f08c379a0000000000000000000000000000000000000000000000000000000008152600401610244906107b3565b60405180910390fd5b858585858560405160200161026695949392919061085d565b60405160208183030381529060405280519060200120905095945050505050565b600080600060418451146102d0576040517f08c379a00000000000000000000000000000000000000000000000000000000081526004016102c790610908565b60405180910390fd5b6020840151925060408401519150606084015160001a90509193909250565b6000819050919050565b610302816102ef565b82525050565b600060208201905061031d60008301846102f9565b92915050565b6000819050919050565b61033681610323565b82525050565b6000602082019050610351600083018461032d565b92915050565b6000604051905090565b600080fd5b600080fd5b61037481610323565b811461037f57600080fd5b50565b6000813590506103918161036b565b92915050565b600073ffffffffffffffffffffffffffffffffffffffff82169050919050565b60006103c282610397565b9050919050565b6103d2816103b7565b81146103dd57600080fd5b50565b6000813590506103ef816103c9565b92915050565b6103fe816102ef565b811461040957600080fd5b50565b60008135905061041b816103f5565b92915050565b600080600080600060a0868803121561043d5761043c610361565b5b600061044b88828901610382565b955050602061045c888289016103e0565b945050604061046d888289016103e0565b935050606061047e8882890161040c565b925050608061048f8882890161040c565b9150509295509295909350565b600080fd5b600080fd5b6000601f19601f8301169050919050565b7f4e487b7100000000000000000000000000000000000000000000000000000000600052604160045260246000fd5b6104ef826104a6565b810181811067ffffffffffffffff8211171561050e5761050d6104b7565b5b80604052505050565b6000610521610357565b905061052d82826104e6565b919050565b600067ffffffffffffffff82111561054d5761054c6104b7565b5b610556826104a6565b9050602081019050919050565b82818337600083830152505050565b600061058561058084610532565b610517565b9050828152602081018484840111156105a1576105a06104a1565b5b6105ac848285610563565b509392505050565b600082601f8301126105c9576105c861049c565b5b81356105d9848260208601610572565b91505092915050565b6000602082840312156105f8576105f7610361565b5b600082013567ffffffffffffffff81111561061657610615610366565b5b610622848285016105b4565b91505092915050565b600060ff82169050919050565b6106418161062b565b82525050565b600060608201905061065c600083018661032d565b610669602083018561032d565b6106766040830184610638565b949350505050565b600082825260208201905092915050565b7f696e76616c69642d616464726573732d30000000000000000000000000000000600082015250565b60006106c560118361067e565b91506106d08261068f565b602082019050919050565b600060208201905081810360008301526106f4816106b8565b9050919050565b7f275065726d69742072616e6765206661696c6564000000000000000000000000600082015250565b600061073160148361067e565b915061073c826106fb565b602082019050919050565b6000602082019050818103600083015261076081610724565b9050919050565b7f5045524d49545f444541444c494e455f45585049524544000000000000000000600082015250565b600061079d60178361067e565b91506107a882610767565b602082019050919050565b600060208201905081810360008301526107cc81610790565b9050919050565b6000819050919050565b6107ee6107e982610323565b6107d3565b82525050565b60008160601b9050919050565b600061080c826107f4565b9050919050565b600061081e82610801565b9050919050565b610836610831826103b7565b610813565b82525050565b6000819050919050565b610857610852826102ef565b61083c565b82525050565b600061086982886107dd565b6020820191506108798287610825565b6014820191506108898286610825565b6014820191506108998285610846565b6020820191506108a98284610846565b6020820191508190509695505050505050565b7f696e76616c6964207369676e6174757265206c656e6774680000000000000000600082015250565b60006108f260188361067e565b91506108fd826108bc565b602082019050919050565b60006020820190508181036000830152610921816108e5565b905091905056fea2646970667358221220df1d92472a3a6736d827d4f434c0f25818482900ca21773732fdffebc246152764736f6c63430008110033",
					"opcodes": "PUSH1 0x80 PUSH1 0x40 MSTORE CALLVALUE DUP1 ISZERO PUSH2 0x10 JUMPI PUSH1 0x0 DUP1 REVERT JUMPDEST POP PUSH2 0x95E DUP1 PUSH2 0x20 PUSH1 0x0 CODECOPY PUSH1 0x0 RETURN INVALID PUSH1 0x80 PUSH1 0x40 MSTORE CALLVALUE DUP1 ISZERO PUSH2 0x10 JUMPI PUSH1 0x0 DUP1 REVERT JUMPDEST POP PUSH1 0x4 CALLDATASIZE LT PUSH2 0x4C JUMPI PUSH1 0x0 CALLDATALOAD PUSH1 0xE0 SHR DUP1 PUSH4 0x1AC3D581 EQ PUSH2 0x51 JUMPI DUP1 PUSH4 0x30ADF81F EQ PUSH2 0x6F JUMPI DUP1 PUSH4 0xA29FF68E EQ PUSH2 0x8D JUMPI DUP1 PUSH4 0xA7BB5803 EQ PUSH2 0xBD JUMPI JUMPDEST PUSH1 0x0 DUP1 REVERT JUMPDEST PUSH2 0x59 PUSH2 0xEF JUMP JUMPDEST PUSH1 0x40 MLOAD PUSH2 0x66 SWAP2 SWAP1 PUSH2 0x308 JUMP JUMPDEST PUSH1 0x40 MLOAD DUP1 SWAP2 SUB SWAP1 RETURN JUMPDEST PUSH2 0x77 PUSH2 0x113 JUMP JUMPDEST PUSH1 0x40 MLOAD PUSH2 0x84 SWAP2 SWAP1 PUSH2 0x33C JUMP JUMPDEST PUSH1 0x40 MLOAD DUP1 SWAP2 SUB SWAP1 RETURN JUMPDEST PUSH2 0xA7 PUSH1 0x4 DUP1 CALLDATASIZE SUB DUP2 ADD SWAP1 PUSH2 0xA2 SWAP2 SWAP1 PUSH2 0x421 JUMP JUMPDEST PUSH2 0x137 JUMP JUMPDEST PUSH1 0x40 MLOAD PUSH2 0xB4 SWAP2 SWAP1 PUSH2 0x33C JUMP JUMPDEST PUSH1 0x40 MLOAD DUP1 SWAP2 SUB SWAP1 RETURN JUMPDEST PUSH2 0xD7 PUSH1 0x4 DUP1 CALLDATASIZE SUB DUP2 ADD SWAP1 PUSH2 0xD2 SWAP2 SWAP1 PUSH2 0x5E2 JUMP JUMPDEST PUSH2 0x287 JUMP JUMPDEST PUSH1 0x40 MLOAD PUSH2 0xE6 SWAP4 SWAP3 SWAP2 SWAP1 PUSH2 0x647 JUMP JUMPDEST PUSH1 0x40 MLOAD DUP1 SWAP2 SUB SWAP1 RETURN JUMPDEST PUSH32 0xFFFFFFFFFFFFFFFFFFFFFFFFFFFFFFFFFFFFFFFFFFFFFFFFFFFFFFFFFFFFFFFF DUP2 JUMP JUMPDEST PUSH32 0x5619A74ECD0240AFC3BFB1DF2BD1319401220FB577809C3A09BF0AB809AC861 DUP2 JUMP JUMPDEST PUSH1 0x0 DUP1 PUSH20 0xFFFFFFFFFFFFFFFFFFFFFFFFFFFFFFFFFFFFFFFF AND DUP6 PUSH20 0xFFFFFFFFFFFFFFFFFFFFFFFFFFFFFFFFFFFFFFFF AND SUB PUSH2 0x1A7 JUMPI PUSH1 0x40 MLOAD PUSH32 0x8C379A000000000000000000000000000000000000000000000000000000000 DUP2 MSTORE PUSH1 0x4 ADD PUSH2 0x19E SWAP1 PUSH2 0x6DB JUMP JUMPDEST PUSH1 0x40 MLOAD DUP1 SWAP2 SUB SWAP1 REVERT JUMPDEST PUSH32 0xFFFFFFFFFFFFFFFFFFFFFFFFFFFFFFFFFFFFFFFFFFFFFFFFFFFFFFFFFFFFFFFF DUP4 GT ISZERO PUSH2 0x20A JUMPI PUSH1 0x40 MLOAD PUSH32 0x8C379A000000000000000000000000000000000000000000000000000000000 DUP2 MSTORE PUSH1 0x4 ADD PUSH2 0x201 SWAP1 PUSH2 0x747 JUMP JUMPDEST PUSH1 0x40 MLOAD DUP1 SWAP2 SUB SWAP1 REVERT JUMPDEST TIMESTAMP DUP3 LT ISZERO PUSH2 0x24D JUMPI PUSH1 0x40 MLOAD PUSH32 0x8C379A000000000000000000000000000000000000000000000000000000000 DUP2 MSTORE PUSH1 0x4 ADD PUSH2 0x244 SWAP1 PUSH2 0x7B3 JUMP JUMPDEST PUSH1 0x40 MLOAD DUP1 SWAP2 SUB SWAP1 REVERT JUMPDEST DUP6 DUP6 DUP6 DUP6 DUP6 PUSH1 0x40 MLOAD PUSH1 0x20 ADD PUSH2 0x266 SWAP6 SWAP5 SWAP4 SWAP3 SWAP2 SWAP1 PUSH2 0x85D JUMP JUMPDEST PUSH1 0x40 MLOAD PUSH1 0x20 DUP2 DUP4 SUB SUB DUP2 MSTORE SWAP1 PUSH1 0x40 MSTORE DUP1 MLOAD SWAP1 PUSH1 0x20 ADD KECCAK256 SWAP1 POP SWAP6 SWAP5 POP POP POP POP POP JUMP JUMPDEST PUSH1 0x0 DUP1 PUSH1 0x0 PUSH1 0x41 DUP5 MLOAD EQ PUSH2 0x2D0 JUMPI PUSH1 0x40 MLOAD PUSH32 0x8C379A000000000000000000000000000000000000000000000000000000000 DUP2 MSTORE PUSH1 0x4 ADD PUSH2 0x2C7 SWAP1 PUSH2 0x908 JUMP JUMPDEST PUSH1 0x40 MLOAD DUP1 SWAP2 SUB SWAP1 REVERT JUMPDEST PUSH1 0x20 DUP5 ADD MLOAD SWAP3 POP PUSH1 0x40 DUP5 ADD MLOAD SWAP2 POP PUSH1 0x60 DUP5 ADD MLOAD PUSH1 0x0 BYTE SWAP1 POP SWAP2 SWAP4 SWAP1 SWAP3 POP JUMP JUMPDEST PUSH1 0x0 DUP2 SWAP1 POP SWAP2 SWAP1 POP JUMP JUMPDEST PUSH2 0x302 DUP2 PUSH2 0x2EF JUMP JUMPDEST DUP3 MSTORE POP POP JUMP JUMPDEST PUSH1 0x0 PUSH1 0x20 DUP3 ADD SWAP1 POP PUSH2 0x31D PUSH1 0x0 DUP4 ADD DUP5 PUSH2 0x2F9 JUMP JUMPDEST SWAP3 SWAP2 POP POP JUMP JUMPDEST PUSH1 0x0 DUP2 SWAP1 POP SWAP2 SWAP1 POP JUMP JUMPDEST PUSH2 0x336 DUP2 PUSH2 0x323 JUMP JUMPDEST DUP3 MSTORE POP POP JUMP JUMPDEST PUSH1 0x0 PUSH1 0x20 DUP3 ADD SWAP1 POP PUSH2 0x351 PUSH1 0x0 DUP4 ADD DUP5 PUSH2 0x32D JUMP JUMPDEST SWAP3 SWAP2 POP POP JUMP JUMPDEST PUSH1 0x0 PUSH1 0x40 MLOAD SWAP1 POP SWAP1 JUMP JUMPDEST PUSH1 0x0 DUP1 REVERT JUMPDEST PUSH1 0x0 DUP1 REVERT JUMPDEST PUSH2 0x374 DUP2 PUSH2 0x323 JUMP JUMPDEST DUP2 EQ PUSH2 0x37F JUMPI PUSH1 0x0 DUP1 REVERT JUMPDEST POP JUMP JUMPDEST PUSH1 0x0 DUP2 CALLDATALOAD SWAP1 POP PUSH2 0x391 DUP2 PUSH2 0x36B JUMP JUMPDEST SWAP3 SWAP2 POP POP JUMP JUMPDEST PUSH1 0x0 PUSH20 0xFFFFFFFFFFFFFFFFFFFFFFFFFFFFFFFFFFFFFFFF DUP3 AND SWAP1 POP SWAP2 SWAP1 POP JUMP JUMPDEST PUSH1 0x0 PUSH2 0x3C2 DUP3 PUSH2 0x397 JUMP JUMPDEST SWAP1 POP SWAP2 SWAP1 POP JUMP JUMPDEST PUSH2 0x3D2 DUP2 PUSH2 0x3B7 JUMP JUMPDEST DUP2 EQ PUSH2 0x3DD JUMPI PUSH1 0x0 DUP1 REVERT JUMPDEST POP JUMP JUMPDEST PUSH1 0x0 DUP2 CALLDATALOAD SWAP1 POP PUSH2 0x3EF DUP2 PUSH2 0x3C9 JUMP JUMPDEST SWAP3 SWAP2 POP POP JUMP JUMPDEST PUSH2 0x3FE DUP2 PUSH2 0x2EF JUMP JUMPDEST DUP2 EQ PUSH2 0x409 JUMPI PUSH1 0x0 DUP1 REVERT JUMPDEST POP JUMP JUMPDEST PUSH1 0x0 DUP2 CALLDATALOAD SWAP1 POP PUSH2 0x41B DUP2 PUSH2 0x3F5 JUMP JUMPDEST SWAP3 SWAP2 POP POP JUMP JUMPDEST PUSH1 0x0 DUP1 PUSH1 0x0 DUP1 PUSH1 0x0 PUSH1 0xA0 DUP7 DUP9 SUB SLT ISZERO PUSH2 0x43D JUMPI PUSH2 0x43C PUSH2 0x361 JUMP JUMPDEST JUMPDEST PUSH1 0x0 PUSH2 0x44B DUP9 DUP3 DUP10 ADD PUSH2 0x382 JUMP JUMPDEST SWAP6 POP POP PUSH1 0x20 PUSH2 0x45C DUP9 DUP3 DUP10 ADD PUSH2 0x3E0 JUMP JUMPDEST SWAP5 POP POP PUSH1 0x40 PUSH2 0x46D DUP9 DUP3 DUP10 ADD PUSH2 0x3E0 JUMP JUMPDEST SWAP4 POP POP PUSH1 0x60 PUSH2 0x47E DUP9 DUP3 DUP10 ADD PUSH2 0x40C JUMP JUMPDEST SWAP3 POP POP PUSH1 0x80 PUSH2 0x48F DUP9 DUP3 DUP10 ADD PUSH2 0x40C JUMP JUMPDEST SWAP2 POP POP SWAP3 SWAP6 POP SWAP3 SWAP6 SWAP1 SWAP4 POP JUMP JUMPDEST PUSH1 0x0 DUP1 REVERT JUMPDEST PUSH1 0x0 DUP1 REVERT JUMPDEST PUSH1 0x0 PUSH1 0x1F NOT PUSH1 0x1F DUP4 ADD AND SWAP1 POP SWAP2 SWAP1 POP JUMP JUMPDEST PUSH32 0x4E487B7100000000000000000000000000000000000000000000000000000000 PUSH1 0x0 MSTORE PUSH1 0x41 PUSH1 0x4 MSTORE PUSH1 0x24 PUSH1 0x0 REVERT JUMPDEST PUSH2 0x4EF DUP3 PUSH2 0x4A6 JUMP JUMPDEST DUP2 ADD DUP2 DUP2 LT PUSH8 0xFFFFFFFFFFFFFFFF DUP3 GT OR ISZERO PUSH2 0x50E JUMPI PUSH2 0x50D PUSH2 0x4B7 JUMP JUMPDEST JUMPDEST DUP1 PUSH1 0x40 MSTORE POP POP POP JUMP JUMPDEST PUSH1 0x0 PUSH2 0x521 PUSH2 0x357 JUMP JUMPDEST SWAP1 POP PUSH2 0x52D DUP3 DUP3 PUSH2 0x4E6 JUMP JUMPDEST SWAP2 SWAP1 POP JUMP JUMPDEST PUSH1 0x0 PUSH8 0xFFFFFFFFFFFFFFFF DUP3 GT ISZERO PUSH2 0x54D JUMPI PUSH2 0x54C PUSH2 0x4B7 JUMP JUMPDEST JUMPDEST PUSH2 0x556 DUP3 PUSH2 0x4A6 JUMP JUMPDEST SWAP1 POP PUSH1 0x20 DUP2 ADD SWAP1 POP SWAP2 SWAP1 POP JUMP JUMPDEST DUP3 DUP2 DUP4 CALLDATACOPY PUSH1 0x0 DUP4 DUP4 ADD MSTORE POP POP POP JUMP JUMPDEST PUSH1 0x0 PUSH2 0x585 PUSH2 0x580 DUP5 PUSH2 0x532 JUMP JUMPDEST PUSH2 0x517 JUMP JUMPDEST SWAP1 POP DUP3 DUP2 MSTORE PUSH1 0x20 DUP2 ADD DUP5 DUP5 DUP5 ADD GT ISZERO PUSH2 0x5A1 JUMPI PUSH2 0x5A0 PUSH2 0x4A1 JUMP JUMPDEST JUMPDEST PUSH2 0x5AC DUP5 DUP3 DUP6 PUSH2 0x563 JUMP JUMPDEST POP SWAP4 SWAP3 POP POP POP JUMP JUMPDEST PUSH1 0x0 DUP3 PUSH1 0x1F DUP4 ADD SLT PUSH2 0x5C9 JUMPI PUSH2 0x5C8 PUSH2 0x49C JUMP JUMPDEST JUMPDEST DUP2 CALLDATALOAD PUSH2 0x5D9 DUP5 DUP3 PUSH1 0x20 DUP7 ADD PUSH2 0x572 JUMP JUMPDEST SWAP2 POP POP SWAP3 SWAP2 POP POP JUMP JUMPDEST PUSH1 0x0 PUSH1 0x20 DUP3 DUP5 SUB SLT ISZERO PUSH2 0x5F8 JUMPI PUSH2 0x5F7 PUSH2 0x361 JUMP JUMPDEST JUMPDEST PUSH1 0x0 DUP3 ADD CALLDATALOAD PUSH8 0xFFFFFFFFFFFFFFFF DUP2 GT ISZERO PUSH2 0x616 JUMPI PUSH2 0x615 PUSH2 0x366 JUMP JUMPDEST JUMPDEST PUSH2 0x622 DUP5 DUP3 DUP6 ADD PUSH2 0x5B4 JUMP JUMPDEST SWAP2 POP POP SWAP3 SWAP2 POP POP JUMP JUMPDEST PUSH1 0x0 PUSH1 0xFF DUP3 AND SWAP1 POP SWAP2 SWAP1 POP JUMP JUMPDEST PUSH2 0x641 DUP2 PUSH2 0x62B JUMP JUMPDEST DUP3 MSTORE POP POP JUMP JUMPDEST PUSH1 0x0 PUSH1 0x60 DUP3 ADD SWAP1 POP PUSH2 0x65C PUSH1 0x0 DUP4 ADD DUP7 PUSH2 0x32D JUMP JUMPDEST PUSH2 0x669 PUSH1 0x20 DUP4 ADD DUP6 PUSH2 0x32D JUMP JUMPDEST PUSH2 0x676 PUSH1 0x40 DUP4 ADD DUP5 PUSH2 0x638 JUMP JUMPDEST SWAP5 SWAP4 POP POP POP POP JUMP JUMPDEST PUSH1 0x0 DUP3 DUP3 MSTORE PUSH1 0x20 DUP3 ADD SWAP1 POP SWAP3 SWAP2 POP POP JUMP JUMPDEST PUSH32 0x696E76616C69642D616464726573732D30000000000000000000000000000000 PUSH1 0x0 DUP3 ADD MSTORE POP JUMP JUMPDEST PUSH1 0x0 PUSH2 0x6C5 PUSH1 0x11 DUP4 PUSH2 0x67E JUMP JUMPDEST SWAP2 POP PUSH2 0x6D0 DUP3 PUSH2 0x68F JUMP JUMPDEST PUSH1 0x20 DUP3 ADD SWAP1 POP SWAP2 SWAP1 POP JUMP JUMPDEST PUSH1 0x0 PUSH1 0x20 DUP3 ADD SWAP1 POP DUP2 DUP2 SUB PUSH1 0x0 DUP4 ADD MSTORE PUSH2 0x6F4 DUP2 PUSH2 0x6B8 JUMP JUMPDEST SWAP1 POP SWAP2 SWAP1 POP JUMP JUMPDEST PUSH32 0x275065726D69742072616E6765206661696C6564000000000000000000000000 PUSH1 0x0 DUP3 ADD MSTORE POP JUMP JUMPDEST PUSH1 0x0 PUSH2 0x731 PUSH1 0x14 DUP4 PUSH2 0x67E JUMP JUMPDEST SWAP2 POP PUSH2 0x73C DUP3 PUSH2 0x6FB JUMP JUMPDEST PUSH1 0x20 DUP3 ADD SWAP1 POP SWAP2 SWAP1 POP JUMP JUMPDEST PUSH1 0x0 PUSH1 0x20 DUP3 ADD SWAP1 POP DUP2 DUP2 SUB PUSH1 0x0 DUP4 ADD MSTORE PUSH2 0x760 DUP2 PUSH2 0x724 JUMP JUMPDEST SWAP1 POP SWAP2 SWAP1 POP JUMP JUMPDEST PUSH32 0x5045524D49545F444541444C494E455F45585049524544000000000000000000 PUSH1 0x0 DUP3 ADD MSTORE POP JUMP JUMPDEST PUSH1 0x0 PUSH2 0x79D PUSH1 0x17 DUP4 PUSH2 0x67E JUMP JUMPDEST SWAP2 POP PUSH2 0x7A8 DUP3 PUSH2 0x767 JUMP JUMPDEST PUSH1 0x20 DUP3 ADD SWAP1 POP SWAP2 SWAP1 POP JUMP JUMPDEST PUSH1 0x0 PUSH1 0x20 DUP3 ADD SWAP1 POP DUP2 DUP2 SUB PUSH1 0x0 DUP4 ADD MSTORE PUSH2 0x7CC DUP2 PUSH2 0x790 JUMP JUMPDEST SWAP1 POP SWAP2 SWAP1 POP JUMP JUMPDEST PUSH1 0x0 DUP2 SWAP1 POP SWAP2 SWAP1 POP JUMP JUMPDEST PUSH2 0x7EE PUSH2 0x7E9 DUP3 PUSH2 0x323 JUMP JUMPDEST PUSH2 0x7D3 JUMP JUMPDEST DUP3 MSTORE POP POP JUMP JUMPDEST PUSH1 0x0 DUP2 PUSH1 0x60 SHL SWAP1 POP SWAP2 SWAP1 POP JUMP JUMPDEST PUSH1 0x0 PUSH2 0x80C DUP3 PUSH2 0x7F4 JUMP JUMPDEST SWAP1 POP SWAP2 SWAP1 POP JUMP JUMPDEST PUSH1 0x0 PUSH2 0x81E DUP3 PUSH2 0x801 JUMP JUMPDEST SWAP1 POP SWAP2 SWAP1 POP JUMP JUMPDEST PUSH2 0x836 PUSH2 0x831 DUP3 PUSH2 0x3B7 JUMP JUMPDEST PUSH2 0x813 JUMP JUMPDEST DUP3 MSTORE POP POP JUMP JUMPDEST PUSH1 0x0 DUP2 SWAP1 POP SWAP2 SWAP1 POP JUMP JUMPDEST PUSH2 0x857 PUSH2 0x852 DUP3 PUSH2 0x2EF JUMP JUMPDEST PUSH2 0x83C JUMP JUMPDEST DUP3 MSTORE POP POP JUMP JUMPDEST PUSH1 0x0 PUSH2 0x869 DUP3 DUP9 PUSH2 0x7DD JUMP JUMPDEST PUSH1 0x20 DUP3 ADD SWAP2 POP PUSH2 0x879 DUP3 DUP8 PUSH2 0x825 JUMP JUMPDEST PUSH1 0x14 DUP3 ADD SWAP2 POP PUSH2 0x889 DUP3 DUP7 PUSH2 0x825 JUMP JUMPDEST PUSH1 0x14 DUP3 ADD SWAP2 POP PUSH2 0x899 DUP3 DUP6 PUSH2 0x846 JUMP JUMPDEST PUSH1 0x20 DUP3 ADD SWAP2 POP PUSH2 0x8A9 DUP3 DUP5 PUSH2 0x846 JUMP JUMPDEST PUSH1 0x20 DUP3 ADD SWAP2 POP DUP2 SWAP1 POP SWAP7 SWAP6 POP POP POP POP POP POP JUMP JUMPDEST PUSH32 0x696E76616C6964207369676E6174757265206C656E6774680000000000000000 PUSH1 0x0 DUP3 ADD MSTORE POP JUMP JUMPDEST PUSH1 0x0 PUSH2 0x8F2 PUSH1 0x18 DUP4 PUSH2 0x67E JUMP JUMPDEST SWAP2 POP PUSH2 0x8FD DUP3 PUSH2 0x8BC JUMP JUMPDEST PUSH1 0x20 DUP3 ADD SWAP1 POP SWAP2 SWAP1 POP JUMP JUMPDEST PUSH1 0x0 PUSH1 0x20 DUP3 ADD SWAP1 POP DUP2 DUP2 SUB PUSH1 0x0 DUP4 ADD MSTORE PUSH2 0x921 DUP2 PUSH2 0x8E5 JUMP JUMPDEST SWAP1 POP SWAP2 SWAP1 POP JUMP INVALID LOG2 PUSH5 0x6970667358 0x22 SLT KECCAK256 0xDF SAR SWAP3 SELFBALANCE 0x2A GASPRICE PUSH8 0x36D827D4F434C0F2 PC XOR BASEFEE 0x29 STOP 0xCA 0x21 PUSH24 0x3732FDFFEBC246152764736F6C6343000811003300000000 "
				},
				"gasEstimates": {
					"creation": {
						"codeDepositCost": "479600",
						"executionCost": "511",
						"totalCost": "480111"
					},
					"external": {
						"MAX_INT_EXPONENTIATION()": "307",
						"PERMIT_TYPEHASH()": "329",
						"getPermitMessageHash(bytes32,address,address,uint256,uint256)": "infinite",
						"splitSignature(bytes)": "infinite"
					}
				},
				"methodIdentifiers": {
					"MAX_INT_EXPONENTIATION()": "1ac3d581",
					"PERMIT_TYPEHASH()": "30adf81f",
					"getPermitMessageHash(bytes32,address,address,uint256,uint256)": "a29ff68e",
					"splitSignature(bytes)": "a7bb5803"
				}
			},
			"storageLayout": {
				"storage": [],
				"types": null
			},
			"userdoc": {
				"kind": "user",
				"methods": {},
				"version": 1
			}
		}
	}
}