{
	"CONTRACTS/Token.sol": {
		"ApeCoin": {
			"abi": [
				{
					"inputs": [],
					"stateMutability": "nonpayable",
					"type": "constructor"
				},
				{
					"anonymous": false,
					"inputs": [
						{
							"indexed": true,
							"internalType": "address",
							"name": "owner",
							"type": "address"
						},
						{
							"indexed": true,
							"internalType": "address",
							"name": "spender",
							"type": "address"
						},
						{
							"indexed": false,
							"internalType": "uint256",
							"name": "amount",
							"type": "uint256"
						}
					],
					"name": "Approval",
					"type": "event"
				},
				{
					"anonymous": false,
					"inputs": [
						{
							"indexed": true,
							"internalType": "address",
							"name": "from",
							"type": "address"
						},
						{
							"indexed": true,
							"internalType": "address",
							"name": "to",
							"type": "address"
						},
						{
							"indexed": false,
							"internalType": "uint256",
							"name": "amount",
							"type": "uint256"
						}
					],
					"name": "Transfer",
					"type": "event"
				},
				{
					"inputs": [],
					"name": "DOMAIN_SEPARATOR",
					"outputs": [
						{
							"internalType": "bytes32",
							"name": "",
							"type": "bytes32"
						}
					],
					"stateMutability": "view",
					"type": "function"
				},
				{
					"inputs": [],
					"name": "MAX_INT_EXPONENTIATION",
					"outputs": [
						{
							"internalType": "uint256",
							"name": "",
							"type": "uint256"
						}
					],
					"stateMutability": "view",
					"type": "function"
				},
				{
					"inputs": [
						{
							"internalType": "address",
							"name": "",
							"type": "address"
						},
						{
							"internalType": "address",
							"name": "",
							"type": "address"
						}
					],
					"name": "allowance",
					"outputs": [
						{
							"internalType": "uint256",
							"name": "",
							"type": "uint256"
						}
					],
					"stateMutability": "view",
					"type": "function"
				},
				{
					"inputs": [
						{
							"internalType": "address",
							"name": "spender",
							"type": "address"
						},
						{
							"internalType": "uint256",
							"name": "amount",
							"type": "uint256"
						}
					],
					"name": "approve",
					"outputs": [
						{
							"internalType": "bool",
							"name": "",
							"type": "bool"
						}
					],
					"stateMutability": "nonpayable",
					"type": "function"
				},
				{
					"inputs": [
						{
							"internalType": "address",
							"name": "",
							"type": "address"
						}
					],
					"name": "balanceOf",
					"outputs": [
						{
							"internalType": "uint256",
							"name": "",
							"type": "uint256"
						}
					],
					"stateMutability": "view",
					"type": "function"
				},
				{
					"inputs": [],
					"name": "decimals",
					"outputs": [
						{
							"internalType": "uint8",
							"name": "",
							"type": "uint8"
						}
					],
					"stateMutability": "view",
					"type": "function"
				},
				{
					"inputs": [
						{
							"internalType": "address",
							"name": "_to",
							"type": "address"
						},
						{
							"internalType": "uint256",
							"name": "_amount",
							"type": "uint256"
						}
					],
					"name": "mint",
					"outputs": [],
					"stateMutability": "nonpayable",
					"type": "function"
				},
				{
					"inputs": [],
					"name": "name",
					"outputs": [
						{
							"internalType": "string",
							"name": "",
							"type": "string"
						}
					],
					"stateMutability": "view",
					"type": "function"
				},
				{
					"inputs": [
						{
							"internalType": "address",
							"name": "",
							"type": "address"
						}
					],
					"name": "nonces",
					"outputs": [
						{
							"internalType": "uint256",
							"name": "",
							"type": "uint256"
						}
					],
					"stateMutability": "view",
					"type": "function"
				},
				{
					"inputs": [
						{
							"internalType": "address",
							"name": "owner",
							"type": "address"
						},
						{
							"internalType": "address",
							"name": "spender",
							"type": "address"
						},
						{
							"internalType": "uint256",
							"name": "value",
							"type": "uint256"
						},
						{
							"internalType": "uint256",
							"name": "deadline",
							"type": "uint256"
						},
						{
							"internalType": "uint8",
							"name": "v",
							"type": "uint8"
						},
						{
							"internalType": "bytes32",
							"name": "r",
							"type": "bytes32"
						},
						{
							"internalType": "bytes32",
							"name": "s",
							"type": "bytes32"
						}
					],
					"name": "permit",
					"outputs": [],
					"stateMutability": "nonpayable",
					"type": "function"
				},
				{
					"inputs": [],
					"name": "symbol",
					"outputs": [
						{
							"internalType": "string",
							"name": "",
							"type": "string"
						}
					],
					"stateMutability": "view",
					"type": "function"
				},
				{
					"inputs": [],
					"name": "totalSupply",
					"outputs": [
						{
							"internalType": "uint256",
							"name": "",
							"type": "uint256"
						}
					],
					"stateMutability": "view",
					"type": "function"
				},
				{
					"inputs": [
						{
							"internalType": "address",
							"name": "to",
							"type": "address"
						},
						{
							"internalType": "uint256",
							"name": "amount",
							"type": "uint256"
						}
					],
					"name": "transfer",
					"outputs": [
						{
							"internalType": "bool",
							"name": "",
							"type": "bool"
						}
					],
					"stateMutability": "nonpayable",
					"type": "function"
				},
				{
					"inputs": [
						{
							"internalType": "address",
							"name": "from",
							"type": "address"
						},
						{
							"internalType": "address",
							"name": "to",
							"type": "address"
						},
						{
							"internalType": "uint256",
							"name": "amount",
							"type": "uint256"
						}
					],
					"name": "transferFrom",
					"outputs": [
						{
							"internalType": "bool",
							"name": "",
							"type": "bool"
						}
					],
					"stateMutability": "nonpayable",
					"type": "function"
				}
			],
			"devdoc": {
				"kind": "dev",
				"methods": {},
				"version": 1
			},
			"evm": {
				"assembly": "    /* \"CONTRACTS/Token.sol\":134:325  contract ApeCoin is ERC20 {... */\n  mstore(0x40, 0xe0)\n    /* \"CONTRACTS/Token.sol\":171:231  constructor () ERC20 (\"ApeCoin\", \"APE\", 18) {... */\n  callvalue\n  dup1\n  iszero\n  tag_1\n  jumpi\n  0x00\n  dup1\n  revert\ntag_1:\n  pop\n    /* \"CONTRACTS/solmate-main/src/tokens/ERC20.sol\":2047:2339  constructor(... */\n  mload(0x40)\n  dup1\n  0x40\n  add\n  0x40\n  mstore\n  dup1\n  0x07\n  dup2\n  mstore\n  0x20\n  add\n  0x417065436f696e00000000000000000000000000000000000000000000000000\n  dup2\n  mstore\n  pop\n  mload(0x40)\n  dup1\n  0x40\n  add\n  0x40\n  mstore\n  dup1\n  0x03\n  dup2\n  mstore\n  0x20\n  add\n  0x4150450000000000000000000000000000000000000000000000000000000000\n  dup2\n  mstore\n  pop\n    /* \"CONTRACTS/Token.sol\":211:213  18 */\n  0x12\n    /* \"CONTRACTS/solmate-main/src/tokens/ERC20.sol\":2167:2172  _name */\n  dup3\n    /* \"CONTRACTS/solmate-main/src/tokens/ERC20.sol\":2160:2164  name */\n  0x00\n    /* \"CONTRACTS/solmate-main/src/tokens/ERC20.sol\":2160:2172  name = _name */\n  swap1\n  dup2\n  tag_5\n  swap2\n  swap1\n  tag_6\n  jump\t// in\ntag_5:\n  pop\n    /* \"CONTRACTS/solmate-main/src/tokens/ERC20.sol\":2191:2198  _symbol */\n  dup2\n    /* \"CONTRACTS/solmate-main/src/tokens/ERC20.sol\":2182:2188  symbol */\n  0x01\n    /* \"CONTRACTS/solmate-main/src/tokens/ERC20.sol\":2182:2198  symbol = _symbol */\n  swap1\n  dup2\n  tag_7\n  swap2\n  swap1\n  tag_6\n  jump\t// in\ntag_7:\n  pop\n    /* \"CONTRACTS/solmate-main/src/tokens/ERC20.sol\":2219:2228  _decimals */\n  dup1\n    /* \"CONTRACTS/solmate-main/src/tokens/ERC20.sol\":2208:2228  decimals = _decimals */\n  0xff\n  and\n  0x80\n  dup2\n  0xff\n  and\n  dup2\n  mstore\n  pop\n  pop\n    /* \"CONTRACTS/solmate-main/src/tokens/ERC20.sol\":2258:2271  block.chainid */\n  chainid\n    /* \"CONTRACTS/solmate-main/src/tokens/ERC20.sol\":2239:2271  INITIAL_CHAIN_ID = block.chainid */\n  0xa0\n  dup2\n  dup2\n  mstore\n  pop\n  pop\n    /* \"CONTRACTS/solmate-main/src/tokens/ERC20.sol\":2308:2332  computeDomainSeparator() */\n  tag_8\n    /* \"CONTRACTS/solmate-main/src/tokens/ERC20.sol\":2308:2330  computeDomainSeparator */\n  shl(0x20, tag_9)\n    /* \"CONTRACTS/solmate-main/src/tokens/ERC20.sol\":2308:2332  computeDomainSeparator() */\n  0x20\n  shr\n  jump\t// in\ntag_8:\n    /* \"CONTRACTS/solmate-main/src/tokens/ERC20.sol\":2281:2332  INITIAL_DOMAIN_SEPARATOR = computeDomainSeparator() */\n  0xc0\n  dup2\n  dup2\n  mstore\n  pop\n  pop\n    /* \"CONTRACTS/solmate-main/src/tokens/ERC20.sol\":2047:2339  constructor(... */\n  pop\n  pop\n  pop\n    /* \"CONTRACTS/Token.sol\":134:325  contract ApeCoin is ERC20 {... */\n  jump(tag_11)\n    /* \"CONTRACTS/solmate-main/src/tokens/ERC20.sol\":5761:6207  function computeDomainSeparator() internal view virtual returns (bytes32) {... */\ntag_9:\n    /* \"CONTRACTS/solmate-main/src/tokens/ERC20.sol\":5826:5833  bytes32 */\n  0x00\n    /* \"CONTRACTS/solmate-main/src/tokens/ERC20.sol\":5923:6018  keccak256(\"EIP712Domain(string name,string version,uint256 chainId,address verifyingContract)\") */\n  0x8b73c3c69bb8fe3d512ecc4cf759cc79239f7b179b0ffacaa9a75d522b39400f\n    /* \"CONTRACTS/solmate-main/src/tokens/ERC20.sol\":6056:6060  name */\n  0x00\n    /* \"CONTRACTS/solmate-main/src/tokens/ERC20.sol\":6040:6062  keccak256(bytes(name)) */\n  mload(0x40)\n  tag_13\n  swap2\n  swap1\n  tag_14\n  jump\t// in\ntag_13:\n  mload(0x40)\n  dup1\n  swap2\n  sub\n  swap1\n  keccak256\n    /* \"CONTRACTS/solmate-main/src/tokens/ERC20.sol\":6084:6098  keccak256(\"1\") */\n  0xc89efdaa54c0f20c7adf612882df0950f5a951637e0307cdcb4c672f298b8bc6\n    /* \"CONTRACTS/solmate-main/src/tokens/ERC20.sol\":6120:6133  block.chainid */\n  chainid\n    /* \"CONTRACTS/solmate-main/src/tokens/ERC20.sol\":6163:6167  this */\n  address\n    /* \"CONTRACTS/solmate-main/src/tokens/ERC20.sol\":5891:6186  abi.encode(... */\n  add(0x20, mload(0x40))\n  tag_15\n  swap6\n  swap5\n  swap4\n  swap3\n  swap2\n  swap1\n  tag_16\n  jump\t// in\ntag_15:\n  mload(0x40)\n  0x20\n  dup2\n  dup4\n  sub\n  sub\n  dup2\n  mstore\n  swap1\n  0x40\n  mstore\n    /* \"CONTRACTS/solmate-main/src/tokens/ERC20.sol\":5864:6200  keccak256(... */\n  dup1\n  mload\n  swap1\n  0x20\n  add\n  keccak256\n    /* \"CONTRACTS/solmate-main/src/tokens/ERC20.sol\":5845:6200  return... */\n  swap1\n  pop\n    /* \"CONTRACTS/solmate-main/src/tokens/ERC20.sol\":5761:6207  function computeDomainSeparator() internal view virtual returns (bytes32) {... */\n  swap1\n  jump\t// out\n    /* \"#utility.yul\":7:106   */\ntag_17:\n    /* \"#utility.yul\":59:65   */\n  0x00\n    /* \"#utility.yul\":93:98   */\n  dup2\n    /* \"#utility.yul\":87:99   */\n  mload\n    /* \"#utility.yul\":77:99   */\n  swap1\n  pop\n    /* \"#utility.yul\":7:106   */\n  swap2\n  swap1\n  pop\n  jump\t// out\n    /* \"#utility.yul\":112:292   */\ntag_18:\n    /* \"#utility.yul\":160:237   */\n  0x4e487b7100000000000000000000000000000000000000000000000000000000\n    /* \"#utility.yul\":157:158   */\n  0x00\n    /* \"#utility.yul\":150:238   */\n  mstore\n    /* \"#utility.yul\":257:261   */\n  0x41\n    /* \"#utility.yul\":254:255   */\n  0x04\n    /* \"#utility.yul\":247:262   */\n  mstore\n    /* \"#utility.yul\":281:285   */\n  0x24\n    /* \"#utility.yul\":278:279   */\n  0x00\n    /* \"#utility.yul\":271:286   */\n  revert\n    /* \"#utility.yul\":298:478   */\ntag_19:\n    /* \"#utility.yul\":346:423   */\n  0x4e487b7100000000000000000000000000000000000000000000000000000000\n    /* \"#utility.yul\":343:344   */\n  0x00\n    /* \"#utility.yul\":336:424   */\n  mstore\n    /* \"#utility.yul\":443:447   */\n  0x22\n    /* \"#utility.yul\":440:441   */\n  0x04\n    /* \"#utility.yul\":433:448   */\n  mstore\n    /* \"#utility.yul\":467:471   */\n  0x24\n    /* \"#utility.yul\":464:465   */\n  0x00\n    /* \"#utility.yul\":457:472   */\n  revert\n    /* \"#utility.yul\":484:804   */\ntag_20:\n    /* \"#utility.yul\":528:534   */\n  0x00\n    /* \"#utility.yul\":565:566   */\n  0x02\n    /* \"#utility.yul\":559:563   */\n  dup3\n    /* \"#utility.yul\":555:567   */\n  div\n    /* \"#utility.yul\":545:567   */\n  swap1\n  pop\n    /* \"#utility.yul\":612:613   */\n  0x01\n    /* \"#utility.yul\":606:610   */\n  dup3\n    /* \"#utility.yul\":602:614   */\n  and\n    /* \"#utility.yul\":633:651   */\n  dup1\n    /* \"#utility.yul\":623:704   */\n  tag_51\n  jumpi\n    /* \"#utility.yul\":689:693   */\n  0x7f\n    /* \"#utility.yul\":681:687   */\n  dup3\n    /* \"#utility.yul\":677:694   */\n  and\n    /* \"#utility.yul\":667:694   */\n  swap2\n  pop\n    /* \"#utility.yul\":623:704   */\ntag_51:\n    /* \"#utility.yul\":751:753   */\n  0x20\n    /* \"#utility.yul\":743:749   */\n  dup3\n    /* \"#utility.yul\":740:754   */\n  lt\n    /* \"#utility.yul\":720:738   */\n  dup2\n    /* \"#utility.yul\":717:755   */\n  sub\n    /* \"#utility.yul\":714:798   */\n  tag_52\n  jumpi\n    /* \"#utility.yul\":770:788   */\n  tag_53\n  tag_19\n  jump\t// in\ntag_53:\n    /* \"#utility.yul\":714:798   */\ntag_52:\n    /* \"#utility.yul\":535:804   */\n  pop\n    /* \"#utility.yul\":484:804   */\n  swap2\n  swap1\n  pop\n  jump\t// out\n    /* \"#utility.yul\":810:951   */\ntag_21:\n    /* \"#utility.yul\":859:863   */\n  0x00\n    /* \"#utility.yul\":882:885   */\n  dup2\n    /* \"#utility.yul\":874:885   */\n  swap1\n  pop\n    /* \"#utility.yul\":905:908   */\n  dup2\n    /* \"#utility.yul\":902:903   */\n  0x00\n    /* \"#utility.yul\":895:909   */\n  mstore\n    /* \"#utility.yul\":939:943   */\n  0x20\n    /* \"#utility.yul\":936:937   */\n  0x00\n    /* \"#utility.yul\":926:944   */\n  keccak256\n    /* \"#utility.yul\":918:944   */\n  swap1\n  pop\n    /* \"#utility.yul\":810:951   */\n  swap2\n  swap1\n  pop\n  jump\t// out\n    /* \"#utility.yul\":957:1050   */\ntag_22:\n    /* \"#utility.yul\":994:1000   */\n  0x00\n    /* \"#utility.yul\":1041:1043   */\n  0x20\n    /* \"#utility.yul\":1036:1038   */\n  0x1f\n    /* \"#utility.yul\":1029:1034   */\n  dup4\n    /* \"#utility.yul\":1025:1039   */\n  add\n    /* \"#utility.yul\":1021:1044   */\n  div\n    /* \"#utility.yul\":1011:1044   */\n  swap1\n  pop\n    /* \"#utility.yul\":957:1050   */\n  swap2\n  swap1\n  pop\n  jump\t// out\n    /* \"#utility.yul\":1056:1163   */\ntag_23:\n    /* \"#utility.yul\":1100:1108   */\n  0x00\n    /* \"#utility.yul\":1150:1155   */\n  dup3\n    /* \"#utility.yul\":1144:1148   */\n  dup3\n    /* \"#utility.yul\":1140:1156   */\n  shl\n    /* \"#utility.yul\":1119:1156   */\n  swap1\n  pop\n    /* \"#utility.yul\":1056:1163   */\n  swap3\n  swap2\n  pop\n  pop\n  jump\t// out\n    /* \"#utility.yul\":1169:1562   */\ntag_24:\n    /* \"#utility.yul\":1238:1244   */\n  0x00\n    /* \"#utility.yul\":1288:1289   */\n  0x08\n    /* \"#utility.yul\":1276:1286   */\n  dup4\n    /* \"#utility.yul\":1272:1290   */\n  mul\n    /* \"#utility.yul\":1311:1408   */\n  tag_58\n    /* \"#utility.yul\":1341:1407   */\n  0xffffffffffffffffffffffffffffffffffffffffffffffffffffffffffffffff\n    /* \"#utility.yul\":1330:1339   */\n  dup3\n    /* \"#utility.yul\":1311:1408   */\n  tag_23\n  jump\t// in\ntag_58:\n    /* \"#utility.yul\":1429:1468   */\n  tag_59\n    /* \"#utility.yul\":1459:1467   */\n  dup7\n    /* \"#utility.yul\":1448:1457   */\n  dup4\n    /* \"#utility.yul\":1429:1468   */\n  tag_23\n  jump\t// in\ntag_59:\n    /* \"#utility.yul\":1417:1468   */\n  swap6\n  pop\n    /* \"#utility.yul\":1501:1505   */\n  dup1\n    /* \"#utility.yul\":1497:1506   */\n  not\n    /* \"#utility.yul\":1490:1495   */\n  dup5\n    /* \"#utility.yul\":1486:1507   */\n  and\n    /* \"#utility.yul\":1477:1507   */\n  swap4\n  pop\n    /* \"#utility.yul\":1550:1554   */\n  dup1\n    /* \"#utility.yul\":1540:1548   */\n  dup7\n    /* \"#utility.yul\":1536:1555   */\n  and\n    /* \"#utility.yul\":1529:1534   */\n  dup5\n    /* \"#utility.yul\":1526:1556   */\n  or\n    /* \"#utility.yul\":1516:1556   */\n  swap3\n  pop\n    /* \"#utility.yul\":1245:1562   */\n  pop\n  pop\n    /* \"#utility.yul\":1169:1562   */\n  swap4\n  swap3\n  pop\n  pop\n  pop\n  jump\t// out\n    /* \"#utility.yul\":1568:1645   */\ntag_25:\n    /* \"#utility.yul\":1605:1612   */\n  0x00\n    /* \"#utility.yul\":1634:1639   */\n  dup2\n    /* \"#utility.yul\":1623:1639   */\n  swap1\n  pop\n    /* \"#utility.yul\":1568:1645   */\n  swap2\n  swap1\n  pop\n  jump\t// out\n    /* \"#utility.yul\":1651:1711   */\ntag_26:\n    /* \"#utility.yul\":1679:1682   */\n  0x00\n    /* \"#utility.yul\":1700:1705   */\n  dup2\n    /* \"#utility.yul\":1693:1705   */\n  swap1\n  pop\n    /* \"#utility.yul\":1651:1711   */\n  swap2\n  swap1\n  pop\n  jump\t// out\n    /* \"#utility.yul\":1717:1859   */\ntag_27:\n    /* \"#utility.yul\":1767:1776   */\n  0x00\n    /* \"#utility.yul\":1800:1853   */\n  tag_63\n    /* \"#utility.yul\":1818:1852   */\n  tag_64\n    /* \"#utility.yul\":1827:1851   */\n  tag_65\n    /* \"#utility.yul\":1845:1850   */\n  dup5\n    /* \"#utility.yul\":1827:1851   */\n  tag_25\n  jump\t// in\ntag_65:\n    /* \"#utility.yul\":1818:1852   */\n  tag_26\n  jump\t// in\ntag_64:\n    /* \"#utility.yul\":1800:1853   */\n  tag_25\n  jump\t// in\ntag_63:\n    /* \"#utility.yul\":1787:1853   */\n  swap1\n  pop\n    /* \"#utility.yul\":1717:1859   */\n  swap2\n  swap1\n  pop\n  jump\t// out\n    /* \"#utility.yul\":1865:1940   */\ntag_28:\n    /* \"#utility.yul\":1908:1911   */\n  0x00\n    /* \"#utility.yul\":1929:1934   */\n  dup2\n    /* \"#utility.yul\":1922:1934   */\n  swap1\n  pop\n    /* \"#utility.yul\":1865:1940   */\n  swap2\n  swap1\n  pop\n  jump\t// out\n    /* \"#utility.yul\":1946:2215   */\ntag_29:\n    /* \"#utility.yul\":2056:2095   */\n  tag_68\n    /* \"#utility.yul\":2087:2094   */\n  dup4\n    /* \"#utility.yul\":2056:2095   */\n  tag_27\n  jump\t// in\ntag_68:\n    /* \"#utility.yul\":2117:2208   */\n  tag_69\n    /* \"#utility.yul\":2166:2207   */\n  tag_70\n    /* \"#utility.yul\":2190:2206   */\n  dup3\n    /* \"#utility.yul\":2166:2207   */\n  tag_28\n  jump\t// in\ntag_70:\n    /* \"#utility.yul\":2158:2164   */\n  dup5\n    /* \"#utility.yul\":2151:2155   */\n  dup5\n    /* \"#utility.yul\":2145:2156   */\n  sload\n    /* \"#utility.yul\":2117:2208   */\n  tag_24\n  jump\t// in\ntag_69:\n    /* \"#utility.yul\":2111:2115   */\n  dup3\n    /* \"#utility.yul\":2104:2209   */\n  sstore\n    /* \"#utility.yul\":2022:2215   */\n  pop\n    /* \"#utility.yul\":1946:2215   */\n  pop\n  pop\n  pop\n  jump\t// out\n    /* \"#utility.yul\":2221:2294   */\ntag_30:\n    /* \"#utility.yul\":2266:2269   */\n  0x00\n    /* \"#utility.yul\":2221:2294   */\n  swap1\n  jump\t// out\n    /* \"#utility.yul\":2300:2489   */\ntag_31:\n    /* \"#utility.yul\":2377:2409   */\n  tag_73\n  tag_30\n  jump\t// in\ntag_73:\n    /* \"#utility.yul\":2418:2483   */\n  tag_74\n    /* \"#utility.yul\":2476:2482   */\n  dup2\n    /* \"#utility.yul\":2468:2474   */\n  dup5\n    /* \"#utility.yul\":2462:2466   */\n  dup5\n    /* \"#utility.yul\":2418:2483   */\n  tag_29\n  jump\t// in\ntag_74:\n    /* \"#utility.yul\":2353:2489   */\n  pop\n    /* \"#utility.yul\":2300:2489   */\n  pop\n  pop\n  jump\t// out\n    /* \"#utility.yul\":2495:2681   */\ntag_32:\n    /* \"#utility.yul\":2555:2675   */\ntag_76:\n    /* \"#utility.yul\":2572:2575   */\n  dup2\n    /* \"#utility.yul\":2565:2570   */\n  dup2\n    /* \"#utility.yul\":2562:2576   */\n  lt\n    /* \"#utility.yul\":2555:2675   */\n  iszero\n  tag_78\n  jumpi\n    /* \"#utility.yul\":2626:2665   */\n  tag_79\n    /* \"#utility.yul\":2663:2664   */\n  0x00\n    /* \"#utility.yul\":2656:2661   */\n  dup3\n    /* \"#utility.yul\":2626:2665   */\n  tag_31\n  jump\t// in\ntag_79:\n    /* \"#utility.yul\":2599:2600   */\n  0x01\n    /* \"#utility.yul\":2592:2597   */\n  dup2\n    /* \"#utility.yul\":2588:2601   */\n  add\n    /* \"#utility.yul\":2579:2601   */\n  swap1\n  pop\n    /* \"#utility.yul\":2555:2675   */\n  jump(tag_76)\ntag_78:\n    /* \"#utility.yul\":2495:2681   */\n  pop\n  pop\n  jump\t// out\n    /* \"#utility.yul\":2687:3230   */\ntag_33:\n    /* \"#utility.yul\":2788:2790   */\n  0x1f\n    /* \"#utility.yul\":2783:2786   */\n  dup3\n    /* \"#utility.yul\":2780:2791   */\n  gt\n    /* \"#utility.yul\":2777:3223   */\n  iszero\n  tag_81\n  jumpi\n    /* \"#utility.yul\":2822:2860   */\n  tag_82\n    /* \"#utility.yul\":2854:2859   */\n  dup2\n    /* \"#utility.yul\":2822:2860   */\n  tag_21\n  jump\t// in\ntag_82:\n    /* \"#utility.yul\":2906:2935   */\n  tag_83\n    /* \"#utility.yul\":2924:2934   */\n  dup5\n    /* \"#utility.yul\":2906:2935   */\n  tag_22\n  jump\t// in\ntag_83:\n    /* \"#utility.yul\":2896:2904   */\n  dup2\n    /* \"#utility.yul\":2892:2936   */\n  add\n    /* \"#utility.yul\":3089:3091   */\n  0x20\n    /* \"#utility.yul\":3077:3087   */\n  dup6\n    /* \"#utility.yul\":3074:3092   */\n  lt\n    /* \"#utility.yul\":3071:3120   */\n  iszero\n  tag_84\n  jumpi\n    /* \"#utility.yul\":3110:3118   */\n  dup2\n    /* \"#utility.yul\":3095:3118   */\n  swap1\n  pop\n    /* \"#utility.yul\":3071:3120   */\ntag_84:\n    /* \"#utility.yul\":3133:3213   */\n  tag_85\n    /* \"#utility.yul\":3189:3211   */\n  tag_86\n    /* \"#utility.yul\":3207:3210   */\n  dup6\n    /* \"#utility.yul\":3189:3211   */\n  tag_22\n  jump\t// in\ntag_86:\n    /* \"#utility.yul\":3179:3187   */\n  dup4\n    /* \"#utility.yul\":3175:3212   */\n  add\n    /* \"#utility.yul\":3162:3173   */\n  dup3\n    /* \"#utility.yul\":3133:3213   */\n  tag_32\n  jump\t// in\ntag_85:\n    /* \"#utility.yul\":2792:3223   */\n  pop\n  pop\n    /* \"#utility.yul\":2777:3223   */\ntag_81:\n    /* \"#utility.yul\":2687:3230   */\n  pop\n  pop\n  pop\n  jump\t// out\n    /* \"#utility.yul\":3236:3353   */\ntag_34:\n    /* \"#utility.yul\":3290:3298   */\n  0x00\n    /* \"#utility.yul\":3340:3345   */\n  dup3\n    /* \"#utility.yul\":3334:3338   */\n  dup3\n    /* \"#utility.yul\":3330:3346   */\n  shr\n    /* \"#utility.yul\":3309:3346   */\n  swap1\n  pop\n    /* \"#utility.yul\":3236:3353   */\n  swap3\n  swap2\n  pop\n  pop\n  jump\t// out\n    /* \"#utility.yul\":3359:3528   */\ntag_35:\n    /* \"#utility.yul\":3403:3409   */\n  0x00\n    /* \"#utility.yul\":3436:3487   */\n  tag_89\n    /* \"#utility.yul\":3484:3485   */\n  0x00\n    /* \"#utility.yul\":3480:3486   */\n  not\n    /* \"#utility.yul\":3472:3477   */\n  dup5\n    /* \"#utility.yul\":3469:3470   */\n  0x08\n    /* \"#utility.yul\":3465:3478   */\n  mul\n    /* \"#utility.yul\":3436:3487   */\n  tag_34\n  jump\t// in\ntag_89:\n    /* \"#utility.yul\":3432:3488   */\n  not\n    /* \"#utility.yul\":3517:3521   */\n  dup1\n    /* \"#utility.yul\":3511:3515   */\n  dup4\n    /* \"#utility.yul\":3507:3522   */\n  and\n    /* \"#utility.yul\":3497:3522   */\n  swap2\n  pop\n    /* \"#utility.yul\":3410:3528   */\n  pop\n    /* \"#utility.yul\":3359:3528   */\n  swap3\n  swap2\n  pop\n  pop\n  jump\t// out\n    /* \"#utility.yul\":3533:3828   */\ntag_36:\n    /* \"#utility.yul\":3609:3613   */\n  0x00\n    /* \"#utility.yul\":3755:3784   */\n  tag_91\n    /* \"#utility.yul\":3780:3783   */\n  dup4\n    /* \"#utility.yul\":3774:3778   */\n  dup4\n    /* \"#utility.yul\":3755:3784   */\n  tag_35\n  jump\t// in\ntag_91:\n    /* \"#utility.yul\":3747:3784   */\n  swap2\n  pop\n    /* \"#utility.yul\":3817:3820   */\n  dup3\n    /* \"#utility.yul\":3814:3815   */\n  0x02\n    /* \"#utility.yul\":3810:3821   */\n  mul\n    /* \"#utility.yul\":3804:3808   */\n  dup3\n    /* \"#utility.yul\":3801:3822   */\n  or\n    /* \"#utility.yul\":3793:3822   */\n  swap1\n  pop\n    /* \"#utility.yul\":3533:3828   */\n  swap3\n  swap2\n  pop\n  pop\n  jump\t// out\n    /* \"#utility.yul\":3833:5228   */\ntag_6:\n    /* \"#utility.yul\":3950:3987   */\n  tag_93\n    /* \"#utility.yul\":3983:3986   */\n  dup3\n    /* \"#utility.yul\":3950:3987   */\n  tag_17\n  jump\t// in\ntag_93:\n    /* \"#utility.yul\":4052:4070   */\n  0xffffffffffffffff\n    /* \"#utility.yul\":4044:4050   */\n  dup2\n    /* \"#utility.yul\":4041:4071   */\n  gt\n    /* \"#utility.yul\":4038:4094   */\n  iszero\n  tag_94\n  jumpi\n    /* \"#utility.yul\":4074:4092   */\n  tag_95\n  tag_18\n  jump\t// in\ntag_95:\n    /* \"#utility.yul\":4038:4094   */\ntag_94:\n    /* \"#utility.yul\":4118:4156   */\n  tag_96\n    /* \"#utility.yul\":4150:4154   */\n  dup3\n    /* \"#utility.yul\":4144:4155   */\n  sload\n    /* \"#utility.yul\":4118:4156   */\n  tag_20\n  jump\t// in\ntag_96:\n    /* \"#utility.yul\":4203:4270   */\n  tag_97\n    /* \"#utility.yul\":4263:4269   */\n  dup3\n    /* \"#utility.yul\":4255:4261   */\n  dup3\n    /* \"#utility.yul\":4249:4253   */\n  dup6\n    /* \"#utility.yul\":4203:4270   */\n  tag_33\n  jump\t// in\ntag_97:\n    /* \"#utility.yul\":4297:4298   */\n  0x00\n    /* \"#utility.yul\":4321:4325   */\n  0x20\n    /* \"#utility.yul\":4308:4325   */\n  swap1\n  pop\n    /* \"#utility.yul\":4353:4355   */\n  0x1f\n    /* \"#utility.yul\":4345:4351   */\n  dup4\n    /* \"#utility.yul\":4342:4356   */\n  gt\n    /* \"#utility.yul\":4370:4371   */\n  0x01\n    /* \"#utility.yul\":4365:4983   */\n  dup2\n  eq\n  tag_99\n  jumpi\n    /* \"#utility.yul\":5027:5028   */\n  0x00\n    /* \"#utility.yul\":5044:5050   */\n  dup5\n    /* \"#utility.yul\":5041:5118   */\n  iszero\n  tag_100\n  jumpi\n    /* \"#utility.yul\":5093:5102   */\n  dup3\n    /* \"#utility.yul\":5088:5091   */\n  dup8\n    /* \"#utility.yul\":5084:5103   */\n  add\n    /* \"#utility.yul\":5078:5104   */\n  mload\n    /* \"#utility.yul\":5069:5104   */\n  swap1\n  pop\n    /* \"#utility.yul\":5041:5118   */\ntag_100:\n    /* \"#utility.yul\":5144:5211   */\n  tag_101\n    /* \"#utility.yul\":5204:5210   */\n  dup6\n    /* \"#utility.yul\":5197:5202   */\n  dup3\n    /* \"#utility.yul\":5144:5211   */\n  tag_36\n  jump\t// in\ntag_101:\n    /* \"#utility.yul\":5138:5142   */\n  dup7\n    /* \"#utility.yul\":5131:5212   */\n  sstore\n    /* \"#utility.yul\":5000:5222   */\n  pop\n    /* \"#utility.yul\":4335:5222   */\n  jump(tag_98)\n    /* \"#utility.yul\":4365:4983   */\ntag_99:\n    /* \"#utility.yul\":4417:4421   */\n  0x1f\n    /* \"#utility.yul\":4413:4422   */\n  not\n    /* \"#utility.yul\":4405:4411   */\n  dup5\n    /* \"#utility.yul\":4401:4423   */\n  and\n    /* \"#utility.yul\":4451:4488   */\n  tag_102\n    /* \"#utility.yul\":4483:4487   */\n  dup7\n    /* \"#utility.yul\":4451:4488   */\n  tag_21\n  jump\t// in\ntag_102:\n    /* \"#utility.yul\":4510:4511   */\n  0x00\n    /* \"#utility.yul\":4524:4732   */\ntag_103:\n    /* \"#utility.yul\":4538:4545   */\n  dup3\n    /* \"#utility.yul\":4535:4536   */\n  dup2\n    /* \"#utility.yul\":4532:4546   */\n  lt\n    /* \"#utility.yul\":4524:4732   */\n  iszero\n  tag_105\n  jumpi\n    /* \"#utility.yul\":4617:4626   */\n  dup5\n    /* \"#utility.yul\":4612:4615   */\n  dup10\n    /* \"#utility.yul\":4608:4627   */\n  add\n    /* \"#utility.yul\":4602:4628   */\n  mload\n    /* \"#utility.yul\":4594:4600   */\n  dup3\n    /* \"#utility.yul\":4587:4629   */\n  sstore\n    /* \"#utility.yul\":4668:4669   */\n  0x01\n    /* \"#utility.yul\":4660:4666   */\n  dup3\n    /* \"#utility.yul\":4656:4670   */\n  add\n    /* \"#utility.yul\":4646:4670   */\n  swap2\n  pop\n    /* \"#utility.yul\":4715:4717   */\n  0x20\n    /* \"#utility.yul\":4704:4713   */\n  dup6\n    /* \"#utility.yul\":4700:4718   */\n  add\n    /* \"#utility.yul\":4687:4718   */\n  swap5\n  pop\n    /* \"#utility.yul\":4561:4565   */\n  0x20\n    /* \"#utility.yul\":4558:4559   */\n  dup2\n    /* \"#utility.yul\":4554:4566   */\n  add\n    /* \"#utility.yul\":4549:4566   */\n  swap1\n  pop\n    /* \"#utility.yul\":4524:4732   */\n  jump(tag_103)\ntag_105:\n    /* \"#utility.yul\":4760:4766   */\n  dup7\n    /* \"#utility.yul\":4751:4758   */\n  dup4\n    /* \"#utility.yul\":4748:4767   */\n  lt\n    /* \"#utility.yul\":4745:4924   */\n  iszero\n  tag_106\n  jumpi\n    /* \"#utility.yul\":4818:4827   */\n  dup5\n    /* \"#utility.yul\":4813:4816   */\n  dup10\n    /* \"#utility.yul\":4809:4828   */\n  add\n    /* \"#utility.yul\":4803:4829   */\n  mload\n    /* \"#utility.yul\":4861:4909   */\n  tag_107\n    /* \"#utility.yul\":4903:4907   */\n  0x1f\n    /* \"#utility.yul\":4895:4901   */\n  dup10\n    /* \"#utility.yul\":4891:4908   */\n  and\n    /* \"#utility.yul\":4880:4889   */\n  dup3\n    /* \"#utility.yul\":4861:4909   */\n  tag_35\n  jump\t// in\ntag_107:\n    /* \"#utility.yul\":4853:4859   */\n  dup4\n    /* \"#utility.yul\":4846:4910   */\n  sstore\n    /* \"#utility.yul\":4768:4924   */\n  pop\n    /* \"#utility.yul\":4745:4924   */\ntag_106:\n    /* \"#utility.yul\":4970:4971   */\n  0x01\n    /* \"#utility.yul\":4966:4967   */\n  0x02\n    /* \"#utility.yul\":4958:4964   */\n  dup9\n    /* \"#utility.yul\":4954:4968   */\n  mul\n    /* \"#utility.yul\":4950:4972   */\n  add\n    /* \"#utility.yul\":4944:4948   */\n  dup9\n    /* \"#utility.yul\":4937:4973   */\n  sstore\n    /* \"#utility.yul\":4372:4983   */\n  pop\n  pop\n  pop\n    /* \"#utility.yul\":4335:5222   */\ntag_98:\n  pop\n    /* \"#utility.yul\":3925:5228   */\n  pop\n  pop\n  pop\n    /* \"#utility.yul\":3833:5228   */\n  pop\n  pop\n  jump\t// out\n    /* \"#utility.yul\":5234:5381   */\ntag_37:\n    /* \"#utility.yul\":5335:5346   */\n  0x00\n    /* \"#utility.yul\":5372:5375   */\n  dup2\n    /* \"#utility.yul\":5357:5375   */\n  swap1\n  pop\n    /* \"#utility.yul\":5234:5381   */\n  swap3\n  swap2\n  pop\n  pop\n  jump\t// out\n    /* \"#utility.yul\":5387:5531   */\ntag_38:\n    /* \"#utility.yul\":5439:5443   */\n  0x00\n    /* \"#utility.yul\":5462:5465   */\n  dup2\n    /* \"#utility.yul\":5454:5465   */\n  swap1\n  pop\n    /* \"#utility.yul\":5485:5488   */\n  dup2\n    /* \"#utility.yul\":5482:5483   */\n  0x00\n    /* \"#utility.yul\":5475:5489   */\n  mstore\n    /* \"#utility.yul\":5519:5523   */\n  0x20\n    /* \"#utility.yul\":5516:5517   */\n  0x00\n    /* \"#utility.yul\":5506:5524   */\n  keccak256\n    /* \"#utility.yul\":5498:5524   */\n  swap1\n  pop\n    /* \"#utility.yul\":5387:5531   */\n  swap2\n  swap1\n  pop\n  jump\t// out\n    /* \"#utility.yul\":5559:6437   */\ntag_39:\n    /* \"#utility.yul\":5664:5667   */\n  0x00\n    /* \"#utility.yul\":5701:5706   */\n  dup2\n    /* \"#utility.yul\":5695:5707   */\n  sload\n    /* \"#utility.yul\":5730:5766   */\n  tag_111\n    /* \"#utility.yul\":5756:5765   */\n  dup2\n    /* \"#utility.yul\":5730:5766   */\n  tag_20\n  jump\t// in\ntag_111:\n    /* \"#utility.yul\":5782:5870   */\n  tag_112\n    /* \"#utility.yul\":5863:5869   */\n  dup2\n    /* \"#utility.yul\":5858:5861   */\n  dup7\n    /* \"#utility.yul\":5782:5870   */\n  tag_37\n  jump\t// in\ntag_112:\n    /* \"#utility.yul\":5775:5870   */\n  swap5\n  pop\n    /* \"#utility.yul\":5901:5902   */\n  0x01\n    /* \"#utility.yul\":5890:5899   */\n  dup3\n    /* \"#utility.yul\":5886:5903   */\n  and\n    /* \"#utility.yul\":5917:5918   */\n  0x00\n    /* \"#utility.yul\":5912:6078   */\n  dup2\n  eq\n  tag_114\n  jumpi\n    /* \"#utility.yul\":6092:6093   */\n  0x01\n    /* \"#utility.yul\":6087:6431   */\n  dup2\n  eq\n  tag_115\n  jumpi\n    /* \"#utility.yul\":5879:6431   */\n  jump(tag_113)\n    /* \"#utility.yul\":5912:6078   */\ntag_114:\n    /* \"#utility.yul\":5996:6000   */\n  0xff\n    /* \"#utility.yul\":5992:6001   */\n  not\n    /* \"#utility.yul\":5981:5990   */\n  dup4\n    /* \"#utility.yul\":5977:6002   */\n  and\n    /* \"#utility.yul\":5972:5975   */\n  dup7\n    /* \"#utility.yul\":5965:6003   */\n  mstore\n    /* \"#utility.yul\":6058:6064   */\n  dup2\n    /* \"#utility.yul\":6051:6065   */\n  iszero\n    /* \"#utility.yul\":6044:6066   */\n  iszero\n    /* \"#utility.yul\":6036:6042   */\n  dup3\n    /* \"#utility.yul\":6032:6067   */\n  mul\n    /* \"#utility.yul\":6027:6030   */\n  dup7\n    /* \"#utility.yul\":6023:6068   */\n  add\n    /* \"#utility.yul\":6016:6068   */\n  swap4\n  pop\n    /* \"#utility.yul\":5912:6078   */\n  jump(tag_113)\n    /* \"#utility.yul\":6087:6431   */\ntag_115:\n    /* \"#utility.yul\":6154:6195   */\n  tag_116\n    /* \"#utility.yul\":6189:6194   */\n  dup6\n    /* \"#utility.yul\":6154:6195   */\n  tag_38\n  jump\t// in\ntag_116:\n    /* \"#utility.yul\":6217:6218   */\n  0x00\n    /* \"#utility.yul\":6231:6385   */\ntag_117:\n    /* \"#utility.yul\":6245:6251   */\n  dup4\n    /* \"#utility.yul\":6242:6243   */\n  dup2\n    /* \"#utility.yul\":6239:6252   */\n  lt\n    /* \"#utility.yul\":6231:6385   */\n  iszero\n  tag_119\n  jumpi\n    /* \"#utility.yul\":6319:6326   */\n  dup2\n    /* \"#utility.yul\":6313:6327   */\n  sload\n    /* \"#utility.yul\":6309:6310   */\n  dup2\n    /* \"#utility.yul\":6304:6307   */\n  dup10\n    /* \"#utility.yul\":6300:6311   */\n  add\n    /* \"#utility.yul\":6293:6328   */\n  mstore\n    /* \"#utility.yul\":6369:6370   */\n  0x01\n    /* \"#utility.yul\":6360:6367   */\n  dup3\n    /* \"#utility.yul\":6356:6371   */\n  add\n    /* \"#utility.yul\":6345:6371   */\n  swap2\n  pop\n    /* \"#utility.yul\":6267:6271   */\n  0x20\n    /* \"#utility.yul\":6264:6265   */\n  dup2\n    /* \"#utility.yul\":6260:6272   */\n  add\n    /* \"#utility.yul\":6255:6272   */\n  swap1\n  pop\n    /* \"#utility.yul\":6231:6385   */\n  jump(tag_117)\ntag_119:\n    /* \"#utility.yul\":6414:6420   */\n  dup4\n    /* \"#utility.yul\":6409:6412   */\n  dup9\n    /* \"#utility.yul\":6405:6421   */\n  add\n    /* \"#utility.yul\":6398:6421   */\n  swap6\n  pop\n    /* \"#utility.yul\":6094:6431   */\n  pop\n  pop\n    /* \"#utility.yul\":5879:6431   */\ntag_113:\n  pop\n    /* \"#utility.yul\":5668:6437   */\n  pop\n  pop\n    /* \"#utility.yul\":5559:6437   */\n  swap3\n  swap2\n  pop\n  pop\n  jump\t// out\n    /* \"#utility.yul\":6443:6716   */\ntag_14:\n    /* \"#utility.yul\":6574:6577   */\n  0x00\n    /* \"#utility.yul\":6596:6690   */\n  tag_121\n    /* \"#utility.yul\":6686:6689   */\n  dup3\n    /* \"#utility.yul\":6677:6683   */\n  dup5\n    /* \"#utility.yul\":6596:6690   */\n  tag_39\n  jump\t// in\ntag_121:\n    /* \"#utility.yul\":6589:6690   */\n  swap2\n  pop\n    /* \"#utility.yul\":6707:6710   */\n  dup2\n    /* \"#utility.yul\":6700:6710   */\n  swap1\n  pop\n    /* \"#utility.yul\":6443:6716   */\n  swap3\n  swap2\n  pop\n  pop\n  jump\t// out\n    /* \"#utility.yul\":6722:6799   */\ntag_40:\n    /* \"#utility.yul\":6759:6766   */\n  0x00\n    /* \"#utility.yul\":6788:6793   */\n  dup2\n    /* \"#utility.yul\":6777:6793   */\n  swap1\n  pop\n    /* \"#utility.yul\":6722:6799   */\n  swap2\n  swap1\n  pop\n  jump\t// out\n    /* \"#utility.yul\":6805:6923   */\ntag_41:\n    /* \"#utility.yul\":6892:6916   */\n  tag_124\n    /* \"#utility.yul\":6910:6915   */\n  dup2\n    /* \"#utility.yul\":6892:6916   */\n  tag_40\n  jump\t// in\ntag_124:\n    /* \"#utility.yul\":6887:6890   */\n  dup3\n    /* \"#utility.yul\":6880:6917   */\n  mstore\n    /* \"#utility.yul\":6805:6923   */\n  pop\n  pop\n  jump\t// out\n    /* \"#utility.yul\":6929:7047   */\ntag_42:\n    /* \"#utility.yul\":7016:7040   */\n  tag_126\n    /* \"#utility.yul\":7034:7039   */\n  dup2\n    /* \"#utility.yul\":7016:7040   */\n  tag_25\n  jump\t// in\ntag_126:\n    /* \"#utility.yul\":7011:7014   */\n  dup3\n    /* \"#utility.yul\":7004:7041   */\n  mstore\n    /* \"#utility.yul\":6929:7047   */\n  pop\n  pop\n  jump\t// out\n    /* \"#utility.yul\":7053:7179   */\ntag_43:\n    /* \"#utility.yul\":7090:7097   */\n  0x00\n    /* \"#utility.yul\":7130:7172   */\n  0xffffffffffffffffffffffffffffffffffffffff\n    /* \"#utility.yul\":7123:7128   */\n  dup3\n    /* \"#utility.yul\":7119:7173   */\n  and\n    /* \"#utility.yul\":7108:7173   */\n  swap1\n  pop\n    /* \"#utility.yul\":7053:7179   */\n  swap2\n  swap1\n  pop\n  jump\t// out\n    /* \"#utility.yul\":7185:7281   */\ntag_44:\n    /* \"#utility.yul\":7222:7229   */\n  0x00\n    /* \"#utility.yul\":7251:7275   */\n  tag_129\n    /* \"#utility.yul\":7269:7274   */\n  dup3\n    /* \"#utility.yul\":7251:7275   */\n  tag_43\n  jump\t// in\ntag_129:\n    /* \"#utility.yul\":7240:7275   */\n  swap1\n  pop\n    /* \"#utility.yul\":7185:7281   */\n  swap2\n  swap1\n  pop\n  jump\t// out\n    /* \"#utility.yul\":7287:7405   */\ntag_45:\n    /* \"#utility.yul\":7374:7398   */\n  tag_131\n    /* \"#utility.yul\":7392:7397   */\n  dup2\n    /* \"#utility.yul\":7374:7398   */\n  tag_44\n  jump\t// in\ntag_131:\n    /* \"#utility.yul\":7369:7372   */\n  dup3\n    /* \"#utility.yul\":7362:7399   */\n  mstore\n    /* \"#utility.yul\":7287:7405   */\n  pop\n  pop\n  jump\t// out\n    /* \"#utility.yul\":7411:8075   */\ntag_16:\n    /* \"#utility.yul\":7616:7620   */\n  0x00\n    /* \"#utility.yul\":7654:7657   */\n  0xa0\n    /* \"#utility.yul\":7643:7652   */\n  dup3\n    /* \"#utility.yul\":7639:7658   */\n  add\n    /* \"#utility.yul\":7631:7658   */\n  swap1\n  pop\n    /* \"#utility.yul\":7668:7739   */\n  tag_133\n    /* \"#utility.yul\":7736:7737   */\n  0x00\n    /* \"#utility.yul\":7725:7734   */\n  dup4\n    /* \"#utility.yul\":7721:7738   */\n  add\n    /* \"#utility.yul\":7712:7718   */\n  dup9\n    /* \"#utility.yul\":7668:7739   */\n  tag_41\n  jump\t// in\ntag_133:\n    /* \"#utility.yul\":7749:7821   */\n  tag_134\n    /* \"#utility.yul\":7817:7819   */\n  0x20\n    /* \"#utility.yul\":7806:7815   */\n  dup4\n    /* \"#utility.yul\":7802:7820   */\n  add\n    /* \"#utility.yul\":7793:7799   */\n  dup8\n    /* \"#utility.yul\":7749:7821   */\n  tag_41\n  jump\t// in\ntag_134:\n    /* \"#utility.yul\":7831:7903   */\n  tag_135\n    /* \"#utility.yul\":7899:7901   */\n  0x40\n    /* \"#utility.yul\":7888:7897   */\n  dup4\n    /* \"#utility.yul\":7884:7902   */\n  add\n    /* \"#utility.yul\":7875:7881   */\n  dup7\n    /* \"#utility.yul\":7831:7903   */\n  tag_41\n  jump\t// in\ntag_135:\n    /* \"#utility.yul\":7913:7985   */\n  tag_136\n    /* \"#utility.yul\":7981:7983   */\n  0x60\n    /* \"#utility.yul\":7970:7979   */\n  dup4\n    /* \"#utility.yul\":7966:7984   */\n  add\n    /* \"#utility.yul\":7957:7963   */\n  dup6\n    /* \"#utility.yul\":7913:7985   */\n  tag_42\n  jump\t// in\ntag_136:\n    /* \"#utility.yul\":7995:8068   */\n  tag_137\n    /* \"#utility.yul\":8063:8066   */\n  0x80\n    /* \"#utility.yul\":8052:8061   */\n  dup4\n    /* \"#utility.yul\":8048:8067   */\n  add\n    /* \"#utility.yul\":8039:8045   */\n  dup5\n    /* \"#utility.yul\":7995:8068   */\n  tag_45\n  jump\t// in\ntag_137:\n    /* \"#utility.yul\":7411:8075   */\n  swap7\n  swap6\n  pop\n  pop\n  pop\n  pop\n  pop\n  pop\n  jump\t// out\n    /* \"CONTRACTS/Token.sol\":134:325  contract ApeCoin is ERC20 {... */\ntag_11:\n  mload(0x80)\n  mload(0xa0)\n  mload(0xc0)\n  codecopy(0x00, dataOffset(sub_0), dataSize(sub_0))\n  0x00\n  assignImmutable(\"0xcc143a676b82d5e07b2c9d57717b403ab3c58caa273a42cdb95b15980141a86c\")\n  0x00\n  assignImmutable(\"0x35bb2e240092263378f77ea1e9c278099a33b604c4c4e26d13ea227e8bb74470\")\n  0x00\n  assignImmutable(\"0xcd41b8bf8f20f7ad95d96d948a315af225b219053fc98a80aee13063b692b681\")\n  return(0x00, dataSize(sub_0))\nstop\n\nsub_0: assembly {\n        /* \"CONTRACTS/Token.sol\":134:325  contract ApeCoin is ERC20 {... */\n      mstore(0x40, 0x80)\n      callvalue\n      dup1\n      iszero\n      tag_1\n      jumpi\n      0x00\n      dup1\n      revert\n    tag_1:\n      pop\n      jumpi(tag_2, lt(calldatasize, 0x04))\n      shr(0xe0, calldataload(0x00))\n      dup1\n      0x40c10f19\n      gt\n      tag_17\n      jumpi\n      dup1\n      0x95d89b41\n      gt\n      tag_18\n      jumpi\n      dup1\n      0x95d89b41\n      eq\n      tag_13\n      jumpi\n      dup1\n      0xa9059cbb\n      eq\n      tag_14\n      jumpi\n      dup1\n      0xd505accf\n      eq\n      tag_15\n      jumpi\n      dup1\n      0xdd62ed3e\n      eq\n      tag_16\n      jumpi\n      jump(tag_2)\n    tag_18:\n      dup1\n      0x40c10f19\n      eq\n      tag_10\n      jumpi\n      dup1\n      0x70a08231\n      eq\n      tag_11\n      jumpi\n      dup1\n      0x7ecebe00\n      eq\n      tag_12\n      jumpi\n      jump(tag_2)\n    tag_17:\n      dup1\n      0x1ac3d581\n      gt\n      tag_19\n      jumpi\n      dup1\n      0x1ac3d581\n      eq\n      tag_6\n      jumpi\n      dup1\n      0x23b872dd\n      eq\n      tag_7\n      jumpi\n      dup1\n      0x313ce567\n      eq\n      tag_8\n      jumpi\n      dup1\n      0x3644e515\n      eq\n      tag_9\n      jumpi\n      jump(tag_2)\n    tag_19:\n      dup1\n      0x06fdde03\n      eq\n      tag_3\n      jumpi\n      dup1\n      0x095ea7b3\n      eq\n      tag_4\n      jumpi\n      dup1\n      0x18160ddd\n      eq\n      tag_5\n      jumpi\n    tag_2:\n      0x00\n      dup1\n      revert\n        /* \"CONTRACTS/solmate-main/src/tokens/ERC20.sol\":1031:1049  string public name */\n    tag_3:\n      tag_20\n      tag_21\n      jump\t// in\n    tag_20:\n      mload(0x40)\n      tag_22\n      swap2\n      swap1\n      tag_23\n      jump\t// in\n    tag_22:\n      mload(0x40)\n      dup1\n      swap2\n      sub\n      swap1\n      return\n        /* \"CONTRACTS/solmate-main/src/tokens/ERC20.sol\":2527:2738  function approve(address spender, uint256 amount) public virtual returns (bool) {... */\n    tag_4:\n      tag_24\n      0x04\n      dup1\n      calldatasize\n      sub\n      dup2\n      add\n      swap1\n      tag_25\n      swap2\n      swap1\n      tag_26\n      jump\t// in\n    tag_25:\n      tag_27\n      jump\t// in\n    tag_24:\n      mload(0x40)\n      tag_28\n      swap2\n      swap1\n      tag_29\n      jump\t// in\n    tag_28:\n      mload(0x40)\n      dup1\n      swap2\n      sub\n      swap1\n      return\n        /* \"CONTRACTS/solmate-main/src/tokens/ERC20.sol\":1304:1330  uint256 public totalSupply */\n    tag_5:\n      tag_30\n      tag_31\n      jump\t// in\n    tag_30:\n      mload(0x40)\n      tag_32\n      swap2\n      swap1\n      tag_33\n      jump\t// in\n    tag_32:\n      mload(0x40)\n      dup1\n      swap2\n      sub\n      swap1\n      return\n        /* \"CONTRACTS/solmate-main/src/tokens/ERC20.sol\":1799:1858  uint256 constant public MAX_INT_EXPONENTIATION = 2**256 - 1 */\n    tag_6:\n      tag_34\n      tag_35\n      jump\t// in\n    tag_34:\n      mload(0x40)\n      tag_36\n      swap2\n      swap1\n      tag_33\n      jump\t// in\n    tag_36:\n      mload(0x40)\n      dup1\n      swap2\n      sub\n      swap1\n      return\n        /* \"CONTRACTS/solmate-main/src/tokens/ERC20.sol\":3123:3715  function transferFrom(... */\n    tag_7:\n      tag_37\n      0x04\n      dup1\n      calldatasize\n      sub\n      dup2\n      add\n      swap1\n      tag_38\n      swap2\n      swap1\n      tag_39\n      jump\t// in\n    tag_38:\n      tag_40\n      jump\t// in\n    tag_37:\n      mload(0x40)\n      tag_41\n      swap2\n      swap1\n      tag_29\n      jump\t// in\n    tag_41:\n      mload(0x40)\n      dup1\n      swap2\n      sub\n      swap1\n      return\n        /* \"CONTRACTS/solmate-main/src/tokens/ERC20.sol\":1083:1114  uint8 public immutable decimals */\n    tag_8:\n      tag_42\n      tag_43\n      jump\t// in\n    tag_42:\n      mload(0x40)\n      tag_44\n      swap2\n      swap1\n      tag_45\n      jump\t// in\n    tag_44:\n      mload(0x40)\n      dup1\n      swap2\n      sub\n      swap1\n      return\n        /* \"CONTRACTS/solmate-main/src/tokens/ERC20.sol\":5578:5755  function DOMAIN_SEPARATOR() public view virtual returns (bytes32) {... */\n    tag_9:\n      tag_46\n      tag_47\n      jump\t// in\n    tag_46:\n      mload(0x40)\n      tag_48\n      swap2\n      swap1\n      tag_49\n      jump\t// in\n    tag_48:\n      mload(0x40)\n      dup1\n      swap2\n      sub\n      swap1\n      return\n        /* \"CONTRACTS/Token.sol\":237:323  function mint(address _to, uint _amount) external {... */\n    tag_10:\n      tag_50\n      0x04\n      dup1\n      calldatasize\n      sub\n      dup2\n      add\n      swap1\n      tag_51\n      swap2\n      swap1\n      tag_26\n      jump\t// in\n    tag_51:\n      tag_52\n      jump\t// in\n    tag_50:\n      stop\n        /* \"CONTRACTS/solmate-main/src/tokens/ERC20.sol\":1337:1381  mapping(address => uint256) public balanceOf */\n    tag_11:\n      tag_53\n      0x04\n      dup1\n      calldatasize\n      sub\n      dup2\n      add\n      swap1\n      tag_54\n      swap2\n      swap1\n      tag_55\n      jump\t// in\n    tag_54:\n      tag_56\n      jump\t// in\n    tag_53:\n      mload(0x40)\n      tag_57\n      swap2\n      swap1\n      tag_33\n      jump\t// in\n    tag_57:\n      mload(0x40)\n      dup1\n      swap2\n      sub\n      swap1\n      return\n        /* \"CONTRACTS/solmate-main/src/tokens/ERC20.sol\":1751:1792  mapping(address => uint256) public nonces */\n    tag_12:\n      tag_58\n      0x04\n      dup1\n      calldatasize\n      sub\n      dup2\n      add\n      swap1\n      tag_59\n      swap2\n      swap1\n      tag_55\n      jump\t// in\n    tag_59:\n      tag_60\n      jump\t// in\n    tag_58:\n      mload(0x40)\n      tag_61\n      swap2\n      swap1\n      tag_33\n      jump\t// in\n    tag_61:\n      mload(0x40)\n      dup1\n      swap2\n      sub\n      swap1\n      return\n        /* \"CONTRACTS/solmate-main/src/tokens/ERC20.sol\":1056:1076  string public symbol */\n    tag_13:\n      tag_62\n      tag_63\n      jump\t// in\n    tag_62:\n      mload(0x40)\n      tag_64\n      swap2\n      swap1\n      tag_23\n      jump\t// in\n    tag_64:\n      mload(0x40)\n      dup1\n      swap2\n      sub\n      swap1\n      return\n        /* \"CONTRACTS/solmate-main/src/tokens/ERC20.sol\":2744:3117  function transfer(address to, uint256 amount) public virtual returns (bool) {... */\n    tag_14:\n      tag_65\n      0x04\n      dup1\n      calldatasize\n      sub\n      dup2\n      add\n      swap1\n      tag_66\n      swap2\n      swap1\n      tag_26\n      jump\t// in\n    tag_66:\n      tag_67\n      jump\t// in\n    tag_65:\n      mload(0x40)\n      tag_68\n      swap2\n      swap1\n      tag_29\n      jump\t// in\n    tag_68:\n      mload(0x40)\n      dup1\n      swap2\n      sub\n      swap1\n      return\n        /* \"CONTRACTS/solmate-main/src/tokens/ERC20.sol\":3904:5572  function permit(... */\n    tag_15:\n      tag_69\n      0x04\n      dup1\n      calldatasize\n      sub\n      dup2\n      add\n      swap1\n      tag_70\n      swap2\n      swap1\n      tag_71\n      jump\t// in\n    tag_70:\n      tag_72\n      jump\t// in\n    tag_69:\n      stop\n        /* \"CONTRACTS/solmate-main/src/tokens/ERC20.sol\":1388:1452  mapping(address => mapping(address => uint256)) public allowance */\n    tag_16:\n      tag_73\n      0x04\n      dup1\n      calldatasize\n      sub\n      dup2\n      add\n      swap1\n      tag_74\n      swap2\n      swap1\n      tag_75\n      jump\t// in\n    tag_74:\n      tag_76\n      jump\t// in\n    tag_73:\n      mload(0x40)\n      tag_77\n      swap2\n      swap1\n      tag_33\n      jump\t// in\n    tag_77:\n      mload(0x40)\n      dup1\n      swap2\n      sub\n      swap1\n      return\n        /* \"CONTRACTS/solmate-main/src/tokens/ERC20.sol\":1031:1049  string public name */\n    tag_21:\n      0x00\n      dup1\n      sload\n      tag_78\n      swap1\n      tag_79\n      jump\t// in\n    tag_78:\n      dup1\n      0x1f\n      add\n      0x20\n      dup1\n      swap2\n      div\n      mul\n      0x20\n      add\n      mload(0x40)\n      swap1\n      dup2\n      add\n      0x40\n      mstore\n      dup1\n      swap3\n      swap2\n      swap1\n      dup2\n      dup2\n      mstore\n      0x20\n      add\n      dup3\n      dup1\n      sload\n      tag_80\n      swap1\n      tag_79\n      jump\t// in\n    tag_80:\n      dup1\n      iszero\n      tag_81\n      jumpi\n      dup1\n      0x1f\n      lt\n      tag_82\n      jumpi\n      0x0100\n      dup1\n      dup4\n      sload\n      div\n      mul\n      dup4\n      mstore\n      swap2\n      0x20\n      add\n      swap2\n      jump(tag_81)\n    tag_82:\n      dup3\n      add\n      swap2\n      swap1\n      0x00\n      mstore\n      keccak256(0x00, 0x20)\n      swap1\n    tag_83:\n      dup2\n      sload\n      dup2\n      mstore\n      swap1\n      0x01\n      add\n      swap1\n      0x20\n      add\n      dup1\n      dup4\n      gt\n      tag_83\n      jumpi\n      dup3\n      swap1\n      sub\n      0x1f\n      and\n      dup3\n      add\n      swap2\n    tag_81:\n      pop\n      pop\n      pop\n      pop\n      pop\n      dup2\n      jump\t// out\n        /* \"CONTRACTS/solmate-main/src/tokens/ERC20.sol\":2527:2738  function approve(address spender, uint256 amount) public virtual returns (bool) {... */\n    tag_27:\n        /* \"CONTRACTS/solmate-main/src/tokens/ERC20.sol\":2601:2605  bool */\n      0x00\n        /* \"CONTRACTS/solmate-main/src/tokens/ERC20.sol\":2650:2656  amount */\n      dup2\n        /* \"CONTRACTS/solmate-main/src/tokens/ERC20.sol\":2617:2626  allowance */\n      0x04\n        /* \"CONTRACTS/solmate-main/src/tokens/ERC20.sol\":2617:2638  allowance[msg.sender] */\n      0x00\n        /* \"CONTRACTS/solmate-main/src/tokens/ERC20.sol\":2627:2637  msg.sender */\n      caller\n        /* \"CONTRACTS/solmate-main/src/tokens/ERC20.sol\":2617:2638  allowance[msg.sender] */\n      0xffffffffffffffffffffffffffffffffffffffff\n      and\n      0xffffffffffffffffffffffffffffffffffffffff\n      and\n      dup2\n      mstore\n      0x20\n      add\n      swap1\n      dup2\n      mstore\n      0x20\n      add\n      0x00\n      keccak256\n        /* \"CONTRACTS/solmate-main/src/tokens/ERC20.sol\":2617:2647  allowance[msg.sender][spender] */\n      0x00\n        /* \"CONTRACTS/solmate-main/src/tokens/ERC20.sol\":2639:2646  spender */\n      dup6\n        /* \"CONTRACTS/solmate-main/src/tokens/ERC20.sol\":2617:2647  allowance[msg.sender][spender] */\n      0xffffffffffffffffffffffffffffffffffffffff\n      and\n      0xffffffffffffffffffffffffffffffffffffffff\n      and\n      dup2\n      mstore\n      0x20\n      add\n      swap1\n      dup2\n      mstore\n      0x20\n      add\n      0x00\n      keccak256\n        /* \"CONTRACTS/solmate-main/src/tokens/ERC20.sol\":2617:2656  allowance[msg.sender][spender] = amount */\n      dup2\n      swap1\n      sstore\n      pop\n        /* \"CONTRACTS/solmate-main/src/tokens/ERC20.sol\":2693:2700  spender */\n      dup3\n        /* \"CONTRACTS/solmate-main/src/tokens/ERC20.sol\":2672:2709  Approval(msg.sender, spender, amount) */\n      0xffffffffffffffffffffffffffffffffffffffff\n      and\n        /* \"CONTRACTS/solmate-main/src/tokens/ERC20.sol\":2681:2691  msg.sender */\n      caller\n        /* \"CONTRACTS/solmate-main/src/tokens/ERC20.sol\":2672:2709  Approval(msg.sender, spender, amount) */\n      0xffffffffffffffffffffffffffffffffffffffff\n      and\n      0x8c5be1e5ebec7d5bd14f71427d1e84f3dd0314c0f7b2291e5b200ac8c7c3b925\n        /* \"CONTRACTS/solmate-main/src/tokens/ERC20.sol\":2702:2708  amount */\n      dup5\n        /* \"CONTRACTS/solmate-main/src/tokens/ERC20.sol\":2672:2709  Approval(msg.sender, spender, amount) */\n      mload(0x40)\n      tag_85\n      swap2\n      swap1\n      tag_33\n      jump\t// in\n    tag_85:\n      mload(0x40)\n      dup1\n      swap2\n      sub\n      swap1\n      log3\n        /* \"CONTRACTS/solmate-main/src/tokens/ERC20.sol\":2727:2731  true */\n      0x01\n        /* \"CONTRACTS/solmate-main/src/tokens/ERC20.sol\":2720:2731  return true */\n      swap1\n      pop\n        /* \"CONTRACTS/solmate-main/src/tokens/ERC20.sol\":2527:2738  function approve(address spender, uint256 amount) public virtual returns (bool) {... */\n      swap3\n      swap2\n      pop\n      pop\n      jump\t// out\n        /* \"CONTRACTS/solmate-main/src/tokens/ERC20.sol\":1304:1330  uint256 public totalSupply */\n    tag_31:\n      sload(0x02)\n      dup2\n      jump\t// out\n        /* \"CONTRACTS/solmate-main/src/tokens/ERC20.sol\":1799:1858  uint256 constant public MAX_INT_EXPONENTIATION = 2**256 - 1 */\n    tag_35:\n        /* \"CONTRACTS/solmate-main/src/tokens/ERC20.sol\":1848:1858  2**256 - 1 */\n      0xffffffffffffffffffffffffffffffffffffffffffffffffffffffffffffffff\n        /* \"CONTRACTS/solmate-main/src/tokens/ERC20.sol\":1799:1858  uint256 constant public MAX_INT_EXPONENTIATION = 2**256 - 1 */\n      dup2\n      jump\t// out\n        /* \"CONTRACTS/solmate-main/src/tokens/ERC20.sol\":3123:3715  function transferFrom(... */\n    tag_40:\n        /* \"CONTRACTS/solmate-main/src/tokens/ERC20.sol\":3241:3245  bool */\n      0x00\n        /* \"CONTRACTS/solmate-main/src/tokens/ERC20.sol\":3257:3272  uint256 allowed */\n      dup1\n        /* \"CONTRACTS/solmate-main/src/tokens/ERC20.sol\":3275:3284  allowance */\n      0x04\n        /* \"CONTRACTS/solmate-main/src/tokens/ERC20.sol\":3275:3290  allowance[from] */\n      0x00\n        /* \"CONTRACTS/solmate-main/src/tokens/ERC20.sol\":3285:3289  from */\n      dup7\n        /* \"CONTRACTS/solmate-main/src/tokens/ERC20.sol\":3275:3290  allowance[from] */\n      0xffffffffffffffffffffffffffffffffffffffff\n      and\n      0xffffffffffffffffffffffffffffffffffffffff\n      and\n      dup2\n      mstore\n      0x20\n      add\n      swap1\n      dup2\n      mstore\n      0x20\n      add\n      0x00\n      keccak256\n        /* \"CONTRACTS/solmate-main/src/tokens/ERC20.sol\":3275:3302  allowance[from][msg.sender] */\n      0x00\n        /* \"CONTRACTS/solmate-main/src/tokens/ERC20.sol\":3291:3301  msg.sender */\n      caller\n        /* \"CONTRACTS/solmate-main/src/tokens/ERC20.sol\":3275:3302  allowance[from][msg.sender] */\n      0xffffffffffffffffffffffffffffffffffffffff\n      and\n      0xffffffffffffffffffffffffffffffffffffffff\n      and\n      dup2\n      mstore\n      0x20\n      add\n      swap1\n      dup2\n      mstore\n      0x20\n      add\n      0x00\n      keccak256\n      sload\n        /* \"CONTRACTS/solmate-main/src/tokens/ERC20.sol\":3257:3302  uint256 allowed = allowance[from][msg.sender] */\n      swap1\n      pop\n        /* \"CONTRACTS/solmate-main/src/tokens/ERC20.sol\":3364:3381  type(uint256).max */\n      0xffffffffffffffffffffffffffffffffffffffffffffffffffffffffffffffff\n        /* \"CONTRACTS/solmate-main/src/tokens/ERC20.sol\":3353:3360  allowed */\n      dup2\n        /* \"CONTRACTS/solmate-main/src/tokens/ERC20.sol\":3353:3381  allowed != type(uint256).max */\n      eq\n        /* \"CONTRACTS/solmate-main/src/tokens/ERC20.sol\":3349:3429  if (allowed != type(uint256).max) allowance[from][msg.sender] = allowed - amount */\n      tag_87\n      jumpi\n        /* \"CONTRACTS/solmate-main/src/tokens/ERC20.sol\":3423:3429  amount */\n      dup3\n        /* \"CONTRACTS/solmate-main/src/tokens/ERC20.sol\":3413:3420  allowed */\n      dup2\n        /* \"CONTRACTS/solmate-main/src/tokens/ERC20.sol\":3413:3429  allowed - amount */\n      tag_88\n      swap2\n      swap1\n      tag_89\n      jump\t// in\n    tag_88:\n        /* \"CONTRACTS/solmate-main/src/tokens/ERC20.sol\":3383:3392  allowance */\n      0x04\n        /* \"CONTRACTS/solmate-main/src/tokens/ERC20.sol\":3383:3398  allowance[from] */\n      0x00\n        /* \"CONTRACTS/solmate-main/src/tokens/ERC20.sol\":3393:3397  from */\n      dup8\n        /* \"CONTRACTS/solmate-main/src/tokens/ERC20.sol\":3383:3398  allowance[from] */\n      0xffffffffffffffffffffffffffffffffffffffff\n      and\n      0xffffffffffffffffffffffffffffffffffffffff\n      and\n      dup2\n      mstore\n      0x20\n      add\n      swap1\n      dup2\n      mstore\n      0x20\n      add\n      0x00\n      keccak256\n        /* \"CONTRACTS/solmate-main/src/tokens/ERC20.sol\":3383:3410  allowance[from][msg.sender] */\n      0x00\n        /* \"CONTRACTS/solmate-main/src/tokens/ERC20.sol\":3399:3409  msg.sender */\n      caller\n        /* \"CONTRACTS/solmate-main/src/tokens/ERC20.sol\":3383:3410  allowance[from][msg.sender] */\n      0xffffffffffffffffffffffffffffffffffffffff\n      and\n      0xffffffffffffffffffffffffffffffffffffffff\n      and\n      dup2\n      mstore\n      0x20\n      add\n      swap1\n      dup2\n      mstore\n      0x20\n      add\n      0x00\n      keccak256\n        /* \"CONTRACTS/solmate-main/src/tokens/ERC20.sol\":3383:3429  allowance[from][msg.sender] = allowed - amount */\n      dup2\n      swap1\n      sstore\n      pop\n        /* \"CONTRACTS/solmate-main/src/tokens/ERC20.sol\":3349:3429  if (allowed != type(uint256).max) allowance[from][msg.sender] = allowed - amount */\n    tag_87:\n        /* \"CONTRACTS/solmate-main/src/tokens/ERC20.sol\":3459:3465  amount */\n      dup3\n        /* \"CONTRACTS/solmate-main/src/tokens/ERC20.sol\":3440:3449  balanceOf */\n      0x03\n        /* \"CONTRACTS/solmate-main/src/tokens/ERC20.sol\":3440:3455  balanceOf[from] */\n      0x00\n        /* \"CONTRACTS/solmate-main/src/tokens/ERC20.sol\":3450:3454  from */\n      dup8\n        /* \"CONTRACTS/solmate-main/src/tokens/ERC20.sol\":3440:3455  balanceOf[from] */\n      0xffffffffffffffffffffffffffffffffffffffff\n      and\n      0xffffffffffffffffffffffffffffffffffffffff\n      and\n      dup2\n      mstore\n      0x20\n      add\n      swap1\n      dup2\n      mstore\n      0x20\n      add\n      0x00\n      keccak256\n      0x00\n        /* \"CONTRACTS/solmate-main/src/tokens/ERC20.sol\":3440:3465  balanceOf[from] -= amount */\n      dup3\n      dup3\n      sload\n      tag_90\n      swap2\n      swap1\n      tag_89\n      jump\t// in\n    tag_90:\n      swap3\n      pop\n      pop\n      dup2\n      swap1\n      sstore\n      pop\n        /* \"CONTRACTS/solmate-main/src/tokens/ERC20.sol\":3628:3634  amount */\n      dup3\n        /* \"CONTRACTS/solmate-main/src/tokens/ERC20.sol\":3611:3620  balanceOf */\n      0x03\n        /* \"CONTRACTS/solmate-main/src/tokens/ERC20.sol\":3611:3624  balanceOf[to] */\n      0x00\n        /* \"CONTRACTS/solmate-main/src/tokens/ERC20.sol\":3621:3623  to */\n      dup7\n        /* \"CONTRACTS/solmate-main/src/tokens/ERC20.sol\":3611:3624  balanceOf[to] */\n      0xffffffffffffffffffffffffffffffffffffffff\n      and\n      0xffffffffffffffffffffffffffffffffffffffff\n      and\n      dup2\n      mstore\n      0x20\n      add\n      swap1\n      dup2\n      mstore\n      0x20\n      add\n      0x00\n      keccak256\n      0x00\n        /* \"CONTRACTS/solmate-main/src/tokens/ERC20.sol\":3611:3634  balanceOf[to] += amount */\n      dup3\n      dup3\n      sload\n      add\n      swap3\n      pop\n      pop\n      dup2\n      swap1\n      sstore\n      pop\n        /* \"CONTRACTS/solmate-main/src/tokens/ERC20.sol\":3675:3677  to */\n      dup4\n        /* \"CONTRACTS/solmate-main/src/tokens/ERC20.sol\":3660:3686  Transfer(from, to, amount) */\n      0xffffffffffffffffffffffffffffffffffffffff\n      and\n        /* \"CONTRACTS/solmate-main/src/tokens/ERC20.sol\":3669:3673  from */\n      dup6\n        /* \"CONTRACTS/solmate-main/src/tokens/ERC20.sol\":3660:3686  Transfer(from, to, amount) */\n      0xffffffffffffffffffffffffffffffffffffffff\n      and\n      0xddf252ad1be2c89b69c2b068fc378daa952ba7f163c4a11628f55a4df523b3ef\n        /* \"CONTRACTS/solmate-main/src/tokens/ERC20.sol\":3679:3685  amount */\n      dup6\n        /* \"CONTRACTS/solmate-main/src/tokens/ERC20.sol\":3660:3686  Transfer(from, to, amount) */\n      mload(0x40)\n      tag_91\n      swap2\n      swap1\n      tag_33\n      jump\t// in\n    tag_91:\n      mload(0x40)\n      dup1\n      swap2\n      sub\n      swap1\n      log3\n        /* \"CONTRACTS/solmate-main/src/tokens/ERC20.sol\":3704:3708  true */\n      0x01\n        /* \"CONTRACTS/solmate-main/src/tokens/ERC20.sol\":3697:3708  return true */\n      swap2\n      pop\n      pop\n        /* \"CONTRACTS/solmate-main/src/tokens/ERC20.sol\":3123:3715  function transferFrom(... */\n      swap4\n      swap3\n      pop\n      pop\n      pop\n      jump\t// out\n        /* \"CONTRACTS/solmate-main/src/tokens/ERC20.sol\":1083:1114  uint8 public immutable decimals */\n    tag_43:\n      immutable(\"0xcd41b8bf8f20f7ad95d96d948a315af225b219053fc98a80aee13063b692b681\")\n      dup2\n      jump\t// out\n        /* \"CONTRACTS/solmate-main/src/tokens/ERC20.sol\":5578:5755  function DOMAIN_SEPARATOR() public view virtual returns (bytes32) {... */\n    tag_47:\n        /* \"CONTRACTS/solmate-main/src/tokens/ERC20.sol\":5635:5642  bytes32 */\n      0x00\n        /* \"CONTRACTS/solmate-main/src/tokens/ERC20.sol\":5678:5694  INITIAL_CHAIN_ID */\n      immutable(\"0x35bb2e240092263378f77ea1e9c278099a33b604c4c4e26d13ea227e8bb74470\")\n        /* \"CONTRACTS/solmate-main/src/tokens/ERC20.sol\":5661:5674  block.chainid */\n      chainid\n        /* \"CONTRACTS/solmate-main/src/tokens/ERC20.sol\":5661:5694  block.chainid == INITIAL_CHAIN_ID */\n      eq\n        /* \"CONTRACTS/solmate-main/src/tokens/ERC20.sol\":5661:5748  block.chainid == INITIAL_CHAIN_ID ? INITIAL_DOMAIN_SEPARATOR : computeDomainSeparator() */\n      tag_93\n      jumpi\n        /* \"CONTRACTS/solmate-main/src/tokens/ERC20.sol\":5724:5748  computeDomainSeparator() */\n      tag_94\n        /* \"CONTRACTS/solmate-main/src/tokens/ERC20.sol\":5724:5746  computeDomainSeparator */\n      tag_95\n        /* \"CONTRACTS/solmate-main/src/tokens/ERC20.sol\":5724:5748  computeDomainSeparator() */\n      jump\t// in\n    tag_94:\n        /* \"CONTRACTS/solmate-main/src/tokens/ERC20.sol\":5661:5748  block.chainid == INITIAL_CHAIN_ID ? INITIAL_DOMAIN_SEPARATOR : computeDomainSeparator() */\n      jump(tag_96)\n    tag_93:\n        /* \"CONTRACTS/solmate-main/src/tokens/ERC20.sol\":5697:5721  INITIAL_DOMAIN_SEPARATOR */\n      immutable(\"0xcc143a676b82d5e07b2c9d57717b403ab3c58caa273a42cdb95b15980141a86c\")\n        /* \"CONTRACTS/solmate-main/src/tokens/ERC20.sol\":5661:5748  block.chainid == INITIAL_CHAIN_ID ? INITIAL_DOMAIN_SEPARATOR : computeDomainSeparator() */\n    tag_96:\n        /* \"CONTRACTS/solmate-main/src/tokens/ERC20.sol\":5654:5748  return block.chainid == INITIAL_CHAIN_ID ? INITIAL_DOMAIN_SEPARATOR : computeDomainSeparator() */\n      swap1\n      pop\n        /* \"CONTRACTS/solmate-main/src/tokens/ERC20.sol\":5578:5755  function DOMAIN_SEPARATOR() public view virtual returns (bytes32) {... */\n      swap1\n      jump\t// out\n        /* \"CONTRACTS/Token.sol\":237:323  function mint(address _to, uint _amount) external {... */\n    tag_52:\n        /* \"CONTRACTS/Token.sol\":297:316  _mint(_to, _amount) */\n      tag_98\n        /* \"CONTRACTS/Token.sol\":303:306  _to */\n      dup3\n        /* \"CONTRACTS/Token.sol\":308:315  _amount */\n      dup3\n        /* \"CONTRACTS/Token.sol\":297:302  _mint */\n      tag_99\n        /* \"CONTRACTS/Token.sol\":297:316  _mint(_to, _amount) */\n      jump\t// in\n    tag_98:\n        /* \"CONTRACTS/Token.sol\":237:323  function mint(address _to, uint _amount) external {... */\n      pop\n      pop\n      jump\t// out\n        /* \"CONTRACTS/solmate-main/src/tokens/ERC20.sol\":1337:1381  mapping(address => uint256) public balanceOf */\n    tag_56:\n      mstore(0x20, 0x03)\n      dup1\n      0x00\n      mstore\n      keccak256(0x00, 0x40)\n      0x00\n      swap2\n      pop\n      swap1\n      pop\n      sload\n      dup2\n      jump\t// out\n        /* \"CONTRACTS/solmate-main/src/tokens/ERC20.sol\":1751:1792  mapping(address => uint256) public nonces */\n    tag_60:\n      mstore(0x20, 0x05)\n      dup1\n      0x00\n      mstore\n      keccak256(0x00, 0x40)\n      0x00\n      swap2\n      pop\n      swap1\n      pop\n      sload\n      dup2\n      jump\t// out\n        /* \"CONTRACTS/solmate-main/src/tokens/ERC20.sol\":1056:1076  string public symbol */\n    tag_63:\n      0x01\n      dup1\n      sload\n      tag_100\n      swap1\n      tag_79\n      jump\t// in\n    tag_100:\n      dup1\n      0x1f\n      add\n      0x20\n      dup1\n      swap2\n      div\n      mul\n      0x20\n      add\n      mload(0x40)\n      swap1\n      dup2\n      add\n      0x40\n      mstore\n      dup1\n      swap3\n      swap2\n      swap1\n      dup2\n      dup2\n      mstore\n      0x20\n      add\n      dup3\n      dup1\n      sload\n      tag_101\n      swap1\n      tag_79\n      jump\t// in\n    tag_101:\n      dup1\n      iszero\n      tag_102\n      jumpi\n      dup1\n      0x1f\n      lt\n      tag_103\n      jumpi\n      0x0100\n      dup1\n      dup4\n      sload\n      div\n      mul\n      dup4\n      mstore\n      swap2\n      0x20\n      add\n      swap2\n      jump(tag_102)\n    tag_103:\n      dup3\n      add\n      swap2\n      swap1\n      0x00\n      mstore\n      keccak256(0x00, 0x20)\n      swap1\n    tag_104:\n      dup2\n      sload\n      dup2\n      mstore\n      swap1\n      0x01\n      add\n      swap1\n      0x20\n      add\n      dup1\n      dup4\n      gt\n      tag_104\n      jumpi\n      dup3\n      swap1\n      sub\n      0x1f\n      and\n      dup3\n      add\n      swap2\n    tag_102:\n      pop\n      pop\n      pop\n      pop\n      pop\n      dup2\n      jump\t// out\n        /* \"CONTRACTS/solmate-main/src/tokens/ERC20.sol\":2744:3117  function transfer(address to, uint256 amount) public virtual returns (bool) {... */\n    tag_67:\n        /* \"CONTRACTS/solmate-main/src/tokens/ERC20.sol\":2814:2818  bool */\n      0x00\n        /* \"CONTRACTS/solmate-main/src/tokens/ERC20.sol\":2855:2861  amount */\n      dup2\n        /* \"CONTRACTS/solmate-main/src/tokens/ERC20.sol\":2830:2839  balanceOf */\n      0x03\n        /* \"CONTRACTS/solmate-main/src/tokens/ERC20.sol\":2830:2851  balanceOf[msg.sender] */\n      0x00\n        /* \"CONTRACTS/solmate-main/src/tokens/ERC20.sol\":2840:2850  msg.sender */\n      caller\n        /* \"CONTRACTS/solmate-main/src/tokens/ERC20.sol\":2830:2851  balanceOf[msg.sender] */\n      0xffffffffffffffffffffffffffffffffffffffff\n      and\n      0xffffffffffffffffffffffffffffffffffffffff\n      and\n      dup2\n      mstore\n      0x20\n      add\n      swap1\n      dup2\n      mstore\n      0x20\n      add\n      0x00\n      keccak256\n      0x00\n        /* \"CONTRACTS/solmate-main/src/tokens/ERC20.sol\":2830:2861  balanceOf[msg.sender] -= amount */\n      dup3\n      dup3\n      sload\n      tag_106\n      swap2\n      swap1\n      tag_89\n      jump\t// in\n    tag_106:\n      swap3\n      pop\n      pop\n      dup2\n      swap1\n      sstore\n      pop\n        /* \"CONTRACTS/solmate-main/src/tokens/ERC20.sol\":3024:3030  amount */\n      dup2\n        /* \"CONTRACTS/solmate-main/src/tokens/ERC20.sol\":3007:3016  balanceOf */\n      0x03\n        /* \"CONTRACTS/solmate-main/src/tokens/ERC20.sol\":3007:3020  balanceOf[to] */\n      0x00\n        /* \"CONTRACTS/solmate-main/src/tokens/ERC20.sol\":3017:3019  to */\n      dup6\n        /* \"CONTRACTS/solmate-main/src/tokens/ERC20.sol\":3007:3020  balanceOf[to] */\n      0xffffffffffffffffffffffffffffffffffffffff\n      and\n      0xffffffffffffffffffffffffffffffffffffffff\n      and\n      dup2\n      mstore\n      0x20\n      add\n      swap1\n      dup2\n      mstore\n      0x20\n      add\n      0x00\n      keccak256\n      0x00\n        /* \"CONTRACTS/solmate-main/src/tokens/ERC20.sol\":3007:3030  balanceOf[to] += amount */\n      dup3\n      dup3\n      sload\n      add\n      swap3\n      pop\n      pop\n      dup2\n      swap1\n      sstore\n      pop\n        /* \"CONTRACTS/solmate-main/src/tokens/ERC20.sol\":3077:3079  to */\n      dup3\n        /* \"CONTRACTS/solmate-main/src/tokens/ERC20.sol\":3056:3088  Transfer(msg.sender, to, amount) */\n      0xffffffffffffffffffffffffffffffffffffffff\n      and\n        /* \"CONTRACTS/solmate-main/src/tokens/ERC20.sol\":3065:3075  msg.sender */\n      caller\n        /* \"CONTRACTS/solmate-main/src/tokens/ERC20.sol\":3056:3088  Transfer(msg.sender, to, amount) */\n      0xffffffffffffffffffffffffffffffffffffffff\n      and\n      0xddf252ad1be2c89b69c2b068fc378daa952ba7f163c4a11628f55a4df523b3ef\n        /* \"CONTRACTS/solmate-main/src/tokens/ERC20.sol\":3081:3087  amount */\n      dup5\n        /* \"CONTRACTS/solmate-main/src/tokens/ERC20.sol\":3056:3088  Transfer(msg.sender, to, amount) */\n      mload(0x40)\n      tag_107\n      swap2\n      swap1\n      tag_33\n      jump\t// in\n    tag_107:\n      mload(0x40)\n      dup1\n      swap2\n      sub\n      swap1\n      log3\n        /* \"CONTRACTS/solmate-main/src/tokens/ERC20.sol\":3106:3110  true */\n      0x01\n        /* \"CONTRACTS/solmate-main/src/tokens/ERC20.sol\":3099:3110  return true */\n      swap1\n      pop\n        /* \"CONTRACTS/solmate-main/src/tokens/ERC20.sol\":2744:3117  function transfer(address to, uint256 amount) public virtual returns (bool) {... */\n      swap3\n      swap2\n      pop\n      pop\n      jump\t// out\n        /* \"CONTRACTS/solmate-main/src/tokens/ERC20.sol\":3904:5572  function permit(... */\n    tag_72:\n        /* \"CONTRACTS/solmate-main/src/tokens/ERC20.sol\":4110:4125  block.timestamp */\n      timestamp\n        /* \"CONTRACTS/solmate-main/src/tokens/ERC20.sol\":4098:4106  deadline */\n      dup5\n        /* \"CONTRACTS/solmate-main/src/tokens/ERC20.sol\":4098:4125  deadline >= block.timestamp */\n      lt\n      iszero\n        /* \"CONTRACTS/solmate-main/src/tokens/ERC20.sol\":4090:4153  require(deadline >= block.timestamp, \"PERMIT_DEADLINE_EXPIRED\") */\n      tag_109\n      jumpi\n      mload(0x40)\n      0x08c379a000000000000000000000000000000000000000000000000000000000\n      dup2\n      mstore\n      0x04\n      add\n      tag_110\n      swap1\n      tag_111\n      jump\t// in\n    tag_110:\n      mload(0x40)\n      dup1\n      swap2\n      sub\n      swap1\n      revert\n    tag_109:\n        /* \"CONTRACTS/solmate-main/src/tokens/ERC20.sol\":4318:4342  address recoveredAddress */\n      0x00\n        /* \"CONTRACTS/solmate-main/src/tokens/ERC20.sol\":4345:5184  ecrecover(... */\n      0x01\n        /* \"CONTRACTS/solmate-main/src/tokens/ERC20.sol\":4515:4533  DOMAIN_SEPARATOR() */\n      tag_112\n        /* \"CONTRACTS/solmate-main/src/tokens/ERC20.sol\":4515:4531  DOMAIN_SEPARATOR */\n      tag_47\n        /* \"CONTRACTS/solmate-main/src/tokens/ERC20.sol\":4515:4533  DOMAIN_SEPARATOR() */\n      jump\t// in\n    tag_112:\n        /* \"CONTRACTS/solmate-main/src/tokens/ERC20.sol\":4705:4856  keccak256(... */\n      0x05619a74ecd0240afc3bfb1df2bd1319401220fb577809c3a09bf0ab809ac861\n        /* \"CONTRACTS/solmate-main/src/tokens/ERC20.sol\":4890:4895  owner */\n      dup11\n        /* \"CONTRACTS/solmate-main/src/tokens/ERC20.sol\":4929:4936  spender */\n      dup11\n        /* \"CONTRACTS/solmate-main/src/tokens/ERC20.sol\":4970:4975  value */\n      dup11\n        /* \"CONTRACTS/solmate-main/src/tokens/ERC20.sol\":5009:5017  deadline */\n      dup11\n        /* \"CONTRACTS/solmate-main/src/tokens/ERC20.sol\":4598:5047  abi.encode(... */\n      add(0x20, mload(0x40))\n      tag_113\n      swap6\n      swap5\n      swap4\n      swap3\n      swap2\n      swap1\n      tag_114\n      jump\t// in\n    tag_113:\n      mload(0x40)\n      0x20\n      dup2\n      dup4\n      sub\n      sub\n      dup2\n      mstore\n      swap1\n      0x40\n      mstore\n        /* \"CONTRACTS/solmate-main/src/tokens/ERC20.sol\":4559:5073  keccak256(... */\n      dup1\n      mload\n      swap1\n      0x20\n      add\n      keccak256\n        /* \"CONTRACTS/solmate-main/src/tokens/ERC20.sol\":4437:5095  abi.encodePacked(... */\n      add(0x20, mload(0x40))\n      tag_115\n      swap3\n      swap2\n      swap1\n      tag_116\n      jump\t// in\n    tag_115:\n      mload(0x40)\n      0x20\n      dup2\n      dup4\n      sub\n      sub\n      dup2\n      mstore\n      swap1\n      0x40\n      mstore\n        /* \"CONTRACTS/solmate-main/src/tokens/ERC20.sol\":4406:5113  keccak256(... */\n      dup1\n      mload\n      swap1\n      0x20\n      add\n      keccak256\n        /* \"CONTRACTS/solmate-main/src/tokens/ERC20.sol\":5131:5132  v */\n      dup6\n        /* \"CONTRACTS/solmate-main/src/tokens/ERC20.sol\":5150:5151  r */\n      dup6\n        /* \"CONTRACTS/solmate-main/src/tokens/ERC20.sol\":5169:5170  s */\n      dup6\n        /* \"CONTRACTS/solmate-main/src/tokens/ERC20.sol\":4345:5184  ecrecover(... */\n      mload(0x40)\n      0x00\n      dup2\n      mstore\n      0x20\n      add\n      0x40\n      mstore\n      mload(0x40)\n      tag_117\n      swap5\n      swap4\n      swap3\n      swap2\n      swap1\n      tag_118\n      jump\t// in\n    tag_117:\n      0x20\n      mload(0x40)\n      0x20\n      dup2\n      sub\n      swap1\n      dup1\n      dup5\n      sub\n      swap1\n      dup6\n      gas\n      staticcall\n      iszero\n      dup1\n      iszero\n      tag_120\n      jumpi\n      returndatasize\n      0x00\n      dup1\n      returndatacopy\n      revert(0x00, returndatasize)\n    tag_120:\n      pop\n      pop\n      pop\n      mload(sub(mload(0x40), 0x20))\n        /* \"CONTRACTS/solmate-main/src/tokens/ERC20.sol\":4318:5184  address recoveredAddress = ecrecover(... */\n      swap1\n      pop\n        /* \"CONTRACTS/solmate-main/src/tokens/ERC20.sol\":5306:5307  0 */\n      0x00\n        /* \"CONTRACTS/solmate-main/src/tokens/ERC20.sol\":5278:5308  recoveredAddress != address(0) */\n      0xffffffffffffffffffffffffffffffffffffffff\n      and\n        /* \"CONTRACTS/solmate-main/src/tokens/ERC20.sol\":5278:5294  recoveredAddress */\n      dup2\n        /* \"CONTRACTS/solmate-main/src/tokens/ERC20.sol\":5278:5308  recoveredAddress != address(0) */\n      0xffffffffffffffffffffffffffffffffffffffff\n      and\n      eq\n      iszero\n        /* \"CONTRACTS/solmate-main/src/tokens/ERC20.sol\":5278:5337  recoveredAddress != address(0) && recoveredAddress == owner */\n      dup1\n      iszero\n      tag_121\n      jumpi\n      pop\n        /* \"CONTRACTS/solmate-main/src/tokens/ERC20.sol\":5332:5337  owner */\n      dup8\n        /* \"CONTRACTS/solmate-main/src/tokens/ERC20.sol\":5312:5337  recoveredAddress == owner */\n      0xffffffffffffffffffffffffffffffffffffffff\n      and\n        /* \"CONTRACTS/solmate-main/src/tokens/ERC20.sol\":5312:5328  recoveredAddress */\n      dup2\n        /* \"CONTRACTS/solmate-main/src/tokens/ERC20.sol\":5312:5337  recoveredAddress == owner */\n      0xffffffffffffffffffffffffffffffffffffffff\n      and\n      eq\n        /* \"CONTRACTS/solmate-main/src/tokens/ERC20.sol\":5278:5337  recoveredAddress != address(0) && recoveredAddress == owner */\n    tag_121:\n        /* \"CONTRACTS/solmate-main/src/tokens/ERC20.sol\":5270:5356  require(recoveredAddress != address(0) && recoveredAddress == owner, \"INVALID_SIGNER\") */\n      tag_122\n      jumpi\n      mload(0x40)\n      0x08c379a000000000000000000000000000000000000000000000000000000000\n      dup2\n      mstore\n      0x04\n      add\n      tag_123\n      swap1\n      tag_124\n      jump\t// in\n    tag_123:\n      mload(0x40)\n      dup1\n      swap2\n      sub\n      swap1\n      revert\n    tag_122:\n        /* \"CONTRACTS/solmate-main/src/tokens/ERC20.sol\":1848:1858  2**256 - 1 */\n      0xffffffffffffffffffffffffffffffffffffffffffffffffffffffffffffffff\n        /* \"CONTRACTS/solmate-main/src/tokens/ERC20.sol\":5380:5385  value */\n      dup7\n        /* \"CONTRACTS/solmate-main/src/tokens/ERC20.sol\":5380:5411  value == MAX_INT_EXPONENTIATION */\n      eq\n        /* \"CONTRACTS/solmate-main/src/tokens/ERC20.sol\":5372:5438  require(value == MAX_INT_EXPONENTIATION, \"Incorrect Permit value\") */\n      tag_125\n      jumpi\n      mload(0x40)\n      0x08c379a000000000000000000000000000000000000000000000000000000000\n      dup2\n      mstore\n      0x04\n      add\n      tag_126\n      swap1\n      tag_127\n      jump\t// in\n    tag_126:\n      mload(0x40)\n      dup1\n      swap2\n      sub\n      swap1\n      revert\n    tag_125:\n        /* \"CONTRACTS/solmate-main/src/tokens/ERC20.sol\":5503:5508  value */\n      dup6\n        /* \"CONTRACTS/solmate-main/src/tokens/ERC20.sol\":5464:5473  allowance */\n      0x04\n        /* \"CONTRACTS/solmate-main/src/tokens/ERC20.sol\":5464:5491  allowance[recoveredAddress] */\n      0x00\n        /* \"CONTRACTS/solmate-main/src/tokens/ERC20.sol\":5474:5490  recoveredAddress */\n      dup4\n        /* \"CONTRACTS/solmate-main/src/tokens/ERC20.sol\":5464:5491  allowance[recoveredAddress] */\n      0xffffffffffffffffffffffffffffffffffffffff\n      and\n      0xffffffffffffffffffffffffffffffffffffffff\n      and\n      dup2\n      mstore\n      0x20\n      add\n      swap1\n      dup2\n      mstore\n      0x20\n      add\n      0x00\n      keccak256\n        /* \"CONTRACTS/solmate-main/src/tokens/ERC20.sol\":5464:5500  allowance[recoveredAddress][spender] */\n      0x00\n        /* \"CONTRACTS/solmate-main/src/tokens/ERC20.sol\":5492:5499  spender */\n      dup10\n        /* \"CONTRACTS/solmate-main/src/tokens/ERC20.sol\":5464:5500  allowance[recoveredAddress][spender] */\n      0xffffffffffffffffffffffffffffffffffffffff\n      and\n      0xffffffffffffffffffffffffffffffffffffffff\n      and\n      dup2\n      mstore\n      0x20\n      add\n      swap1\n      dup2\n      mstore\n      0x20\n      add\n      0x00\n      keccak256\n        /* \"CONTRACTS/solmate-main/src/tokens/ERC20.sol\":5464:5508  allowance[recoveredAddress][spender] = value */\n      dup2\n      swap1\n      sstore\n      pop\n        /* \"CONTRACTS/solmate-main/src/tokens/ERC20.sol\":4294:5519  unchecked {... */\n      pop\n        /* \"CONTRACTS/solmate-main/src/tokens/ERC20.sol\":5550:5557  spender */\n      dup6\n        /* \"CONTRACTS/solmate-main/src/tokens/ERC20.sol\":5534:5565  Approval(owner, spender, value) */\n      0xffffffffffffffffffffffffffffffffffffffff\n      and\n        /* \"CONTRACTS/solmate-main/src/tokens/ERC20.sol\":5543:5548  owner */\n      dup8\n        /* \"CONTRACTS/solmate-main/src/tokens/ERC20.sol\":5534:5565  Approval(owner, spender, value) */\n      0xffffffffffffffffffffffffffffffffffffffff\n      and\n      0x8c5be1e5ebec7d5bd14f71427d1e84f3dd0314c0f7b2291e5b200ac8c7c3b925\n        /* \"CONTRACTS/solmate-main/src/tokens/ERC20.sol\":5559:5564  value */\n      dup8\n        /* \"CONTRACTS/solmate-main/src/tokens/ERC20.sol\":5534:5565  Approval(owner, spender, value) */\n      mload(0x40)\n      tag_128\n      swap2\n      swap1\n      tag_33\n      jump\t// in\n    tag_128:\n      mload(0x40)\n      dup1\n      swap2\n      sub\n      swap1\n      log3\n        /* \"CONTRACTS/solmate-main/src/tokens/ERC20.sol\":3904:5572  function permit(... */\n      pop\n      pop\n      pop\n      pop\n      pop\n      pop\n      pop\n      jump\t// out\n        /* \"CONTRACTS/solmate-main/src/tokens/ERC20.sol\":1388:1452  mapping(address => mapping(address => uint256)) public allowance */\n    tag_76:\n      mstore(0x20, 0x04)\n      dup2\n      0x00\n      mstore\n      mstore(0x20, keccak256(0x00, 0x40))\n      dup1\n      0x00\n      mstore\n      keccak256(0x00, 0x40)\n      0x00\n      swap2\n      pop\n      swap2\n      pop\n      pop\n      sload\n      dup2\n      jump\t// out\n        /* \"CONTRACTS/solmate-main/src/tokens/ERC20.sol\":5761:6207  function computeDomainSeparator() internal view virtual returns (bytes32) {... */\n    tag_95:\n        /* \"CONTRACTS/solmate-main/src/tokens/ERC20.sol\":5826:5833  bytes32 */\n      0x00\n        /* \"CONTRACTS/solmate-main/src/tokens/ERC20.sol\":5923:6018  keccak256(\"EIP712Domain(string name,string version,uint256 chainId,address verifyingContract)\") */\n      0x8b73c3c69bb8fe3d512ecc4cf759cc79239f7b179b0ffacaa9a75d522b39400f\n        /* \"CONTRACTS/solmate-main/src/tokens/ERC20.sol\":6056:6060  name */\n      0x00\n        /* \"CONTRACTS/solmate-main/src/tokens/ERC20.sol\":6040:6062  keccak256(bytes(name)) */\n      mload(0x40)\n      tag_130\n      swap2\n      swap1\n      tag_131\n      jump\t// in\n    tag_130:\n      mload(0x40)\n      dup1\n      swap2\n      sub\n      swap1\n      keccak256\n        /* \"CONTRACTS/solmate-main/src/tokens/ERC20.sol\":6084:6098  keccak256(\"1\") */\n      0xc89efdaa54c0f20c7adf612882df0950f5a951637e0307cdcb4c672f298b8bc6\n        /* \"CONTRACTS/solmate-main/src/tokens/ERC20.sol\":6120:6133  block.chainid */\n      chainid\n        /* \"CONTRACTS/solmate-main/src/tokens/ERC20.sol\":6163:6167  this */\n      address\n        /* \"CONTRACTS/solmate-main/src/tokens/ERC20.sol\":5891:6186  abi.encode(... */\n      add(0x20, mload(0x40))\n      tag_132\n      swap6\n      swap5\n      swap4\n      swap3\n      swap2\n      swap1\n      tag_133\n      jump\t// in\n    tag_132:\n      mload(0x40)\n      0x20\n      dup2\n      dup4\n      sub\n      sub\n      dup2\n      mstore\n      swap1\n      0x40\n      mstore\n        /* \"CONTRACTS/solmate-main/src/tokens/ERC20.sol\":5864:6200  keccak256(... */\n      dup1\n      mload\n      swap1\n      0x20\n      add\n      keccak256\n        /* \"CONTRACTS/solmate-main/src/tokens/ERC20.sol\":5845:6200  return... */\n      swap1\n      pop\n        /* \"CONTRACTS/solmate-main/src/tokens/ERC20.sol\":5761:6207  function computeDomainSeparator() internal view virtual returns (bytes32) {... */\n      swap1\n      jump\t// out\n        /* \"CONTRACTS/solmate-main/src/tokens/ERC20.sol\":6401:6726  function _mint(address to, uint256 amount) internal virtual {... */\n    tag_99:\n        /* \"CONTRACTS/solmate-main/src/tokens/ERC20.sol\":6486:6492  amount */\n      dup1\n        /* \"CONTRACTS/solmate-main/src/tokens/ERC20.sol\":6471:6482  totalSupply */\n      0x02\n      0x00\n        /* \"CONTRACTS/solmate-main/src/tokens/ERC20.sol\":6471:6492  totalSupply += amount */\n      dup3\n      dup3\n      sload\n      tag_135\n      swap2\n      swap1\n      tag_136\n      jump\t// in\n    tag_135:\n      swap3\n      pop\n      pop\n      dup2\n      swap1\n      sstore\n      pop\n        /* \"CONTRACTS/solmate-main/src/tokens/ERC20.sol\":6655:6661  amount */\n      dup1\n        /* \"CONTRACTS/solmate-main/src/tokens/ERC20.sol\":6638:6647  balanceOf */\n      0x03\n        /* \"CONTRACTS/solmate-main/src/tokens/ERC20.sol\":6638:6651  balanceOf[to] */\n      0x00\n        /* \"CONTRACTS/solmate-main/src/tokens/ERC20.sol\":6648:6650  to */\n      dup5\n        /* \"CONTRACTS/solmate-main/src/tokens/ERC20.sol\":6638:6651  balanceOf[to] */\n      0xffffffffffffffffffffffffffffffffffffffff\n      and\n      0xffffffffffffffffffffffffffffffffffffffff\n      and\n      dup2\n      mstore\n      0x20\n      add\n      swap1\n      dup2\n      mstore\n      0x20\n      add\n      0x00\n      keccak256\n      0x00\n        /* \"CONTRACTS/solmate-main/src/tokens/ERC20.sol\":6638:6661  balanceOf[to] += amount */\n      dup3\n      dup3\n      sload\n      add\n      swap3\n      pop\n      pop\n      dup2\n      swap1\n      sstore\n      pop\n        /* \"CONTRACTS/solmate-main/src/tokens/ERC20.sol\":6708:6710  to */\n      dup2\n        /* \"CONTRACTS/solmate-main/src/tokens/ERC20.sol\":6687:6719  Transfer(address(0), to, amount) */\n      0xffffffffffffffffffffffffffffffffffffffff\n      and\n        /* \"CONTRACTS/solmate-main/src/tokens/ERC20.sol\":6704:6705  0 */\n      0x00\n        /* \"CONTRACTS/solmate-main/src/tokens/ERC20.sol\":6687:6719  Transfer(address(0), to, amount) */\n      0xffffffffffffffffffffffffffffffffffffffff\n      and\n      0xddf252ad1be2c89b69c2b068fc378daa952ba7f163c4a11628f55a4df523b3ef\n        /* \"CONTRACTS/solmate-main/src/tokens/ERC20.sol\":6712:6718  amount */\n      dup4\n        /* \"CONTRACTS/solmate-main/src/tokens/ERC20.sol\":6687:6719  Transfer(address(0), to, amount) */\n      mload(0x40)\n      tag_137\n      swap2\n      swap1\n      tag_33\n      jump\t// in\n    tag_137:\n      mload(0x40)\n      dup1\n      swap2\n      sub\n      swap1\n      log3\n        /* \"CONTRACTS/solmate-main/src/tokens/ERC20.sol\":6401:6726  function _mint(address to, uint256 amount) internal virtual {... */\n      pop\n      pop\n      jump\t// out\n        /* \"#utility.yul\":7:106   */\n    tag_138:\n        /* \"#utility.yul\":59:65   */\n      0x00\n        /* \"#utility.yul\":93:98   */\n      dup2\n        /* \"#utility.yul\":87:99   */\n      mload\n        /* \"#utility.yul\":77:99   */\n      swap1\n      pop\n        /* \"#utility.yul\":7:106   */\n      swap2\n      swap1\n      pop\n      jump\t// out\n        /* \"#utility.yul\":112:281   */\n    tag_139:\n        /* \"#utility.yul\":196:207   */\n      0x00\n        /* \"#utility.yul\":230:236   */\n      dup3\n        /* \"#utility.yul\":225:228   */\n      dup3\n        /* \"#utility.yul\":218:237   */\n      mstore\n        /* \"#utility.yul\":270:274   */\n      0x20\n        /* \"#utility.yul\":265:268   */\n      dup3\n        /* \"#utility.yul\":261:275   */\n      add\n        /* \"#utility.yul\":246:275   */\n      swap1\n      pop\n        /* \"#utility.yul\":112:281   */\n      swap3\n      swap2\n      pop\n      pop\n      jump\t// out\n        /* \"#utility.yul\":287:533   */\n    tag_140:\n        /* \"#utility.yul\":368:369   */\n      0x00\n        /* \"#utility.yul\":378:491   */\n    tag_185:\n        /* \"#utility.yul\":392:398   */\n      dup4\n        /* \"#utility.yul\":389:390   */\n      dup2\n        /* \"#utility.yul\":386:399   */\n      lt\n        /* \"#utility.yul\":378:491   */\n      iszero\n      tag_187\n      jumpi\n        /* \"#utility.yul\":477:478   */\n      dup1\n        /* \"#utility.yul\":472:475   */\n      dup3\n        /* \"#utility.yul\":468:479   */\n      add\n        /* \"#utility.yul\":462:480   */\n      mload\n        /* \"#utility.yul\":458:459   */\n      dup2\n        /* \"#utility.yul\":453:456   */\n      dup5\n        /* \"#utility.yul\":449:460   */\n      add\n        /* \"#utility.yul\":442:481   */\n      mstore\n        /* \"#utility.yul\":414:416   */\n      0x20\n        /* \"#utility.yul\":411:412   */\n      dup2\n        /* \"#utility.yul\":407:417   */\n      add\n        /* \"#utility.yul\":402:417   */\n      swap1\n      pop\n        /* \"#utility.yul\":378:491   */\n      jump(tag_185)\n    tag_187:\n        /* \"#utility.yul\":525:526   */\n      0x00\n        /* \"#utility.yul\":516:522   */\n      dup5\n        /* \"#utility.yul\":511:514   */\n      dup5\n        /* \"#utility.yul\":507:523   */\n      add\n        /* \"#utility.yul\":500:527   */\n      mstore\n        /* \"#utility.yul\":349:533   */\n      pop\n        /* \"#utility.yul\":287:533   */\n      pop\n      pop\n      pop\n      jump\t// out\n        /* \"#utility.yul\":539:641   */\n    tag_141:\n        /* \"#utility.yul\":580:586   */\n      0x00\n        /* \"#utility.yul\":631:633   */\n      0x1f\n        /* \"#utility.yul\":627:634   */\n      not\n        /* \"#utility.yul\":622:624   */\n      0x1f\n        /* \"#utility.yul\":615:620   */\n      dup4\n        /* \"#utility.yul\":611:625   */\n      add\n        /* \"#utility.yul\":607:635   */\n      and\n        /* \"#utility.yul\":597:635   */\n      swap1\n      pop\n        /* \"#utility.yul\":539:641   */\n      swap2\n      swap1\n      pop\n      jump\t// out\n        /* \"#utility.yul\":647:1024   */\n    tag_142:\n        /* \"#utility.yul\":735:738   */\n      0x00\n        /* \"#utility.yul\":763:802   */\n      tag_190\n        /* \"#utility.yul\":796:801   */\n      dup3\n        /* \"#utility.yul\":763:802   */\n      tag_138\n      jump\t// in\n    tag_190:\n        /* \"#utility.yul\":818:889   */\n      tag_191\n        /* \"#utility.yul\":882:888   */\n      dup2\n        /* \"#utility.yul\":877:880   */\n      dup6\n        /* \"#utility.yul\":818:889   */\n      tag_139\n      jump\t// in\n    tag_191:\n        /* \"#utility.yul\":811:889   */\n      swap4\n      pop\n        /* \"#utility.yul\":898:963   */\n      tag_192\n        /* \"#utility.yul\":956:962   */\n      dup2\n        /* \"#utility.yul\":951:954   */\n      dup6\n        /* \"#utility.yul\":944:948   */\n      0x20\n        /* \"#utility.yul\":937:942   */\n      dup7\n        /* \"#utility.yul\":933:949   */\n      add\n        /* \"#utility.yul\":898:963   */\n      tag_140\n      jump\t// in\n    tag_192:\n        /* \"#utility.yul\":988:1017   */\n      tag_193\n        /* \"#utility.yul\":1010:1016   */\n      dup2\n        /* \"#utility.yul\":988:1017   */\n      tag_141\n      jump\t// in\n    tag_193:\n        /* \"#utility.yul\":983:986   */\n      dup5\n        /* \"#utility.yul\":979:1018   */\n      add\n        /* \"#utility.yul\":972:1018   */\n      swap2\n      pop\n        /* \"#utility.yul\":739:1024   */\n      pop\n        /* \"#utility.yul\":647:1024   */\n      swap3\n      swap2\n      pop\n      pop\n      jump\t// out\n        /* \"#utility.yul\":1030:1343   */\n    tag_23:\n        /* \"#utility.yul\":1143:1147   */\n      0x00\n        /* \"#utility.yul\":1181:1183   */\n      0x20\n        /* \"#utility.yul\":1170:1179   */\n      dup3\n        /* \"#utility.yul\":1166:1184   */\n      add\n        /* \"#utility.yul\":1158:1184   */\n      swap1\n      pop\n        /* \"#utility.yul\":1230:1239   */\n      dup2\n        /* \"#utility.yul\":1224:1228   */\n      dup2\n        /* \"#utility.yul\":1220:1240   */\n      sub\n        /* \"#utility.yul\":1216:1217   */\n      0x00\n        /* \"#utility.yul\":1205:1214   */\n      dup4\n        /* \"#utility.yul\":1201:1218   */\n      add\n        /* \"#utility.yul\":1194:1241   */\n      mstore\n        /* \"#utility.yul\":1258:1336   */\n      tag_195\n        /* \"#utility.yul\":1331:1335   */\n      dup2\n        /* \"#utility.yul\":1322:1328   */\n      dup5\n        /* \"#utility.yul\":1258:1336   */\n      tag_142\n      jump\t// in\n    tag_195:\n        /* \"#utility.yul\":1250:1336   */\n      swap1\n      pop\n        /* \"#utility.yul\":1030:1343   */\n      swap3\n      swap2\n      pop\n      pop\n      jump\t// out\n        /* \"#utility.yul\":1430:1547   */\n    tag_144:\n        /* \"#utility.yul\":1539:1540   */\n      0x00\n        /* \"#utility.yul\":1536:1537   */\n      dup1\n        /* \"#utility.yul\":1529:1541   */\n      revert\n        /* \"#utility.yul\":1676:1802   */\n    tag_146:\n        /* \"#utility.yul\":1713:1720   */\n      0x00\n        /* \"#utility.yul\":1753:1795   */\n      0xffffffffffffffffffffffffffffffffffffffff\n        /* \"#utility.yul\":1746:1751   */\n      dup3\n        /* \"#utility.yul\":1742:1796   */\n      and\n        /* \"#utility.yul\":1731:1796   */\n      swap1\n      pop\n        /* \"#utility.yul\":1676:1802   */\n      swap2\n      swap1\n      pop\n      jump\t// out\n        /* \"#utility.yul\":1808:1904   */\n    tag_147:\n        /* \"#utility.yul\":1845:1852   */\n      0x00\n        /* \"#utility.yul\":1874:1898   */\n      tag_201\n        /* \"#utility.yul\":1892:1897   */\n      dup3\n        /* \"#utility.yul\":1874:1898   */\n      tag_146\n      jump\t// in\n    tag_201:\n        /* \"#utility.yul\":1863:1898   */\n      swap1\n      pop\n        /* \"#utility.yul\":1808:1904   */\n      swap2\n      swap1\n      pop\n      jump\t// out\n        /* \"#utility.yul\":1910:2032   */\n    tag_148:\n        /* \"#utility.yul\":1983:2007   */\n      tag_203\n        /* \"#utility.yul\":2001:2006   */\n      dup2\n        /* \"#utility.yul\":1983:2007   */\n      tag_147\n      jump\t// in\n    tag_203:\n        /* \"#utility.yul\":1976:1981   */\n      dup2\n        /* \"#utility.yul\":1973:2008   */\n      eq\n        /* \"#utility.yul\":1963:2026   */\n      tag_204\n      jumpi\n        /* \"#utility.yul\":2022:2023   */\n      0x00\n        /* \"#utility.yul\":2019:2020   */\n      dup1\n        /* \"#utility.yul\":2012:2024   */\n      revert\n        /* \"#utility.yul\":1963:2026   */\n    tag_204:\n        /* \"#utility.yul\":1910:2032   */\n      pop\n      jump\t// out\n        /* \"#utility.yul\":2038:2177   */\n    tag_149:\n        /* \"#utility.yul\":2084:2089   */\n      0x00\n        /* \"#utility.yul\":2122:2128   */\n      dup2\n        /* \"#utility.yul\":2109:2129   */\n      calldataload\n        /* \"#utility.yul\":2100:2129   */\n      swap1\n      pop\n        /* \"#utility.yul\":2138:2171   */\n      tag_206\n        /* \"#utility.yul\":2165:2170   */\n      dup2\n        /* \"#utility.yul\":2138:2171   */\n      tag_148\n      jump\t// in\n    tag_206:\n        /* \"#utility.yul\":2038:2177   */\n      swap3\n      swap2\n      pop\n      pop\n      jump\t// out\n        /* \"#utility.yul\":2183:2260   */\n    tag_150:\n        /* \"#utility.yul\":2220:2227   */\n      0x00\n        /* \"#utility.yul\":2249:2254   */\n      dup2\n        /* \"#utility.yul\":2238:2254   */\n      swap1\n      pop\n        /* \"#utility.yul\":2183:2260   */\n      swap2\n      swap1\n      pop\n      jump\t// out\n        /* \"#utility.yul\":2266:2388   */\n    tag_151:\n        /* \"#utility.yul\":2339:2363   */\n      tag_209\n        /* \"#utility.yul\":2357:2362   */\n      dup2\n        /* \"#utility.yul\":2339:2363   */\n      tag_150\n      jump\t// in\n    tag_209:\n        /* \"#utility.yul\":2332:2337   */\n      dup2\n        /* \"#utility.yul\":2329:2364   */\n      eq\n        /* \"#utility.yul\":2319:2382   */\n      tag_210\n      jumpi\n        /* \"#utility.yul\":2378:2379   */\n      0x00\n        /* \"#utility.yul\":2375:2376   */\n      dup1\n        /* \"#utility.yul\":2368:2380   */\n      revert\n        /* \"#utility.yul\":2319:2382   */\n    tag_210:\n        /* \"#utility.yul\":2266:2388   */\n      pop\n      jump\t// out\n        /* \"#utility.yul\":2394:2533   */\n    tag_152:\n        /* \"#utility.yul\":2440:2445   */\n      0x00\n        /* \"#utility.yul\":2478:2484   */\n      dup2\n        /* \"#utility.yul\":2465:2485   */\n      calldataload\n        /* \"#utility.yul\":2456:2485   */\n      swap1\n      pop\n        /* \"#utility.yul\":2494:2527   */\n      tag_212\n        /* \"#utility.yul\":2521:2526   */\n      dup2\n        /* \"#utility.yul\":2494:2527   */\n      tag_151\n      jump\t// in\n    tag_212:\n        /* \"#utility.yul\":2394:2533   */\n      swap3\n      swap2\n      pop\n      pop\n      jump\t// out\n        /* \"#utility.yul\":2539:3013   */\n    tag_26:\n        /* \"#utility.yul\":2607:2613   */\n      0x00\n        /* \"#utility.yul\":2615:2621   */\n      dup1\n        /* \"#utility.yul\":2664:2666   */\n      0x40\n        /* \"#utility.yul\":2652:2661   */\n      dup4\n        /* \"#utility.yul\":2643:2650   */\n      dup6\n        /* \"#utility.yul\":2639:2662   */\n      sub\n        /* \"#utility.yul\":2635:2667   */\n      slt\n        /* \"#utility.yul\":2632:2751   */\n      iszero\n      tag_214\n      jumpi\n        /* \"#utility.yul\":2670:2749   */\n      tag_215\n      tag_144\n      jump\t// in\n    tag_215:\n        /* \"#utility.yul\":2632:2751   */\n    tag_214:\n        /* \"#utility.yul\":2790:2791   */\n      0x00\n        /* \"#utility.yul\":2815:2868   */\n      tag_216\n        /* \"#utility.yul\":2860:2867   */\n      dup6\n        /* \"#utility.yul\":2851:2857   */\n      dup3\n        /* \"#utility.yul\":2840:2849   */\n      dup7\n        /* \"#utility.yul\":2836:2858   */\n      add\n        /* \"#utility.yul\":2815:2868   */\n      tag_149\n      jump\t// in\n    tag_216:\n        /* \"#utility.yul\":2805:2868   */\n      swap3\n      pop\n        /* \"#utility.yul\":2761:2878   */\n      pop\n        /* \"#utility.yul\":2917:2919   */\n      0x20\n        /* \"#utility.yul\":2943:2996   */\n      tag_217\n        /* \"#utility.yul\":2988:2995   */\n      dup6\n        /* \"#utility.yul\":2979:2985   */\n      dup3\n        /* \"#utility.yul\":2968:2977   */\n      dup7\n        /* \"#utility.yul\":2964:2986   */\n      add\n        /* \"#utility.yul\":2943:2996   */\n      tag_152\n      jump\t// in\n    tag_217:\n        /* \"#utility.yul\":2933:2996   */\n      swap2\n      pop\n        /* \"#utility.yul\":2888:3006   */\n      pop\n        /* \"#utility.yul\":2539:3013   */\n      swap3\n      pop\n      swap3\n      swap1\n      pop\n      jump\t// out\n        /* \"#utility.yul\":3019:3109   */\n    tag_153:\n        /* \"#utility.yul\":3053:3060   */\n      0x00\n        /* \"#utility.yul\":3096:3101   */\n      dup2\n        /* \"#utility.yul\":3089:3102   */\n      iszero\n        /* \"#utility.yul\":3082:3103   */\n      iszero\n        /* \"#utility.yul\":3071:3103   */\n      swap1\n      pop\n        /* \"#utility.yul\":3019:3109   */\n      swap2\n      swap1\n      pop\n      jump\t// out\n        /* \"#utility.yul\":3115:3224   */\n    tag_154:\n        /* \"#utility.yul\":3196:3217   */\n      tag_220\n        /* \"#utility.yul\":3211:3216   */\n      dup2\n        /* \"#utility.yul\":3196:3217   */\n      tag_153\n      jump\t// in\n    tag_220:\n        /* \"#utility.yul\":3191:3194   */\n      dup3\n        /* \"#utility.yul\":3184:3218   */\n      mstore\n        /* \"#utility.yul\":3115:3224   */\n      pop\n      pop\n      jump\t// out\n        /* \"#utility.yul\":3230:3440   */\n    tag_29:\n        /* \"#utility.yul\":3317:3321   */\n      0x00\n        /* \"#utility.yul\":3355:3357   */\n      0x20\n        /* \"#utility.yul\":3344:3353   */\n      dup3\n        /* \"#utility.yul\":3340:3358   */\n      add\n        /* \"#utility.yul\":3332:3358   */\n      swap1\n      pop\n        /* \"#utility.yul\":3368:3433   */\n      tag_222\n        /* \"#utility.yul\":3430:3431   */\n      0x00\n        /* \"#utility.yul\":3419:3428   */\n      dup4\n        /* \"#utility.yul\":3415:3432   */\n      add\n        /* \"#utility.yul\":3406:3412   */\n      dup5\n        /* \"#utility.yul\":3368:3433   */\n      tag_154\n      jump\t// in\n    tag_222:\n        /* \"#utility.yul\":3230:3440   */\n      swap3\n      swap2\n      pop\n      pop\n      jump\t// out\n        /* \"#utility.yul\":3446:3564   */\n    tag_155:\n        /* \"#utility.yul\":3533:3557   */\n      tag_224\n        /* \"#utility.yul\":3551:3556   */\n      dup2\n        /* \"#utility.yul\":3533:3557   */\n      tag_150\n      jump\t// in\n    tag_224:\n        /* \"#utility.yul\":3528:3531   */\n      dup3\n        /* \"#utility.yul\":3521:3558   */\n      mstore\n        /* \"#utility.yul\":3446:3564   */\n      pop\n      pop\n      jump\t// out\n        /* \"#utility.yul\":3570:3792   */\n    tag_33:\n        /* \"#utility.yul\":3663:3667   */\n      0x00\n        /* \"#utility.yul\":3701:3703   */\n      0x20\n        /* \"#utility.yul\":3690:3699   */\n      dup3\n        /* \"#utility.yul\":3686:3704   */\n      add\n        /* \"#utility.yul\":3678:3704   */\n      swap1\n      pop\n        /* \"#utility.yul\":3714:3785   */\n      tag_226\n        /* \"#utility.yul\":3782:3783   */\n      0x00\n        /* \"#utility.yul\":3771:3780   */\n      dup4\n        /* \"#utility.yul\":3767:3784   */\n      add\n        /* \"#utility.yul\":3758:3764   */\n      dup5\n        /* \"#utility.yul\":3714:3785   */\n      tag_155\n      jump\t// in\n    tag_226:\n        /* \"#utility.yul\":3570:3792   */\n      swap3\n      swap2\n      pop\n      pop\n      jump\t// out\n        /* \"#utility.yul\":3798:4417   */\n    tag_39:\n        /* \"#utility.yul\":3875:3881   */\n      0x00\n        /* \"#utility.yul\":3883:3889   */\n      dup1\n        /* \"#utility.yul\":3891:3897   */\n      0x00\n        /* \"#utility.yul\":3940:3942   */\n      0x60\n        /* \"#utility.yul\":3928:3937   */\n      dup5\n        /* \"#utility.yul\":3919:3926   */\n      dup7\n        /* \"#utility.yul\":3915:3938   */\n      sub\n        /* \"#utility.yul\":3911:3943   */\n      slt\n        /* \"#utility.yul\":3908:4027   */\n      iszero\n      tag_228\n      jumpi\n        /* \"#utility.yul\":3946:4025   */\n      tag_229\n      tag_144\n      jump\t// in\n    tag_229:\n        /* \"#utility.yul\":3908:4027   */\n    tag_228:\n        /* \"#utility.yul\":4066:4067   */\n      0x00\n        /* \"#utility.yul\":4091:4144   */\n      tag_230\n        /* \"#utility.yul\":4136:4143   */\n      dup7\n        /* \"#utility.yul\":4127:4133   */\n      dup3\n        /* \"#utility.yul\":4116:4125   */\n      dup8\n        /* \"#utility.yul\":4112:4134   */\n      add\n        /* \"#utility.yul\":4091:4144   */\n      tag_149\n      jump\t// in\n    tag_230:\n        /* \"#utility.yul\":4081:4144   */\n      swap4\n      pop\n        /* \"#utility.yul\":4037:4154   */\n      pop\n        /* \"#utility.yul\":4193:4195   */\n      0x20\n        /* \"#utility.yul\":4219:4272   */\n      tag_231\n        /* \"#utility.yul\":4264:4271   */\n      dup7\n        /* \"#utility.yul\":4255:4261   */\n      dup3\n        /* \"#utility.yul\":4244:4253   */\n      dup8\n        /* \"#utility.yul\":4240:4262   */\n      add\n        /* \"#utility.yul\":4219:4272   */\n      tag_149\n      jump\t// in\n    tag_231:\n        /* \"#utility.yul\":4209:4272   */\n      swap3\n      pop\n        /* \"#utility.yul\":4164:4282   */\n      pop\n        /* \"#utility.yul\":4321:4323   */\n      0x40\n        /* \"#utility.yul\":4347:4400   */\n      tag_232\n        /* \"#utility.yul\":4392:4399   */\n      dup7\n        /* \"#utility.yul\":4383:4389   */\n      dup3\n        /* \"#utility.yul\":4372:4381   */\n      dup8\n        /* \"#utility.yul\":4368:4390   */\n      add\n        /* \"#utility.yul\":4347:4400   */\n      tag_152\n      jump\t// in\n    tag_232:\n        /* \"#utility.yul\":4337:4400   */\n      swap2\n      pop\n        /* \"#utility.yul\":4292:4410   */\n      pop\n        /* \"#utility.yul\":3798:4417   */\n      swap3\n      pop\n      swap3\n      pop\n      swap3\n      jump\t// out\n        /* \"#utility.yul\":4423:4509   */\n    tag_156:\n        /* \"#utility.yul\":4458:4465   */\n      0x00\n        /* \"#utility.yul\":4498:4502   */\n      0xff\n        /* \"#utility.yul\":4491:4496   */\n      dup3\n        /* \"#utility.yul\":4487:4503   */\n      and\n        /* \"#utility.yul\":4476:4503   */\n      swap1\n      pop\n        /* \"#utility.yul\":4423:4509   */\n      swap2\n      swap1\n      pop\n      jump\t// out\n        /* \"#utility.yul\":4515:4627   */\n    tag_157:\n        /* \"#utility.yul\":4598:4620   */\n      tag_235\n        /* \"#utility.yul\":4614:4619   */\n      dup2\n        /* \"#utility.yul\":4598:4620   */\n      tag_156\n      jump\t// in\n    tag_235:\n        /* \"#utility.yul\":4593:4596   */\n      dup3\n        /* \"#utility.yul\":4586:4621   */\n      mstore\n        /* \"#utility.yul\":4515:4627   */\n      pop\n      pop\n      jump\t// out\n        /* \"#utility.yul\":4633:4847   */\n    tag_45:\n        /* \"#utility.yul\":4722:4726   */\n      0x00\n        /* \"#utility.yul\":4760:4762   */\n      0x20\n        /* \"#utility.yul\":4749:4758   */\n      dup3\n        /* \"#utility.yul\":4745:4763   */\n      add\n        /* \"#utility.yul\":4737:4763   */\n      swap1\n      pop\n        /* \"#utility.yul\":4773:4840   */\n      tag_237\n        /* \"#utility.yul\":4837:4838   */\n      0x00\n        /* \"#utility.yul\":4826:4835   */\n      dup4\n        /* \"#utility.yul\":4822:4839   */\n      add\n        /* \"#utility.yul\":4813:4819   */\n      dup5\n        /* \"#utility.yul\":4773:4840   */\n      tag_157\n      jump\t// in\n    tag_237:\n        /* \"#utility.yul\":4633:4847   */\n      swap3\n      swap2\n      pop\n      pop\n      jump\t// out\n        /* \"#utility.yul\":4853:4930   */\n    tag_158:\n        /* \"#utility.yul\":4890:4897   */\n      0x00\n        /* \"#utility.yul\":4919:4924   */\n      dup2\n        /* \"#utility.yul\":4908:4924   */\n      swap1\n      pop\n        /* \"#utility.yul\":4853:4930   */\n      swap2\n      swap1\n      pop\n      jump\t// out\n        /* \"#utility.yul\":4936:5054   */\n    tag_159:\n        /* \"#utility.yul\":5023:5047   */\n      tag_240\n        /* \"#utility.yul\":5041:5046   */\n      dup2\n        /* \"#utility.yul\":5023:5047   */\n      tag_158\n      jump\t// in\n    tag_240:\n        /* \"#utility.yul\":5018:5021   */\n      dup3\n        /* \"#utility.yul\":5011:5048   */\n      mstore\n        /* \"#utility.yul\":4936:5054   */\n      pop\n      pop\n      jump\t// out\n        /* \"#utility.yul\":5060:5282   */\n    tag_49:\n        /* \"#utility.yul\":5153:5157   */\n      0x00\n        /* \"#utility.yul\":5191:5193   */\n      0x20\n        /* \"#utility.yul\":5180:5189   */\n      dup3\n        /* \"#utility.yul\":5176:5194   */\n      add\n        /* \"#utility.yul\":5168:5194   */\n      swap1\n      pop\n        /* \"#utility.yul\":5204:5275   */\n      tag_242\n        /* \"#utility.yul\":5272:5273   */\n      0x00\n        /* \"#utility.yul\":5261:5270   */\n      dup4\n        /* \"#utility.yul\":5257:5274   */\n      add\n        /* \"#utility.yul\":5248:5254   */\n      dup5\n        /* \"#utility.yul\":5204:5275   */\n      tag_159\n      jump\t// in\n    tag_242:\n        /* \"#utility.yul\":5060:5282   */\n      swap3\n      swap2\n      pop\n      pop\n      jump\t// out\n        /* \"#utility.yul\":5288:5617   */\n    tag_55:\n        /* \"#utility.yul\":5347:5353   */\n      0x00\n        /* \"#utility.yul\":5396:5398   */\n      0x20\n        /* \"#utility.yul\":5384:5393   */\n      dup3\n        /* \"#utility.yul\":5375:5382   */\n      dup5\n        /* \"#utility.yul\":5371:5394   */\n      sub\n        /* \"#utility.yul\":5367:5399   */\n      slt\n        /* \"#utility.yul\":5364:5483   */\n      iszero\n      tag_244\n      jumpi\n        /* \"#utility.yul\":5402:5481   */\n      tag_245\n      tag_144\n      jump\t// in\n    tag_245:\n        /* \"#utility.yul\":5364:5483   */\n    tag_244:\n        /* \"#utility.yul\":5522:5523   */\n      0x00\n        /* \"#utility.yul\":5547:5600   */\n      tag_246\n        /* \"#utility.yul\":5592:5599   */\n      dup5\n        /* \"#utility.yul\":5583:5589   */\n      dup3\n        /* \"#utility.yul\":5572:5581   */\n      dup6\n        /* \"#utility.yul\":5568:5590   */\n      add\n        /* \"#utility.yul\":5547:5600   */\n      tag_149\n      jump\t// in\n    tag_246:\n        /* \"#utility.yul\":5537:5600   */\n      swap2\n      pop\n        /* \"#utility.yul\":5493:5610   */\n      pop\n        /* \"#utility.yul\":5288:5617   */\n      swap3\n      swap2\n      pop\n      pop\n      jump\t// out\n        /* \"#utility.yul\":5623:5741   */\n    tag_160:\n        /* \"#utility.yul\":5694:5716   */\n      tag_248\n        /* \"#utility.yul\":5710:5715   */\n      dup2\n        /* \"#utility.yul\":5694:5716   */\n      tag_156\n      jump\t// in\n    tag_248:\n        /* \"#utility.yul\":5687:5692   */\n      dup2\n        /* \"#utility.yul\":5684:5717   */\n      eq\n        /* \"#utility.yul\":5674:5735   */\n      tag_249\n      jumpi\n        /* \"#utility.yul\":5731:5732   */\n      0x00\n        /* \"#utility.yul\":5728:5729   */\n      dup1\n        /* \"#utility.yul\":5721:5733   */\n      revert\n        /* \"#utility.yul\":5674:5735   */\n    tag_249:\n        /* \"#utility.yul\":5623:5741   */\n      pop\n      jump\t// out\n        /* \"#utility.yul\":5747:5882   */\n    tag_161:\n        /* \"#utility.yul\":5791:5796   */\n      0x00\n        /* \"#utility.yul\":5829:5835   */\n      dup2\n        /* \"#utility.yul\":5816:5836   */\n      calldataload\n        /* \"#utility.yul\":5807:5836   */\n      swap1\n      pop\n        /* \"#utility.yul\":5845:5876   */\n      tag_251\n        /* \"#utility.yul\":5870:5875   */\n      dup2\n        /* \"#utility.yul\":5845:5876   */\n      tag_160\n      jump\t// in\n    tag_251:\n        /* \"#utility.yul\":5747:5882   */\n      swap3\n      swap2\n      pop\n      pop\n      jump\t// out\n        /* \"#utility.yul\":5888:6010   */\n    tag_162:\n        /* \"#utility.yul\":5961:5985   */\n      tag_253\n        /* \"#utility.yul\":5979:5984   */\n      dup2\n        /* \"#utility.yul\":5961:5985   */\n      tag_158\n      jump\t// in\n    tag_253:\n        /* \"#utility.yul\":5954:5959   */\n      dup2\n        /* \"#utility.yul\":5951:5986   */\n      eq\n        /* \"#utility.yul\":5941:6004   */\n      tag_254\n      jumpi\n        /* \"#utility.yul\":6000:6001   */\n      0x00\n        /* \"#utility.yul\":5997:5998   */\n      dup1\n        /* \"#utility.yul\":5990:6002   */\n      revert\n        /* \"#utility.yul\":5941:6004   */\n    tag_254:\n        /* \"#utility.yul\":5888:6010   */\n      pop\n      jump\t// out\n        /* \"#utility.yul\":6016:6155   */\n    tag_163:\n        /* \"#utility.yul\":6062:6067   */\n      0x00\n        /* \"#utility.yul\":6100:6106   */\n      dup2\n        /* \"#utility.yul\":6087:6107   */\n      calldataload\n        /* \"#utility.yul\":6078:6107   */\n      swap1\n      pop\n        /* \"#utility.yul\":6116:6149   */\n      tag_256\n        /* \"#utility.yul\":6143:6148   */\n      dup2\n        /* \"#utility.yul\":6116:6149   */\n      tag_162\n      jump\t// in\n    tag_256:\n        /* \"#utility.yul\":6016:6155   */\n      swap3\n      swap2\n      pop\n      pop\n      jump\t// out\n        /* \"#utility.yul\":6161:7360   */\n    tag_71:\n        /* \"#utility.yul\":6272:6278   */\n      0x00\n        /* \"#utility.yul\":6280:6286   */\n      dup1\n        /* \"#utility.yul\":6288:6294   */\n      0x00\n        /* \"#utility.yul\":6296:6302   */\n      dup1\n        /* \"#utility.yul\":6304:6310   */\n      0x00\n        /* \"#utility.yul\":6312:6318   */\n      dup1\n        /* \"#utility.yul\":6320:6326   */\n      0x00\n        /* \"#utility.yul\":6369:6372   */\n      0xe0\n        /* \"#utility.yul\":6357:6366   */\n      dup9\n        /* \"#utility.yul\":6348:6355   */\n      dup11\n        /* \"#utility.yul\":6344:6367   */\n      sub\n        /* \"#utility.yul\":6340:6373   */\n      slt\n        /* \"#utility.yul\":6337:6457   */\n      iszero\n      tag_258\n      jumpi\n        /* \"#utility.yul\":6376:6455   */\n      tag_259\n      tag_144\n      jump\t// in\n    tag_259:\n        /* \"#utility.yul\":6337:6457   */\n    tag_258:\n        /* \"#utility.yul\":6496:6497   */\n      0x00\n        /* \"#utility.yul\":6521:6574   */\n      tag_260\n        /* \"#utility.yul\":6566:6573   */\n      dup11\n        /* \"#utility.yul\":6557:6563   */\n      dup3\n        /* \"#utility.yul\":6546:6555   */\n      dup12\n        /* \"#utility.yul\":6542:6564   */\n      add\n        /* \"#utility.yul\":6521:6574   */\n      tag_149\n      jump\t// in\n    tag_260:\n        /* \"#utility.yul\":6511:6574   */\n      swap8\n      pop\n        /* \"#utility.yul\":6467:6584   */\n      pop\n        /* \"#utility.yul\":6623:6625   */\n      0x20\n        /* \"#utility.yul\":6649:6702   */\n      tag_261\n        /* \"#utility.yul\":6694:6701   */\n      dup11\n        /* \"#utility.yul\":6685:6691   */\n      dup3\n        /* \"#utility.yul\":6674:6683   */\n      dup12\n        /* \"#utility.yul\":6670:6692   */\n      add\n        /* \"#utility.yul\":6649:6702   */\n      tag_149\n      jump\t// in\n    tag_261:\n        /* \"#utility.yul\":6639:6702   */\n      swap7\n      pop\n        /* \"#utility.yul\":6594:6712   */\n      pop\n        /* \"#utility.yul\":6751:6753   */\n      0x40\n        /* \"#utility.yul\":6777:6830   */\n      tag_262\n        /* \"#utility.yul\":6822:6829   */\n      dup11\n        /* \"#utility.yul\":6813:6819   */\n      dup3\n        /* \"#utility.yul\":6802:6811   */\n      dup12\n        /* \"#utility.yul\":6798:6820   */\n      add\n        /* \"#utility.yul\":6777:6830   */\n      tag_152\n      jump\t// in\n    tag_262:\n        /* \"#utility.yul\":6767:6830   */\n      swap6\n      pop\n        /* \"#utility.yul\":6722:6840   */\n      pop\n        /* \"#utility.yul\":6879:6881   */\n      0x60\n        /* \"#utility.yul\":6905:6958   */\n      tag_263\n        /* \"#utility.yul\":6950:6957   */\n      dup11\n        /* \"#utility.yul\":6941:6947   */\n      dup3\n        /* \"#utility.yul\":6930:6939   */\n      dup12\n        /* \"#utility.yul\":6926:6948   */\n      add\n        /* \"#utility.yul\":6905:6958   */\n      tag_152\n      jump\t// in\n    tag_263:\n        /* \"#utility.yul\":6895:6958   */\n      swap5\n      pop\n        /* \"#utility.yul\":6850:6968   */\n      pop\n        /* \"#utility.yul\":7007:7010   */\n      0x80\n        /* \"#utility.yul\":7034:7085   */\n      tag_264\n        /* \"#utility.yul\":7077:7084   */\n      dup11\n        /* \"#utility.yul\":7068:7074   */\n      dup3\n        /* \"#utility.yul\":7057:7066   */\n      dup12\n        /* \"#utility.yul\":7053:7075   */\n      add\n        /* \"#utility.yul\":7034:7085   */\n      tag_161\n      jump\t// in\n    tag_264:\n        /* \"#utility.yul\":7024:7085   */\n      swap4\n      pop\n        /* \"#utility.yul\":6978:7095   */\n      pop\n        /* \"#utility.yul\":7134:7137   */\n      0xa0\n        /* \"#utility.yul\":7161:7214   */\n      tag_265\n        /* \"#utility.yul\":7206:7213   */\n      dup11\n        /* \"#utility.yul\":7197:7203   */\n      dup3\n        /* \"#utility.yul\":7186:7195   */\n      dup12\n        /* \"#utility.yul\":7182:7204   */\n      add\n        /* \"#utility.yul\":7161:7214   */\n      tag_163\n      jump\t// in\n    tag_265:\n        /* \"#utility.yul\":7151:7214   */\n      swap3\n      pop\n        /* \"#utility.yul\":7105:7224   */\n      pop\n        /* \"#utility.yul\":7263:7266   */\n      0xc0\n        /* \"#utility.yul\":7290:7343   */\n      tag_266\n        /* \"#utility.yul\":7335:7342   */\n      dup11\n        /* \"#utility.yul\":7326:7332   */\n      dup3\n        /* \"#utility.yul\":7315:7324   */\n      dup12\n        /* \"#utility.yul\":7311:7333   */\n      add\n        /* \"#utility.yul\":7290:7343   */\n      tag_163\n      jump\t// in\n    tag_266:\n        /* \"#utility.yul\":7280:7343   */\n      swap2\n      pop\n        /* \"#utility.yul\":7234:7353   */\n      pop\n        /* \"#utility.yul\":6161:7360   */\n      swap3\n      swap6\n      swap9\n      swap2\n      swap5\n      swap8\n      pop\n      swap3\n      swap6\n      pop\n      jump\t// out\n        /* \"#utility.yul\":7366:7840   */\n    tag_75:\n        /* \"#utility.yul\":7434:7440   */\n      0x00\n        /* \"#utility.yul\":7442:7448   */\n      dup1\n        /* \"#utility.yul\":7491:7493   */\n      0x40\n        /* \"#utility.yul\":7479:7488   */\n      dup4\n        /* \"#utility.yul\":7470:7477   */\n      dup6\n        /* \"#utility.yul\":7466:7489   */\n      sub\n        /* \"#utility.yul\":7462:7494   */\n      slt\n        /* \"#utility.yul\":7459:7578   */\n      iszero\n      tag_268\n      jumpi\n        /* \"#utility.yul\":7497:7576   */\n      tag_269\n      tag_144\n      jump\t// in\n    tag_269:\n        /* \"#utility.yul\":7459:7578   */\n    tag_268:\n        /* \"#utility.yul\":7617:7618   */\n      0x00\n        /* \"#utility.yul\":7642:7695   */\n      tag_270\n        /* \"#utility.yul\":7687:7694   */\n      dup6\n        /* \"#utility.yul\":7678:7684   */\n      dup3\n        /* \"#utility.yul\":7667:7676   */\n      dup7\n        /* \"#utility.yul\":7663:7685   */\n      add\n        /* \"#utility.yul\":7642:7695   */\n      tag_149\n      jump\t// in\n    tag_270:\n        /* \"#utility.yul\":7632:7695   */\n      swap3\n      pop\n        /* \"#utility.yul\":7588:7705   */\n      pop\n        /* \"#utility.yul\":7744:7746   */\n      0x20\n        /* \"#utility.yul\":7770:7823   */\n      tag_271\n        /* \"#utility.yul\":7815:7822   */\n      dup6\n        /* \"#utility.yul\":7806:7812   */\n      dup3\n        /* \"#utility.yul\":7795:7804   */\n      dup7\n        /* \"#utility.yul\":7791:7813   */\n      add\n        /* \"#utility.yul\":7770:7823   */\n      tag_149\n      jump\t// in\n    tag_271:\n        /* \"#utility.yul\":7760:7823   */\n      swap2\n      pop\n        /* \"#utility.yul\":7715:7833   */\n      pop\n        /* \"#utility.yul\":7366:7840   */\n      swap3\n      pop\n      swap3\n      swap1\n      pop\n      jump\t// out\n        /* \"#utility.yul\":7846:8026   */\n    tag_164:\n        /* \"#utility.yul\":7894:7971   */\n      0x4e487b7100000000000000000000000000000000000000000000000000000000\n        /* \"#utility.yul\":7891:7892   */\n      0x00\n        /* \"#utility.yul\":7884:7972   */\n      mstore\n        /* \"#utility.yul\":7991:7995   */\n      0x22\n        /* \"#utility.yul\":7988:7989   */\n      0x04\n        /* \"#utility.yul\":7981:7996   */\n      mstore\n        /* \"#utility.yul\":8015:8019   */\n      0x24\n        /* \"#utility.yul\":8012:8013   */\n      0x00\n        /* \"#utility.yul\":8005:8020   */\n      revert\n        /* \"#utility.yul\":8032:8352   */\n    tag_79:\n        /* \"#utility.yul\":8076:8082   */\n      0x00\n        /* \"#utility.yul\":8113:8114   */\n      0x02\n        /* \"#utility.yul\":8107:8111   */\n      dup3\n        /* \"#utility.yul\":8103:8115   */\n      div\n        /* \"#utility.yul\":8093:8115   */\n      swap1\n      pop\n        /* \"#utility.yul\":8160:8161   */\n      0x01\n        /* \"#utility.yul\":8154:8158   */\n      dup3\n        /* \"#utility.yul\":8150:8162   */\n      and\n        /* \"#utility.yul\":8181:8199   */\n      dup1\n        /* \"#utility.yul\":8171:8252   */\n      tag_274\n      jumpi\n        /* \"#utility.yul\":8237:8241   */\n      0x7f\n        /* \"#utility.yul\":8229:8235   */\n      dup3\n        /* \"#utility.yul\":8225:8242   */\n      and\n        /* \"#utility.yul\":8215:8242   */\n      swap2\n      pop\n        /* \"#utility.yul\":8171:8252   */\n    tag_274:\n        /* \"#utility.yul\":8299:8301   */\n      0x20\n        /* \"#utility.yul\":8291:8297   */\n      dup3\n        /* \"#utility.yul\":8288:8302   */\n      lt\n        /* \"#utility.yul\":8268:8286   */\n      dup2\n        /* \"#utility.yul\":8265:8303   */\n      sub\n        /* \"#utility.yul\":8262:8346   */\n      tag_275\n      jumpi\n        /* \"#utility.yul\":8318:8336   */\n      tag_276\n      tag_164\n      jump\t// in\n    tag_276:\n        /* \"#utility.yul\":8262:8346   */\n    tag_275:\n        /* \"#utility.yul\":8083:8352   */\n      pop\n        /* \"#utility.yul\":8032:8352   */\n      swap2\n      swap1\n      pop\n      jump\t// out\n        /* \"#utility.yul\":8358:8538   */\n    tag_165:\n        /* \"#utility.yul\":8406:8483   */\n      0x4e487b7100000000000000000000000000000000000000000000000000000000\n        /* \"#utility.yul\":8403:8404   */\n      0x00\n        /* \"#utility.yul\":8396:8484   */\n      mstore\n        /* \"#utility.yul\":8503:8507   */\n      0x11\n        /* \"#utility.yul\":8500:8501   */\n      0x04\n        /* \"#utility.yul\":8493:8508   */\n      mstore\n        /* \"#utility.yul\":8527:8531   */\n      0x24\n        /* \"#utility.yul\":8524:8525   */\n      0x00\n        /* \"#utility.yul\":8517:8532   */\n      revert\n        /* \"#utility.yul\":8544:8738   */\n    tag_89:\n        /* \"#utility.yul\":8584:8588   */\n      0x00\n        /* \"#utility.yul\":8604:8624   */\n      tag_279\n        /* \"#utility.yul\":8622:8623   */\n      dup3\n        /* \"#utility.yul\":8604:8624   */\n      tag_150\n      jump\t// in\n    tag_279:\n        /* \"#utility.yul\":8599:8624   */\n      swap2\n      pop\n        /* \"#utility.yul\":8638:8658   */\n      tag_280\n        /* \"#utility.yul\":8656:8657   */\n      dup4\n        /* \"#utility.yul\":8638:8658   */\n      tag_150\n      jump\t// in\n    tag_280:\n        /* \"#utility.yul\":8633:8658   */\n      swap3\n      pop\n        /* \"#utility.yul\":8682:8683   */\n      dup3\n        /* \"#utility.yul\":8679:8680   */\n      dup3\n        /* \"#utility.yul\":8675:8684   */\n      sub\n        /* \"#utility.yul\":8667:8684   */\n      swap1\n      pop\n        /* \"#utility.yul\":8706:8707   */\n      dup2\n        /* \"#utility.yul\":8700:8704   */\n      dup2\n        /* \"#utility.yul\":8697:8708   */\n      gt\n        /* \"#utility.yul\":8694:8731   */\n      iszero\n      tag_281\n      jumpi\n        /* \"#utility.yul\":8711:8729   */\n      tag_282\n      tag_165\n      jump\t// in\n    tag_282:\n        /* \"#utility.yul\":8694:8731   */\n    tag_281:\n        /* \"#utility.yul\":8544:8738   */\n      swap3\n      swap2\n      pop\n      pop\n      jump\t// out\n        /* \"#utility.yul\":8744:8917   */\n    tag_166:\n        /* \"#utility.yul\":8884:8909   */\n      0x5045524d49545f444541444c494e455f45585049524544000000000000000000\n        /* \"#utility.yul\":8880:8881   */\n      0x00\n        /* \"#utility.yul\":8872:8878   */\n      dup3\n        /* \"#utility.yul\":8868:8882   */\n      add\n        /* \"#utility.yul\":8861:8910   */\n      mstore\n        /* \"#utility.yul\":8744:8917   */\n      pop\n      jump\t// out\n        /* \"#utility.yul\":8923:9289   */\n    tag_167:\n        /* \"#utility.yul\":9065:9068   */\n      0x00\n        /* \"#utility.yul\":9086:9153   */\n      tag_285\n        /* \"#utility.yul\":9150:9152   */\n      0x17\n        /* \"#utility.yul\":9145:9148   */\n      dup4\n        /* \"#utility.yul\":9086:9153   */\n      tag_139\n      jump\t// in\n    tag_285:\n        /* \"#utility.yul\":9079:9153   */\n      swap2\n      pop\n        /* \"#utility.yul\":9162:9255   */\n      tag_286\n        /* \"#utility.yul\":9251:9254   */\n      dup3\n        /* \"#utility.yul\":9162:9255   */\n      tag_166\n      jump\t// in\n    tag_286:\n        /* \"#utility.yul\":9280:9282   */\n      0x20\n        /* \"#utility.yul\":9275:9278   */\n      dup3\n        /* \"#utility.yul\":9271:9283   */\n      add\n        /* \"#utility.yul\":9264:9283   */\n      swap1\n      pop\n        /* \"#utility.yul\":8923:9289   */\n      swap2\n      swap1\n      pop\n      jump\t// out\n        /* \"#utility.yul\":9295:9714   */\n    tag_111:\n        /* \"#utility.yul\":9461:9465   */\n      0x00\n        /* \"#utility.yul\":9499:9501   */\n      0x20\n        /* \"#utility.yul\":9488:9497   */\n      dup3\n        /* \"#utility.yul\":9484:9502   */\n      add\n        /* \"#utility.yul\":9476:9502   */\n      swap1\n      pop\n        /* \"#utility.yul\":9548:9557   */\n      dup2\n        /* \"#utility.yul\":9542:9546   */\n      dup2\n        /* \"#utility.yul\":9538:9558   */\n      sub\n        /* \"#utility.yul\":9534:9535   */\n      0x00\n        /* \"#utility.yul\":9523:9532   */\n      dup4\n        /* \"#utility.yul\":9519:9536   */\n      add\n        /* \"#utility.yul\":9512:9559   */\n      mstore\n        /* \"#utility.yul\":9576:9707   */\n      tag_288\n        /* \"#utility.yul\":9702:9706   */\n      dup2\n        /* \"#utility.yul\":9576:9707   */\n      tag_167\n      jump\t// in\n    tag_288:\n        /* \"#utility.yul\":9568:9707   */\n      swap1\n      pop\n        /* \"#utility.yul\":9295:9714   */\n      swap2\n      swap1\n      pop\n      jump\t// out\n        /* \"#utility.yul\":9720:9838   */\n    tag_168:\n        /* \"#utility.yul\":9807:9831   */\n      tag_290\n        /* \"#utility.yul\":9825:9830   */\n      dup2\n        /* \"#utility.yul\":9807:9831   */\n      tag_147\n      jump\t// in\n    tag_290:\n        /* \"#utility.yul\":9802:9805   */\n      dup3\n        /* \"#utility.yul\":9795:9832   */\n      mstore\n        /* \"#utility.yul\":9720:9838   */\n      pop\n      pop\n      jump\t// out\n        /* \"#utility.yul\":9844:10508   */\n    tag_114:\n        /* \"#utility.yul\":10049:10053   */\n      0x00\n        /* \"#utility.yul\":10087:10090   */\n      0xa0\n        /* \"#utility.yul\":10076:10085   */\n      dup3\n        /* \"#utility.yul\":10072:10091   */\n      add\n        /* \"#utility.yul\":10064:10091   */\n      swap1\n      pop\n        /* \"#utility.yul\":10101:10172   */\n      tag_292\n        /* \"#utility.yul\":10169:10170   */\n      0x00\n        /* \"#utility.yul\":10158:10167   */\n      dup4\n        /* \"#utility.yul\":10154:10171   */\n      add\n        /* \"#utility.yul\":10145:10151   */\n      dup9\n        /* \"#utility.yul\":10101:10172   */\n      tag_159\n      jump\t// in\n    tag_292:\n        /* \"#utility.yul\":10182:10254   */\n      tag_293\n        /* \"#utility.yul\":10250:10252   */\n      0x20\n        /* \"#utility.yul\":10239:10248   */\n      dup4\n        /* \"#utility.yul\":10235:10253   */\n      add\n        /* \"#utility.yul\":10226:10232   */\n      dup8\n        /* \"#utility.yul\":10182:10254   */\n      tag_168\n      jump\t// in\n    tag_293:\n        /* \"#utility.yul\":10264:10336   */\n      tag_294\n        /* \"#utility.yul\":10332:10334   */\n      0x40\n        /* \"#utility.yul\":10321:10330   */\n      dup4\n        /* \"#utility.yul\":10317:10335   */\n      add\n        /* \"#utility.yul\":10308:10314   */\n      dup7\n        /* \"#utility.yul\":10264:10336   */\n      tag_168\n      jump\t// in\n    tag_294:\n        /* \"#utility.yul\":10346:10418   */\n      tag_295\n        /* \"#utility.yul\":10414:10416   */\n      0x60\n        /* \"#utility.yul\":10403:10412   */\n      dup4\n        /* \"#utility.yul\":10399:10417   */\n      add\n        /* \"#utility.yul\":10390:10396   */\n      dup6\n        /* \"#utility.yul\":10346:10418   */\n      tag_155\n      jump\t// in\n    tag_295:\n        /* \"#utility.yul\":10428:10501   */\n      tag_296\n        /* \"#utility.yul\":10496:10499   */\n      0x80\n        /* \"#utility.yul\":10485:10494   */\n      dup4\n        /* \"#utility.yul\":10481:10500   */\n      add\n        /* \"#utility.yul\":10472:10478   */\n      dup5\n        /* \"#utility.yul\":10428:10501   */\n      tag_155\n      jump\t// in\n    tag_296:\n        /* \"#utility.yul\":9844:10508   */\n      swap7\n      swap6\n      pop\n      pop\n      pop\n      pop\n      pop\n      pop\n      jump\t// out\n        /* \"#utility.yul\":10514:10662   */\n    tag_169:\n        /* \"#utility.yul\":10616:10627   */\n      0x00\n        /* \"#utility.yul\":10653:10656   */\n      dup2\n        /* \"#utility.yul\":10638:10656   */\n      swap1\n      pop\n        /* \"#utility.yul\":10514:10662   */\n      swap3\n      swap2\n      pop\n      pop\n      jump\t// out\n        /* \"#utility.yul\":10668:10882   */\n    tag_170:\n        /* \"#utility.yul\":10808:10874   */\n      0x1901000000000000000000000000000000000000000000000000000000000000\n        /* \"#utility.yul\":10804:10805   */\n      0x00\n        /* \"#utility.yul\":10796:10802   */\n      dup3\n        /* \"#utility.yul\":10792:10806   */\n      add\n        /* \"#utility.yul\":10785:10875   */\n      mstore\n        /* \"#utility.yul\":10668:10882   */\n      pop\n      jump\t// out\n        /* \"#utility.yul\":10888:11288   */\n    tag_171:\n        /* \"#utility.yul\":11048:11051   */\n      0x00\n        /* \"#utility.yul\":11069:11153   */\n      tag_300\n        /* \"#utility.yul\":11151:11152   */\n      0x02\n        /* \"#utility.yul\":11146:11149   */\n      dup4\n        /* \"#utility.yul\":11069:11153   */\n      tag_169\n      jump\t// in\n    tag_300:\n        /* \"#utility.yul\":11062:11153   */\n      swap2\n      pop\n        /* \"#utility.yul\":11162:11255   */\n      tag_301\n        /* \"#utility.yul\":11251:11254   */\n      dup3\n        /* \"#utility.yul\":11162:11255   */\n      tag_170\n      jump\t// in\n    tag_301:\n        /* \"#utility.yul\":11280:11281   */\n      0x02\n        /* \"#utility.yul\":11275:11278   */\n      dup3\n        /* \"#utility.yul\":11271:11282   */\n      add\n        /* \"#utility.yul\":11264:11282   */\n      swap1\n      pop\n        /* \"#utility.yul\":10888:11288   */\n      swap2\n      swap1\n      pop\n      jump\t// out\n        /* \"#utility.yul\":11294:11373   */\n    tag_172:\n        /* \"#utility.yul\":11333:11340   */\n      0x00\n        /* \"#utility.yul\":11362:11367   */\n      dup2\n        /* \"#utility.yul\":11351:11367   */\n      swap1\n      pop\n        /* \"#utility.yul\":11294:11373   */\n      swap2\n      swap1\n      pop\n      jump\t// out\n        /* \"#utility.yul\":11379:11536   */\n    tag_173:\n        /* \"#utility.yul\":11484:11529   */\n      tag_304\n        /* \"#utility.yul\":11504:11528   */\n      tag_305\n        /* \"#utility.yul\":11522:11527   */\n      dup3\n        /* \"#utility.yul\":11504:11528   */\n      tag_158\n      jump\t// in\n    tag_305:\n        /* \"#utility.yul\":11484:11529   */\n      tag_172\n      jump\t// in\n    tag_304:\n        /* \"#utility.yul\":11479:11482   */\n      dup3\n        /* \"#utility.yul\":11472:11530   */\n      mstore\n        /* \"#utility.yul\":11379:11536   */\n      pop\n      pop\n      jump\t// out\n        /* \"#utility.yul\":11542:12205   */\n    tag_116:\n        /* \"#utility.yul\":11783:11786   */\n      0x00\n        /* \"#utility.yul\":11805:11953   */\n      tag_307\n        /* \"#utility.yul\":11949:11952   */\n      dup3\n        /* \"#utility.yul\":11805:11953   */\n      tag_171\n      jump\t// in\n    tag_307:\n        /* \"#utility.yul\":11798:11953   */\n      swap2\n      pop\n        /* \"#utility.yul\":11963:12038   */\n      tag_308\n        /* \"#utility.yul\":12034:12037   */\n      dup3\n        /* \"#utility.yul\":12025:12031   */\n      dup6\n        /* \"#utility.yul\":11963:12038   */\n      tag_173\n      jump\t// in\n    tag_308:\n        /* \"#utility.yul\":12063:12065   */\n      0x20\n        /* \"#utility.yul\":12058:12061   */\n      dup3\n        /* \"#utility.yul\":12054:12066   */\n      add\n        /* \"#utility.yul\":12047:12066   */\n      swap2\n      pop\n        /* \"#utility.yul\":12076:12151   */\n      tag_309\n        /* \"#utility.yul\":12147:12150   */\n      dup3\n        /* \"#utility.yul\":12138:12144   */\n      dup5\n        /* \"#utility.yul\":12076:12151   */\n      tag_173\n      jump\t// in\n    tag_309:\n        /* \"#utility.yul\":12176:12178   */\n      0x20\n        /* \"#utility.yul\":12171:12174   */\n      dup3\n        /* \"#utility.yul\":12167:12179   */\n      add\n        /* \"#utility.yul\":12160:12179   */\n      swap2\n      pop\n        /* \"#utility.yul\":12196:12199   */\n      dup2\n        /* \"#utility.yul\":12189:12199   */\n      swap1\n      pop\n        /* \"#utility.yul\":11542:12205   */\n      swap4\n      swap3\n      pop\n      pop\n      pop\n      jump\t// out\n        /* \"#utility.yul\":12211:12756   */\n    tag_118:\n        /* \"#utility.yul\":12384:12388   */\n      0x00\n        /* \"#utility.yul\":12422:12425   */\n      0x80\n        /* \"#utility.yul\":12411:12420   */\n      dup3\n        /* \"#utility.yul\":12407:12426   */\n      add\n        /* \"#utility.yul\":12399:12426   */\n      swap1\n      pop\n        /* \"#utility.yul\":12436:12507   */\n      tag_311\n        /* \"#utility.yul\":12504:12505   */\n      0x00\n        /* \"#utility.yul\":12493:12502   */\n      dup4\n        /* \"#utility.yul\":12489:12506   */\n      add\n        /* \"#utility.yul\":12480:12486   */\n      dup8\n        /* \"#utility.yul\":12436:12507   */\n      tag_159\n      jump\t// in\n    tag_311:\n        /* \"#utility.yul\":12517:12585   */\n      tag_312\n        /* \"#utility.yul\":12581:12583   */\n      0x20\n        /* \"#utility.yul\":12570:12579   */\n      dup4\n        /* \"#utility.yul\":12566:12584   */\n      add\n        /* \"#utility.yul\":12557:12563   */\n      dup7\n        /* \"#utility.yul\":12517:12585   */\n      tag_157\n      jump\t// in\n    tag_312:\n        /* \"#utility.yul\":12595:12667   */\n      tag_313\n        /* \"#utility.yul\":12663:12665   */\n      0x40\n        /* \"#utility.yul\":12652:12661   */\n      dup4\n        /* \"#utility.yul\":12648:12666   */\n      add\n        /* \"#utility.yul\":12639:12645   */\n      dup6\n        /* \"#utility.yul\":12595:12667   */\n      tag_159\n      jump\t// in\n    tag_313:\n        /* \"#utility.yul\":12677:12749   */\n      tag_314\n        /* \"#utility.yul\":12745:12747   */\n      0x60\n        /* \"#utility.yul\":12734:12743   */\n      dup4\n        /* \"#utility.yul\":12730:12748   */\n      add\n        /* \"#utility.yul\":12721:12727   */\n      dup5\n        /* \"#utility.yul\":12677:12749   */\n      tag_159\n      jump\t// in\n    tag_314:\n        /* \"#utility.yul\":12211:12756   */\n      swap6\n      swap5\n      pop\n      pop\n      pop\n      pop\n      pop\n      jump\t// out\n        /* \"#utility.yul\":12762:12926   */\n    tag_174:\n        /* \"#utility.yul\":12902:12918   */\n      0x494e56414c49445f5349474e4552000000000000000000000000000000000000\n        /* \"#utility.yul\":12898:12899   */\n      0x00\n        /* \"#utility.yul\":12890:12896   */\n      dup3\n        /* \"#utility.yul\":12886:12900   */\n      add\n        /* \"#utility.yul\":12879:12919   */\n      mstore\n        /* \"#utility.yul\":12762:12926   */\n      pop\n      jump\t// out\n        /* \"#utility.yul\":12932:13298   */\n    tag_175:\n        /* \"#utility.yul\":13074:13077   */\n      0x00\n        /* \"#utility.yul\":13095:13162   */\n      tag_317\n        /* \"#utility.yul\":13159:13161   */\n      0x0e\n        /* \"#utility.yul\":13154:13157   */\n      dup4\n        /* \"#utility.yul\":13095:13162   */\n      tag_139\n      jump\t// in\n    tag_317:\n        /* \"#utility.yul\":13088:13162   */\n      swap2\n      pop\n        /* \"#utility.yul\":13171:13264   */\n      tag_318\n        /* \"#utility.yul\":13260:13263   */\n      dup3\n        /* \"#utility.yul\":13171:13264   */\n      tag_174\n      jump\t// in\n    tag_318:\n        /* \"#utility.yul\":13289:13291   */\n      0x20\n        /* \"#utility.yul\":13284:13287   */\n      dup3\n        /* \"#utility.yul\":13280:13292   */\n      add\n        /* \"#utility.yul\":13273:13292   */\n      swap1\n      pop\n        /* \"#utility.yul\":12932:13298   */\n      swap2\n      swap1\n      pop\n      jump\t// out\n        /* \"#utility.yul\":13304:13723   */\n    tag_124:\n        /* \"#utility.yul\":13470:13474   */\n      0x00\n        /* \"#utility.yul\":13508:13510   */\n      0x20\n        /* \"#utility.yul\":13497:13506   */\n      dup3\n        /* \"#utility.yul\":13493:13511   */\n      add\n        /* \"#utility.yul\":13485:13511   */\n      swap1\n      pop\n        /* \"#utility.yul\":13557:13566   */\n      dup2\n        /* \"#utility.yul\":13551:13555   */\n      dup2\n        /* \"#utility.yul\":13547:13567   */\n      sub\n        /* \"#utility.yul\":13543:13544   */\n      0x00\n        /* \"#utility.yul\":13532:13541   */\n      dup4\n        /* \"#utility.yul\":13528:13545   */\n      add\n        /* \"#utility.yul\":13521:13568   */\n      mstore\n        /* \"#utility.yul\":13585:13716   */\n      tag_320\n        /* \"#utility.yul\":13711:13715   */\n      dup2\n        /* \"#utility.yul\":13585:13716   */\n      tag_175\n      jump\t// in\n    tag_320:\n        /* \"#utility.yul\":13577:13716   */\n      swap1\n      pop\n        /* \"#utility.yul\":13304:13723   */\n      swap2\n      swap1\n      pop\n      jump\t// out\n        /* \"#utility.yul\":13729:13901   */\n    tag_176:\n        /* \"#utility.yul\":13869:13893   */\n      0x496e636f7272656374205065726d69742076616c756500000000000000000000\n        /* \"#utility.yul\":13865:13866   */\n      0x00\n        /* \"#utility.yul\":13857:13863   */\n      dup3\n        /* \"#utility.yul\":13853:13867   */\n      add\n        /* \"#utility.yul\":13846:13894   */\n      mstore\n        /* \"#utility.yul\":13729:13901   */\n      pop\n      jump\t// out\n        /* \"#utility.yul\":13907:14273   */\n    tag_177:\n        /* \"#utility.yul\":14049:14052   */\n      0x00\n        /* \"#utility.yul\":14070:14137   */\n      tag_323\n        /* \"#utility.yul\":14134:14136   */\n      0x16\n        /* \"#utility.yul\":14129:14132   */\n      dup4\n        /* \"#utility.yul\":14070:14137   */\n      tag_139\n      jump\t// in\n    tag_323:\n        /* \"#utility.yul\":14063:14137   */\n      swap2\n      pop\n        /* \"#utility.yul\":14146:14239   */\n      tag_324\n        /* \"#utility.yul\":14235:14238   */\n      dup3\n        /* \"#utility.yul\":14146:14239   */\n      tag_176\n      jump\t// in\n    tag_324:\n        /* \"#utility.yul\":14264:14266   */\n      0x20\n        /* \"#utility.yul\":14259:14262   */\n      dup3\n        /* \"#utility.yul\":14255:14267   */\n      add\n        /* \"#utility.yul\":14248:14267   */\n      swap1\n      pop\n        /* \"#utility.yul\":13907:14273   */\n      swap2\n      swap1\n      pop\n      jump\t// out\n        /* \"#utility.yul\":14279:14698   */\n    tag_127:\n        /* \"#utility.yul\":14445:14449   */\n      0x00\n        /* \"#utility.yul\":14483:14485   */\n      0x20\n        /* \"#utility.yul\":14472:14481   */\n      dup3\n        /* \"#utility.yul\":14468:14486   */\n      add\n        /* \"#utility.yul\":14460:14486   */\n      swap1\n      pop\n        /* \"#utility.yul\":14532:14541   */\n      dup2\n        /* \"#utility.yul\":14526:14530   */\n      dup2\n        /* \"#utility.yul\":14522:14542   */\n      sub\n        /* \"#utility.yul\":14518:14519   */\n      0x00\n        /* \"#utility.yul\":14507:14516   */\n      dup4\n        /* \"#utility.yul\":14503:14520   */\n      add\n        /* \"#utility.yul\":14496:14543   */\n      mstore\n        /* \"#utility.yul\":14560:14691   */\n      tag_326\n        /* \"#utility.yul\":14686:14690   */\n      dup2\n        /* \"#utility.yul\":14560:14691   */\n      tag_177\n      jump\t// in\n    tag_326:\n        /* \"#utility.yul\":14552:14691   */\n      swap1\n      pop\n        /* \"#utility.yul\":14279:14698   */\n      swap2\n      swap1\n      pop\n      jump\t// out\n        /* \"#utility.yul\":14704:14851   */\n    tag_178:\n        /* \"#utility.yul\":14805:14816   */\n      0x00\n        /* \"#utility.yul\":14842:14845   */\n      dup2\n        /* \"#utility.yul\":14827:14845   */\n      swap1\n      pop\n        /* \"#utility.yul\":14704:14851   */\n      swap3\n      swap2\n      pop\n      pop\n      jump\t// out\n        /* \"#utility.yul\":14857:15001   */\n    tag_179:\n        /* \"#utility.yul\":14909:14913   */\n      0x00\n        /* \"#utility.yul\":14932:14935   */\n      dup2\n        /* \"#utility.yul\":14924:14935   */\n      swap1\n      pop\n        /* \"#utility.yul\":14955:14958   */\n      dup2\n        /* \"#utility.yul\":14952:14953   */\n      0x00\n        /* \"#utility.yul\":14945:14959   */\n      mstore\n        /* \"#utility.yul\":14989:14993   */\n      0x20\n        /* \"#utility.yul\":14986:14987   */\n      0x00\n        /* \"#utility.yul\":14976:14994   */\n      keccak256\n        /* \"#utility.yul\":14968:14994   */\n      swap1\n      pop\n        /* \"#utility.yul\":14857:15001   */\n      swap2\n      swap1\n      pop\n      jump\t// out\n        /* \"#utility.yul\":15029:15907   */\n    tag_180:\n        /* \"#utility.yul\":15134:15137   */\n      0x00\n        /* \"#utility.yul\":15171:15176   */\n      dup2\n        /* \"#utility.yul\":15165:15177   */\n      sload\n        /* \"#utility.yul\":15200:15236   */\n      tag_330\n        /* \"#utility.yul\":15226:15235   */\n      dup2\n        /* \"#utility.yul\":15200:15236   */\n      tag_79\n      jump\t// in\n    tag_330:\n        /* \"#utility.yul\":15252:15340   */\n      tag_331\n        /* \"#utility.yul\":15333:15339   */\n      dup2\n        /* \"#utility.yul\":15328:15331   */\n      dup7\n        /* \"#utility.yul\":15252:15340   */\n      tag_178\n      jump\t// in\n    tag_331:\n        /* \"#utility.yul\":15245:15340   */\n      swap5\n      pop\n        /* \"#utility.yul\":15371:15372   */\n      0x01\n        /* \"#utility.yul\":15360:15369   */\n      dup3\n        /* \"#utility.yul\":15356:15373   */\n      and\n        /* \"#utility.yul\":15387:15388   */\n      0x00\n        /* \"#utility.yul\":15382:15548   */\n      dup2\n      eq\n      tag_333\n      jumpi\n        /* \"#utility.yul\":15562:15563   */\n      0x01\n        /* \"#utility.yul\":15557:15901   */\n      dup2\n      eq\n      tag_334\n      jumpi\n        /* \"#utility.yul\":15349:15901   */\n      jump(tag_332)\n        /* \"#utility.yul\":15382:15548   */\n    tag_333:\n        /* \"#utility.yul\":15466:15470   */\n      0xff\n        /* \"#utility.yul\":15462:15471   */\n      not\n        /* \"#utility.yul\":15451:15460   */\n      dup4\n        /* \"#utility.yul\":15447:15472   */\n      and\n        /* \"#utility.yul\":15442:15445   */\n      dup7\n        /* \"#utility.yul\":15435:15473   */\n      mstore\n        /* \"#utility.yul\":15528:15534   */\n      dup2\n        /* \"#utility.yul\":15521:15535   */\n      iszero\n        /* \"#utility.yul\":15514:15536   */\n      iszero\n        /* \"#utility.yul\":15506:15512   */\n      dup3\n        /* \"#utility.yul\":15502:15537   */\n      mul\n        /* \"#utility.yul\":15497:15500   */\n      dup7\n        /* \"#utility.yul\":15493:15538   */\n      add\n        /* \"#utility.yul\":15486:15538   */\n      swap4\n      pop\n        /* \"#utility.yul\":15382:15548   */\n      jump(tag_332)\n        /* \"#utility.yul\":15557:15901   */\n    tag_334:\n        /* \"#utility.yul\":15624:15665   */\n      tag_335\n        /* \"#utility.yul\":15659:15664   */\n      dup6\n        /* \"#utility.yul\":15624:15665   */\n      tag_179\n      jump\t// in\n    tag_335:\n        /* \"#utility.yul\":15687:15688   */\n      0x00\n        /* \"#utility.yul\":15701:15855   */\n    tag_336:\n        /* \"#utility.yul\":15715:15721   */\n      dup4\n        /* \"#utility.yul\":15712:15713   */\n      dup2\n        /* \"#utility.yul\":15709:15722   */\n      lt\n        /* \"#utility.yul\":15701:15855   */\n      iszero\n      tag_338\n      jumpi\n        /* \"#utility.yul\":15789:15796   */\n      dup2\n        /* \"#utility.yul\":15783:15797   */\n      sload\n        /* \"#utility.yul\":15779:15780   */\n      dup2\n        /* \"#utility.yul\":15774:15777   */\n      dup10\n        /* \"#utility.yul\":15770:15781   */\n      add\n        /* \"#utility.yul\":15763:15798   */\n      mstore\n        /* \"#utility.yul\":15839:15840   */\n      0x01\n        /* \"#utility.yul\":15830:15837   */\n      dup3\n        /* \"#utility.yul\":15826:15841   */\n      add\n        /* \"#utility.yul\":15815:15841   */\n      swap2\n      pop\n        /* \"#utility.yul\":15737:15741   */\n      0x20\n        /* \"#utility.yul\":15734:15735   */\n      dup2\n        /* \"#utility.yul\":15730:15742   */\n      add\n        /* \"#utility.yul\":15725:15742   */\n      swap1\n      pop\n        /* \"#utility.yul\":15701:15855   */\n      jump(tag_336)\n    tag_338:\n        /* \"#utility.yul\":15884:15890   */\n      dup4\n        /* \"#utility.yul\":15879:15882   */\n      dup9\n        /* \"#utility.yul\":15875:15891   */\n      add\n        /* \"#utility.yul\":15868:15891   */\n      swap6\n      pop\n        /* \"#utility.yul\":15564:15901   */\n      pop\n      pop\n        /* \"#utility.yul\":15349:15901   */\n    tag_332:\n      pop\n        /* \"#utility.yul\":15138:15907   */\n      pop\n      pop\n        /* \"#utility.yul\":15029:15907   */\n      swap3\n      swap2\n      pop\n      pop\n      jump\t// out\n        /* \"#utility.yul\":15913:16186   */\n    tag_131:\n        /* \"#utility.yul\":16044:16047   */\n      0x00\n        /* \"#utility.yul\":16066:16160   */\n      tag_340\n        /* \"#utility.yul\":16156:16159   */\n      dup3\n        /* \"#utility.yul\":16147:16153   */\n      dup5\n        /* \"#utility.yul\":16066:16160   */\n      tag_180\n      jump\t// in\n    tag_340:\n        /* \"#utility.yul\":16059:16160   */\n      swap2\n      pop\n        /* \"#utility.yul\":16177:16180   */\n      dup2\n        /* \"#utility.yul\":16170:16180   */\n      swap1\n      pop\n        /* \"#utility.yul\":15913:16186   */\n      swap3\n      swap2\n      pop\n      pop\n      jump\t// out\n        /* \"#utility.yul\":16192:16856   */\n    tag_133:\n        /* \"#utility.yul\":16397:16401   */\n      0x00\n        /* \"#utility.yul\":16435:16438   */\n      0xa0\n        /* \"#utility.yul\":16424:16433   */\n      dup3\n        /* \"#utility.yul\":16420:16439   */\n      add\n        /* \"#utility.yul\":16412:16439   */\n      swap1\n      pop\n        /* \"#utility.yul\":16449:16520   */\n      tag_342\n        /* \"#utility.yul\":16517:16518   */\n      0x00\n        /* \"#utility.yul\":16506:16515   */\n      dup4\n        /* \"#utility.yul\":16502:16519   */\n      add\n        /* \"#utility.yul\":16493:16499   */\n      dup9\n        /* \"#utility.yul\":16449:16520   */\n      tag_159\n      jump\t// in\n    tag_342:\n        /* \"#utility.yul\":16530:16602   */\n      tag_343\n        /* \"#utility.yul\":16598:16600   */\n      0x20\n        /* \"#utility.yul\":16587:16596   */\n      dup4\n        /* \"#utility.yul\":16583:16601   */\n      add\n        /* \"#utility.yul\":16574:16580   */\n      dup8\n        /* \"#utility.yul\":16530:16602   */\n      tag_159\n      jump\t// in\n    tag_343:\n        /* \"#utility.yul\":16612:16684   */\n      tag_344\n        /* \"#utility.yul\":16680:16682   */\n      0x40\n        /* \"#utility.yul\":16669:16678   */\n      dup4\n        /* \"#utility.yul\":16665:16683   */\n      add\n        /* \"#utility.yul\":16656:16662   */\n      dup7\n        /* \"#utility.yul\":16612:16684   */\n      tag_159\n      jump\t// in\n    tag_344:\n        /* \"#utility.yul\":16694:16766   */\n      tag_345\n        /* \"#utility.yul\":16762:16764   */\n      0x60\n        /* \"#utility.yul\":16751:16760   */\n      dup4\n        /* \"#utility.yul\":16747:16765   */\n      add\n        /* \"#utility.yul\":16738:16744   */\n      dup6\n        /* \"#utility.yul\":16694:16766   */\n      tag_155\n      jump\t// in\n    tag_345:\n        /* \"#utility.yul\":16776:16849   */\n      tag_346\n        /* \"#utility.yul\":16844:16847   */\n      0x80\n        /* \"#utility.yul\":16833:16842   */\n      dup4\n        /* \"#utility.yul\":16829:16848   */\n      add\n        /* \"#utility.yul\":16820:16826   */\n      dup5\n        /* \"#utility.yul\":16776:16849   */\n      tag_168\n      jump\t// in\n    tag_346:\n        /* \"#utility.yul\":16192:16856   */\n      swap7\n      swap6\n      pop\n      pop\n      pop\n      pop\n      pop\n      pop\n      jump\t// out\n        /* \"#utility.yul\":16862:17053   */\n    tag_136:\n        /* \"#utility.yul\":16902:16905   */\n      0x00\n        /* \"#utility.yul\":16921:16941   */\n      tag_348\n        /* \"#utility.yul\":16939:16940   */\n      dup3\n        /* \"#utility.yul\":16921:16941   */\n      tag_150\n      jump\t// in\n    tag_348:\n        /* \"#utility.yul\":16916:16941   */\n      swap2\n      pop\n        /* \"#utility.yul\":16955:16975   */\n      tag_349\n        /* \"#utility.yul\":16973:16974   */\n      dup4\n        /* \"#utility.yul\":16955:16975   */\n      tag_150\n      jump\t// in\n    tag_349:\n        /* \"#utility.yul\":16950:16975   */\n      swap3\n      pop\n        /* \"#utility.yul\":16998:16999   */\n      dup3\n        /* \"#utility.yul\":16995:16996   */\n      dup3\n        /* \"#utility.yul\":16991:17000   */\n      add\n        /* \"#utility.yul\":16984:17000   */\n      swap1\n      pop\n        /* \"#utility.yul\":17019:17022   */\n      dup1\n        /* \"#utility.yul\":17016:17017   */\n      dup3\n        /* \"#utility.yul\":17013:17023   */\n      gt\n        /* \"#utility.yul\":17010:17046   */\n      iszero\n      tag_350\n      jumpi\n        /* \"#utility.yul\":17026:17044   */\n      tag_351\n      tag_165\n      jump\t// in\n    tag_351:\n        /* \"#utility.yul\":17010:17046   */\n    tag_350:\n        /* \"#utility.yul\":16862:17053   */\n      swap3\n      swap2\n      pop\n      pop\n      jump\t// out\n\n    auxdata: 0xa26469706673582212204a7c47fa8b524f45b18fc31d6bfa7d02529e77c64cd0628414c1b1073c0ed59564736f6c63430008110033\n}\n",
				"bytecode": {
					"linkReferences": {},
					"object": "60e06040523480156200001157600080fd5b506040518060400160405280600781526020017f417065436f696e000000000000000000000000000000000000000000000000008152506040518060400160405280600381526020017f415045000000000000000000000000000000000000000000000000000000000081525060128260009081620000919190620003e4565b508160019081620000a39190620003e4565b508060ff1660808160ff16815250504660a08181525050620000ca620000da60201b60201c565b60c0818152505050505062000661565b60007f8b73c3c69bb8fe3d512ecc4cf759cc79239f7b179b0ffacaa9a75d522b39400f60006040516200010e91906200057a565b60405180910390207fc89efdaa54c0f20c7adf612882df0950f5a951637e0307cdcb4c672f298b8bc646306040516020016200014f95949392919062000604565b60405160208183030381529060405280519060200120905090565b600081519050919050565b7f4e487b7100000000000000000000000000000000000000000000000000000000600052604160045260246000fd5b7f4e487b7100000000000000000000000000000000000000000000000000000000600052602260045260246000fd5b60006002820490506001821680620001ec57607f821691505b602082108103620002025762000201620001a4565b5b50919050565b60008190508160005260206000209050919050565b60006020601f8301049050919050565b600082821b905092915050565b6000600883026200026c7fffffffffffffffffffffffffffffffffffffffffffffffffffffffffffffffff826200022d565b6200027886836200022d565b95508019841693508086168417925050509392505050565b6000819050919050565b6000819050919050565b6000620002c5620002bf620002b98462000290565b6200029a565b62000290565b9050919050565b6000819050919050565b620002e183620002a4565b620002f9620002f082620002cc565b8484546200023a565b825550505050565b600090565b6200031062000301565b6200031d818484620002d6565b505050565b5b8181101562000345576200033960008262000306565b60018101905062000323565b5050565b601f82111562000394576200035e8162000208565b62000369846200021d565b8101602085101562000379578190505b6200039162000388856200021d565b83018262000322565b50505b505050565b600082821c905092915050565b6000620003b96000198460080262000399565b1980831691505092915050565b6000620003d48383620003a6565b9150826002028217905092915050565b620003ef826200016a565b67ffffffffffffffff8111156200040b576200040a62000175565b5b620004178254620001d3565b6200042482828562000349565b600060209050601f8311600181146200045c576000841562000447578287015190505b620004538582620003c6565b865550620004c3565b601f1984166200046c8662000208565b60005b8281101562000496578489015182556001820191506020850194506020810190506200046f565b86831015620004b65784890151620004b2601f891682620003a6565b8355505b6001600288020188555050505b505050505050565b600081905092915050565b60008190508160005260206000209050919050565b60008154620004fa81620001d3565b620005068186620004cb565b945060018216600081146200052457600181146200053a5762000571565b60ff198316865281151582028601935062000571565b6200054585620004d6565b60005b83811015620005695781548189015260018201915060208101905062000548565b838801955050505b50505092915050565b6000620005888284620004eb565b915081905092915050565b6000819050919050565b620005a88162000593565b82525050565b620005b98162000290565b82525050565b600073ffffffffffffffffffffffffffffffffffffffff82169050919050565b6000620005ec82620005bf565b9050919050565b620005fe81620005df565b82525050565b600060a0820190506200061b60008301886200059d565b6200062a60208301876200059d565b6200063960408301866200059d565b620006486060830185620005ae565b620006576080830184620005f3565b9695505050505050565b60805160a05160c0516116c162000691600039600061074b01526000610717015260006106f101526116c16000f3fe608060405234801561001057600080fd5b50600436106100ea5760003560e01c806340c10f191161008c57806395d89b411161006657806395d89b4114610261578063a9059cbb1461027f578063d505accf146102af578063dd62ed3e146102cb576100ea565b806340c10f19146101e557806370a08231146102015780637ecebe0014610231576100ea565b80631ac3d581116100c85780631ac3d5811461015b57806323b872dd14610179578063313ce567146101a95780633644e515146101c7576100ea565b806306fdde03146100ef578063095ea7b31461010d57806318160ddd1461013d575b600080fd5b6100f76102fb565b6040516101049190610e6d565b60405180910390f35b61012760048036038101906101229190610f28565b610389565b6040516101349190610f83565b60405180910390f35b61014561047b565b6040516101529190610fad565b60405180910390f35b610163610481565b6040516101709190610fad565b60405180910390f35b610193600480360381019061018e9190610fc8565b6104a5565b6040516101a09190610f83565b60405180910390f35b6101b16106ef565b6040516101be9190611037565b60405180910390f35b6101cf610713565b6040516101dc919061106b565b60405180910390f35b6101ff60048036038101906101fa9190610f28565b610770565b005b61021b60048036038101906102169190611086565b61077e565b6040516102289190610fad565b60405180910390f35b61024b60048036038101906102469190611086565b610796565b6040516102589190610fad565b60405180910390f35b6102696107ae565b6040516102769190610e6d565b60405180910390f35b61029960048036038101906102949190610f28565b61083c565b6040516102a69190610f83565b60405180910390f35b6102c960048036038101906102c4919061110b565b610950565b005b6102e560048036038101906102e091906111ad565b610c5c565b6040516102f29190610fad565b60405180910390f35b600080546103089061121c565b80601f01602080910402602001604051908101604052809291908181526020018280546103349061121c565b80156103815780601f1061035657610100808354040283529160200191610381565b820191906000526020600020905b81548152906001019060200180831161036457829003601f168201915b505050505081565b600081600460003373ffffffffffffffffffffffffffffffffffffffff1673ffffffffffffffffffffffffffffffffffffffff16815260200190815260200160002060008573ffffffffffffffffffffffffffffffffffffffff1673ffffffffffffffffffffffffffffffffffffffff168152602001908152602001600020819055508273ffffffffffffffffffffffffffffffffffffffff163373ffffffffffffffffffffffffffffffffffffffff167f8c5be1e5ebec7d5bd14f71427d1e84f3dd0314c0f7b2291e5b200ac8c7c3b925846040516104699190610fad565b60405180910390a36001905092915050565b60025481565b7fffffffffffffffffffffffffffffffffffffffffffffffffffffffffffffffff81565b600080600460008673ffffffffffffffffffffffffffffffffffffffff1673ffffffffffffffffffffffffffffffffffffffff16815260200190815260200160002060003373ffffffffffffffffffffffffffffffffffffffff1673ffffffffffffffffffffffffffffffffffffffff1681526020019081526020016000205490507fffffffffffffffffffffffffffffffffffffffffffffffffffffffffffffffff81146105db57828161055a919061127c565b600460008773ffffffffffffffffffffffffffffffffffffffff1673ffffffffffffffffffffffffffffffffffffffff16815260200190815260200160002060003373ffffffffffffffffffffffffffffffffffffffff1673ffffffffffffffffffffffffffffffffffffffff168152602001908152602001600020819055505b82600360008773ffffffffffffffffffffffffffffffffffffffff1673ffffffffffffffffffffffffffffffffffffffff168152602001908152602001600020600082825461062a919061127c565b9250508190555082600360008673ffffffffffffffffffffffffffffffffffffffff1673ffffffffffffffffffffffffffffffffffffffff168152602001908152602001600020600082825401925050819055508373ffffffffffffffffffffffffffffffffffffffff168573ffffffffffffffffffffffffffffffffffffffff167fddf252ad1be2c89b69c2b068fc378daa952ba7f163c4a11628f55a4df523b3ef856040516106db9190610fad565b60405180910390a360019150509392505050565b7f000000000000000000000000000000000000000000000000000000000000000081565b60007f0000000000000000000000000000000000000000000000000000000000000000461461074957610744610c81565b61076b565b7f00000000000000000000000000000000000000000000000000000000000000005b905090565b61077a8282610d0d565b5050565b60036020528060005260406000206000915090505481565b60056020528060005260406000206000915090505481565b600180546107bb9061121c565b80601f01602080910402602001604051908101604052809291908181526020018280546107e79061121c565b80156108345780601f1061080957610100808354040283529160200191610834565b820191906000526020600020905b81548152906001019060200180831161081757829003601f168201915b505050505081565b600081600360003373ffffffffffffffffffffffffffffffffffffffff1673ffffffffffffffffffffffffffffffffffffffff168152602001908152602001600020600082825461088d919061127c565b9250508190555081600360008573ffffffffffffffffffffffffffffffffffffffff1673ffffffffffffffffffffffffffffffffffffffff168152602001908152602001600020600082825401925050819055508273ffffffffffffffffffffffffffffffffffffffff163373ffffffffffffffffffffffffffffffffffffffff167fddf252ad1be2c89b69c2b068fc378daa952ba7f163c4a11628f55a4df523b3ef8460405161093e9190610fad565b60405180910390a36001905092915050565b42841015610993576040517f08c379a000000000000000000000000000000000000000000000000000000000815260040161098a906112fc565b60405180910390fd5b6000600161099f610713565b7f05619a74ecd0240afc3bfb1df2bd1319401220fb577809c3a09bf0ab809ac8618a8a8a8a6040516020016109d895949392919061132b565b604051602081830303815290604052805190602001206040516020016109ff9291906113f6565b6040516020818303038152906040528051906020012085858560405160008152602001604052604051610a35949392919061142d565b6020604051602081039080840390855afa158015610a57573d6000803e3d6000fd5b505050602060405103519050600073ffffffffffffffffffffffffffffffffffffffff168173ffffffffffffffffffffffffffffffffffffffff1614158015610acb57508773ffffffffffffffffffffffffffffffffffffffff168173ffffffffffffffffffffffffffffffffffffffff16145b610b0a576040517f08c379a0000000000000000000000000000000000000000000000000000000008152600401610b01906114be565b60405180910390fd5b7fffffffffffffffffffffffffffffffffffffffffffffffffffffffffffffffff8614610b6c576040517f08c379a0000000000000000000000000000000000000000000000000000000008152600401610b639061152a565b60405180910390fd5b85600460008373ffffffffffffffffffffffffffffffffffffffff1673ffffffffffffffffffffffffffffffffffffffff16815260200190815260200160002060008973ffffffffffffffffffffffffffffffffffffffff1673ffffffffffffffffffffffffffffffffffffffff16815260200190815260200160002081905550508573ffffffffffffffffffffffffffffffffffffffff168773ffffffffffffffffffffffffffffffffffffffff167f8c5be1e5ebec7d5bd14f71427d1e84f3dd0314c0f7b2291e5b200ac8c7c3b92587604051610c4b9190610fad565b60405180910390a350505050505050565b6004602052816000526040600020602052806000526040600020600091509150505481565b60007f8b73c3c69bb8fe3d512ecc4cf759cc79239f7b179b0ffacaa9a75d522b39400f6000604051610cb391906115ed565b60405180910390207fc89efdaa54c0f20c7adf612882df0950f5a951637e0307cdcb4c672f298b8bc64630604051602001610cf2959493929190611604565b60405160208183030381529060405280519060200120905090565b8060026000828254610d1f9190611657565b9250508190555080600360008473ffffffffffffffffffffffffffffffffffffffff1673ffffffffffffffffffffffffffffffffffffffff168152602001908152602001600020600082825401925050819055508173ffffffffffffffffffffffffffffffffffffffff16600073ffffffffffffffffffffffffffffffffffffffff167fddf252ad1be2c89b69c2b068fc378daa952ba7f163c4a11628f55a4df523b3ef83604051610dd19190610fad565b60405180910390a35050565b600081519050919050565b600082825260208201905092915050565b60005b83811015610e17578082015181840152602081019050610dfc565b60008484015250505050565b6000601f19601f8301169050919050565b6000610e3f82610ddd565b610e498185610de8565b9350610e59818560208601610df9565b610e6281610e23565b840191505092915050565b60006020820190508181036000830152610e878184610e34565b905092915050565b600080fd5b600073ffffffffffffffffffffffffffffffffffffffff82169050919050565b6000610ebf82610e94565b9050919050565b610ecf81610eb4565b8114610eda57600080fd5b50565b600081359050610eec81610ec6565b92915050565b6000819050919050565b610f0581610ef2565b8114610f1057600080fd5b50565b600081359050610f2281610efc565b92915050565b60008060408385031215610f3f57610f3e610e8f565b5b6000610f4d85828601610edd565b9250506020610f5e85828601610f13565b9150509250929050565b60008115159050919050565b610f7d81610f68565b82525050565b6000602082019050610f986000830184610f74565b92915050565b610fa781610ef2565b82525050565b6000602082019050610fc26000830184610f9e565b92915050565b600080600060608486031215610fe157610fe0610e8f565b5b6000610fef86828701610edd565b935050602061100086828701610edd565b925050604061101186828701610f13565b9150509250925092565b600060ff82169050919050565b6110318161101b565b82525050565b600060208201905061104c6000830184611028565b92915050565b6000819050919050565b61106581611052565b82525050565b6000602082019050611080600083018461105c565b92915050565b60006020828403121561109c5761109b610e8f565b5b60006110aa84828501610edd565b91505092915050565b6110bc8161101b565b81146110c757600080fd5b50565b6000813590506110d9816110b3565b92915050565b6110e881611052565b81146110f357600080fd5b50565b600081359050611105816110df565b92915050565b600080600080600080600060e0888a03121561112a57611129610e8f565b5b60006111388a828b01610edd565b97505060206111498a828b01610edd565b965050604061115a8a828b01610f13565b955050606061116b8a828b01610f13565b945050608061117c8a828b016110ca565b93505060a061118d8a828b016110f6565b92505060c061119e8a828b016110f6565b91505092959891949750929550565b600080604083850312156111c4576111c3610e8f565b5b60006111d285828601610edd565b92505060206111e385828601610edd565b9150509250929050565b7f4e487b7100000000000000000000000000000000000000000000000000000000600052602260045260246000fd5b6000600282049050600182168061123457607f821691505b602082108103611247576112466111ed565b5b50919050565b7f4e487b7100000000000000000000000000000000000000000000000000000000600052601160045260246000fd5b600061128782610ef2565b915061129283610ef2565b92508282039050818111156112aa576112a961124d565b5b92915050565b7f5045524d49545f444541444c494e455f45585049524544000000000000000000600082015250565b60006112e6601783610de8565b91506112f1826112b0565b602082019050919050565b60006020820190508181036000830152611315816112d9565b9050919050565b61132581610eb4565b82525050565b600060a082019050611340600083018861105c565b61134d602083018761131c565b61135a604083018661131c565b6113676060830185610f9e565b6113746080830184610f9e565b9695505050505050565b600081905092915050565b7f1901000000000000000000000000000000000000000000000000000000000000600082015250565b60006113bf60028361137e565b91506113ca82611389565b600282019050919050565b6000819050919050565b6113f06113eb82611052565b6113d5565b82525050565b6000611401826113b2565b915061140d82856113df565b60208201915061141d82846113df565b6020820191508190509392505050565b6000608082019050611442600083018761105c565b61144f6020830186611028565b61145c604083018561105c565b611469606083018461105c565b95945050505050565b7f494e56414c49445f5349474e4552000000000000000000000000000000000000600082015250565b60006114a8600e83610de8565b91506114b382611472565b602082019050919050565b600060208201905081810360008301526114d78161149b565b9050919050565b7f496e636f7272656374205065726d69742076616c756500000000000000000000600082015250565b6000611514601683610de8565b915061151f826114de565b602082019050919050565b6000602082019050818103600083015261154381611507565b9050919050565b600081905092915050565b60008190508160005260206000209050919050565b600081546115778161121c565b611581818661154a565b9450600182166000811461159c57600181146115b1576115e4565b60ff19831686528115158202860193506115e4565b6115ba85611555565b60005b838110156115dc578154818901526001820191506020810190506115bd565b838801955050505b50505092915050565b60006115f9828461156a565b915081905092915050565b600060a082019050611619600083018861105c565b611626602083018761105c565b611633604083018661105c565b6116406060830185610f9e565b61164d608083018461131c565b9695505050505050565b600061166282610ef2565b915061166d83610ef2565b92508282019050808211156116855761168461124d565b5b9291505056fea26469706673582212204a7c47fa8b524f45b18fc31d6bfa7d02529e77c64cd0628414c1b1073c0ed59564736f6c63430008110033",
					"opcodes": "PUSH1 0xE0 PUSH1 0x40 MSTORE CALLVALUE DUP1 ISZERO PUSH3 0x11 JUMPI PUSH1 0x0 DUP1 REVERT JUMPDEST POP PUSH1 0x40 MLOAD DUP1 PUSH1 0x40 ADD PUSH1 0x40 MSTORE DUP1 PUSH1 0x7 DUP2 MSTORE PUSH1 0x20 ADD PUSH32 0x417065436F696E00000000000000000000000000000000000000000000000000 DUP2 MSTORE POP PUSH1 0x40 MLOAD DUP1 PUSH1 0x40 ADD PUSH1 0x40 MSTORE DUP1 PUSH1 0x3 DUP2 MSTORE PUSH1 0x20 ADD PUSH32 0x4150450000000000000000000000000000000000000000000000000000000000 DUP2 MSTORE POP PUSH1 0x12 DUP3 PUSH1 0x0 SWAP1 DUP2 PUSH3 0x91 SWAP2 SWAP1 PUSH3 0x3E4 JUMP JUMPDEST POP DUP2 PUSH1 0x1 SWAP1 DUP2 PUSH3 0xA3 SWAP2 SWAP1 PUSH3 0x3E4 JUMP JUMPDEST POP DUP1 PUSH1 0xFF AND PUSH1 0x80 DUP2 PUSH1 0xFF AND DUP2 MSTORE POP POP CHAINID PUSH1 0xA0 DUP2 DUP2 MSTORE POP POP PUSH3 0xCA PUSH3 0xDA PUSH1 0x20 SHL PUSH1 0x20 SHR JUMP JUMPDEST PUSH1 0xC0 DUP2 DUP2 MSTORE POP POP POP POP POP PUSH3 0x661 JUMP JUMPDEST PUSH1 0x0 PUSH32 0x8B73C3C69BB8FE3D512ECC4CF759CC79239F7B179B0FFACAA9A75D522B39400F PUSH1 0x0 PUSH1 0x40 MLOAD PUSH3 0x10E SWAP2 SWAP1 PUSH3 0x57A JUMP JUMPDEST PUSH1 0x40 MLOAD DUP1 SWAP2 SUB SWAP1 KECCAK256 PUSH32 0xC89EFDAA54C0F20C7ADF612882DF0950F5A951637E0307CDCB4C672F298B8BC6 CHAINID ADDRESS PUSH1 0x40 MLOAD PUSH1 0x20 ADD PUSH3 0x14F SWAP6 SWAP5 SWAP4 SWAP3 SWAP2 SWAP1 PUSH3 0x604 JUMP JUMPDEST PUSH1 0x40 MLOAD PUSH1 0x20 DUP2 DUP4 SUB SUB DUP2 MSTORE SWAP1 PUSH1 0x40 MSTORE DUP1 MLOAD SWAP1 PUSH1 0x20 ADD KECCAK256 SWAP1 POP SWAP1 JUMP JUMPDEST PUSH1 0x0 DUP2 MLOAD SWAP1 POP SWAP2 SWAP1 POP JUMP JUMPDEST PUSH32 0x4E487B7100000000000000000000000000000000000000000000000000000000 PUSH1 0x0 MSTORE PUSH1 0x41 PUSH1 0x4 MSTORE PUSH1 0x24 PUSH1 0x0 REVERT JUMPDEST PUSH32 0x4E487B7100000000000000000000000000000000000000000000000000000000 PUSH1 0x0 MSTORE PUSH1 0x22 PUSH1 0x4 MSTORE PUSH1 0x24 PUSH1 0x0 REVERT JUMPDEST PUSH1 0x0 PUSH1 0x2 DUP3 DIV SWAP1 POP PUSH1 0x1 DUP3 AND DUP1 PUSH3 0x1EC JUMPI PUSH1 0x7F DUP3 AND SWAP2 POP JUMPDEST PUSH1 0x20 DUP3 LT DUP2 SUB PUSH3 0x202 JUMPI PUSH3 0x201 PUSH3 0x1A4 JUMP JUMPDEST JUMPDEST POP SWAP2 SWAP1 POP JUMP JUMPDEST PUSH1 0x0 DUP2 SWAP1 POP DUP2 PUSH1 0x0 MSTORE PUSH1 0x20 PUSH1 0x0 KECCAK256 SWAP1 POP SWAP2 SWAP1 POP JUMP JUMPDEST PUSH1 0x0 PUSH1 0x20 PUSH1 0x1F DUP4 ADD DIV SWAP1 POP SWAP2 SWAP1 POP JUMP JUMPDEST PUSH1 0x0 DUP3 DUP3 SHL SWAP1 POP SWAP3 SWAP2 POP POP JUMP JUMPDEST PUSH1 0x0 PUSH1 0x8 DUP4 MUL PUSH3 0x26C PUSH32 0xFFFFFFFFFFFFFFFFFFFFFFFFFFFFFFFFFFFFFFFFFFFFFFFFFFFFFFFFFFFFFFFF DUP3 PUSH3 0x22D JUMP JUMPDEST PUSH3 0x278 DUP7 DUP4 PUSH3 0x22D JUMP JUMPDEST SWAP6 POP DUP1 NOT DUP5 AND SWAP4 POP DUP1 DUP7 AND DUP5 OR SWAP3 POP POP POP SWAP4 SWAP3 POP POP POP JUMP JUMPDEST PUSH1 0x0 DUP2 SWAP1 POP SWAP2 SWAP1 POP JUMP JUMPDEST PUSH1 0x0 DUP2 SWAP1 POP SWAP2 SWAP1 POP JUMP JUMPDEST PUSH1 0x0 PUSH3 0x2C5 PUSH3 0x2BF PUSH3 0x2B9 DUP5 PUSH3 0x290 JUMP JUMPDEST PUSH3 0x29A JUMP JUMPDEST PUSH3 0x290 JUMP JUMPDEST SWAP1 POP SWAP2 SWAP1 POP JUMP JUMPDEST PUSH1 0x0 DUP2 SWAP1 POP SWAP2 SWAP1 POP JUMP JUMPDEST PUSH3 0x2E1 DUP4 PUSH3 0x2A4 JUMP JUMPDEST PUSH3 0x2F9 PUSH3 0x2F0 DUP3 PUSH3 0x2CC JUMP JUMPDEST DUP5 DUP5 SLOAD PUSH3 0x23A JUMP JUMPDEST DUP3 SSTORE POP POP POP POP JUMP JUMPDEST PUSH1 0x0 SWAP1 JUMP JUMPDEST PUSH3 0x310 PUSH3 0x301 JUMP JUMPDEST PUSH3 0x31D DUP2 DUP5 DUP5 PUSH3 0x2D6 JUMP JUMPDEST POP POP POP JUMP JUMPDEST JUMPDEST DUP2 DUP2 LT ISZERO PUSH3 0x345 JUMPI PUSH3 0x339 PUSH1 0x0 DUP3 PUSH3 0x306 JUMP JUMPDEST PUSH1 0x1 DUP2 ADD SWAP1 POP PUSH3 0x323 JUMP JUMPDEST POP POP JUMP JUMPDEST PUSH1 0x1F DUP3 GT ISZERO PUSH3 0x394 JUMPI PUSH3 0x35E DUP2 PUSH3 0x208 JUMP JUMPDEST PUSH3 0x369 DUP5 PUSH3 0x21D JUMP JUMPDEST DUP2 ADD PUSH1 0x20 DUP6 LT ISZERO PUSH3 0x379 JUMPI DUP2 SWAP1 POP JUMPDEST PUSH3 0x391 PUSH3 0x388 DUP6 PUSH3 0x21D JUMP JUMPDEST DUP4 ADD DUP3 PUSH3 0x322 JUMP JUMPDEST POP POP JUMPDEST POP POP POP JUMP JUMPDEST PUSH1 0x0 DUP3 DUP3 SHR SWAP1 POP SWAP3 SWAP2 POP POP JUMP JUMPDEST PUSH1 0x0 PUSH3 0x3B9 PUSH1 0x0 NOT DUP5 PUSH1 0x8 MUL PUSH3 0x399 JUMP JUMPDEST NOT DUP1 DUP4 AND SWAP2 POP POP SWAP3 SWAP2 POP POP JUMP JUMPDEST PUSH1 0x0 PUSH3 0x3D4 DUP4 DUP4 PUSH3 0x3A6 JUMP JUMPDEST SWAP2 POP DUP3 PUSH1 0x2 MUL DUP3 OR SWAP1 POP SWAP3 SWAP2 POP POP JUMP JUMPDEST PUSH3 0x3EF DUP3 PUSH3 0x16A JUMP JUMPDEST PUSH8 0xFFFFFFFFFFFFFFFF DUP2 GT ISZERO PUSH3 0x40B JUMPI PUSH3 0x40A PUSH3 0x175 JUMP JUMPDEST JUMPDEST PUSH3 0x417 DUP3 SLOAD PUSH3 0x1D3 JUMP JUMPDEST PUSH3 0x424 DUP3 DUP3 DUP6 PUSH3 0x349 JUMP JUMPDEST PUSH1 0x0 PUSH1 0x20 SWAP1 POP PUSH1 0x1F DUP4 GT PUSH1 0x1 DUP2 EQ PUSH3 0x45C JUMPI PUSH1 0x0 DUP5 ISZERO PUSH3 0x447 JUMPI DUP3 DUP8 ADD MLOAD SWAP1 POP JUMPDEST PUSH3 0x453 DUP6 DUP3 PUSH3 0x3C6 JUMP JUMPDEST DUP7 SSTORE POP PUSH3 0x4C3 JUMP JUMPDEST PUSH1 0x1F NOT DUP5 AND PUSH3 0x46C DUP7 PUSH3 0x208 JUMP JUMPDEST PUSH1 0x0 JUMPDEST DUP3 DUP2 LT ISZERO PUSH3 0x496 JUMPI DUP5 DUP10 ADD MLOAD DUP3 SSTORE PUSH1 0x1 DUP3 ADD SWAP2 POP PUSH1 0x20 DUP6 ADD SWAP5 POP PUSH1 0x20 DUP2 ADD SWAP1 POP PUSH3 0x46F JUMP JUMPDEST DUP7 DUP4 LT ISZERO PUSH3 0x4B6 JUMPI DUP5 DUP10 ADD MLOAD PUSH3 0x4B2 PUSH1 0x1F DUP10 AND DUP3 PUSH3 0x3A6 JUMP JUMPDEST DUP4 SSTORE POP JUMPDEST PUSH1 0x1 PUSH1 0x2 DUP9 MUL ADD DUP9 SSTORE POP POP POP JUMPDEST POP POP POP POP POP POP JUMP JUMPDEST PUSH1 0x0 DUP2 SWAP1 POP SWAP3 SWAP2 POP POP JUMP JUMPDEST PUSH1 0x0 DUP2 SWAP1 POP DUP2 PUSH1 0x0 MSTORE PUSH1 0x20 PUSH1 0x0 KECCAK256 SWAP1 POP SWAP2 SWAP1 POP JUMP JUMPDEST PUSH1 0x0 DUP2 SLOAD PUSH3 0x4FA DUP2 PUSH3 0x1D3 JUMP JUMPDEST PUSH3 0x506 DUP2 DUP7 PUSH3 0x4CB JUMP JUMPDEST SWAP5 POP PUSH1 0x1 DUP3 AND PUSH1 0x0 DUP2 EQ PUSH3 0x524 JUMPI PUSH1 0x1 DUP2 EQ PUSH3 0x53A JUMPI PUSH3 0x571 JUMP JUMPDEST PUSH1 0xFF NOT DUP4 AND DUP7 MSTORE DUP2 ISZERO ISZERO DUP3 MUL DUP7 ADD SWAP4 POP PUSH3 0x571 JUMP JUMPDEST PUSH3 0x545 DUP6 PUSH3 0x4D6 JUMP JUMPDEST PUSH1 0x0 JUMPDEST DUP4 DUP2 LT ISZERO PUSH3 0x569 JUMPI DUP2 SLOAD DUP2 DUP10 ADD MSTORE PUSH1 0x1 DUP3 ADD SWAP2 POP PUSH1 0x20 DUP2 ADD SWAP1 POP PUSH3 0x548 JUMP JUMPDEST DUP4 DUP9 ADD SWAP6 POP POP POP JUMPDEST POP POP POP SWAP3 SWAP2 POP POP JUMP JUMPDEST PUSH1 0x0 PUSH3 0x588 DUP3 DUP5 PUSH3 0x4EB JUMP JUMPDEST SWAP2 POP DUP2 SWAP1 POP SWAP3 SWAP2 POP POP JUMP JUMPDEST PUSH1 0x0 DUP2 SWAP1 POP SWAP2 SWAP1 POP JUMP JUMPDEST PUSH3 0x5A8 DUP2 PUSH3 0x593 JUMP JUMPDEST DUP3 MSTORE POP POP JUMP JUMPDEST PUSH3 0x5B9 DUP2 PUSH3 0x290 JUMP JUMPDEST DUP3 MSTORE POP POP JUMP JUMPDEST PUSH1 0x0 PUSH20 0xFFFFFFFFFFFFFFFFFFFFFFFFFFFFFFFFFFFFFFFF DUP3 AND SWAP1 POP SWAP2 SWAP1 POP JUMP JUMPDEST PUSH1 0x0 PUSH3 0x5EC DUP3 PUSH3 0x5BF JUMP JUMPDEST SWAP1 POP SWAP2 SWAP1 POP JUMP JUMPDEST PUSH3 0x5FE DUP2 PUSH3 0x5DF JUMP JUMPDEST DUP3 MSTORE POP POP JUMP JUMPDEST PUSH1 0x0 PUSH1 0xA0 DUP3 ADD SWAP1 POP PUSH3 0x61B PUSH1 0x0 DUP4 ADD DUP9 PUSH3 0x59D JUMP JUMPDEST PUSH3 0x62A PUSH1 0x20 DUP4 ADD DUP8 PUSH3 0x59D JUMP JUMPDEST PUSH3 0x639 PUSH1 0x40 DUP4 ADD DUP7 PUSH3 0x59D JUMP JUMPDEST PUSH3 0x648 PUSH1 0x60 DUP4 ADD DUP6 PUSH3 0x5AE JUMP JUMPDEST PUSH3 0x657 PUSH1 0x80 DUP4 ADD DUP5 PUSH3 0x5F3 JUMP JUMPDEST SWAP7 SWAP6 POP POP POP POP POP POP JUMP JUMPDEST PUSH1 0x80 MLOAD PUSH1 0xA0 MLOAD PUSH1 0xC0 MLOAD PUSH2 0x16C1 PUSH3 0x691 PUSH1 0x0 CODECOPY PUSH1 0x0 PUSH2 0x74B ADD MSTORE PUSH1 0x0 PUSH2 0x717 ADD MSTORE PUSH1 0x0 PUSH2 0x6F1 ADD MSTORE PUSH2 0x16C1 PUSH1 0x0 RETURN INVALID PUSH1 0x80 PUSH1 0x40 MSTORE CALLVALUE DUP1 ISZERO PUSH2 0x10 JUMPI PUSH1 0x0 DUP1 REVERT JUMPDEST POP PUSH1 0x4 CALLDATASIZE LT PUSH2 0xEA JUMPI PUSH1 0x0 CALLDATALOAD PUSH1 0xE0 SHR DUP1 PUSH4 0x40C10F19 GT PUSH2 0x8C JUMPI DUP1 PUSH4 0x95D89B41 GT PUSH2 0x66 JUMPI DUP1 PUSH4 0x95D89B41 EQ PUSH2 0x261 JUMPI DUP1 PUSH4 0xA9059CBB EQ PUSH2 0x27F JUMPI DUP1 PUSH4 0xD505ACCF EQ PUSH2 0x2AF JUMPI DUP1 PUSH4 0xDD62ED3E EQ PUSH2 0x2CB JUMPI PUSH2 0xEA JUMP JUMPDEST DUP1 PUSH4 0x40C10F19 EQ PUSH2 0x1E5 JUMPI DUP1 PUSH4 0x70A08231 EQ PUSH2 0x201 JUMPI DUP1 PUSH4 0x7ECEBE00 EQ PUSH2 0x231 JUMPI PUSH2 0xEA JUMP JUMPDEST DUP1 PUSH4 0x1AC3D581 GT PUSH2 0xC8 JUMPI DUP1 PUSH4 0x1AC3D581 EQ PUSH2 0x15B JUMPI DUP1 PUSH4 0x23B872DD EQ PUSH2 0x179 JUMPI DUP1 PUSH4 0x313CE567 EQ PUSH2 0x1A9 JUMPI DUP1 PUSH4 0x3644E515 EQ PUSH2 0x1C7 JUMPI PUSH2 0xEA JUMP JUMPDEST DUP1 PUSH4 0x6FDDE03 EQ PUSH2 0xEF JUMPI DUP1 PUSH4 0x95EA7B3 EQ PUSH2 0x10D JUMPI DUP1 PUSH4 0x18160DDD EQ PUSH2 0x13D JUMPI JUMPDEST PUSH1 0x0 DUP1 REVERT JUMPDEST PUSH2 0xF7 PUSH2 0x2FB JUMP JUMPDEST PUSH1 0x40 MLOAD PUSH2 0x104 SWAP2 SWAP1 PUSH2 0xE6D JUMP JUMPDEST PUSH1 0x40 MLOAD DUP1 SWAP2 SUB SWAP1 RETURN JUMPDEST PUSH2 0x127 PUSH1 0x4 DUP1 CALLDATASIZE SUB DUP2 ADD SWAP1 PUSH2 0x122 SWAP2 SWAP1 PUSH2 0xF28 JUMP JUMPDEST PUSH2 0x389 JUMP JUMPDEST PUSH1 0x40 MLOAD PUSH2 0x134 SWAP2 SWAP1 PUSH2 0xF83 JUMP JUMPDEST PUSH1 0x40 MLOAD DUP1 SWAP2 SUB SWAP1 RETURN JUMPDEST PUSH2 0x145 PUSH2 0x47B JUMP JUMPDEST PUSH1 0x40 MLOAD PUSH2 0x152 SWAP2 SWAP1 PUSH2 0xFAD JUMP JUMPDEST PUSH1 0x40 MLOAD DUP1 SWAP2 SUB SWAP1 RETURN JUMPDEST PUSH2 0x163 PUSH2 0x481 JUMP JUMPDEST PUSH1 0x40 MLOAD PUSH2 0x170 SWAP2 SWAP1 PUSH2 0xFAD JUMP JUMPDEST PUSH1 0x40 MLOAD DUP1 SWAP2 SUB SWAP1 RETURN JUMPDEST PUSH2 0x193 PUSH1 0x4 DUP1 CALLDATASIZE SUB DUP2 ADD SWAP1 PUSH2 0x18E SWAP2 SWAP1 PUSH2 0xFC8 JUMP JUMPDEST PUSH2 0x4A5 JUMP JUMPDEST PUSH1 0x40 MLOAD PUSH2 0x1A0 SWAP2 SWAP1 PUSH2 0xF83 JUMP JUMPDEST PUSH1 0x40 MLOAD DUP1 SWAP2 SUB SWAP1 RETURN JUMPDEST PUSH2 0x1B1 PUSH2 0x6EF JUMP JUMPDEST PUSH1 0x40 MLOAD PUSH2 0x1BE SWAP2 SWAP1 PUSH2 0x1037 JUMP JUMPDEST PUSH1 0x40 MLOAD DUP1 SWAP2 SUB SWAP1 RETURN JUMPDEST PUSH2 0x1CF PUSH2 0x713 JUMP JUMPDEST PUSH1 0x40 MLOAD PUSH2 0x1DC SWAP2 SWAP1 PUSH2 0x106B JUMP JUMPDEST PUSH1 0x40 MLOAD DUP1 SWAP2 SUB SWAP1 RETURN JUMPDEST PUSH2 0x1FF PUSH1 0x4 DUP1 CALLDATASIZE SUB DUP2 ADD SWAP1 PUSH2 0x1FA SWAP2 SWAP1 PUSH2 0xF28 JUMP JUMPDEST PUSH2 0x770 JUMP JUMPDEST STOP JUMPDEST PUSH2 0x21B PUSH1 0x4 DUP1 CALLDATASIZE SUB DUP2 ADD SWAP1 PUSH2 0x216 SWAP2 SWAP1 PUSH2 0x1086 JUMP JUMPDEST PUSH2 0x77E JUMP JUMPDEST PUSH1 0x40 MLOAD PUSH2 0x228 SWAP2 SWAP1 PUSH2 0xFAD JUMP JUMPDEST PUSH1 0x40 MLOAD DUP1 SWAP2 SUB SWAP1 RETURN JUMPDEST PUSH2 0x24B PUSH1 0x4 DUP1 CALLDATASIZE SUB DUP2 ADD SWAP1 PUSH2 0x246 SWAP2 SWAP1 PUSH2 0x1086 JUMP JUMPDEST PUSH2 0x796 JUMP JUMPDEST PUSH1 0x40 MLOAD PUSH2 0x258 SWAP2 SWAP1 PUSH2 0xFAD JUMP JUMPDEST PUSH1 0x40 MLOAD DUP1 SWAP2 SUB SWAP1 RETURN JUMPDEST PUSH2 0x269 PUSH2 0x7AE JUMP JUMPDEST PUSH1 0x40 MLOAD PUSH2 0x276 SWAP2 SWAP1 PUSH2 0xE6D JUMP JUMPDEST PUSH1 0x40 MLOAD DUP1 SWAP2 SUB SWAP1 RETURN JUMPDEST PUSH2 0x299 PUSH1 0x4 DUP1 CALLDATASIZE SUB DUP2 ADD SWAP1 PUSH2 0x294 SWAP2 SWAP1 PUSH2 0xF28 JUMP JUMPDEST PUSH2 0x83C JUMP JUMPDEST PUSH1 0x40 MLOAD PUSH2 0x2A6 SWAP2 SWAP1 PUSH2 0xF83 JUMP JUMPDEST PUSH1 0x40 MLOAD DUP1 SWAP2 SUB SWAP1 RETURN JUMPDEST PUSH2 0x2C9 PUSH1 0x4 DUP1 CALLDATASIZE SUB DUP2 ADD SWAP1 PUSH2 0x2C4 SWAP2 SWAP1 PUSH2 0x110B JUMP JUMPDEST PUSH2 0x950 JUMP JUMPDEST STOP JUMPDEST PUSH2 0x2E5 PUSH1 0x4 DUP1 CALLDATASIZE SUB DUP2 ADD SWAP1 PUSH2 0x2E0 SWAP2 SWAP1 PUSH2 0x11AD JUMP JUMPDEST PUSH2 0xC5C JUMP JUMPDEST PUSH1 0x40 MLOAD PUSH2 0x2F2 SWAP2 SWAP1 PUSH2 0xFAD JUMP JUMPDEST PUSH1 0x40 MLOAD DUP1 SWAP2 SUB SWAP1 RETURN JUMPDEST PUSH1 0x0 DUP1 SLOAD PUSH2 0x308 SWAP1 PUSH2 0x121C JUMP JUMPDEST DUP1 PUSH1 0x1F ADD PUSH1 0x20 DUP1 SWAP2 DIV MUL PUSH1 0x20 ADD PUSH1 0x40 MLOAD SWAP1 DUP2 ADD PUSH1 0x40 MSTORE DUP1 SWAP3 SWAP2 SWAP1 DUP2 DUP2 MSTORE PUSH1 0x20 ADD DUP3 DUP1 SLOAD PUSH2 0x334 SWAP1 PUSH2 0x121C JUMP JUMPDEST DUP1 ISZERO PUSH2 0x381 JUMPI DUP1 PUSH1 0x1F LT PUSH2 0x356 JUMPI PUSH2 0x100 DUP1 DUP4 SLOAD DIV MUL DUP4 MSTORE SWAP2 PUSH1 0x20 ADD SWAP2 PUSH2 0x381 JUMP JUMPDEST DUP3 ADD SWAP2 SWAP1 PUSH1 0x0 MSTORE PUSH1 0x20 PUSH1 0x0 KECCAK256 SWAP1 JUMPDEST DUP2 SLOAD DUP2 MSTORE SWAP1 PUSH1 0x1 ADD SWAP1 PUSH1 0x20 ADD DUP1 DUP4 GT PUSH2 0x364 JUMPI DUP3 SWAP1 SUB PUSH1 0x1F AND DUP3 ADD SWAP2 JUMPDEST POP POP POP POP POP DUP2 JUMP JUMPDEST PUSH1 0x0 DUP2 PUSH1 0x4 PUSH1 0x0 CALLER PUSH20 0xFFFFFFFFFFFFFFFFFFFFFFFFFFFFFFFFFFFFFFFF AND PUSH20 0xFFFFFFFFFFFFFFFFFFFFFFFFFFFFFFFFFFFFFFFF AND DUP2 MSTORE PUSH1 0x20 ADD SWAP1 DUP2 MSTORE PUSH1 0x20 ADD PUSH1 0x0 KECCAK256 PUSH1 0x0 DUP6 PUSH20 0xFFFFFFFFFFFFFFFFFFFFFFFFFFFFFFFFFFFFFFFF AND PUSH20 0xFFFFFFFFFFFFFFFFFFFFFFFFFFFFFFFFFFFFFFFF AND DUP2 MSTORE PUSH1 0x20 ADD SWAP1 DUP2 MSTORE PUSH1 0x20 ADD PUSH1 0x0 KECCAK256 DUP2 SWAP1 SSTORE POP DUP3 PUSH20 0xFFFFFFFFFFFFFFFFFFFFFFFFFFFFFFFFFFFFFFFF AND CALLER PUSH20 0xFFFFFFFFFFFFFFFFFFFFFFFFFFFFFFFFFFFFFFFF AND PUSH32 0x8C5BE1E5EBEC7D5BD14F71427D1E84F3DD0314C0F7B2291E5B200AC8C7C3B925 DUP5 PUSH1 0x40 MLOAD PUSH2 0x469 SWAP2 SWAP1 PUSH2 0xFAD JUMP JUMPDEST PUSH1 0x40 MLOAD DUP1 SWAP2 SUB SWAP1 LOG3 PUSH1 0x1 SWAP1 POP SWAP3 SWAP2 POP POP JUMP JUMPDEST PUSH1 0x2 SLOAD DUP2 JUMP JUMPDEST PUSH32 0xFFFFFFFFFFFFFFFFFFFFFFFFFFFFFFFFFFFFFFFFFFFFFFFFFFFFFFFFFFFFFFFF DUP2 JUMP JUMPDEST PUSH1 0x0 DUP1 PUSH1 0x4 PUSH1 0x0 DUP7 PUSH20 0xFFFFFFFFFFFFFFFFFFFFFFFFFFFFFFFFFFFFFFFF AND PUSH20 0xFFFFFFFFFFFFFFFFFFFFFFFFFFFFFFFFFFFFFFFF AND DUP2 MSTORE PUSH1 0x20 ADD SWAP1 DUP2 MSTORE PUSH1 0x20 ADD PUSH1 0x0 KECCAK256 PUSH1 0x0 CALLER PUSH20 0xFFFFFFFFFFFFFFFFFFFFFFFFFFFFFFFFFFFFFFFF AND PUSH20 0xFFFFFFFFFFFFFFFFFFFFFFFFFFFFFFFFFFFFFFFF AND DUP2 MSTORE PUSH1 0x20 ADD SWAP1 DUP2 MSTORE PUSH1 0x20 ADD PUSH1 0x0 KECCAK256 SLOAD SWAP1 POP PUSH32 0xFFFFFFFFFFFFFFFFFFFFFFFFFFFFFFFFFFFFFFFFFFFFFFFFFFFFFFFFFFFFFFFF DUP2 EQ PUSH2 0x5DB JUMPI DUP3 DUP2 PUSH2 0x55A SWAP2 SWAP1 PUSH2 0x127C JUMP JUMPDEST PUSH1 0x4 PUSH1 0x0 DUP8 PUSH20 0xFFFFFFFFFFFFFFFFFFFFFFFFFFFFFFFFFFFFFFFF AND PUSH20 0xFFFFFFFFFFFFFFFFFFFFFFFFFFFFFFFFFFFFFFFF AND DUP2 MSTORE PUSH1 0x20 ADD SWAP1 DUP2 MSTORE PUSH1 0x20 ADD PUSH1 0x0 KECCAK256 PUSH1 0x0 CALLER PUSH20 0xFFFFFFFFFFFFFFFFFFFFFFFFFFFFFFFFFFFFFFFF AND PUSH20 0xFFFFFFFFFFFFFFFFFFFFFFFFFFFFFFFFFFFFFFFF AND DUP2 MSTORE PUSH1 0x20 ADD SWAP1 DUP2 MSTORE PUSH1 0x20 ADD PUSH1 0x0 KECCAK256 DUP2 SWAP1 SSTORE POP JUMPDEST DUP3 PUSH1 0x3 PUSH1 0x0 DUP8 PUSH20 0xFFFFFFFFFFFFFFFFFFFFFFFFFFFFFFFFFFFFFFFF AND PUSH20 0xFFFFFFFFFFFFFFFFFFFFFFFFFFFFFFFFFFFFFFFF AND DUP2 MSTORE PUSH1 0x20 ADD SWAP1 DUP2 MSTORE PUSH1 0x20 ADD PUSH1 0x0 KECCAK256 PUSH1 0x0 DUP3 DUP3 SLOAD PUSH2 0x62A SWAP2 SWAP1 PUSH2 0x127C JUMP JUMPDEST SWAP3 POP POP DUP2 SWAP1 SSTORE POP DUP3 PUSH1 0x3 PUSH1 0x0 DUP7 PUSH20 0xFFFFFFFFFFFFFFFFFFFFFFFFFFFFFFFFFFFFFFFF AND PUSH20 0xFFFFFFFFFFFFFFFFFFFFFFFFFFFFFFFFFFFFFFFF AND DUP2 MSTORE PUSH1 0x20 ADD SWAP1 DUP2 MSTORE PUSH1 0x20 ADD PUSH1 0x0 KECCAK256 PUSH1 0x0 DUP3 DUP3 SLOAD ADD SWAP3 POP POP DUP2 SWAP1 SSTORE POP DUP4 PUSH20 0xFFFFFFFFFFFFFFFFFFFFFFFFFFFFFFFFFFFFFFFF AND DUP6 PUSH20 0xFFFFFFFFFFFFFFFFFFFFFFFFFFFFFFFFFFFFFFFF AND PUSH32 0xDDF252AD1BE2C89B69C2B068FC378DAA952BA7F163C4A11628F55A4DF523B3EF DUP6 PUSH1 0x40 MLOAD PUSH2 0x6DB SWAP2 SWAP1 PUSH2 0xFAD JUMP JUMPDEST PUSH1 0x40 MLOAD DUP1 SWAP2 SUB SWAP1 LOG3 PUSH1 0x1 SWAP2 POP POP SWAP4 SWAP3 POP POP POP JUMP JUMPDEST PUSH32 0x0 DUP2 JUMP JUMPDEST PUSH1 0x0 PUSH32 0x0 CHAINID EQ PUSH2 0x749 JUMPI PUSH2 0x744 PUSH2 0xC81 JUMP JUMPDEST PUSH2 0x76B JUMP JUMPDEST PUSH32 0x0 JUMPDEST SWAP1 POP SWAP1 JUMP JUMPDEST PUSH2 0x77A DUP3 DUP3 PUSH2 0xD0D JUMP JUMPDEST POP POP JUMP JUMPDEST PUSH1 0x3 PUSH1 0x20 MSTORE DUP1 PUSH1 0x0 MSTORE PUSH1 0x40 PUSH1 0x0 KECCAK256 PUSH1 0x0 SWAP2 POP SWAP1 POP SLOAD DUP2 JUMP JUMPDEST PUSH1 0x5 PUSH1 0x20 MSTORE DUP1 PUSH1 0x0 MSTORE PUSH1 0x40 PUSH1 0x0 KECCAK256 PUSH1 0x0 SWAP2 POP SWAP1 POP SLOAD DUP2 JUMP JUMPDEST PUSH1 0x1 DUP1 SLOAD PUSH2 0x7BB SWAP1 PUSH2 0x121C JUMP JUMPDEST DUP1 PUSH1 0x1F ADD PUSH1 0x20 DUP1 SWAP2 DIV MUL PUSH1 0x20 ADD PUSH1 0x40 MLOAD SWAP1 DUP2 ADD PUSH1 0x40 MSTORE DUP1 SWAP3 SWAP2 SWAP1 DUP2 DUP2 MSTORE PUSH1 0x20 ADD DUP3 DUP1 SLOAD PUSH2 0x7E7 SWAP1 PUSH2 0x121C JUMP JUMPDEST DUP1 ISZERO PUSH2 0x834 JUMPI DUP1 PUSH1 0x1F LT PUSH2 0x809 JUMPI PUSH2 0x100 DUP1 DUP4 SLOAD DIV MUL DUP4 MSTORE SWAP2 PUSH1 0x20 ADD SWAP2 PUSH2 0x834 JUMP JUMPDEST DUP3 ADD SWAP2 SWAP1 PUSH1 0x0 MSTORE PUSH1 0x20 PUSH1 0x0 KECCAK256 SWAP1 JUMPDEST DUP2 SLOAD DUP2 MSTORE SWAP1 PUSH1 0x1 ADD SWAP1 PUSH1 0x20 ADD DUP1 DUP4 GT PUSH2 0x817 JUMPI DUP3 SWAP1 SUB PUSH1 0x1F AND DUP3 ADD SWAP2 JUMPDEST POP POP POP POP POP DUP2 JUMP JUMPDEST PUSH1 0x0 DUP2 PUSH1 0x3 PUSH1 0x0 CALLER PUSH20 0xFFFFFFFFFFFFFFFFFFFFFFFFFFFFFFFFFFFFFFFF AND PUSH20 0xFFFFFFFFFFFFFFFFFFFFFFFFFFFFFFFFFFFFFFFF AND DUP2 MSTORE PUSH1 0x20 ADD SWAP1 DUP2 MSTORE PUSH1 0x20 ADD PUSH1 0x0 KECCAK256 PUSH1 0x0 DUP3 DUP3 SLOAD PUSH2 0x88D SWAP2 SWAP1 PUSH2 0x127C JUMP JUMPDEST SWAP3 POP POP DUP2 SWAP1 SSTORE POP DUP2 PUSH1 0x3 PUSH1 0x0 DUP6 PUSH20 0xFFFFFFFFFFFFFFFFFFFFFFFFFFFFFFFFFFFFFFFF AND PUSH20 0xFFFFFFFFFFFFFFFFFFFFFFFFFFFFFFFFFFFFFFFF AND DUP2 MSTORE PUSH1 0x20 ADD SWAP1 DUP2 MSTORE PUSH1 0x20 ADD PUSH1 0x0 KECCAK256 PUSH1 0x0 DUP3 DUP3 SLOAD ADD SWAP3 POP POP DUP2 SWAP1 SSTORE POP DUP3 PUSH20 0xFFFFFFFFFFFFFFFFFFFFFFFFFFFFFFFFFFFFFFFF AND CALLER PUSH20 0xFFFFFFFFFFFFFFFFFFFFFFFFFFFFFFFFFFFFFFFF AND PUSH32 0xDDF252AD1BE2C89B69C2B068FC378DAA952BA7F163C4A11628F55A4DF523B3EF DUP5 PUSH1 0x40 MLOAD PUSH2 0x93E SWAP2 SWAP1 PUSH2 0xFAD JUMP JUMPDEST PUSH1 0x40 MLOAD DUP1 SWAP2 SUB SWAP1 LOG3 PUSH1 0x1 SWAP1 POP SWAP3 SWAP2 POP POP JUMP JUMPDEST TIMESTAMP DUP5 LT ISZERO PUSH2 0x993 JUMPI PUSH1 0x40 MLOAD PUSH32 0x8C379A000000000000000000000000000000000000000000000000000000000 DUP2 MSTORE PUSH1 0x4 ADD PUSH2 0x98A SWAP1 PUSH2 0x12FC JUMP JUMPDEST PUSH1 0x40 MLOAD DUP1 SWAP2 SUB SWAP1 REVERT JUMPDEST PUSH1 0x0 PUSH1 0x1 PUSH2 0x99F PUSH2 0x713 JUMP JUMPDEST PUSH32 0x5619A74ECD0240AFC3BFB1DF2BD1319401220FB577809C3A09BF0AB809AC861 DUP11 DUP11 DUP11 DUP11 PUSH1 0x40 MLOAD PUSH1 0x20 ADD PUSH2 0x9D8 SWAP6 SWAP5 SWAP4 SWAP3 SWAP2 SWAP1 PUSH2 0x132B JUMP JUMPDEST PUSH1 0x40 MLOAD PUSH1 0x20 DUP2 DUP4 SUB SUB DUP2 MSTORE SWAP1 PUSH1 0x40 MSTORE DUP1 MLOAD SWAP1 PUSH1 0x20 ADD KECCAK256 PUSH1 0x40 MLOAD PUSH1 0x20 ADD PUSH2 0x9FF SWAP3 SWAP2 SWAP1 PUSH2 0x13F6 JUMP JUMPDEST PUSH1 0x40 MLOAD PUSH1 0x20 DUP2 DUP4 SUB SUB DUP2 MSTORE SWAP1 PUSH1 0x40 MSTORE DUP1 MLOAD SWAP1 PUSH1 0x20 ADD KECCAK256 DUP6 DUP6 DUP6 PUSH1 0x40 MLOAD PUSH1 0x0 DUP2 MSTORE PUSH1 0x20 ADD PUSH1 0x40 MSTORE PUSH1 0x40 MLOAD PUSH2 0xA35 SWAP5 SWAP4 SWAP3 SWAP2 SWAP1 PUSH2 0x142D JUMP JUMPDEST PUSH1 0x20 PUSH1 0x40 MLOAD PUSH1 0x20 DUP2 SUB SWAP1 DUP1 DUP5 SUB SWAP1 DUP6 GAS STATICCALL ISZERO DUP1 ISZERO PUSH2 0xA57 JUMPI RETURNDATASIZE PUSH1 0x0 DUP1 RETURNDATACOPY RETURNDATASIZE PUSH1 0x0 REVERT JUMPDEST POP POP POP PUSH1 0x20 PUSH1 0x40 MLOAD SUB MLOAD SWAP1 POP PUSH1 0x0 PUSH20 0xFFFFFFFFFFFFFFFFFFFFFFFFFFFFFFFFFFFFFFFF AND DUP2 PUSH20 0xFFFFFFFFFFFFFFFFFFFFFFFFFFFFFFFFFFFFFFFF AND EQ ISZERO DUP1 ISZERO PUSH2 0xACB JUMPI POP DUP8 PUSH20 0xFFFFFFFFFFFFFFFFFFFFFFFFFFFFFFFFFFFFFFFF AND DUP2 PUSH20 0xFFFFFFFFFFFFFFFFFFFFFFFFFFFFFFFFFFFFFFFF AND EQ JUMPDEST PUSH2 0xB0A JUMPI PUSH1 0x40 MLOAD PUSH32 0x8C379A000000000000000000000000000000000000000000000000000000000 DUP2 MSTORE PUSH1 0x4 ADD PUSH2 0xB01 SWAP1 PUSH2 0x14BE JUMP JUMPDEST PUSH1 0x40 MLOAD DUP1 SWAP2 SUB SWAP1 REVERT JUMPDEST PUSH32 0xFFFFFFFFFFFFFFFFFFFFFFFFFFFFFFFFFFFFFFFFFFFFFFFFFFFFFFFFFFFFFFFF DUP7 EQ PUSH2 0xB6C JUMPI PUSH1 0x40 MLOAD PUSH32 0x8C379A000000000000000000000000000000000000000000000000000000000 DUP2 MSTORE PUSH1 0x4 ADD PUSH2 0xB63 SWAP1 PUSH2 0x152A JUMP JUMPDEST PUSH1 0x40 MLOAD DUP1 SWAP2 SUB SWAP1 REVERT JUMPDEST DUP6 PUSH1 0x4 PUSH1 0x0 DUP4 PUSH20 0xFFFFFFFFFFFFFFFFFFFFFFFFFFFFFFFFFFFFFFFF AND PUSH20 0xFFFFFFFFFFFFFFFFFFFFFFFFFFFFFFFFFFFFFFFF AND DUP2 MSTORE PUSH1 0x20 ADD SWAP1 DUP2 MSTORE PUSH1 0x20 ADD PUSH1 0x0 KECCAK256 PUSH1 0x0 DUP10 PUSH20 0xFFFFFFFFFFFFFFFFFFFFFFFFFFFFFFFFFFFFFFFF AND PUSH20 0xFFFFFFFFFFFFFFFFFFFFFFFFFFFFFFFFFFFFFFFF AND DUP2 MSTORE PUSH1 0x20 ADD SWAP1 DUP2 MSTORE PUSH1 0x20 ADD PUSH1 0x0 KECCAK256 DUP2 SWAP1 SSTORE POP POP DUP6 PUSH20 0xFFFFFFFFFFFFFFFFFFFFFFFFFFFFFFFFFFFFFFFF AND DUP8 PUSH20 0xFFFFFFFFFFFFFFFFFFFFFFFFFFFFFFFFFFFFFFFF AND PUSH32 0x8C5BE1E5EBEC7D5BD14F71427D1E84F3DD0314C0F7B2291E5B200AC8C7C3B925 DUP8 PUSH1 0x40 MLOAD PUSH2 0xC4B SWAP2 SWAP1 PUSH2 0xFAD JUMP JUMPDEST PUSH1 0x40 MLOAD DUP1 SWAP2 SUB SWAP1 LOG3 POP POP POP POP POP POP POP JUMP JUMPDEST PUSH1 0x4 PUSH1 0x20 MSTORE DUP2 PUSH1 0x0 MSTORE PUSH1 0x40 PUSH1 0x0 KECCAK256 PUSH1 0x20 MSTORE DUP1 PUSH1 0x0 MSTORE PUSH1 0x40 PUSH1 0x0 KECCAK256 PUSH1 0x0 SWAP2 POP SWAP2 POP POP SLOAD DUP2 JUMP JUMPDEST PUSH1 0x0 PUSH32 0x8B73C3C69BB8FE3D512ECC4CF759CC79239F7B179B0FFACAA9A75D522B39400F PUSH1 0x0 PUSH1 0x40 MLOAD PUSH2 0xCB3 SWAP2 SWAP1 PUSH2 0x15ED JUMP JUMPDEST PUSH1 0x40 MLOAD DUP1 SWAP2 SUB SWAP1 KECCAK256 PUSH32 0xC89EFDAA54C0F20C7ADF612882DF0950F5A951637E0307CDCB4C672F298B8BC6 CHAINID ADDRESS PUSH1 0x40 MLOAD PUSH1 0x20 ADD PUSH2 0xCF2 SWAP6 SWAP5 SWAP4 SWAP3 SWAP2 SWAP1 PUSH2 0x1604 JUMP JUMPDEST PUSH1 0x40 MLOAD PUSH1 0x20 DUP2 DUP4 SUB SUB DUP2 MSTORE SWAP1 PUSH1 0x40 MSTORE DUP1 MLOAD SWAP1 PUSH1 0x20 ADD KECCAK256 SWAP1 POP SWAP1 JUMP JUMPDEST DUP1 PUSH1 0x2 PUSH1 0x0 DUP3 DUP3 SLOAD PUSH2 0xD1F SWAP2 SWAP1 PUSH2 0x1657 JUMP JUMPDEST SWAP3 POP POP DUP2 SWAP1 SSTORE POP DUP1 PUSH1 0x3 PUSH1 0x0 DUP5 PUSH20 0xFFFFFFFFFFFFFFFFFFFFFFFFFFFFFFFFFFFFFFFF AND PUSH20 0xFFFFFFFFFFFFFFFFFFFFFFFFFFFFFFFFFFFFFFFF AND DUP2 MSTORE PUSH1 0x20 ADD SWAP1 DUP2 MSTORE PUSH1 0x20 ADD PUSH1 0x0 KECCAK256 PUSH1 0x0 DUP3 DUP3 SLOAD ADD SWAP3 POP POP DUP2 SWAP1 SSTORE POP DUP2 PUSH20 0xFFFFFFFFFFFFFFFFFFFFFFFFFFFFFFFFFFFFFFFF AND PUSH1 0x0 PUSH20 0xFFFFFFFFFFFFFFFFFFFFFFFFFFFFFFFFFFFFFFFF AND PUSH32 0xDDF252AD1BE2C89B69C2B068FC378DAA952BA7F163C4A11628F55A4DF523B3EF DUP4 PUSH1 0x40 MLOAD PUSH2 0xDD1 SWAP2 SWAP1 PUSH2 0xFAD JUMP JUMPDEST PUSH1 0x40 MLOAD DUP1 SWAP2 SUB SWAP1 LOG3 POP POP JUMP JUMPDEST PUSH1 0x0 DUP2 MLOAD SWAP1 POP SWAP2 SWAP1 POP JUMP JUMPDEST PUSH1 0x0 DUP3 DUP3 MSTORE PUSH1 0x20 DUP3 ADD SWAP1 POP SWAP3 SWAP2 POP POP JUMP JUMPDEST PUSH1 0x0 JUMPDEST DUP4 DUP2 LT ISZERO PUSH2 0xE17 JUMPI DUP1 DUP3 ADD MLOAD DUP2 DUP5 ADD MSTORE PUSH1 0x20 DUP2 ADD SWAP1 POP PUSH2 0xDFC JUMP JUMPDEST PUSH1 0x0 DUP5 DUP5 ADD MSTORE POP POP POP POP JUMP JUMPDEST PUSH1 0x0 PUSH1 0x1F NOT PUSH1 0x1F DUP4 ADD AND SWAP1 POP SWAP2 SWAP1 POP JUMP JUMPDEST PUSH1 0x0 PUSH2 0xE3F DUP3 PUSH2 0xDDD JUMP JUMPDEST PUSH2 0xE49 DUP2 DUP6 PUSH2 0xDE8 JUMP JUMPDEST SWAP4 POP PUSH2 0xE59 DUP2 DUP6 PUSH1 0x20 DUP7 ADD PUSH2 0xDF9 JUMP JUMPDEST PUSH2 0xE62 DUP2 PUSH2 0xE23 JUMP JUMPDEST DUP5 ADD SWAP2 POP POP SWAP3 SWAP2 POP POP JUMP JUMPDEST PUSH1 0x0 PUSH1 0x20 DUP3 ADD SWAP1 POP DUP2 DUP2 SUB PUSH1 0x0 DUP4 ADD MSTORE PUSH2 0xE87 DUP2 DUP5 PUSH2 0xE34 JUMP JUMPDEST SWAP1 POP SWAP3 SWAP2 POP POP JUMP JUMPDEST PUSH1 0x0 DUP1 REVERT JUMPDEST PUSH1 0x0 PUSH20 0xFFFFFFFFFFFFFFFFFFFFFFFFFFFFFFFFFFFFFFFF DUP3 AND SWAP1 POP SWAP2 SWAP1 POP JUMP JUMPDEST PUSH1 0x0 PUSH2 0xEBF DUP3 PUSH2 0xE94 JUMP JUMPDEST SWAP1 POP SWAP2 SWAP1 POP JUMP JUMPDEST PUSH2 0xECF DUP2 PUSH2 0xEB4 JUMP JUMPDEST DUP2 EQ PUSH2 0xEDA JUMPI PUSH1 0x0 DUP1 REVERT JUMPDEST POP JUMP JUMPDEST PUSH1 0x0 DUP2 CALLDATALOAD SWAP1 POP PUSH2 0xEEC DUP2 PUSH2 0xEC6 JUMP JUMPDEST SWAP3 SWAP2 POP POP JUMP JUMPDEST PUSH1 0x0 DUP2 SWAP1 POP SWAP2 SWAP1 POP JUMP JUMPDEST PUSH2 0xF05 DUP2 PUSH2 0xEF2 JUMP JUMPDEST DUP2 EQ PUSH2 0xF10 JUMPI PUSH1 0x0 DUP1 REVERT JUMPDEST POP JUMP JUMPDEST PUSH1 0x0 DUP2 CALLDATALOAD SWAP1 POP PUSH2 0xF22 DUP2 PUSH2 0xEFC JUMP JUMPDEST SWAP3 SWAP2 POP POP JUMP JUMPDEST PUSH1 0x0 DUP1 PUSH1 0x40 DUP4 DUP6 SUB SLT ISZERO PUSH2 0xF3F JUMPI PUSH2 0xF3E PUSH2 0xE8F JUMP JUMPDEST JUMPDEST PUSH1 0x0 PUSH2 0xF4D DUP6 DUP3 DUP7 ADD PUSH2 0xEDD JUMP JUMPDEST SWAP3 POP POP PUSH1 0x20 PUSH2 0xF5E DUP6 DUP3 DUP7 ADD PUSH2 0xF13 JUMP JUMPDEST SWAP2 POP POP SWAP3 POP SWAP3 SWAP1 POP JUMP JUMPDEST PUSH1 0x0 DUP2 ISZERO ISZERO SWAP1 POP SWAP2 SWAP1 POP JUMP JUMPDEST PUSH2 0xF7D DUP2 PUSH2 0xF68 JUMP JUMPDEST DUP3 MSTORE POP POP JUMP JUMPDEST PUSH1 0x0 PUSH1 0x20 DUP3 ADD SWAP1 POP PUSH2 0xF98 PUSH1 0x0 DUP4 ADD DUP5 PUSH2 0xF74 JUMP JUMPDEST SWAP3 SWAP2 POP POP JUMP JUMPDEST PUSH2 0xFA7 DUP2 PUSH2 0xEF2 JUMP JUMPDEST DUP3 MSTORE POP POP JUMP JUMPDEST PUSH1 0x0 PUSH1 0x20 DUP3 ADD SWAP1 POP PUSH2 0xFC2 PUSH1 0x0 DUP4 ADD DUP5 PUSH2 0xF9E JUMP JUMPDEST SWAP3 SWAP2 POP POP JUMP JUMPDEST PUSH1 0x0 DUP1 PUSH1 0x0 PUSH1 0x60 DUP5 DUP7 SUB SLT ISZERO PUSH2 0xFE1 JUMPI PUSH2 0xFE0 PUSH2 0xE8F JUMP JUMPDEST JUMPDEST PUSH1 0x0 PUSH2 0xFEF DUP7 DUP3 DUP8 ADD PUSH2 0xEDD JUMP JUMPDEST SWAP4 POP POP PUSH1 0x20 PUSH2 0x1000 DUP7 DUP3 DUP8 ADD PUSH2 0xEDD JUMP JUMPDEST SWAP3 POP POP PUSH1 0x40 PUSH2 0x1011 DUP7 DUP3 DUP8 ADD PUSH2 0xF13 JUMP JUMPDEST SWAP2 POP POP SWAP3 POP SWAP3 POP SWAP3 JUMP JUMPDEST PUSH1 0x0 PUSH1 0xFF DUP3 AND SWAP1 POP SWAP2 SWAP1 POP JUMP JUMPDEST PUSH2 0x1031 DUP2 PUSH2 0x101B JUMP JUMPDEST DUP3 MSTORE POP POP JUMP JUMPDEST PUSH1 0x0 PUSH1 0x20 DUP3 ADD SWAP1 POP PUSH2 0x104C PUSH1 0x0 DUP4 ADD DUP5 PUSH2 0x1028 JUMP JUMPDEST SWAP3 SWAP2 POP POP JUMP JUMPDEST PUSH1 0x0 DUP2 SWAP1 POP SWAP2 SWAP1 POP JUMP JUMPDEST PUSH2 0x1065 DUP2 PUSH2 0x1052 JUMP JUMPDEST DUP3 MSTORE POP POP JUMP JUMPDEST PUSH1 0x0 PUSH1 0x20 DUP3 ADD SWAP1 POP PUSH2 0x1080 PUSH1 0x0 DUP4 ADD DUP5 PUSH2 0x105C JUMP JUMPDEST SWAP3 SWAP2 POP POP JUMP JUMPDEST PUSH1 0x0 PUSH1 0x20 DUP3 DUP5 SUB SLT ISZERO PUSH2 0x109C JUMPI PUSH2 0x109B PUSH2 0xE8F JUMP JUMPDEST JUMPDEST PUSH1 0x0 PUSH2 0x10AA DUP5 DUP3 DUP6 ADD PUSH2 0xEDD JUMP JUMPDEST SWAP2 POP POP SWAP3 SWAP2 POP POP JUMP JUMPDEST PUSH2 0x10BC DUP2 PUSH2 0x101B JUMP JUMPDEST DUP2 EQ PUSH2 0x10C7 JUMPI PUSH1 0x0 DUP1 REVERT JUMPDEST POP JUMP JUMPDEST PUSH1 0x0 DUP2 CALLDATALOAD SWAP1 POP PUSH2 0x10D9 DUP2 PUSH2 0x10B3 JUMP JUMPDEST SWAP3 SWAP2 POP POP JUMP JUMPDEST PUSH2 0x10E8 DUP2 PUSH2 0x1052 JUMP JUMPDEST DUP2 EQ PUSH2 0x10F3 JUMPI PUSH1 0x0 DUP1 REVERT JUMPDEST POP JUMP JUMPDEST PUSH1 0x0 DUP2 CALLDATALOAD SWAP1 POP PUSH2 0x1105 DUP2 PUSH2 0x10DF JUMP JUMPDEST SWAP3 SWAP2 POP POP JUMP JUMPDEST PUSH1 0x0 DUP1 PUSH1 0x0 DUP1 PUSH1 0x0 DUP1 PUSH1 0x0 PUSH1 0xE0 DUP9 DUP11 SUB SLT ISZERO PUSH2 0x112A JUMPI PUSH2 0x1129 PUSH2 0xE8F JUMP JUMPDEST JUMPDEST PUSH1 0x0 PUSH2 0x1138 DUP11 DUP3 DUP12 ADD PUSH2 0xEDD JUMP JUMPDEST SWAP8 POP POP PUSH1 0x20 PUSH2 0x1149 DUP11 DUP3 DUP12 ADD PUSH2 0xEDD JUMP JUMPDEST SWAP7 POP POP PUSH1 0x40 PUSH2 0x115A DUP11 DUP3 DUP12 ADD PUSH2 0xF13 JUMP JUMPDEST SWAP6 POP POP PUSH1 0x60 PUSH2 0x116B DUP11 DUP3 DUP12 ADD PUSH2 0xF13 JUMP JUMPDEST SWAP5 POP POP PUSH1 0x80 PUSH2 0x117C DUP11 DUP3 DUP12 ADD PUSH2 0x10CA JUMP JUMPDEST SWAP4 POP POP PUSH1 0xA0 PUSH2 0x118D DUP11 DUP3 DUP12 ADD PUSH2 0x10F6 JUMP JUMPDEST SWAP3 POP POP PUSH1 0xC0 PUSH2 0x119E DUP11 DUP3 DUP12 ADD PUSH2 0x10F6 JUMP JUMPDEST SWAP2 POP POP SWAP3 SWAP6 SWAP9 SWAP2 SWAP5 SWAP8 POP SWAP3 SWAP6 POP JUMP JUMPDEST PUSH1 0x0 DUP1 PUSH1 0x40 DUP4 DUP6 SUB SLT ISZERO PUSH2 0x11C4 JUMPI PUSH2 0x11C3 PUSH2 0xE8F JUMP JUMPDEST JUMPDEST PUSH1 0x0 PUSH2 0x11D2 DUP6 DUP3 DUP7 ADD PUSH2 0xEDD JUMP JUMPDEST SWAP3 POP POP PUSH1 0x20 PUSH2 0x11E3 DUP6 DUP3 DUP7 ADD PUSH2 0xEDD JUMP JUMPDEST SWAP2 POP POP SWAP3 POP SWAP3 SWAP1 POP JUMP JUMPDEST PUSH32 0x4E487B7100000000000000000000000000000000000000000000000000000000 PUSH1 0x0 MSTORE PUSH1 0x22 PUSH1 0x4 MSTORE PUSH1 0x24 PUSH1 0x0 REVERT JUMPDEST PUSH1 0x0 PUSH1 0x2 DUP3 DIV SWAP1 POP PUSH1 0x1 DUP3 AND DUP1 PUSH2 0x1234 JUMPI PUSH1 0x7F DUP3 AND SWAP2 POP JUMPDEST PUSH1 0x20 DUP3 LT DUP2 SUB PUSH2 0x1247 JUMPI PUSH2 0x1246 PUSH2 0x11ED JUMP JUMPDEST JUMPDEST POP SWAP2 SWAP1 POP JUMP JUMPDEST PUSH32 0x4E487B7100000000000000000000000000000000000000000000000000000000 PUSH1 0x0 MSTORE PUSH1 0x11 PUSH1 0x4 MSTORE PUSH1 0x24 PUSH1 0x0 REVERT JUMPDEST PUSH1 0x0 PUSH2 0x1287 DUP3 PUSH2 0xEF2 JUMP JUMPDEST SWAP2 POP PUSH2 0x1292 DUP4 PUSH2 0xEF2 JUMP JUMPDEST SWAP3 POP DUP3 DUP3 SUB SWAP1 POP DUP2 DUP2 GT ISZERO PUSH2 0x12AA JUMPI PUSH2 0x12A9 PUSH2 0x124D JUMP JUMPDEST JUMPDEST SWAP3 SWAP2 POP POP JUMP JUMPDEST PUSH32 0x5045524D49545F444541444C494E455F45585049524544000000000000000000 PUSH1 0x0 DUP3 ADD MSTORE POP JUMP JUMPDEST PUSH1 0x0 PUSH2 0x12E6 PUSH1 0x17 DUP4 PUSH2 0xDE8 JUMP JUMPDEST SWAP2 POP PUSH2 0x12F1 DUP3 PUSH2 0x12B0 JUMP JUMPDEST PUSH1 0x20 DUP3 ADD SWAP1 POP SWAP2 SWAP1 POP JUMP JUMPDEST PUSH1 0x0 PUSH1 0x20 DUP3 ADD SWAP1 POP DUP2 DUP2 SUB PUSH1 0x0 DUP4 ADD MSTORE PUSH2 0x1315 DUP2 PUSH2 0x12D9 JUMP JUMPDEST SWAP1 POP SWAP2 SWAP1 POP JUMP JUMPDEST PUSH2 0x1325 DUP2 PUSH2 0xEB4 JUMP JUMPDEST DUP3 MSTORE POP POP JUMP JUMPDEST PUSH1 0x0 PUSH1 0xA0 DUP3 ADD SWAP1 POP PUSH2 0x1340 PUSH1 0x0 DUP4 ADD DUP9 PUSH2 0x105C JUMP JUMPDEST PUSH2 0x134D PUSH1 0x20 DUP4 ADD DUP8 PUSH2 0x131C JUMP JUMPDEST PUSH2 0x135A PUSH1 0x40 DUP4 ADD DUP7 PUSH2 0x131C JUMP JUMPDEST PUSH2 0x1367 PUSH1 0x60 DUP4 ADD DUP6 PUSH2 0xF9E JUMP JUMPDEST PUSH2 0x1374 PUSH1 0x80 DUP4 ADD DUP5 PUSH2 0xF9E JUMP JUMPDEST SWAP7 SWAP6 POP POP POP POP POP POP JUMP JUMPDEST PUSH1 0x0 DUP2 SWAP1 POP SWAP3 SWAP2 POP POP JUMP JUMPDEST PUSH32 0x1901000000000000000000000000000000000000000000000000000000000000 PUSH1 0x0 DUP3 ADD MSTORE POP JUMP JUMPDEST PUSH1 0x0 PUSH2 0x13BF PUSH1 0x2 DUP4 PUSH2 0x137E JUMP JUMPDEST SWAP2 POP PUSH2 0x13CA DUP3 PUSH2 0x1389 JUMP JUMPDEST PUSH1 0x2 DUP3 ADD SWAP1 POP SWAP2 SWAP1 POP JUMP JUMPDEST PUSH1 0x0 DUP2 SWAP1 POP SWAP2 SWAP1 POP JUMP JUMPDEST PUSH2 0x13F0 PUSH2 0x13EB DUP3 PUSH2 0x1052 JUMP JUMPDEST PUSH2 0x13D5 JUMP JUMPDEST DUP3 MSTORE POP POP JUMP JUMPDEST PUSH1 0x0 PUSH2 0x1401 DUP3 PUSH2 0x13B2 JUMP JUMPDEST SWAP2 POP PUSH2 0x140D DUP3 DUP6 PUSH2 0x13DF JUMP JUMPDEST PUSH1 0x20 DUP3 ADD SWAP2 POP PUSH2 0x141D DUP3 DUP5 PUSH2 0x13DF JUMP JUMPDEST PUSH1 0x20 DUP3 ADD SWAP2 POP DUP2 SWAP1 POP SWAP4 SWAP3 POP POP POP JUMP JUMPDEST PUSH1 0x0 PUSH1 0x80 DUP3 ADD SWAP1 POP PUSH2 0x1442 PUSH1 0x0 DUP4 ADD DUP8 PUSH2 0x105C JUMP JUMPDEST PUSH2 0x144F PUSH1 0x20 DUP4 ADD DUP7 PUSH2 0x1028 JUMP JUMPDEST PUSH2 0x145C PUSH1 0x40 DUP4 ADD DUP6 PUSH2 0x105C JUMP JUMPDEST PUSH2 0x1469 PUSH1 0x60 DUP4 ADD DUP5 PUSH2 0x105C JUMP JUMPDEST SWAP6 SWAP5 POP POP POP POP POP JUMP JUMPDEST PUSH32 0x494E56414C49445F5349474E4552000000000000000000000000000000000000 PUSH1 0x0 DUP3 ADD MSTORE POP JUMP JUMPDEST PUSH1 0x0 PUSH2 0x14A8 PUSH1 0xE DUP4 PUSH2 0xDE8 JUMP JUMPDEST SWAP2 POP PUSH2 0x14B3 DUP3 PUSH2 0x1472 JUMP JUMPDEST PUSH1 0x20 DUP3 ADD SWAP1 POP SWAP2 SWAP1 POP JUMP JUMPDEST PUSH1 0x0 PUSH1 0x20 DUP3 ADD SWAP1 POP DUP2 DUP2 SUB PUSH1 0x0 DUP4 ADD MSTORE PUSH2 0x14D7 DUP2 PUSH2 0x149B JUMP JUMPDEST SWAP1 POP SWAP2 SWAP1 POP JUMP JUMPDEST PUSH32 0x496E636F7272656374205065726D69742076616C756500000000000000000000 PUSH1 0x0 DUP3 ADD MSTORE POP JUMP JUMPDEST PUSH1 0x0 PUSH2 0x1514 PUSH1 0x16 DUP4 PUSH2 0xDE8 JUMP JUMPDEST SWAP2 POP PUSH2 0x151F DUP3 PUSH2 0x14DE JUMP JUMPDEST PUSH1 0x20 DUP3 ADD SWAP1 POP SWAP2 SWAP1 POP JUMP JUMPDEST PUSH1 0x0 PUSH1 0x20 DUP3 ADD SWAP1 POP DUP2 DUP2 SUB PUSH1 0x0 DUP4 ADD MSTORE PUSH2 0x1543 DUP2 PUSH2 0x1507 JUMP JUMPDEST SWAP1 POP SWAP2 SWAP1 POP JUMP JUMPDEST PUSH1 0x0 DUP2 SWAP1 POP SWAP3 SWAP2 POP POP JUMP JUMPDEST PUSH1 0x0 DUP2 SWAP1 POP DUP2 PUSH1 0x0 MSTORE PUSH1 0x20 PUSH1 0x0 KECCAK256 SWAP1 POP SWAP2 SWAP1 POP JUMP JUMPDEST PUSH1 0x0 DUP2 SLOAD PUSH2 0x1577 DUP2 PUSH2 0x121C JUMP JUMPDEST PUSH2 0x1581 DUP2 DUP7 PUSH2 0x154A JUMP JUMPDEST SWAP5 POP PUSH1 0x1 DUP3 AND PUSH1 0x0 DUP2 EQ PUSH2 0x159C JUMPI PUSH1 0x1 DUP2 EQ PUSH2 0x15B1 JUMPI PUSH2 0x15E4 JUMP JUMPDEST PUSH1 0xFF NOT DUP4 AND DUP7 MSTORE DUP2 ISZERO ISZERO DUP3 MUL DUP7 ADD SWAP4 POP PUSH2 0x15E4 JUMP JUMPDEST PUSH2 0x15BA DUP6 PUSH2 0x1555 JUMP JUMPDEST PUSH1 0x0 JUMPDEST DUP4 DUP2 LT ISZERO PUSH2 0x15DC JUMPI DUP2 SLOAD DUP2 DUP10 ADD MSTORE PUSH1 0x1 DUP3 ADD SWAP2 POP PUSH1 0x20 DUP2 ADD SWAP1 POP PUSH2 0x15BD JUMP JUMPDEST DUP4 DUP9 ADD SWAP6 POP POP POP JUMPDEST POP POP POP SWAP3 SWAP2 POP POP JUMP JUMPDEST PUSH1 0x0 PUSH2 0x15F9 DUP3 DUP5 PUSH2 0x156A JUMP JUMPDEST SWAP2 POP DUP2 SWAP1 POP SWAP3 SWAP2 POP POP JUMP JUMPDEST PUSH1 0x0 PUSH1 0xA0 DUP3 ADD SWAP1 POP PUSH2 0x1619 PUSH1 0x0 DUP4 ADD DUP9 PUSH2 0x105C JUMP JUMPDEST PUSH2 0x1626 PUSH1 0x20 DUP4 ADD DUP8 PUSH2 0x105C JUMP JUMPDEST PUSH2 0x1633 PUSH1 0x40 DUP4 ADD DUP7 PUSH2 0x105C JUMP JUMPDEST PUSH2 0x1640 PUSH1 0x60 DUP4 ADD DUP6 PUSH2 0xF9E JUMP JUMPDEST PUSH2 0x164D PUSH1 0x80 DUP4 ADD DUP5 PUSH2 0x131C JUMP JUMPDEST SWAP7 SWAP6 POP POP POP POP POP POP JUMP JUMPDEST PUSH1 0x0 PUSH2 0x1662 DUP3 PUSH2 0xEF2 JUMP JUMPDEST SWAP2 POP PUSH2 0x166D DUP4 PUSH2 0xEF2 JUMP JUMPDEST SWAP3 POP DUP3 DUP3 ADD SWAP1 POP DUP1 DUP3 GT ISZERO PUSH2 0x1685 JUMPI PUSH2 0x1684 PUSH2 0x124D JUMP JUMPDEST JUMPDEST SWAP3 SWAP2 POP POP JUMP INVALID LOG2 PUSH5 0x6970667358 0x22 SLT KECCAK256 0x4A PUSH29 0x47FA8B524F45B18FC31D6BFA7D02529E77C64CD0628414C1B1073C0ED5 SWAP6 PUSH5 0x736F6C6343 STOP ADDMOD GT STOP CALLER "
				},
				"gasEstimates": {
					"creation": {
						"codeDepositCost": "1165000",
						"executionCost": "infinite",
						"totalCost": "infinite"
					},
					"external": {
						"DOMAIN_SEPARATOR()": "infinite",
						"MAX_INT_EXPONENTIATION()": "352",
						"allowance(address,address)": "infinite",
						"approve(address,uint256)": "infinite",
						"balanceOf(address)": "2859",
						"decimals()": "infinite",
						"mint(address,uint256)": "infinite",
						"name()": "infinite",
						"nonces(address)": "2881",
						"permit(address,address,uint256,uint256,uint8,bytes32,bytes32)": "infinite",
						"symbol()": "infinite",
						"totalSupply()": "2497",
						"transfer(address,uint256)": "infinite",
						"transferFrom(address,address,uint256)": "infinite"
					}
				},
				"methodIdentifiers": {
					"DOMAIN_SEPARATOR()": "3644e515",
					"MAX_INT_EXPONENTIATION()": "1ac3d581",
					"allowance(address,address)": "dd62ed3e",
					"approve(address,uint256)": "095ea7b3",
					"balanceOf(address)": "70a08231",
					"decimals()": "313ce567",
					"mint(address,uint256)": "40c10f19",
					"name()": "06fdde03",
					"nonces(address)": "7ecebe00",
					"permit(address,address,uint256,uint256,uint8,bytes32,bytes32)": "d505accf",
					"symbol()": "95d89b41",
					"totalSupply()": "18160ddd",
					"transfer(address,uint256)": "a9059cbb",
					"transferFrom(address,address,uint256)": "23b872dd"
				}
			},
			"storageLayout": {
				"storage": [
					{
						"astId": 48,
						"contract": "CONTRACTS/Token.sol:ApeCoin",
						"label": "name",
						"offset": 0,
						"slot": "0",
						"type": "t_string_storage"
					},
					{
						"astId": 50,
						"contract": "CONTRACTS/Token.sol:ApeCoin",
						"label": "symbol",
						"offset": 0,
						"slot": "1",
						"type": "t_string_storage"
					},
					{
						"astId": 54,
						"contract": "CONTRACTS/Token.sol:ApeCoin",
						"label": "totalSupply",
						"offset": 0,
						"slot": "2",
						"type": "t_uint256"
					},
					{
						"astId": 58,
						"contract": "CONTRACTS/Token.sol:ApeCoin",
						"label": "balanceOf",
						"offset": 0,
						"slot": "3",
						"type": "t_mapping(t_address,t_uint256)"
					},
					{
						"astId": 64,
						"contract": "CONTRACTS/Token.sol:ApeCoin",
						"label": "allowance",
						"offset": 0,
						"slot": "4",
						"type": "t_mapping(t_address,t_mapping(t_address,t_uint256))"
					},
					{
						"astId": 72,
						"contract": "CONTRACTS/Token.sol:ApeCoin",
						"label": "nonces",
						"offset": 0,
						"slot": "5",
						"type": "t_mapping(t_address,t_uint256)"
					}
				],
				"types": {
					"t_address": {
						"encoding": "inplace",
						"label": "address",
						"numberOfBytes": "20"
					},
					"t_mapping(t_address,t_mapping(t_address,t_uint256))": {
						"encoding": "mapping",
						"key": "t_address",
						"label": "mapping(address => mapping(address => uint256))",
						"numberOfBytes": "32",
						"value": "t_mapping(t_address,t_uint256)"
					},
					"t_mapping(t_address,t_uint256)": {
						"encoding": "mapping",
						"key": "t_address",
						"label": "mapping(address => uint256)",
						"numberOfBytes": "32",
						"value": "t_uint256"
					},
					"t_string_storage": {
						"encoding": "bytes",
						"label": "string",
						"numberOfBytes": "32"
					},
					"t_uint256": {
						"encoding": "inplace",
						"label": "uint256",
						"numberOfBytes": "32"
					}
				}
			},
			"userdoc": {
				"kind": "user",
				"methods": {},
				"version": 1
			}
		}
	}
}