{
	"CONTRACTS/Vault.sol": {
		"Vault": {
			"abi": [
				{
					"inputs": [
						{
							"internalType": "address",
							"name": "_token",
							"type": "address"
						}
					],
					"stateMutability": "nonpayable",
					"type": "constructor"
				},
				{
					"inputs": [
						{
							"internalType": "uint256",
							"name": "amount",
							"type": "uint256"
						}
					],
					"name": "deposit",
					"outputs": [],
					"stateMutability": "payable",
					"type": "function"
				},
				{
					"inputs": [
						{
							"internalType": "uint256",
							"name": "amount",
							"type": "uint256"
						},
						{
							"internalType": "uint256",
							"name": "deadline",
							"type": "uint256"
						},
						{
							"internalType": "uint8",
							"name": "v",
							"type": "uint8"
						},
						{
							"internalType": "bytes32",
							"name": "r",
							"type": "bytes32"
						},
						{
							"internalType": "bytes32",
							"name": "s",
							"type": "bytes32"
						}
					],
					"name": "depositWithPermit",
					"outputs": [],
					"stateMutability": "payable",
					"type": "function"
				},
				{
					"inputs": [],
					"name": "token",
					"outputs": [
						{
							"internalType": "contract IERC20Permit",
							"name": "",
							"type": "address"
						}
					],
					"stateMutability": "view",
					"type": "function"
				}
			],
			"devdoc": {
				"kind": "dev",
				"methods": {},
				"version": 1
			},
			"evm": {
				"assembly": "    /* \"CONTRACTS/Vault.sol\":85:827  contract Vault {... */\n  mstore(0x40, 0xa0)\n    /* \"CONTRACTS/Vault.sol\":148:221  constructor(address _token) {... */\n  callvalue\n  dup1\n  iszero\n  tag_1\n  jumpi\n  0x00\n  dup1\n  revert\ntag_1:\n  pop\n  mload(0x40)\n  sub(codesize, bytecodeSize)\n  dup1\n  bytecodeSize\n  dup4\n  codecopy\n  dup2\n  dup2\n  add\n  0x40\n  mstore\n  dup2\n  add\n  swap1\n  tag_2\n  swap2\n  swap1\n  tag_3\n  jump\t// in\ntag_2:\n    /* \"CONTRACTS/Vault.sol\":207:213  _token */\n  dup1\n    /* \"CONTRACTS/Vault.sol\":186:214  token = IERC20Permit(_token) */\n  0xffffffffffffffffffffffffffffffffffffffff\n  and\n  0x80\n  dup2\n  0xffffffffffffffffffffffffffffffffffffffff\n  and\n  dup2\n  mstore\n  pop\n  pop\n    /* \"CONTRACTS/Vault.sol\":148:221  constructor(address _token) {... */\n  pop\n    /* \"CONTRACTS/Vault.sol\":85:827  contract Vault {... */\n  jump(tag_6)\n    /* \"#utility.yul\":88:205   */\ntag_8:\n    /* \"#utility.yul\":197:198   */\n  0x00\n    /* \"#utility.yul\":194:195   */\n  dup1\n    /* \"#utility.yul\":187:199   */\n  revert\n    /* \"#utility.yul\":334:460   */\ntag_10:\n    /* \"#utility.yul\":371:378   */\n  0x00\n    /* \"#utility.yul\":411:453   */\n  0xffffffffffffffffffffffffffffffffffffffff\n    /* \"#utility.yul\":404:409   */\n  dup3\n    /* \"#utility.yul\":400:454   */\n  and\n    /* \"#utility.yul\":389:454   */\n  swap1\n  pop\n    /* \"#utility.yul\":334:460   */\n  swap2\n  swap1\n  pop\n  jump\t// out\n    /* \"#utility.yul\":466:562   */\ntag_11:\n    /* \"#utility.yul\":503:510   */\n  0x00\n    /* \"#utility.yul\":532:556   */\n  tag_20\n    /* \"#utility.yul\":550:555   */\n  dup3\n    /* \"#utility.yul\":532:556   */\n  tag_10\n  jump\t// in\ntag_20:\n    /* \"#utility.yul\":521:556   */\n  swap1\n  pop\n    /* \"#utility.yul\":466:562   */\n  swap2\n  swap1\n  pop\n  jump\t// out\n    /* \"#utility.yul\":568:690   */\ntag_12:\n    /* \"#utility.yul\":641:665   */\n  tag_22\n    /* \"#utility.yul\":659:664   */\n  dup2\n    /* \"#utility.yul\":641:665   */\n  tag_11\n  jump\t// in\ntag_22:\n    /* \"#utility.yul\":634:639   */\n  dup2\n    /* \"#utility.yul\":631:666   */\n  eq\n    /* \"#utility.yul\":621:684   */\n  tag_23\n  jumpi\n    /* \"#utility.yul\":680:681   */\n  0x00\n    /* \"#utility.yul\":677:678   */\n  dup1\n    /* \"#utility.yul\":670:682   */\n  revert\n    /* \"#utility.yul\":621:684   */\ntag_23:\n    /* \"#utility.yul\":568:690   */\n  pop\n  jump\t// out\n    /* \"#utility.yul\":696:839   */\ntag_13:\n    /* \"#utility.yul\":753:758   */\n  0x00\n    /* \"#utility.yul\":784:790   */\n  dup2\n    /* \"#utility.yul\":778:791   */\n  mload\n    /* \"#utility.yul\":769:791   */\n  swap1\n  pop\n    /* \"#utility.yul\":800:833   */\n  tag_25\n    /* \"#utility.yul\":827:832   */\n  dup2\n    /* \"#utility.yul\":800:833   */\n  tag_12\n  jump\t// in\ntag_25:\n    /* \"#utility.yul\":696:839   */\n  swap3\n  swap2\n  pop\n  pop\n  jump\t// out\n    /* \"#utility.yul\":845:1196   */\ntag_3:\n    /* \"#utility.yul\":915:921   */\n  0x00\n    /* \"#utility.yul\":964:966   */\n  0x20\n    /* \"#utility.yul\":952:961   */\n  dup3\n    /* \"#utility.yul\":943:950   */\n  dup5\n    /* \"#utility.yul\":939:962   */\n  sub\n    /* \"#utility.yul\":935:967   */\n  slt\n    /* \"#utility.yul\":932:1051   */\n  iszero\n  tag_27\n  jumpi\n    /* \"#utility.yul\":970:1049   */\n  tag_28\n  tag_8\n  jump\t// in\ntag_28:\n    /* \"#utility.yul\":932:1051   */\ntag_27:\n    /* \"#utility.yul\":1090:1091   */\n  0x00\n    /* \"#utility.yul\":1115:1179   */\n  tag_29\n    /* \"#utility.yul\":1171:1178   */\n  dup5\n    /* \"#utility.yul\":1162:1168   */\n  dup3\n    /* \"#utility.yul\":1151:1160   */\n  dup6\n    /* \"#utility.yul\":1147:1169   */\n  add\n    /* \"#utility.yul\":1115:1179   */\n  tag_13\n  jump\t// in\ntag_29:\n    /* \"#utility.yul\":1105:1179   */\n  swap2\n  pop\n    /* \"#utility.yul\":1061:1189   */\n  pop\n    /* \"#utility.yul\":845:1196   */\n  swap3\n  swap2\n  pop\n  pop\n  jump\t// out\n    /* \"CONTRACTS/Vault.sol\":85:827  contract Vault {... */\ntag_6:\n  mload(0x80)\n  codecopy(0x00, dataOffset(sub_0), dataSize(sub_0))\n  0x00\n  assignImmutable(\"0x4393e7114eb674248a1480712950c28cb06e118e040859a2eafa3ca8a6dfbd69\")\n  return(0x00, dataSize(sub_0))\nstop\n\nsub_0: assembly {\n        /* \"CONTRACTS/Vault.sol\":85:827  contract Vault {... */\n      mstore(0x40, 0x80)\n      jumpi(tag_1, lt(calldatasize, 0x04))\n      shr(0xe0, calldataload(0x00))\n      dup1\n      0x4a970be7\n      eq\n      tag_2\n      jumpi\n      dup1\n      0xb6b55f25\n      eq\n      tag_3\n      jumpi\n      dup1\n      0xfc0c546a\n      eq\n      tag_4\n      jumpi\n    tag_1:\n      0x00\n      dup1\n      revert\n        /* \"CONTRACTS/Vault.sol\":577:825  function depositWithPermit(uint amount, uint deadline, uint8 v, bytes32 r, bytes32 s) external payable{... */\n    tag_2:\n      tag_5\n      0x04\n      dup1\n      calldatasize\n      sub\n      dup2\n      add\n      swap1\n      tag_6\n      swap2\n      swap1\n      tag_7\n      jump\t// in\n    tag_6:\n      tag_8\n      jump\t// in\n    tag_5:\n      stop\n        /* \"CONTRACTS/Vault.sol\":227:344  function deposit(uint amount) external payable {... */\n    tag_3:\n      tag_9\n      0x04\n      dup1\n      calldatasize\n      sub\n      dup2\n      add\n      swap1\n      tag_10\n      swap2\n      swap1\n      tag_11\n      jump\t// in\n    tag_10:\n      tag_12\n      jump\t// in\n    tag_9:\n      stop\n        /* \"CONTRACTS/Vault.sol\":106:141  IERC20Permit public immutable token */\n    tag_4:\n      callvalue\n      dup1\n      iszero\n      tag_13\n      jumpi\n      0x00\n      dup1\n      revert\n    tag_13:\n      pop\n      tag_14\n      tag_15\n      jump\t// in\n    tag_14:\n      mload(0x40)\n      tag_16\n      swap2\n      swap1\n      tag_17\n      jump\t// in\n    tag_16:\n      mload(0x40)\n      dup1\n      swap2\n      sub\n      swap1\n      return\n        /* \"CONTRACTS/Vault.sol\":577:825  function depositWithPermit(uint amount, uint deadline, uint8 v, bytes32 r, bytes32 s) external payable{... */\n    tag_8:\n        /* \"CONTRACTS/Vault.sol\":689:694  token */\n      immutable(\"0x4393e7114eb674248a1480712950c28cb06e118e040859a2eafa3ca8a6dfbd69\")\n        /* \"CONTRACTS/Vault.sol\":689:701  token.permit */\n      0xffffffffffffffffffffffffffffffffffffffff\n      and\n      0xd505accf\n        /* \"CONTRACTS/Vault.sol\":702:712  msg.sender */\n      caller\n        /* \"CONTRACTS/Vault.sol\":722:726  this */\n      address\n        /* \"CONTRACTS/Vault.sol\":729:735  amount */\n      dup9\n        /* \"CONTRACTS/Vault.sol\":737:745  deadline */\n      dup9\n        /* \"CONTRACTS/Vault.sol\":747:748  v */\n      dup9\n        /* \"CONTRACTS/Vault.sol\":750:751  r */\n      dup9\n        /* \"CONTRACTS/Vault.sol\":753:754  s */\n      dup9\n        /* \"CONTRACTS/Vault.sol\":689:755  token.permit(msg.sender, address(this), amount, deadline, v, r, s) */\n      mload(0x40)\n      dup9\n      0xffffffff\n      and\n      0xe0\n      shl\n      dup2\n      mstore\n      0x04\n      add\n      tag_19\n      swap8\n      swap7\n      swap6\n      swap5\n      swap4\n      swap3\n      swap2\n      swap1\n      tag_20\n      jump\t// in\n    tag_19:\n      0x00\n      mload(0x40)\n      dup1\n      dup4\n      sub\n      dup2\n      0x00\n      dup8\n      dup1\n      extcodesize\n      iszero\n      dup1\n      iszero\n      tag_21\n      jumpi\n      0x00\n      dup1\n      revert\n    tag_21:\n      pop\n      gas\n      call\n      iszero\n      dup1\n      iszero\n      tag_23\n      jumpi\n      returndatasize\n      0x00\n      dup1\n      returndatacopy\n      revert(0x00, returndatasize)\n    tag_23:\n      pop\n      pop\n      pop\n      pop\n        /* \"CONTRACTS/Vault.sol\":765:770  token */\n      immutable(\"0x4393e7114eb674248a1480712950c28cb06e118e040859a2eafa3ca8a6dfbd69\")\n        /* \"CONTRACTS/Vault.sol\":765:783  token.transferFrom */\n      0xffffffffffffffffffffffffffffffffffffffff\n      and\n      0x23b872dd\n        /* \"CONTRACTS/Vault.sol\":784:794  msg.sender */\n      caller\n        /* \"CONTRACTS/Vault.sol\":804:808  this */\n      address\n        /* \"CONTRACTS/Vault.sol\":811:817  amount */\n      dup9\n        /* \"CONTRACTS/Vault.sol\":765:818  token.transferFrom(msg.sender, address(this), amount) */\n      mload(0x40)\n      dup5\n      0xffffffff\n      and\n      0xe0\n      shl\n      dup2\n      mstore\n      0x04\n      add\n      tag_24\n      swap4\n      swap3\n      swap2\n      swap1\n      tag_25\n      jump\t// in\n    tag_24:\n      0x20\n      mload(0x40)\n      dup1\n      dup4\n      sub\n      dup2\n      0x00\n      dup8\n      gas\n      call\n      iszero\n      dup1\n      iszero\n      tag_27\n      jumpi\n      returndatasize\n      0x00\n      dup1\n      returndatacopy\n      revert(0x00, returndatasize)\n    tag_27:\n      pop\n      pop\n      pop\n      pop\n      mload(0x40)\n      returndatasize\n      not(0x1f)\n      0x1f\n      dup3\n      add\n      and\n      dup3\n      add\n      dup1\n      0x40\n      mstore\n      pop\n      dup2\n      add\n      swap1\n      tag_28\n      swap2\n      swap1\n      tag_29\n      jump\t// in\n    tag_28:\n      pop\n        /* \"CONTRACTS/Vault.sol\":577:825  function depositWithPermit(uint amount, uint deadline, uint8 v, bytes32 r, bytes32 s) external payable{... */\n      pop\n      pop\n      pop\n      pop\n      pop\n      jump\t// out\n        /* \"CONTRACTS/Vault.sol\":227:344  function deposit(uint amount) external payable {... */\n    tag_12:\n        /* \"CONTRACTS/Vault.sol\":284:289  token */\n      immutable(\"0x4393e7114eb674248a1480712950c28cb06e118e040859a2eafa3ca8a6dfbd69\")\n        /* \"CONTRACTS/Vault.sol\":284:302  token.transferFrom */\n      0xffffffffffffffffffffffffffffffffffffffff\n      and\n      0x23b872dd\n        /* \"CONTRACTS/Vault.sol\":303:313  msg.sender */\n      caller\n        /* \"CONTRACTS/Vault.sol\":323:327  this */\n      address\n        /* \"CONTRACTS/Vault.sol\":330:336  amount */\n      dup5\n        /* \"CONTRACTS/Vault.sol\":284:337  token.transferFrom(msg.sender, address(this), amount) */\n      mload(0x40)\n      dup5\n      0xffffffff\n      and\n      0xe0\n      shl\n      dup2\n      mstore\n      0x04\n      add\n      tag_31\n      swap4\n      swap3\n      swap2\n      swap1\n      tag_25\n      jump\t// in\n    tag_31:\n      0x20\n      mload(0x40)\n      dup1\n      dup4\n      sub\n      dup2\n      0x00\n      dup8\n      gas\n      call\n      iszero\n      dup1\n      iszero\n      tag_33\n      jumpi\n      returndatasize\n      0x00\n      dup1\n      returndatacopy\n      revert(0x00, returndatasize)\n    tag_33:\n      pop\n      pop\n      pop\n      pop\n      mload(0x40)\n      returndatasize\n      not(0x1f)\n      0x1f\n      dup3\n      add\n      and\n      dup3\n      add\n      dup1\n      0x40\n      mstore\n      pop\n      dup2\n      add\n      swap1\n      tag_34\n      swap2\n      swap1\n      tag_29\n      jump\t// in\n    tag_34:\n      pop\n        /* \"CONTRACTS/Vault.sol\":227:344  function deposit(uint amount) external payable {... */\n      pop\n      jump\t// out\n        /* \"CONTRACTS/Vault.sol\":106:141  IERC20Permit public immutable token */\n    tag_15:\n      immutable(\"0x4393e7114eb674248a1480712950c28cb06e118e040859a2eafa3ca8a6dfbd69\")\n      dup2\n      jump\t// out\n        /* \"#utility.yul\":88:205   */\n    tag_36:\n        /* \"#utility.yul\":197:198   */\n      0x00\n        /* \"#utility.yul\":194:195   */\n      dup1\n        /* \"#utility.yul\":187:199   */\n      revert\n        /* \"#utility.yul\":334:411   */\n    tag_38:\n        /* \"#utility.yul\":371:378   */\n      0x00\n        /* \"#utility.yul\":400:405   */\n      dup2\n        /* \"#utility.yul\":389:405   */\n      swap1\n      pop\n        /* \"#utility.yul\":334:411   */\n      swap2\n      swap1\n      pop\n      jump\t// out\n        /* \"#utility.yul\":417:539   */\n    tag_39:\n        /* \"#utility.yul\":490:514   */\n      tag_67\n        /* \"#utility.yul\":508:513   */\n      dup2\n        /* \"#utility.yul\":490:514   */\n      tag_38\n      jump\t// in\n    tag_67:\n        /* \"#utility.yul\":483:488   */\n      dup2\n        /* \"#utility.yul\":480:515   */\n      eq\n        /* \"#utility.yul\":470:533   */\n      tag_68\n      jumpi\n        /* \"#utility.yul\":529:530   */\n      0x00\n        /* \"#utility.yul\":526:527   */\n      dup1\n        /* \"#utility.yul\":519:531   */\n      revert\n        /* \"#utility.yul\":470:533   */\n    tag_68:\n        /* \"#utility.yul\":417:539   */\n      pop\n      jump\t// out\n        /* \"#utility.yul\":545:684   */\n    tag_40:\n        /* \"#utility.yul\":591:596   */\n      0x00\n        /* \"#utility.yul\":629:635   */\n      dup2\n        /* \"#utility.yul\":616:636   */\n      calldataload\n        /* \"#utility.yul\":607:636   */\n      swap1\n      pop\n        /* \"#utility.yul\":645:678   */\n      tag_70\n        /* \"#utility.yul\":672:677   */\n      dup2\n        /* \"#utility.yul\":645:678   */\n      tag_39\n      jump\t// in\n    tag_70:\n        /* \"#utility.yul\":545:684   */\n      swap3\n      swap2\n      pop\n      pop\n      jump\t// out\n        /* \"#utility.yul\":690:776   */\n    tag_41:\n        /* \"#utility.yul\":725:732   */\n      0x00\n        /* \"#utility.yul\":765:769   */\n      0xff\n        /* \"#utility.yul\":758:763   */\n      dup3\n        /* \"#utility.yul\":754:770   */\n      and\n        /* \"#utility.yul\":743:770   */\n      swap1\n      pop\n        /* \"#utility.yul\":690:776   */\n      swap2\n      swap1\n      pop\n      jump\t// out\n        /* \"#utility.yul\":782:900   */\n    tag_42:\n        /* \"#utility.yul\":853:875   */\n      tag_73\n        /* \"#utility.yul\":869:874   */\n      dup2\n        /* \"#utility.yul\":853:875   */\n      tag_41\n      jump\t// in\n    tag_73:\n        /* \"#utility.yul\":846:851   */\n      dup2\n        /* \"#utility.yul\":843:876   */\n      eq\n        /* \"#utility.yul\":833:894   */\n      tag_74\n      jumpi\n        /* \"#utility.yul\":890:891   */\n      0x00\n        /* \"#utility.yul\":887:888   */\n      dup1\n        /* \"#utility.yul\":880:892   */\n      revert\n        /* \"#utility.yul\":833:894   */\n    tag_74:\n        /* \"#utility.yul\":782:900   */\n      pop\n      jump\t// out\n        /* \"#utility.yul\":906:1041   */\n    tag_43:\n        /* \"#utility.yul\":950:955   */\n      0x00\n        /* \"#utility.yul\":988:994   */\n      dup2\n        /* \"#utility.yul\":975:995   */\n      calldataload\n        /* \"#utility.yul\":966:995   */\n      swap1\n      pop\n        /* \"#utility.yul\":1004:1035   */\n      tag_76\n        /* \"#utility.yul\":1029:1034   */\n      dup2\n        /* \"#utility.yul\":1004:1035   */\n      tag_42\n      jump\t// in\n    tag_76:\n        /* \"#utility.yul\":906:1041   */\n      swap3\n      swap2\n      pop\n      pop\n      jump\t// out\n        /* \"#utility.yul\":1047:1124   */\n    tag_44:\n        /* \"#utility.yul\":1084:1091   */\n      0x00\n        /* \"#utility.yul\":1113:1118   */\n      dup2\n        /* \"#utility.yul\":1102:1118   */\n      swap1\n      pop\n        /* \"#utility.yul\":1047:1124   */\n      swap2\n      swap1\n      pop\n      jump\t// out\n        /* \"#utility.yul\":1130:1252   */\n    tag_45:\n        /* \"#utility.yul\":1203:1227   */\n      tag_79\n        /* \"#utility.yul\":1221:1226   */\n      dup2\n        /* \"#utility.yul\":1203:1227   */\n      tag_44\n      jump\t// in\n    tag_79:\n        /* \"#utility.yul\":1196:1201   */\n      dup2\n        /* \"#utility.yul\":1193:1228   */\n      eq\n        /* \"#utility.yul\":1183:1246   */\n      tag_80\n      jumpi\n        /* \"#utility.yul\":1242:1243   */\n      0x00\n        /* \"#utility.yul\":1239:1240   */\n      dup1\n        /* \"#utility.yul\":1232:1244   */\n      revert\n        /* \"#utility.yul\":1183:1246   */\n    tag_80:\n        /* \"#utility.yul\":1130:1252   */\n      pop\n      jump\t// out\n        /* \"#utility.yul\":1258:1397   */\n    tag_46:\n        /* \"#utility.yul\":1304:1309   */\n      0x00\n        /* \"#utility.yul\":1342:1348   */\n      dup2\n        /* \"#utility.yul\":1329:1349   */\n      calldataload\n        /* \"#utility.yul\":1320:1349   */\n      swap1\n      pop\n        /* \"#utility.yul\":1358:1391   */\n      tag_82\n        /* \"#utility.yul\":1385:1390   */\n      dup2\n        /* \"#utility.yul\":1358:1391   */\n      tag_45\n      jump\t// in\n    tag_82:\n        /* \"#utility.yul\":1258:1397   */\n      swap3\n      swap2\n      pop\n      pop\n      jump\t// out\n        /* \"#utility.yul\":1403:2310   */\n    tag_7:\n        /* \"#utility.yul\":1496:1502   */\n      0x00\n        /* \"#utility.yul\":1504:1510   */\n      dup1\n        /* \"#utility.yul\":1512:1518   */\n      0x00\n        /* \"#utility.yul\":1520:1526   */\n      dup1\n        /* \"#utility.yul\":1528:1534   */\n      0x00\n        /* \"#utility.yul\":1577:1580   */\n      0xa0\n        /* \"#utility.yul\":1565:1574   */\n      dup7\n        /* \"#utility.yul\":1556:1563   */\n      dup9\n        /* \"#utility.yul\":1552:1575   */\n      sub\n        /* \"#utility.yul\":1548:1581   */\n      slt\n        /* \"#utility.yul\":1545:1665   */\n      iszero\n      tag_84\n      jumpi\n        /* \"#utility.yul\":1584:1663   */\n      tag_85\n      tag_36\n      jump\t// in\n    tag_85:\n        /* \"#utility.yul\":1545:1665   */\n    tag_84:\n        /* \"#utility.yul\":1704:1705   */\n      0x00\n        /* \"#utility.yul\":1729:1782   */\n      tag_86\n        /* \"#utility.yul\":1774:1781   */\n      dup9\n        /* \"#utility.yul\":1765:1771   */\n      dup3\n        /* \"#utility.yul\":1754:1763   */\n      dup10\n        /* \"#utility.yul\":1750:1772   */\n      add\n        /* \"#utility.yul\":1729:1782   */\n      tag_40\n      jump\t// in\n    tag_86:\n        /* \"#utility.yul\":1719:1782   */\n      swap6\n      pop\n        /* \"#utility.yul\":1675:1792   */\n      pop\n        /* \"#utility.yul\":1831:1833   */\n      0x20\n        /* \"#utility.yul\":1857:1910   */\n      tag_87\n        /* \"#utility.yul\":1902:1909   */\n      dup9\n        /* \"#utility.yul\":1893:1899   */\n      dup3\n        /* \"#utility.yul\":1882:1891   */\n      dup10\n        /* \"#utility.yul\":1878:1900   */\n      add\n        /* \"#utility.yul\":1857:1910   */\n      tag_40\n      jump\t// in\n    tag_87:\n        /* \"#utility.yul\":1847:1910   */\n      swap5\n      pop\n        /* \"#utility.yul\":1802:1920   */\n      pop\n        /* \"#utility.yul\":1959:1961   */\n      0x40\n        /* \"#utility.yul\":1985:2036   */\n      tag_88\n        /* \"#utility.yul\":2028:2035   */\n      dup9\n        /* \"#utility.yul\":2019:2025   */\n      dup3\n        /* \"#utility.yul\":2008:2017   */\n      dup10\n        /* \"#utility.yul\":2004:2026   */\n      add\n        /* \"#utility.yul\":1985:2036   */\n      tag_43\n      jump\t// in\n    tag_88:\n        /* \"#utility.yul\":1975:2036   */\n      swap4\n      pop\n        /* \"#utility.yul\":1930:2046   */\n      pop\n        /* \"#utility.yul\":2085:2087   */\n      0x60\n        /* \"#utility.yul\":2111:2164   */\n      tag_89\n        /* \"#utility.yul\":2156:2163   */\n      dup9\n        /* \"#utility.yul\":2147:2153   */\n      dup3\n        /* \"#utility.yul\":2136:2145   */\n      dup10\n        /* \"#utility.yul\":2132:2154   */\n      add\n        /* \"#utility.yul\":2111:2164   */\n      tag_46\n      jump\t// in\n    tag_89:\n        /* \"#utility.yul\":2101:2164   */\n      swap3\n      pop\n        /* \"#utility.yul\":2056:2174   */\n      pop\n        /* \"#utility.yul\":2213:2216   */\n      0x80\n        /* \"#utility.yul\":2240:2293   */\n      tag_90\n        /* \"#utility.yul\":2285:2292   */\n      dup9\n        /* \"#utility.yul\":2276:2282   */\n      dup3\n        /* \"#utility.yul\":2265:2274   */\n      dup10\n        /* \"#utility.yul\":2261:2283   */\n      add\n        /* \"#utility.yul\":2240:2293   */\n      tag_46\n      jump\t// in\n    tag_90:\n        /* \"#utility.yul\":2230:2293   */\n      swap2\n      pop\n        /* \"#utility.yul\":2184:2303   */\n      pop\n        /* \"#utility.yul\":1403:2310   */\n      swap3\n      swap6\n      pop\n      swap3\n      swap6\n      swap1\n      swap4\n      pop\n      jump\t// out\n        /* \"#utility.yul\":2316:2645   */\n    tag_11:\n        /* \"#utility.yul\":2375:2381   */\n      0x00\n        /* \"#utility.yul\":2424:2426   */\n      0x20\n        /* \"#utility.yul\":2412:2421   */\n      dup3\n        /* \"#utility.yul\":2403:2410   */\n      dup5\n        /* \"#utility.yul\":2399:2422   */\n      sub\n        /* \"#utility.yul\":2395:2427   */\n      slt\n        /* \"#utility.yul\":2392:2511   */\n      iszero\n      tag_92\n      jumpi\n        /* \"#utility.yul\":2430:2509   */\n      tag_93\n      tag_36\n      jump\t// in\n    tag_93:\n        /* \"#utility.yul\":2392:2511   */\n    tag_92:\n        /* \"#utility.yul\":2550:2551   */\n      0x00\n        /* \"#utility.yul\":2575:2628   */\n      tag_94\n        /* \"#utility.yul\":2620:2627   */\n      dup5\n        /* \"#utility.yul\":2611:2617   */\n      dup3\n        /* \"#utility.yul\":2600:2609   */\n      dup6\n        /* \"#utility.yul\":2596:2618   */\n      add\n        /* \"#utility.yul\":2575:2628   */\n      tag_40\n      jump\t// in\n    tag_94:\n        /* \"#utility.yul\":2565:2628   */\n      swap2\n      pop\n        /* \"#utility.yul\":2521:2638   */\n      pop\n        /* \"#utility.yul\":2316:2645   */\n      swap3\n      swap2\n      pop\n      pop\n      jump\t// out\n        /* \"#utility.yul\":2651:2777   */\n    tag_47:\n        /* \"#utility.yul\":2688:2695   */\n      0x00\n        /* \"#utility.yul\":2728:2770   */\n      0xffffffffffffffffffffffffffffffffffffffff\n        /* \"#utility.yul\":2721:2726   */\n      dup3\n        /* \"#utility.yul\":2717:2771   */\n      and\n        /* \"#utility.yul\":2706:2771   */\n      swap1\n      pop\n        /* \"#utility.yul\":2651:2777   */\n      swap2\n      swap1\n      pop\n      jump\t// out\n        /* \"#utility.yul\":2783:2843   */\n    tag_48:\n        /* \"#utility.yul\":2811:2814   */\n      0x00\n        /* \"#utility.yul\":2832:2837   */\n      dup2\n        /* \"#utility.yul\":2825:2837   */\n      swap1\n      pop\n        /* \"#utility.yul\":2783:2843   */\n      swap2\n      swap1\n      pop\n      jump\t// out\n        /* \"#utility.yul\":2849:2991   */\n    tag_49:\n        /* \"#utility.yul\":2899:2908   */\n      0x00\n        /* \"#utility.yul\":2932:2985   */\n      tag_98\n        /* \"#utility.yul\":2950:2984   */\n      tag_99\n        /* \"#utility.yul\":2959:2983   */\n      tag_100\n        /* \"#utility.yul\":2977:2982   */\n      dup5\n        /* \"#utility.yul\":2959:2983   */\n      tag_47\n      jump\t// in\n    tag_100:\n        /* \"#utility.yul\":2950:2984   */\n      tag_48\n      jump\t// in\n    tag_99:\n        /* \"#utility.yul\":2932:2985   */\n      tag_47\n      jump\t// in\n    tag_98:\n        /* \"#utility.yul\":2919:2985   */\n      swap1\n      pop\n        /* \"#utility.yul\":2849:2991   */\n      swap2\n      swap1\n      pop\n      jump\t// out\n        /* \"#utility.yul\":2997:3123   */\n    tag_50:\n        /* \"#utility.yul\":3047:3056   */\n      0x00\n        /* \"#utility.yul\":3080:3117   */\n      tag_102\n        /* \"#utility.yul\":3111:3116   */\n      dup3\n        /* \"#utility.yul\":3080:3117   */\n      tag_49\n      jump\t// in\n    tag_102:\n        /* \"#utility.yul\":3067:3117   */\n      swap1\n      pop\n        /* \"#utility.yul\":2997:3123   */\n      swap2\n      swap1\n      pop\n      jump\t// out\n        /* \"#utility.yul\":3129:3274   */\n    tag_51:\n        /* \"#utility.yul\":3198:3207   */\n      0x00\n        /* \"#utility.yul\":3231:3268   */\n      tag_104\n        /* \"#utility.yul\":3262:3267   */\n      dup3\n        /* \"#utility.yul\":3231:3268   */\n      tag_50\n      jump\t// in\n    tag_104:\n        /* \"#utility.yul\":3218:3268   */\n      swap1\n      pop\n        /* \"#utility.yul\":3129:3274   */\n      swap2\n      swap1\n      pop\n      jump\t// out\n        /* \"#utility.yul\":3280:3449   */\n    tag_52:\n        /* \"#utility.yul\":3386:3442   */\n      tag_106\n        /* \"#utility.yul\":3436:3441   */\n      dup2\n        /* \"#utility.yul\":3386:3442   */\n      tag_51\n      jump\t// in\n    tag_106:\n        /* \"#utility.yul\":3381:3384   */\n      dup3\n        /* \"#utility.yul\":3374:3443   */\n      mstore\n        /* \"#utility.yul\":3280:3449   */\n      pop\n      pop\n      jump\t// out\n        /* \"#utility.yul\":3455:3715   */\n    tag_17:\n        /* \"#utility.yul\":3567:3571   */\n      0x00\n        /* \"#utility.yul\":3605:3607   */\n      0x20\n        /* \"#utility.yul\":3594:3603   */\n      dup3\n        /* \"#utility.yul\":3590:3608   */\n      add\n        /* \"#utility.yul\":3582:3608   */\n      swap1\n      pop\n        /* \"#utility.yul\":3618:3708   */\n      tag_108\n        /* \"#utility.yul\":3705:3706   */\n      0x00\n        /* \"#utility.yul\":3694:3703   */\n      dup4\n        /* \"#utility.yul\":3690:3707   */\n      add\n        /* \"#utility.yul\":3681:3687   */\n      dup5\n        /* \"#utility.yul\":3618:3708   */\n      tag_52\n      jump\t// in\n    tag_108:\n        /* \"#utility.yul\":3455:3715   */\n      swap3\n      swap2\n      pop\n      pop\n      jump\t// out\n        /* \"#utility.yul\":3721:3817   */\n    tag_53:\n        /* \"#utility.yul\":3758:3765   */\n      0x00\n        /* \"#utility.yul\":3787:3811   */\n      tag_110\n        /* \"#utility.yul\":3805:3810   */\n      dup3\n        /* \"#utility.yul\":3787:3811   */\n      tag_47\n      jump\t// in\n    tag_110:\n        /* \"#utility.yul\":3776:3811   */\n      swap1\n      pop\n        /* \"#utility.yul\":3721:3817   */\n      swap2\n      swap1\n      pop\n      jump\t// out\n        /* \"#utility.yul\":3823:3941   */\n    tag_54:\n        /* \"#utility.yul\":3910:3934   */\n      tag_112\n        /* \"#utility.yul\":3928:3933   */\n      dup2\n        /* \"#utility.yul\":3910:3934   */\n      tag_53\n      jump\t// in\n    tag_112:\n        /* \"#utility.yul\":3905:3908   */\n      dup3\n        /* \"#utility.yul\":3898:3935   */\n      mstore\n        /* \"#utility.yul\":3823:3941   */\n      pop\n      pop\n      jump\t// out\n        /* \"#utility.yul\":3947:4065   */\n    tag_55:\n        /* \"#utility.yul\":4034:4058   */\n      tag_114\n        /* \"#utility.yul\":4052:4057   */\n      dup2\n        /* \"#utility.yul\":4034:4058   */\n      tag_38\n      jump\t// in\n    tag_114:\n        /* \"#utility.yul\":4029:4032   */\n      dup3\n        /* \"#utility.yul\":4022:4059   */\n      mstore\n        /* \"#utility.yul\":3947:4065   */\n      pop\n      pop\n      jump\t// out\n        /* \"#utility.yul\":4071:4183   */\n    tag_56:\n        /* \"#utility.yul\":4154:4176   */\n      tag_116\n        /* \"#utility.yul\":4170:4175   */\n      dup2\n        /* \"#utility.yul\":4154:4176   */\n      tag_41\n      jump\t// in\n    tag_116:\n        /* \"#utility.yul\":4149:4152   */\n      dup3\n        /* \"#utility.yul\":4142:4177   */\n      mstore\n        /* \"#utility.yul\":4071:4183   */\n      pop\n      pop\n      jump\t// out\n        /* \"#utility.yul\":4189:4307   */\n    tag_57:\n        /* \"#utility.yul\":4276:4300   */\n      tag_118\n        /* \"#utility.yul\":4294:4299   */\n      dup2\n        /* \"#utility.yul\":4276:4300   */\n      tag_44\n      jump\t// in\n    tag_118:\n        /* \"#utility.yul\":4271:4274   */\n      dup3\n        /* \"#utility.yul\":4264:4301   */\n      mstore\n        /* \"#utility.yul\":4189:4307   */\n      pop\n      pop\n      jump\t// out\n        /* \"#utility.yul\":4313:5191   */\n    tag_20:\n        /* \"#utility.yul\":4570:4574   */\n      0x00\n        /* \"#utility.yul\":4608:4611   */\n      0xe0\n        /* \"#utility.yul\":4597:4606   */\n      dup3\n        /* \"#utility.yul\":4593:4612   */\n      add\n        /* \"#utility.yul\":4585:4612   */\n      swap1\n      pop\n        /* \"#utility.yul\":4622:4693   */\n      tag_120\n        /* \"#utility.yul\":4690:4691   */\n      0x00\n        /* \"#utility.yul\":4679:4688   */\n      dup4\n        /* \"#utility.yul\":4675:4692   */\n      add\n        /* \"#utility.yul\":4666:4672   */\n      dup11\n        /* \"#utility.yul\":4622:4693   */\n      tag_54\n      jump\t// in\n    tag_120:\n        /* \"#utility.yul\":4703:4775   */\n      tag_121\n        /* \"#utility.yul\":4771:4773   */\n      0x20\n        /* \"#utility.yul\":4760:4769   */\n      dup4\n        /* \"#utility.yul\":4756:4774   */\n      add\n        /* \"#utility.yul\":4747:4753   */\n      dup10\n        /* \"#utility.yul\":4703:4775   */\n      tag_54\n      jump\t// in\n    tag_121:\n        /* \"#utility.yul\":4785:4857   */\n      tag_122\n        /* \"#utility.yul\":4853:4855   */\n      0x40\n        /* \"#utility.yul\":4842:4851   */\n      dup4\n        /* \"#utility.yul\":4838:4856   */\n      add\n        /* \"#utility.yul\":4829:4835   */\n      dup9\n        /* \"#utility.yul\":4785:4857   */\n      tag_55\n      jump\t// in\n    tag_122:\n        /* \"#utility.yul\":4867:4939   */\n      tag_123\n        /* \"#utility.yul\":4935:4937   */\n      0x60\n        /* \"#utility.yul\":4924:4933   */\n      dup4\n        /* \"#utility.yul\":4920:4938   */\n      add\n        /* \"#utility.yul\":4911:4917   */\n      dup8\n        /* \"#utility.yul\":4867:4939   */\n      tag_55\n      jump\t// in\n    tag_123:\n        /* \"#utility.yul\":4949:5018   */\n      tag_124\n        /* \"#utility.yul\":5013:5016   */\n      0x80\n        /* \"#utility.yul\":5002:5011   */\n      dup4\n        /* \"#utility.yul\":4998:5017   */\n      add\n        /* \"#utility.yul\":4989:4995   */\n      dup7\n        /* \"#utility.yul\":4949:5018   */\n      tag_56\n      jump\t// in\n    tag_124:\n        /* \"#utility.yul\":5028:5101   */\n      tag_125\n        /* \"#utility.yul\":5096:5099   */\n      0xa0\n        /* \"#utility.yul\":5085:5094   */\n      dup4\n        /* \"#utility.yul\":5081:5100   */\n      add\n        /* \"#utility.yul\":5072:5078   */\n      dup6\n        /* \"#utility.yul\":5028:5101   */\n      tag_57\n      jump\t// in\n    tag_125:\n        /* \"#utility.yul\":5111:5184   */\n      tag_126\n        /* \"#utility.yul\":5179:5182   */\n      0xc0\n        /* \"#utility.yul\":5168:5177   */\n      dup4\n        /* \"#utility.yul\":5164:5183   */\n      add\n        /* \"#utility.yul\":5155:5161   */\n      dup5\n        /* \"#utility.yul\":5111:5184   */\n      tag_57\n      jump\t// in\n    tag_126:\n        /* \"#utility.yul\":4313:5191   */\n      swap9\n      swap8\n      pop\n      pop\n      pop\n      pop\n      pop\n      pop\n      pop\n      pop\n      jump\t// out\n        /* \"#utility.yul\":5197:5639   */\n    tag_25:\n        /* \"#utility.yul\":5346:5350   */\n      0x00\n        /* \"#utility.yul\":5384:5386   */\n      0x60\n        /* \"#utility.yul\":5373:5382   */\n      dup3\n        /* \"#utility.yul\":5369:5387   */\n      add\n        /* \"#utility.yul\":5361:5387   */\n      swap1\n      pop\n        /* \"#utility.yul\":5397:5468   */\n      tag_128\n        /* \"#utility.yul\":5465:5466   */\n      0x00\n        /* \"#utility.yul\":5454:5463   */\n      dup4\n        /* \"#utility.yul\":5450:5467   */\n      add\n        /* \"#utility.yul\":5441:5447   */\n      dup7\n        /* \"#utility.yul\":5397:5468   */\n      tag_54\n      jump\t// in\n    tag_128:\n        /* \"#utility.yul\":5478:5550   */\n      tag_129\n        /* \"#utility.yul\":5546:5548   */\n      0x20\n        /* \"#utility.yul\":5535:5544   */\n      dup4\n        /* \"#utility.yul\":5531:5549   */\n      add\n        /* \"#utility.yul\":5522:5528   */\n      dup6\n        /* \"#utility.yul\":5478:5550   */\n      tag_54\n      jump\t// in\n    tag_129:\n        /* \"#utility.yul\":5560:5632   */\n      tag_130\n        /* \"#utility.yul\":5628:5630   */\n      0x40\n        /* \"#utility.yul\":5617:5626   */\n      dup4\n        /* \"#utility.yul\":5613:5631   */\n      add\n        /* \"#utility.yul\":5604:5610   */\n      dup5\n        /* \"#utility.yul\":5560:5632   */\n      tag_55\n      jump\t// in\n    tag_130:\n        /* \"#utility.yul\":5197:5639   */\n      swap5\n      swap4\n      pop\n      pop\n      pop\n      pop\n      jump\t// out\n        /* \"#utility.yul\":5645:5735   */\n    tag_58:\n        /* \"#utility.yul\":5679:5686   */\n      0x00\n        /* \"#utility.yul\":5722:5727   */\n      dup2\n        /* \"#utility.yul\":5715:5728   */\n      iszero\n        /* \"#utility.yul\":5708:5729   */\n      iszero\n        /* \"#utility.yul\":5697:5729   */\n      swap1\n      pop\n        /* \"#utility.yul\":5645:5735   */\n      swap2\n      swap1\n      pop\n      jump\t// out\n        /* \"#utility.yul\":5741:5857   */\n    tag_59:\n        /* \"#utility.yul\":5811:5832   */\n      tag_133\n        /* \"#utility.yul\":5826:5831   */\n      dup2\n        /* \"#utility.yul\":5811:5832   */\n      tag_58\n      jump\t// in\n    tag_133:\n        /* \"#utility.yul\":5804:5809   */\n      dup2\n        /* \"#utility.yul\":5801:5833   */\n      eq\n        /* \"#utility.yul\":5791:5851   */\n      tag_134\n      jumpi\n        /* \"#utility.yul\":5847:5848   */\n      0x00\n        /* \"#utility.yul\":5844:5845   */\n      dup1\n        /* \"#utility.yul\":5837:5849   */\n      revert\n        /* \"#utility.yul\":5791:5851   */\n    tag_134:\n        /* \"#utility.yul\":5741:5857   */\n      pop\n      jump\t// out\n        /* \"#utility.yul\":5863:6000   */\n    tag_60:\n        /* \"#utility.yul\":5917:5922   */\n      0x00\n        /* \"#utility.yul\":5948:5954   */\n      dup2\n        /* \"#utility.yul\":5942:5955   */\n      mload\n        /* \"#utility.yul\":5933:5955   */\n      swap1\n      pop\n        /* \"#utility.yul\":5964:5994   */\n      tag_136\n        /* \"#utility.yul\":5988:5993   */\n      dup2\n        /* \"#utility.yul\":5964:5994   */\n      tag_59\n      jump\t// in\n    tag_136:\n        /* \"#utility.yul\":5863:6000   */\n      swap3\n      swap2\n      pop\n      pop\n      jump\t// out\n        /* \"#utility.yul\":6006:6351   */\n    tag_29:\n        /* \"#utility.yul\":6073:6079   */\n      0x00\n        /* \"#utility.yul\":6122:6124   */\n      0x20\n        /* \"#utility.yul\":6110:6119   */\n      dup3\n        /* \"#utility.yul\":6101:6108   */\n      dup5\n        /* \"#utility.yul\":6097:6120   */\n      sub\n        /* \"#utility.yul\":6093:6125   */\n      slt\n        /* \"#utility.yul\":6090:6209   */\n      iszero\n      tag_138\n      jumpi\n        /* \"#utility.yul\":6128:6207   */\n      tag_139\n      tag_36\n      jump\t// in\n    tag_139:\n        /* \"#utility.yul\":6090:6209   */\n    tag_138:\n        /* \"#utility.yul\":6248:6249   */\n      0x00\n        /* \"#utility.yul\":6273:6334   */\n      tag_140\n        /* \"#utility.yul\":6326:6333   */\n      dup5\n        /* \"#utility.yul\":6317:6323   */\n      dup3\n        /* \"#utility.yul\":6306:6315   */\n      dup6\n        /* \"#utility.yul\":6302:6324   */\n      add\n        /* \"#utility.yul\":6273:6334   */\n      tag_60\n      jump\t// in\n    tag_140:\n        /* \"#utility.yul\":6263:6334   */\n      swap2\n      pop\n        /* \"#utility.yul\":6219:6344   */\n      pop\n        /* \"#utility.yul\":6006:6351   */\n      swap3\n      swap2\n      pop\n      pop\n      jump\t// out\n\n    auxdata: 0xa2646970667358221220b58626e5adeda6891df99a5ef7568876615a3afb6e9ba111d5fcf61f33b8f49064736f6c63430008110033\n}\n",
				"bytecode": {
					"linkReferences": {},
					"object": "60a060405234801561001057600080fd5b50604051610749380380610749833981810160405281019061003291906100cf565b8073ffffffffffffffffffffffffffffffffffffffff1660808173ffffffffffffffffffffffffffffffffffffffff1681525050506100fc565b600080fd5b600073ffffffffffffffffffffffffffffffffffffffff82169050919050565b600061009c82610071565b9050919050565b6100ac81610091565b81146100b757600080fd5b50565b6000815190506100c9816100a3565b92915050565b6000602082840312156100e5576100e461006c565b5b60006100f3848285016100ba565b91505092915050565b60805161061e61012b60003960008181609e01528181610135015281816101dd0152610281015261061e6000f3fe6080604052600436106100345760003560e01c80634a970be714610039578063b6b55f2514610055578063fc0c546a14610071575b600080fd5b610053600480360381019061004e919061034d565b61009c565b005b61006f600480360381019061006a91906103c8565b6101db565b005b34801561007d57600080fd5b5061008661027f565b6040516100939190610474565b60405180910390f35b7f000000000000000000000000000000000000000000000000000000000000000073ffffffffffffffffffffffffffffffffffffffff1663d505accf333088888888886040518863ffffffff1660e01b815260040161010197969594939291906104dd565b600060405180830381600087803b15801561011b57600080fd5b505af115801561012f573d6000803e3d6000fd5b505050507f000000000000000000000000000000000000000000000000000000000000000073ffffffffffffffffffffffffffffffffffffffff166323b872dd3330886040518463ffffffff1660e01b81526004016101909392919061054c565b6020604051808303816000875af11580156101af573d6000803e3d6000fd5b505050506040513d601f19601f820116820180604052508101906101d391906105bb565b505050505050565b7f000000000000000000000000000000000000000000000000000000000000000073ffffffffffffffffffffffffffffffffffffffff166323b872dd3330846040518463ffffffff1660e01b81526004016102389392919061054c565b6020604051808303816000875af1158015610257573d6000803e3d6000fd5b505050506040513d601f19601f8201168201806040525081019061027b91906105bb565b5050565b7f000000000000000000000000000000000000000000000000000000000000000081565b600080fd5b6000819050919050565b6102bb816102a8565b81146102c657600080fd5b50565b6000813590506102d8816102b2565b92915050565b600060ff82169050919050565b6102f4816102de565b81146102ff57600080fd5b50565b600081359050610311816102eb565b92915050565b6000819050919050565b61032a81610317565b811461033557600080fd5b50565b60008135905061034781610321565b92915050565b600080600080600060a08688031215610369576103686102a3565b5b6000610377888289016102c9565b9550506020610388888289016102c9565b945050604061039988828901610302565b93505060606103aa88828901610338565b92505060806103bb88828901610338565b9150509295509295909350565b6000602082840312156103de576103dd6102a3565b5b60006103ec848285016102c9565b91505092915050565b600073ffffffffffffffffffffffffffffffffffffffff82169050919050565b6000819050919050565b600061043a610435610430846103f5565b610415565b6103f5565b9050919050565b600061044c8261041f565b9050919050565b600061045e82610441565b9050919050565b61046e81610453565b82525050565b60006020820190506104896000830184610465565b92915050565b600061049a826103f5565b9050919050565b6104aa8161048f565b82525050565b6104b9816102a8565b82525050565b6104c8816102de565b82525050565b6104d781610317565b82525050565b600060e0820190506104f2600083018a6104a1565b6104ff60208301896104a1565b61050c60408301886104b0565b61051960608301876104b0565b61052660808301866104bf565b61053360a08301856104ce565b61054060c08301846104ce565b98975050505050505050565b600060608201905061056160008301866104a1565b61056e60208301856104a1565b61057b60408301846104b0565b949350505050565b60008115159050919050565b61059881610583565b81146105a357600080fd5b50565b6000815190506105b58161058f565b92915050565b6000602082840312156105d1576105d06102a3565b5b60006105df848285016105a6565b9150509291505056fea2646970667358221220b58626e5adeda6891df99a5ef7568876615a3afb6e9ba111d5fcf61f33b8f49064736f6c63430008110033",
					"opcodes": "PUSH1 0xA0 PUSH1 0x40 MSTORE CALLVALUE DUP1 ISZERO PUSH2 0x10 JUMPI PUSH1 0x0 DUP1 REVERT JUMPDEST POP PUSH1 0x40 MLOAD PUSH2 0x749 CODESIZE SUB DUP1 PUSH2 0x749 DUP4 CODECOPY DUP2 DUP2 ADD PUSH1 0x40 MSTORE DUP2 ADD SWAP1 PUSH2 0x32 SWAP2 SWAP1 PUSH2 0xCF JUMP JUMPDEST DUP1 PUSH20 0xFFFFFFFFFFFFFFFFFFFFFFFFFFFFFFFFFFFFFFFF AND PUSH1 0x80 DUP2 PUSH20 0xFFFFFFFFFFFFFFFFFFFFFFFFFFFFFFFFFFFFFFFF AND DUP2 MSTORE POP POP POP PUSH2 0xFC JUMP JUMPDEST PUSH1 0x0 DUP1 REVERT JUMPDEST PUSH1 0x0 PUSH20 0xFFFFFFFFFFFFFFFFFFFFFFFFFFFFFFFFFFFFFFFF DUP3 AND SWAP1 POP SWAP2 SWAP1 POP JUMP JUMPDEST PUSH1 0x0 PUSH2 0x9C DUP3 PUSH2 0x71 JUMP JUMPDEST SWAP1 POP SWAP2 SWAP1 POP JUMP JUMPDEST PUSH2 0xAC DUP2 PUSH2 0x91 JUMP JUMPDEST DUP2 EQ PUSH2 0xB7 JUMPI PUSH1 0x0 DUP1 REVERT JUMPDEST POP JUMP JUMPDEST PUSH1 0x0 DUP2 MLOAD SWAP1 POP PUSH2 0xC9 DUP2 PUSH2 0xA3 JUMP JUMPDEST SWAP3 SWAP2 POP POP JUMP JUMPDEST PUSH1 0x0 PUSH1 0x20 DUP3 DUP5 SUB SLT ISZERO PUSH2 0xE5 JUMPI PUSH2 0xE4 PUSH2 0x6C JUMP JUMPDEST JUMPDEST PUSH1 0x0 PUSH2 0xF3 DUP5 DUP3 DUP6 ADD PUSH2 0xBA JUMP JUMPDEST SWAP2 POP POP SWAP3 SWAP2 POP POP JUMP JUMPDEST PUSH1 0x80 MLOAD PUSH2 0x61E PUSH2 0x12B PUSH1 0x0 CODECOPY PUSH1 0x0 DUP2 DUP2 PUSH1 0x9E ADD MSTORE DUP2 DUP2 PUSH2 0x135 ADD MSTORE DUP2 DUP2 PUSH2 0x1DD ADD MSTORE PUSH2 0x281 ADD MSTORE PUSH2 0x61E PUSH1 0x0 RETURN INVALID PUSH1 0x80 PUSH1 0x40 MSTORE PUSH1 0x4 CALLDATASIZE LT PUSH2 0x34 JUMPI PUSH1 0x0 CALLDATALOAD PUSH1 0xE0 SHR DUP1 PUSH4 0x4A970BE7 EQ PUSH2 0x39 JUMPI DUP1 PUSH4 0xB6B55F25 EQ PUSH2 0x55 JUMPI DUP1 PUSH4 0xFC0C546A EQ PUSH2 0x71 JUMPI JUMPDEST PUSH1 0x0 DUP1 REVERT JUMPDEST PUSH2 0x53 PUSH1 0x4 DUP1 CALLDATASIZE SUB DUP2 ADD SWAP1 PUSH2 0x4E SWAP2 SWAP1 PUSH2 0x34D JUMP JUMPDEST PUSH2 0x9C JUMP JUMPDEST STOP JUMPDEST PUSH2 0x6F PUSH1 0x4 DUP1 CALLDATASIZE SUB DUP2 ADD SWAP1 PUSH2 0x6A SWAP2 SWAP1 PUSH2 0x3C8 JUMP JUMPDEST PUSH2 0x1DB JUMP JUMPDEST STOP JUMPDEST CALLVALUE DUP1 ISZERO PUSH2 0x7D JUMPI PUSH1 0x0 DUP1 REVERT JUMPDEST POP PUSH2 0x86 PUSH2 0x27F JUMP JUMPDEST PUSH1 0x40 MLOAD PUSH2 0x93 SWAP2 SWAP1 PUSH2 0x474 JUMP JUMPDEST PUSH1 0x40 MLOAD DUP1 SWAP2 SUB SWAP1 RETURN JUMPDEST PUSH32 0x0 PUSH20 0xFFFFFFFFFFFFFFFFFFFFFFFFFFFFFFFFFFFFFFFF AND PUSH4 0xD505ACCF CALLER ADDRESS DUP9 DUP9 DUP9 DUP9 DUP9 PUSH1 0x40 MLOAD DUP9 PUSH4 0xFFFFFFFF AND PUSH1 0xE0 SHL DUP2 MSTORE PUSH1 0x4 ADD PUSH2 0x101 SWAP8 SWAP7 SWAP6 SWAP5 SWAP4 SWAP3 SWAP2 SWAP1 PUSH2 0x4DD JUMP JUMPDEST PUSH1 0x0 PUSH1 0x40 MLOAD DUP1 DUP4 SUB DUP2 PUSH1 0x0 DUP8 DUP1 EXTCODESIZE ISZERO DUP1 ISZERO PUSH2 0x11B JUMPI PUSH1 0x0 DUP1 REVERT JUMPDEST POP GAS CALL ISZERO DUP1 ISZERO PUSH2 0x12F JUMPI RETURNDATASIZE PUSH1 0x0 DUP1 RETURNDATACOPY RETURNDATASIZE PUSH1 0x0 REVERT JUMPDEST POP POP POP POP PUSH32 0x0 PUSH20 0xFFFFFFFFFFFFFFFFFFFFFFFFFFFFFFFFFFFFFFFF AND PUSH4 0x23B872DD CALLER ADDRESS DUP9 PUSH1 0x40 MLOAD DUP5 PUSH4 0xFFFFFFFF AND PUSH1 0xE0 SHL DUP2 MSTORE PUSH1 0x4 ADD PUSH2 0x190 SWAP4 SWAP3 SWAP2 SWAP1 PUSH2 0x54C JUMP JUMPDEST PUSH1 0x20 PUSH1 0x40 MLOAD DUP1 DUP4 SUB DUP2 PUSH1 0x0 DUP8 GAS CALL ISZERO DUP1 ISZERO PUSH2 0x1AF JUMPI RETURNDATASIZE PUSH1 0x0 DUP1 RETURNDATACOPY RETURNDATASIZE PUSH1 0x0 REVERT JUMPDEST POP POP POP POP PUSH1 0x40 MLOAD RETURNDATASIZE PUSH1 0x1F NOT PUSH1 0x1F DUP3 ADD AND DUP3 ADD DUP1 PUSH1 0x40 MSTORE POP DUP2 ADD SWAP1 PUSH2 0x1D3 SWAP2 SWAP1 PUSH2 0x5BB JUMP JUMPDEST POP POP POP POP POP POP JUMP JUMPDEST PUSH32 0x0 PUSH20 0xFFFFFFFFFFFFFFFFFFFFFFFFFFFFFFFFFFFFFFFF AND PUSH4 0x23B872DD CALLER ADDRESS DUP5 PUSH1 0x40 MLOAD DUP5 PUSH4 0xFFFFFFFF AND PUSH1 0xE0 SHL DUP2 MSTORE PUSH1 0x4 ADD PUSH2 0x238 SWAP4 SWAP3 SWAP2 SWAP1 PUSH2 0x54C JUMP JUMPDEST PUSH1 0x20 PUSH1 0x40 MLOAD DUP1 DUP4 SUB DUP2 PUSH1 0x0 DUP8 GAS CALL ISZERO DUP1 ISZERO PUSH2 0x257 JUMPI RETURNDATASIZE PUSH1 0x0 DUP1 RETURNDATACOPY RETURNDATASIZE PUSH1 0x0 REVERT JUMPDEST POP POP POP POP PUSH1 0x40 MLOAD RETURNDATASIZE PUSH1 0x1F NOT PUSH1 0x1F DUP3 ADD AND DUP3 ADD DUP1 PUSH1 0x40 MSTORE POP DUP2 ADD SWAP1 PUSH2 0x27B SWAP2 SWAP1 PUSH2 0x5BB JUMP JUMPDEST POP POP JUMP JUMPDEST PUSH32 0x0 DUP2 JUMP JUMPDEST PUSH1 0x0 DUP1 REVERT JUMPDEST PUSH1 0x0 DUP2 SWAP1 POP SWAP2 SWAP1 POP JUMP JUMPDEST PUSH2 0x2BB DUP2 PUSH2 0x2A8 JUMP JUMPDEST DUP2 EQ PUSH2 0x2C6 JUMPI PUSH1 0x0 DUP1 REVERT JUMPDEST POP JUMP JUMPDEST PUSH1 0x0 DUP2 CALLDATALOAD SWAP1 POP PUSH2 0x2D8 DUP2 PUSH2 0x2B2 JUMP JUMPDEST SWAP3 SWAP2 POP POP JUMP JUMPDEST PUSH1 0x0 PUSH1 0xFF DUP3 AND SWAP1 POP SWAP2 SWAP1 POP JUMP JUMPDEST PUSH2 0x2F4 DUP2 PUSH2 0x2DE JUMP JUMPDEST DUP2 EQ PUSH2 0x2FF JUMPI PUSH1 0x0 DUP1 REVERT JUMPDEST POP JUMP JUMPDEST PUSH1 0x0 DUP2 CALLDATALOAD SWAP1 POP PUSH2 0x311 DUP2 PUSH2 0x2EB JUMP JUMPDEST SWAP3 SWAP2 POP POP JUMP JUMPDEST PUSH1 0x0 DUP2 SWAP1 POP SWAP2 SWAP1 POP JUMP JUMPDEST PUSH2 0x32A DUP2 PUSH2 0x317 JUMP JUMPDEST DUP2 EQ PUSH2 0x335 JUMPI PUSH1 0x0 DUP1 REVERT JUMPDEST POP JUMP JUMPDEST PUSH1 0x0 DUP2 CALLDATALOAD SWAP1 POP PUSH2 0x347 DUP2 PUSH2 0x321 JUMP JUMPDEST SWAP3 SWAP2 POP POP JUMP JUMPDEST PUSH1 0x0 DUP1 PUSH1 0x0 DUP1 PUSH1 0x0 PUSH1 0xA0 DUP7 DUP9 SUB SLT ISZERO PUSH2 0x369 JUMPI PUSH2 0x368 PUSH2 0x2A3 JUMP JUMPDEST JUMPDEST PUSH1 0x0 PUSH2 0x377 DUP9 DUP3 DUP10 ADD PUSH2 0x2C9 JUMP JUMPDEST SWAP6 POP POP PUSH1 0x20 PUSH2 0x388 DUP9 DUP3 DUP10 ADD PUSH2 0x2C9 JUMP JUMPDEST SWAP5 POP POP PUSH1 0x40 PUSH2 0x399 DUP9 DUP3 DUP10 ADD PUSH2 0x302 JUMP JUMPDEST SWAP4 POP POP PUSH1 0x60 PUSH2 0x3AA DUP9 DUP3 DUP10 ADD PUSH2 0x338 JUMP JUMPDEST SWAP3 POP POP PUSH1 0x80 PUSH2 0x3BB DUP9 DUP3 DUP10 ADD PUSH2 0x338 JUMP JUMPDEST SWAP2 POP POP SWAP3 SWAP6 POP SWAP3 SWAP6 SWAP1 SWAP4 POP JUMP JUMPDEST PUSH1 0x0 PUSH1 0x20 DUP3 DUP5 SUB SLT ISZERO PUSH2 0x3DE JUMPI PUSH2 0x3DD PUSH2 0x2A3 JUMP JUMPDEST JUMPDEST PUSH1 0x0 PUSH2 0x3EC DUP5 DUP3 DUP6 ADD PUSH2 0x2C9 JUMP JUMPDEST SWAP2 POP POP SWAP3 SWAP2 POP POP JUMP JUMPDEST PUSH1 0x0 PUSH20 0xFFFFFFFFFFFFFFFFFFFFFFFFFFFFFFFFFFFFFFFF DUP3 AND SWAP1 POP SWAP2 SWAP1 POP JUMP JUMPDEST PUSH1 0x0 DUP2 SWAP1 POP SWAP2 SWAP1 POP JUMP JUMPDEST PUSH1 0x0 PUSH2 0x43A PUSH2 0x435 PUSH2 0x430 DUP5 PUSH2 0x3F5 JUMP JUMPDEST PUSH2 0x415 JUMP JUMPDEST PUSH2 0x3F5 JUMP JUMPDEST SWAP1 POP SWAP2 SWAP1 POP JUMP JUMPDEST PUSH1 0x0 PUSH2 0x44C DUP3 PUSH2 0x41F JUMP JUMPDEST SWAP1 POP SWAP2 SWAP1 POP JUMP JUMPDEST PUSH1 0x0 PUSH2 0x45E DUP3 PUSH2 0x441 JUMP JUMPDEST SWAP1 POP SWAP2 SWAP1 POP JUMP JUMPDEST PUSH2 0x46E DUP2 PUSH2 0x453 JUMP JUMPDEST DUP3 MSTORE POP POP JUMP JUMPDEST PUSH1 0x0 PUSH1 0x20 DUP3 ADD SWAP1 POP PUSH2 0x489 PUSH1 0x0 DUP4 ADD DUP5 PUSH2 0x465 JUMP JUMPDEST SWAP3 SWAP2 POP POP JUMP JUMPDEST PUSH1 0x0 PUSH2 0x49A DUP3 PUSH2 0x3F5 JUMP JUMPDEST SWAP1 POP SWAP2 SWAP1 POP JUMP JUMPDEST PUSH2 0x4AA DUP2 PUSH2 0x48F JUMP JUMPDEST DUP3 MSTORE POP POP JUMP JUMPDEST PUSH2 0x4B9 DUP2 PUSH2 0x2A8 JUMP JUMPDEST DUP3 MSTORE POP POP JUMP JUMPDEST PUSH2 0x4C8 DUP2 PUSH2 0x2DE JUMP JUMPDEST DUP3 MSTORE POP POP JUMP JUMPDEST PUSH2 0x4D7 DUP2 PUSH2 0x317 JUMP JUMPDEST DUP3 MSTORE POP POP JUMP JUMPDEST PUSH1 0x0 PUSH1 0xE0 DUP3 ADD SWAP1 POP PUSH2 0x4F2 PUSH1 0x0 DUP4 ADD DUP11 PUSH2 0x4A1 JUMP JUMPDEST PUSH2 0x4FF PUSH1 0x20 DUP4 ADD DUP10 PUSH2 0x4A1 JUMP JUMPDEST PUSH2 0x50C PUSH1 0x40 DUP4 ADD DUP9 PUSH2 0x4B0 JUMP JUMPDEST PUSH2 0x519 PUSH1 0x60 DUP4 ADD DUP8 PUSH2 0x4B0 JUMP JUMPDEST PUSH2 0x526 PUSH1 0x80 DUP4 ADD DUP7 PUSH2 0x4BF JUMP JUMPDEST PUSH2 0x533 PUSH1 0xA0 DUP4 ADD DUP6 PUSH2 0x4CE JUMP JUMPDEST PUSH2 0x540 PUSH1 0xC0 DUP4 ADD DUP5 PUSH2 0x4CE JUMP JUMPDEST SWAP9 SWAP8 POP POP POP POP POP POP POP POP JUMP JUMPDEST PUSH1 0x0 PUSH1 0x60 DUP3 ADD SWAP1 POP PUSH2 0x561 PUSH1 0x0 DUP4 ADD DUP7 PUSH2 0x4A1 JUMP JUMPDEST PUSH2 0x56E PUSH1 0x20 DUP4 ADD DUP6 PUSH2 0x4A1 JUMP JUMPDEST PUSH2 0x57B PUSH1 0x40 DUP4 ADD DUP5 PUSH2 0x4B0 JUMP JUMPDEST SWAP5 SWAP4 POP POP POP POP JUMP JUMPDEST PUSH1 0x0 DUP2 ISZERO ISZERO SWAP1 POP SWAP2 SWAP1 POP JUMP JUMPDEST PUSH2 0x598 DUP2 PUSH2 0x583 JUMP JUMPDEST DUP2 EQ PUSH2 0x5A3 JUMPI PUSH1 0x0 DUP1 REVERT JUMPDEST POP JUMP JUMPDEST PUSH1 0x0 DUP2 MLOAD SWAP1 POP PUSH2 0x5B5 DUP2 PUSH2 0x58F JUMP JUMPDEST SWAP3 SWAP2 POP POP JUMP JUMPDEST PUSH1 0x0 PUSH1 0x20 DUP3 DUP5 SUB SLT ISZERO PUSH2 0x5D1 JUMPI PUSH2 0x5D0 PUSH2 0x2A3 JUMP JUMPDEST JUMPDEST PUSH1 0x0 PUSH2 0x5DF DUP5 DUP3 DUP6 ADD PUSH2 0x5A6 JUMP JUMPDEST SWAP2 POP POP SWAP3 SWAP2 POP POP JUMP INVALID LOG2 PUSH5 0x6970667358 0x22 SLT KECCAK256 0xB5 DUP7 0x26 0xE5 0xAD 0xED 0xA6 DUP10 SAR 0xF9 SWAP11 0x5E 0xF7 JUMP DUP9 PUSH23 0x615A3AFB6E9BA111D5FCF61F33B8F49064736F6C634300 ADDMOD GT STOP CALLER "
				},
				"gasEstimates": {
					"creation": {
						"codeDepositCost": "313200",
						"executionCost": "infinite",
						"totalCost": "infinite"
					},
					"external": {
						"deposit(uint256)": "infinite",
						"depositWithPermit(uint256,uint256,uint8,bytes32,bytes32)": "infinite",
						"token()": "infinite"
					}
				},
				"methodIdentifiers": {
					"deposit(uint256)": "b6b55f25",
					"depositWithPermit(uint256,uint256,uint8,bytes32,bytes32)": "4a970be7",
					"token()": "fc0c546a"
				}
			},
			"storageLayout": {
				"storage": [],
				"types": null
			},
			"userdoc": {
				"kind": "user",
				"methods": {},
				"version": 1
			}
		}
	}
}