{
	"CONTRACTS/Token.sol": {
		"ApeCoin": {
			"abi": [
				{
					"inputs": [],
					"stateMutability": "nonpayable",
					"type": "constructor"
				},
				{
					"anonymous": false,
					"inputs": [
						{
							"indexed": true,
							"internalType": "address",
							"name": "owner",
							"type": "address"
						},
						{
							"indexed": true,
							"internalType": "address",
							"name": "spender",
							"type": "address"
						},
						{
							"indexed": false,
							"internalType": "uint256",
							"name": "amount",
							"type": "uint256"
						}
					],
					"name": "Approval",
					"type": "event"
				},
				{
					"anonymous": false,
					"inputs": [
						{
							"indexed": true,
							"internalType": "address",
							"name": "from",
							"type": "address"
						},
						{
							"indexed": true,
							"internalType": "address",
							"name": "to",
							"type": "address"
						},
						{
							"indexed": false,
							"internalType": "uint256",
							"name": "amount",
							"type": "uint256"
						}
					],
					"name": "Transfer",
					"type": "event"
				},
				{
					"inputs": [],
					"name": "DOMAIN_SEPARATOR",
					"outputs": [
						{
							"internalType": "bytes32",
							"name": "",
							"type": "bytes32"
						}
					],
					"stateMutability": "view",
					"type": "function"
				},
				{
					"inputs": [
						{
							"internalType": "address",
							"name": "",
							"type": "address"
						},
						{
							"internalType": "address",
							"name": "",
							"type": "address"
						}
					],
					"name": "allowance",
					"outputs": [
						{
							"internalType": "uint256",
							"name": "",
							"type": "uint256"
						}
					],
					"stateMutability": "view",
					"type": "function"
				},
				{
					"inputs": [
						{
							"internalType": "address",
							"name": "spender",
							"type": "address"
						},
						{
							"internalType": "uint256",
							"name": "amount",
							"type": "uint256"
						}
					],
					"name": "approve",
					"outputs": [
						{
							"internalType": "bool",
							"name": "",
							"type": "bool"
						}
					],
					"stateMutability": "nonpayable",
					"type": "function"
				},
				{
					"inputs": [
						{
							"internalType": "address",
							"name": "",
							"type": "address"
						}
					],
					"name": "balanceOf",
					"outputs": [
						{
							"internalType": "uint256",
							"name": "",
							"type": "uint256"
						}
					],
					"stateMutability": "view",
					"type": "function"
				},
				{
					"inputs": [],
					"name": "decimals",
					"outputs": [
						{
							"internalType": "uint8",
							"name": "",
							"type": "uint8"
						}
					],
					"stateMutability": "view",
					"type": "function"
				},
				{
					"inputs": [
						{
							"internalType": "address",
							"name": "_to",
							"type": "address"
						},
						{
							"internalType": "uint256",
							"name": "_amount",
							"type": "uint256"
						}
					],
					"name": "mint",
					"outputs": [],
					"stateMutability": "nonpayable",
					"type": "function"
				},
				{
					"inputs": [],
					"name": "name",
					"outputs": [
						{
							"internalType": "string",
							"name": "",
							"type": "string"
						}
					],
					"stateMutability": "view",
					"type": "function"
				},
				{
					"inputs": [
						{
							"internalType": "address",
							"name": "",
							"type": "address"
						}
					],
					"name": "nonces",
					"outputs": [
						{
							"internalType": "uint256",
							"name": "",
							"type": "uint256"
						}
					],
					"stateMutability": "view",
					"type": "function"
				},
				{
					"inputs": [
						{
							"internalType": "address",
							"name": "owner",
							"type": "address"
						},
						{
							"internalType": "address",
							"name": "spender",
							"type": "address"
						},
						{
							"internalType": "uint256",
							"name": "value",
							"type": "uint256"
						},
						{
							"internalType": "uint256",
							"name": "deadline",
							"type": "uint256"
						},
						{
							"internalType": "uint8",
							"name": "v",
							"type": "uint8"
						},
						{
							"internalType": "bytes32",
							"name": "r",
							"type": "bytes32"
						},
						{
							"internalType": "bytes32",
							"name": "s",
							"type": "bytes32"
						}
					],
					"name": "permit",
					"outputs": [],
					"stateMutability": "nonpayable",
					"type": "function"
				},
				{
					"inputs": [],
					"name": "symbol",
					"outputs": [
						{
							"internalType": "string",
							"name": "",
							"type": "string"
						}
					],
					"stateMutability": "view",
					"type": "function"
				},
				{
					"inputs": [],
					"name": "totalSupply",
					"outputs": [
						{
							"internalType": "uint256",
							"name": "",
							"type": "uint256"
						}
					],
					"stateMutability": "view",
					"type": "function"
				},
				{
					"inputs": [
						{
							"internalType": "address",
							"name": "to",
							"type": "address"
						},
						{
							"internalType": "uint256",
							"name": "amount",
							"type": "uint256"
						}
					],
					"name": "transfer",
					"outputs": [
						{
							"internalType": "bool",
							"name": "",
							"type": "bool"
						}
					],
					"stateMutability": "nonpayable",
					"type": "function"
				},
				{
					"inputs": [
						{
							"internalType": "address",
							"name": "from",
							"type": "address"
						},
						{
							"internalType": "address",
							"name": "to",
							"type": "address"
						},
						{
							"internalType": "uint256",
							"name": "amount",
							"type": "uint256"
						}
					],
					"name": "transferFrom",
					"outputs": [
						{
							"internalType": "bool",
							"name": "",
							"type": "bool"
						}
					],
					"stateMutability": "nonpayable",
					"type": "function"
				}
			],
			"devdoc": {
				"kind": "dev",
				"methods": {},
				"version": 1
			},
			"evm": {
				"assembly": "    /* \"CONTRACTS/Token.sol\":134:325  contract ApeCoin is ERC20 {... */\n  mstore(0x40, 0xe0)\n    /* \"CONTRACTS/Token.sol\":171:231  constructor () ERC20 (\"ApeCoin\", \"APE\", 18) {... */\n  callvalue\n  dup1\n  iszero\n  tag_1\n  jumpi\n  0x00\n  dup1\n  revert\ntag_1:\n  pop\n    /* \"CONTRACTS/solmate-main/src/tokens/ERC20.sol\":1981:2273  constructor(... */\n  mload(0x40)\n  dup1\n  0x40\n  add\n  0x40\n  mstore\n  dup1\n  0x07\n  dup2\n  mstore\n  0x20\n  add\n  0x417065436f696e00000000000000000000000000000000000000000000000000\n  dup2\n  mstore\n  pop\n  mload(0x40)\n  dup1\n  0x40\n  add\n  0x40\n  mstore\n  dup1\n  0x03\n  dup2\n  mstore\n  0x20\n  add\n  0x4150450000000000000000000000000000000000000000000000000000000000\n  dup2\n  mstore\n  pop\n    /* \"CONTRACTS/Token.sol\":211:213  18 */\n  0x12\n    /* \"CONTRACTS/solmate-main/src/tokens/ERC20.sol\":2101:2106  _name */\n  dup3\n    /* \"CONTRACTS/solmate-main/src/tokens/ERC20.sol\":2094:2098  name */\n  0x00\n    /* \"CONTRACTS/solmate-main/src/tokens/ERC20.sol\":2094:2106  name = _name */\n  swap1\n  dup1\n  mload\n  swap1\n  0x20\n  add\n  swap1\n  tag_5\n  swap3\n  swap2\n  swap1\n  tag_6\n  jump\t// in\ntag_5:\n  pop\n    /* \"CONTRACTS/solmate-main/src/tokens/ERC20.sol\":2125:2132  _symbol */\n  dup2\n    /* \"CONTRACTS/solmate-main/src/tokens/ERC20.sol\":2116:2122  symbol */\n  0x01\n    /* \"CONTRACTS/solmate-main/src/tokens/ERC20.sol\":2116:2132  symbol = _symbol */\n  swap1\n  dup1\n  mload\n  swap1\n  0x20\n  add\n  swap1\n  tag_7\n  swap3\n  swap2\n  swap1\n  tag_6\n  jump\t// in\ntag_7:\n  pop\n    /* \"CONTRACTS/solmate-main/src/tokens/ERC20.sol\":2153:2162  _decimals */\n  dup1\n    /* \"CONTRACTS/solmate-main/src/tokens/ERC20.sol\":2142:2162  decimals = _decimals */\n  0xff\n  and\n  0x80\n  dup2\n  0xff\n  and\n  0xf8\n  shl\n  dup2\n  mstore\n  pop\n  pop\n    /* \"CONTRACTS/solmate-main/src/tokens/ERC20.sol\":2192:2205  block.chainid */\n  chainid\n    /* \"CONTRACTS/solmate-main/src/tokens/ERC20.sol\":2173:2205  INITIAL_CHAIN_ID = block.chainid */\n  0xa0\n  dup2\n  dup2\n  mstore\n  pop\n  pop\n    /* \"CONTRACTS/solmate-main/src/tokens/ERC20.sol\":2242:2266  computeDomainSeparator() */\n  tag_8\n    /* \"CONTRACTS/solmate-main/src/tokens/ERC20.sol\":2242:2264  computeDomainSeparator */\n  shl(0x20, tag_9)\n    /* \"CONTRACTS/solmate-main/src/tokens/ERC20.sol\":2242:2266  computeDomainSeparator() */\n  0x20\n  shr\n  jump\t// in\ntag_8:\n    /* \"CONTRACTS/solmate-main/src/tokens/ERC20.sol\":2215:2266  INITIAL_DOMAIN_SEPARATOR = computeDomainSeparator() */\n  0xc0\n  dup2\n  dup2\n  mstore\n  pop\n  pop\n    /* \"CONTRACTS/solmate-main/src/tokens/ERC20.sol\":1981:2273  constructor(... */\n  pop\n  pop\n  pop\n    /* \"CONTRACTS/Token.sol\":134:325  contract ApeCoin is ERC20 {... */\n  jump(tag_11)\n    /* \"CONTRACTS/solmate-main/src/tokens/ERC20.sol\":5510:5956  function computeDomainSeparator() internal view virtual returns (bytes32) {... */\ntag_9:\n    /* \"CONTRACTS/solmate-main/src/tokens/ERC20.sol\":5575:5582  bytes32 */\n  0x00\n    /* \"CONTRACTS/solmate-main/src/tokens/ERC20.sol\":5672:5767  keccak256(\"EIP712Domain(string name,string version,uint256 chainId,address verifyingContract)\") */\n  0x8b73c3c69bb8fe3d512ecc4cf759cc79239f7b179b0ffacaa9a75d522b39400f\n    /* \"CONTRACTS/solmate-main/src/tokens/ERC20.sol\":5805:5809  name */\n  0x00\n    /* \"CONTRACTS/solmate-main/src/tokens/ERC20.sol\":5789:5811  keccak256(bytes(name)) */\n  mload(0x40)\n  tag_13\n  swap2\n  swap1\n  tag_14\n  jump\t// in\ntag_13:\n  mload(0x40)\n  dup1\n  swap2\n  sub\n  swap1\n  keccak256\n    /* \"CONTRACTS/solmate-main/src/tokens/ERC20.sol\":5833:5847  keccak256(\"1\") */\n  0xc89efdaa54c0f20c7adf612882df0950f5a951637e0307cdcb4c672f298b8bc6\n    /* \"CONTRACTS/solmate-main/src/tokens/ERC20.sol\":5869:5882  block.chainid */\n  chainid\n    /* \"CONTRACTS/solmate-main/src/tokens/ERC20.sol\":5912:5916  this */\n  address\n    /* \"CONTRACTS/solmate-main/src/tokens/ERC20.sol\":5640:5935  abi.encode(... */\n  add(0x20, mload(0x40))\n  tag_15\n  swap6\n  swap5\n  swap4\n  swap3\n  swap2\n  swap1\n  tag_16\n  jump\t// in\ntag_15:\n  mload(0x40)\n  0x20\n  dup2\n  dup4\n  sub\n  sub\n  dup2\n  mstore\n  swap1\n  0x40\n  mstore\n    /* \"CONTRACTS/solmate-main/src/tokens/ERC20.sol\":5613:5949  keccak256(... */\n  dup1\n  mload\n  swap1\n  0x20\n  add\n  keccak256\n    /* \"CONTRACTS/solmate-main/src/tokens/ERC20.sol\":5594:5949  return... */\n  swap1\n  pop\n    /* \"CONTRACTS/solmate-main/src/tokens/ERC20.sol\":5510:5956  function computeDomainSeparator() internal view virtual returns (bytes32) {... */\n  swap1\n  jump\t// out\n    /* \"CONTRACTS/Token.sol\":134:325  contract ApeCoin is ERC20 {... */\ntag_6:\n  dup3\n  dup1\n  sload\n  tag_17\n  swap1\n  tag_18\n  jump\t// in\ntag_17:\n  swap1\n  0x00\n  mstore\n  keccak256(0x00, 0x20)\n  swap1\n  0x1f\n  add\n  0x20\n  swap1\n  div\n  dup2\n  add\n  swap3\n  dup3\n  tag_20\n  jumpi\n  0x00\n  dup6\n  sstore\n  jump(tag_19)\ntag_20:\n  dup3\n  0x1f\n  lt\n  tag_21\n  jumpi\n  dup1\n  mload\n  not(0xff)\n  and\n  dup4\n  dup1\n  add\n  or\n  dup6\n  sstore\n  jump(tag_19)\ntag_21:\n  dup3\n  dup1\n  add\n  0x01\n  add\n  dup6\n  sstore\n  dup3\n  iszero\n  tag_19\n  jumpi\n  swap2\n  dup3\n  add\ntag_22:\n  dup3\n  dup2\n  gt\n  iszero\n  tag_23\n  jumpi\n  dup3\n  mload\n  dup3\n  sstore\n  swap2\n  0x20\n  add\n  swap2\n  swap1\n  0x01\n  add\n  swap1\n  jump(tag_22)\ntag_23:\ntag_19:\n  pop\n  swap1\n  pop\n  tag_24\n  swap2\n  swap1\n  tag_25\n  jump\t// in\ntag_24:\n  pop\n  swap1\n  jump\t// out\ntag_25:\ntag_26:\n  dup1\n  dup3\n  gt\n  iszero\n  tag_27\n  jumpi\n  0x00\n  dup2\n  0x00\n  swap1\n  sstore\n  pop\n  0x01\n  add\n  jump(tag_26)\ntag_27:\n  pop\n  swap1\n  jump\t// out\n    /* \"#utility.yul\":7:125   */\ntag_29:\n    /* \"#utility.yul\":94:118   */\n  tag_31\n    /* \"#utility.yul\":112:117   */\n  dup2\n    /* \"#utility.yul\":94:118   */\n  tag_32\n  jump\t// in\ntag_31:\n    /* \"#utility.yul\":89:92   */\n  dup3\n    /* \"#utility.yul\":82:119   */\n  mstore\n    /* \"#utility.yul\":7:125   */\n  pop\n  pop\n  jump\t// out\n    /* \"#utility.yul\":131:249   */\ntag_33:\n    /* \"#utility.yul\":218:242   */\n  tag_35\n    /* \"#utility.yul\":236:241   */\n  dup2\n    /* \"#utility.yul\":218:242   */\n  tag_36\n  jump\t// in\ntag_35:\n    /* \"#utility.yul\":213:216   */\n  dup3\n    /* \"#utility.yul\":206:243   */\n  mstore\n    /* \"#utility.yul\":131:249   */\n  pop\n  pop\n  jump\t// out\n    /* \"#utility.yul\":277:1126   */\ntag_37:\n    /* \"#utility.yul\":382:385   */\n  0x00\n    /* \"#utility.yul\":419:424   */\n  dup2\n    /* \"#utility.yul\":413:425   */\n  sload\n    /* \"#utility.yul\":448:484   */\n  tag_39\n    /* \"#utility.yul\":474:483   */\n  dup2\n    /* \"#utility.yul\":448:484   */\n  tag_18\n  jump\t// in\ntag_39:\n    /* \"#utility.yul\":500:588   */\n  tag_40\n    /* \"#utility.yul\":581:587   */\n  dup2\n    /* \"#utility.yul\":576:579   */\n  dup7\n    /* \"#utility.yul\":500:588   */\n  tag_41\n  jump\t// in\ntag_40:\n    /* \"#utility.yul\":493:588   */\n  swap5\n  pop\n    /* \"#utility.yul\":619:620   */\n  0x01\n    /* \"#utility.yul\":608:617   */\n  dup3\n    /* \"#utility.yul\":604:621   */\n  and\n    /* \"#utility.yul\":635:636   */\n  0x00\n    /* \"#utility.yul\":630:767   */\n  dup2\n  eq\n  tag_43\n  jumpi\n    /* \"#utility.yul\":781:782   */\n  0x01\n    /* \"#utility.yul\":776:1120   */\n  dup2\n  eq\n  tag_44\n  jumpi\n    /* \"#utility.yul\":597:1120   */\n  jump(tag_42)\n    /* \"#utility.yul\":630:767   */\ntag_43:\n    /* \"#utility.yul\":714:718   */\n  0xff\n    /* \"#utility.yul\":710:719   */\n  not\n    /* \"#utility.yul\":699:708   */\n  dup4\n    /* \"#utility.yul\":695:720   */\n  and\n    /* \"#utility.yul\":690:693   */\n  dup7\n    /* \"#utility.yul\":683:721   */\n  mstore\n    /* \"#utility.yul\":750:756   */\n  dup2\n    /* \"#utility.yul\":745:748   */\n  dup7\n    /* \"#utility.yul\":741:757   */\n  add\n    /* \"#utility.yul\":734:757   */\n  swap4\n  pop\n    /* \"#utility.yul\":630:767   */\n  jump(tag_42)\n    /* \"#utility.yul\":776:1120   */\ntag_44:\n    /* \"#utility.yul\":843:884   */\n  tag_45\n    /* \"#utility.yul\":878:883   */\n  dup6\n    /* \"#utility.yul\":843:884   */\n  tag_46\n  jump\t// in\ntag_45:\n    /* \"#utility.yul\":906:907   */\n  0x00\n    /* \"#utility.yul\":920:1074   */\ntag_47:\n    /* \"#utility.yul\":934:940   */\n  dup4\n    /* \"#utility.yul\":931:932   */\n  dup2\n    /* \"#utility.yul\":928:941   */\n  lt\n    /* \"#utility.yul\":920:1074   */\n  iszero\n  tag_49\n  jumpi\n    /* \"#utility.yul\":1008:1015   */\n  dup2\n    /* \"#utility.yul\":1002:1016   */\n  sload\n    /* \"#utility.yul\":998:999   */\n  dup2\n    /* \"#utility.yul\":993:996   */\n  dup10\n    /* \"#utility.yul\":989:1000   */\n  add\n    /* \"#utility.yul\":982:1017   */\n  mstore\n    /* \"#utility.yul\":1058:1059   */\n  0x01\n    /* \"#utility.yul\":1049:1056   */\n  dup3\n    /* \"#utility.yul\":1045:1060   */\n  add\n    /* \"#utility.yul\":1034:1060   */\n  swap2\n  pop\n    /* \"#utility.yul\":956:960   */\n  0x20\n    /* \"#utility.yul\":953:954   */\n  dup2\n    /* \"#utility.yul\":949:961   */\n  add\n    /* \"#utility.yul\":944:961   */\n  swap1\n  pop\n    /* \"#utility.yul\":920:1074   */\n  jump(tag_47)\ntag_49:\n    /* \"#utility.yul\":1103:1109   */\n  dup4\n    /* \"#utility.yul\":1098:1101   */\n  dup9\n    /* \"#utility.yul\":1094:1110   */\n  add\n    /* \"#utility.yul\":1087:1110   */\n  swap6\n  pop\n    /* \"#utility.yul\":783:1120   */\n  pop\n  pop\n    /* \"#utility.yul\":597:1120   */\ntag_42:\n  pop\n    /* \"#utility.yul\":386:1126   */\n  pop\n  pop\n    /* \"#utility.yul\":277:1126   */\n  swap3\n  swap2\n  pop\n  pop\n  jump\t// out\n    /* \"#utility.yul\":1132:1250   */\ntag_50:\n    /* \"#utility.yul\":1219:1243   */\n  tag_52\n    /* \"#utility.yul\":1237:1242   */\n  dup2\n    /* \"#utility.yul\":1219:1243   */\n  tag_53\n  jump\t// in\ntag_52:\n    /* \"#utility.yul\":1214:1217   */\n  dup3\n    /* \"#utility.yul\":1207:1244   */\n  mstore\n    /* \"#utility.yul\":1132:1250   */\n  pop\n  pop\n  jump\t// out\n    /* \"#utility.yul\":1256:1529   */\ntag_14:\n    /* \"#utility.yul\":1387:1390   */\n  0x00\n    /* \"#utility.yul\":1409:1503   */\n  tag_55\n    /* \"#utility.yul\":1499:1502   */\n  dup3\n    /* \"#utility.yul\":1490:1496   */\n  dup5\n    /* \"#utility.yul\":1409:1503   */\n  tag_37\n  jump\t// in\ntag_55:\n    /* \"#utility.yul\":1402:1503   */\n  swap2\n  pop\n    /* \"#utility.yul\":1520:1523   */\n  dup2\n    /* \"#utility.yul\":1513:1523   */\n  swap1\n  pop\n    /* \"#utility.yul\":1256:1529   */\n  swap3\n  swap2\n  pop\n  pop\n  jump\t// out\n    /* \"#utility.yul\":1535:2199   */\ntag_16:\n    /* \"#utility.yul\":1740:1744   */\n  0x00\n    /* \"#utility.yul\":1778:1781   */\n  0xa0\n    /* \"#utility.yul\":1767:1776   */\n  dup3\n    /* \"#utility.yul\":1763:1782   */\n  add\n    /* \"#utility.yul\":1755:1782   */\n  swap1\n  pop\n    /* \"#utility.yul\":1792:1863   */\n  tag_57\n    /* \"#utility.yul\":1860:1861   */\n  0x00\n    /* \"#utility.yul\":1849:1858   */\n  dup4\n    /* \"#utility.yul\":1845:1862   */\n  add\n    /* \"#utility.yul\":1836:1842   */\n  dup9\n    /* \"#utility.yul\":1792:1863   */\n  tag_33\n  jump\t// in\ntag_57:\n    /* \"#utility.yul\":1873:1945   */\n  tag_58\n    /* \"#utility.yul\":1941:1943   */\n  0x20\n    /* \"#utility.yul\":1930:1939   */\n  dup4\n    /* \"#utility.yul\":1926:1944   */\n  add\n    /* \"#utility.yul\":1917:1923   */\n  dup8\n    /* \"#utility.yul\":1873:1945   */\n  tag_33\n  jump\t// in\ntag_58:\n    /* \"#utility.yul\":1955:2027   */\n  tag_59\n    /* \"#utility.yul\":2023:2025   */\n  0x40\n    /* \"#utility.yul\":2012:2021   */\n  dup4\n    /* \"#utility.yul\":2008:2026   */\n  add\n    /* \"#utility.yul\":1999:2005   */\n  dup7\n    /* \"#utility.yul\":1955:2027   */\n  tag_33\n  jump\t// in\ntag_59:\n    /* \"#utility.yul\":2037:2109   */\n  tag_60\n    /* \"#utility.yul\":2105:2107   */\n  0x60\n    /* \"#utility.yul\":2094:2103   */\n  dup4\n    /* \"#utility.yul\":2090:2108   */\n  add\n    /* \"#utility.yul\":2081:2087   */\n  dup6\n    /* \"#utility.yul\":2037:2109   */\n  tag_50\n  jump\t// in\ntag_60:\n    /* \"#utility.yul\":2119:2192   */\n  tag_61\n    /* \"#utility.yul\":2187:2190   */\n  0x80\n    /* \"#utility.yul\":2176:2185   */\n  dup4\n    /* \"#utility.yul\":2172:2191   */\n  add\n    /* \"#utility.yul\":2163:2169   */\n  dup5\n    /* \"#utility.yul\":2119:2192   */\n  tag_29\n  jump\t// in\ntag_61:\n    /* \"#utility.yul\":1535:2199   */\n  swap7\n  swap6\n  pop\n  pop\n  pop\n  pop\n  pop\n  pop\n  jump\t// out\n    /* \"#utility.yul\":2205:2349   */\ntag_46:\n    /* \"#utility.yul\":2257:2261   */\n  0x00\n    /* \"#utility.yul\":2280:2283   */\n  dup2\n    /* \"#utility.yul\":2272:2283   */\n  swap1\n  pop\n    /* \"#utility.yul\":2303:2306   */\n  dup2\n    /* \"#utility.yul\":2300:2301   */\n  0x00\n    /* \"#utility.yul\":2293:2307   */\n  mstore\n    /* \"#utility.yul\":2337:2341   */\n  0x20\n    /* \"#utility.yul\":2334:2335   */\n  0x00\n    /* \"#utility.yul\":2324:2342   */\n  keccak256\n    /* \"#utility.yul\":2316:2342   */\n  swap1\n  pop\n    /* \"#utility.yul\":2205:2349   */\n  swap2\n  swap1\n  pop\n  jump\t// out\n    /* \"#utility.yul\":2355:2502   */\ntag_41:\n    /* \"#utility.yul\":2456:2467   */\n  0x00\n    /* \"#utility.yul\":2493:2496   */\n  dup2\n    /* \"#utility.yul\":2478:2496   */\n  swap1\n  pop\n    /* \"#utility.yul\":2355:2502   */\n  swap3\n  swap2\n  pop\n  pop\n  jump\t// out\n    /* \"#utility.yul\":2508:2604   */\ntag_32:\n    /* \"#utility.yul\":2545:2552   */\n  0x00\n    /* \"#utility.yul\":2574:2598   */\n  tag_65\n    /* \"#utility.yul\":2592:2597   */\n  dup3\n    /* \"#utility.yul\":2574:2598   */\n  tag_66\n  jump\t// in\ntag_65:\n    /* \"#utility.yul\":2563:2598   */\n  swap1\n  pop\n    /* \"#utility.yul\":2508:2604   */\n  swap2\n  swap1\n  pop\n  jump\t// out\n    /* \"#utility.yul\":2610:2687   */\ntag_36:\n    /* \"#utility.yul\":2647:2654   */\n  0x00\n    /* \"#utility.yul\":2676:2681   */\n  dup2\n    /* \"#utility.yul\":2665:2681   */\n  swap1\n  pop\n    /* \"#utility.yul\":2610:2687   */\n  swap2\n  swap1\n  pop\n  jump\t// out\n    /* \"#utility.yul\":2693:2819   */\ntag_66:\n    /* \"#utility.yul\":2730:2737   */\n  0x00\n    /* \"#utility.yul\":2770:2812   */\n  0xffffffffffffffffffffffffffffffffffffffff\n    /* \"#utility.yul\":2763:2768   */\n  dup3\n    /* \"#utility.yul\":2759:2813   */\n  and\n    /* \"#utility.yul\":2748:2813   */\n  swap1\n  pop\n    /* \"#utility.yul\":2693:2819   */\n  swap2\n  swap1\n  pop\n  jump\t// out\n    /* \"#utility.yul\":2825:2902   */\ntag_53:\n    /* \"#utility.yul\":2862:2869   */\n  0x00\n    /* \"#utility.yul\":2891:2896   */\n  dup2\n    /* \"#utility.yul\":2880:2896   */\n  swap1\n  pop\n    /* \"#utility.yul\":2825:2902   */\n  swap2\n  swap1\n  pop\n  jump\t// out\n    /* \"#utility.yul\":2908:3228   */\ntag_18:\n    /* \"#utility.yul\":2952:2958   */\n  0x00\n    /* \"#utility.yul\":2989:2990   */\n  0x02\n    /* \"#utility.yul\":2983:2987   */\n  dup3\n    /* \"#utility.yul\":2979:2991   */\n  div\n    /* \"#utility.yul\":2969:2991   */\n  swap1\n  pop\n    /* \"#utility.yul\":3036:3037   */\n  0x01\n    /* \"#utility.yul\":3030:3034   */\n  dup3\n    /* \"#utility.yul\":3026:3038   */\n  and\n    /* \"#utility.yul\":3057:3075   */\n  dup1\n    /* \"#utility.yul\":3047:3128   */\n  tag_71\n  jumpi\n    /* \"#utility.yul\":3113:3117   */\n  0x7f\n    /* \"#utility.yul\":3105:3111   */\n  dup3\n    /* \"#utility.yul\":3101:3118   */\n  and\n    /* \"#utility.yul\":3091:3118   */\n  swap2\n  pop\n    /* \"#utility.yul\":3047:3128   */\ntag_71:\n    /* \"#utility.yul\":3175:3177   */\n  0x20\n    /* \"#utility.yul\":3167:3173   */\n  dup3\n    /* \"#utility.yul\":3164:3178   */\n  lt\n    /* \"#utility.yul\":3144:3162   */\n  dup2\n    /* \"#utility.yul\":3141:3179   */\n  eq\n    /* \"#utility.yul\":3138:3222   */\n  iszero\n  tag_72\n  jumpi\n    /* \"#utility.yul\":3194:3212   */\n  tag_73\n  tag_74\n  jump\t// in\ntag_73:\n    /* \"#utility.yul\":3138:3222   */\ntag_72:\n    /* \"#utility.yul\":2959:3228   */\n  pop\n    /* \"#utility.yul\":2908:3228   */\n  swap2\n  swap1\n  pop\n  jump\t// out\n    /* \"#utility.yul\":3234:3414   */\ntag_74:\n    /* \"#utility.yul\":3282:3359   */\n  0x4e487b7100000000000000000000000000000000000000000000000000000000\n    /* \"#utility.yul\":3279:3280   */\n  0x00\n    /* \"#utility.yul\":3272:3360   */\n  mstore\n    /* \"#utility.yul\":3379:3383   */\n  0x22\n    /* \"#utility.yul\":3376:3377   */\n  0x04\n    /* \"#utility.yul\":3369:3384   */\n  mstore\n    /* \"#utility.yul\":3403:3407   */\n  0x24\n    /* \"#utility.yul\":3400:3401   */\n  0x00\n    /* \"#utility.yul\":3393:3408   */\n  revert\n    /* \"CONTRACTS/Token.sol\":134:325  contract ApeCoin is ERC20 {... */\ntag_11:\n  shr(0xf8, mload(0x80))\n  mload(0xa0)\n  mload(0xc0)\n  codecopy(0x00, dataOffset(sub_0), dataSize(sub_0))\n  0x00\n  assignImmutable(\"0xcc143a676b82d5e07b2c9d57717b403ab3c58caa273a42cdb95b15980141a86c\")\n  0x00\n  assignImmutable(\"0x35bb2e240092263378f77ea1e9c278099a33b604c4c4e26d13ea227e8bb74470\")\n  0x00\n  assignImmutable(\"0xcd41b8bf8f20f7ad95d96d948a315af225b219053fc98a80aee13063b692b681\")\n  return(0x00, dataSize(sub_0))\nstop\n\nsub_0: assembly {\n        /* \"CONTRACTS/Token.sol\":134:325  contract ApeCoin is ERC20 {... */\n      mstore(0x40, 0x80)\n      callvalue\n      dup1\n      iszero\n      tag_1\n      jumpi\n      0x00\n      dup1\n      revert\n    tag_1:\n      pop\n      jumpi(tag_2, lt(calldatasize, 0x04))\n      shr(0xe0, calldataload(0x00))\n      dup1\n      0x40c10f19\n      gt\n      tag_16\n      jumpi\n      dup1\n      0x95d89b41\n      gt\n      tag_17\n      jumpi\n      dup1\n      0x95d89b41\n      eq\n      tag_12\n      jumpi\n      dup1\n      0xa9059cbb\n      eq\n      tag_13\n      jumpi\n      dup1\n      0xd505accf\n      eq\n      tag_14\n      jumpi\n      dup1\n      0xdd62ed3e\n      eq\n      tag_15\n      jumpi\n      jump(tag_2)\n    tag_17:\n      dup1\n      0x40c10f19\n      eq\n      tag_9\n      jumpi\n      dup1\n      0x70a08231\n      eq\n      tag_10\n      jumpi\n      dup1\n      0x7ecebe00\n      eq\n      tag_11\n      jumpi\n      jump(tag_2)\n    tag_16:\n      dup1\n      0x06fdde03\n      eq\n      tag_3\n      jumpi\n      dup1\n      0x095ea7b3\n      eq\n      tag_4\n      jumpi\n      dup1\n      0x18160ddd\n      eq\n      tag_5\n      jumpi\n      dup1\n      0x23b872dd\n      eq\n      tag_6\n      jumpi\n      dup1\n      0x313ce567\n      eq\n      tag_7\n      jumpi\n      dup1\n      0x3644e515\n      eq\n      tag_8\n      jumpi\n    tag_2:\n      0x00\n      dup1\n      revert\n        /* \"CONTRACTS/solmate-main/src/tokens/ERC20.sol\":1031:1049  string public name */\n    tag_3:\n      tag_18\n      tag_19\n      jump\t// in\n    tag_18:\n      mload(0x40)\n      tag_20\n      swap2\n      swap1\n      tag_21\n      jump\t// in\n    tag_20:\n      mload(0x40)\n      dup1\n      swap2\n      sub\n      swap1\n      return\n        /* \"CONTRACTS/solmate-main/src/tokens/ERC20.sol\":2461:2672  function approve(address spender, uint256 amount) public virtual returns (bool) {... */\n    tag_4:\n      tag_22\n      0x04\n      dup1\n      calldatasize\n      sub\n      dup2\n      add\n      swap1\n      tag_23\n      swap2\n      swap1\n      tag_24\n      jump\t// in\n    tag_23:\n      tag_25\n      jump\t// in\n    tag_22:\n      mload(0x40)\n      tag_26\n      swap2\n      swap1\n      tag_27\n      jump\t// in\n    tag_26:\n      mload(0x40)\n      dup1\n      swap2\n      sub\n      swap1\n      return\n        /* \"CONTRACTS/solmate-main/src/tokens/ERC20.sol\":1304:1330  uint256 public totalSupply */\n    tag_5:\n      tag_28\n      tag_29\n      jump\t// in\n    tag_28:\n      mload(0x40)\n      tag_30\n      swap2\n      swap1\n      tag_31\n      jump\t// in\n    tag_30:\n      mload(0x40)\n      dup1\n      swap2\n      sub\n      swap1\n      return\n        /* \"CONTRACTS/solmate-main/src/tokens/ERC20.sol\":3057:3649  function transferFrom(... */\n    tag_6:\n      tag_32\n      0x04\n      dup1\n      calldatasize\n      sub\n      dup2\n      add\n      swap1\n      tag_33\n      swap2\n      swap1\n      tag_34\n      jump\t// in\n    tag_33:\n      tag_35\n      jump\t// in\n    tag_32:\n      mload(0x40)\n      tag_36\n      swap2\n      swap1\n      tag_27\n      jump\t// in\n    tag_36:\n      mload(0x40)\n      dup1\n      swap2\n      sub\n      swap1\n      return\n        /* \"CONTRACTS/solmate-main/src/tokens/ERC20.sol\":1083:1114  uint8 public immutable decimals */\n    tag_7:\n      tag_37\n      tag_38\n      jump\t// in\n    tag_37:\n      mload(0x40)\n      tag_39\n      swap2\n      swap1\n      tag_40\n      jump\t// in\n    tag_39:\n      mload(0x40)\n      dup1\n      swap2\n      sub\n      swap1\n      return\n        /* \"CONTRACTS/solmate-main/src/tokens/ERC20.sol\":5327:5504  function DOMAIN_SEPARATOR() public view virtual returns (bytes32) {... */\n    tag_8:\n      tag_41\n      tag_42\n      jump\t// in\n    tag_41:\n      mload(0x40)\n      tag_43\n      swap2\n      swap1\n      tag_44\n      jump\t// in\n    tag_43:\n      mload(0x40)\n      dup1\n      swap2\n      sub\n      swap1\n      return\n        /* \"CONTRACTS/Token.sol\":237:323  function mint(address _to, uint _amount) external {... */\n    tag_9:\n      tag_45\n      0x04\n      dup1\n      calldatasize\n      sub\n      dup2\n      add\n      swap1\n      tag_46\n      swap2\n      swap1\n      tag_24\n      jump\t// in\n    tag_46:\n      tag_47\n      jump\t// in\n    tag_45:\n      stop\n        /* \"CONTRACTS/solmate-main/src/tokens/ERC20.sol\":1337:1381  mapping(address => uint256) public balanceOf */\n    tag_10:\n      tag_48\n      0x04\n      dup1\n      calldatasize\n      sub\n      dup2\n      add\n      swap1\n      tag_49\n      swap2\n      swap1\n      tag_50\n      jump\t// in\n    tag_49:\n      tag_51\n      jump\t// in\n    tag_48:\n      mload(0x40)\n      tag_52\n      swap2\n      swap1\n      tag_31\n      jump\t// in\n    tag_52:\n      mload(0x40)\n      dup1\n      swap2\n      sub\n      swap1\n      return\n        /* \"CONTRACTS/solmate-main/src/tokens/ERC20.sol\":1751:1792  mapping(address => uint256) public nonces */\n    tag_11:\n      tag_53\n      0x04\n      dup1\n      calldatasize\n      sub\n      dup2\n      add\n      swap1\n      tag_54\n      swap2\n      swap1\n      tag_50\n      jump\t// in\n    tag_54:\n      tag_55\n      jump\t// in\n    tag_53:\n      mload(0x40)\n      tag_56\n      swap2\n      swap1\n      tag_31\n      jump\t// in\n    tag_56:\n      mload(0x40)\n      dup1\n      swap2\n      sub\n      swap1\n      return\n        /* \"CONTRACTS/solmate-main/src/tokens/ERC20.sol\":1056:1076  string public symbol */\n    tag_12:\n      tag_57\n      tag_58\n      jump\t// in\n    tag_57:\n      mload(0x40)\n      tag_59\n      swap2\n      swap1\n      tag_21\n      jump\t// in\n    tag_59:\n      mload(0x40)\n      dup1\n      swap2\n      sub\n      swap1\n      return\n        /* \"CONTRACTS/solmate-main/src/tokens/ERC20.sol\":2678:3051  function transfer(address to, uint256 amount) public virtual returns (bool) {... */\n    tag_13:\n      tag_60\n      0x04\n      dup1\n      calldatasize\n      sub\n      dup2\n      add\n      swap1\n      tag_61\n      swap2\n      swap1\n      tag_24\n      jump\t// in\n    tag_61:\n      tag_62\n      jump\t// in\n    tag_60:\n      mload(0x40)\n      tag_63\n      swap2\n      swap1\n      tag_27\n      jump\t// in\n    tag_63:\n      mload(0x40)\n      dup1\n      swap2\n      sub\n      swap1\n      return\n        /* \"CONTRACTS/solmate-main/src/tokens/ERC20.sol\":3838:5321  function permit(... */\n    tag_14:\n      tag_64\n      0x04\n      dup1\n      calldatasize\n      sub\n      dup2\n      add\n      swap1\n      tag_65\n      swap2\n      swap1\n      tag_66\n      jump\t// in\n    tag_65:\n      tag_67\n      jump\t// in\n    tag_64:\n      stop\n        /* \"CONTRACTS/solmate-main/src/tokens/ERC20.sol\":1388:1452  mapping(address => mapping(address => uint256)) public allowance */\n    tag_15:\n      tag_68\n      0x04\n      dup1\n      calldatasize\n      sub\n      dup2\n      add\n      swap1\n      tag_69\n      swap2\n      swap1\n      tag_70\n      jump\t// in\n    tag_69:\n      tag_71\n      jump\t// in\n    tag_68:\n      mload(0x40)\n      tag_72\n      swap2\n      swap1\n      tag_31\n      jump\t// in\n    tag_72:\n      mload(0x40)\n      dup1\n      swap2\n      sub\n      swap1\n      return\n        /* \"CONTRACTS/solmate-main/src/tokens/ERC20.sol\":1031:1049  string public name */\n    tag_19:\n      0x00\n      dup1\n      sload\n      tag_73\n      swap1\n      tag_74\n      jump\t// in\n    tag_73:\n      dup1\n      0x1f\n      add\n      0x20\n      dup1\n      swap2\n      div\n      mul\n      0x20\n      add\n      mload(0x40)\n      swap1\n      dup2\n      add\n      0x40\n      mstore\n      dup1\n      swap3\n      swap2\n      swap1\n      dup2\n      dup2\n      mstore\n      0x20\n      add\n      dup3\n      dup1\n      sload\n      tag_75\n      swap1\n      tag_74\n      jump\t// in\n    tag_75:\n      dup1\n      iszero\n      tag_76\n      jumpi\n      dup1\n      0x1f\n      lt\n      tag_77\n      jumpi\n      0x0100\n      dup1\n      dup4\n      sload\n      div\n      mul\n      dup4\n      mstore\n      swap2\n      0x20\n      add\n      swap2\n      jump(tag_76)\n    tag_77:\n      dup3\n      add\n      swap2\n      swap1\n      0x00\n      mstore\n      keccak256(0x00, 0x20)\n      swap1\n    tag_78:\n      dup2\n      sload\n      dup2\n      mstore\n      swap1\n      0x01\n      add\n      swap1\n      0x20\n      add\n      dup1\n      dup4\n      gt\n      tag_78\n      jumpi\n      dup3\n      swap1\n      sub\n      0x1f\n      and\n      dup3\n      add\n      swap2\n    tag_76:\n      pop\n      pop\n      pop\n      pop\n      pop\n      dup2\n      jump\t// out\n        /* \"CONTRACTS/solmate-main/src/tokens/ERC20.sol\":2461:2672  function approve(address spender, uint256 amount) public virtual returns (bool) {... */\n    tag_25:\n        /* \"CONTRACTS/solmate-main/src/tokens/ERC20.sol\":2535:2539  bool */\n      0x00\n        /* \"CONTRACTS/solmate-main/src/tokens/ERC20.sol\":2584:2590  amount */\n      dup2\n        /* \"CONTRACTS/solmate-main/src/tokens/ERC20.sol\":2551:2560  allowance */\n      0x04\n        /* \"CONTRACTS/solmate-main/src/tokens/ERC20.sol\":2551:2572  allowance[msg.sender] */\n      0x00\n        /* \"CONTRACTS/solmate-main/src/tokens/ERC20.sol\":2561:2571  msg.sender */\n      caller\n        /* \"CONTRACTS/solmate-main/src/tokens/ERC20.sol\":2551:2572  allowance[msg.sender] */\n      0xffffffffffffffffffffffffffffffffffffffff\n      and\n      0xffffffffffffffffffffffffffffffffffffffff\n      and\n      dup2\n      mstore\n      0x20\n      add\n      swap1\n      dup2\n      mstore\n      0x20\n      add\n      0x00\n      keccak256\n        /* \"CONTRACTS/solmate-main/src/tokens/ERC20.sol\":2551:2581  allowance[msg.sender][spender] */\n      0x00\n        /* \"CONTRACTS/solmate-main/src/tokens/ERC20.sol\":2573:2580  spender */\n      dup6\n        /* \"CONTRACTS/solmate-main/src/tokens/ERC20.sol\":2551:2581  allowance[msg.sender][spender] */\n      0xffffffffffffffffffffffffffffffffffffffff\n      and\n      0xffffffffffffffffffffffffffffffffffffffff\n      and\n      dup2\n      mstore\n      0x20\n      add\n      swap1\n      dup2\n      mstore\n      0x20\n      add\n      0x00\n      keccak256\n        /* \"CONTRACTS/solmate-main/src/tokens/ERC20.sol\":2551:2590  allowance[msg.sender][spender] = amount */\n      dup2\n      swap1\n      sstore\n      pop\n        /* \"CONTRACTS/solmate-main/src/tokens/ERC20.sol\":2627:2634  spender */\n      dup3\n        /* \"CONTRACTS/solmate-main/src/tokens/ERC20.sol\":2606:2643  Approval(msg.sender, spender, amount) */\n      0xffffffffffffffffffffffffffffffffffffffff\n      and\n        /* \"CONTRACTS/solmate-main/src/tokens/ERC20.sol\":2615:2625  msg.sender */\n      caller\n        /* \"CONTRACTS/solmate-main/src/tokens/ERC20.sol\":2606:2643  Approval(msg.sender, spender, amount) */\n      0xffffffffffffffffffffffffffffffffffffffff\n      and\n      0x8c5be1e5ebec7d5bd14f71427d1e84f3dd0314c0f7b2291e5b200ac8c7c3b925\n        /* \"CONTRACTS/solmate-main/src/tokens/ERC20.sol\":2636:2642  amount */\n      dup5\n        /* \"CONTRACTS/solmate-main/src/tokens/ERC20.sol\":2606:2643  Approval(msg.sender, spender, amount) */\n      mload(0x40)\n      tag_80\n      swap2\n      swap1\n      tag_31\n      jump\t// in\n    tag_80:\n      mload(0x40)\n      dup1\n      swap2\n      sub\n      swap1\n      log3\n        /* \"CONTRACTS/solmate-main/src/tokens/ERC20.sol\":2661:2665  true */\n      0x01\n        /* \"CONTRACTS/solmate-main/src/tokens/ERC20.sol\":2654:2665  return true */\n      swap1\n      pop\n        /* \"CONTRACTS/solmate-main/src/tokens/ERC20.sol\":2461:2672  function approve(address spender, uint256 amount) public virtual returns (bool) {... */\n      swap3\n      swap2\n      pop\n      pop\n      jump\t// out\n        /* \"CONTRACTS/solmate-main/src/tokens/ERC20.sol\":1304:1330  uint256 public totalSupply */\n    tag_29:\n      sload(0x02)\n      dup2\n      jump\t// out\n        /* \"CONTRACTS/solmate-main/src/tokens/ERC20.sol\":3057:3649  function transferFrom(... */\n    tag_35:\n        /* \"CONTRACTS/solmate-main/src/tokens/ERC20.sol\":3175:3179  bool */\n      0x00\n        /* \"CONTRACTS/solmate-main/src/tokens/ERC20.sol\":3191:3206  uint256 allowed */\n      dup1\n        /* \"CONTRACTS/solmate-main/src/tokens/ERC20.sol\":3209:3218  allowance */\n      0x04\n        /* \"CONTRACTS/solmate-main/src/tokens/ERC20.sol\":3209:3224  allowance[from] */\n      0x00\n        /* \"CONTRACTS/solmate-main/src/tokens/ERC20.sol\":3219:3223  from */\n      dup7\n        /* \"CONTRACTS/solmate-main/src/tokens/ERC20.sol\":3209:3224  allowance[from] */\n      0xffffffffffffffffffffffffffffffffffffffff\n      and\n      0xffffffffffffffffffffffffffffffffffffffff\n      and\n      dup2\n      mstore\n      0x20\n      add\n      swap1\n      dup2\n      mstore\n      0x20\n      add\n      0x00\n      keccak256\n        /* \"CONTRACTS/solmate-main/src/tokens/ERC20.sol\":3209:3236  allowance[from][msg.sender] */\n      0x00\n        /* \"CONTRACTS/solmate-main/src/tokens/ERC20.sol\":3225:3235  msg.sender */\n      caller\n        /* \"CONTRACTS/solmate-main/src/tokens/ERC20.sol\":3209:3236  allowance[from][msg.sender] */\n      0xffffffffffffffffffffffffffffffffffffffff\n      and\n      0xffffffffffffffffffffffffffffffffffffffff\n      and\n      dup2\n      mstore\n      0x20\n      add\n      swap1\n      dup2\n      mstore\n      0x20\n      add\n      0x00\n      keccak256\n      sload\n        /* \"CONTRACTS/solmate-main/src/tokens/ERC20.sol\":3191:3236  uint256 allowed = allowance[from][msg.sender] */\n      swap1\n      pop\n        /* \"CONTRACTS/solmate-main/src/tokens/ERC20.sol\":3298:3315  type(uint256).max */\n      0xffffffffffffffffffffffffffffffffffffffffffffffffffffffffffffffff\n        /* \"CONTRACTS/solmate-main/src/tokens/ERC20.sol\":3287:3294  allowed */\n      dup2\n        /* \"CONTRACTS/solmate-main/src/tokens/ERC20.sol\":3287:3315  allowed != type(uint256).max */\n      eq\n        /* \"CONTRACTS/solmate-main/src/tokens/ERC20.sol\":3283:3363  if (allowed != type(uint256).max) allowance[from][msg.sender] = allowed - amount */\n      tag_82\n      jumpi\n        /* \"CONTRACTS/solmate-main/src/tokens/ERC20.sol\":3357:3363  amount */\n      dup3\n        /* \"CONTRACTS/solmate-main/src/tokens/ERC20.sol\":3347:3354  allowed */\n      dup2\n        /* \"CONTRACTS/solmate-main/src/tokens/ERC20.sol\":3347:3363  allowed - amount */\n      tag_83\n      swap2\n      swap1\n      tag_84\n      jump\t// in\n    tag_83:\n        /* \"CONTRACTS/solmate-main/src/tokens/ERC20.sol\":3317:3326  allowance */\n      0x04\n        /* \"CONTRACTS/solmate-main/src/tokens/ERC20.sol\":3317:3332  allowance[from] */\n      0x00\n        /* \"CONTRACTS/solmate-main/src/tokens/ERC20.sol\":3327:3331  from */\n      dup8\n        /* \"CONTRACTS/solmate-main/src/tokens/ERC20.sol\":3317:3332  allowance[from] */\n      0xffffffffffffffffffffffffffffffffffffffff\n      and\n      0xffffffffffffffffffffffffffffffffffffffff\n      and\n      dup2\n      mstore\n      0x20\n      add\n      swap1\n      dup2\n      mstore\n      0x20\n      add\n      0x00\n      keccak256\n        /* \"CONTRACTS/solmate-main/src/tokens/ERC20.sol\":3317:3344  allowance[from][msg.sender] */\n      0x00\n        /* \"CONTRACTS/solmate-main/src/tokens/ERC20.sol\":3333:3343  msg.sender */\n      caller\n        /* \"CONTRACTS/solmate-main/src/tokens/ERC20.sol\":3317:3344  allowance[from][msg.sender] */\n      0xffffffffffffffffffffffffffffffffffffffff\n      and\n      0xffffffffffffffffffffffffffffffffffffffff\n      and\n      dup2\n      mstore\n      0x20\n      add\n      swap1\n      dup2\n      mstore\n      0x20\n      add\n      0x00\n      keccak256\n        /* \"CONTRACTS/solmate-main/src/tokens/ERC20.sol\":3317:3363  allowance[from][msg.sender] = allowed - amount */\n      dup2\n      swap1\n      sstore\n      pop\n        /* \"CONTRACTS/solmate-main/src/tokens/ERC20.sol\":3283:3363  if (allowed != type(uint256).max) allowance[from][msg.sender] = allowed - amount */\n    tag_82:\n        /* \"CONTRACTS/solmate-main/src/tokens/ERC20.sol\":3393:3399  amount */\n      dup3\n        /* \"CONTRACTS/solmate-main/src/tokens/ERC20.sol\":3374:3383  balanceOf */\n      0x03\n        /* \"CONTRACTS/solmate-main/src/tokens/ERC20.sol\":3374:3389  balanceOf[from] */\n      0x00\n        /* \"CONTRACTS/solmate-main/src/tokens/ERC20.sol\":3384:3388  from */\n      dup8\n        /* \"CONTRACTS/solmate-main/src/tokens/ERC20.sol\":3374:3389  balanceOf[from] */\n      0xffffffffffffffffffffffffffffffffffffffff\n      and\n      0xffffffffffffffffffffffffffffffffffffffff\n      and\n      dup2\n      mstore\n      0x20\n      add\n      swap1\n      dup2\n      mstore\n      0x20\n      add\n      0x00\n      keccak256\n      0x00\n        /* \"CONTRACTS/solmate-main/src/tokens/ERC20.sol\":3374:3399  balanceOf[from] -= amount */\n      dup3\n      dup3\n      sload\n      tag_85\n      swap2\n      swap1\n      tag_84\n      jump\t// in\n    tag_85:\n      swap3\n      pop\n      pop\n      dup2\n      swap1\n      sstore\n      pop\n        /* \"CONTRACTS/solmate-main/src/tokens/ERC20.sol\":3562:3568  amount */\n      dup3\n        /* \"CONTRACTS/solmate-main/src/tokens/ERC20.sol\":3545:3554  balanceOf */\n      0x03\n        /* \"CONTRACTS/solmate-main/src/tokens/ERC20.sol\":3545:3558  balanceOf[to] */\n      0x00\n        /* \"CONTRACTS/solmate-main/src/tokens/ERC20.sol\":3555:3557  to */\n      dup7\n        /* \"CONTRACTS/solmate-main/src/tokens/ERC20.sol\":3545:3558  balanceOf[to] */\n      0xffffffffffffffffffffffffffffffffffffffff\n      and\n      0xffffffffffffffffffffffffffffffffffffffff\n      and\n      dup2\n      mstore\n      0x20\n      add\n      swap1\n      dup2\n      mstore\n      0x20\n      add\n      0x00\n      keccak256\n      0x00\n        /* \"CONTRACTS/solmate-main/src/tokens/ERC20.sol\":3545:3568  balanceOf[to] += amount */\n      dup3\n      dup3\n      sload\n      add\n      swap3\n      pop\n      pop\n      dup2\n      swap1\n      sstore\n      pop\n        /* \"CONTRACTS/solmate-main/src/tokens/ERC20.sol\":3609:3611  to */\n      dup4\n        /* \"CONTRACTS/solmate-main/src/tokens/ERC20.sol\":3594:3620  Transfer(from, to, amount) */\n      0xffffffffffffffffffffffffffffffffffffffff\n      and\n        /* \"CONTRACTS/solmate-main/src/tokens/ERC20.sol\":3603:3607  from */\n      dup6\n        /* \"CONTRACTS/solmate-main/src/tokens/ERC20.sol\":3594:3620  Transfer(from, to, amount) */\n      0xffffffffffffffffffffffffffffffffffffffff\n      and\n      0xddf252ad1be2c89b69c2b068fc378daa952ba7f163c4a11628f55a4df523b3ef\n        /* \"CONTRACTS/solmate-main/src/tokens/ERC20.sol\":3613:3619  amount */\n      dup6\n        /* \"CONTRACTS/solmate-main/src/tokens/ERC20.sol\":3594:3620  Transfer(from, to, amount) */\n      mload(0x40)\n      tag_86\n      swap2\n      swap1\n      tag_31\n      jump\t// in\n    tag_86:\n      mload(0x40)\n      dup1\n      swap2\n      sub\n      swap1\n      log3\n        /* \"CONTRACTS/solmate-main/src/tokens/ERC20.sol\":3638:3642  true */\n      0x01\n        /* \"CONTRACTS/solmate-main/src/tokens/ERC20.sol\":3631:3642  return true */\n      swap2\n      pop\n      pop\n        /* \"CONTRACTS/solmate-main/src/tokens/ERC20.sol\":3057:3649  function transferFrom(... */\n      swap4\n      swap3\n      pop\n      pop\n      pop\n      jump\t// out\n        /* \"CONTRACTS/solmate-main/src/tokens/ERC20.sol\":1083:1114  uint8 public immutable decimals */\n    tag_38:\n      immutable(\"0xcd41b8bf8f20f7ad95d96d948a315af225b219053fc98a80aee13063b692b681\")\n      dup2\n      jump\t// out\n        /* \"CONTRACTS/solmate-main/src/tokens/ERC20.sol\":5327:5504  function DOMAIN_SEPARATOR() public view virtual returns (bytes32) {... */\n    tag_42:\n        /* \"CONTRACTS/solmate-main/src/tokens/ERC20.sol\":5384:5391  bytes32 */\n      0x00\n        /* \"CONTRACTS/solmate-main/src/tokens/ERC20.sol\":5427:5443  INITIAL_CHAIN_ID */\n      immutable(\"0x35bb2e240092263378f77ea1e9c278099a33b604c4c4e26d13ea227e8bb74470\")\n        /* \"CONTRACTS/solmate-main/src/tokens/ERC20.sol\":5410:5423  block.chainid */\n      chainid\n        /* \"CONTRACTS/solmate-main/src/tokens/ERC20.sol\":5410:5443  block.chainid == INITIAL_CHAIN_ID */\n      eq\n        /* \"CONTRACTS/solmate-main/src/tokens/ERC20.sol\":5410:5497  block.chainid == INITIAL_CHAIN_ID ? INITIAL_DOMAIN_SEPARATOR : computeDomainSeparator() */\n      tag_88\n      jumpi\n        /* \"CONTRACTS/solmate-main/src/tokens/ERC20.sol\":5473:5497  computeDomainSeparator() */\n      tag_89\n        /* \"CONTRACTS/solmate-main/src/tokens/ERC20.sol\":5473:5495  computeDomainSeparator */\n      tag_90\n        /* \"CONTRACTS/solmate-main/src/tokens/ERC20.sol\":5473:5497  computeDomainSeparator() */\n      jump\t// in\n    tag_89:\n        /* \"CONTRACTS/solmate-main/src/tokens/ERC20.sol\":5410:5497  block.chainid == INITIAL_CHAIN_ID ? INITIAL_DOMAIN_SEPARATOR : computeDomainSeparator() */\n      jump(tag_91)\n    tag_88:\n        /* \"CONTRACTS/solmate-main/src/tokens/ERC20.sol\":5446:5470  INITIAL_DOMAIN_SEPARATOR */\n      immutable(\"0xcc143a676b82d5e07b2c9d57717b403ab3c58caa273a42cdb95b15980141a86c\")\n        /* \"CONTRACTS/solmate-main/src/tokens/ERC20.sol\":5410:5497  block.chainid == INITIAL_CHAIN_ID ? INITIAL_DOMAIN_SEPARATOR : computeDomainSeparator() */\n    tag_91:\n        /* \"CONTRACTS/solmate-main/src/tokens/ERC20.sol\":5403:5497  return block.chainid == INITIAL_CHAIN_ID ? INITIAL_DOMAIN_SEPARATOR : computeDomainSeparator() */\n      swap1\n      pop\n        /* \"CONTRACTS/solmate-main/src/tokens/ERC20.sol\":5327:5504  function DOMAIN_SEPARATOR() public view virtual returns (bytes32) {... */\n      swap1\n      jump\t// out\n        /* \"CONTRACTS/Token.sol\":237:323  function mint(address _to, uint _amount) external {... */\n    tag_47:\n        /* \"CONTRACTS/Token.sol\":297:316  _mint(_to, _amount) */\n      tag_93\n        /* \"CONTRACTS/Token.sol\":303:306  _to */\n      dup3\n        /* \"CONTRACTS/Token.sol\":308:315  _amount */\n      dup3\n        /* \"CONTRACTS/Token.sol\":297:302  _mint */\n      tag_94\n        /* \"CONTRACTS/Token.sol\":297:316  _mint(_to, _amount) */\n      jump\t// in\n    tag_93:\n        /* \"CONTRACTS/Token.sol\":237:323  function mint(address _to, uint _amount) external {... */\n      pop\n      pop\n      jump\t// out\n        /* \"CONTRACTS/solmate-main/src/tokens/ERC20.sol\":1337:1381  mapping(address => uint256) public balanceOf */\n    tag_51:\n      mstore(0x20, 0x03)\n      dup1\n      0x00\n      mstore\n      keccak256(0x00, 0x40)\n      0x00\n      swap2\n      pop\n      swap1\n      pop\n      sload\n      dup2\n      jump\t// out\n        /* \"CONTRACTS/solmate-main/src/tokens/ERC20.sol\":1751:1792  mapping(address => uint256) public nonces */\n    tag_55:\n      mstore(0x20, 0x05)\n      dup1\n      0x00\n      mstore\n      keccak256(0x00, 0x40)\n      0x00\n      swap2\n      pop\n      swap1\n      pop\n      sload\n      dup2\n      jump\t// out\n        /* \"CONTRACTS/solmate-main/src/tokens/ERC20.sol\":1056:1076  string public symbol */\n    tag_58:\n      0x01\n      dup1\n      sload\n      tag_95\n      swap1\n      tag_74\n      jump\t// in\n    tag_95:\n      dup1\n      0x1f\n      add\n      0x20\n      dup1\n      swap2\n      div\n      mul\n      0x20\n      add\n      mload(0x40)\n      swap1\n      dup2\n      add\n      0x40\n      mstore\n      dup1\n      swap3\n      swap2\n      swap1\n      dup2\n      dup2\n      mstore\n      0x20\n      add\n      dup3\n      dup1\n      sload\n      tag_96\n      swap1\n      tag_74\n      jump\t// in\n    tag_96:\n      dup1\n      iszero\n      tag_97\n      jumpi\n      dup1\n      0x1f\n      lt\n      tag_98\n      jumpi\n      0x0100\n      dup1\n      dup4\n      sload\n      div\n      mul\n      dup4\n      mstore\n      swap2\n      0x20\n      add\n      swap2\n      jump(tag_97)\n    tag_98:\n      dup3\n      add\n      swap2\n      swap1\n      0x00\n      mstore\n      keccak256(0x00, 0x20)\n      swap1\n    tag_99:\n      dup2\n      sload\n      dup2\n      mstore\n      swap1\n      0x01\n      add\n      swap1\n      0x20\n      add\n      dup1\n      dup4\n      gt\n      tag_99\n      jumpi\n      dup3\n      swap1\n      sub\n      0x1f\n      and\n      dup3\n      add\n      swap2\n    tag_97:\n      pop\n      pop\n      pop\n      pop\n      pop\n      dup2\n      jump\t// out\n        /* \"CONTRACTS/solmate-main/src/tokens/ERC20.sol\":2678:3051  function transfer(address to, uint256 amount) public virtual returns (bool) {... */\n    tag_62:\n        /* \"CONTRACTS/solmate-main/src/tokens/ERC20.sol\":2748:2752  bool */\n      0x00\n        /* \"CONTRACTS/solmate-main/src/tokens/ERC20.sol\":2789:2795  amount */\n      dup2\n        /* \"CONTRACTS/solmate-main/src/tokens/ERC20.sol\":2764:2773  balanceOf */\n      0x03\n        /* \"CONTRACTS/solmate-main/src/tokens/ERC20.sol\":2764:2785  balanceOf[msg.sender] */\n      0x00\n        /* \"CONTRACTS/solmate-main/src/tokens/ERC20.sol\":2774:2784  msg.sender */\n      caller\n        /* \"CONTRACTS/solmate-main/src/tokens/ERC20.sol\":2764:2785  balanceOf[msg.sender] */\n      0xffffffffffffffffffffffffffffffffffffffff\n      and\n      0xffffffffffffffffffffffffffffffffffffffff\n      and\n      dup2\n      mstore\n      0x20\n      add\n      swap1\n      dup2\n      mstore\n      0x20\n      add\n      0x00\n      keccak256\n      0x00\n        /* \"CONTRACTS/solmate-main/src/tokens/ERC20.sol\":2764:2795  balanceOf[msg.sender] -= amount */\n      dup3\n      dup3\n      sload\n      tag_101\n      swap2\n      swap1\n      tag_84\n      jump\t// in\n    tag_101:\n      swap3\n      pop\n      pop\n      dup2\n      swap1\n      sstore\n      pop\n        /* \"CONTRACTS/solmate-main/src/tokens/ERC20.sol\":2958:2964  amount */\n      dup2\n        /* \"CONTRACTS/solmate-main/src/tokens/ERC20.sol\":2941:2950  balanceOf */\n      0x03\n        /* \"CONTRACTS/solmate-main/src/tokens/ERC20.sol\":2941:2954  balanceOf[to] */\n      0x00\n        /* \"CONTRACTS/solmate-main/src/tokens/ERC20.sol\":2951:2953  to */\n      dup6\n        /* \"CONTRACTS/solmate-main/src/tokens/ERC20.sol\":2941:2954  balanceOf[to] */\n      0xffffffffffffffffffffffffffffffffffffffff\n      and\n      0xffffffffffffffffffffffffffffffffffffffff\n      and\n      dup2\n      mstore\n      0x20\n      add\n      swap1\n      dup2\n      mstore\n      0x20\n      add\n      0x00\n      keccak256\n      0x00\n        /* \"CONTRACTS/solmate-main/src/tokens/ERC20.sol\":2941:2964  balanceOf[to] += amount */\n      dup3\n      dup3\n      sload\n      add\n      swap3\n      pop\n      pop\n      dup2\n      swap1\n      sstore\n      pop\n        /* \"CONTRACTS/solmate-main/src/tokens/ERC20.sol\":3011:3013  to */\n      dup3\n        /* \"CONTRACTS/solmate-main/src/tokens/ERC20.sol\":2990:3022  Transfer(msg.sender, to, amount) */\n      0xffffffffffffffffffffffffffffffffffffffff\n      and\n        /* \"CONTRACTS/solmate-main/src/tokens/ERC20.sol\":2999:3009  msg.sender */\n      caller\n        /* \"CONTRACTS/solmate-main/src/tokens/ERC20.sol\":2990:3022  Transfer(msg.sender, to, amount) */\n      0xffffffffffffffffffffffffffffffffffffffff\n      and\n      0xddf252ad1be2c89b69c2b068fc378daa952ba7f163c4a11628f55a4df523b3ef\n        /* \"CONTRACTS/solmate-main/src/tokens/ERC20.sol\":3015:3021  amount */\n      dup5\n        /* \"CONTRACTS/solmate-main/src/tokens/ERC20.sol\":2990:3022  Transfer(msg.sender, to, amount) */\n      mload(0x40)\n      tag_102\n      swap2\n      swap1\n      tag_31\n      jump\t// in\n    tag_102:\n      mload(0x40)\n      dup1\n      swap2\n      sub\n      swap1\n      log3\n        /* \"CONTRACTS/solmate-main/src/tokens/ERC20.sol\":3040:3044  true */\n      0x01\n        /* \"CONTRACTS/solmate-main/src/tokens/ERC20.sol\":3033:3044  return true */\n      swap1\n      pop\n        /* \"CONTRACTS/solmate-main/src/tokens/ERC20.sol\":2678:3051  function transfer(address to, uint256 amount) public virtual returns (bool) {... */\n      swap3\n      swap2\n      pop\n      pop\n      jump\t// out\n        /* \"CONTRACTS/solmate-main/src/tokens/ERC20.sol\":3838:5321  function permit(... */\n    tag_67:\n        /* \"CONTRACTS/solmate-main/src/tokens/ERC20.sol\":4057:4072  block.timestamp */\n      timestamp\n        /* \"CONTRACTS/solmate-main/src/tokens/ERC20.sol\":4045:4053  deadline */\n      dup5\n        /* \"CONTRACTS/solmate-main/src/tokens/ERC20.sol\":4045:4072  deadline >= block.timestamp */\n      lt\n      iszero\n        /* \"CONTRACTS/solmate-main/src/tokens/ERC20.sol\":4037:4100  require(deadline >= block.timestamp, \"PERMIT_DEADLINE_EXPIRED\") */\n      tag_104\n      jumpi\n      mload(0x40)\n      0x08c379a000000000000000000000000000000000000000000000000000000000\n      dup2\n      mstore\n      0x04\n      add\n      tag_105\n      swap1\n      tag_106\n      jump\t// in\n    tag_105:\n      mload(0x40)\n      dup1\n      swap2\n      sub\n      swap1\n      revert\n    tag_104:\n        /* \"CONTRACTS/solmate-main/src/tokens/ERC20.sol\":4265:4289  address recoveredAddress */\n      0x00\n        /* \"CONTRACTS/solmate-main/src/tokens/ERC20.sol\":4292:5097  ecrecover(... */\n      0x01\n        /* \"CONTRACTS/solmate-main/src/tokens/ERC20.sol\":4428:4446  DOMAIN_SEPARATOR() */\n      tag_107\n        /* \"CONTRACTS/solmate-main/src/tokens/ERC20.sol\":4428:4444  DOMAIN_SEPARATOR */\n      tag_42\n        /* \"CONTRACTS/solmate-main/src/tokens/ERC20.sol\":4428:4446  DOMAIN_SEPARATOR() */\n      jump\t// in\n    tag_107:\n        /* \"CONTRACTS/solmate-main/src/tokens/ERC20.sol\":4555:4720  keccak256(... */\n      0x6e71edae12b1b97f4d1f60370fef10105fa2faae0126114a169c64845d6126c9\n        /* \"CONTRACTS/solmate-main/src/tokens/ERC20.sol\":4754:4759  owner */\n      dup11\n        /* \"CONTRACTS/solmate-main/src/tokens/ERC20.sol\":4793:4800  spender */\n      dup11\n        /* \"CONTRACTS/solmate-main/src/tokens/ERC20.sol\":4834:4839  value */\n      dup11\n        /* \"CONTRACTS/solmate-main/src/tokens/ERC20.sol\":4873:4879  nonces */\n      0x05\n        /* \"CONTRACTS/solmate-main/src/tokens/ERC20.sol\":4873:4886  nonces[owner] */\n      0x00\n        /* \"CONTRACTS/solmate-main/src/tokens/ERC20.sol\":4880:4885  owner */\n      dup16\n        /* \"CONTRACTS/solmate-main/src/tokens/ERC20.sol\":4873:4886  nonces[owner] */\n      0xffffffffffffffffffffffffffffffffffffffff\n      and\n      0xffffffffffffffffffffffffffffffffffffffff\n      and\n      dup2\n      mstore\n      0x20\n      add\n      swap1\n      dup2\n      mstore\n      0x20\n      add\n      0x00\n      keccak256\n      0x00\n        /* \"CONTRACTS/solmate-main/src/tokens/ERC20.sol\":4873:4888  nonces[owner]++ */\n      dup2\n      sload\n      dup1\n      swap3\n      swap2\n      swap1\n      0x01\n      add\n      swap2\n      swap1\n      pop\n      sstore\n        /* \"CONTRACTS/solmate-main/src/tokens/ERC20.sol\":4922:4930  deadline */\n      dup12\n        /* \"CONTRACTS/solmate-main/src/tokens/ERC20.sol\":4511:4960  abi.encode(... */\n      add(0x20, mload(0x40))\n      tag_108\n      swap7\n      swap6\n      swap5\n      swap4\n      swap3\n      swap2\n      swap1\n      tag_109\n      jump\t// in\n    tag_108:\n      mload(0x40)\n      0x20\n      dup2\n      dup4\n      sub\n      sub\n      dup2\n      mstore\n      swap1\n      0x40\n      mstore\n        /* \"CONTRACTS/solmate-main/src/tokens/ERC20.sol\":4472:4986  keccak256(... */\n      dup1\n      mload\n      swap1\n      0x20\n      add\n      keccak256\n        /* \"CONTRACTS/solmate-main/src/tokens/ERC20.sol\":4350:5008  abi.encodePacked(... */\n      add(0x20, mload(0x40))\n      tag_110\n      swap3\n      swap2\n      swap1\n      tag_111\n      jump\t// in\n    tag_110:\n      mload(0x40)\n      0x20\n      dup2\n      dup4\n      sub\n      sub\n      dup2\n      mstore\n      swap1\n      0x40\n      mstore\n        /* \"CONTRACTS/solmate-main/src/tokens/ERC20.sol\":4319:5026  keccak256(... */\n      dup1\n      mload\n      swap1\n      0x20\n      add\n      keccak256\n        /* \"CONTRACTS/solmate-main/src/tokens/ERC20.sol\":5044:5045  v */\n      dup6\n        /* \"CONTRACTS/solmate-main/src/tokens/ERC20.sol\":5063:5064  r */\n      dup6\n        /* \"CONTRACTS/solmate-main/src/tokens/ERC20.sol\":5082:5083  s */\n      dup6\n        /* \"CONTRACTS/solmate-main/src/tokens/ERC20.sol\":4292:5097  ecrecover(... */\n      mload(0x40)\n      0x00\n      dup2\n      mstore\n      0x20\n      add\n      0x40\n      mstore\n      mload(0x40)\n      tag_112\n      swap5\n      swap4\n      swap3\n      swap2\n      swap1\n      tag_113\n      jump\t// in\n    tag_112:\n      0x20\n      mload(0x40)\n      0x20\n      dup2\n      sub\n      swap1\n      dup1\n      dup5\n      sub\n      swap1\n      dup6\n      gas\n      staticcall\n      iszero\n      dup1\n      iszero\n      tag_115\n      jumpi\n      returndatasize\n      0x00\n      dup1\n      returndatacopy\n      revert(0x00, returndatasize)\n    tag_115:\n      pop\n      pop\n      pop\n      mload(sub(mload(0x40), 0x20))\n        /* \"CONTRACTS/solmate-main/src/tokens/ERC20.sol\":4265:5097  address recoveredAddress = ecrecover(... */\n      swap1\n      pop\n        /* \"CONTRACTS/solmate-main/src/tokens/ERC20.sol\":5148:5149  0 */\n      0x00\n        /* \"CONTRACTS/solmate-main/src/tokens/ERC20.sol\":5120:5150  recoveredAddress != address(0) */\n      0xffffffffffffffffffffffffffffffffffffffff\n      and\n        /* \"CONTRACTS/solmate-main/src/tokens/ERC20.sol\":5120:5136  recoveredAddress */\n      dup2\n        /* \"CONTRACTS/solmate-main/src/tokens/ERC20.sol\":5120:5150  recoveredAddress != address(0) */\n      0xffffffffffffffffffffffffffffffffffffffff\n      and\n      eq\n      iszero\n        /* \"CONTRACTS/solmate-main/src/tokens/ERC20.sol\":5120:5179  recoveredAddress != address(0) && recoveredAddress == owner */\n      dup1\n      iszero\n      tag_116\n      jumpi\n      pop\n        /* \"CONTRACTS/solmate-main/src/tokens/ERC20.sol\":5174:5179  owner */\n      dup8\n        /* \"CONTRACTS/solmate-main/src/tokens/ERC20.sol\":5154:5179  recoveredAddress == owner */\n      0xffffffffffffffffffffffffffffffffffffffff\n      and\n        /* \"CONTRACTS/solmate-main/src/tokens/ERC20.sol\":5154:5170  recoveredAddress */\n      dup2\n        /* \"CONTRACTS/solmate-main/src/tokens/ERC20.sol\":5154:5179  recoveredAddress == owner */\n      0xffffffffffffffffffffffffffffffffffffffff\n      and\n      eq\n        /* \"CONTRACTS/solmate-main/src/tokens/ERC20.sol\":5120:5179  recoveredAddress != address(0) && recoveredAddress == owner */\n    tag_116:\n        /* \"CONTRACTS/solmate-main/src/tokens/ERC20.sol\":5112:5198  require(recoveredAddress != address(0) && recoveredAddress == owner, \"INVALID_SIGNER\") */\n      tag_117\n      jumpi\n      mload(0x40)\n      0x08c379a000000000000000000000000000000000000000000000000000000000\n      dup2\n      mstore\n      0x04\n      add\n      tag_118\n      swap1\n      tag_119\n      jump\t// in\n    tag_118:\n      mload(0x40)\n      dup1\n      swap2\n      sub\n      swap1\n      revert\n    tag_117:\n        /* \"CONTRACTS/solmate-main/src/tokens/ERC20.sol\":5252:5257  value */\n      dup6\n        /* \"CONTRACTS/solmate-main/src/tokens/ERC20.sol\":5213:5222  allowance */\n      0x04\n        /* \"CONTRACTS/solmate-main/src/tokens/ERC20.sol\":5213:5240  allowance[recoveredAddress] */\n      0x00\n        /* \"CONTRACTS/solmate-main/src/tokens/ERC20.sol\":5223:5239  recoveredAddress */\n      dup4\n        /* \"CONTRACTS/solmate-main/src/tokens/ERC20.sol\":5213:5240  allowance[recoveredAddress] */\n      0xffffffffffffffffffffffffffffffffffffffff\n      and\n      0xffffffffffffffffffffffffffffffffffffffff\n      and\n      dup2\n      mstore\n      0x20\n      add\n      swap1\n      dup2\n      mstore\n      0x20\n      add\n      0x00\n      keccak256\n        /* \"CONTRACTS/solmate-main/src/tokens/ERC20.sol\":5213:5249  allowance[recoveredAddress][spender] */\n      0x00\n        /* \"CONTRACTS/solmate-main/src/tokens/ERC20.sol\":5241:5248  spender */\n      dup10\n        /* \"CONTRACTS/solmate-main/src/tokens/ERC20.sol\":5213:5249  allowance[recoveredAddress][spender] */\n      0xffffffffffffffffffffffffffffffffffffffff\n      and\n      0xffffffffffffffffffffffffffffffffffffffff\n      and\n      dup2\n      mstore\n      0x20\n      add\n      swap1\n      dup2\n      mstore\n      0x20\n      add\n      0x00\n      keccak256\n        /* \"CONTRACTS/solmate-main/src/tokens/ERC20.sol\":5213:5257  allowance[recoveredAddress][spender] = value */\n      dup2\n      swap1\n      sstore\n      pop\n        /* \"CONTRACTS/solmate-main/src/tokens/ERC20.sol\":4241:5268  unchecked {... */\n      pop\n        /* \"CONTRACTS/solmate-main/src/tokens/ERC20.sol\":5299:5306  spender */\n      dup6\n        /* \"CONTRACTS/solmate-main/src/tokens/ERC20.sol\":5283:5314  Approval(owner, spender, value) */\n      0xffffffffffffffffffffffffffffffffffffffff\n      and\n        /* \"CONTRACTS/solmate-main/src/tokens/ERC20.sol\":5292:5297  owner */\n      dup8\n        /* \"CONTRACTS/solmate-main/src/tokens/ERC20.sol\":5283:5314  Approval(owner, spender, value) */\n      0xffffffffffffffffffffffffffffffffffffffff\n      and\n      0x8c5be1e5ebec7d5bd14f71427d1e84f3dd0314c0f7b2291e5b200ac8c7c3b925\n        /* \"CONTRACTS/solmate-main/src/tokens/ERC20.sol\":5308:5313  value */\n      dup8\n        /* \"CONTRACTS/solmate-main/src/tokens/ERC20.sol\":5283:5314  Approval(owner, spender, value) */\n      mload(0x40)\n      tag_120\n      swap2\n      swap1\n      tag_31\n      jump\t// in\n    tag_120:\n      mload(0x40)\n      dup1\n      swap2\n      sub\n      swap1\n      log3\n        /* \"CONTRACTS/solmate-main/src/tokens/ERC20.sol\":3838:5321  function permit(... */\n      pop\n      pop\n      pop\n      pop\n      pop\n      pop\n      pop\n      jump\t// out\n        /* \"CONTRACTS/solmate-main/src/tokens/ERC20.sol\":1388:1452  mapping(address => mapping(address => uint256)) public allowance */\n    tag_71:\n      mstore(0x20, 0x04)\n      dup2\n      0x00\n      mstore\n      mstore(0x20, keccak256(0x00, 0x40))\n      dup1\n      0x00\n      mstore\n      keccak256(0x00, 0x40)\n      0x00\n      swap2\n      pop\n      swap2\n      pop\n      pop\n      sload\n      dup2\n      jump\t// out\n        /* \"CONTRACTS/solmate-main/src/tokens/ERC20.sol\":5510:5956  function computeDomainSeparator() internal view virtual returns (bytes32) {... */\n    tag_90:\n        /* \"CONTRACTS/solmate-main/src/tokens/ERC20.sol\":5575:5582  bytes32 */\n      0x00\n        /* \"CONTRACTS/solmate-main/src/tokens/ERC20.sol\":5672:5767  keccak256(\"EIP712Domain(string name,string version,uint256 chainId,address verifyingContract)\") */\n      0x8b73c3c69bb8fe3d512ecc4cf759cc79239f7b179b0ffacaa9a75d522b39400f\n        /* \"CONTRACTS/solmate-main/src/tokens/ERC20.sol\":5805:5809  name */\n      0x00\n        /* \"CONTRACTS/solmate-main/src/tokens/ERC20.sol\":5789:5811  keccak256(bytes(name)) */\n      mload(0x40)\n      tag_122\n      swap2\n      swap1\n      tag_123\n      jump\t// in\n    tag_122:\n      mload(0x40)\n      dup1\n      swap2\n      sub\n      swap1\n      keccak256\n        /* \"CONTRACTS/solmate-main/src/tokens/ERC20.sol\":5833:5847  keccak256(\"1\") */\n      0xc89efdaa54c0f20c7adf612882df0950f5a951637e0307cdcb4c672f298b8bc6\n        /* \"CONTRACTS/solmate-main/src/tokens/ERC20.sol\":5869:5882  block.chainid */\n      chainid\n        /* \"CONTRACTS/solmate-main/src/tokens/ERC20.sol\":5912:5916  this */\n      address\n        /* \"CONTRACTS/solmate-main/src/tokens/ERC20.sol\":5640:5935  abi.encode(... */\n      add(0x20, mload(0x40))\n      tag_124\n      swap6\n      swap5\n      swap4\n      swap3\n      swap2\n      swap1\n      tag_125\n      jump\t// in\n    tag_124:\n      mload(0x40)\n      0x20\n      dup2\n      dup4\n      sub\n      sub\n      dup2\n      mstore\n      swap1\n      0x40\n      mstore\n        /* \"CONTRACTS/solmate-main/src/tokens/ERC20.sol\":5613:5949  keccak256(... */\n      dup1\n      mload\n      swap1\n      0x20\n      add\n      keccak256\n        /* \"CONTRACTS/solmate-main/src/tokens/ERC20.sol\":5594:5949  return... */\n      swap1\n      pop\n        /* \"CONTRACTS/solmate-main/src/tokens/ERC20.sol\":5510:5956  function computeDomainSeparator() internal view virtual returns (bytes32) {... */\n      swap1\n      jump\t// out\n        /* \"CONTRACTS/solmate-main/src/tokens/ERC20.sol\":6150:6475  function _mint(address to, uint256 amount) internal virtual {... */\n    tag_94:\n        /* \"CONTRACTS/solmate-main/src/tokens/ERC20.sol\":6235:6241  amount */\n      dup1\n        /* \"CONTRACTS/solmate-main/src/tokens/ERC20.sol\":6220:6231  totalSupply */\n      0x02\n      0x00\n        /* \"CONTRACTS/solmate-main/src/tokens/ERC20.sol\":6220:6241  totalSupply += amount */\n      dup3\n      dup3\n      sload\n      tag_127\n      swap2\n      swap1\n      tag_128\n      jump\t// in\n    tag_127:\n      swap3\n      pop\n      pop\n      dup2\n      swap1\n      sstore\n      pop\n        /* \"CONTRACTS/solmate-main/src/tokens/ERC20.sol\":6404:6410  amount */\n      dup1\n        /* \"CONTRACTS/solmate-main/src/tokens/ERC20.sol\":6387:6396  balanceOf */\n      0x03\n        /* \"CONTRACTS/solmate-main/src/tokens/ERC20.sol\":6387:6400  balanceOf[to] */\n      0x00\n        /* \"CONTRACTS/solmate-main/src/tokens/ERC20.sol\":6397:6399  to */\n      dup5\n        /* \"CONTRACTS/solmate-main/src/tokens/ERC20.sol\":6387:6400  balanceOf[to] */\n      0xffffffffffffffffffffffffffffffffffffffff\n      and\n      0xffffffffffffffffffffffffffffffffffffffff\n      and\n      dup2\n      mstore\n      0x20\n      add\n      swap1\n      dup2\n      mstore\n      0x20\n      add\n      0x00\n      keccak256\n      0x00\n        /* \"CONTRACTS/solmate-main/src/tokens/ERC20.sol\":6387:6410  balanceOf[to] += amount */\n      dup3\n      dup3\n      sload\n      add\n      swap3\n      pop\n      pop\n      dup2\n      swap1\n      sstore\n      pop\n        /* \"CONTRACTS/solmate-main/src/tokens/ERC20.sol\":6457:6459  to */\n      dup2\n        /* \"CONTRACTS/solmate-main/src/tokens/ERC20.sol\":6436:6468  Transfer(address(0), to, amount) */\n      0xffffffffffffffffffffffffffffffffffffffff\n      and\n        /* \"CONTRACTS/solmate-main/src/tokens/ERC20.sol\":6453:6454  0 */\n      0x00\n        /* \"CONTRACTS/solmate-main/src/tokens/ERC20.sol\":6436:6468  Transfer(address(0), to, amount) */\n      0xffffffffffffffffffffffffffffffffffffffff\n      and\n      0xddf252ad1be2c89b69c2b068fc378daa952ba7f163c4a11628f55a4df523b3ef\n        /* \"CONTRACTS/solmate-main/src/tokens/ERC20.sol\":6461:6467  amount */\n      dup4\n        /* \"CONTRACTS/solmate-main/src/tokens/ERC20.sol\":6436:6468  Transfer(address(0), to, amount) */\n      mload(0x40)\n      tag_129\n      swap2\n      swap1\n      tag_31\n      jump\t// in\n    tag_129:\n      mload(0x40)\n      dup1\n      swap2\n      sub\n      swap1\n      log3\n        /* \"CONTRACTS/solmate-main/src/tokens/ERC20.sol\":6150:6475  function _mint(address to, uint256 amount) internal virtual {... */\n      pop\n      pop\n      jump\t// out\n        /* \"#utility.yul\":7:146   */\n    tag_131:\n        /* \"#utility.yul\":53:58   */\n      0x00\n        /* \"#utility.yul\":91:97   */\n      dup2\n        /* \"#utility.yul\":78:98   */\n      calldataload\n        /* \"#utility.yul\":69:98   */\n      swap1\n      pop\n        /* \"#utility.yul\":107:140   */\n      tag_133\n        /* \"#utility.yul\":134:139   */\n      dup2\n        /* \"#utility.yul\":107:140   */\n      tag_134\n      jump\t// in\n    tag_133:\n        /* \"#utility.yul\":7:146   */\n      swap3\n      swap2\n      pop\n      pop\n      jump\t// out\n        /* \"#utility.yul\":152:291   */\n    tag_135:\n        /* \"#utility.yul\":198:203   */\n      0x00\n        /* \"#utility.yul\":236:242   */\n      dup2\n        /* \"#utility.yul\":223:243   */\n      calldataload\n        /* \"#utility.yul\":214:243   */\n      swap1\n      pop\n        /* \"#utility.yul\":252:285   */\n      tag_137\n        /* \"#utility.yul\":279:284   */\n      dup2\n        /* \"#utility.yul\":252:285   */\n      tag_138\n      jump\t// in\n    tag_137:\n        /* \"#utility.yul\":152:291   */\n      swap3\n      swap2\n      pop\n      pop\n      jump\t// out\n        /* \"#utility.yul\":297:436   */\n    tag_139:\n        /* \"#utility.yul\":343:348   */\n      0x00\n        /* \"#utility.yul\":381:387   */\n      dup2\n        /* \"#utility.yul\":368:388   */\n      calldataload\n        /* \"#utility.yul\":359:388   */\n      swap1\n      pop\n        /* \"#utility.yul\":397:430   */\n      tag_141\n        /* \"#utility.yul\":424:429   */\n      dup2\n        /* \"#utility.yul\":397:430   */\n      tag_142\n      jump\t// in\n    tag_141:\n        /* \"#utility.yul\":297:436   */\n      swap3\n      swap2\n      pop\n      pop\n      jump\t// out\n        /* \"#utility.yul\":442:577   */\n    tag_143:\n        /* \"#utility.yul\":486:491   */\n      0x00\n        /* \"#utility.yul\":524:530   */\n      dup2\n        /* \"#utility.yul\":511:531   */\n      calldataload\n        /* \"#utility.yul\":502:531   */\n      swap1\n      pop\n        /* \"#utility.yul\":540:571   */\n      tag_145\n        /* \"#utility.yul\":565:570   */\n      dup2\n        /* \"#utility.yul\":540:571   */\n      tag_146\n      jump\t// in\n    tag_145:\n        /* \"#utility.yul\":442:577   */\n      swap3\n      swap2\n      pop\n      pop\n      jump\t// out\n        /* \"#utility.yul\":583:912   */\n    tag_50:\n        /* \"#utility.yul\":642:648   */\n      0x00\n        /* \"#utility.yul\":691:693   */\n      0x20\n        /* \"#utility.yul\":679:688   */\n      dup3\n        /* \"#utility.yul\":670:677   */\n      dup5\n        /* \"#utility.yul\":666:689   */\n      sub\n        /* \"#utility.yul\":662:694   */\n      slt\n        /* \"#utility.yul\":659:778   */\n      iszero\n      tag_148\n      jumpi\n        /* \"#utility.yul\":697:776   */\n      tag_149\n      tag_150\n      jump\t// in\n    tag_149:\n        /* \"#utility.yul\":659:778   */\n    tag_148:\n        /* \"#utility.yul\":817:818   */\n      0x00\n        /* \"#utility.yul\":842:895   */\n      tag_151\n        /* \"#utility.yul\":887:894   */\n      dup5\n        /* \"#utility.yul\":878:884   */\n      dup3\n        /* \"#utility.yul\":867:876   */\n      dup6\n        /* \"#utility.yul\":863:885   */\n      add\n        /* \"#utility.yul\":842:895   */\n      tag_131\n      jump\t// in\n    tag_151:\n        /* \"#utility.yul\":832:895   */\n      swap2\n      pop\n        /* \"#utility.yul\":788:905   */\n      pop\n        /* \"#utility.yul\":583:912   */\n      swap3\n      swap2\n      pop\n      pop\n      jump\t// out\n        /* \"#utility.yul\":918:1392   */\n    tag_70:\n        /* \"#utility.yul\":986:992   */\n      0x00\n        /* \"#utility.yul\":994:1000   */\n      dup1\n        /* \"#utility.yul\":1043:1045   */\n      0x40\n        /* \"#utility.yul\":1031:1040   */\n      dup4\n        /* \"#utility.yul\":1022:1029   */\n      dup6\n        /* \"#utility.yul\":1018:1041   */\n      sub\n        /* \"#utility.yul\":1014:1046   */\n      slt\n        /* \"#utility.yul\":1011:1130   */\n      iszero\n      tag_153\n      jumpi\n        /* \"#utility.yul\":1049:1128   */\n      tag_154\n      tag_150\n      jump\t// in\n    tag_154:\n        /* \"#utility.yul\":1011:1130   */\n    tag_153:\n        /* \"#utility.yul\":1169:1170   */\n      0x00\n        /* \"#utility.yul\":1194:1247   */\n      tag_155\n        /* \"#utility.yul\":1239:1246   */\n      dup6\n        /* \"#utility.yul\":1230:1236   */\n      dup3\n        /* \"#utility.yul\":1219:1228   */\n      dup7\n        /* \"#utility.yul\":1215:1237   */\n      add\n        /* \"#utility.yul\":1194:1247   */\n      tag_131\n      jump\t// in\n    tag_155:\n        /* \"#utility.yul\":1184:1247   */\n      swap3\n      pop\n        /* \"#utility.yul\":1140:1257   */\n      pop\n        /* \"#utility.yul\":1296:1298   */\n      0x20\n        /* \"#utility.yul\":1322:1375   */\n      tag_156\n        /* \"#utility.yul\":1367:1374   */\n      dup6\n        /* \"#utility.yul\":1358:1364   */\n      dup3\n        /* \"#utility.yul\":1347:1356   */\n      dup7\n        /* \"#utility.yul\":1343:1365   */\n      add\n        /* \"#utility.yul\":1322:1375   */\n      tag_131\n      jump\t// in\n    tag_156:\n        /* \"#utility.yul\":1312:1375   */\n      swap2\n      pop\n        /* \"#utility.yul\":1267:1385   */\n      pop\n        /* \"#utility.yul\":918:1392   */\n      swap3\n      pop\n      swap3\n      swap1\n      pop\n      jump\t// out\n        /* \"#utility.yul\":1398:2017   */\n    tag_34:\n        /* \"#utility.yul\":1475:1481   */\n      0x00\n        /* \"#utility.yul\":1483:1489   */\n      dup1\n        /* \"#utility.yul\":1491:1497   */\n      0x00\n        /* \"#utility.yul\":1540:1542   */\n      0x60\n        /* \"#utility.yul\":1528:1537   */\n      dup5\n        /* \"#utility.yul\":1519:1526   */\n      dup7\n        /* \"#utility.yul\":1515:1538   */\n      sub\n        /* \"#utility.yul\":1511:1543   */\n      slt\n        /* \"#utility.yul\":1508:1627   */\n      iszero\n      tag_158\n      jumpi\n        /* \"#utility.yul\":1546:1625   */\n      tag_159\n      tag_150\n      jump\t// in\n    tag_159:\n        /* \"#utility.yul\":1508:1627   */\n    tag_158:\n        /* \"#utility.yul\":1666:1667   */\n      0x00\n        /* \"#utility.yul\":1691:1744   */\n      tag_160\n        /* \"#utility.yul\":1736:1743   */\n      dup7\n        /* \"#utility.yul\":1727:1733   */\n      dup3\n        /* \"#utility.yul\":1716:1725   */\n      dup8\n        /* \"#utility.yul\":1712:1734   */\n      add\n        /* \"#utility.yul\":1691:1744   */\n      tag_131\n      jump\t// in\n    tag_160:\n        /* \"#utility.yul\":1681:1744   */\n      swap4\n      pop\n        /* \"#utility.yul\":1637:1754   */\n      pop\n        /* \"#utility.yul\":1793:1795   */\n      0x20\n        /* \"#utility.yul\":1819:1872   */\n      tag_161\n        /* \"#utility.yul\":1864:1871   */\n      dup7\n        /* \"#utility.yul\":1855:1861   */\n      dup3\n        /* \"#utility.yul\":1844:1853   */\n      dup8\n        /* \"#utility.yul\":1840:1862   */\n      add\n        /* \"#utility.yul\":1819:1872   */\n      tag_131\n      jump\t// in\n    tag_161:\n        /* \"#utility.yul\":1809:1872   */\n      swap3\n      pop\n        /* \"#utility.yul\":1764:1882   */\n      pop\n        /* \"#utility.yul\":1921:1923   */\n      0x40\n        /* \"#utility.yul\":1947:2000   */\n      tag_162\n        /* \"#utility.yul\":1992:1999   */\n      dup7\n        /* \"#utility.yul\":1983:1989   */\n      dup3\n        /* \"#utility.yul\":1972:1981   */\n      dup8\n        /* \"#utility.yul\":1968:1990   */\n      add\n        /* \"#utility.yul\":1947:2000   */\n      tag_139\n      jump\t// in\n    tag_162:\n        /* \"#utility.yul\":1937:2000   */\n      swap2\n      pop\n        /* \"#utility.yul\":1892:2010   */\n      pop\n        /* \"#utility.yul\":1398:2017   */\n      swap3\n      pop\n      swap3\n      pop\n      swap3\n      jump\t// out\n        /* \"#utility.yul\":2023:3222   */\n    tag_66:\n        /* \"#utility.yul\":2134:2140   */\n      0x00\n        /* \"#utility.yul\":2142:2148   */\n      dup1\n        /* \"#utility.yul\":2150:2156   */\n      0x00\n        /* \"#utility.yul\":2158:2164   */\n      dup1\n        /* \"#utility.yul\":2166:2172   */\n      0x00\n        /* \"#utility.yul\":2174:2180   */\n      dup1\n        /* \"#utility.yul\":2182:2188   */\n      0x00\n        /* \"#utility.yul\":2231:2234   */\n      0xe0\n        /* \"#utility.yul\":2219:2228   */\n      dup9\n        /* \"#utility.yul\":2210:2217   */\n      dup11\n        /* \"#utility.yul\":2206:2229   */\n      sub\n        /* \"#utility.yul\":2202:2235   */\n      slt\n        /* \"#utility.yul\":2199:2319   */\n      iszero\n      tag_164\n      jumpi\n        /* \"#utility.yul\":2238:2317   */\n      tag_165\n      tag_150\n      jump\t// in\n    tag_165:\n        /* \"#utility.yul\":2199:2319   */\n    tag_164:\n        /* \"#utility.yul\":2358:2359   */\n      0x00\n        /* \"#utility.yul\":2383:2436   */\n      tag_166\n        /* \"#utility.yul\":2428:2435   */\n      dup11\n        /* \"#utility.yul\":2419:2425   */\n      dup3\n        /* \"#utility.yul\":2408:2417   */\n      dup12\n        /* \"#utility.yul\":2404:2426   */\n      add\n        /* \"#utility.yul\":2383:2436   */\n      tag_131\n      jump\t// in\n    tag_166:\n        /* \"#utility.yul\":2373:2436   */\n      swap8\n      pop\n        /* \"#utility.yul\":2329:2446   */\n      pop\n        /* \"#utility.yul\":2485:2487   */\n      0x20\n        /* \"#utility.yul\":2511:2564   */\n      tag_167\n        /* \"#utility.yul\":2556:2563   */\n      dup11\n        /* \"#utility.yul\":2547:2553   */\n      dup3\n        /* \"#utility.yul\":2536:2545   */\n      dup12\n        /* \"#utility.yul\":2532:2554   */\n      add\n        /* \"#utility.yul\":2511:2564   */\n      tag_131\n      jump\t// in\n    tag_167:\n        /* \"#utility.yul\":2501:2564   */\n      swap7\n      pop\n        /* \"#utility.yul\":2456:2574   */\n      pop\n        /* \"#utility.yul\":2613:2615   */\n      0x40\n        /* \"#utility.yul\":2639:2692   */\n      tag_168\n        /* \"#utility.yul\":2684:2691   */\n      dup11\n        /* \"#utility.yul\":2675:2681   */\n      dup3\n        /* \"#utility.yul\":2664:2673   */\n      dup12\n        /* \"#utility.yul\":2660:2682   */\n      add\n        /* \"#utility.yul\":2639:2692   */\n      tag_139\n      jump\t// in\n    tag_168:\n        /* \"#utility.yul\":2629:2692   */\n      swap6\n      pop\n        /* \"#utility.yul\":2584:2702   */\n      pop\n        /* \"#utility.yul\":2741:2743   */\n      0x60\n        /* \"#utility.yul\":2767:2820   */\n      tag_169\n        /* \"#utility.yul\":2812:2819   */\n      dup11\n        /* \"#utility.yul\":2803:2809   */\n      dup3\n        /* \"#utility.yul\":2792:2801   */\n      dup12\n        /* \"#utility.yul\":2788:2810   */\n      add\n        /* \"#utility.yul\":2767:2820   */\n      tag_139\n      jump\t// in\n    tag_169:\n        /* \"#utility.yul\":2757:2820   */\n      swap5\n      pop\n        /* \"#utility.yul\":2712:2830   */\n      pop\n        /* \"#utility.yul\":2869:2872   */\n      0x80\n        /* \"#utility.yul\":2896:2947   */\n      tag_170\n        /* \"#utility.yul\":2939:2946   */\n      dup11\n        /* \"#utility.yul\":2930:2936   */\n      dup3\n        /* \"#utility.yul\":2919:2928   */\n      dup12\n        /* \"#utility.yul\":2915:2937   */\n      add\n        /* \"#utility.yul\":2896:2947   */\n      tag_143\n      jump\t// in\n    tag_170:\n        /* \"#utility.yul\":2886:2947   */\n      swap4\n      pop\n        /* \"#utility.yul\":2840:2957   */\n      pop\n        /* \"#utility.yul\":2996:2999   */\n      0xa0\n        /* \"#utility.yul\":3023:3076   */\n      tag_171\n        /* \"#utility.yul\":3068:3075   */\n      dup11\n        /* \"#utility.yul\":3059:3065   */\n      dup3\n        /* \"#utility.yul\":3048:3057   */\n      dup12\n        /* \"#utility.yul\":3044:3066   */\n      add\n        /* \"#utility.yul\":3023:3076   */\n      tag_135\n      jump\t// in\n    tag_171:\n        /* \"#utility.yul\":3013:3076   */\n      swap3\n      pop\n        /* \"#utility.yul\":2967:3086   */\n      pop\n        /* \"#utility.yul\":3125:3128   */\n      0xc0\n        /* \"#utility.yul\":3152:3205   */\n      tag_172\n        /* \"#utility.yul\":3197:3204   */\n      dup11\n        /* \"#utility.yul\":3188:3194   */\n      dup3\n        /* \"#utility.yul\":3177:3186   */\n      dup12\n        /* \"#utility.yul\":3173:3195   */\n      add\n        /* \"#utility.yul\":3152:3205   */\n      tag_135\n      jump\t// in\n    tag_172:\n        /* \"#utility.yul\":3142:3205   */\n      swap2\n      pop\n        /* \"#utility.yul\":3096:3215   */\n      pop\n        /* \"#utility.yul\":2023:3222   */\n      swap3\n      swap6\n      swap9\n      swap2\n      swap5\n      swap8\n      pop\n      swap3\n      swap6\n      pop\n      jump\t// out\n        /* \"#utility.yul\":3228:3702   */\n    tag_24:\n        /* \"#utility.yul\":3296:3302   */\n      0x00\n        /* \"#utility.yul\":3304:3310   */\n      dup1\n        /* \"#utility.yul\":3353:3355   */\n      0x40\n        /* \"#utility.yul\":3341:3350   */\n      dup4\n        /* \"#utility.yul\":3332:3339   */\n      dup6\n        /* \"#utility.yul\":3328:3351   */\n      sub\n        /* \"#utility.yul\":3324:3356   */\n      slt\n        /* \"#utility.yul\":3321:3440   */\n      iszero\n      tag_174\n      jumpi\n        /* \"#utility.yul\":3359:3438   */\n      tag_175\n      tag_150\n      jump\t// in\n    tag_175:\n        /* \"#utility.yul\":3321:3440   */\n    tag_174:\n        /* \"#utility.yul\":3479:3480   */\n      0x00\n        /* \"#utility.yul\":3504:3557   */\n      tag_176\n        /* \"#utility.yul\":3549:3556   */\n      dup6\n        /* \"#utility.yul\":3540:3546   */\n      dup3\n        /* \"#utility.yul\":3529:3538   */\n      dup7\n        /* \"#utility.yul\":3525:3547   */\n      add\n        /* \"#utility.yul\":3504:3557   */\n      tag_131\n      jump\t// in\n    tag_176:\n        /* \"#utility.yul\":3494:3557   */\n      swap3\n      pop\n        /* \"#utility.yul\":3450:3567   */\n      pop\n        /* \"#utility.yul\":3606:3608   */\n      0x20\n        /* \"#utility.yul\":3632:3685   */\n      tag_177\n        /* \"#utility.yul\":3677:3684   */\n      dup6\n        /* \"#utility.yul\":3668:3674   */\n      dup3\n        /* \"#utility.yul\":3657:3666   */\n      dup7\n        /* \"#utility.yul\":3653:3675   */\n      add\n        /* \"#utility.yul\":3632:3685   */\n      tag_139\n      jump\t// in\n    tag_177:\n        /* \"#utility.yul\":3622:3685   */\n      swap2\n      pop\n        /* \"#utility.yul\":3577:3695   */\n      pop\n        /* \"#utility.yul\":3228:3702   */\n      swap3\n      pop\n      swap3\n      swap1\n      pop\n      jump\t// out\n        /* \"#utility.yul\":3708:3826   */\n    tag_178:\n        /* \"#utility.yul\":3795:3819   */\n      tag_180\n        /* \"#utility.yul\":3813:3818   */\n      dup2\n        /* \"#utility.yul\":3795:3819   */\n      tag_181\n      jump\t// in\n    tag_180:\n        /* \"#utility.yul\":3790:3793   */\n      dup3\n        /* \"#utility.yul\":3783:3820   */\n      mstore\n        /* \"#utility.yul\":3708:3826   */\n      pop\n      pop\n      jump\t// out\n        /* \"#utility.yul\":3832:3941   */\n    tag_182:\n        /* \"#utility.yul\":3913:3934   */\n      tag_184\n        /* \"#utility.yul\":3928:3933   */\n      dup2\n        /* \"#utility.yul\":3913:3934   */\n      tag_185\n      jump\t// in\n    tag_184:\n        /* \"#utility.yul\":3908:3911   */\n      dup3\n        /* \"#utility.yul\":3901:3935   */\n      mstore\n        /* \"#utility.yul\":3832:3941   */\n      pop\n      pop\n      jump\t// out\n        /* \"#utility.yul\":3947:4065   */\n    tag_186:\n        /* \"#utility.yul\":4034:4058   */\n      tag_188\n        /* \"#utility.yul\":4052:4057   */\n      dup2\n        /* \"#utility.yul\":4034:4058   */\n      tag_189\n      jump\t// in\n    tag_188:\n        /* \"#utility.yul\":4029:4032   */\n      dup3\n        /* \"#utility.yul\":4022:4059   */\n      mstore\n        /* \"#utility.yul\":3947:4065   */\n      pop\n      pop\n      jump\t// out\n        /* \"#utility.yul\":4071:4228   */\n    tag_190:\n        /* \"#utility.yul\":4176:4221   */\n      tag_192\n        /* \"#utility.yul\":4196:4220   */\n      tag_193\n        /* \"#utility.yul\":4214:4219   */\n      dup3\n        /* \"#utility.yul\":4196:4220   */\n      tag_189\n      jump\t// in\n    tag_193:\n        /* \"#utility.yul\":4176:4221   */\n      tag_194\n      jump\t// in\n    tag_192:\n        /* \"#utility.yul\":4171:4174   */\n      dup3\n        /* \"#utility.yul\":4164:4222   */\n      mstore\n        /* \"#utility.yul\":4071:4228   */\n      pop\n      pop\n      jump\t// out\n        /* \"#utility.yul\":4256:5105   */\n    tag_195:\n        /* \"#utility.yul\":4361:4364   */\n      0x00\n        /* \"#utility.yul\":4398:4403   */\n      dup2\n        /* \"#utility.yul\":4392:4404   */\n      sload\n        /* \"#utility.yul\":4427:4463   */\n      tag_197\n        /* \"#utility.yul\":4453:4462   */\n      dup2\n        /* \"#utility.yul\":4427:4463   */\n      tag_74\n      jump\t// in\n    tag_197:\n        /* \"#utility.yul\":4479:4567   */\n      tag_198\n        /* \"#utility.yul\":4560:4566   */\n      dup2\n        /* \"#utility.yul\":4555:4558   */\n      dup7\n        /* \"#utility.yul\":4479:4567   */\n      tag_199\n      jump\t// in\n    tag_198:\n        /* \"#utility.yul\":4472:4567   */\n      swap5\n      pop\n        /* \"#utility.yul\":4598:4599   */\n      0x01\n        /* \"#utility.yul\":4587:4596   */\n      dup3\n        /* \"#utility.yul\":4583:4600   */\n      and\n        /* \"#utility.yul\":4614:4615   */\n      0x00\n        /* \"#utility.yul\":4609:4746   */\n      dup2\n      eq\n      tag_201\n      jumpi\n        /* \"#utility.yul\":4760:4761   */\n      0x01\n        /* \"#utility.yul\":4755:5099   */\n      dup2\n      eq\n      tag_202\n      jumpi\n        /* \"#utility.yul\":4576:5099   */\n      jump(tag_200)\n        /* \"#utility.yul\":4609:4746   */\n    tag_201:\n        /* \"#utility.yul\":4693:4697   */\n      0xff\n        /* \"#utility.yul\":4689:4698   */\n      not\n        /* \"#utility.yul\":4678:4687   */\n      dup4\n        /* \"#utility.yul\":4674:4699   */\n      and\n        /* \"#utility.yul\":4669:4672   */\n      dup7\n        /* \"#utility.yul\":4662:4700   */\n      mstore\n        /* \"#utility.yul\":4729:4735   */\n      dup2\n        /* \"#utility.yul\":4724:4727   */\n      dup7\n        /* \"#utility.yul\":4720:4736   */\n      add\n        /* \"#utility.yul\":4713:4736   */\n      swap4\n      pop\n        /* \"#utility.yul\":4609:4746   */\n      jump(tag_200)\n        /* \"#utility.yul\":4755:5099   */\n    tag_202:\n        /* \"#utility.yul\":4822:4863   */\n      tag_203\n        /* \"#utility.yul\":4857:4862   */\n      dup6\n        /* \"#utility.yul\":4822:4863   */\n      tag_204\n      jump\t// in\n    tag_203:\n        /* \"#utility.yul\":4885:4886   */\n      0x00\n        /* \"#utility.yul\":4899:5053   */\n    tag_205:\n        /* \"#utility.yul\":4913:4919   */\n      dup4\n        /* \"#utility.yul\":4910:4911   */\n      dup2\n        /* \"#utility.yul\":4907:4920   */\n      lt\n        /* \"#utility.yul\":4899:5053   */\n      iszero\n      tag_207\n      jumpi\n        /* \"#utility.yul\":4987:4994   */\n      dup2\n        /* \"#utility.yul\":4981:4995   */\n      sload\n        /* \"#utility.yul\":4977:4978   */\n      dup2\n        /* \"#utility.yul\":4972:4975   */\n      dup10\n        /* \"#utility.yul\":4968:4979   */\n      add\n        /* \"#utility.yul\":4961:4996   */\n      mstore\n        /* \"#utility.yul\":5037:5038   */\n      0x01\n        /* \"#utility.yul\":5028:5035   */\n      dup3\n        /* \"#utility.yul\":5024:5039   */\n      add\n        /* \"#utility.yul\":5013:5039   */\n      swap2\n      pop\n        /* \"#utility.yul\":4935:4939   */\n      0x20\n        /* \"#utility.yul\":4932:4933   */\n      dup2\n        /* \"#utility.yul\":4928:4940   */\n      add\n        /* \"#utility.yul\":4923:4940   */\n      swap1\n      pop\n        /* \"#utility.yul\":4899:5053   */\n      jump(tag_205)\n    tag_207:\n        /* \"#utility.yul\":5082:5088   */\n      dup4\n        /* \"#utility.yul\":5077:5080   */\n      dup9\n        /* \"#utility.yul\":5073:5089   */\n      add\n        /* \"#utility.yul\":5066:5089   */\n      swap6\n      pop\n        /* \"#utility.yul\":4762:5099   */\n      pop\n      pop\n        /* \"#utility.yul\":4576:5099   */\n    tag_200:\n      pop\n        /* \"#utility.yul\":4365:5105   */\n      pop\n      pop\n        /* \"#utility.yul\":4256:5105   */\n      swap3\n      swap2\n      pop\n      pop\n      jump\t// out\n        /* \"#utility.yul\":5111:5475   */\n    tag_208:\n        /* \"#utility.yul\":5199:5202   */\n      0x00\n        /* \"#utility.yul\":5227:5266   */\n      tag_210\n        /* \"#utility.yul\":5260:5265   */\n      dup3\n        /* \"#utility.yul\":5227:5266   */\n      tag_211\n      jump\t// in\n    tag_210:\n        /* \"#utility.yul\":5282:5353   */\n      tag_212\n        /* \"#utility.yul\":5346:5352   */\n      dup2\n        /* \"#utility.yul\":5341:5344   */\n      dup6\n        /* \"#utility.yul\":5282:5353   */\n      tag_213\n      jump\t// in\n    tag_212:\n        /* \"#utility.yul\":5275:5353   */\n      swap4\n      pop\n        /* \"#utility.yul\":5362:5414   */\n      tag_214\n        /* \"#utility.yul\":5407:5413   */\n      dup2\n        /* \"#utility.yul\":5402:5405   */\n      dup6\n        /* \"#utility.yul\":5395:5399   */\n      0x20\n        /* \"#utility.yul\":5388:5393   */\n      dup7\n        /* \"#utility.yul\":5384:5400   */\n      add\n        /* \"#utility.yul\":5362:5414   */\n      tag_215\n      jump\t// in\n    tag_214:\n        /* \"#utility.yul\":5439:5468   */\n      tag_216\n        /* \"#utility.yul\":5461:5467   */\n      dup2\n        /* \"#utility.yul\":5439:5468   */\n      tag_217\n      jump\t// in\n    tag_216:\n        /* \"#utility.yul\":5434:5437   */\n      dup5\n        /* \"#utility.yul\":5430:5469   */\n      add\n        /* \"#utility.yul\":5423:5469   */\n      swap2\n      pop\n        /* \"#utility.yul\":5203:5475   */\n      pop\n        /* \"#utility.yul\":5111:5475   */\n      swap3\n      swap2\n      pop\n      pop\n      jump\t// out\n        /* \"#utility.yul\":5481:5881   */\n    tag_218:\n        /* \"#utility.yul\":5641:5644   */\n      0x00\n        /* \"#utility.yul\":5662:5746   */\n      tag_220\n        /* \"#utility.yul\":5744:5745   */\n      0x02\n        /* \"#utility.yul\":5739:5742   */\n      dup4\n        /* \"#utility.yul\":5662:5746   */\n      tag_221\n      jump\t// in\n    tag_220:\n        /* \"#utility.yul\":5655:5746   */\n      swap2\n      pop\n        /* \"#utility.yul\":5755:5848   */\n      tag_222\n        /* \"#utility.yul\":5844:5847   */\n      dup3\n        /* \"#utility.yul\":5755:5848   */\n      tag_223\n      jump\t// in\n    tag_222:\n        /* \"#utility.yul\":5873:5874   */\n      0x02\n        /* \"#utility.yul\":5868:5871   */\n      dup3\n        /* \"#utility.yul\":5864:5875   */\n      add\n        /* \"#utility.yul\":5857:5875   */\n      swap1\n      pop\n        /* \"#utility.yul\":5481:5881   */\n      swap2\n      swap1\n      pop\n      jump\t// out\n        /* \"#utility.yul\":5887:6253   */\n    tag_224:\n        /* \"#utility.yul\":6029:6032   */\n      0x00\n        /* \"#utility.yul\":6050:6117   */\n      tag_226\n        /* \"#utility.yul\":6114:6116   */\n      0x0e\n        /* \"#utility.yul\":6109:6112   */\n      dup4\n        /* \"#utility.yul\":6050:6117   */\n      tag_213\n      jump\t// in\n    tag_226:\n        /* \"#utility.yul\":6043:6117   */\n      swap2\n      pop\n        /* \"#utility.yul\":6126:6219   */\n      tag_227\n        /* \"#utility.yul\":6215:6218   */\n      dup3\n        /* \"#utility.yul\":6126:6219   */\n      tag_228\n      jump\t// in\n    tag_227:\n        /* \"#utility.yul\":6244:6246   */\n      0x20\n        /* \"#utility.yul\":6239:6242   */\n      dup3\n        /* \"#utility.yul\":6235:6247   */\n      add\n        /* \"#utility.yul\":6228:6247   */\n      swap1\n      pop\n        /* \"#utility.yul\":5887:6253   */\n      swap2\n      swap1\n      pop\n      jump\t// out\n        /* \"#utility.yul\":6259:6625   */\n    tag_229:\n        /* \"#utility.yul\":6401:6404   */\n      0x00\n        /* \"#utility.yul\":6422:6489   */\n      tag_231\n        /* \"#utility.yul\":6486:6488   */\n      0x17\n        /* \"#utility.yul\":6481:6484   */\n      dup4\n        /* \"#utility.yul\":6422:6489   */\n      tag_213\n      jump\t// in\n    tag_231:\n        /* \"#utility.yul\":6415:6489   */\n      swap2\n      pop\n        /* \"#utility.yul\":6498:6591   */\n      tag_232\n        /* \"#utility.yul\":6587:6590   */\n      dup3\n        /* \"#utility.yul\":6498:6591   */\n      tag_233\n      jump\t// in\n    tag_232:\n        /* \"#utility.yul\":6616:6618   */\n      0x20\n        /* \"#utility.yul\":6611:6614   */\n      dup3\n        /* \"#utility.yul\":6607:6619   */\n      add\n        /* \"#utility.yul\":6600:6619   */\n      swap1\n      pop\n        /* \"#utility.yul\":6259:6625   */\n      swap2\n      swap1\n      pop\n      jump\t// out\n        /* \"#utility.yul\":6631:6749   */\n    tag_234:\n        /* \"#utility.yul\":6718:6742   */\n      tag_236\n        /* \"#utility.yul\":6736:6741   */\n      dup2\n        /* \"#utility.yul\":6718:6742   */\n      tag_237\n      jump\t// in\n    tag_236:\n        /* \"#utility.yul\":6713:6716   */\n      dup3\n        /* \"#utility.yul\":6706:6743   */\n      mstore\n        /* \"#utility.yul\":6631:6749   */\n      pop\n      pop\n      jump\t// out\n        /* \"#utility.yul\":6755:6867   */\n    tag_238:\n        /* \"#utility.yul\":6838:6860   */\n      tag_240\n        /* \"#utility.yul\":6854:6859   */\n      dup2\n        /* \"#utility.yul\":6838:6860   */\n      tag_241\n      jump\t// in\n    tag_240:\n        /* \"#utility.yul\":6833:6836   */\n      dup3\n        /* \"#utility.yul\":6826:6861   */\n      mstore\n        /* \"#utility.yul\":6755:6867   */\n      pop\n      pop\n      jump\t// out\n        /* \"#utility.yul\":6873:7146   */\n    tag_123:\n        /* \"#utility.yul\":7004:7007   */\n      0x00\n        /* \"#utility.yul\":7026:7120   */\n      tag_243\n        /* \"#utility.yul\":7116:7119   */\n      dup3\n        /* \"#utility.yul\":7107:7113   */\n      dup5\n        /* \"#utility.yul\":7026:7120   */\n      tag_195\n      jump\t// in\n    tag_243:\n        /* \"#utility.yul\":7019:7120   */\n      swap2\n      pop\n        /* \"#utility.yul\":7137:7140   */\n      dup2\n        /* \"#utility.yul\":7130:7140   */\n      swap1\n      pop\n        /* \"#utility.yul\":6873:7146   */\n      swap3\n      swap2\n      pop\n      pop\n      jump\t// out\n        /* \"#utility.yul\":7152:7815   */\n    tag_111:\n        /* \"#utility.yul\":7393:7396   */\n      0x00\n        /* \"#utility.yul\":7415:7563   */\n      tag_245\n        /* \"#utility.yul\":7559:7562   */\n      dup3\n        /* \"#utility.yul\":7415:7563   */\n      tag_218\n      jump\t// in\n    tag_245:\n        /* \"#utility.yul\":7408:7563   */\n      swap2\n      pop\n        /* \"#utility.yul\":7573:7648   */\n      tag_246\n        /* \"#utility.yul\":7644:7647   */\n      dup3\n        /* \"#utility.yul\":7635:7641   */\n      dup6\n        /* \"#utility.yul\":7573:7648   */\n      tag_190\n      jump\t// in\n    tag_246:\n        /* \"#utility.yul\":7673:7675   */\n      0x20\n        /* \"#utility.yul\":7668:7671   */\n      dup3\n        /* \"#utility.yul\":7664:7676   */\n      add\n        /* \"#utility.yul\":7657:7676   */\n      swap2\n      pop\n        /* \"#utility.yul\":7686:7761   */\n      tag_247\n        /* \"#utility.yul\":7757:7760   */\n      dup3\n        /* \"#utility.yul\":7748:7754   */\n      dup5\n        /* \"#utility.yul\":7686:7761   */\n      tag_190\n      jump\t// in\n    tag_247:\n        /* \"#utility.yul\":7786:7788   */\n      0x20\n        /* \"#utility.yul\":7781:7784   */\n      dup3\n        /* \"#utility.yul\":7777:7789   */\n      add\n        /* \"#utility.yul\":7770:7789   */\n      swap2\n      pop\n        /* \"#utility.yul\":7806:7809   */\n      dup2\n        /* \"#utility.yul\":7799:7809   */\n      swap1\n      pop\n        /* \"#utility.yul\":7152:7815   */\n      swap4\n      swap3\n      pop\n      pop\n      pop\n      jump\t// out\n        /* \"#utility.yul\":7821:8031   */\n    tag_27:\n        /* \"#utility.yul\":7908:7912   */\n      0x00\n        /* \"#utility.yul\":7946:7948   */\n      0x20\n        /* \"#utility.yul\":7935:7944   */\n      dup3\n        /* \"#utility.yul\":7931:7949   */\n      add\n        /* \"#utility.yul\":7923:7949   */\n      swap1\n      pop\n        /* \"#utility.yul\":7959:8024   */\n      tag_249\n        /* \"#utility.yul\":8021:8022   */\n      0x00\n        /* \"#utility.yul\":8010:8019   */\n      dup4\n        /* \"#utility.yul\":8006:8023   */\n      add\n        /* \"#utility.yul\":7997:8003   */\n      dup5\n        /* \"#utility.yul\":7959:8024   */\n      tag_182\n      jump\t// in\n    tag_249:\n        /* \"#utility.yul\":7821:8031   */\n      swap3\n      swap2\n      pop\n      pop\n      jump\t// out\n        /* \"#utility.yul\":8037:8259   */\n    tag_44:\n        /* \"#utility.yul\":8130:8134   */\n      0x00\n        /* \"#utility.yul\":8168:8170   */\n      0x20\n        /* \"#utility.yul\":8157:8166   */\n      dup3\n        /* \"#utility.yul\":8153:8171   */\n      add\n        /* \"#utility.yul\":8145:8171   */\n      swap1\n      pop\n        /* \"#utility.yul\":8181:8252   */\n      tag_251\n        /* \"#utility.yul\":8249:8250   */\n      0x00\n        /* \"#utility.yul\":8238:8247   */\n      dup4\n        /* \"#utility.yul\":8234:8251   */\n      add\n        /* \"#utility.yul\":8225:8231   */\n      dup5\n        /* \"#utility.yul\":8181:8252   */\n      tag_186\n      jump\t// in\n    tag_251:\n        /* \"#utility.yul\":8037:8259   */\n      swap3\n      swap2\n      pop\n      pop\n      jump\t// out\n        /* \"#utility.yul\":8265:9040   */\n    tag_109:\n        /* \"#utility.yul\":8498:8502   */\n      0x00\n        /* \"#utility.yul\":8536:8539   */\n      0xc0\n        /* \"#utility.yul\":8525:8534   */\n      dup3\n        /* \"#utility.yul\":8521:8540   */\n      add\n        /* \"#utility.yul\":8513:8540   */\n      swap1\n      pop\n        /* \"#utility.yul\":8550:8621   */\n      tag_253\n        /* \"#utility.yul\":8618:8619   */\n      0x00\n        /* \"#utility.yul\":8607:8616   */\n      dup4\n        /* \"#utility.yul\":8603:8620   */\n      add\n        /* \"#utility.yul\":8594:8600   */\n      dup10\n        /* \"#utility.yul\":8550:8621   */\n      tag_186\n      jump\t// in\n    tag_253:\n        /* \"#utility.yul\":8631:8703   */\n      tag_254\n        /* \"#utility.yul\":8699:8701   */\n      0x20\n        /* \"#utility.yul\":8688:8697   */\n      dup4\n        /* \"#utility.yul\":8684:8702   */\n      add\n        /* \"#utility.yul\":8675:8681   */\n      dup9\n        /* \"#utility.yul\":8631:8703   */\n      tag_178\n      jump\t// in\n    tag_254:\n        /* \"#utility.yul\":8713:8785   */\n      tag_255\n        /* \"#utility.yul\":8781:8783   */\n      0x40\n        /* \"#utility.yul\":8770:8779   */\n      dup4\n        /* \"#utility.yul\":8766:8784   */\n      add\n        /* \"#utility.yul\":8757:8763   */\n      dup8\n        /* \"#utility.yul\":8713:8785   */\n      tag_178\n      jump\t// in\n    tag_255:\n        /* \"#utility.yul\":8795:8867   */\n      tag_256\n        /* \"#utility.yul\":8863:8865   */\n      0x60\n        /* \"#utility.yul\":8852:8861   */\n      dup4\n        /* \"#utility.yul\":8848:8866   */\n      add\n        /* \"#utility.yul\":8839:8845   */\n      dup7\n        /* \"#utility.yul\":8795:8867   */\n      tag_234\n      jump\t// in\n    tag_256:\n        /* \"#utility.yul\":8877:8950   */\n      tag_257\n        /* \"#utility.yul\":8945:8948   */\n      0x80\n        /* \"#utility.yul\":8934:8943   */\n      dup4\n        /* \"#utility.yul\":8930:8949   */\n      add\n        /* \"#utility.yul\":8921:8927   */\n      dup6\n        /* \"#utility.yul\":8877:8950   */\n      tag_234\n      jump\t// in\n    tag_257:\n        /* \"#utility.yul\":8960:9033   */\n      tag_258\n        /* \"#utility.yul\":9028:9031   */\n      0xa0\n        /* \"#utility.yul\":9017:9026   */\n      dup4\n        /* \"#utility.yul\":9013:9032   */\n      add\n        /* \"#utility.yul\":9004:9010   */\n      dup5\n        /* \"#utility.yul\":8960:9033   */\n      tag_234\n      jump\t// in\n    tag_258:\n        /* \"#utility.yul\":8265:9040   */\n      swap8\n      swap7\n      pop\n      pop\n      pop\n      pop\n      pop\n      pop\n      pop\n      jump\t// out\n        /* \"#utility.yul\":9046:9710   */\n    tag_125:\n        /* \"#utility.yul\":9251:9255   */\n      0x00\n        /* \"#utility.yul\":9289:9292   */\n      0xa0\n        /* \"#utility.yul\":9278:9287   */\n      dup3\n        /* \"#utility.yul\":9274:9293   */\n      add\n        /* \"#utility.yul\":9266:9293   */\n      swap1\n      pop\n        /* \"#utility.yul\":9303:9374   */\n      tag_260\n        /* \"#utility.yul\":9371:9372   */\n      0x00\n        /* \"#utility.yul\":9360:9369   */\n      dup4\n        /* \"#utility.yul\":9356:9373   */\n      add\n        /* \"#utility.yul\":9347:9353   */\n      dup9\n        /* \"#utility.yul\":9303:9374   */\n      tag_186\n      jump\t// in\n    tag_260:\n        /* \"#utility.yul\":9384:9456   */\n      tag_261\n        /* \"#utility.yul\":9452:9454   */\n      0x20\n        /* \"#utility.yul\":9441:9450   */\n      dup4\n        /* \"#utility.yul\":9437:9455   */\n      add\n        /* \"#utility.yul\":9428:9434   */\n      dup8\n        /* \"#utility.yul\":9384:9456   */\n      tag_186\n      jump\t// in\n    tag_261:\n        /* \"#utility.yul\":9466:9538   */\n      tag_262\n        /* \"#utility.yul\":9534:9536   */\n      0x40\n        /* \"#utility.yul\":9523:9532   */\n      dup4\n        /* \"#utility.yul\":9519:9537   */\n      add\n        /* \"#utility.yul\":9510:9516   */\n      dup7\n        /* \"#utility.yul\":9466:9538   */\n      tag_186\n      jump\t// in\n    tag_262:\n        /* \"#utility.yul\":9548:9620   */\n      tag_263\n        /* \"#utility.yul\":9616:9618   */\n      0x60\n        /* \"#utility.yul\":9605:9614   */\n      dup4\n        /* \"#utility.yul\":9601:9619   */\n      add\n        /* \"#utility.yul\":9592:9598   */\n      dup6\n        /* \"#utility.yul\":9548:9620   */\n      tag_234\n      jump\t// in\n    tag_263:\n        /* \"#utility.yul\":9630:9703   */\n      tag_264\n        /* \"#utility.yul\":9698:9701   */\n      0x80\n        /* \"#utility.yul\":9687:9696   */\n      dup4\n        /* \"#utility.yul\":9683:9702   */\n      add\n        /* \"#utility.yul\":9674:9680   */\n      dup5\n        /* \"#utility.yul\":9630:9703   */\n      tag_178\n      jump\t// in\n    tag_264:\n        /* \"#utility.yul\":9046:9710   */\n      swap7\n      swap6\n      pop\n      pop\n      pop\n      pop\n      pop\n      pop\n      jump\t// out\n        /* \"#utility.yul\":9716:10261   */\n    tag_113:\n        /* \"#utility.yul\":9889:9893   */\n      0x00\n        /* \"#utility.yul\":9927:9930   */\n      0x80\n        /* \"#utility.yul\":9916:9925   */\n      dup3\n        /* \"#utility.yul\":9912:9931   */\n      add\n        /* \"#utility.yul\":9904:9931   */\n      swap1\n      pop\n        /* \"#utility.yul\":9941:10012   */\n      tag_266\n        /* \"#utility.yul\":10009:10010   */\n      0x00\n        /* \"#utility.yul\":9998:10007   */\n      dup4\n        /* \"#utility.yul\":9994:10011   */\n      add\n        /* \"#utility.yul\":9985:9991   */\n      dup8\n        /* \"#utility.yul\":9941:10012   */\n      tag_186\n      jump\t// in\n    tag_266:\n        /* \"#utility.yul\":10022:10090   */\n      tag_267\n        /* \"#utility.yul\":10086:10088   */\n      0x20\n        /* \"#utility.yul\":10075:10084   */\n      dup4\n        /* \"#utility.yul\":10071:10089   */\n      add\n        /* \"#utility.yul\":10062:10068   */\n      dup7\n        /* \"#utility.yul\":10022:10090   */\n      tag_238\n      jump\t// in\n    tag_267:\n        /* \"#utility.yul\":10100:10172   */\n      tag_268\n        /* \"#utility.yul\":10168:10170   */\n      0x40\n        /* \"#utility.yul\":10157:10166   */\n      dup4\n        /* \"#utility.yul\":10153:10171   */\n      add\n        /* \"#utility.yul\":10144:10150   */\n      dup6\n        /* \"#utility.yul\":10100:10172   */\n      tag_186\n      jump\t// in\n    tag_268:\n        /* \"#utility.yul\":10182:10254   */\n      tag_269\n        /* \"#utility.yul\":10250:10252   */\n      0x60\n        /* \"#utility.yul\":10239:10248   */\n      dup4\n        /* \"#utility.yul\":10235:10253   */\n      add\n        /* \"#utility.yul\":10226:10232   */\n      dup5\n        /* \"#utility.yul\":10182:10254   */\n      tag_186\n      jump\t// in\n    tag_269:\n        /* \"#utility.yul\":9716:10261   */\n      swap6\n      swap5\n      pop\n      pop\n      pop\n      pop\n      pop\n      jump\t// out\n        /* \"#utility.yul\":10267:10580   */\n    tag_21:\n        /* \"#utility.yul\":10380:10384   */\n      0x00\n        /* \"#utility.yul\":10418:10420   */\n      0x20\n        /* \"#utility.yul\":10407:10416   */\n      dup3\n        /* \"#utility.yul\":10403:10421   */\n      add\n        /* \"#utility.yul\":10395:10421   */\n      swap1\n      pop\n        /* \"#utility.yul\":10467:10476   */\n      dup2\n        /* \"#utility.yul\":10461:10465   */\n      dup2\n        /* \"#utility.yul\":10457:10477   */\n      sub\n        /* \"#utility.yul\":10453:10454   */\n      0x00\n        /* \"#utility.yul\":10442:10451   */\n      dup4\n        /* \"#utility.yul\":10438:10455   */\n      add\n        /* \"#utility.yul\":10431:10478   */\n      mstore\n        /* \"#utility.yul\":10495:10573   */\n      tag_271\n        /* \"#utility.yul\":10568:10572   */\n      dup2\n        /* \"#utility.yul\":10559:10565   */\n      dup5\n        /* \"#utility.yul\":10495:10573   */\n      tag_208\n      jump\t// in\n    tag_271:\n        /* \"#utility.yul\":10487:10573   */\n      swap1\n      pop\n        /* \"#utility.yul\":10267:10580   */\n      swap3\n      swap2\n      pop\n      pop\n      jump\t// out\n        /* \"#utility.yul\":10586:11005   */\n    tag_119:\n        /* \"#utility.yul\":10752:10756   */\n      0x00\n        /* \"#utility.yul\":10790:10792   */\n      0x20\n        /* \"#utility.yul\":10779:10788   */\n      dup3\n        /* \"#utility.yul\":10775:10793   */\n      add\n        /* \"#utility.yul\":10767:10793   */\n      swap1\n      pop\n        /* \"#utility.yul\":10839:10848   */\n      dup2\n        /* \"#utility.yul\":10833:10837   */\n      dup2\n        /* \"#utility.yul\":10829:10849   */\n      sub\n        /* \"#utility.yul\":10825:10826   */\n      0x00\n        /* \"#utility.yul\":10814:10823   */\n      dup4\n        /* \"#utility.yul\":10810:10827   */\n      add\n        /* \"#utility.yul\":10803:10850   */\n      mstore\n        /* \"#utility.yul\":10867:10998   */\n      tag_273\n        /* \"#utility.yul\":10993:10997   */\n      dup2\n        /* \"#utility.yul\":10867:10998   */\n      tag_224\n      jump\t// in\n    tag_273:\n        /* \"#utility.yul\":10859:10998   */\n      swap1\n      pop\n        /* \"#utility.yul\":10586:11005   */\n      swap2\n      swap1\n      pop\n      jump\t// out\n        /* \"#utility.yul\":11011:11430   */\n    tag_106:\n        /* \"#utility.yul\":11177:11181   */\n      0x00\n        /* \"#utility.yul\":11215:11217   */\n      0x20\n        /* \"#utility.yul\":11204:11213   */\n      dup3\n        /* \"#utility.yul\":11200:11218   */\n      add\n        /* \"#utility.yul\":11192:11218   */\n      swap1\n      pop\n        /* \"#utility.yul\":11264:11273   */\n      dup2\n        /* \"#utility.yul\":11258:11262   */\n      dup2\n        /* \"#utility.yul\":11254:11274   */\n      sub\n        /* \"#utility.yul\":11250:11251   */\n      0x00\n        /* \"#utility.yul\":11239:11248   */\n      dup4\n        /* \"#utility.yul\":11235:11252   */\n      add\n        /* \"#utility.yul\":11228:11275   */\n      mstore\n        /* \"#utility.yul\":11292:11423   */\n      tag_275\n        /* \"#utility.yul\":11418:11422   */\n      dup2\n        /* \"#utility.yul\":11292:11423   */\n      tag_229\n      jump\t// in\n    tag_275:\n        /* \"#utility.yul\":11284:11423   */\n      swap1\n      pop\n        /* \"#utility.yul\":11011:11430   */\n      swap2\n      swap1\n      pop\n      jump\t// out\n        /* \"#utility.yul\":11436:11658   */\n    tag_31:\n        /* \"#utility.yul\":11529:11533   */\n      0x00\n        /* \"#utility.yul\":11567:11569   */\n      0x20\n        /* \"#utility.yul\":11556:11565   */\n      dup3\n        /* \"#utility.yul\":11552:11570   */\n      add\n        /* \"#utility.yul\":11544:11570   */\n      swap1\n      pop\n        /* \"#utility.yul\":11580:11651   */\n      tag_277\n        /* \"#utility.yul\":11648:11649   */\n      0x00\n        /* \"#utility.yul\":11637:11646   */\n      dup4\n        /* \"#utility.yul\":11633:11650   */\n      add\n        /* \"#utility.yul\":11624:11630   */\n      dup5\n        /* \"#utility.yul\":11580:11651   */\n      tag_234\n      jump\t// in\n    tag_277:\n        /* \"#utility.yul\":11436:11658   */\n      swap3\n      swap2\n      pop\n      pop\n      jump\t// out\n        /* \"#utility.yul\":11664:11878   */\n    tag_40:\n        /* \"#utility.yul\":11753:11757   */\n      0x00\n        /* \"#utility.yul\":11791:11793   */\n      0x20\n        /* \"#utility.yul\":11780:11789   */\n      dup3\n        /* \"#utility.yul\":11776:11794   */\n      add\n        /* \"#utility.yul\":11768:11794   */\n      swap1\n      pop\n        /* \"#utility.yul\":11804:11871   */\n      tag_279\n        /* \"#utility.yul\":11868:11869   */\n      0x00\n        /* \"#utility.yul\":11857:11866   */\n      dup4\n        /* \"#utility.yul\":11853:11870   */\n      add\n        /* \"#utility.yul\":11844:11850   */\n      dup5\n        /* \"#utility.yul\":11804:11871   */\n      tag_238\n      jump\t// in\n    tag_279:\n        /* \"#utility.yul\":11664:11878   */\n      swap3\n      swap2\n      pop\n      pop\n      jump\t// out\n        /* \"#utility.yul\":11965:12109   */\n    tag_204:\n        /* \"#utility.yul\":12017:12021   */\n      0x00\n        /* \"#utility.yul\":12040:12043   */\n      dup2\n        /* \"#utility.yul\":12032:12043   */\n      swap1\n      pop\n        /* \"#utility.yul\":12063:12066   */\n      dup2\n        /* \"#utility.yul\":12060:12061   */\n      0x00\n        /* \"#utility.yul\":12053:12067   */\n      mstore\n        /* \"#utility.yul\":12097:12101   */\n      0x20\n        /* \"#utility.yul\":12094:12095   */\n      0x00\n        /* \"#utility.yul\":12084:12102   */\n      keccak256\n        /* \"#utility.yul\":12076:12102   */\n      swap1\n      pop\n        /* \"#utility.yul\":11965:12109   */\n      swap2\n      swap1\n      pop\n      jump\t// out\n        /* \"#utility.yul\":12115:12214   */\n    tag_211:\n        /* \"#utility.yul\":12167:12173   */\n      0x00\n        /* \"#utility.yul\":12201:12206   */\n      dup2\n        /* \"#utility.yul\":12195:12207   */\n      mload\n        /* \"#utility.yul\":12185:12207   */\n      swap1\n      pop\n        /* \"#utility.yul\":12115:12214   */\n      swap2\n      swap1\n      pop\n      jump\t// out\n        /* \"#utility.yul\":12220:12367   */\n    tag_199:\n        /* \"#utility.yul\":12321:12332   */\n      0x00\n        /* \"#utility.yul\":12358:12361   */\n      dup2\n        /* \"#utility.yul\":12343:12361   */\n      swap1\n      pop\n        /* \"#utility.yul\":12220:12367   */\n      swap3\n      swap2\n      pop\n      pop\n      jump\t// out\n        /* \"#utility.yul\":12373:12542   */\n    tag_213:\n        /* \"#utility.yul\":12457:12468   */\n      0x00\n        /* \"#utility.yul\":12491:12497   */\n      dup3\n        /* \"#utility.yul\":12486:12489   */\n      dup3\n        /* \"#utility.yul\":12479:12498   */\n      mstore\n        /* \"#utility.yul\":12531:12535   */\n      0x20\n        /* \"#utility.yul\":12526:12529   */\n      dup3\n        /* \"#utility.yul\":12522:12536   */\n      add\n        /* \"#utility.yul\":12507:12536   */\n      swap1\n      pop\n        /* \"#utility.yul\":12373:12542   */\n      swap3\n      swap2\n      pop\n      pop\n      jump\t// out\n        /* \"#utility.yul\":12548:12696   */\n    tag_221:\n        /* \"#utility.yul\":12650:12661   */\n      0x00\n        /* \"#utility.yul\":12687:12690   */\n      dup2\n        /* \"#utility.yul\":12672:12690   */\n      swap1\n      pop\n        /* \"#utility.yul\":12548:12696   */\n      swap3\n      swap2\n      pop\n      pop\n      jump\t// out\n        /* \"#utility.yul\":12702:13007   */\n    tag_128:\n        /* \"#utility.yul\":12742:12745   */\n      0x00\n        /* \"#utility.yul\":12761:12781   */\n      tag_288\n        /* \"#utility.yul\":12779:12780   */\n      dup3\n        /* \"#utility.yul\":12761:12781   */\n      tag_237\n      jump\t// in\n    tag_288:\n        /* \"#utility.yul\":12756:12781   */\n      swap2\n      pop\n        /* \"#utility.yul\":12795:12815   */\n      tag_289\n        /* \"#utility.yul\":12813:12814   */\n      dup4\n        /* \"#utility.yul\":12795:12815   */\n      tag_237\n      jump\t// in\n    tag_289:\n        /* \"#utility.yul\":12790:12815   */\n      swap3\n      pop\n        /* \"#utility.yul\":12949:12950   */\n      dup3\n        /* \"#utility.yul\":12881:12947   */\n      0xffffffffffffffffffffffffffffffffffffffffffffffffffffffffffffffff\n        /* \"#utility.yul\":12877:12951   */\n      sub\n        /* \"#utility.yul\":12874:12875   */\n      dup3\n        /* \"#utility.yul\":12871:12952   */\n      gt\n        /* \"#utility.yul\":12868:12975   */\n      iszero\n      tag_290\n      jumpi\n        /* \"#utility.yul\":12955:12973   */\n      tag_291\n      tag_292\n      jump\t// in\n    tag_291:\n        /* \"#utility.yul\":12868:12975   */\n    tag_290:\n        /* \"#utility.yul\":12999:13000   */\n      dup3\n        /* \"#utility.yul\":12996:12997   */\n      dup3\n        /* \"#utility.yul\":12992:13001   */\n      add\n        /* \"#utility.yul\":12985:13001   */\n      swap1\n      pop\n        /* \"#utility.yul\":12702:13007   */\n      swap3\n      swap2\n      pop\n      pop\n      jump\t// out\n        /* \"#utility.yul\":13013:13204   */\n    tag_84:\n        /* \"#utility.yul\":13053:13057   */\n      0x00\n        /* \"#utility.yul\":13073:13093   */\n      tag_294\n        /* \"#utility.yul\":13091:13092   */\n      dup3\n        /* \"#utility.yul\":13073:13093   */\n      tag_237\n      jump\t// in\n    tag_294:\n        /* \"#utility.yul\":13068:13093   */\n      swap2\n      pop\n        /* \"#utility.yul\":13107:13127   */\n      tag_295\n        /* \"#utility.yul\":13125:13126   */\n      dup4\n        /* \"#utility.yul\":13107:13127   */\n      tag_237\n      jump\t// in\n    tag_295:\n        /* \"#utility.yul\":13102:13127   */\n      swap3\n      pop\n        /* \"#utility.yul\":13146:13147   */\n      dup3\n        /* \"#utility.yul\":13143:13144   */\n      dup3\n        /* \"#utility.yul\":13140:13148   */\n      lt\n        /* \"#utility.yul\":13137:13171   */\n      iszero\n      tag_296\n      jumpi\n        /* \"#utility.yul\":13151:13169   */\n      tag_297\n      tag_292\n      jump\t// in\n    tag_297:\n        /* \"#utility.yul\":13137:13171   */\n    tag_296:\n        /* \"#utility.yul\":13196:13197   */\n      dup3\n        /* \"#utility.yul\":13193:13194   */\n      dup3\n        /* \"#utility.yul\":13189:13198   */\n      sub\n        /* \"#utility.yul\":13181:13198   */\n      swap1\n      pop\n        /* \"#utility.yul\":13013:13204   */\n      swap3\n      swap2\n      pop\n      pop\n      jump\t// out\n        /* \"#utility.yul\":13210:13306   */\n    tag_181:\n        /* \"#utility.yul\":13247:13254   */\n      0x00\n        /* \"#utility.yul\":13276:13300   */\n      tag_299\n        /* \"#utility.yul\":13294:13299   */\n      dup3\n        /* \"#utility.yul\":13276:13300   */\n      tag_300\n      jump\t// in\n    tag_299:\n        /* \"#utility.yul\":13265:13300   */\n      swap1\n      pop\n        /* \"#utility.yul\":13210:13306   */\n      swap2\n      swap1\n      pop\n      jump\t// out\n        /* \"#utility.yul\":13312:13402   */\n    tag_185:\n        /* \"#utility.yul\":13346:13353   */\n      0x00\n        /* \"#utility.yul\":13389:13394   */\n      dup2\n        /* \"#utility.yul\":13382:13395   */\n      iszero\n        /* \"#utility.yul\":13375:13396   */\n      iszero\n        /* \"#utility.yul\":13364:13396   */\n      swap1\n      pop\n        /* \"#utility.yul\":13312:13402   */\n      swap2\n      swap1\n      pop\n      jump\t// out\n        /* \"#utility.yul\":13408:13485   */\n    tag_189:\n        /* \"#utility.yul\":13445:13452   */\n      0x00\n        /* \"#utility.yul\":13474:13479   */\n      dup2\n        /* \"#utility.yul\":13463:13479   */\n      swap1\n      pop\n        /* \"#utility.yul\":13408:13485   */\n      swap2\n      swap1\n      pop\n      jump\t// out\n        /* \"#utility.yul\":13491:13617   */\n    tag_300:\n        /* \"#utility.yul\":13528:13535   */\n      0x00\n        /* \"#utility.yul\":13568:13610   */\n      0xffffffffffffffffffffffffffffffffffffffff\n        /* \"#utility.yul\":13561:13566   */\n      dup3\n        /* \"#utility.yul\":13557:13611   */\n      and\n        /* \"#utility.yul\":13546:13611   */\n      swap1\n      pop\n        /* \"#utility.yul\":13491:13617   */\n      swap2\n      swap1\n      pop\n      jump\t// out\n        /* \"#utility.yul\":13623:13700   */\n    tag_237:\n        /* \"#utility.yul\":13660:13667   */\n      0x00\n        /* \"#utility.yul\":13689:13694   */\n      dup2\n        /* \"#utility.yul\":13678:13694   */\n      swap1\n      pop\n        /* \"#utility.yul\":13623:13700   */\n      swap2\n      swap1\n      pop\n      jump\t// out\n        /* \"#utility.yul\":13706:13792   */\n    tag_241:\n        /* \"#utility.yul\":13741:13748   */\n      0x00\n        /* \"#utility.yul\":13781:13785   */\n      0xff\n        /* \"#utility.yul\":13774:13779   */\n      dup3\n        /* \"#utility.yul\":13770:13786   */\n      and\n        /* \"#utility.yul\":13759:13786   */\n      swap1\n      pop\n        /* \"#utility.yul\":13706:13792   */\n      swap2\n      swap1\n      pop\n      jump\t// out\n        /* \"#utility.yul\":13798:14105   */\n    tag_215:\n        /* \"#utility.yul\":13866:13867   */\n      0x00\n        /* \"#utility.yul\":13876:13989   */\n    tag_307:\n        /* \"#utility.yul\":13890:13896   */\n      dup4\n        /* \"#utility.yul\":13887:13888   */\n      dup2\n        /* \"#utility.yul\":13884:13897   */\n      lt\n        /* \"#utility.yul\":13876:13989   */\n      iszero\n      tag_309\n      jumpi\n        /* \"#utility.yul\":13975:13976   */\n      dup1\n        /* \"#utility.yul\":13970:13973   */\n      dup3\n        /* \"#utility.yul\":13966:13977   */\n      add\n        /* \"#utility.yul\":13960:13978   */\n      mload\n        /* \"#utility.yul\":13956:13957   */\n      dup2\n        /* \"#utility.yul\":13951:13954   */\n      dup5\n        /* \"#utility.yul\":13947:13958   */\n      add\n        /* \"#utility.yul\":13940:13979   */\n      mstore\n        /* \"#utility.yul\":13912:13914   */\n      0x20\n        /* \"#utility.yul\":13909:13910   */\n      dup2\n        /* \"#utility.yul\":13905:13915   */\n      add\n        /* \"#utility.yul\":13900:13915   */\n      swap1\n      pop\n        /* \"#utility.yul\":13876:13989   */\n      jump(tag_307)\n    tag_309:\n        /* \"#utility.yul\":14007:14013   */\n      dup4\n        /* \"#utility.yul\":14004:14005   */\n      dup2\n        /* \"#utility.yul\":14001:14014   */\n      gt\n        /* \"#utility.yul\":13998:14099   */\n      iszero\n      tag_310\n      jumpi\n        /* \"#utility.yul\":14087:14088   */\n      0x00\n        /* \"#utility.yul\":14078:14084   */\n      dup5\n        /* \"#utility.yul\":14073:14076   */\n      dup5\n        /* \"#utility.yul\":14069:14085   */\n      add\n        /* \"#utility.yul\":14062:14089   */\n      mstore\n        /* \"#utility.yul\":13998:14099   */\n    tag_310:\n        /* \"#utility.yul\":13847:14105   */\n      pop\n        /* \"#utility.yul\":13798:14105   */\n      pop\n      pop\n      pop\n      jump\t// out\n        /* \"#utility.yul\":14111:14431   */\n    tag_74:\n        /* \"#utility.yul\":14155:14161   */\n      0x00\n        /* \"#utility.yul\":14192:14193   */\n      0x02\n        /* \"#utility.yul\":14186:14190   */\n      dup3\n        /* \"#utility.yul\":14182:14194   */\n      div\n        /* \"#utility.yul\":14172:14194   */\n      swap1\n      pop\n        /* \"#utility.yul\":14239:14240   */\n      0x01\n        /* \"#utility.yul\":14233:14237   */\n      dup3\n        /* \"#utility.yul\":14229:14241   */\n      and\n        /* \"#utility.yul\":14260:14278   */\n      dup1\n        /* \"#utility.yul\":14250:14331   */\n      tag_312\n      jumpi\n        /* \"#utility.yul\":14316:14320   */\n      0x7f\n        /* \"#utility.yul\":14308:14314   */\n      dup3\n        /* \"#utility.yul\":14304:14321   */\n      and\n        /* \"#utility.yul\":14294:14321   */\n      swap2\n      pop\n        /* \"#utility.yul\":14250:14331   */\n    tag_312:\n        /* \"#utility.yul\":14378:14380   */\n      0x20\n        /* \"#utility.yul\":14370:14376   */\n      dup3\n        /* \"#utility.yul\":14367:14381   */\n      lt\n        /* \"#utility.yul\":14347:14365   */\n      dup2\n        /* \"#utility.yul\":14344:14382   */\n      eq\n        /* \"#utility.yul\":14341:14425   */\n      iszero\n      tag_313\n      jumpi\n        /* \"#utility.yul\":14397:14415   */\n      tag_314\n      tag_315\n      jump\t// in\n    tag_314:\n        /* \"#utility.yul\":14341:14425   */\n    tag_313:\n        /* \"#utility.yul\":14162:14431   */\n      pop\n        /* \"#utility.yul\":14111:14431   */\n      swap2\n      swap1\n      pop\n      jump\t// out\n        /* \"#utility.yul\":14437:14516   */\n    tag_194:\n        /* \"#utility.yul\":14476:14483   */\n      0x00\n        /* \"#utility.yul\":14505:14510   */\n      dup2\n        /* \"#utility.yul\":14494:14510   */\n      swap1\n      pop\n        /* \"#utility.yul\":14437:14516   */\n      swap2\n      swap1\n      pop\n      jump\t// out\n        /* \"#utility.yul\":14522:14702   */\n    tag_292:\n        /* \"#utility.yul\":14570:14647   */\n      0x4e487b7100000000000000000000000000000000000000000000000000000000\n        /* \"#utility.yul\":14567:14568   */\n      0x00\n        /* \"#utility.yul\":14560:14648   */\n      mstore\n        /* \"#utility.yul\":14667:14671   */\n      0x11\n        /* \"#utility.yul\":14664:14665   */\n      0x04\n        /* \"#utility.yul\":14657:14672   */\n      mstore\n        /* \"#utility.yul\":14691:14695   */\n      0x24\n        /* \"#utility.yul\":14688:14689   */\n      0x00\n        /* \"#utility.yul\":14681:14696   */\n      revert\n        /* \"#utility.yul\":14708:14888   */\n    tag_315:\n        /* \"#utility.yul\":14756:14833   */\n      0x4e487b7100000000000000000000000000000000000000000000000000000000\n        /* \"#utility.yul\":14753:14754   */\n      0x00\n        /* \"#utility.yul\":14746:14834   */\n      mstore\n        /* \"#utility.yul\":14853:14857   */\n      0x22\n        /* \"#utility.yul\":14850:14851   */\n      0x04\n        /* \"#utility.yul\":14843:14858   */\n      mstore\n        /* \"#utility.yul\":14877:14881   */\n      0x24\n        /* \"#utility.yul\":14874:14875   */\n      0x00\n        /* \"#utility.yul\":14867:14882   */\n      revert\n        /* \"#utility.yul\":15017:15134   */\n    tag_150:\n        /* \"#utility.yul\":15126:15127   */\n      0x00\n        /* \"#utility.yul\":15123:15124   */\n      dup1\n        /* \"#utility.yul\":15116:15128   */\n      revert\n        /* \"#utility.yul\":15140:15242   */\n    tag_217:\n        /* \"#utility.yul\":15181:15187   */\n      0x00\n        /* \"#utility.yul\":15232:15234   */\n      0x1f\n        /* \"#utility.yul\":15228:15235   */\n      not\n        /* \"#utility.yul\":15223:15225   */\n      0x1f\n        /* \"#utility.yul\":15216:15221   */\n      dup4\n        /* \"#utility.yul\":15212:15226   */\n      add\n        /* \"#utility.yul\":15208:15236   */\n      and\n        /* \"#utility.yul\":15198:15236   */\n      swap1\n      pop\n        /* \"#utility.yul\":15140:15242   */\n      swap2\n      swap1\n      pop\n      jump\t// out\n        /* \"#utility.yul\":15248:15462   */\n    tag_223:\n        /* \"#utility.yul\":15388:15454   */\n      0x1901000000000000000000000000000000000000000000000000000000000000\n        /* \"#utility.yul\":15384:15385   */\n      0x00\n        /* \"#utility.yul\":15376:15382   */\n      dup3\n        /* \"#utility.yul\":15372:15386   */\n      add\n        /* \"#utility.yul\":15365:15455   */\n      mstore\n        /* \"#utility.yul\":15248:15462   */\n      pop\n      jump\t// out\n        /* \"#utility.yul\":15468:15632   */\n    tag_228:\n        /* \"#utility.yul\":15608:15624   */\n      0x494e56414c49445f5349474e4552000000000000000000000000000000000000\n        /* \"#utility.yul\":15604:15605   */\n      0x00\n        /* \"#utility.yul\":15596:15602   */\n      dup3\n        /* \"#utility.yul\":15592:15606   */\n      add\n        /* \"#utility.yul\":15585:15625   */\n      mstore\n        /* \"#utility.yul\":15468:15632   */\n      pop\n      jump\t// out\n        /* \"#utility.yul\":15638:15811   */\n    tag_233:\n        /* \"#utility.yul\":15778:15803   */\n      0x5045524d49545f444541444c494e455f45585049524544000000000000000000\n        /* \"#utility.yul\":15774:15775   */\n      0x00\n        /* \"#utility.yul\":15766:15772   */\n      dup3\n        /* \"#utility.yul\":15762:15776   */\n      add\n        /* \"#utility.yul\":15755:15804   */\n      mstore\n        /* \"#utility.yul\":15638:15811   */\n      pop\n      jump\t// out\n        /* \"#utility.yul\":15817:15939   */\n    tag_134:\n        /* \"#utility.yul\":15890:15914   */\n      tag_327\n        /* \"#utility.yul\":15908:15913   */\n      dup2\n        /* \"#utility.yul\":15890:15914   */\n      tag_181\n      jump\t// in\n    tag_327:\n        /* \"#utility.yul\":15883:15888   */\n      dup2\n        /* \"#utility.yul\":15880:15915   */\n      eq\n        /* \"#utility.yul\":15870:15933   */\n      tag_328\n      jumpi\n        /* \"#utility.yul\":15929:15930   */\n      0x00\n        /* \"#utility.yul\":15926:15927   */\n      dup1\n        /* \"#utility.yul\":15919:15931   */\n      revert\n        /* \"#utility.yul\":15870:15933   */\n    tag_328:\n        /* \"#utility.yul\":15817:15939   */\n      pop\n      jump\t// out\n        /* \"#utility.yul\":15945:16067   */\n    tag_138:\n        /* \"#utility.yul\":16018:16042   */\n      tag_330\n        /* \"#utility.yul\":16036:16041   */\n      dup2\n        /* \"#utility.yul\":16018:16042   */\n      tag_189\n      jump\t// in\n    tag_330:\n        /* \"#utility.yul\":16011:16016   */\n      dup2\n        /* \"#utility.yul\":16008:16043   */\n      eq\n        /* \"#utility.yul\":15998:16061   */\n      tag_331\n      jumpi\n        /* \"#utility.yul\":16057:16058   */\n      0x00\n        /* \"#utility.yul\":16054:16055   */\n      dup1\n        /* \"#utility.yul\":16047:16059   */\n      revert\n        /* \"#utility.yul\":15998:16061   */\n    tag_331:\n        /* \"#utility.yul\":15945:16067   */\n      pop\n      jump\t// out\n        /* \"#utility.yul\":16073:16195   */\n    tag_142:\n        /* \"#utility.yul\":16146:16170   */\n      tag_333\n        /* \"#utility.yul\":16164:16169   */\n      dup2\n        /* \"#utility.yul\":16146:16170   */\n      tag_237\n      jump\t// in\n    tag_333:\n        /* \"#utility.yul\":16139:16144   */\n      dup2\n        /* \"#utility.yul\":16136:16171   */\n      eq\n        /* \"#utility.yul\":16126:16189   */\n      tag_334\n      jumpi\n        /* \"#utility.yul\":16185:16186   */\n      0x00\n        /* \"#utility.yul\":16182:16183   */\n      dup1\n        /* \"#utility.yul\":16175:16187   */\n      revert\n        /* \"#utility.yul\":16126:16189   */\n    tag_334:\n        /* \"#utility.yul\":16073:16195   */\n      pop\n      jump\t// out\n        /* \"#utility.yul\":16201:16319   */\n    tag_146:\n        /* \"#utility.yul\":16272:16294   */\n      tag_336\n        /* \"#utility.yul\":16288:16293   */\n      dup2\n        /* \"#utility.yul\":16272:16294   */\n      tag_241\n      jump\t// in\n    tag_336:\n        /* \"#utility.yul\":16265:16270   */\n      dup2\n        /* \"#utility.yul\":16262:16295   */\n      eq\n        /* \"#utility.yul\":16252:16313   */\n      tag_337\n      jumpi\n        /* \"#utility.yul\":16309:16310   */\n      0x00\n        /* \"#utility.yul\":16306:16307   */\n      dup1\n        /* \"#utility.yul\":16299:16311   */\n      revert\n        /* \"#utility.yul\":16252:16313   */\n    tag_337:\n        /* \"#utility.yul\":16201:16319   */\n      pop\n      jump\t// out\n\n    auxdata: 0xa2646970667358221220568e92bf9a98696987a17743fb6897eb3fcdf392cdc3825f17abf230cfa6f2c264736f6c63430008070033\n}\n",
				"bytecode": {
					"linkReferences": {},
					"object": "60e06040523480156200001157600080fd5b506040518060400160405280600781526020017f417065436f696e000000000000000000000000000000000000000000000000008152506040518060400160405280600381526020017f415045000000000000000000000000000000000000000000000000000000000081525060128260009080519060200190620000989291906200017b565b508160019080519060200190620000b19291906200017b565b508060ff1660808160ff1660f81b815250504660a08181525050620000db620000eb60201b60201c565b60c081815250505050506200042c565b60007f8b73c3c69bb8fe3d512ecc4cf759cc79239f7b179b0ffacaa9a75d522b39400f60006040516200011f9190620002e9565b60405180910390207fc89efdaa54c0f20c7adf612882df0950f5a951637e0307cdcb4c672f298b8bc646306040516020016200016095949392919062000302565b60405160208183030381529060405280519060200120905090565b8280546200018990620003c7565b90600052602060002090601f016020900481019282620001ad5760008555620001f9565b82601f10620001c857805160ff1916838001178555620001f9565b82800160010185558215620001f9579182015b82811115620001f8578251825591602001919060010190620001db565b5b5090506200020891906200020c565b5090565b5b80821115620002275760008160009055506001016200020d565b5090565b62000236816200037f565b82525050565b620002478162000393565b82525050565b600081546200025c81620003c7565b62000268818662000374565b945060018216600081146200028657600181146200029857620002cf565b60ff19831686528186019350620002cf565b620002a3856200035f565b60005b83811015620002c757815481890152600182019150602081019050620002a6565b838801955050505b50505092915050565b620002e381620003bd565b82525050565b6000620002f782846200024d565b915081905092915050565b600060a0820190506200031960008301886200023c565b6200032860208301876200023c565b6200033760408301866200023c565b620003466060830185620002d8565b6200035560808301846200022b565b9695505050505050565b60008190508160005260206000209050919050565b600081905092915050565b60006200038c826200039d565b9050919050565b6000819050919050565b600073ffffffffffffffffffffffffffffffffffffffff82169050919050565b6000819050919050565b60006002820490506001821680620003e057607f821691505b60208210811415620003f757620003f6620003fd565b5b50919050565b7f4e487b7100000000000000000000000000000000000000000000000000000000600052602260045260246000fd5b60805160f81c60a05160c05161161b6200045f60003960006106ee015260006106ba01526000610694015261161b6000f3fe608060405234801561001057600080fd5b50600436106100cf5760003560e01c806340c10f191161008c57806395d89b411161006657806395d89b4114610228578063a9059cbb14610246578063d505accf14610276578063dd62ed3e14610292576100cf565b806340c10f19146101ac57806370a08231146101c85780637ecebe00146101f8576100cf565b806306fdde03146100d4578063095ea7b3146100f257806318160ddd1461012257806323b872dd14610140578063313ce567146101705780633644e5151461018e575b600080fd5b6100dc6102c2565b6040516100e99190611263565b60405180910390f35b61010c60048036038101906101079190610f23565b610350565b6040516101199190611134565b60405180910390f35b61012a610442565b60405161013791906112c5565b60405180910390f35b61015a60048036038101906101559190610e2e565b610448565b6040516101679190611134565b60405180910390f35b610178610692565b60405161018591906112e0565b60405180910390f35b6101966106b6565b6040516101a3919061114f565b60405180910390f35b6101c660048036038101906101c19190610f23565b610713565b005b6101e260048036038101906101dd9190610dc1565b610721565b6040516101ef91906112c5565b60405180910390f35b610212600480360381019061020d9190610dc1565b610739565b60405161021f91906112c5565b60405180910390f35b610230610751565b60405161023d9190611263565b60405180910390f35b610260600480360381019061025b9190610f23565b6107df565b60405161026d9190611134565b60405180910390f35b610290600480360381019061028b9190610e81565b6108f3565b005b6102ac60048036038101906102a79190610dee565b610bec565b6040516102b991906112c5565b60405180910390f35b600080546102cf9061145e565b80601f01602080910402602001604051908101604052809291908181526020018280546102fb9061145e565b80156103485780601f1061031d57610100808354040283529160200191610348565b820191906000526020600020905b81548152906001019060200180831161032b57829003601f168201915b505050505081565b600081600460003373ffffffffffffffffffffffffffffffffffffffff1673ffffffffffffffffffffffffffffffffffffffff16815260200190815260200160002060008573ffffffffffffffffffffffffffffffffffffffff1673ffffffffffffffffffffffffffffffffffffffff168152602001908152602001600020819055508273ffffffffffffffffffffffffffffffffffffffff163373ffffffffffffffffffffffffffffffffffffffff167f8c5be1e5ebec7d5bd14f71427d1e84f3dd0314c0f7b2291e5b200ac8c7c3b9258460405161043091906112c5565b60405180910390a36001905092915050565b60025481565b600080600460008673ffffffffffffffffffffffffffffffffffffffff1673ffffffffffffffffffffffffffffffffffffffff16815260200190815260200160002060003373ffffffffffffffffffffffffffffffffffffffff1673ffffffffffffffffffffffffffffffffffffffff1681526020019081526020016000205490507fffffffffffffffffffffffffffffffffffffffffffffffffffffffffffffffff811461057e5782816104fd9190611398565b600460008773ffffffffffffffffffffffffffffffffffffffff1673ffffffffffffffffffffffffffffffffffffffff16815260200190815260200160002060003373ffffffffffffffffffffffffffffffffffffffff1673ffffffffffffffffffffffffffffffffffffffff168152602001908152602001600020819055505b82600360008773ffffffffffffffffffffffffffffffffffffffff1673ffffffffffffffffffffffffffffffffffffffff16815260200190815260200160002060008282546105cd9190611398565b9250508190555082600360008673ffffffffffffffffffffffffffffffffffffffff1673ffffffffffffffffffffffffffffffffffffffff168152602001908152602001600020600082825401925050819055508373ffffffffffffffffffffffffffffffffffffffff168573ffffffffffffffffffffffffffffffffffffffff167fddf252ad1be2c89b69c2b068fc378daa952ba7f163c4a11628f55a4df523b3ef8560405161067e91906112c5565b60405180910390a360019150509392505050565b7f000000000000000000000000000000000000000000000000000000000000000081565b60007f000000000000000000000000000000000000000000000000000000000000000046146106ec576106e7610c11565b61070e565b7f00000000000000000000000000000000000000000000000000000000000000005b905090565b61071d8282610c9d565b5050565b60036020528060005260406000206000915090505481565b60056020528060005260406000206000915090505481565b6001805461075e9061145e565b80601f016020809104026020016040519081016040528092919081815260200182805461078a9061145e565b80156107d75780601f106107ac576101008083540402835291602001916107d7565b820191906000526020600020905b8154815290600101906020018083116107ba57829003601f168201915b505050505081565b600081600360003373ffffffffffffffffffffffffffffffffffffffff1673ffffffffffffffffffffffffffffffffffffffff16815260200190815260200160002060008282546108309190611398565b9250508190555081600360008573ffffffffffffffffffffffffffffffffffffffff1673ffffffffffffffffffffffffffffffffffffffff168152602001908152602001600020600082825401925050819055508273ffffffffffffffffffffffffffffffffffffffff163373ffffffffffffffffffffffffffffffffffffffff167fddf252ad1be2c89b69c2b068fc378daa952ba7f163c4a11628f55a4df523b3ef846040516108e191906112c5565b60405180910390a36001905092915050565b42841015610936576040517f08c379a000000000000000000000000000000000000000000000000000000000815260040161092d906112a5565b60405180910390fd5b600060016109426106b6565b7f6e71edae12b1b97f4d1f60370fef10105fa2faae0126114a169c64845d6126c98a8a8a600560008f73ffffffffffffffffffffffffffffffffffffffff1673ffffffffffffffffffffffffffffffffffffffff1681526020019081526020016000206000815480929190600101919050558b6040516020016109ca9695949392919061116a565b604051602081830303815290604052805190602001206040516020016109f19291906110fd565b6040516020818303038152906040528051906020012085858560405160008152602001604052604051610a27949392919061121e565b6020604051602081039080840390855afa158015610a49573d6000803e3d6000fd5b505050602060405103519050600073ffffffffffffffffffffffffffffffffffffffff168173ffffffffffffffffffffffffffffffffffffffff1614158015610abd57508773ffffffffffffffffffffffffffffffffffffffff168173ffffffffffffffffffffffffffffffffffffffff16145b610afc576040517f08c379a0000000000000000000000000000000000000000000000000000000008152600401610af390611285565b60405180910390fd5b85600460008373ffffffffffffffffffffffffffffffffffffffff1673ffffffffffffffffffffffffffffffffffffffff16815260200190815260200160002060008973ffffffffffffffffffffffffffffffffffffffff1673ffffffffffffffffffffffffffffffffffffffff16815260200190815260200160002081905550508573ffffffffffffffffffffffffffffffffffffffff168773ffffffffffffffffffffffffffffffffffffffff167f8c5be1e5ebec7d5bd14f71427d1e84f3dd0314c0f7b2291e5b200ac8c7c3b92587604051610bdb91906112c5565b60405180910390a350505050505050565b6004602052816000526040600020602052806000526040600020600091509150505481565b60007f8b73c3c69bb8fe3d512ecc4cf759cc79239f7b179b0ffacaa9a75d522b39400f6000604051610c4391906110e6565b60405180910390207fc89efdaa54c0f20c7adf612882df0950f5a951637e0307cdcb4c672f298b8bc64630604051602001610c829594939291906111cb565b60405160208183030381529060405280519060200120905090565b8060026000828254610caf9190611342565b9250508190555080600360008473ffffffffffffffffffffffffffffffffffffffff1673ffffffffffffffffffffffffffffffffffffffff168152602001908152602001600020600082825401925050819055508173ffffffffffffffffffffffffffffffffffffffff16600073ffffffffffffffffffffffffffffffffffffffff167fddf252ad1be2c89b69c2b068fc378daa952ba7f163c4a11628f55a4df523b3ef83604051610d6191906112c5565b60405180910390a35050565b600081359050610d7c81611589565b92915050565b600081359050610d91816115a0565b92915050565b600081359050610da6816115b7565b92915050565b600081359050610dbb816115ce565b92915050565b600060208284031215610dd757610dd66114f8565b5b6000610de584828501610d6d565b91505092915050565b60008060408385031215610e0557610e046114f8565b5b6000610e1385828601610d6d565b9250506020610e2485828601610d6d565b9150509250929050565b600080600060608486031215610e4757610e466114f8565b5b6000610e5586828701610d6d565b9350506020610e6686828701610d6d565b9250506040610e7786828701610d97565b9150509250925092565b600080600080600080600060e0888a031215610ea057610e9f6114f8565b5b6000610eae8a828b01610d6d565b9750506020610ebf8a828b01610d6d565b9650506040610ed08a828b01610d97565b9550506060610ee18a828b01610d97565b9450506080610ef28a828b01610dac565b93505060a0610f038a828b01610d82565b92505060c0610f148a828b01610d82565b91505092959891949750929550565b60008060408385031215610f3a57610f396114f8565b5b6000610f4885828601610d6d565b9250506020610f5985828601610d97565b9150509250929050565b610f6c816113cc565b82525050565b610f7b816113de565b82525050565b610f8a816113ea565b82525050565b610fa1610f9c826113ea565b611490565b82525050565b60008154610fb48161145e565b610fbe818661131b565b94506001821660008114610fd95760018114610fea5761101d565b60ff1983168652818601935061101d565b610ff3856112fb565b60005b8381101561101557815481890152600182019150602081019050610ff6565b838801955050505b50505092915050565b600061103182611310565b61103b8185611326565b935061104b81856020860161142b565b611054816114fd565b840191505092915050565b600061106c600283611337565b91506110778261150e565b600282019050919050565b600061108f600e83611326565b915061109a82611537565b602082019050919050565b60006110b2601783611326565b91506110bd82611560565b602082019050919050565b6110d181611414565b82525050565b6110e08161141e565b82525050565b60006110f28284610fa7565b915081905092915050565b60006111088261105f565b91506111148285610f90565b6020820191506111248284610f90565b6020820191508190509392505050565b60006020820190506111496000830184610f72565b92915050565b60006020820190506111646000830184610f81565b92915050565b600060c08201905061117f6000830189610f81565b61118c6020830188610f63565b6111996040830187610f63565b6111a660608301866110c8565b6111b360808301856110c8565b6111c060a08301846110c8565b979650505050505050565b600060a0820190506111e06000830188610f81565b6111ed6020830187610f81565b6111fa6040830186610f81565b61120760608301856110c8565b6112146080830184610f63565b9695505050505050565b60006080820190506112336000830187610f81565b61124060208301866110d7565b61124d6040830185610f81565b61125a6060830184610f81565b95945050505050565b6000602082019050818103600083015261127d8184611026565b905092915050565b6000602082019050818103600083015261129e81611082565b9050919050565b600060208201905081810360008301526112be816110a5565b9050919050565b60006020820190506112da60008301846110c8565b92915050565b60006020820190506112f560008301846110d7565b92915050565b60008190508160005260206000209050919050565b600081519050919050565b600081905092915050565b600082825260208201905092915050565b600081905092915050565b600061134d82611414565b915061135883611414565b9250827fffffffffffffffffffffffffffffffffffffffffffffffffffffffffffffffff0382111561138d5761138c61149a565b5b828201905092915050565b60006113a382611414565b91506113ae83611414565b9250828210156113c1576113c061149a565b5b828203905092915050565b60006113d7826113f4565b9050919050565b60008115159050919050565b6000819050919050565b600073ffffffffffffffffffffffffffffffffffffffff82169050919050565b6000819050919050565b600060ff82169050919050565b60005b8381101561144957808201518184015260208101905061142e565b83811115611458576000848401525b50505050565b6000600282049050600182168061147657607f821691505b6020821081141561148a576114896114c9565b5b50919050565b6000819050919050565b7f4e487b7100000000000000000000000000000000000000000000000000000000600052601160045260246000fd5b7f4e487b7100000000000000000000000000000000000000000000000000000000600052602260045260246000fd5b600080fd5b6000601f19601f8301169050919050565b7f1901000000000000000000000000000000000000000000000000000000000000600082015250565b7f494e56414c49445f5349474e4552000000000000000000000000000000000000600082015250565b7f5045524d49545f444541444c494e455f45585049524544000000000000000000600082015250565b611592816113cc565b811461159d57600080fd5b50565b6115a9816113ea565b81146115b457600080fd5b50565b6115c081611414565b81146115cb57600080fd5b50565b6115d78161141e565b81146115e257600080fd5b5056fea2646970667358221220568e92bf9a98696987a17743fb6897eb3fcdf392cdc3825f17abf230cfa6f2c264736f6c63430008070033",
					"opcodes": "PUSH1 0xE0 PUSH1 0x40 MSTORE CALLVALUE DUP1 ISZERO PUSH3 0x11 JUMPI PUSH1 0x0 DUP1 REVERT JUMPDEST POP PUSH1 0x40 MLOAD DUP1 PUSH1 0x40 ADD PUSH1 0x40 MSTORE DUP1 PUSH1 0x7 DUP2 MSTORE PUSH1 0x20 ADD PUSH32 0x417065436F696E00000000000000000000000000000000000000000000000000 DUP2 MSTORE POP PUSH1 0x40 MLOAD DUP1 PUSH1 0x40 ADD PUSH1 0x40 MSTORE DUP1 PUSH1 0x3 DUP2 MSTORE PUSH1 0x20 ADD PUSH32 0x4150450000000000000000000000000000000000000000000000000000000000 DUP2 MSTORE POP PUSH1 0x12 DUP3 PUSH1 0x0 SWAP1 DUP1 MLOAD SWAP1 PUSH1 0x20 ADD SWAP1 PUSH3 0x98 SWAP3 SWAP2 SWAP1 PUSH3 0x17B JUMP JUMPDEST POP DUP2 PUSH1 0x1 SWAP1 DUP1 MLOAD SWAP1 PUSH1 0x20 ADD SWAP1 PUSH3 0xB1 SWAP3 SWAP2 SWAP1 PUSH3 0x17B JUMP JUMPDEST POP DUP1 PUSH1 0xFF AND PUSH1 0x80 DUP2 PUSH1 0xFF AND PUSH1 0xF8 SHL DUP2 MSTORE POP POP CHAINID PUSH1 0xA0 DUP2 DUP2 MSTORE POP POP PUSH3 0xDB PUSH3 0xEB PUSH1 0x20 SHL PUSH1 0x20 SHR JUMP JUMPDEST PUSH1 0xC0 DUP2 DUP2 MSTORE POP POP POP POP POP PUSH3 0x42C JUMP JUMPDEST PUSH1 0x0 PUSH32 0x8B73C3C69BB8FE3D512ECC4CF759CC79239F7B179B0FFACAA9A75D522B39400F PUSH1 0x0 PUSH1 0x40 MLOAD PUSH3 0x11F SWAP2 SWAP1 PUSH3 0x2E9 JUMP JUMPDEST PUSH1 0x40 MLOAD DUP1 SWAP2 SUB SWAP1 KECCAK256 PUSH32 0xC89EFDAA54C0F20C7ADF612882DF0950F5A951637E0307CDCB4C672F298B8BC6 CHAINID ADDRESS PUSH1 0x40 MLOAD PUSH1 0x20 ADD PUSH3 0x160 SWAP6 SWAP5 SWAP4 SWAP3 SWAP2 SWAP1 PUSH3 0x302 JUMP JUMPDEST PUSH1 0x40 MLOAD PUSH1 0x20 DUP2 DUP4 SUB SUB DUP2 MSTORE SWAP1 PUSH1 0x40 MSTORE DUP1 MLOAD SWAP1 PUSH1 0x20 ADD KECCAK256 SWAP1 POP SWAP1 JUMP JUMPDEST DUP3 DUP1 SLOAD PUSH3 0x189 SWAP1 PUSH3 0x3C7 JUMP JUMPDEST SWAP1 PUSH1 0x0 MSTORE PUSH1 0x20 PUSH1 0x0 KECCAK256 SWAP1 PUSH1 0x1F ADD PUSH1 0x20 SWAP1 DIV DUP2 ADD SWAP3 DUP3 PUSH3 0x1AD JUMPI PUSH1 0x0 DUP6 SSTORE PUSH3 0x1F9 JUMP JUMPDEST DUP3 PUSH1 0x1F LT PUSH3 0x1C8 JUMPI DUP1 MLOAD PUSH1 0xFF NOT AND DUP4 DUP1 ADD OR DUP6 SSTORE PUSH3 0x1F9 JUMP JUMPDEST DUP3 DUP1 ADD PUSH1 0x1 ADD DUP6 SSTORE DUP3 ISZERO PUSH3 0x1F9 JUMPI SWAP2 DUP3 ADD JUMPDEST DUP3 DUP2 GT ISZERO PUSH3 0x1F8 JUMPI DUP3 MLOAD DUP3 SSTORE SWAP2 PUSH1 0x20 ADD SWAP2 SWAP1 PUSH1 0x1 ADD SWAP1 PUSH3 0x1DB JUMP JUMPDEST JUMPDEST POP SWAP1 POP PUSH3 0x208 SWAP2 SWAP1 PUSH3 0x20C JUMP JUMPDEST POP SWAP1 JUMP JUMPDEST JUMPDEST DUP1 DUP3 GT ISZERO PUSH3 0x227 JUMPI PUSH1 0x0 DUP2 PUSH1 0x0 SWAP1 SSTORE POP PUSH1 0x1 ADD PUSH3 0x20D JUMP JUMPDEST POP SWAP1 JUMP JUMPDEST PUSH3 0x236 DUP2 PUSH3 0x37F JUMP JUMPDEST DUP3 MSTORE POP POP JUMP JUMPDEST PUSH3 0x247 DUP2 PUSH3 0x393 JUMP JUMPDEST DUP3 MSTORE POP POP JUMP JUMPDEST PUSH1 0x0 DUP2 SLOAD PUSH3 0x25C DUP2 PUSH3 0x3C7 JUMP JUMPDEST PUSH3 0x268 DUP2 DUP7 PUSH3 0x374 JUMP JUMPDEST SWAP5 POP PUSH1 0x1 DUP3 AND PUSH1 0x0 DUP2 EQ PUSH3 0x286 JUMPI PUSH1 0x1 DUP2 EQ PUSH3 0x298 JUMPI PUSH3 0x2CF JUMP JUMPDEST PUSH1 0xFF NOT DUP4 AND DUP7 MSTORE DUP2 DUP7 ADD SWAP4 POP PUSH3 0x2CF JUMP JUMPDEST PUSH3 0x2A3 DUP6 PUSH3 0x35F JUMP JUMPDEST PUSH1 0x0 JUMPDEST DUP4 DUP2 LT ISZERO PUSH3 0x2C7 JUMPI DUP2 SLOAD DUP2 DUP10 ADD MSTORE PUSH1 0x1 DUP3 ADD SWAP2 POP PUSH1 0x20 DUP2 ADD SWAP1 POP PUSH3 0x2A6 JUMP JUMPDEST DUP4 DUP9 ADD SWAP6 POP POP POP JUMPDEST POP POP POP SWAP3 SWAP2 POP POP JUMP JUMPDEST PUSH3 0x2E3 DUP2 PUSH3 0x3BD JUMP JUMPDEST DUP3 MSTORE POP POP JUMP JUMPDEST PUSH1 0x0 PUSH3 0x2F7 DUP3 DUP5 PUSH3 0x24D JUMP JUMPDEST SWAP2 POP DUP2 SWAP1 POP SWAP3 SWAP2 POP POP JUMP JUMPDEST PUSH1 0x0 PUSH1 0xA0 DUP3 ADD SWAP1 POP PUSH3 0x319 PUSH1 0x0 DUP4 ADD DUP9 PUSH3 0x23C JUMP JUMPDEST PUSH3 0x328 PUSH1 0x20 DUP4 ADD DUP8 PUSH3 0x23C JUMP JUMPDEST PUSH3 0x337 PUSH1 0x40 DUP4 ADD DUP7 PUSH3 0x23C JUMP JUMPDEST PUSH3 0x346 PUSH1 0x60 DUP4 ADD DUP6 PUSH3 0x2D8 JUMP JUMPDEST PUSH3 0x355 PUSH1 0x80 DUP4 ADD DUP5 PUSH3 0x22B JUMP JUMPDEST SWAP7 SWAP6 POP POP POP POP POP POP JUMP JUMPDEST PUSH1 0x0 DUP2 SWAP1 POP DUP2 PUSH1 0x0 MSTORE PUSH1 0x20 PUSH1 0x0 KECCAK256 SWAP1 POP SWAP2 SWAP1 POP JUMP JUMPDEST PUSH1 0x0 DUP2 SWAP1 POP SWAP3 SWAP2 POP POP JUMP JUMPDEST PUSH1 0x0 PUSH3 0x38C DUP3 PUSH3 0x39D JUMP JUMPDEST SWAP1 POP SWAP2 SWAP1 POP JUMP JUMPDEST PUSH1 0x0 DUP2 SWAP1 POP SWAP2 SWAP1 POP JUMP JUMPDEST PUSH1 0x0 PUSH20 0xFFFFFFFFFFFFFFFFFFFFFFFFFFFFFFFFFFFFFFFF DUP3 AND SWAP1 POP SWAP2 SWAP1 POP JUMP JUMPDEST PUSH1 0x0 DUP2 SWAP1 POP SWAP2 SWAP1 POP JUMP JUMPDEST PUSH1 0x0 PUSH1 0x2 DUP3 DIV SWAP1 POP PUSH1 0x1 DUP3 AND DUP1 PUSH3 0x3E0 JUMPI PUSH1 0x7F DUP3 AND SWAP2 POP JUMPDEST PUSH1 0x20 DUP3 LT DUP2 EQ ISZERO PUSH3 0x3F7 JUMPI PUSH3 0x3F6 PUSH3 0x3FD JUMP JUMPDEST JUMPDEST POP SWAP2 SWAP1 POP JUMP JUMPDEST PUSH32 0x4E487B7100000000000000000000000000000000000000000000000000000000 PUSH1 0x0 MSTORE PUSH1 0x22 PUSH1 0x4 MSTORE PUSH1 0x24 PUSH1 0x0 REVERT JUMPDEST PUSH1 0x80 MLOAD PUSH1 0xF8 SHR PUSH1 0xA0 MLOAD PUSH1 0xC0 MLOAD PUSH2 0x161B PUSH3 0x45F PUSH1 0x0 CODECOPY PUSH1 0x0 PUSH2 0x6EE ADD MSTORE PUSH1 0x0 PUSH2 0x6BA ADD MSTORE PUSH1 0x0 PUSH2 0x694 ADD MSTORE PUSH2 0x161B PUSH1 0x0 RETURN INVALID PUSH1 0x80 PUSH1 0x40 MSTORE CALLVALUE DUP1 ISZERO PUSH2 0x10 JUMPI PUSH1 0x0 DUP1 REVERT JUMPDEST POP PUSH1 0x4 CALLDATASIZE LT PUSH2 0xCF JUMPI PUSH1 0x0 CALLDATALOAD PUSH1 0xE0 SHR DUP1 PUSH4 0x40C10F19 GT PUSH2 0x8C JUMPI DUP1 PUSH4 0x95D89B41 GT PUSH2 0x66 JUMPI DUP1 PUSH4 0x95D89B41 EQ PUSH2 0x228 JUMPI DUP1 PUSH4 0xA9059CBB EQ PUSH2 0x246 JUMPI DUP1 PUSH4 0xD505ACCF EQ PUSH2 0x276 JUMPI DUP1 PUSH4 0xDD62ED3E EQ PUSH2 0x292 JUMPI PUSH2 0xCF JUMP JUMPDEST DUP1 PUSH4 0x40C10F19 EQ PUSH2 0x1AC JUMPI DUP1 PUSH4 0x70A08231 EQ PUSH2 0x1C8 JUMPI DUP1 PUSH4 0x7ECEBE00 EQ PUSH2 0x1F8 JUMPI PUSH2 0xCF JUMP JUMPDEST DUP1 PUSH4 0x6FDDE03 EQ PUSH2 0xD4 JUMPI DUP1 PUSH4 0x95EA7B3 EQ PUSH2 0xF2 JUMPI DUP1 PUSH4 0x18160DDD EQ PUSH2 0x122 JUMPI DUP1 PUSH4 0x23B872DD EQ PUSH2 0x140 JUMPI DUP1 PUSH4 0x313CE567 EQ PUSH2 0x170 JUMPI DUP1 PUSH4 0x3644E515 EQ PUSH2 0x18E JUMPI JUMPDEST PUSH1 0x0 DUP1 REVERT JUMPDEST PUSH2 0xDC PUSH2 0x2C2 JUMP JUMPDEST PUSH1 0x40 MLOAD PUSH2 0xE9 SWAP2 SWAP1 PUSH2 0x1263 JUMP JUMPDEST PUSH1 0x40 MLOAD DUP1 SWAP2 SUB SWAP1 RETURN JUMPDEST PUSH2 0x10C PUSH1 0x4 DUP1 CALLDATASIZE SUB DUP2 ADD SWAP1 PUSH2 0x107 SWAP2 SWAP1 PUSH2 0xF23 JUMP JUMPDEST PUSH2 0x350 JUMP JUMPDEST PUSH1 0x40 MLOAD PUSH2 0x119 SWAP2 SWAP1 PUSH2 0x1134 JUMP JUMPDEST PUSH1 0x40 MLOAD DUP1 SWAP2 SUB SWAP1 RETURN JUMPDEST PUSH2 0x12A PUSH2 0x442 JUMP JUMPDEST PUSH1 0x40 MLOAD PUSH2 0x137 SWAP2 SWAP1 PUSH2 0x12C5 JUMP JUMPDEST PUSH1 0x40 MLOAD DUP1 SWAP2 SUB SWAP1 RETURN JUMPDEST PUSH2 0x15A PUSH1 0x4 DUP1 CALLDATASIZE SUB DUP2 ADD SWAP1 PUSH2 0x155 SWAP2 SWAP1 PUSH2 0xE2E JUMP JUMPDEST PUSH2 0x448 JUMP JUMPDEST PUSH1 0x40 MLOAD PUSH2 0x167 SWAP2 SWAP1 PUSH2 0x1134 JUMP JUMPDEST PUSH1 0x40 MLOAD DUP1 SWAP2 SUB SWAP1 RETURN JUMPDEST PUSH2 0x178 PUSH2 0x692 JUMP JUMPDEST PUSH1 0x40 MLOAD PUSH2 0x185 SWAP2 SWAP1 PUSH2 0x12E0 JUMP JUMPDEST PUSH1 0x40 MLOAD DUP1 SWAP2 SUB SWAP1 RETURN JUMPDEST PUSH2 0x196 PUSH2 0x6B6 JUMP JUMPDEST PUSH1 0x40 MLOAD PUSH2 0x1A3 SWAP2 SWAP1 PUSH2 0x114F JUMP JUMPDEST PUSH1 0x40 MLOAD DUP1 SWAP2 SUB SWAP1 RETURN JUMPDEST PUSH2 0x1C6 PUSH1 0x4 DUP1 CALLDATASIZE SUB DUP2 ADD SWAP1 PUSH2 0x1C1 SWAP2 SWAP1 PUSH2 0xF23 JUMP JUMPDEST PUSH2 0x713 JUMP JUMPDEST STOP JUMPDEST PUSH2 0x1E2 PUSH1 0x4 DUP1 CALLDATASIZE SUB DUP2 ADD SWAP1 PUSH2 0x1DD SWAP2 SWAP1 PUSH2 0xDC1 JUMP JUMPDEST PUSH2 0x721 JUMP JUMPDEST PUSH1 0x40 MLOAD PUSH2 0x1EF SWAP2 SWAP1 PUSH2 0x12C5 JUMP JUMPDEST PUSH1 0x40 MLOAD DUP1 SWAP2 SUB SWAP1 RETURN JUMPDEST PUSH2 0x212 PUSH1 0x4 DUP1 CALLDATASIZE SUB DUP2 ADD SWAP1 PUSH2 0x20D SWAP2 SWAP1 PUSH2 0xDC1 JUMP JUMPDEST PUSH2 0x739 JUMP JUMPDEST PUSH1 0x40 MLOAD PUSH2 0x21F SWAP2 SWAP1 PUSH2 0x12C5 JUMP JUMPDEST PUSH1 0x40 MLOAD DUP1 SWAP2 SUB SWAP1 RETURN JUMPDEST PUSH2 0x230 PUSH2 0x751 JUMP JUMPDEST PUSH1 0x40 MLOAD PUSH2 0x23D SWAP2 SWAP1 PUSH2 0x1263 JUMP JUMPDEST PUSH1 0x40 MLOAD DUP1 SWAP2 SUB SWAP1 RETURN JUMPDEST PUSH2 0x260 PUSH1 0x4 DUP1 CALLDATASIZE SUB DUP2 ADD SWAP1 PUSH2 0x25B SWAP2 SWAP1 PUSH2 0xF23 JUMP JUMPDEST PUSH2 0x7DF JUMP JUMPDEST PUSH1 0x40 MLOAD PUSH2 0x26D SWAP2 SWAP1 PUSH2 0x1134 JUMP JUMPDEST PUSH1 0x40 MLOAD DUP1 SWAP2 SUB SWAP1 RETURN JUMPDEST PUSH2 0x290 PUSH1 0x4 DUP1 CALLDATASIZE SUB DUP2 ADD SWAP1 PUSH2 0x28B SWAP2 SWAP1 PUSH2 0xE81 JUMP JUMPDEST PUSH2 0x8F3 JUMP JUMPDEST STOP JUMPDEST PUSH2 0x2AC PUSH1 0x4 DUP1 CALLDATASIZE SUB DUP2 ADD SWAP1 PUSH2 0x2A7 SWAP2 SWAP1 PUSH2 0xDEE JUMP JUMPDEST PUSH2 0xBEC JUMP JUMPDEST PUSH1 0x40 MLOAD PUSH2 0x2B9 SWAP2 SWAP1 PUSH2 0x12C5 JUMP JUMPDEST PUSH1 0x40 MLOAD DUP1 SWAP2 SUB SWAP1 RETURN JUMPDEST PUSH1 0x0 DUP1 SLOAD PUSH2 0x2CF SWAP1 PUSH2 0x145E JUMP JUMPDEST DUP1 PUSH1 0x1F ADD PUSH1 0x20 DUP1 SWAP2 DIV MUL PUSH1 0x20 ADD PUSH1 0x40 MLOAD SWAP1 DUP2 ADD PUSH1 0x40 MSTORE DUP1 SWAP3 SWAP2 SWAP1 DUP2 DUP2 MSTORE PUSH1 0x20 ADD DUP3 DUP1 SLOAD PUSH2 0x2FB SWAP1 PUSH2 0x145E JUMP JUMPDEST DUP1 ISZERO PUSH2 0x348 JUMPI DUP1 PUSH1 0x1F LT PUSH2 0x31D JUMPI PUSH2 0x100 DUP1 DUP4 SLOAD DIV MUL DUP4 MSTORE SWAP2 PUSH1 0x20 ADD SWAP2 PUSH2 0x348 JUMP JUMPDEST DUP3 ADD SWAP2 SWAP1 PUSH1 0x0 MSTORE PUSH1 0x20 PUSH1 0x0 KECCAK256 SWAP1 JUMPDEST DUP2 SLOAD DUP2 MSTORE SWAP1 PUSH1 0x1 ADD SWAP1 PUSH1 0x20 ADD DUP1 DUP4 GT PUSH2 0x32B JUMPI DUP3 SWAP1 SUB PUSH1 0x1F AND DUP3 ADD SWAP2 JUMPDEST POP POP POP POP POP DUP2 JUMP JUMPDEST PUSH1 0x0 DUP2 PUSH1 0x4 PUSH1 0x0 CALLER PUSH20 0xFFFFFFFFFFFFFFFFFFFFFFFFFFFFFFFFFFFFFFFF AND PUSH20 0xFFFFFFFFFFFFFFFFFFFFFFFFFFFFFFFFFFFFFFFF AND DUP2 MSTORE PUSH1 0x20 ADD SWAP1 DUP2 MSTORE PUSH1 0x20 ADD PUSH1 0x0 KECCAK256 PUSH1 0x0 DUP6 PUSH20 0xFFFFFFFFFFFFFFFFFFFFFFFFFFFFFFFFFFFFFFFF AND PUSH20 0xFFFFFFFFFFFFFFFFFFFFFFFFFFFFFFFFFFFFFFFF AND DUP2 MSTORE PUSH1 0x20 ADD SWAP1 DUP2 MSTORE PUSH1 0x20 ADD PUSH1 0x0 KECCAK256 DUP2 SWAP1 SSTORE POP DUP3 PUSH20 0xFFFFFFFFFFFFFFFFFFFFFFFFFFFFFFFFFFFFFFFF AND CALLER PUSH20 0xFFFFFFFFFFFFFFFFFFFFFFFFFFFFFFFFFFFFFFFF AND PUSH32 0x8C5BE1E5EBEC7D5BD14F71427D1E84F3DD0314C0F7B2291E5B200AC8C7C3B925 DUP5 PUSH1 0x40 MLOAD PUSH2 0x430 SWAP2 SWAP1 PUSH2 0x12C5 JUMP JUMPDEST PUSH1 0x40 MLOAD DUP1 SWAP2 SUB SWAP1 LOG3 PUSH1 0x1 SWAP1 POP SWAP3 SWAP2 POP POP JUMP JUMPDEST PUSH1 0x2 SLOAD DUP2 JUMP JUMPDEST PUSH1 0x0 DUP1 PUSH1 0x4 PUSH1 0x0 DUP7 PUSH20 0xFFFFFFFFFFFFFFFFFFFFFFFFFFFFFFFFFFFFFFFF AND PUSH20 0xFFFFFFFFFFFFFFFFFFFFFFFFFFFFFFFFFFFFFFFF AND DUP2 MSTORE PUSH1 0x20 ADD SWAP1 DUP2 MSTORE PUSH1 0x20 ADD PUSH1 0x0 KECCAK256 PUSH1 0x0 CALLER PUSH20 0xFFFFFFFFFFFFFFFFFFFFFFFFFFFFFFFFFFFFFFFF AND PUSH20 0xFFFFFFFFFFFFFFFFFFFFFFFFFFFFFFFFFFFFFFFF AND DUP2 MSTORE PUSH1 0x20 ADD SWAP1 DUP2 MSTORE PUSH1 0x20 ADD PUSH1 0x0 KECCAK256 SLOAD SWAP1 POP PUSH32 0xFFFFFFFFFFFFFFFFFFFFFFFFFFFFFFFFFFFFFFFFFFFFFFFFFFFFFFFFFFFFFFFF DUP2 EQ PUSH2 0x57E JUMPI DUP3 DUP2 PUSH2 0x4FD SWAP2 SWAP1 PUSH2 0x1398 JUMP JUMPDEST PUSH1 0x4 PUSH1 0x0 DUP8 PUSH20 0xFFFFFFFFFFFFFFFFFFFFFFFFFFFFFFFFFFFFFFFF AND PUSH20 0xFFFFFFFFFFFFFFFFFFFFFFFFFFFFFFFFFFFFFFFF AND DUP2 MSTORE PUSH1 0x20 ADD SWAP1 DUP2 MSTORE PUSH1 0x20 ADD PUSH1 0x0 KECCAK256 PUSH1 0x0 CALLER PUSH20 0xFFFFFFFFFFFFFFFFFFFFFFFFFFFFFFFFFFFFFFFF AND PUSH20 0xFFFFFFFFFFFFFFFFFFFFFFFFFFFFFFFFFFFFFFFF AND DUP2 MSTORE PUSH1 0x20 ADD SWAP1 DUP2 MSTORE PUSH1 0x20 ADD PUSH1 0x0 KECCAK256 DUP2 SWAP1 SSTORE POP JUMPDEST DUP3 PUSH1 0x3 PUSH1 0x0 DUP8 PUSH20 0xFFFFFFFFFFFFFFFFFFFFFFFFFFFFFFFFFFFFFFFF AND PUSH20 0xFFFFFFFFFFFFFFFFFFFFFFFFFFFFFFFFFFFFFFFF AND DUP2 MSTORE PUSH1 0x20 ADD SWAP1 DUP2 MSTORE PUSH1 0x20 ADD PUSH1 0x0 KECCAK256 PUSH1 0x0 DUP3 DUP3 SLOAD PUSH2 0x5CD SWAP2 SWAP1 PUSH2 0x1398 JUMP JUMPDEST SWAP3 POP POP DUP2 SWAP1 SSTORE POP DUP3 PUSH1 0x3 PUSH1 0x0 DUP7 PUSH20 0xFFFFFFFFFFFFFFFFFFFFFFFFFFFFFFFFFFFFFFFF AND PUSH20 0xFFFFFFFFFFFFFFFFFFFFFFFFFFFFFFFFFFFFFFFF AND DUP2 MSTORE PUSH1 0x20 ADD SWAP1 DUP2 MSTORE PUSH1 0x20 ADD PUSH1 0x0 KECCAK256 PUSH1 0x0 DUP3 DUP3 SLOAD ADD SWAP3 POP POP DUP2 SWAP1 SSTORE POP DUP4 PUSH20 0xFFFFFFFFFFFFFFFFFFFFFFFFFFFFFFFFFFFFFFFF AND DUP6 PUSH20 0xFFFFFFFFFFFFFFFFFFFFFFFFFFFFFFFFFFFFFFFF AND PUSH32 0xDDF252AD1BE2C89B69C2B068FC378DAA952BA7F163C4A11628F55A4DF523B3EF DUP6 PUSH1 0x40 MLOAD PUSH2 0x67E SWAP2 SWAP1 PUSH2 0x12C5 JUMP JUMPDEST PUSH1 0x40 MLOAD DUP1 SWAP2 SUB SWAP1 LOG3 PUSH1 0x1 SWAP2 POP POP SWAP4 SWAP3 POP POP POP JUMP JUMPDEST PUSH32 0x0 DUP2 JUMP JUMPDEST PUSH1 0x0 PUSH32 0x0 CHAINID EQ PUSH2 0x6EC JUMPI PUSH2 0x6E7 PUSH2 0xC11 JUMP JUMPDEST PUSH2 0x70E JUMP JUMPDEST PUSH32 0x0 JUMPDEST SWAP1 POP SWAP1 JUMP JUMPDEST PUSH2 0x71D DUP3 DUP3 PUSH2 0xC9D JUMP JUMPDEST POP POP JUMP JUMPDEST PUSH1 0x3 PUSH1 0x20 MSTORE DUP1 PUSH1 0x0 MSTORE PUSH1 0x40 PUSH1 0x0 KECCAK256 PUSH1 0x0 SWAP2 POP SWAP1 POP SLOAD DUP2 JUMP JUMPDEST PUSH1 0x5 PUSH1 0x20 MSTORE DUP1 PUSH1 0x0 MSTORE PUSH1 0x40 PUSH1 0x0 KECCAK256 PUSH1 0x0 SWAP2 POP SWAP1 POP SLOAD DUP2 JUMP JUMPDEST PUSH1 0x1 DUP1 SLOAD PUSH2 0x75E SWAP1 PUSH2 0x145E JUMP JUMPDEST DUP1 PUSH1 0x1F ADD PUSH1 0x20 DUP1 SWAP2 DIV MUL PUSH1 0x20 ADD PUSH1 0x40 MLOAD SWAP1 DUP2 ADD PUSH1 0x40 MSTORE DUP1 SWAP3 SWAP2 SWAP1 DUP2 DUP2 MSTORE PUSH1 0x20 ADD DUP3 DUP1 SLOAD PUSH2 0x78A SWAP1 PUSH2 0x145E JUMP JUMPDEST DUP1 ISZERO PUSH2 0x7D7 JUMPI DUP1 PUSH1 0x1F LT PUSH2 0x7AC JUMPI PUSH2 0x100 DUP1 DUP4 SLOAD DIV MUL DUP4 MSTORE SWAP2 PUSH1 0x20 ADD SWAP2 PUSH2 0x7D7 JUMP JUMPDEST DUP3 ADD SWAP2 SWAP1 PUSH1 0x0 MSTORE PUSH1 0x20 PUSH1 0x0 KECCAK256 SWAP1 JUMPDEST DUP2 SLOAD DUP2 MSTORE SWAP1 PUSH1 0x1 ADD SWAP1 PUSH1 0x20 ADD DUP1 DUP4 GT PUSH2 0x7BA JUMPI DUP3 SWAP1 SUB PUSH1 0x1F AND DUP3 ADD SWAP2 JUMPDEST POP POP POP POP POP DUP2 JUMP JUMPDEST PUSH1 0x0 DUP2 PUSH1 0x3 PUSH1 0x0 CALLER PUSH20 0xFFFFFFFFFFFFFFFFFFFFFFFFFFFFFFFFFFFFFFFF AND PUSH20 0xFFFFFFFFFFFFFFFFFFFFFFFFFFFFFFFFFFFFFFFF AND DUP2 MSTORE PUSH1 0x20 ADD SWAP1 DUP2 MSTORE PUSH1 0x20 ADD PUSH1 0x0 KECCAK256 PUSH1 0x0 DUP3 DUP3 SLOAD PUSH2 0x830 SWAP2 SWAP1 PUSH2 0x1398 JUMP JUMPDEST SWAP3 POP POP DUP2 SWAP1 SSTORE POP DUP2 PUSH1 0x3 PUSH1 0x0 DUP6 PUSH20 0xFFFFFFFFFFFFFFFFFFFFFFFFFFFFFFFFFFFFFFFF AND PUSH20 0xFFFFFFFFFFFFFFFFFFFFFFFFFFFFFFFFFFFFFFFF AND DUP2 MSTORE PUSH1 0x20 ADD SWAP1 DUP2 MSTORE PUSH1 0x20 ADD PUSH1 0x0 KECCAK256 PUSH1 0x0 DUP3 DUP3 SLOAD ADD SWAP3 POP POP DUP2 SWAP1 SSTORE POP DUP3 PUSH20 0xFFFFFFFFFFFFFFFFFFFFFFFFFFFFFFFFFFFFFFFF AND CALLER PUSH20 0xFFFFFFFFFFFFFFFFFFFFFFFFFFFFFFFFFFFFFFFF AND PUSH32 0xDDF252AD1BE2C89B69C2B068FC378DAA952BA7F163C4A11628F55A4DF523B3EF DUP5 PUSH1 0x40 MLOAD PUSH2 0x8E1 SWAP2 SWAP1 PUSH2 0x12C5 JUMP JUMPDEST PUSH1 0x40 MLOAD DUP1 SWAP2 SUB SWAP1 LOG3 PUSH1 0x1 SWAP1 POP SWAP3 SWAP2 POP POP JUMP JUMPDEST TIMESTAMP DUP5 LT ISZERO PUSH2 0x936 JUMPI PUSH1 0x40 MLOAD PUSH32 0x8C379A000000000000000000000000000000000000000000000000000000000 DUP2 MSTORE PUSH1 0x4 ADD PUSH2 0x92D SWAP1 PUSH2 0x12A5 JUMP JUMPDEST PUSH1 0x40 MLOAD DUP1 SWAP2 SUB SWAP1 REVERT JUMPDEST PUSH1 0x0 PUSH1 0x1 PUSH2 0x942 PUSH2 0x6B6 JUMP JUMPDEST PUSH32 0x6E71EDAE12B1B97F4D1F60370FEF10105FA2FAAE0126114A169C64845D6126C9 DUP11 DUP11 DUP11 PUSH1 0x5 PUSH1 0x0 DUP16 PUSH20 0xFFFFFFFFFFFFFFFFFFFFFFFFFFFFFFFFFFFFFFFF AND PUSH20 0xFFFFFFFFFFFFFFFFFFFFFFFFFFFFFFFFFFFFFFFF AND DUP2 MSTORE PUSH1 0x20 ADD SWAP1 DUP2 MSTORE PUSH1 0x20 ADD PUSH1 0x0 KECCAK256 PUSH1 0x0 DUP2 SLOAD DUP1 SWAP3 SWAP2 SWAP1 PUSH1 0x1 ADD SWAP2 SWAP1 POP SSTORE DUP12 PUSH1 0x40 MLOAD PUSH1 0x20 ADD PUSH2 0x9CA SWAP7 SWAP6 SWAP5 SWAP4 SWAP3 SWAP2 SWAP1 PUSH2 0x116A JUMP JUMPDEST PUSH1 0x40 MLOAD PUSH1 0x20 DUP2 DUP4 SUB SUB DUP2 MSTORE SWAP1 PUSH1 0x40 MSTORE DUP1 MLOAD SWAP1 PUSH1 0x20 ADD KECCAK256 PUSH1 0x40 MLOAD PUSH1 0x20 ADD PUSH2 0x9F1 SWAP3 SWAP2 SWAP1 PUSH2 0x10FD JUMP JUMPDEST PUSH1 0x40 MLOAD PUSH1 0x20 DUP2 DUP4 SUB SUB DUP2 MSTORE SWAP1 PUSH1 0x40 MSTORE DUP1 MLOAD SWAP1 PUSH1 0x20 ADD KECCAK256 DUP6 DUP6 DUP6 PUSH1 0x40 MLOAD PUSH1 0x0 DUP2 MSTORE PUSH1 0x20 ADD PUSH1 0x40 MSTORE PUSH1 0x40 MLOAD PUSH2 0xA27 SWAP5 SWAP4 SWAP3 SWAP2 SWAP1 PUSH2 0x121E JUMP JUMPDEST PUSH1 0x20 PUSH1 0x40 MLOAD PUSH1 0x20 DUP2 SUB SWAP1 DUP1 DUP5 SUB SWAP1 DUP6 GAS STATICCALL ISZERO DUP1 ISZERO PUSH2 0xA49 JUMPI RETURNDATASIZE PUSH1 0x0 DUP1 RETURNDATACOPY RETURNDATASIZE PUSH1 0x0 REVERT JUMPDEST POP POP POP PUSH1 0x20 PUSH1 0x40 MLOAD SUB MLOAD SWAP1 POP PUSH1 0x0 PUSH20 0xFFFFFFFFFFFFFFFFFFFFFFFFFFFFFFFFFFFFFFFF AND DUP2 PUSH20 0xFFFFFFFFFFFFFFFFFFFFFFFFFFFFFFFFFFFFFFFF AND EQ ISZERO DUP1 ISZERO PUSH2 0xABD JUMPI POP DUP8 PUSH20 0xFFFFFFFFFFFFFFFFFFFFFFFFFFFFFFFFFFFFFFFF AND DUP2 PUSH20 0xFFFFFFFFFFFFFFFFFFFFFFFFFFFFFFFFFFFFFFFF AND EQ JUMPDEST PUSH2 0xAFC JUMPI PUSH1 0x40 MLOAD PUSH32 0x8C379A000000000000000000000000000000000000000000000000000000000 DUP2 MSTORE PUSH1 0x4 ADD PUSH2 0xAF3 SWAP1 PUSH2 0x1285 JUMP JUMPDEST PUSH1 0x40 MLOAD DUP1 SWAP2 SUB SWAP1 REVERT JUMPDEST DUP6 PUSH1 0x4 PUSH1 0x0 DUP4 PUSH20 0xFFFFFFFFFFFFFFFFFFFFFFFFFFFFFFFFFFFFFFFF AND PUSH20 0xFFFFFFFFFFFFFFFFFFFFFFFFFFFFFFFFFFFFFFFF AND DUP2 MSTORE PUSH1 0x20 ADD SWAP1 DUP2 MSTORE PUSH1 0x20 ADD PUSH1 0x0 KECCAK256 PUSH1 0x0 DUP10 PUSH20 0xFFFFFFFFFFFFFFFFFFFFFFFFFFFFFFFFFFFFFFFF AND PUSH20 0xFFFFFFFFFFFFFFFFFFFFFFFFFFFFFFFFFFFFFFFF AND DUP2 MSTORE PUSH1 0x20 ADD SWAP1 DUP2 MSTORE PUSH1 0x20 ADD PUSH1 0x0 KECCAK256 DUP2 SWAP1 SSTORE POP POP DUP6 PUSH20 0xFFFFFFFFFFFFFFFFFFFFFFFFFFFFFFFFFFFFFFFF AND DUP8 PUSH20 0xFFFFFFFFFFFFFFFFFFFFFFFFFFFFFFFFFFFFFFFF AND PUSH32 0x8C5BE1E5EBEC7D5BD14F71427D1E84F3DD0314C0F7B2291E5B200AC8C7C3B925 DUP8 PUSH1 0x40 MLOAD PUSH2 0xBDB SWAP2 SWAP1 PUSH2 0x12C5 JUMP JUMPDEST PUSH1 0x40 MLOAD DUP1 SWAP2 SUB SWAP1 LOG3 POP POP POP POP POP POP POP JUMP JUMPDEST PUSH1 0x4 PUSH1 0x20 MSTORE DUP2 PUSH1 0x0 MSTORE PUSH1 0x40 PUSH1 0x0 KECCAK256 PUSH1 0x20 MSTORE DUP1 PUSH1 0x0 MSTORE PUSH1 0x40 PUSH1 0x0 KECCAK256 PUSH1 0x0 SWAP2 POP SWAP2 POP POP SLOAD DUP2 JUMP JUMPDEST PUSH1 0x0 PUSH32 0x8B73C3C69BB8FE3D512ECC4CF759CC79239F7B179B0FFACAA9A75D522B39400F PUSH1 0x0 PUSH1 0x40 MLOAD PUSH2 0xC43 SWAP2 SWAP1 PUSH2 0x10E6 JUMP JUMPDEST PUSH1 0x40 MLOAD DUP1 SWAP2 SUB SWAP1 KECCAK256 PUSH32 0xC89EFDAA54C0F20C7ADF612882DF0950F5A951637E0307CDCB4C672F298B8BC6 CHAINID ADDRESS PUSH1 0x40 MLOAD PUSH1 0x20 ADD PUSH2 0xC82 SWAP6 SWAP5 SWAP4 SWAP3 SWAP2 SWAP1 PUSH2 0x11CB JUMP JUMPDEST PUSH1 0x40 MLOAD PUSH1 0x20 DUP2 DUP4 SUB SUB DUP2 MSTORE SWAP1 PUSH1 0x40 MSTORE DUP1 MLOAD SWAP1 PUSH1 0x20 ADD KECCAK256 SWAP1 POP SWAP1 JUMP JUMPDEST DUP1 PUSH1 0x2 PUSH1 0x0 DUP3 DUP3 SLOAD PUSH2 0xCAF SWAP2 SWAP1 PUSH2 0x1342 JUMP JUMPDEST SWAP3 POP POP DUP2 SWAP1 SSTORE POP DUP1 PUSH1 0x3 PUSH1 0x0 DUP5 PUSH20 0xFFFFFFFFFFFFFFFFFFFFFFFFFFFFFFFFFFFFFFFF AND PUSH20 0xFFFFFFFFFFFFFFFFFFFFFFFFFFFFFFFFFFFFFFFF AND DUP2 MSTORE PUSH1 0x20 ADD SWAP1 DUP2 MSTORE PUSH1 0x20 ADD PUSH1 0x0 KECCAK256 PUSH1 0x0 DUP3 DUP3 SLOAD ADD SWAP3 POP POP DUP2 SWAP1 SSTORE POP DUP2 PUSH20 0xFFFFFFFFFFFFFFFFFFFFFFFFFFFFFFFFFFFFFFFF AND PUSH1 0x0 PUSH20 0xFFFFFFFFFFFFFFFFFFFFFFFFFFFFFFFFFFFFFFFF AND PUSH32 0xDDF252AD1BE2C89B69C2B068FC378DAA952BA7F163C4A11628F55A4DF523B3EF DUP4 PUSH1 0x40 MLOAD PUSH2 0xD61 SWAP2 SWAP1 PUSH2 0x12C5 JUMP JUMPDEST PUSH1 0x40 MLOAD DUP1 SWAP2 SUB SWAP1 LOG3 POP POP JUMP JUMPDEST PUSH1 0x0 DUP2 CALLDATALOAD SWAP1 POP PUSH2 0xD7C DUP2 PUSH2 0x1589 JUMP JUMPDEST SWAP3 SWAP2 POP POP JUMP JUMPDEST PUSH1 0x0 DUP2 CALLDATALOAD SWAP1 POP PUSH2 0xD91 DUP2 PUSH2 0x15A0 JUMP JUMPDEST SWAP3 SWAP2 POP POP JUMP JUMPDEST PUSH1 0x0 DUP2 CALLDATALOAD SWAP1 POP PUSH2 0xDA6 DUP2 PUSH2 0x15B7 JUMP JUMPDEST SWAP3 SWAP2 POP POP JUMP JUMPDEST PUSH1 0x0 DUP2 CALLDATALOAD SWAP1 POP PUSH2 0xDBB DUP2 PUSH2 0x15CE JUMP JUMPDEST SWAP3 SWAP2 POP POP JUMP JUMPDEST PUSH1 0x0 PUSH1 0x20 DUP3 DUP5 SUB SLT ISZERO PUSH2 0xDD7 JUMPI PUSH2 0xDD6 PUSH2 0x14F8 JUMP JUMPDEST JUMPDEST PUSH1 0x0 PUSH2 0xDE5 DUP5 DUP3 DUP6 ADD PUSH2 0xD6D JUMP JUMPDEST SWAP2 POP POP SWAP3 SWAP2 POP POP JUMP JUMPDEST PUSH1 0x0 DUP1 PUSH1 0x40 DUP4 DUP6 SUB SLT ISZERO PUSH2 0xE05 JUMPI PUSH2 0xE04 PUSH2 0x14F8 JUMP JUMPDEST JUMPDEST PUSH1 0x0 PUSH2 0xE13 DUP6 DUP3 DUP7 ADD PUSH2 0xD6D JUMP JUMPDEST SWAP3 POP POP PUSH1 0x20 PUSH2 0xE24 DUP6 DUP3 DUP7 ADD PUSH2 0xD6D JUMP JUMPDEST SWAP2 POP POP SWAP3 POP SWAP3 SWAP1 POP JUMP JUMPDEST PUSH1 0x0 DUP1 PUSH1 0x0 PUSH1 0x60 DUP5 DUP7 SUB SLT ISZERO PUSH2 0xE47 JUMPI PUSH2 0xE46 PUSH2 0x14F8 JUMP JUMPDEST JUMPDEST PUSH1 0x0 PUSH2 0xE55 DUP7 DUP3 DUP8 ADD PUSH2 0xD6D JUMP JUMPDEST SWAP4 POP POP PUSH1 0x20 PUSH2 0xE66 DUP7 DUP3 DUP8 ADD PUSH2 0xD6D JUMP JUMPDEST SWAP3 POP POP PUSH1 0x40 PUSH2 0xE77 DUP7 DUP3 DUP8 ADD PUSH2 0xD97 JUMP JUMPDEST SWAP2 POP POP SWAP3 POP SWAP3 POP SWAP3 JUMP JUMPDEST PUSH1 0x0 DUP1 PUSH1 0x0 DUP1 PUSH1 0x0 DUP1 PUSH1 0x0 PUSH1 0xE0 DUP9 DUP11 SUB SLT ISZERO PUSH2 0xEA0 JUMPI PUSH2 0xE9F PUSH2 0x14F8 JUMP JUMPDEST JUMPDEST PUSH1 0x0 PUSH2 0xEAE DUP11 DUP3 DUP12 ADD PUSH2 0xD6D JUMP JUMPDEST SWAP8 POP POP PUSH1 0x20 PUSH2 0xEBF DUP11 DUP3 DUP12 ADD PUSH2 0xD6D JUMP JUMPDEST SWAP7 POP POP PUSH1 0x40 PUSH2 0xED0 DUP11 DUP3 DUP12 ADD PUSH2 0xD97 JUMP JUMPDEST SWAP6 POP POP PUSH1 0x60 PUSH2 0xEE1 DUP11 DUP3 DUP12 ADD PUSH2 0xD97 JUMP JUMPDEST SWAP5 POP POP PUSH1 0x80 PUSH2 0xEF2 DUP11 DUP3 DUP12 ADD PUSH2 0xDAC JUMP JUMPDEST SWAP4 POP POP PUSH1 0xA0 PUSH2 0xF03 DUP11 DUP3 DUP12 ADD PUSH2 0xD82 JUMP JUMPDEST SWAP3 POP POP PUSH1 0xC0 PUSH2 0xF14 DUP11 DUP3 DUP12 ADD PUSH2 0xD82 JUMP JUMPDEST SWAP2 POP POP SWAP3 SWAP6 SWAP9 SWAP2 SWAP5 SWAP8 POP SWAP3 SWAP6 POP JUMP JUMPDEST PUSH1 0x0 DUP1 PUSH1 0x40 DUP4 DUP6 SUB SLT ISZERO PUSH2 0xF3A JUMPI PUSH2 0xF39 PUSH2 0x14F8 JUMP JUMPDEST JUMPDEST PUSH1 0x0 PUSH2 0xF48 DUP6 DUP3 DUP7 ADD PUSH2 0xD6D JUMP JUMPDEST SWAP3 POP POP PUSH1 0x20 PUSH2 0xF59 DUP6 DUP3 DUP7 ADD PUSH2 0xD97 JUMP JUMPDEST SWAP2 POP POP SWAP3 POP SWAP3 SWAP1 POP JUMP JUMPDEST PUSH2 0xF6C DUP2 PUSH2 0x13CC JUMP JUMPDEST DUP3 MSTORE POP POP JUMP JUMPDEST PUSH2 0xF7B DUP2 PUSH2 0x13DE JUMP JUMPDEST DUP3 MSTORE POP POP JUMP JUMPDEST PUSH2 0xF8A DUP2 PUSH2 0x13EA JUMP JUMPDEST DUP3 MSTORE POP POP JUMP JUMPDEST PUSH2 0xFA1 PUSH2 0xF9C DUP3 PUSH2 0x13EA JUMP JUMPDEST PUSH2 0x1490 JUMP JUMPDEST DUP3 MSTORE POP POP JUMP JUMPDEST PUSH1 0x0 DUP2 SLOAD PUSH2 0xFB4 DUP2 PUSH2 0x145E JUMP JUMPDEST PUSH2 0xFBE DUP2 DUP7 PUSH2 0x131B JUMP JUMPDEST SWAP5 POP PUSH1 0x1 DUP3 AND PUSH1 0x0 DUP2 EQ PUSH2 0xFD9 JUMPI PUSH1 0x1 DUP2 EQ PUSH2 0xFEA JUMPI PUSH2 0x101D JUMP JUMPDEST PUSH1 0xFF NOT DUP4 AND DUP7 MSTORE DUP2 DUP7 ADD SWAP4 POP PUSH2 0x101D JUMP JUMPDEST PUSH2 0xFF3 DUP6 PUSH2 0x12FB JUMP JUMPDEST PUSH1 0x0 JUMPDEST DUP4 DUP2 LT ISZERO PUSH2 0x1015 JUMPI DUP2 SLOAD DUP2 DUP10 ADD MSTORE PUSH1 0x1 DUP3 ADD SWAP2 POP PUSH1 0x20 DUP2 ADD SWAP1 POP PUSH2 0xFF6 JUMP JUMPDEST DUP4 DUP9 ADD SWAP6 POP POP POP JUMPDEST POP POP POP SWAP3 SWAP2 POP POP JUMP JUMPDEST PUSH1 0x0 PUSH2 0x1031 DUP3 PUSH2 0x1310 JUMP JUMPDEST PUSH2 0x103B DUP2 DUP6 PUSH2 0x1326 JUMP JUMPDEST SWAP4 POP PUSH2 0x104B DUP2 DUP6 PUSH1 0x20 DUP7 ADD PUSH2 0x142B JUMP JUMPDEST PUSH2 0x1054 DUP2 PUSH2 0x14FD JUMP JUMPDEST DUP5 ADD SWAP2 POP POP SWAP3 SWAP2 POP POP JUMP JUMPDEST PUSH1 0x0 PUSH2 0x106C PUSH1 0x2 DUP4 PUSH2 0x1337 JUMP JUMPDEST SWAP2 POP PUSH2 0x1077 DUP3 PUSH2 0x150E JUMP JUMPDEST PUSH1 0x2 DUP3 ADD SWAP1 POP SWAP2 SWAP1 POP JUMP JUMPDEST PUSH1 0x0 PUSH2 0x108F PUSH1 0xE DUP4 PUSH2 0x1326 JUMP JUMPDEST SWAP2 POP PUSH2 0x109A DUP3 PUSH2 0x1537 JUMP JUMPDEST PUSH1 0x20 DUP3 ADD SWAP1 POP SWAP2 SWAP1 POP JUMP JUMPDEST PUSH1 0x0 PUSH2 0x10B2 PUSH1 0x17 DUP4 PUSH2 0x1326 JUMP JUMPDEST SWAP2 POP PUSH2 0x10BD DUP3 PUSH2 0x1560 JUMP JUMPDEST PUSH1 0x20 DUP3 ADD SWAP1 POP SWAP2 SWAP1 POP JUMP JUMPDEST PUSH2 0x10D1 DUP2 PUSH2 0x1414 JUMP JUMPDEST DUP3 MSTORE POP POP JUMP JUMPDEST PUSH2 0x10E0 DUP2 PUSH2 0x141E JUMP JUMPDEST DUP3 MSTORE POP POP JUMP JUMPDEST PUSH1 0x0 PUSH2 0x10F2 DUP3 DUP5 PUSH2 0xFA7 JUMP JUMPDEST SWAP2 POP DUP2 SWAP1 POP SWAP3 SWAP2 POP POP JUMP JUMPDEST PUSH1 0x0 PUSH2 0x1108 DUP3 PUSH2 0x105F JUMP JUMPDEST SWAP2 POP PUSH2 0x1114 DUP3 DUP6 PUSH2 0xF90 JUMP JUMPDEST PUSH1 0x20 DUP3 ADD SWAP2 POP PUSH2 0x1124 DUP3 DUP5 PUSH2 0xF90 JUMP JUMPDEST PUSH1 0x20 DUP3 ADD SWAP2 POP DUP2 SWAP1 POP SWAP4 SWAP3 POP POP POP JUMP JUMPDEST PUSH1 0x0 PUSH1 0x20 DUP3 ADD SWAP1 POP PUSH2 0x1149 PUSH1 0x0 DUP4 ADD DUP5 PUSH2 0xF72 JUMP JUMPDEST SWAP3 SWAP2 POP POP JUMP JUMPDEST PUSH1 0x0 PUSH1 0x20 DUP3 ADD SWAP1 POP PUSH2 0x1164 PUSH1 0x0 DUP4 ADD DUP5 PUSH2 0xF81 JUMP JUMPDEST SWAP3 SWAP2 POP POP JUMP JUMPDEST PUSH1 0x0 PUSH1 0xC0 DUP3 ADD SWAP1 POP PUSH2 0x117F PUSH1 0x0 DUP4 ADD DUP10 PUSH2 0xF81 JUMP JUMPDEST PUSH2 0x118C PUSH1 0x20 DUP4 ADD DUP9 PUSH2 0xF63 JUMP JUMPDEST PUSH2 0x1199 PUSH1 0x40 DUP4 ADD DUP8 PUSH2 0xF63 JUMP JUMPDEST PUSH2 0x11A6 PUSH1 0x60 DUP4 ADD DUP7 PUSH2 0x10C8 JUMP JUMPDEST PUSH2 0x11B3 PUSH1 0x80 DUP4 ADD DUP6 PUSH2 0x10C8 JUMP JUMPDEST PUSH2 0x11C0 PUSH1 0xA0 DUP4 ADD DUP5 PUSH2 0x10C8 JUMP JUMPDEST SWAP8 SWAP7 POP POP POP POP POP POP POP JUMP JUMPDEST PUSH1 0x0 PUSH1 0xA0 DUP3 ADD SWAP1 POP PUSH2 0x11E0 PUSH1 0x0 DUP4 ADD DUP9 PUSH2 0xF81 JUMP JUMPDEST PUSH2 0x11ED PUSH1 0x20 DUP4 ADD DUP8 PUSH2 0xF81 JUMP JUMPDEST PUSH2 0x11FA PUSH1 0x40 DUP4 ADD DUP7 PUSH2 0xF81 JUMP JUMPDEST PUSH2 0x1207 PUSH1 0x60 DUP4 ADD DUP6 PUSH2 0x10C8 JUMP JUMPDEST PUSH2 0x1214 PUSH1 0x80 DUP4 ADD DUP5 PUSH2 0xF63 JUMP JUMPDEST SWAP7 SWAP6 POP POP POP POP POP POP JUMP JUMPDEST PUSH1 0x0 PUSH1 0x80 DUP3 ADD SWAP1 POP PUSH2 0x1233 PUSH1 0x0 DUP4 ADD DUP8 PUSH2 0xF81 JUMP JUMPDEST PUSH2 0x1240 PUSH1 0x20 DUP4 ADD DUP7 PUSH2 0x10D7 JUMP JUMPDEST PUSH2 0x124D PUSH1 0x40 DUP4 ADD DUP6 PUSH2 0xF81 JUMP JUMPDEST PUSH2 0x125A PUSH1 0x60 DUP4 ADD DUP5 PUSH2 0xF81 JUMP JUMPDEST SWAP6 SWAP5 POP POP POP POP POP JUMP JUMPDEST PUSH1 0x0 PUSH1 0x20 DUP3 ADD SWAP1 POP DUP2 DUP2 SUB PUSH1 0x0 DUP4 ADD MSTORE PUSH2 0x127D DUP2 DUP5 PUSH2 0x1026 JUMP JUMPDEST SWAP1 POP SWAP3 SWAP2 POP POP JUMP JUMPDEST PUSH1 0x0 PUSH1 0x20 DUP3 ADD SWAP1 POP DUP2 DUP2 SUB PUSH1 0x0 DUP4 ADD MSTORE PUSH2 0x129E DUP2 PUSH2 0x1082 JUMP JUMPDEST SWAP1 POP SWAP2 SWAP1 POP JUMP JUMPDEST PUSH1 0x0 PUSH1 0x20 DUP3 ADD SWAP1 POP DUP2 DUP2 SUB PUSH1 0x0 DUP4 ADD MSTORE PUSH2 0x12BE DUP2 PUSH2 0x10A5 JUMP JUMPDEST SWAP1 POP SWAP2 SWAP1 POP JUMP JUMPDEST PUSH1 0x0 PUSH1 0x20 DUP3 ADD SWAP1 POP PUSH2 0x12DA PUSH1 0x0 DUP4 ADD DUP5 PUSH2 0x10C8 JUMP JUMPDEST SWAP3 SWAP2 POP POP JUMP JUMPDEST PUSH1 0x0 PUSH1 0x20 DUP3 ADD SWAP1 POP PUSH2 0x12F5 PUSH1 0x0 DUP4 ADD DUP5 PUSH2 0x10D7 JUMP JUMPDEST SWAP3 SWAP2 POP POP JUMP JUMPDEST PUSH1 0x0 DUP2 SWAP1 POP DUP2 PUSH1 0x0 MSTORE PUSH1 0x20 PUSH1 0x0 KECCAK256 SWAP1 POP SWAP2 SWAP1 POP JUMP JUMPDEST PUSH1 0x0 DUP2 MLOAD SWAP1 POP SWAP2 SWAP1 POP JUMP JUMPDEST PUSH1 0x0 DUP2 SWAP1 POP SWAP3 SWAP2 POP POP JUMP JUMPDEST PUSH1 0x0 DUP3 DUP3 MSTORE PUSH1 0x20 DUP3 ADD SWAP1 POP SWAP3 SWAP2 POP POP JUMP JUMPDEST PUSH1 0x0 DUP2 SWAP1 POP SWAP3 SWAP2 POP POP JUMP JUMPDEST PUSH1 0x0 PUSH2 0x134D DUP3 PUSH2 0x1414 JUMP JUMPDEST SWAP2 POP PUSH2 0x1358 DUP4 PUSH2 0x1414 JUMP JUMPDEST SWAP3 POP DUP3 PUSH32 0xFFFFFFFFFFFFFFFFFFFFFFFFFFFFFFFFFFFFFFFFFFFFFFFFFFFFFFFFFFFFFFFF SUB DUP3 GT ISZERO PUSH2 0x138D JUMPI PUSH2 0x138C PUSH2 0x149A JUMP JUMPDEST JUMPDEST DUP3 DUP3 ADD SWAP1 POP SWAP3 SWAP2 POP POP JUMP JUMPDEST PUSH1 0x0 PUSH2 0x13A3 DUP3 PUSH2 0x1414 JUMP JUMPDEST SWAP2 POP PUSH2 0x13AE DUP4 PUSH2 0x1414 JUMP JUMPDEST SWAP3 POP DUP3 DUP3 LT ISZERO PUSH2 0x13C1 JUMPI PUSH2 0x13C0 PUSH2 0x149A JUMP JUMPDEST JUMPDEST DUP3 DUP3 SUB SWAP1 POP SWAP3 SWAP2 POP POP JUMP JUMPDEST PUSH1 0x0 PUSH2 0x13D7 DUP3 PUSH2 0x13F4 JUMP JUMPDEST SWAP1 POP SWAP2 SWAP1 POP JUMP JUMPDEST PUSH1 0x0 DUP2 ISZERO ISZERO SWAP1 POP SWAP2 SWAP1 POP JUMP JUMPDEST PUSH1 0x0 DUP2 SWAP1 POP SWAP2 SWAP1 POP JUMP JUMPDEST PUSH1 0x0 PUSH20 0xFFFFFFFFFFFFFFFFFFFFFFFFFFFFFFFFFFFFFFFF DUP3 AND SWAP1 POP SWAP2 SWAP1 POP JUMP JUMPDEST PUSH1 0x0 DUP2 SWAP1 POP SWAP2 SWAP1 POP JUMP JUMPDEST PUSH1 0x0 PUSH1 0xFF DUP3 AND SWAP1 POP SWAP2 SWAP1 POP JUMP JUMPDEST PUSH1 0x0 JUMPDEST DUP4 DUP2 LT ISZERO PUSH2 0x1449 JUMPI DUP1 DUP3 ADD MLOAD DUP2 DUP5 ADD MSTORE PUSH1 0x20 DUP2 ADD SWAP1 POP PUSH2 0x142E JUMP JUMPDEST DUP4 DUP2 GT ISZERO PUSH2 0x1458 JUMPI PUSH1 0x0 DUP5 DUP5 ADD MSTORE JUMPDEST POP POP POP POP JUMP JUMPDEST PUSH1 0x0 PUSH1 0x2 DUP3 DIV SWAP1 POP PUSH1 0x1 DUP3 AND DUP1 PUSH2 0x1476 JUMPI PUSH1 0x7F DUP3 AND SWAP2 POP JUMPDEST PUSH1 0x20 DUP3 LT DUP2 EQ ISZERO PUSH2 0x148A JUMPI PUSH2 0x1489 PUSH2 0x14C9 JUMP JUMPDEST JUMPDEST POP SWAP2 SWAP1 POP JUMP JUMPDEST PUSH1 0x0 DUP2 SWAP1 POP SWAP2 SWAP1 POP JUMP JUMPDEST PUSH32 0x4E487B7100000000000000000000000000000000000000000000000000000000 PUSH1 0x0 MSTORE PUSH1 0x11 PUSH1 0x4 MSTORE PUSH1 0x24 PUSH1 0x0 REVERT JUMPDEST PUSH32 0x4E487B7100000000000000000000000000000000000000000000000000000000 PUSH1 0x0 MSTORE PUSH1 0x22 PUSH1 0x4 MSTORE PUSH1 0x24 PUSH1 0x0 REVERT JUMPDEST PUSH1 0x0 DUP1 REVERT JUMPDEST PUSH1 0x0 PUSH1 0x1F NOT PUSH1 0x1F DUP4 ADD AND SWAP1 POP SWAP2 SWAP1 POP JUMP JUMPDEST PUSH32 0x1901000000000000000000000000000000000000000000000000000000000000 PUSH1 0x0 DUP3 ADD MSTORE POP JUMP JUMPDEST PUSH32 0x494E56414C49445F5349474E4552000000000000000000000000000000000000 PUSH1 0x0 DUP3 ADD MSTORE POP JUMP JUMPDEST PUSH32 0x5045524D49545F444541444C494E455F45585049524544000000000000000000 PUSH1 0x0 DUP3 ADD MSTORE POP JUMP JUMPDEST PUSH2 0x1592 DUP2 PUSH2 0x13CC JUMP JUMPDEST DUP2 EQ PUSH2 0x159D JUMPI PUSH1 0x0 DUP1 REVERT JUMPDEST POP JUMP JUMPDEST PUSH2 0x15A9 DUP2 PUSH2 0x13EA JUMP JUMPDEST DUP2 EQ PUSH2 0x15B4 JUMPI PUSH1 0x0 DUP1 REVERT JUMPDEST POP JUMP JUMPDEST PUSH2 0x15C0 DUP2 PUSH2 0x1414 JUMP JUMPDEST DUP2 EQ PUSH2 0x15CB JUMPI PUSH1 0x0 DUP1 REVERT JUMPDEST POP JUMP JUMPDEST PUSH2 0x15D7 DUP2 PUSH2 0x141E JUMP JUMPDEST DUP2 EQ PUSH2 0x15E2 JUMPI PUSH1 0x0 DUP1 REVERT JUMPDEST POP JUMP INVALID LOG2 PUSH5 0x6970667358 0x22 SLT KECCAK256 JUMP DUP15 SWAP3 0xBF SWAP11 SWAP9 PUSH10 0x6987A17743FB6897EB3F 0xCD RETURN SWAP3 0xCD 0xC3 DUP3 0x5F OR 0xAB CALLCODE ADDRESS 0xCF 0xA6 CALLCODE 0xC2 PUSH5 0x736F6C6343 STOP ADDMOD SMOD STOP CALLER "
				},
				"gasEstimates": {
					"creation": {
						"codeDepositCost": "1131800",
						"executionCost": "infinite",
						"totalCost": "infinite"
					},
					"external": {
						"DOMAIN_SEPARATOR()": "infinite",
						"allowance(address,address)": "infinite",
						"approve(address,uint256)": "infinite",
						"balanceOf(address)": "2859",
						"decimals()": "infinite",
						"mint(address,uint256)": "infinite",
						"name()": "infinite",
						"nonces(address)": "2881",
						"permit(address,address,uint256,uint256,uint8,bytes32,bytes32)": "infinite",
						"symbol()": "infinite",
						"totalSupply()": "2474",
						"transfer(address,uint256)": "infinite",
						"transferFrom(address,address,uint256)": "infinite"
					}
				},
				"methodIdentifiers": {
					"DOMAIN_SEPARATOR()": "3644e515",
					"allowance(address,address)": "dd62ed3e",
					"approve(address,uint256)": "095ea7b3",
					"balanceOf(address)": "70a08231",
					"decimals()": "313ce567",
					"mint(address,uint256)": "40c10f19",
					"name()": "06fdde03",
					"nonces(address)": "7ecebe00",
					"permit(address,address,uint256,uint256,uint8,bytes32,bytes32)": "d505accf",
					"symbol()": "95d89b41",
					"totalSupply()": "18160ddd",
					"transfer(address,uint256)": "a9059cbb",
					"transferFrom(address,address,uint256)": "23b872dd"
				}
			},
			"storageLayout": {
				"storage": [
					{
						"astId": 48,
						"contract": "CONTRACTS/Token.sol:ApeCoin",
						"label": "name",
						"offset": 0,
						"slot": "0",
						"type": "t_string_storage"
					},
					{
						"astId": 50,
						"contract": "CONTRACTS/Token.sol:ApeCoin",
						"label": "symbol",
						"offset": 0,
						"slot": "1",
						"type": "t_string_storage"
					},
					{
						"astId": 54,
						"contract": "CONTRACTS/Token.sol:ApeCoin",
						"label": "totalSupply",
						"offset": 0,
						"slot": "2",
						"type": "t_uint256"
					},
					{
						"astId": 58,
						"contract": "CONTRACTS/Token.sol:ApeCoin",
						"label": "balanceOf",
						"offset": 0,
						"slot": "3",
						"type": "t_mapping(t_address,t_uint256)"
					},
					{
						"astId": 64,
						"contract": "CONTRACTS/Token.sol:ApeCoin",
						"label": "allowance",
						"offset": 0,
						"slot": "4",
						"type": "t_mapping(t_address,t_mapping(t_address,t_uint256))"
					},
					{
						"astId": 72,
						"contract": "CONTRACTS/Token.sol:ApeCoin",
						"label": "nonces",
						"offset": 0,
						"slot": "5",
						"type": "t_mapping(t_address,t_uint256)"
					}
				],
				"types": {
					"t_address": {
						"encoding": "inplace",
						"label": "address",
						"numberOfBytes": "20"
					},
					"t_mapping(t_address,t_mapping(t_address,t_uint256))": {
						"encoding": "mapping",
						"key": "t_address",
						"label": "mapping(address => mapping(address => uint256))",
						"numberOfBytes": "32",
						"value": "t_mapping(t_address,t_uint256)"
					},
					"t_mapping(t_address,t_uint256)": {
						"encoding": "mapping",
						"key": "t_address",
						"label": "mapping(address => uint256)",
						"numberOfBytes": "32",
						"value": "t_uint256"
					},
					"t_string_storage": {
						"encoding": "bytes",
						"label": "string",
						"numberOfBytes": "32"
					},
					"t_uint256": {
						"encoding": "inplace",
						"label": "uint256",
						"numberOfBytes": "32"
					}
				}
			},
			"userdoc": {
				"kind": "user",
				"methods": {},
				"version": 1
			}
		}
	}
}