{
	"CONTRACTS/verifysig.sol": {
		"VerifySignature": {
			"abi": [
				{
					"inputs": [
						{
							"internalType": "bytes32",
							"name": "_messageHash",
							"type": "bytes32"
						}
					],
					"name": "getEthSignedMessageHash",
					"outputs": [
						{
							"internalType": "bytes32",
							"name": "",
							"type": "bytes32"
						}
					],
					"stateMutability": "pure",
					"type": "function"
				},
				{
					"inputs": [
						{
							"internalType": "address",
							"name": "_to",
							"type": "address"
						},
						{
							"internalType": "uint256",
							"name": "_amount",
							"type": "uint256"
						}
					],
					"name": "getMessageHash",
					"outputs": [
						{
							"internalType": "bytes32",
							"name": "",
							"type": "bytes32"
						}
					],
					"stateMutability": "pure",
					"type": "function"
				},
				{
					"inputs": [
						{
							"internalType": "bytes32",
							"name": "_ethSignedMessageHash",
							"type": "bytes32"
						},
						{
							"internalType": "bytes",
							"name": "_signature",
							"type": "bytes"
						}
					],
					"name": "recoverSigner",
					"outputs": [
						{
							"internalType": "address",
							"name": "",
							"type": "address"
						}
					],
					"stateMutability": "pure",
					"type": "function"
				},
				{
					"inputs": [
						{
							"internalType": "bytes",
							"name": "sig",
							"type": "bytes"
						}
					],
					"name": "splitSignature",
					"outputs": [
						{
							"internalType": "bytes32",
							"name": "r",
							"type": "bytes32"
						},
						{
							"internalType": "bytes32",
							"name": "s",
							"type": "bytes32"
						},
						{
							"internalType": "uint8",
							"name": "v",
							"type": "uint8"
						}
					],
					"stateMutability": "pure",
					"type": "function"
				},
				{
					"inputs": [
						{
							"internalType": "address",
							"name": "_signer",
							"type": "address"
						},
						{
							"internalType": "address",
							"name": "_to",
							"type": "address"
						},
						{
							"internalType": "uint256",
							"name": "_amount",
							"type": "uint256"
						},
						{
							"internalType": "bytes",
							"name": "signature",
							"type": "bytes"
						}
					],
					"name": "verify",
					"outputs": [
						{
							"internalType": "bool",
							"name": "",
							"type": "bool"
						}
					],
					"stateMutability": "pure",
					"type": "function"
				}
			],
			"devdoc": {
				"kind": "dev",
				"methods": {},
				"version": 1
			},
			"evm": {
				"assembly": "    /* \"CONTRACTS/verifysig.sol\":368:3697  contract VerifySignature {... */\n  mstore(0x40, 0x80)\n  callvalue\n  dup1\n  iszero\n  tag_1\n  jumpi\n  0x00\n  dup1\n  revert\ntag_1:\n  pop\n  dataSize(sub_0)\n  dup1\n  dataOffset(sub_0)\n  0x00\n  codecopy\n  0x00\n  return\nstop\n\nsub_0: assembly {\n        /* \"CONTRACTS/verifysig.sol\":368:3697  contract VerifySignature {... */\n      mstore(0x40, 0x80)\n      callvalue\n      dup1\n      iszero\n      tag_1\n      jumpi\n      0x00\n      dup1\n      revert\n    tag_1:\n      pop\n      jumpi(tag_2, lt(calldatasize, 0x04))\n      shr(0xe0, calldataload(0x00))\n      dup1\n      0x512c91df\n      eq\n      tag_3\n      jumpi\n      dup1\n      0x93e9f8fc\n      eq\n      tag_4\n      jumpi\n      dup1\n      0x97aba7f9\n      eq\n      tag_5\n      jumpi\n      dup1\n      0xa7bb5803\n      eq\n      tag_6\n      jumpi\n      dup1\n      0xfa540801\n      eq\n      tag_7\n      jumpi\n    tag_2:\n      0x00\n      dup1\n      revert\n        /* \"CONTRACTS/verifysig.sol\":716:901  function getMessageHash(... */\n    tag_3:\n      tag_8\n      0x04\n      dup1\n      calldatasize\n      sub\n      dup2\n      add\n      swap1\n      tag_9\n      swap2\n      swap1\n      tag_10\n      jump\t// in\n    tag_9:\n      tag_11\n      jump\t// in\n    tag_8:\n      mload(0x40)\n      tag_12\n      swap2\n      swap1\n      tag_13\n      jump\t// in\n    tag_12:\n      mload(0x40)\n      dup1\n      swap2\n      sub\n      swap1\n      return\n        /* \"CONTRACTS/verifysig.sol\":2172:2549  function verify(... */\n    tag_4:\n      tag_14\n      0x04\n      dup1\n      calldatasize\n      sub\n      dup2\n      add\n      swap1\n      tag_15\n      swap2\n      swap1\n      tag_16\n      jump\t// in\n    tag_15:\n      tag_17\n      jump\t// in\n    tag_14:\n      mload(0x40)\n      tag_18\n      swap2\n      swap1\n      tag_19\n      jump\t// in\n    tag_18:\n      mload(0x40)\n      dup1\n      swap2\n      sub\n      swap1\n      return\n        /* \"CONTRACTS/verifysig.sol\":2555:2828  function recoverSigner(bytes32 _ethSignedMessageHash, bytes memory _signature)... */\n    tag_5:\n      tag_20\n      0x04\n      dup1\n      calldatasize\n      sub\n      dup2\n      add\n      swap1\n      tag_21\n      swap2\n      swap1\n      tag_22\n      jump\t// in\n    tag_21:\n      tag_23\n      jump\t// in\n    tag_20:\n      mload(0x40)\n      tag_24\n      swap2\n      swap1\n      tag_25\n      jump\t// in\n    tag_24:\n      mload(0x40)\n      dup1\n      swap2\n      sub\n      swap1\n      return\n        /* \"CONTRACTS/verifysig.sol\":2834:3695  function splitSignature(bytes memory sig)... */\n    tag_6:\n      tag_26\n      0x04\n      dup1\n      calldatasize\n      sub\n      dup2\n      add\n      swap1\n      tag_27\n      swap2\n      swap1\n      tag_28\n      jump\t// in\n    tag_27:\n      tag_29\n      jump\t// in\n    tag_26:\n      mload(0x40)\n      tag_30\n      swap4\n      swap3\n      swap2\n      swap1\n      tag_31\n      jump\t// in\n    tag_30:\n      mload(0x40)\n      dup1\n      swap2\n      sub\n      swap1\n      return\n        /* \"CONTRACTS/verifysig.sol\":1382:1802  function getEthSignedMessageHash(bytes32 _messageHash)... */\n    tag_7:\n      tag_32\n      0x04\n      dup1\n      calldatasize\n      sub\n      dup2\n      add\n      swap1\n      tag_33\n      swap2\n      swap1\n      tag_34\n      jump\t// in\n    tag_33:\n      tag_35\n      jump\t// in\n    tag_32:\n      mload(0x40)\n      tag_36\n      swap2\n      swap1\n      tag_13\n      jump\t// in\n    tag_36:\n      mload(0x40)\n      dup1\n      swap2\n      sub\n      swap1\n      return\n        /* \"CONTRACTS/verifysig.sol\":716:901  function getMessageHash(... */\n    tag_11:\n        /* \"CONTRACTS/verifysig.sol\":827:834  bytes32 */\n      0x00\n        /* \"CONTRACTS/verifysig.sol\":880:883  _to */\n      dup3\n        /* \"CONTRACTS/verifysig.sol\":885:892  _amount */\n      dup3\n        /* \"CONTRACTS/verifysig.sol\":863:893  abi.encodePacked(_to, _amount) */\n      add(0x20, mload(0x40))\n      tag_38\n      swap3\n      swap2\n      swap1\n      tag_39\n      jump\t// in\n    tag_38:\n      mload(0x40)\n      0x20\n      dup2\n      dup4\n      sub\n      sub\n      dup2\n      mstore\n      swap1\n      0x40\n      mstore\n        /* \"CONTRACTS/verifysig.sol\":853:894  keccak256(abi.encodePacked(_to, _amount)) */\n      dup1\n      mload\n      swap1\n      0x20\n      add\n      keccak256\n        /* \"CONTRACTS/verifysig.sol\":846:894  return keccak256(abi.encodePacked(_to, _amount)) */\n      swap1\n      pop\n        /* \"CONTRACTS/verifysig.sol\":716:901  function getMessageHash(... */\n      swap3\n      swap2\n      pop\n      pop\n      jump\t// out\n        /* \"CONTRACTS/verifysig.sol\":2172:2549  function verify(... */\n    tag_17:\n        /* \"CONTRACTS/verifysig.sol\":2324:2328  bool */\n      0x00\n        /* \"CONTRACTS/verifysig.sol\":2340:2359  bytes32 messageHash */\n      dup1\n        /* \"CONTRACTS/verifysig.sol\":2362:2390  getMessageHash(_to, _amount) */\n      tag_41\n        /* \"CONTRACTS/verifysig.sol\":2377:2380  _to */\n      dup6\n        /* \"CONTRACTS/verifysig.sol\":2382:2389  _amount */\n      dup6\n        /* \"CONTRACTS/verifysig.sol\":2362:2376  getMessageHash */\n      tag_11\n        /* \"CONTRACTS/verifysig.sol\":2362:2390  getMessageHash(_to, _amount) */\n      jump\t// in\n    tag_41:\n        /* \"CONTRACTS/verifysig.sol\":2340:2390  bytes32 messageHash = getMessageHash(_to, _amount) */\n      swap1\n      pop\n        /* \"CONTRACTS/verifysig.sol\":2400:2428  bytes32 ethSignedMessageHash */\n      0x00\n        /* \"CONTRACTS/verifysig.sol\":2431:2467  getEthSignedMessageHash(messageHash) */\n      tag_42\n        /* \"CONTRACTS/verifysig.sol\":2455:2466  messageHash */\n      dup3\n        /* \"CONTRACTS/verifysig.sol\":2431:2454  getEthSignedMessageHash */\n      tag_35\n        /* \"CONTRACTS/verifysig.sol\":2431:2467  getEthSignedMessageHash(messageHash) */\n      jump\t// in\n    tag_42:\n        /* \"CONTRACTS/verifysig.sol\":2400:2467  bytes32 ethSignedMessageHash = getEthSignedMessageHash(messageHash) */\n      swap1\n      pop\n        /* \"CONTRACTS/verifysig.sol\":2535:2542  _signer */\n      dup7\n        /* \"CONTRACTS/verifysig.sol\":2485:2542  recoverSigner(ethSignedMessageHash, signature) == _signer */\n      0xffffffffffffffffffffffffffffffffffffffff\n      and\n        /* \"CONTRACTS/verifysig.sol\":2485:2531  recoverSigner(ethSignedMessageHash, signature) */\n      tag_43\n        /* \"CONTRACTS/verifysig.sol\":2499:2519  ethSignedMessageHash */\n      dup3\n        /* \"CONTRACTS/verifysig.sol\":2521:2530  signature */\n      dup7\n        /* \"CONTRACTS/verifysig.sol\":2485:2498  recoverSigner */\n      tag_23\n        /* \"CONTRACTS/verifysig.sol\":2485:2531  recoverSigner(ethSignedMessageHash, signature) */\n      jump\t// in\n    tag_43:\n        /* \"CONTRACTS/verifysig.sol\":2485:2542  recoverSigner(ethSignedMessageHash, signature) == _signer */\n      0xffffffffffffffffffffffffffffffffffffffff\n      and\n      eq\n        /* \"CONTRACTS/verifysig.sol\":2478:2542  return recoverSigner(ethSignedMessageHash, signature) == _signer */\n      swap3\n      pop\n      pop\n      pop\n        /* \"CONTRACTS/verifysig.sol\":2172:2549  function verify(... */\n      swap5\n      swap4\n      pop\n      pop\n      pop\n      pop\n      jump\t// out\n        /* \"CONTRACTS/verifysig.sol\":2555:2828  function recoverSigner(bytes32 _ethSignedMessageHash, bytes memory _signature)... */\n    tag_23:\n        /* \"CONTRACTS/verifysig.sol\":2679:2686  address */\n      0x00\n        /* \"CONTRACTS/verifysig.sol\":2703:2712  bytes32 r */\n      dup1\n        /* \"CONTRACTS/verifysig.sol\":2714:2723  bytes32 s */\n      0x00\n        /* \"CONTRACTS/verifysig.sol\":2725:2732  uint8 v */\n      dup1\n        /* \"CONTRACTS/verifysig.sol\":2736:2762  splitSignature(_signature) */\n      tag_45\n        /* \"CONTRACTS/verifysig.sol\":2751:2761  _signature */\n      dup6\n        /* \"CONTRACTS/verifysig.sol\":2736:2750  splitSignature */\n      tag_29\n        /* \"CONTRACTS/verifysig.sol\":2736:2762  splitSignature(_signature) */\n      jump\t// in\n    tag_45:\n        /* \"CONTRACTS/verifysig.sol\":2702:2762  (bytes32 r, bytes32 s, uint8 v) = splitSignature(_signature) */\n      swap3\n      pop\n      swap3\n      pop\n      swap3\n      pop\n        /* \"CONTRACTS/verifysig.sol\":2780:2821  ecrecover(_ethSignedMessageHash, v, r, s) */\n      0x01\n        /* \"CONTRACTS/verifysig.sol\":2790:2811  _ethSignedMessageHash */\n      dup7\n        /* \"CONTRACTS/verifysig.sol\":2813:2814  v */\n      dup3\n        /* \"CONTRACTS/verifysig.sol\":2816:2817  r */\n      dup6\n        /* \"CONTRACTS/verifysig.sol\":2819:2820  s */\n      dup6\n        /* \"CONTRACTS/verifysig.sol\":2780:2821  ecrecover(_ethSignedMessageHash, v, r, s) */\n      mload(0x40)\n      0x00\n      dup2\n      mstore\n      0x20\n      add\n      0x40\n      mstore\n      mload(0x40)\n      tag_46\n      swap5\n      swap4\n      swap3\n      swap2\n      swap1\n      tag_47\n      jump\t// in\n    tag_46:\n      0x20\n      mload(0x40)\n      0x20\n      dup2\n      sub\n      swap1\n      dup1\n      dup5\n      sub\n      swap1\n      dup6\n      gas\n      staticcall\n      iszero\n      dup1\n      iszero\n      tag_49\n      jumpi\n      returndatasize\n      0x00\n      dup1\n      returndatacopy\n      revert(0x00, returndatasize)\n    tag_49:\n      pop\n      pop\n      pop\n      mload(sub(mload(0x40), 0x20))\n        /* \"CONTRACTS/verifysig.sol\":2773:2821  return ecrecover(_ethSignedMessageHash, v, r, s) */\n      swap4\n      pop\n      pop\n      pop\n      pop\n        /* \"CONTRACTS/verifysig.sol\":2555:2828  function recoverSigner(bytes32 _ethSignedMessageHash, bytes memory _signature)... */\n      swap3\n      swap2\n      pop\n      pop\n      jump\t// out\n        /* \"CONTRACTS/verifysig.sol\":2834:3695  function splitSignature(bytes memory sig)... */\n    tag_29:\n        /* \"CONTRACTS/verifysig.sol\":2934:2943  bytes32 r */\n      0x00\n        /* \"CONTRACTS/verifysig.sol\":2957:2966  bytes32 s */\n      dup1\n        /* \"CONTRACTS/verifysig.sol\":2980:2987  uint8 v */\n      0x00\n        /* \"CONTRACTS/verifysig.sol\":3034:3036  65 */\n      0x41\n        /* \"CONTRACTS/verifysig.sol\":3020:3023  sig */\n      dup5\n        /* \"CONTRACTS/verifysig.sol\":3020:3030  sig.length */\n      mload\n        /* \"CONTRACTS/verifysig.sol\":3020:3036  sig.length == 65 */\n      eq\n        /* \"CONTRACTS/verifysig.sol\":3012:3065  require(sig.length == 65, \"invalid signature length\") */\n      tag_51\n      jumpi\n      mload(0x40)\n      0x08c379a000000000000000000000000000000000000000000000000000000000\n      dup2\n      mstore\n      0x04\n      add\n      tag_52\n      swap1\n      tag_53\n      jump\t// in\n    tag_52:\n      mload(0x40)\n      dup1\n      swap2\n      sub\n      swap1\n      revert\n    tag_51:\n        /* \"CONTRACTS/verifysig.sol\":3461:3463  32 */\n      0x20\n        /* \"CONTRACTS/verifysig.sol\":3456:3459  sig */\n      dup5\n        /* \"CONTRACTS/verifysig.sol\":3452:3464  add(sig, 32) */\n      add\n        /* \"CONTRACTS/verifysig.sol\":3446:3465  mload(add(sig, 32)) */\n      mload\n        /* \"CONTRACTS/verifysig.sol\":3441:3465  r := mload(add(sig, 32)) */\n      swap3\n      pop\n        /* \"CONTRACTS/verifysig.sol\":3529:3531  64 */\n      0x40\n        /* \"CONTRACTS/verifysig.sol\":3524:3527  sig */\n      dup5\n        /* \"CONTRACTS/verifysig.sol\":3520:3532  add(sig, 64) */\n      add\n        /* \"CONTRACTS/verifysig.sol\":3514:3533  mload(add(sig, 64)) */\n      mload\n        /* \"CONTRACTS/verifysig.sol\":3509:3533  s := mload(add(sig, 64)) */\n      swap2\n      pop\n        /* \"CONTRACTS/verifysig.sol\":3634:3636  96 */\n      0x60\n        /* \"CONTRACTS/verifysig.sol\":3629:3632  sig */\n      dup5\n        /* \"CONTRACTS/verifysig.sol\":3625:3637  add(sig, 96) */\n      add\n        /* \"CONTRACTS/verifysig.sol\":3619:3638  mload(add(sig, 96)) */\n      mload\n        /* \"CONTRACTS/verifysig.sol\":3616:3617  0 */\n      0x00\n        /* \"CONTRACTS/verifysig.sol\":3611:3639  byte(0, mload(add(sig, 96))) */\n      byte\n        /* \"CONTRACTS/verifysig.sol\":3606:3639  v := byte(0, mload(add(sig, 96))) */\n      swap1\n      pop\n        /* \"CONTRACTS/verifysig.sol\":2834:3695  function splitSignature(bytes memory sig)... */\n      swap2\n      swap4\n      swap1\n      swap3\n      pop\n      jump\t// out\n        /* \"CONTRACTS/verifysig.sol\":1382:1802  function getEthSignedMessageHash(bytes32 _messageHash)... */\n    tag_35:\n        /* \"CONTRACTS/verifysig.sol\":1482:1489  bytes32 */\n      0x00\n        /* \"CONTRACTS/verifysig.sol\":1768:1780  _messageHash */\n      dup2\n        /* \"CONTRACTS/verifysig.sol\":1715:1781  abi.encodePacked(\"\\x19Ethereum Signed Message:\\n32\", _messageHash) */\n      add(0x20, mload(0x40))\n      tag_55\n      swap2\n      swap1\n      tag_56\n      jump\t// in\n    tag_55:\n      mload(0x40)\n      0x20\n      dup2\n      dup4\n      sub\n      sub\n      dup2\n      mstore\n      swap1\n      0x40\n      mstore\n        /* \"CONTRACTS/verifysig.sol\":1688:1795  keccak256(... */\n      dup1\n      mload\n      swap1\n      0x20\n      add\n      keccak256\n        /* \"CONTRACTS/verifysig.sol\":1669:1795  return... */\n      swap1\n      pop\n        /* \"CONTRACTS/verifysig.sol\":1382:1802  function getEthSignedMessageHash(bytes32 _messageHash)... */\n      swap2\n      swap1\n      pop\n      jump\t// out\n        /* \"#utility.yul\":7:82   */\n    tag_57:\n        /* \"#utility.yul\":40:46   */\n      0x00\n        /* \"#utility.yul\":73:75   */\n      0x40\n        /* \"#utility.yul\":67:76   */\n      mload\n        /* \"#utility.yul\":57:76   */\n      swap1\n      pop\n        /* \"#utility.yul\":7:82   */\n      swap1\n      jump\t// out\n        /* \"#utility.yul\":88:205   */\n    tag_58:\n        /* \"#utility.yul\":197:198   */\n      0x00\n        /* \"#utility.yul\":194:195   */\n      dup1\n        /* \"#utility.yul\":187:199   */\n      revert\n        /* \"#utility.yul\":211:328   */\n    tag_59:\n        /* \"#utility.yul\":320:321   */\n      0x00\n        /* \"#utility.yul\":317:318   */\n      dup1\n        /* \"#utility.yul\":310:322   */\n      revert\n        /* \"#utility.yul\":334:460   */\n    tag_60:\n        /* \"#utility.yul\":371:378   */\n      0x00\n        /* \"#utility.yul\":411:453   */\n      0xffffffffffffffffffffffffffffffffffffffff\n        /* \"#utility.yul\":404:409   */\n      dup3\n        /* \"#utility.yul\":400:454   */\n      and\n        /* \"#utility.yul\":389:454   */\n      swap1\n      pop\n        /* \"#utility.yul\":334:460   */\n      swap2\n      swap1\n      pop\n      jump\t// out\n        /* \"#utility.yul\":466:562   */\n    tag_61:\n        /* \"#utility.yul\":503:510   */\n      0x00\n        /* \"#utility.yul\":532:556   */\n      tag_106\n        /* \"#utility.yul\":550:555   */\n      dup3\n        /* \"#utility.yul\":532:556   */\n      tag_60\n      jump\t// in\n    tag_106:\n        /* \"#utility.yul\":521:556   */\n      swap1\n      pop\n        /* \"#utility.yul\":466:562   */\n      swap2\n      swap1\n      pop\n      jump\t// out\n        /* \"#utility.yul\":568:690   */\n    tag_62:\n        /* \"#utility.yul\":641:665   */\n      tag_108\n        /* \"#utility.yul\":659:664   */\n      dup2\n        /* \"#utility.yul\":641:665   */\n      tag_61\n      jump\t// in\n    tag_108:\n        /* \"#utility.yul\":634:639   */\n      dup2\n        /* \"#utility.yul\":631:666   */\n      eq\n        /* \"#utility.yul\":621:684   */\n      tag_109\n      jumpi\n        /* \"#utility.yul\":680:681   */\n      0x00\n        /* \"#utility.yul\":677:678   */\n      dup1\n        /* \"#utility.yul\":670:682   */\n      revert\n        /* \"#utility.yul\":621:684   */\n    tag_109:\n        /* \"#utility.yul\":568:690   */\n      pop\n      jump\t// out\n        /* \"#utility.yul\":696:835   */\n    tag_63:\n        /* \"#utility.yul\":742:747   */\n      0x00\n        /* \"#utility.yul\":780:786   */\n      dup2\n        /* \"#utility.yul\":767:787   */\n      calldataload\n        /* \"#utility.yul\":758:787   */\n      swap1\n      pop\n        /* \"#utility.yul\":796:829   */\n      tag_111\n        /* \"#utility.yul\":823:828   */\n      dup2\n        /* \"#utility.yul\":796:829   */\n      tag_62\n      jump\t// in\n    tag_111:\n        /* \"#utility.yul\":696:835   */\n      swap3\n      swap2\n      pop\n      pop\n      jump\t// out\n        /* \"#utility.yul\":841:918   */\n    tag_64:\n        /* \"#utility.yul\":878:885   */\n      0x00\n        /* \"#utility.yul\":907:912   */\n      dup2\n        /* \"#utility.yul\":896:912   */\n      swap1\n      pop\n        /* \"#utility.yul\":841:918   */\n      swap2\n      swap1\n      pop\n      jump\t// out\n        /* \"#utility.yul\":924:1046   */\n    tag_65:\n        /* \"#utility.yul\":997:1021   */\n      tag_114\n        /* \"#utility.yul\":1015:1020   */\n      dup2\n        /* \"#utility.yul\":997:1021   */\n      tag_64\n      jump\t// in\n    tag_114:\n        /* \"#utility.yul\":990:995   */\n      dup2\n        /* \"#utility.yul\":987:1022   */\n      eq\n        /* \"#utility.yul\":977:1040   */\n      tag_115\n      jumpi\n        /* \"#utility.yul\":1036:1037   */\n      0x00\n        /* \"#utility.yul\":1033:1034   */\n      dup1\n        /* \"#utility.yul\":1026:1038   */\n      revert\n        /* \"#utility.yul\":977:1040   */\n    tag_115:\n        /* \"#utility.yul\":924:1046   */\n      pop\n      jump\t// out\n        /* \"#utility.yul\":1052:1191   */\n    tag_66:\n        /* \"#utility.yul\":1098:1103   */\n      0x00\n        /* \"#utility.yul\":1136:1142   */\n      dup2\n        /* \"#utility.yul\":1123:1143   */\n      calldataload\n        /* \"#utility.yul\":1114:1143   */\n      swap1\n      pop\n        /* \"#utility.yul\":1152:1185   */\n      tag_117\n        /* \"#utility.yul\":1179:1184   */\n      dup2\n        /* \"#utility.yul\":1152:1185   */\n      tag_65\n      jump\t// in\n    tag_117:\n        /* \"#utility.yul\":1052:1191   */\n      swap3\n      swap2\n      pop\n      pop\n      jump\t// out\n        /* \"#utility.yul\":1197:1671   */\n    tag_10:\n        /* \"#utility.yul\":1265:1271   */\n      0x00\n        /* \"#utility.yul\":1273:1279   */\n      dup1\n        /* \"#utility.yul\":1322:1324   */\n      0x40\n        /* \"#utility.yul\":1310:1319   */\n      dup4\n        /* \"#utility.yul\":1301:1308   */\n      dup6\n        /* \"#utility.yul\":1297:1320   */\n      sub\n        /* \"#utility.yul\":1293:1325   */\n      slt\n        /* \"#utility.yul\":1290:1409   */\n      iszero\n      tag_119\n      jumpi\n        /* \"#utility.yul\":1328:1407   */\n      tag_120\n      tag_58\n      jump\t// in\n    tag_120:\n        /* \"#utility.yul\":1290:1409   */\n    tag_119:\n        /* \"#utility.yul\":1448:1449   */\n      0x00\n        /* \"#utility.yul\":1473:1526   */\n      tag_121\n        /* \"#utility.yul\":1518:1525   */\n      dup6\n        /* \"#utility.yul\":1509:1515   */\n      dup3\n        /* \"#utility.yul\":1498:1507   */\n      dup7\n        /* \"#utility.yul\":1494:1516   */\n      add\n        /* \"#utility.yul\":1473:1526   */\n      tag_63\n      jump\t// in\n    tag_121:\n        /* \"#utility.yul\":1463:1526   */\n      swap3\n      pop\n        /* \"#utility.yul\":1419:1536   */\n      pop\n        /* \"#utility.yul\":1575:1577   */\n      0x20\n        /* \"#utility.yul\":1601:1654   */\n      tag_122\n        /* \"#utility.yul\":1646:1653   */\n      dup6\n        /* \"#utility.yul\":1637:1643   */\n      dup3\n        /* \"#utility.yul\":1626:1635   */\n      dup7\n        /* \"#utility.yul\":1622:1644   */\n      add\n        /* \"#utility.yul\":1601:1654   */\n      tag_66\n      jump\t// in\n    tag_122:\n        /* \"#utility.yul\":1591:1654   */\n      swap2\n      pop\n        /* \"#utility.yul\":1546:1664   */\n      pop\n        /* \"#utility.yul\":1197:1671   */\n      swap3\n      pop\n      swap3\n      swap1\n      pop\n      jump\t// out\n        /* \"#utility.yul\":1677:1754   */\n    tag_67:\n        /* \"#utility.yul\":1714:1721   */\n      0x00\n        /* \"#utility.yul\":1743:1748   */\n      dup2\n        /* \"#utility.yul\":1732:1748   */\n      swap1\n      pop\n        /* \"#utility.yul\":1677:1754   */\n      swap2\n      swap1\n      pop\n      jump\t// out\n        /* \"#utility.yul\":1760:1878   */\n    tag_68:\n        /* \"#utility.yul\":1847:1871   */\n      tag_125\n        /* \"#utility.yul\":1865:1870   */\n      dup2\n        /* \"#utility.yul\":1847:1871   */\n      tag_67\n      jump\t// in\n    tag_125:\n        /* \"#utility.yul\":1842:1845   */\n      dup3\n        /* \"#utility.yul\":1835:1872   */\n      mstore\n        /* \"#utility.yul\":1760:1878   */\n      pop\n      pop\n      jump\t// out\n        /* \"#utility.yul\":1884:2106   */\n    tag_13:\n        /* \"#utility.yul\":1977:1981   */\n      0x00\n        /* \"#utility.yul\":2015:2017   */\n      0x20\n        /* \"#utility.yul\":2004:2013   */\n      dup3\n        /* \"#utility.yul\":2000:2018   */\n      add\n        /* \"#utility.yul\":1992:2018   */\n      swap1\n      pop\n        /* \"#utility.yul\":2028:2099   */\n      tag_127\n        /* \"#utility.yul\":2096:2097   */\n      0x00\n        /* \"#utility.yul\":2085:2094   */\n      dup4\n        /* \"#utility.yul\":2081:2098   */\n      add\n        /* \"#utility.yul\":2072:2078   */\n      dup5\n        /* \"#utility.yul\":2028:2099   */\n      tag_68\n      jump\t// in\n    tag_127:\n        /* \"#utility.yul\":1884:2106   */\n      swap3\n      swap2\n      pop\n      pop\n      jump\t// out\n        /* \"#utility.yul\":2112:2229   */\n    tag_69:\n        /* \"#utility.yul\":2221:2222   */\n      0x00\n        /* \"#utility.yul\":2218:2219   */\n      dup1\n        /* \"#utility.yul\":2211:2223   */\n      revert\n        /* \"#utility.yul\":2235:2352   */\n    tag_70:\n        /* \"#utility.yul\":2344:2345   */\n      0x00\n        /* \"#utility.yul\":2341:2342   */\n      dup1\n        /* \"#utility.yul\":2334:2346   */\n      revert\n        /* \"#utility.yul\":2358:2460   */\n    tag_71:\n        /* \"#utility.yul\":2399:2405   */\n      0x00\n        /* \"#utility.yul\":2450:2452   */\n      0x1f\n        /* \"#utility.yul\":2446:2453   */\n      not\n        /* \"#utility.yul\":2441:2443   */\n      0x1f\n        /* \"#utility.yul\":2434:2439   */\n      dup4\n        /* \"#utility.yul\":2430:2444   */\n      add\n        /* \"#utility.yul\":2426:2454   */\n      and\n        /* \"#utility.yul\":2416:2454   */\n      swap1\n      pop\n        /* \"#utility.yul\":2358:2460   */\n      swap2\n      swap1\n      pop\n      jump\t// out\n        /* \"#utility.yul\":2466:2646   */\n    tag_72:\n        /* \"#utility.yul\":2514:2591   */\n      0x4e487b7100000000000000000000000000000000000000000000000000000000\n        /* \"#utility.yul\":2511:2512   */\n      0x00\n        /* \"#utility.yul\":2504:2592   */\n      mstore\n        /* \"#utility.yul\":2611:2615   */\n      0x41\n        /* \"#utility.yul\":2608:2609   */\n      0x04\n        /* \"#utility.yul\":2601:2616   */\n      mstore\n        /* \"#utility.yul\":2635:2639   */\n      0x24\n        /* \"#utility.yul\":2632:2633   */\n      0x00\n        /* \"#utility.yul\":2625:2640   */\n      revert\n        /* \"#utility.yul\":2652:2933   */\n    tag_73:\n        /* \"#utility.yul\":2735:2762   */\n      tag_133\n        /* \"#utility.yul\":2757:2761   */\n      dup3\n        /* \"#utility.yul\":2735:2762   */\n      tag_71\n      jump\t// in\n    tag_133:\n        /* \"#utility.yul\":2727:2733   */\n      dup2\n        /* \"#utility.yul\":2723:2763   */\n      add\n        /* \"#utility.yul\":2865:2871   */\n      dup2\n        /* \"#utility.yul\":2853:2863   */\n      dup2\n        /* \"#utility.yul\":2850:2872   */\n      lt\n        /* \"#utility.yul\":2829:2847   */\n      0xffffffffffffffff\n        /* \"#utility.yul\":2817:2827   */\n      dup3\n        /* \"#utility.yul\":2814:2848   */\n      gt\n        /* \"#utility.yul\":2811:2873   */\n      or\n        /* \"#utility.yul\":2808:2896   */\n      iszero\n      tag_134\n      jumpi\n        /* \"#utility.yul\":2876:2894   */\n      tag_135\n      tag_72\n      jump\t// in\n    tag_135:\n        /* \"#utility.yul\":2808:2896   */\n    tag_134:\n        /* \"#utility.yul\":2916:2926   */\n      dup1\n        /* \"#utility.yul\":2912:2914   */\n      0x40\n        /* \"#utility.yul\":2905:2927   */\n      mstore\n        /* \"#utility.yul\":2695:2933   */\n      pop\n        /* \"#utility.yul\":2652:2933   */\n      pop\n      pop\n      jump\t// out\n        /* \"#utility.yul\":2939:3068   */\n    tag_74:\n        /* \"#utility.yul\":2973:2979   */\n      0x00\n        /* \"#utility.yul\":3000:3020   */\n      tag_137\n      tag_57\n      jump\t// in\n    tag_137:\n        /* \"#utility.yul\":2990:3020   */\n      swap1\n      pop\n        /* \"#utility.yul\":3029:3062   */\n      tag_138\n        /* \"#utility.yul\":3057:3061   */\n      dup3\n        /* \"#utility.yul\":3049:3055   */\n      dup3\n        /* \"#utility.yul\":3029:3062   */\n      tag_73\n      jump\t// in\n    tag_138:\n        /* \"#utility.yul\":2939:3068   */\n      swap2\n      swap1\n      pop\n      jump\t// out\n        /* \"#utility.yul\":3074:3381   */\n    tag_75:\n        /* \"#utility.yul\":3135:3139   */\n      0x00\n        /* \"#utility.yul\":3225:3243   */\n      0xffffffffffffffff\n        /* \"#utility.yul\":3217:3223   */\n      dup3\n        /* \"#utility.yul\":3214:3244   */\n      gt\n        /* \"#utility.yul\":3211:3267   */\n      iszero\n      tag_140\n      jumpi\n        /* \"#utility.yul\":3247:3265   */\n      tag_141\n      tag_72\n      jump\t// in\n    tag_141:\n        /* \"#utility.yul\":3211:3267   */\n    tag_140:\n        /* \"#utility.yul\":3285:3314   */\n      tag_142\n        /* \"#utility.yul\":3307:3313   */\n      dup3\n        /* \"#utility.yul\":3285:3314   */\n      tag_71\n      jump\t// in\n    tag_142:\n        /* \"#utility.yul\":3277:3314   */\n      swap1\n      pop\n        /* \"#utility.yul\":3369:3373   */\n      0x20\n        /* \"#utility.yul\":3363:3367   */\n      dup2\n        /* \"#utility.yul\":3359:3374   */\n      add\n        /* \"#utility.yul\":3351:3374   */\n      swap1\n      pop\n        /* \"#utility.yul\":3074:3381   */\n      swap2\n      swap1\n      pop\n      jump\t// out\n        /* \"#utility.yul\":3387:3533   */\n    tag_76:\n        /* \"#utility.yul\":3484:3490   */\n      dup3\n        /* \"#utility.yul\":3479:3482   */\n      dup2\n        /* \"#utility.yul\":3474:3477   */\n      dup4\n        /* \"#utility.yul\":3461:3491   */\n      calldatacopy\n        /* \"#utility.yul\":3525:3526   */\n      0x00\n        /* \"#utility.yul\":3516:3522   */\n      dup4\n        /* \"#utility.yul\":3511:3514   */\n      dup4\n        /* \"#utility.yul\":3507:3523   */\n      add\n        /* \"#utility.yul\":3500:3527   */\n      mstore\n        /* \"#utility.yul\":3387:3533   */\n      pop\n      pop\n      pop\n      jump\t// out\n        /* \"#utility.yul\":3539:3962   */\n    tag_77:\n        /* \"#utility.yul\":3616:3621   */\n      0x00\n        /* \"#utility.yul\":3641:3706   */\n      tag_145\n        /* \"#utility.yul\":3657:3705   */\n      tag_146\n        /* \"#utility.yul\":3698:3704   */\n      dup5\n        /* \"#utility.yul\":3657:3705   */\n      tag_75\n      jump\t// in\n    tag_146:\n        /* \"#utility.yul\":3641:3706   */\n      tag_74\n      jump\t// in\n    tag_145:\n        /* \"#utility.yul\":3632:3706   */\n      swap1\n      pop\n        /* \"#utility.yul\":3729:3735   */\n      dup3\n        /* \"#utility.yul\":3722:3727   */\n      dup2\n        /* \"#utility.yul\":3715:3736   */\n      mstore\n        /* \"#utility.yul\":3767:3771   */\n      0x20\n        /* \"#utility.yul\":3760:3765   */\n      dup2\n        /* \"#utility.yul\":3756:3772   */\n      add\n        /* \"#utility.yul\":3805:3808   */\n      dup5\n        /* \"#utility.yul\":3796:3802   */\n      dup5\n        /* \"#utility.yul\":3791:3794   */\n      dup5\n        /* \"#utility.yul\":3787:3803   */\n      add\n        /* \"#utility.yul\":3784:3809   */\n      gt\n        /* \"#utility.yul\":3781:3893   */\n      iszero\n      tag_147\n      jumpi\n        /* \"#utility.yul\":3812:3891   */\n      tag_148\n      tag_70\n      jump\t// in\n    tag_148:\n        /* \"#utility.yul\":3781:3893   */\n    tag_147:\n        /* \"#utility.yul\":3902:3956   */\n      tag_149\n        /* \"#utility.yul\":3949:3955   */\n      dup5\n        /* \"#utility.yul\":3944:3947   */\n      dup3\n        /* \"#utility.yul\":3939:3942   */\n      dup6\n        /* \"#utility.yul\":3902:3956   */\n      tag_76\n      jump\t// in\n    tag_149:\n        /* \"#utility.yul\":3622:3962   */\n      pop\n        /* \"#utility.yul\":3539:3962   */\n      swap4\n      swap3\n      pop\n      pop\n      pop\n      jump\t// out\n        /* \"#utility.yul\":3981:4319   */\n    tag_78:\n        /* \"#utility.yul\":4036:4041   */\n      0x00\n        /* \"#utility.yul\":4085:4088   */\n      dup3\n        /* \"#utility.yul\":4078:4082   */\n      0x1f\n        /* \"#utility.yul\":4070:4076   */\n      dup4\n        /* \"#utility.yul\":4066:4083   */\n      add\n        /* \"#utility.yul\":4062:4089   */\n      slt\n        /* \"#utility.yul\":4052:4174   */\n      tag_151\n      jumpi\n        /* \"#utility.yul\":4093:4172   */\n      tag_152\n      tag_69\n      jump\t// in\n    tag_152:\n        /* \"#utility.yul\":4052:4174   */\n    tag_151:\n        /* \"#utility.yul\":4210:4216   */\n      dup2\n        /* \"#utility.yul\":4197:4217   */\n      calldataload\n        /* \"#utility.yul\":4235:4313   */\n      tag_153\n        /* \"#utility.yul\":4309:4312   */\n      dup5\n        /* \"#utility.yul\":4301:4307   */\n      dup3\n        /* \"#utility.yul\":4294:4298   */\n      0x20\n        /* \"#utility.yul\":4286:4292   */\n      dup7\n        /* \"#utility.yul\":4282:4299   */\n      add\n        /* \"#utility.yul\":4235:4313   */\n      tag_77\n      jump\t// in\n    tag_153:\n        /* \"#utility.yul\":4226:4313   */\n      swap2\n      pop\n        /* \"#utility.yul\":4042:4319   */\n      pop\n        /* \"#utility.yul\":3981:4319   */\n      swap3\n      swap2\n      pop\n      pop\n      jump\t// out\n        /* \"#utility.yul\":4325:5268   */\n    tag_16:\n        /* \"#utility.yul\":4420:4426   */\n      0x00\n        /* \"#utility.yul\":4428:4434   */\n      dup1\n        /* \"#utility.yul\":4436:4442   */\n      0x00\n        /* \"#utility.yul\":4444:4450   */\n      dup1\n        /* \"#utility.yul\":4493:4496   */\n      0x80\n        /* \"#utility.yul\":4481:4490   */\n      dup6\n        /* \"#utility.yul\":4472:4479   */\n      dup8\n        /* \"#utility.yul\":4468:4491   */\n      sub\n        /* \"#utility.yul\":4464:4497   */\n      slt\n        /* \"#utility.yul\":4461:4581   */\n      iszero\n      tag_155\n      jumpi\n        /* \"#utility.yul\":4500:4579   */\n      tag_156\n      tag_58\n      jump\t// in\n    tag_156:\n        /* \"#utility.yul\":4461:4581   */\n    tag_155:\n        /* \"#utility.yul\":4620:4621   */\n      0x00\n        /* \"#utility.yul\":4645:4698   */\n      tag_157\n        /* \"#utility.yul\":4690:4697   */\n      dup8\n        /* \"#utility.yul\":4681:4687   */\n      dup3\n        /* \"#utility.yul\":4670:4679   */\n      dup9\n        /* \"#utility.yul\":4666:4688   */\n      add\n        /* \"#utility.yul\":4645:4698   */\n      tag_63\n      jump\t// in\n    tag_157:\n        /* \"#utility.yul\":4635:4698   */\n      swap5\n      pop\n        /* \"#utility.yul\":4591:4708   */\n      pop\n        /* \"#utility.yul\":4747:4749   */\n      0x20\n        /* \"#utility.yul\":4773:4826   */\n      tag_158\n        /* \"#utility.yul\":4818:4825   */\n      dup8\n        /* \"#utility.yul\":4809:4815   */\n      dup3\n        /* \"#utility.yul\":4798:4807   */\n      dup9\n        /* \"#utility.yul\":4794:4816   */\n      add\n        /* \"#utility.yul\":4773:4826   */\n      tag_63\n      jump\t// in\n    tag_158:\n        /* \"#utility.yul\":4763:4826   */\n      swap4\n      pop\n        /* \"#utility.yul\":4718:4836   */\n      pop\n        /* \"#utility.yul\":4875:4877   */\n      0x40\n        /* \"#utility.yul\":4901:4954   */\n      tag_159\n        /* \"#utility.yul\":4946:4953   */\n      dup8\n        /* \"#utility.yul\":4937:4943   */\n      dup3\n        /* \"#utility.yul\":4926:4935   */\n      dup9\n        /* \"#utility.yul\":4922:4944   */\n      add\n        /* \"#utility.yul\":4901:4954   */\n      tag_66\n      jump\t// in\n    tag_159:\n        /* \"#utility.yul\":4891:4954   */\n      swap3\n      pop\n        /* \"#utility.yul\":4846:4964   */\n      pop\n        /* \"#utility.yul\":5031:5033   */\n      0x60\n        /* \"#utility.yul\":5020:5029   */\n      dup6\n        /* \"#utility.yul\":5016:5034   */\n      add\n        /* \"#utility.yul\":5003:5035   */\n      calldataload\n        /* \"#utility.yul\":5062:5080   */\n      0xffffffffffffffff\n        /* \"#utility.yul\":5054:5060   */\n      dup2\n        /* \"#utility.yul\":5051:5081   */\n      gt\n        /* \"#utility.yul\":5048:5165   */\n      iszero\n      tag_160\n      jumpi\n        /* \"#utility.yul\":5084:5163   */\n      tag_161\n      tag_59\n      jump\t// in\n    tag_161:\n        /* \"#utility.yul\":5048:5165   */\n    tag_160:\n        /* \"#utility.yul\":5189:5251   */\n      tag_162\n        /* \"#utility.yul\":5243:5250   */\n      dup8\n        /* \"#utility.yul\":5234:5240   */\n      dup3\n        /* \"#utility.yul\":5223:5232   */\n      dup9\n        /* \"#utility.yul\":5219:5241   */\n      add\n        /* \"#utility.yul\":5189:5251   */\n      tag_78\n      jump\t// in\n    tag_162:\n        /* \"#utility.yul\":5179:5251   */\n      swap2\n      pop\n        /* \"#utility.yul\":4974:5261   */\n      pop\n        /* \"#utility.yul\":4325:5268   */\n      swap3\n      swap6\n      swap2\n      swap5\n      pop\n      swap3\n      pop\n      jump\t// out\n        /* \"#utility.yul\":5274:5364   */\n    tag_79:\n        /* \"#utility.yul\":5308:5315   */\n      0x00\n        /* \"#utility.yul\":5351:5356   */\n      dup2\n        /* \"#utility.yul\":5344:5357   */\n      iszero\n        /* \"#utility.yul\":5337:5358   */\n      iszero\n        /* \"#utility.yul\":5326:5358   */\n      swap1\n      pop\n        /* \"#utility.yul\":5274:5364   */\n      swap2\n      swap1\n      pop\n      jump\t// out\n        /* \"#utility.yul\":5370:5479   */\n    tag_80:\n        /* \"#utility.yul\":5451:5472   */\n      tag_165\n        /* \"#utility.yul\":5466:5471   */\n      dup2\n        /* \"#utility.yul\":5451:5472   */\n      tag_79\n      jump\t// in\n    tag_165:\n        /* \"#utility.yul\":5446:5449   */\n      dup3\n        /* \"#utility.yul\":5439:5473   */\n      mstore\n        /* \"#utility.yul\":5370:5479   */\n      pop\n      pop\n      jump\t// out\n        /* \"#utility.yul\":5485:5695   */\n    tag_19:\n        /* \"#utility.yul\":5572:5576   */\n      0x00\n        /* \"#utility.yul\":5610:5612   */\n      0x20\n        /* \"#utility.yul\":5599:5608   */\n      dup3\n        /* \"#utility.yul\":5595:5613   */\n      add\n        /* \"#utility.yul\":5587:5613   */\n      swap1\n      pop\n        /* \"#utility.yul\":5623:5688   */\n      tag_167\n        /* \"#utility.yul\":5685:5686   */\n      0x00\n        /* \"#utility.yul\":5674:5683   */\n      dup4\n        /* \"#utility.yul\":5670:5687   */\n      add\n        /* \"#utility.yul\":5661:5667   */\n      dup5\n        /* \"#utility.yul\":5623:5688   */\n      tag_80\n      jump\t// in\n    tag_167:\n        /* \"#utility.yul\":5485:5695   */\n      swap3\n      swap2\n      pop\n      pop\n      jump\t// out\n        /* \"#utility.yul\":5701:5823   */\n    tag_81:\n        /* \"#utility.yul\":5774:5798   */\n      tag_169\n        /* \"#utility.yul\":5792:5797   */\n      dup2\n        /* \"#utility.yul\":5774:5798   */\n      tag_67\n      jump\t// in\n    tag_169:\n        /* \"#utility.yul\":5767:5772   */\n      dup2\n        /* \"#utility.yul\":5764:5799   */\n      eq\n        /* \"#utility.yul\":5754:5817   */\n      tag_170\n      jumpi\n        /* \"#utility.yul\":5813:5814   */\n      0x00\n        /* \"#utility.yul\":5810:5811   */\n      dup1\n        /* \"#utility.yul\":5803:5815   */\n      revert\n        /* \"#utility.yul\":5754:5817   */\n    tag_170:\n        /* \"#utility.yul\":5701:5823   */\n      pop\n      jump\t// out\n        /* \"#utility.yul\":5829:5968   */\n    tag_82:\n        /* \"#utility.yul\":5875:5880   */\n      0x00\n        /* \"#utility.yul\":5913:5919   */\n      dup2\n        /* \"#utility.yul\":5900:5920   */\n      calldataload\n        /* \"#utility.yul\":5891:5920   */\n      swap1\n      pop\n        /* \"#utility.yul\":5929:5962   */\n      tag_172\n        /* \"#utility.yul\":5956:5961   */\n      dup2\n        /* \"#utility.yul\":5929:5962   */\n      tag_81\n      jump\t// in\n    tag_172:\n        /* \"#utility.yul\":5829:5968   */\n      swap3\n      swap2\n      pop\n      pop\n      jump\t// out\n        /* \"#utility.yul\":5974:6626   */\n    tag_22:\n        /* \"#utility.yul\":6051:6057   */\n      0x00\n        /* \"#utility.yul\":6059:6065   */\n      dup1\n        /* \"#utility.yul\":6108:6110   */\n      0x40\n        /* \"#utility.yul\":6096:6105   */\n      dup4\n        /* \"#utility.yul\":6087:6094   */\n      dup6\n        /* \"#utility.yul\":6083:6106   */\n      sub\n        /* \"#utility.yul\":6079:6111   */\n      slt\n        /* \"#utility.yul\":6076:6195   */\n      iszero\n      tag_174\n      jumpi\n        /* \"#utility.yul\":6114:6193   */\n      tag_175\n      tag_58\n      jump\t// in\n    tag_175:\n        /* \"#utility.yul\":6076:6195   */\n    tag_174:\n        /* \"#utility.yul\":6234:6235   */\n      0x00\n        /* \"#utility.yul\":6259:6312   */\n      tag_176\n        /* \"#utility.yul\":6304:6311   */\n      dup6\n        /* \"#utility.yul\":6295:6301   */\n      dup3\n        /* \"#utility.yul\":6284:6293   */\n      dup7\n        /* \"#utility.yul\":6280:6302   */\n      add\n        /* \"#utility.yul\":6259:6312   */\n      tag_82\n      jump\t// in\n    tag_176:\n        /* \"#utility.yul\":6249:6312   */\n      swap3\n      pop\n        /* \"#utility.yul\":6205:6322   */\n      pop\n        /* \"#utility.yul\":6389:6391   */\n      0x20\n        /* \"#utility.yul\":6378:6387   */\n      dup4\n        /* \"#utility.yul\":6374:6392   */\n      add\n        /* \"#utility.yul\":6361:6393   */\n      calldataload\n        /* \"#utility.yul\":6420:6438   */\n      0xffffffffffffffff\n        /* \"#utility.yul\":6412:6418   */\n      dup2\n        /* \"#utility.yul\":6409:6439   */\n      gt\n        /* \"#utility.yul\":6406:6523   */\n      iszero\n      tag_177\n      jumpi\n        /* \"#utility.yul\":6442:6521   */\n      tag_178\n      tag_59\n      jump\t// in\n    tag_178:\n        /* \"#utility.yul\":6406:6523   */\n    tag_177:\n        /* \"#utility.yul\":6547:6609   */\n      tag_179\n        /* \"#utility.yul\":6601:6608   */\n      dup6\n        /* \"#utility.yul\":6592:6598   */\n      dup3\n        /* \"#utility.yul\":6581:6590   */\n      dup7\n        /* \"#utility.yul\":6577:6599   */\n      add\n        /* \"#utility.yul\":6547:6609   */\n      tag_78\n      jump\t// in\n    tag_179:\n        /* \"#utility.yul\":6537:6609   */\n      swap2\n      pop\n        /* \"#utility.yul\":6332:6619   */\n      pop\n        /* \"#utility.yul\":5974:6626   */\n      swap3\n      pop\n      swap3\n      swap1\n      pop\n      jump\t// out\n        /* \"#utility.yul\":6632:6750   */\n    tag_83:\n        /* \"#utility.yul\":6719:6743   */\n      tag_181\n        /* \"#utility.yul\":6737:6742   */\n      dup2\n        /* \"#utility.yul\":6719:6743   */\n      tag_61\n      jump\t// in\n    tag_181:\n        /* \"#utility.yul\":6714:6717   */\n      dup3\n        /* \"#utility.yul\":6707:6744   */\n      mstore\n        /* \"#utility.yul\":6632:6750   */\n      pop\n      pop\n      jump\t// out\n        /* \"#utility.yul\":6756:6978   */\n    tag_25:\n        /* \"#utility.yul\":6849:6853   */\n      0x00\n        /* \"#utility.yul\":6887:6889   */\n      0x20\n        /* \"#utility.yul\":6876:6885   */\n      dup3\n        /* \"#utility.yul\":6872:6890   */\n      add\n        /* \"#utility.yul\":6864:6890   */\n      swap1\n      pop\n        /* \"#utility.yul\":6900:6971   */\n      tag_183\n        /* \"#utility.yul\":6968:6969   */\n      0x00\n        /* \"#utility.yul\":6957:6966   */\n      dup4\n        /* \"#utility.yul\":6953:6970   */\n      add\n        /* \"#utility.yul\":6944:6950   */\n      dup5\n        /* \"#utility.yul\":6900:6971   */\n      tag_83\n      jump\t// in\n    tag_183:\n        /* \"#utility.yul\":6756:6978   */\n      swap3\n      swap2\n      pop\n      pop\n      jump\t// out\n        /* \"#utility.yul\":6984:7491   */\n    tag_28:\n        /* \"#utility.yul\":7052:7058   */\n      0x00\n        /* \"#utility.yul\":7101:7103   */\n      0x20\n        /* \"#utility.yul\":7089:7098   */\n      dup3\n        /* \"#utility.yul\":7080:7087   */\n      dup5\n        /* \"#utility.yul\":7076:7099   */\n      sub\n        /* \"#utility.yul\":7072:7104   */\n      slt\n        /* \"#utility.yul\":7069:7188   */\n      iszero\n      tag_185\n      jumpi\n        /* \"#utility.yul\":7107:7186   */\n      tag_186\n      tag_58\n      jump\t// in\n    tag_186:\n        /* \"#utility.yul\":7069:7188   */\n    tag_185:\n        /* \"#utility.yul\":7255:7256   */\n      0x00\n        /* \"#utility.yul\":7244:7253   */\n      dup3\n        /* \"#utility.yul\":7240:7257   */\n      add\n        /* \"#utility.yul\":7227:7258   */\n      calldataload\n        /* \"#utility.yul\":7285:7303   */\n      0xffffffffffffffff\n        /* \"#utility.yul\":7277:7283   */\n      dup2\n        /* \"#utility.yul\":7274:7304   */\n      gt\n        /* \"#utility.yul\":7271:7388   */\n      iszero\n      tag_187\n      jumpi\n        /* \"#utility.yul\":7307:7386   */\n      tag_188\n      tag_59\n      jump\t// in\n    tag_188:\n        /* \"#utility.yul\":7271:7388   */\n    tag_187:\n        /* \"#utility.yul\":7412:7474   */\n      tag_189\n        /* \"#utility.yul\":7466:7473   */\n      dup5\n        /* \"#utility.yul\":7457:7463   */\n      dup3\n        /* \"#utility.yul\":7446:7455   */\n      dup6\n        /* \"#utility.yul\":7442:7464   */\n      add\n        /* \"#utility.yul\":7412:7474   */\n      tag_78\n      jump\t// in\n    tag_189:\n        /* \"#utility.yul\":7402:7474   */\n      swap2\n      pop\n        /* \"#utility.yul\":7198:7484   */\n      pop\n        /* \"#utility.yul\":6984:7491   */\n      swap3\n      swap2\n      pop\n      pop\n      jump\t// out\n        /* \"#utility.yul\":7497:7583   */\n    tag_84:\n        /* \"#utility.yul\":7532:7539   */\n      0x00\n        /* \"#utility.yul\":7572:7576   */\n      0xff\n        /* \"#utility.yul\":7565:7570   */\n      dup3\n        /* \"#utility.yul\":7561:7577   */\n      and\n        /* \"#utility.yul\":7550:7577   */\n      swap1\n      pop\n        /* \"#utility.yul\":7497:7583   */\n      swap2\n      swap1\n      pop\n      jump\t// out\n        /* \"#utility.yul\":7589:7701   */\n    tag_85:\n        /* \"#utility.yul\":7672:7694   */\n      tag_192\n        /* \"#utility.yul\":7688:7693   */\n      dup2\n        /* \"#utility.yul\":7672:7694   */\n      tag_84\n      jump\t// in\n    tag_192:\n        /* \"#utility.yul\":7667:7670   */\n      dup3\n        /* \"#utility.yul\":7660:7695   */\n      mstore\n        /* \"#utility.yul\":7589:7701   */\n      pop\n      pop\n      jump\t// out\n        /* \"#utility.yul\":7707:8141   */\n    tag_31:\n        /* \"#utility.yul\":7852:7856   */\n      0x00\n        /* \"#utility.yul\":7890:7892   */\n      0x60\n        /* \"#utility.yul\":7879:7888   */\n      dup3\n        /* \"#utility.yul\":7875:7893   */\n      add\n        /* \"#utility.yul\":7867:7893   */\n      swap1\n      pop\n        /* \"#utility.yul\":7903:7974   */\n      tag_194\n        /* \"#utility.yul\":7971:7972   */\n      0x00\n        /* \"#utility.yul\":7960:7969   */\n      dup4\n        /* \"#utility.yul\":7956:7973   */\n      add\n        /* \"#utility.yul\":7947:7953   */\n      dup7\n        /* \"#utility.yul\":7903:7974   */\n      tag_68\n      jump\t// in\n    tag_194:\n        /* \"#utility.yul\":7984:8056   */\n      tag_195\n        /* \"#utility.yul\":8052:8054   */\n      0x20\n        /* \"#utility.yul\":8041:8050   */\n      dup4\n        /* \"#utility.yul\":8037:8055   */\n      add\n        /* \"#utility.yul\":8028:8034   */\n      dup6\n        /* \"#utility.yul\":7984:8056   */\n      tag_68\n      jump\t// in\n    tag_195:\n        /* \"#utility.yul\":8066:8134   */\n      tag_196\n        /* \"#utility.yul\":8130:8132   */\n      0x40\n        /* \"#utility.yul\":8119:8128   */\n      dup4\n        /* \"#utility.yul\":8115:8133   */\n      add\n        /* \"#utility.yul\":8106:8112   */\n      dup5\n        /* \"#utility.yul\":8066:8134   */\n      tag_85\n      jump\t// in\n    tag_196:\n        /* \"#utility.yul\":7707:8141   */\n      swap5\n      swap4\n      pop\n      pop\n      pop\n      pop\n      jump\t// out\n        /* \"#utility.yul\":8147:8476   */\n    tag_34:\n        /* \"#utility.yul\":8206:8212   */\n      0x00\n        /* \"#utility.yul\":8255:8257   */\n      0x20\n        /* \"#utility.yul\":8243:8252   */\n      dup3\n        /* \"#utility.yul\":8234:8241   */\n      dup5\n        /* \"#utility.yul\":8230:8253   */\n      sub\n        /* \"#utility.yul\":8226:8258   */\n      slt\n        /* \"#utility.yul\":8223:8342   */\n      iszero\n      tag_198\n      jumpi\n        /* \"#utility.yul\":8261:8340   */\n      tag_199\n      tag_58\n      jump\t// in\n    tag_199:\n        /* \"#utility.yul\":8223:8342   */\n    tag_198:\n        /* \"#utility.yul\":8381:8382   */\n      0x00\n        /* \"#utility.yul\":8406:8459   */\n      tag_200\n        /* \"#utility.yul\":8451:8458   */\n      dup5\n        /* \"#utility.yul\":8442:8448   */\n      dup3\n        /* \"#utility.yul\":8431:8440   */\n      dup6\n        /* \"#utility.yul\":8427:8449   */\n      add\n        /* \"#utility.yul\":8406:8459   */\n      tag_82\n      jump\t// in\n    tag_200:\n        /* \"#utility.yul\":8396:8459   */\n      swap2\n      pop\n        /* \"#utility.yul\":8352:8469   */\n      pop\n        /* \"#utility.yul\":8147:8476   */\n      swap3\n      swap2\n      pop\n      pop\n      jump\t// out\n        /* \"#utility.yul\":8482:8576   */\n    tag_86:\n        /* \"#utility.yul\":8515:8523   */\n      0x00\n        /* \"#utility.yul\":8563:8568   */\n      dup2\n        /* \"#utility.yul\":8559:8561   */\n      0x60\n        /* \"#utility.yul\":8555:8569   */\n      shl\n        /* \"#utility.yul\":8534:8569   */\n      swap1\n      pop\n        /* \"#utility.yul\":8482:8576   */\n      swap2\n      swap1\n      pop\n      jump\t// out\n        /* \"#utility.yul\":8582:8676   */\n    tag_87:\n        /* \"#utility.yul\":8621:8628   */\n      0x00\n        /* \"#utility.yul\":8650:8670   */\n      tag_203\n        /* \"#utility.yul\":8664:8669   */\n      dup3\n        /* \"#utility.yul\":8650:8670   */\n      tag_86\n      jump\t// in\n    tag_203:\n        /* \"#utility.yul\":8639:8670   */\n      swap1\n      pop\n        /* \"#utility.yul\":8582:8676   */\n      swap2\n      swap1\n      pop\n      jump\t// out\n        /* \"#utility.yul\":8682:8782   */\n    tag_88:\n        /* \"#utility.yul\":8721:8728   */\n      0x00\n        /* \"#utility.yul\":8750:8776   */\n      tag_205\n        /* \"#utility.yul\":8770:8775   */\n      dup3\n        /* \"#utility.yul\":8750:8776   */\n      tag_87\n      jump\t// in\n    tag_205:\n        /* \"#utility.yul\":8739:8776   */\n      swap1\n      pop\n        /* \"#utility.yul\":8682:8782   */\n      swap2\n      swap1\n      pop\n      jump\t// out\n        /* \"#utility.yul\":8788:8945   */\n    tag_89:\n        /* \"#utility.yul\":8893:8938   */\n      tag_207\n        /* \"#utility.yul\":8913:8937   */\n      tag_208\n        /* \"#utility.yul\":8931:8936   */\n      dup3\n        /* \"#utility.yul\":8913:8937   */\n      tag_61\n      jump\t// in\n    tag_208:\n        /* \"#utility.yul\":8893:8938   */\n      tag_88\n      jump\t// in\n    tag_207:\n        /* \"#utility.yul\":8888:8891   */\n      dup3\n        /* \"#utility.yul\":8881:8939   */\n      mstore\n        /* \"#utility.yul\":8788:8945   */\n      pop\n      pop\n      jump\t// out\n        /* \"#utility.yul\":8951:9030   */\n    tag_90:\n        /* \"#utility.yul\":8990:8997   */\n      0x00\n        /* \"#utility.yul\":9019:9024   */\n      dup2\n        /* \"#utility.yul\":9008:9024   */\n      swap1\n      pop\n        /* \"#utility.yul\":8951:9030   */\n      swap2\n      swap1\n      pop\n      jump\t// out\n        /* \"#utility.yul\":9036:9193   */\n    tag_91:\n        /* \"#utility.yul\":9141:9186   */\n      tag_211\n        /* \"#utility.yul\":9161:9185   */\n      tag_212\n        /* \"#utility.yul\":9179:9184   */\n      dup3\n        /* \"#utility.yul\":9161:9185   */\n      tag_64\n      jump\t// in\n    tag_212:\n        /* \"#utility.yul\":9141:9186   */\n      tag_90\n      jump\t// in\n    tag_211:\n        /* \"#utility.yul\":9136:9139   */\n      dup3\n        /* \"#utility.yul\":9129:9187   */\n      mstore\n        /* \"#utility.yul\":9036:9193   */\n      pop\n      pop\n      jump\t// out\n        /* \"#utility.yul\":9199:9596   */\n    tag_39:\n        /* \"#utility.yul\":9339:9342   */\n      0x00\n        /* \"#utility.yul\":9354:9429   */\n      tag_214\n        /* \"#utility.yul\":9425:9428   */\n      dup3\n        /* \"#utility.yul\":9416:9422   */\n      dup6\n        /* \"#utility.yul\":9354:9429   */\n      tag_89\n      jump\t// in\n    tag_214:\n        /* \"#utility.yul\":9454:9456   */\n      0x14\n        /* \"#utility.yul\":9449:9452   */\n      dup3\n        /* \"#utility.yul\":9445:9457   */\n      add\n        /* \"#utility.yul\":9438:9457   */\n      swap2\n      pop\n        /* \"#utility.yul\":9467:9542   */\n      tag_215\n        /* \"#utility.yul\":9538:9541   */\n      dup3\n        /* \"#utility.yul\":9529:9535   */\n      dup5\n        /* \"#utility.yul\":9467:9542   */\n      tag_91\n      jump\t// in\n    tag_215:\n        /* \"#utility.yul\":9567:9569   */\n      0x20\n        /* \"#utility.yul\":9562:9565   */\n      dup3\n        /* \"#utility.yul\":9558:9570   */\n      add\n        /* \"#utility.yul\":9551:9570   */\n      swap2\n      pop\n        /* \"#utility.yul\":9587:9590   */\n      dup2\n        /* \"#utility.yul\":9580:9590   */\n      swap1\n      pop\n        /* \"#utility.yul\":9199:9596   */\n      swap4\n      swap3\n      pop\n      pop\n      pop\n      jump\t// out\n        /* \"#utility.yul\":9602:10147   */\n    tag_47:\n        /* \"#utility.yul\":9775:9779   */\n      0x00\n        /* \"#utility.yul\":9813:9816   */\n      0x80\n        /* \"#utility.yul\":9802:9811   */\n      dup3\n        /* \"#utility.yul\":9798:9817   */\n      add\n        /* \"#utility.yul\":9790:9817   */\n      swap1\n      pop\n        /* \"#utility.yul\":9827:9898   */\n      tag_217\n        /* \"#utility.yul\":9895:9896   */\n      0x00\n        /* \"#utility.yul\":9884:9893   */\n      dup4\n        /* \"#utility.yul\":9880:9897   */\n      add\n        /* \"#utility.yul\":9871:9877   */\n      dup8\n        /* \"#utility.yul\":9827:9898   */\n      tag_68\n      jump\t// in\n    tag_217:\n        /* \"#utility.yul\":9908:9976   */\n      tag_218\n        /* \"#utility.yul\":9972:9974   */\n      0x20\n        /* \"#utility.yul\":9961:9970   */\n      dup4\n        /* \"#utility.yul\":9957:9975   */\n      add\n        /* \"#utility.yul\":9948:9954   */\n      dup7\n        /* \"#utility.yul\":9908:9976   */\n      tag_85\n      jump\t// in\n    tag_218:\n        /* \"#utility.yul\":9986:10058   */\n      tag_219\n        /* \"#utility.yul\":10054:10056   */\n      0x40\n        /* \"#utility.yul\":10043:10052   */\n      dup4\n        /* \"#utility.yul\":10039:10057   */\n      add\n        /* \"#utility.yul\":10030:10036   */\n      dup6\n        /* \"#utility.yul\":9986:10058   */\n      tag_68\n      jump\t// in\n    tag_219:\n        /* \"#utility.yul\":10068:10140   */\n      tag_220\n        /* \"#utility.yul\":10136:10138   */\n      0x60\n        /* \"#utility.yul\":10125:10134   */\n      dup4\n        /* \"#utility.yul\":10121:10139   */\n      add\n        /* \"#utility.yul\":10112:10118   */\n      dup5\n        /* \"#utility.yul\":10068:10140   */\n      tag_68\n      jump\t// in\n    tag_220:\n        /* \"#utility.yul\":9602:10147   */\n      swap6\n      swap5\n      pop\n      pop\n      pop\n      pop\n      pop\n      jump\t// out\n        /* \"#utility.yul\":10153:10322   */\n    tag_92:\n        /* \"#utility.yul\":10237:10248   */\n      0x00\n        /* \"#utility.yul\":10271:10277   */\n      dup3\n        /* \"#utility.yul\":10266:10269   */\n      dup3\n        /* \"#utility.yul\":10259:10278   */\n      mstore\n        /* \"#utility.yul\":10311:10315   */\n      0x20\n        /* \"#utility.yul\":10306:10309   */\n      dup3\n        /* \"#utility.yul\":10302:10316   */\n      add\n        /* \"#utility.yul\":10287:10316   */\n      swap1\n      pop\n        /* \"#utility.yul\":10153:10322   */\n      swap3\n      swap2\n      pop\n      pop\n      jump\t// out\n        /* \"#utility.yul\":10328:10502   */\n    tag_93:\n        /* \"#utility.yul\":10468:10494   */\n      0x696e76616c6964207369676e6174757265206c656e6774680000000000000000\n        /* \"#utility.yul\":10464:10465   */\n      0x00\n        /* \"#utility.yul\":10456:10462   */\n      dup3\n        /* \"#utility.yul\":10452:10466   */\n      add\n        /* \"#utility.yul\":10445:10495   */\n      mstore\n        /* \"#utility.yul\":10328:10502   */\n      pop\n      jump\t// out\n        /* \"#utility.yul\":10508:10874   */\n    tag_94:\n        /* \"#utility.yul\":10650:10653   */\n      0x00\n        /* \"#utility.yul\":10671:10738   */\n      tag_224\n        /* \"#utility.yul\":10735:10737   */\n      0x18\n        /* \"#utility.yul\":10730:10733   */\n      dup4\n        /* \"#utility.yul\":10671:10738   */\n      tag_92\n      jump\t// in\n    tag_224:\n        /* \"#utility.yul\":10664:10738   */\n      swap2\n      pop\n        /* \"#utility.yul\":10747:10840   */\n      tag_225\n        /* \"#utility.yul\":10836:10839   */\n      dup3\n        /* \"#utility.yul\":10747:10840   */\n      tag_93\n      jump\t// in\n    tag_225:\n        /* \"#utility.yul\":10865:10867   */\n      0x20\n        /* \"#utility.yul\":10860:10863   */\n      dup3\n        /* \"#utility.yul\":10856:10868   */\n      add\n        /* \"#utility.yul\":10849:10868   */\n      swap1\n      pop\n        /* \"#utility.yul\":10508:10874   */\n      swap2\n      swap1\n      pop\n      jump\t// out\n        /* \"#utility.yul\":10880:11299   */\n    tag_53:\n        /* \"#utility.yul\":11046:11050   */\n      0x00\n        /* \"#utility.yul\":11084:11086   */\n      0x20\n        /* \"#utility.yul\":11073:11082   */\n      dup3\n        /* \"#utility.yul\":11069:11087   */\n      add\n        /* \"#utility.yul\":11061:11087   */\n      swap1\n      pop\n        /* \"#utility.yul\":11133:11142   */\n      dup2\n        /* \"#utility.yul\":11127:11131   */\n      dup2\n        /* \"#utility.yul\":11123:11143   */\n      sub\n        /* \"#utility.yul\":11119:11120   */\n      0x00\n        /* \"#utility.yul\":11108:11117   */\n      dup4\n        /* \"#utility.yul\":11104:11121   */\n      add\n        /* \"#utility.yul\":11097:11144   */\n      mstore\n        /* \"#utility.yul\":11161:11292   */\n      tag_227\n        /* \"#utility.yul\":11287:11291   */\n      dup2\n        /* \"#utility.yul\":11161:11292   */\n      tag_94\n      jump\t// in\n    tag_227:\n        /* \"#utility.yul\":11153:11292   */\n      swap1\n      pop\n        /* \"#utility.yul\":10880:11299   */\n      swap2\n      swap1\n      pop\n      jump\t// out\n        /* \"#utility.yul\":11305:11453   */\n    tag_95:\n        /* \"#utility.yul\":11407:11418   */\n      0x00\n        /* \"#utility.yul\":11444:11447   */\n      dup2\n        /* \"#utility.yul\":11429:11447   */\n      swap1\n      pop\n        /* \"#utility.yul\":11305:11453   */\n      swap3\n      swap2\n      pop\n      pop\n      jump\t// out\n        /* \"#utility.yul\":11459:11673   */\n    tag_96:\n        /* \"#utility.yul\":11599:11665   */\n      0x19457468657265756d205369676e6564204d6573736167653a0a333200000000\n        /* \"#utility.yul\":11595:11596   */\n      0x00\n        /* \"#utility.yul\":11587:11593   */\n      dup3\n        /* \"#utility.yul\":11583:11597   */\n      add\n        /* \"#utility.yul\":11576:11666   */\n      mstore\n        /* \"#utility.yul\":11459:11673   */\n      pop\n      jump\t// out\n        /* \"#utility.yul\":11679:12081   */\n    tag_97:\n        /* \"#utility.yul\":11839:11842   */\n      0x00\n        /* \"#utility.yul\":11860:11945   */\n      tag_231\n        /* \"#utility.yul\":11942:11944   */\n      0x1c\n        /* \"#utility.yul\":11937:11940   */\n      dup4\n        /* \"#utility.yul\":11860:11945   */\n      tag_95\n      jump\t// in\n    tag_231:\n        /* \"#utility.yul\":11853:11945   */\n      swap2\n      pop\n        /* \"#utility.yul\":11954:12047   */\n      tag_232\n        /* \"#utility.yul\":12043:12046   */\n      dup3\n        /* \"#utility.yul\":11954:12047   */\n      tag_96\n      jump\t// in\n    tag_232:\n        /* \"#utility.yul\":12072:12074   */\n      0x1c\n        /* \"#utility.yul\":12067:12070   */\n      dup3\n        /* \"#utility.yul\":12063:12075   */\n      add\n        /* \"#utility.yul\":12056:12075   */\n      swap1\n      pop\n        /* \"#utility.yul\":11679:12081   */\n      swap2\n      swap1\n      pop\n      jump\t// out\n        /* \"#utility.yul\":12087:12166   */\n    tag_98:\n        /* \"#utility.yul\":12126:12133   */\n      0x00\n        /* \"#utility.yul\":12155:12160   */\n      dup2\n        /* \"#utility.yul\":12144:12160   */\n      swap1\n      pop\n        /* \"#utility.yul\":12087:12166   */\n      swap2\n      swap1\n      pop\n      jump\t// out\n        /* \"#utility.yul\":12172:12329   */\n    tag_99:\n        /* \"#utility.yul\":12277:12322   */\n      tag_235\n        /* \"#utility.yul\":12297:12321   */\n      tag_236\n        /* \"#utility.yul\":12315:12320   */\n      dup3\n        /* \"#utility.yul\":12297:12321   */\n      tag_67\n      jump\t// in\n    tag_236:\n        /* \"#utility.yul\":12277:12322   */\n      tag_98\n      jump\t// in\n    tag_235:\n        /* \"#utility.yul\":12272:12275   */\n      dup3\n        /* \"#utility.yul\":12265:12323   */\n      mstore\n        /* \"#utility.yul\":12172:12329   */\n      pop\n      pop\n      jump\t// out\n        /* \"#utility.yul\":12335:12857   */\n    tag_56:\n        /* \"#utility.yul\":12548:12551   */\n      0x00\n        /* \"#utility.yul\":12570:12718   */\n      tag_238\n        /* \"#utility.yul\":12714:12717   */\n      dup3\n        /* \"#utility.yul\":12570:12718   */\n      tag_97\n      jump\t// in\n    tag_238:\n        /* \"#utility.yul\":12563:12718   */\n      swap2\n      pop\n        /* \"#utility.yul\":12728:12803   */\n      tag_239\n        /* \"#utility.yul\":12799:12802   */\n      dup3\n        /* \"#utility.yul\":12790:12796   */\n      dup5\n        /* \"#utility.yul\":12728:12803   */\n      tag_99\n      jump\t// in\n    tag_239:\n        /* \"#utility.yul\":12828:12830   */\n      0x20\n        /* \"#utility.yul\":12823:12826   */\n      dup3\n        /* \"#utility.yul\":12819:12831   */\n      add\n        /* \"#utility.yul\":12812:12831   */\n      swap2\n      pop\n        /* \"#utility.yul\":12848:12851   */\n      dup2\n        /* \"#utility.yul\":12841:12851   */\n      swap1\n      pop\n        /* \"#utility.yul\":12335:12857   */\n      swap3\n      swap2\n      pop\n      pop\n      jump\t// out\n\n    auxdata: 0xa26469706673582212203d01643fc4ca6d3d8d4c3a963d718e5a3ec72daad82730515431a1afb3c3405c64736f6c63430008100033\n}\n",
				"bytecode": {
					"linkReferences": {},
					"object": "608060405234801561001057600080fd5b506109a9806100206000396000f3fe608060405234801561001057600080fd5b50600436106100575760003560e01c8063512c91df1461005c57806393e9f8fc1461008c57806397aba7f9146100bc578063a7bb5803146100ec578063fa5408011461011e575b600080fd5b61007660048036038101906100719190610390565b61014e565b60405161008391906103e9565b60405180910390f35b6100a660048036038101906100a1919061054a565b610181565b6040516100b391906105e8565b60405180910390f35b6100d660048036038101906100d1919061062f565b6101e1565b6040516100e3919061069a565b60405180910390f35b610106600480360381019061010191906106b5565b610250565b6040516101159392919061071a565b60405180910390f35b61013860048036038101906101339190610751565b6102b8565b60405161014591906103e9565b60405180910390f35b600082826040516020016101639291906107e7565b60405160208183030381529060405280519060200120905092915050565b60008061018e858561014e565b9050600061019b826102b8565b90508673ffffffffffffffffffffffffffffffffffffffff166101be82866101e1565b73ffffffffffffffffffffffffffffffffffffffff161492505050949350505050565b6000806000806101f085610250565b925092509250600186828585604051600081526020016040526040516102199493929190610813565b6020604051602081039080840390855afa15801561023b573d6000803e3d6000fd5b50505060206040510351935050505092915050565b60008060006041845114610299576040517f08c379a0000000000000000000000000000000000000000000000000000000008152600401610290906108b5565b60405180910390fd5b6020840151925060408401519150606084015160001a90509193909250565b6000816040516020016102cb919061094d565b604051602081830303815290604052805190602001209050919050565b6000604051905090565b600080fd5b600080fd5b600073ffffffffffffffffffffffffffffffffffffffff82169050919050565b6000610327826102fc565b9050919050565b6103378161031c565b811461034257600080fd5b50565b6000813590506103548161032e565b92915050565b6000819050919050565b61036d8161035a565b811461037857600080fd5b50565b60008135905061038a81610364565b92915050565b600080604083850312156103a7576103a66102f2565b5b60006103b585828601610345565b92505060206103c68582860161037b565b9150509250929050565b6000819050919050565b6103e3816103d0565b82525050565b60006020820190506103fe60008301846103da565b92915050565b600080fd5b600080fd5b6000601f19601f8301169050919050565b7f4e487b7100000000000000000000000000000000000000000000000000000000600052604160045260246000fd5b6104578261040e565b810181811067ffffffffffffffff821117156104765761047561041f565b5b80604052505050565b60006104896102e8565b9050610495828261044e565b919050565b600067ffffffffffffffff8211156104b5576104b461041f565b5b6104be8261040e565b9050602081019050919050565b82818337600083830152505050565b60006104ed6104e88461049a565b61047f565b90508281526020810184848401111561050957610508610409565b5b6105148482856104cb565b509392505050565b600082601f83011261053157610530610404565b5b81356105418482602086016104da565b91505092915050565b60008060008060808587031215610564576105636102f2565b5b600061057287828801610345565b945050602061058387828801610345565b93505060406105948782880161037b565b925050606085013567ffffffffffffffff8111156105b5576105b46102f7565b5b6105c18782880161051c565b91505092959194509250565b60008115159050919050565b6105e2816105cd565b82525050565b60006020820190506105fd60008301846105d9565b92915050565b61060c816103d0565b811461061757600080fd5b50565b60008135905061062981610603565b92915050565b60008060408385031215610646576106456102f2565b5b60006106548582860161061a565b925050602083013567ffffffffffffffff811115610675576106746102f7565b5b6106818582860161051c565b9150509250929050565b6106948161031c565b82525050565b60006020820190506106af600083018461068b565b92915050565b6000602082840312156106cb576106ca6102f2565b5b600082013567ffffffffffffffff8111156106e9576106e86102f7565b5b6106f58482850161051c565b91505092915050565b600060ff82169050919050565b610714816106fe565b82525050565b600060608201905061072f60008301866103da565b61073c60208301856103da565b610749604083018461070b565b949350505050565b600060208284031215610767576107666102f2565b5b60006107758482850161061a565b91505092915050565b60008160601b9050919050565b60006107968261077e565b9050919050565b60006107a88261078b565b9050919050565b6107c06107bb8261031c565b61079d565b82525050565b6000819050919050565b6107e16107dc8261035a565b6107c6565b82525050565b60006107f382856107af565b60148201915061080382846107d0565b6020820191508190509392505050565b600060808201905061082860008301876103da565b610835602083018661070b565b61084260408301856103da565b61084f60608301846103da565b95945050505050565b600082825260208201905092915050565b7f696e76616c6964207369676e6174757265206c656e6774680000000000000000600082015250565b600061089f601883610858565b91506108aa82610869565b602082019050919050565b600060208201905081810360008301526108ce81610892565b9050919050565b600081905092915050565b7f19457468657265756d205369676e6564204d6573736167653a0a333200000000600082015250565b6000610916601c836108d5565b9150610921826108e0565b601c82019050919050565b6000819050919050565b610947610942826103d0565b61092c565b82525050565b600061095882610909565b91506109648284610936565b6020820191508190509291505056fea26469706673582212203d01643fc4ca6d3d8d4c3a963d718e5a3ec72daad82730515431a1afb3c3405c64736f6c63430008100033",
					"opcodes": "PUSH1 0x80 PUSH1 0x40 MSTORE CALLVALUE DUP1 ISZERO PUSH2 0x10 JUMPI PUSH1 0x0 DUP1 REVERT JUMPDEST POP PUSH2 0x9A9 DUP1 PUSH2 0x20 PUSH1 0x0 CODECOPY PUSH1 0x0 RETURN INVALID PUSH1 0x80 PUSH1 0x40 MSTORE CALLVALUE DUP1 ISZERO PUSH2 0x10 JUMPI PUSH1 0x0 DUP1 REVERT JUMPDEST POP PUSH1 0x4 CALLDATASIZE LT PUSH2 0x57 JUMPI PUSH1 0x0 CALLDATALOAD PUSH1 0xE0 SHR DUP1 PUSH4 0x512C91DF EQ PUSH2 0x5C JUMPI DUP1 PUSH4 0x93E9F8FC EQ PUSH2 0x8C JUMPI DUP1 PUSH4 0x97ABA7F9 EQ PUSH2 0xBC JUMPI DUP1 PUSH4 0xA7BB5803 EQ PUSH2 0xEC JUMPI DUP1 PUSH4 0xFA540801 EQ PUSH2 0x11E JUMPI JUMPDEST PUSH1 0x0 DUP1 REVERT JUMPDEST PUSH2 0x76 PUSH1 0x4 DUP1 CALLDATASIZE SUB DUP2 ADD SWAP1 PUSH2 0x71 SWAP2 SWAP1 PUSH2 0x390 JUMP JUMPDEST PUSH2 0x14E JUMP JUMPDEST PUSH1 0x40 MLOAD PUSH2 0x83 SWAP2 SWAP1 PUSH2 0x3E9 JUMP JUMPDEST PUSH1 0x40 MLOAD DUP1 SWAP2 SUB SWAP1 RETURN JUMPDEST PUSH2 0xA6 PUSH1 0x4 DUP1 CALLDATASIZE SUB DUP2 ADD SWAP1 PUSH2 0xA1 SWAP2 SWAP1 PUSH2 0x54A JUMP JUMPDEST PUSH2 0x181 JUMP JUMPDEST PUSH1 0x40 MLOAD PUSH2 0xB3 SWAP2 SWAP1 PUSH2 0x5E8 JUMP JUMPDEST PUSH1 0x40 MLOAD DUP1 SWAP2 SUB SWAP1 RETURN JUMPDEST PUSH2 0xD6 PUSH1 0x4 DUP1 CALLDATASIZE SUB DUP2 ADD SWAP1 PUSH2 0xD1 SWAP2 SWAP1 PUSH2 0x62F JUMP JUMPDEST PUSH2 0x1E1 JUMP JUMPDEST PUSH1 0x40 MLOAD PUSH2 0xE3 SWAP2 SWAP1 PUSH2 0x69A JUMP JUMPDEST PUSH1 0x40 MLOAD DUP1 SWAP2 SUB SWAP1 RETURN JUMPDEST PUSH2 0x106 PUSH1 0x4 DUP1 CALLDATASIZE SUB DUP2 ADD SWAP1 PUSH2 0x101 SWAP2 SWAP1 PUSH2 0x6B5 JUMP JUMPDEST PUSH2 0x250 JUMP JUMPDEST PUSH1 0x40 MLOAD PUSH2 0x115 SWAP4 SWAP3 SWAP2 SWAP1 PUSH2 0x71A JUMP JUMPDEST PUSH1 0x40 MLOAD DUP1 SWAP2 SUB SWAP1 RETURN JUMPDEST PUSH2 0x138 PUSH1 0x4 DUP1 CALLDATASIZE SUB DUP2 ADD SWAP1 PUSH2 0x133 SWAP2 SWAP1 PUSH2 0x751 JUMP JUMPDEST PUSH2 0x2B8 JUMP JUMPDEST PUSH1 0x40 MLOAD PUSH2 0x145 SWAP2 SWAP1 PUSH2 0x3E9 JUMP JUMPDEST PUSH1 0x40 MLOAD DUP1 SWAP2 SUB SWAP1 RETURN JUMPDEST PUSH1 0x0 DUP3 DUP3 PUSH1 0x40 MLOAD PUSH1 0x20 ADD PUSH2 0x163 SWAP3 SWAP2 SWAP1 PUSH2 0x7E7 JUMP JUMPDEST PUSH1 0x40 MLOAD PUSH1 0x20 DUP2 DUP4 SUB SUB DUP2 MSTORE SWAP1 PUSH1 0x40 MSTORE DUP1 MLOAD SWAP1 PUSH1 0x20 ADD KECCAK256 SWAP1 POP SWAP3 SWAP2 POP POP JUMP JUMPDEST PUSH1 0x0 DUP1 PUSH2 0x18E DUP6 DUP6 PUSH2 0x14E JUMP JUMPDEST SWAP1 POP PUSH1 0x0 PUSH2 0x19B DUP3 PUSH2 0x2B8 JUMP JUMPDEST SWAP1 POP DUP7 PUSH20 0xFFFFFFFFFFFFFFFFFFFFFFFFFFFFFFFFFFFFFFFF AND PUSH2 0x1BE DUP3 DUP7 PUSH2 0x1E1 JUMP JUMPDEST PUSH20 0xFFFFFFFFFFFFFFFFFFFFFFFFFFFFFFFFFFFFFFFF AND EQ SWAP3 POP POP POP SWAP5 SWAP4 POP POP POP POP JUMP JUMPDEST PUSH1 0x0 DUP1 PUSH1 0x0 DUP1 PUSH2 0x1F0 DUP6 PUSH2 0x250 JUMP JUMPDEST SWAP3 POP SWAP3 POP SWAP3 POP PUSH1 0x1 DUP7 DUP3 DUP6 DUP6 PUSH1 0x40 MLOAD PUSH1 0x0 DUP2 MSTORE PUSH1 0x20 ADD PUSH1 0x40 MSTORE PUSH1 0x40 MLOAD PUSH2 0x219 SWAP5 SWAP4 SWAP3 SWAP2 SWAP1 PUSH2 0x813 JUMP JUMPDEST PUSH1 0x20 PUSH1 0x40 MLOAD PUSH1 0x20 DUP2 SUB SWAP1 DUP1 DUP5 SUB SWAP1 DUP6 GAS STATICCALL ISZERO DUP1 ISZERO PUSH2 0x23B JUMPI RETURNDATASIZE PUSH1 0x0 DUP1 RETURNDATACOPY RETURNDATASIZE PUSH1 0x0 REVERT JUMPDEST POP POP POP PUSH1 0x20 PUSH1 0x40 MLOAD SUB MLOAD SWAP4 POP POP POP POP SWAP3 SWAP2 POP POP JUMP JUMPDEST PUSH1 0x0 DUP1 PUSH1 0x0 PUSH1 0x41 DUP5 MLOAD EQ PUSH2 0x299 JUMPI PUSH1 0x40 MLOAD PUSH32 0x8C379A000000000000000000000000000000000000000000000000000000000 DUP2 MSTORE PUSH1 0x4 ADD PUSH2 0x290 SWAP1 PUSH2 0x8B5 JUMP JUMPDEST PUSH1 0x40 MLOAD DUP1 SWAP2 SUB SWAP1 REVERT JUMPDEST PUSH1 0x20 DUP5 ADD MLOAD SWAP3 POP PUSH1 0x40 DUP5 ADD MLOAD SWAP2 POP PUSH1 0x60 DUP5 ADD MLOAD PUSH1 0x0 BYTE SWAP1 POP SWAP2 SWAP4 SWAP1 SWAP3 POP JUMP JUMPDEST PUSH1 0x0 DUP2 PUSH1 0x40 MLOAD PUSH1 0x20 ADD PUSH2 0x2CB SWAP2 SWAP1 PUSH2 0x94D JUMP JUMPDEST PUSH1 0x40 MLOAD PUSH1 0x20 DUP2 DUP4 SUB SUB DUP2 MSTORE SWAP1 PUSH1 0x40 MSTORE DUP1 MLOAD SWAP1 PUSH1 0x20 ADD KECCAK256 SWAP1 POP SWAP2 SWAP1 POP JUMP JUMPDEST PUSH1 0x0 PUSH1 0x40 MLOAD SWAP1 POP SWAP1 JUMP JUMPDEST PUSH1 0x0 DUP1 REVERT JUMPDEST PUSH1 0x0 DUP1 REVERT JUMPDEST PUSH1 0x0 PUSH20 0xFFFFFFFFFFFFFFFFFFFFFFFFFFFFFFFFFFFFFFFF DUP3 AND SWAP1 POP SWAP2 SWAP1 POP JUMP JUMPDEST PUSH1 0x0 PUSH2 0x327 DUP3 PUSH2 0x2FC JUMP JUMPDEST SWAP1 POP SWAP2 SWAP1 POP JUMP JUMPDEST PUSH2 0x337 DUP2 PUSH2 0x31C JUMP JUMPDEST DUP2 EQ PUSH2 0x342 JUMPI PUSH1 0x0 DUP1 REVERT JUMPDEST POP JUMP JUMPDEST PUSH1 0x0 DUP2 CALLDATALOAD SWAP1 POP PUSH2 0x354 DUP2 PUSH2 0x32E JUMP JUMPDEST SWAP3 SWAP2 POP POP JUMP JUMPDEST PUSH1 0x0 DUP2 SWAP1 POP SWAP2 SWAP1 POP JUMP JUMPDEST PUSH2 0x36D DUP2 PUSH2 0x35A JUMP JUMPDEST DUP2 EQ PUSH2 0x378 JUMPI PUSH1 0x0 DUP1 REVERT JUMPDEST POP JUMP JUMPDEST PUSH1 0x0 DUP2 CALLDATALOAD SWAP1 POP PUSH2 0x38A DUP2 PUSH2 0x364 JUMP JUMPDEST SWAP3 SWAP2 POP POP JUMP JUMPDEST PUSH1 0x0 DUP1 PUSH1 0x40 DUP4 DUP6 SUB SLT ISZERO PUSH2 0x3A7 JUMPI PUSH2 0x3A6 PUSH2 0x2F2 JUMP JUMPDEST JUMPDEST PUSH1 0x0 PUSH2 0x3B5 DUP6 DUP3 DUP7 ADD PUSH2 0x345 JUMP JUMPDEST SWAP3 POP POP PUSH1 0x20 PUSH2 0x3C6 DUP6 DUP3 DUP7 ADD PUSH2 0x37B JUMP JUMPDEST SWAP2 POP POP SWAP3 POP SWAP3 SWAP1 POP JUMP JUMPDEST PUSH1 0x0 DUP2 SWAP1 POP SWAP2 SWAP1 POP JUMP JUMPDEST PUSH2 0x3E3 DUP2 PUSH2 0x3D0 JUMP JUMPDEST DUP3 MSTORE POP POP JUMP JUMPDEST PUSH1 0x0 PUSH1 0x20 DUP3 ADD SWAP1 POP PUSH2 0x3FE PUSH1 0x0 DUP4 ADD DUP5 PUSH2 0x3DA JUMP JUMPDEST SWAP3 SWAP2 POP POP JUMP JUMPDEST PUSH1 0x0 DUP1 REVERT JUMPDEST PUSH1 0x0 DUP1 REVERT JUMPDEST PUSH1 0x0 PUSH1 0x1F NOT PUSH1 0x1F DUP4 ADD AND SWAP1 POP SWAP2 SWAP1 POP JUMP JUMPDEST PUSH32 0x4E487B7100000000000000000000000000000000000000000000000000000000 PUSH1 0x0 MSTORE PUSH1 0x41 PUSH1 0x4 MSTORE PUSH1 0x24 PUSH1 0x0 REVERT JUMPDEST PUSH2 0x457 DUP3 PUSH2 0x40E JUMP JUMPDEST DUP2 ADD DUP2 DUP2 LT PUSH8 0xFFFFFFFFFFFFFFFF DUP3 GT OR ISZERO PUSH2 0x476 JUMPI PUSH2 0x475 PUSH2 0x41F JUMP JUMPDEST JUMPDEST DUP1 PUSH1 0x40 MSTORE POP POP POP JUMP JUMPDEST PUSH1 0x0 PUSH2 0x489 PUSH2 0x2E8 JUMP JUMPDEST SWAP1 POP PUSH2 0x495 DUP3 DUP3 PUSH2 0x44E JUMP JUMPDEST SWAP2 SWAP1 POP JUMP JUMPDEST PUSH1 0x0 PUSH8 0xFFFFFFFFFFFFFFFF DUP3 GT ISZERO PUSH2 0x4B5 JUMPI PUSH2 0x4B4 PUSH2 0x41F JUMP JUMPDEST JUMPDEST PUSH2 0x4BE DUP3 PUSH2 0x40E JUMP JUMPDEST SWAP1 POP PUSH1 0x20 DUP2 ADD SWAP1 POP SWAP2 SWAP1 POP JUMP JUMPDEST DUP3 DUP2 DUP4 CALLDATACOPY PUSH1 0x0 DUP4 DUP4 ADD MSTORE POP POP POP JUMP JUMPDEST PUSH1 0x0 PUSH2 0x4ED PUSH2 0x4E8 DUP5 PUSH2 0x49A JUMP JUMPDEST PUSH2 0x47F JUMP JUMPDEST SWAP1 POP DUP3 DUP2 MSTORE PUSH1 0x20 DUP2 ADD DUP5 DUP5 DUP5 ADD GT ISZERO PUSH2 0x509 JUMPI PUSH2 0x508 PUSH2 0x409 JUMP JUMPDEST JUMPDEST PUSH2 0x514 DUP5 DUP3 DUP6 PUSH2 0x4CB JUMP JUMPDEST POP SWAP4 SWAP3 POP POP POP JUMP JUMPDEST PUSH1 0x0 DUP3 PUSH1 0x1F DUP4 ADD SLT PUSH2 0x531 JUMPI PUSH2 0x530 PUSH2 0x404 JUMP JUMPDEST JUMPDEST DUP2 CALLDATALOAD PUSH2 0x541 DUP5 DUP3 PUSH1 0x20 DUP7 ADD PUSH2 0x4DA JUMP JUMPDEST SWAP2 POP POP SWAP3 SWAP2 POP POP JUMP JUMPDEST PUSH1 0x0 DUP1 PUSH1 0x0 DUP1 PUSH1 0x80 DUP6 DUP8 SUB SLT ISZERO PUSH2 0x564 JUMPI PUSH2 0x563 PUSH2 0x2F2 JUMP JUMPDEST JUMPDEST PUSH1 0x0 PUSH2 0x572 DUP8 DUP3 DUP9 ADD PUSH2 0x345 JUMP JUMPDEST SWAP5 POP POP PUSH1 0x20 PUSH2 0x583 DUP8 DUP3 DUP9 ADD PUSH2 0x345 JUMP JUMPDEST SWAP4 POP POP PUSH1 0x40 PUSH2 0x594 DUP8 DUP3 DUP9 ADD PUSH2 0x37B JUMP JUMPDEST SWAP3 POP POP PUSH1 0x60 DUP6 ADD CALLDATALOAD PUSH8 0xFFFFFFFFFFFFFFFF DUP2 GT ISZERO PUSH2 0x5B5 JUMPI PUSH2 0x5B4 PUSH2 0x2F7 JUMP JUMPDEST JUMPDEST PUSH2 0x5C1 DUP8 DUP3 DUP9 ADD PUSH2 0x51C JUMP JUMPDEST SWAP2 POP POP SWAP3 SWAP6 SWAP2 SWAP5 POP SWAP3 POP JUMP JUMPDEST PUSH1 0x0 DUP2 ISZERO ISZERO SWAP1 POP SWAP2 SWAP1 POP JUMP JUMPDEST PUSH2 0x5E2 DUP2 PUSH2 0x5CD JUMP JUMPDEST DUP3 MSTORE POP POP JUMP JUMPDEST PUSH1 0x0 PUSH1 0x20 DUP3 ADD SWAP1 POP PUSH2 0x5FD PUSH1 0x0 DUP4 ADD DUP5 PUSH2 0x5D9 JUMP JUMPDEST SWAP3 SWAP2 POP POP JUMP JUMPDEST PUSH2 0x60C DUP2 PUSH2 0x3D0 JUMP JUMPDEST DUP2 EQ PUSH2 0x617 JUMPI PUSH1 0x0 DUP1 REVERT JUMPDEST POP JUMP JUMPDEST PUSH1 0x0 DUP2 CALLDATALOAD SWAP1 POP PUSH2 0x629 DUP2 PUSH2 0x603 JUMP JUMPDEST SWAP3 SWAP2 POP POP JUMP JUMPDEST PUSH1 0x0 DUP1 PUSH1 0x40 DUP4 DUP6 SUB SLT ISZERO PUSH2 0x646 JUMPI PUSH2 0x645 PUSH2 0x2F2 JUMP JUMPDEST JUMPDEST PUSH1 0x0 PUSH2 0x654 DUP6 DUP3 DUP7 ADD PUSH2 0x61A JUMP JUMPDEST SWAP3 POP POP PUSH1 0x20 DUP4 ADD CALLDATALOAD PUSH8 0xFFFFFFFFFFFFFFFF DUP2 GT ISZERO PUSH2 0x675 JUMPI PUSH2 0x674 PUSH2 0x2F7 JUMP JUMPDEST JUMPDEST PUSH2 0x681 DUP6 DUP3 DUP7 ADD PUSH2 0x51C JUMP JUMPDEST SWAP2 POP POP SWAP3 POP SWAP3 SWAP1 POP JUMP JUMPDEST PUSH2 0x694 DUP2 PUSH2 0x31C JUMP JUMPDEST DUP3 MSTORE POP POP JUMP JUMPDEST PUSH1 0x0 PUSH1 0x20 DUP3 ADD SWAP1 POP PUSH2 0x6AF PUSH1 0x0 DUP4 ADD DUP5 PUSH2 0x68B JUMP JUMPDEST SWAP3 SWAP2 POP POP JUMP JUMPDEST PUSH1 0x0 PUSH1 0x20 DUP3 DUP5 SUB SLT ISZERO PUSH2 0x6CB JUMPI PUSH2 0x6CA PUSH2 0x2F2 JUMP JUMPDEST JUMPDEST PUSH1 0x0 DUP3 ADD CALLDATALOAD PUSH8 0xFFFFFFFFFFFFFFFF DUP2 GT ISZERO PUSH2 0x6E9 JUMPI PUSH2 0x6E8 PUSH2 0x2F7 JUMP JUMPDEST JUMPDEST PUSH2 0x6F5 DUP5 DUP3 DUP6 ADD PUSH2 0x51C JUMP JUMPDEST SWAP2 POP POP SWAP3 SWAP2 POP POP JUMP JUMPDEST PUSH1 0x0 PUSH1 0xFF DUP3 AND SWAP1 POP SWAP2 SWAP1 POP JUMP JUMPDEST PUSH2 0x714 DUP2 PUSH2 0x6FE JUMP JUMPDEST DUP3 MSTORE POP POP JUMP JUMPDEST PUSH1 0x0 PUSH1 0x60 DUP3 ADD SWAP1 POP PUSH2 0x72F PUSH1 0x0 DUP4 ADD DUP7 PUSH2 0x3DA JUMP JUMPDEST PUSH2 0x73C PUSH1 0x20 DUP4 ADD DUP6 PUSH2 0x3DA JUMP JUMPDEST PUSH2 0x749 PUSH1 0x40 DUP4 ADD DUP5 PUSH2 0x70B JUMP JUMPDEST SWAP5 SWAP4 POP POP POP POP JUMP JUMPDEST PUSH1 0x0 PUSH1 0x20 DUP3 DUP5 SUB SLT ISZERO PUSH2 0x767 JUMPI PUSH2 0x766 PUSH2 0x2F2 JUMP JUMPDEST JUMPDEST PUSH1 0x0 PUSH2 0x775 DUP5 DUP3 DUP6 ADD PUSH2 0x61A JUMP JUMPDEST SWAP2 POP POP SWAP3 SWAP2 POP POP JUMP JUMPDEST PUSH1 0x0 DUP2 PUSH1 0x60 SHL SWAP1 POP SWAP2 SWAP1 POP JUMP JUMPDEST PUSH1 0x0 PUSH2 0x796 DUP3 PUSH2 0x77E JUMP JUMPDEST SWAP1 POP SWAP2 SWAP1 POP JUMP JUMPDEST PUSH1 0x0 PUSH2 0x7A8 DUP3 PUSH2 0x78B JUMP JUMPDEST SWAP1 POP SWAP2 SWAP1 POP JUMP JUMPDEST PUSH2 0x7C0 PUSH2 0x7BB DUP3 PUSH2 0x31C JUMP JUMPDEST PUSH2 0x79D JUMP JUMPDEST DUP3 MSTORE POP POP JUMP JUMPDEST PUSH1 0x0 DUP2 SWAP1 POP SWAP2 SWAP1 POP JUMP JUMPDEST PUSH2 0x7E1 PUSH2 0x7DC DUP3 PUSH2 0x35A JUMP JUMPDEST PUSH2 0x7C6 JUMP JUMPDEST DUP3 MSTORE POP POP JUMP JUMPDEST PUSH1 0x0 PUSH2 0x7F3 DUP3 DUP6 PUSH2 0x7AF JUMP JUMPDEST PUSH1 0x14 DUP3 ADD SWAP2 POP PUSH2 0x803 DUP3 DUP5 PUSH2 0x7D0 JUMP JUMPDEST PUSH1 0x20 DUP3 ADD SWAP2 POP DUP2 SWAP1 POP SWAP4 SWAP3 POP POP POP JUMP JUMPDEST PUSH1 0x0 PUSH1 0x80 DUP3 ADD SWAP1 POP PUSH2 0x828 PUSH1 0x0 DUP4 ADD DUP8 PUSH2 0x3DA JUMP JUMPDEST PUSH2 0x835 PUSH1 0x20 DUP4 ADD DUP7 PUSH2 0x70B JUMP JUMPDEST PUSH2 0x842 PUSH1 0x40 DUP4 ADD DUP6 PUSH2 0x3DA JUMP JUMPDEST PUSH2 0x84F PUSH1 0x60 DUP4 ADD DUP5 PUSH2 0x3DA JUMP JUMPDEST SWAP6 SWAP5 POP POP POP POP POP JUMP JUMPDEST PUSH1 0x0 DUP3 DUP3 MSTORE PUSH1 0x20 DUP3 ADD SWAP1 POP SWAP3 SWAP2 POP POP JUMP JUMPDEST PUSH32 0x696E76616C6964207369676E6174757265206C656E6774680000000000000000 PUSH1 0x0 DUP3 ADD MSTORE POP JUMP JUMPDEST PUSH1 0x0 PUSH2 0x89F PUSH1 0x18 DUP4 PUSH2 0x858 JUMP JUMPDEST SWAP2 POP PUSH2 0x8AA DUP3 PUSH2 0x869 JUMP JUMPDEST PUSH1 0x20 DUP3 ADD SWAP1 POP SWAP2 SWAP1 POP JUMP JUMPDEST PUSH1 0x0 PUSH1 0x20 DUP3 ADD SWAP1 POP DUP2 DUP2 SUB PUSH1 0x0 DUP4 ADD MSTORE PUSH2 0x8CE DUP2 PUSH2 0x892 JUMP JUMPDEST SWAP1 POP SWAP2 SWAP1 POP JUMP JUMPDEST PUSH1 0x0 DUP2 SWAP1 POP SWAP3 SWAP2 POP POP JUMP JUMPDEST PUSH32 0x19457468657265756D205369676E6564204D6573736167653A0A333200000000 PUSH1 0x0 DUP3 ADD MSTORE POP JUMP JUMPDEST PUSH1 0x0 PUSH2 0x916 PUSH1 0x1C DUP4 PUSH2 0x8D5 JUMP JUMPDEST SWAP2 POP PUSH2 0x921 DUP3 PUSH2 0x8E0 JUMP JUMPDEST PUSH1 0x1C DUP3 ADD SWAP1 POP SWAP2 SWAP1 POP JUMP JUMPDEST PUSH1 0x0 DUP2 SWAP1 POP SWAP2 SWAP1 POP JUMP JUMPDEST PUSH2 0x947 PUSH2 0x942 DUP3 PUSH2 0x3D0 JUMP JUMPDEST PUSH2 0x92C JUMP JUMPDEST DUP3 MSTORE POP POP JUMP JUMPDEST PUSH1 0x0 PUSH2 0x958 DUP3 PUSH2 0x909 JUMP JUMPDEST SWAP2 POP PUSH2 0x964 DUP3 DUP5 PUSH2 0x936 JUMP JUMPDEST PUSH1 0x20 DUP3 ADD SWAP2 POP DUP2 SWAP1 POP SWAP3 SWAP2 POP POP JUMP INVALID LOG2 PUSH5 0x6970667358 0x22 SLT KECCAK256 RETURNDATASIZE ADD PUSH5 0x3FC4CA6D3D DUP14 0x4C GASPRICE SWAP7 RETURNDATASIZE PUSH18 0x8E5A3EC72DAAD82730515431A1AFB3C3405C PUSH5 0x736F6C6343 STOP ADDMOD LT STOP CALLER "
				},
				"gasEstimates": {
					"creation": {
						"codeDepositCost": "494600",
						"executionCost": "530",
						"totalCost": "495130"
					},
					"external": {
						"getEthSignedMessageHash(bytes32)": "infinite",
						"getMessageHash(address,uint256)": "infinite",
						"recoverSigner(bytes32,bytes)": "infinite",
						"splitSignature(bytes)": "infinite",
						"verify(address,address,uint256,bytes)": "infinite"
					}
				},
				"methodIdentifiers": {
					"getEthSignedMessageHash(bytes32)": "fa540801",
					"getMessageHash(address,uint256)": "512c91df",
					"recoverSigner(bytes32,bytes)": "97aba7f9",
					"splitSignature(bytes)": "a7bb5803",
					"verify(address,address,uint256,bytes)": "93e9f8fc"
				}
			},
			"storageLayout": {
				"storage": [],
				"types": null
			},
			"userdoc": {
				"kind": "user",
				"methods": {},
				"version": 1
			}
		}
	}
}